:1000000083C00000AFC00000ADC00000ABC0000066
:10001000A9C00000A7C00000A5C00000A3C0000048
:10002000A1C000009FC000009DC000009BC0000058
:1000300099C0000097C0000095C0000093C0000068
:1000400091C000008FC000008DC000008BC0000078
:1000500089C0000087C0000085C0000014C30000F4
:1000600081C00000DAC20000AFC200007BC0000007
:1000700079C0000077C0000075C0000073C00000A8
:1000800071C000006FC000006DC000006BC00000B8
:1000900069C0000067C0000065C0000063C00000C8
:1000A00061C000005FC000005DC000005BC00000D8
:1000B00059C0000057C0000055C0000053C00000E8
:1000C00051C000004FC000004DC000004BC00000F8
:1000D00049C0000047C0000045C0000043C0000008
:1000E00041C0000053757065724361703A20005240
:1000F0002E20576865656C3A20004C2E20576865A5
:10010000656C3A0900008D0311241FBECFEFD1E2C8
:10011000DEBFCDBF00E00CBF23E0A8E3B2E001C02A
:100120001D92AE32B207E1F712E0A0E0B2E0E6EBDA
:10013000FBE000E00BBF02C007900D92A833B107AF
:10014000D9F710E0C4E8D0E000E005C0219701092C
:10015000802FFE0122D5C338D10780E00807B1F710
:100160001BD327C54DCFE9E4F2E0A089B18982E035
:100170008C93A485B5851C92A685B7858FEC8C934E
:10018000108EA489B58986E08C93A289B3898C915D
:1001900080618C93A289B3898C9188608C93A289A9
:1001A000B3898C9180688C930288F389E02D8081DB
:1001B0008F7D808308950F931F93CF93DF938C01DE
:1001C000C0E0D0E0F801EC0FFD1F6491662371F0F0
:1001D000E0914902F0914A020190F081E02D89E41A
:1001E00092E01995892B11F02196ECCFCE01DF9189
:1001F000CF911F910F910895CF92DF92EF92FF92CE
:100200000F931F93CF93DF936C017A018B01C0E0B2
:10021000D0E0CE15DF0589F0D8016D918D01D601B2
:10022000ED91FC910190F081E02DC6011995892B8B
:1002300011F47E0102C02196ECCFC701DF91CF916E
:100240001F910F91FF90EF90DF90CF900895089548
:1002500080E090E00895FC01538D448D252F30E01F
:10026000842F90E0821B930B541710F0CF960895C3
:1002700001970895FC01918D828D981761F0828D10
:10028000DF01A80FB11D5D968C91928D9F5F9F73CA
:10029000928F90E008958FEF9FEF0895FC01918D6C
:1002A000828D981731F0828DE80FF11D858D90E0D9
:1002B00008958FEF9FEF0895FC01918D228D892F76
:1002C00090E0805C9F4F821B91098F73992708955E
:1002D00089E492E0F1DF21E0892B09F420E0822F0C
:1002E0000895FC01848DDF01A80FB11DA35ABF4FF3
:1002F0002C91848D90E001968F739927848FA68925
:10030000B7892C93A089B1898C9180648C93938D4B
:10031000848D981306C00288F389E02D80818F7D3B
:1003200080830895EF92FF920F931F93CF93DF93F3
:10033000EC0181E0888F9B8D8C8D981305C0E88936
:10034000F989808185FD23C0F62E0B8D10E00F5FAB
:100350001F4F0F731127E02E8C8DE8120BC00FB6C4
:1003600007FCFACFE889F989808185FFF5CFCE01B6
:10037000B8DFF2CF8B8DFE01E80FF11DE35AFF4F7E
:10038000F0820B8FEA89FB898081806207C0EE8949
:10039000FF896083E889F98980818064808381E0B6
:1003A00090E0DF91CF911F910F91FF90EF90089512
:1003B000CF93DF93EC01888D8823C1F0EA89FB8914
:1003C000808185FD05C0A889B9898C9186FD0EC004
:1003D0000FB607FCF5CF808185FFF2CFA889B989D8
:1003E0008C9185FFEDCFCE017CDFE8CFDF91CF91FF
:1003F000089580E090E0892B19F06ADF811125C013
:1004000080E090E0892B41F080E090E0892B21F0A2
:100410000E94000081111CC080E090E0892B41F017
:1004200080E090E0892B21F00E940000811113C030
:1004300080E090E0892BA1F080E090E0892B81F0B2
:100440000E94000081110AC008950E940000D8CFC8
:100450000E940000E1CF0E940000EACF0C9400004F
:1004600008953FB7F89480913D0290913E02A0918B
:100470003F02B091400226B5A89B05C02F3F19F05E
:100480000196A11DB11D3FBFBA2FA92F982F882714
:10049000820F911DA11DB11DBC01CD0142E0660F6F
:1004A000771F881F991F4A95D1F708952FB7F894A1
:1004B0006091390270913A0280913B0290913C0226
:1004C0002FBF08958F929F92AF92BF92CF92DF92EB
:1004D000EF92FF926B017C01E9DF4B015C01C60EDC
:1004E000D71EE81EF91EE2DF681579058A059B050F
:1004F00028F0C616D706E806F906A8F7FF90EF9091
:10050000DF90CF90BF90AF909F908F9008954DD384
:100510006115710579F0FB0101900020E9F7319731
:10052000AF01461B570BDC01ED91FC910280F3817A
:10053000E02D199480E090E008954F925F926F92C1
:100540007F92EF92FF920F931F93CF93DF93CDB7DC
:10055000DEB7A1970FB6F894DEBF0FBECDBF7C010A
:10056000FA01CB0119A2223008F42AE08E010F5DB6
:100570001F4F422E512C612C712CBF01A3019201FF
:10058000EAD2F901CA01015011096A3014F4605D20
:1005900001C0695CD8016C93232B242B252B69F7B0
:1005A000B801C701B5DFA1960FB6F894DEBF0FBE44
:1005B000CDBFDF91CF911F910F91FF90EF907F9072
:1005C0006F905F904F9008951F920F920FB60F9209
:1005D00011240BB60F922F933F934F935F936F931A
:1005E0007F938F939F93AF93BF93EF93FF9389E490
:1005F00092E077DEFF91EF91BF91AF919F918F9144
:100600007F916F915F914F913F912F910F900BBE12
:100610000F900FBE0F901F9018951F920F920FB65C
:100620000F9211240BB60F922F938F939F93EF93FA
:10063000FF93E0915902F0915A028081E0915F02AC
:10064000F091600282FD12C09081809162028F5F02
:100650008F7320916302821751F0E0916202F0E003
:10066000E75BFD4F958F8093620201C08081FF910F
:10067000EF919F918F912F910F900BBE0F900FBE16
:100680000F901F9018951F920F920FB60F92112482
:100690002F933F938F939F93AF93BF938091390292
:1006A00090913A02A0913B02B0913C023091380205
:1006B00023E0230F2D3720F40196A11DB11D05C0A5
:1006C00026E8230F0296A11DB11D209338028093C6
:1006D000390290933A02A0933B02B0933C0280917E
:1006E0003D0290913E02A0913F02B09140020196DE
:1006F000A11DB11D80933D0290933E02A0933F0245
:10070000B0934002BF91AF919F918F913F912F91F4
:100710000F900FBE0F901F901895E9E4F2E013823E
:10072000128288EE93E0A0E0B0E084839583A683F4
:10073000B78384E092E09183808385EC90E0958795
:10074000848784EC90E09787868780EC90E0918B9B
:10075000808B81EC90E0938B828B82EC90E0958B88
:10076000848B86EC90E0978B868B118E128E138E85
:10077000148EE6EEF2E0168217821086118612863B
:1007800013861486158616861786108A118A128A91
:10079000138A148A158A0895789484B5826084BD7A
:1007A00084B5816084BD85B5826085BD85B5816075
:1007B00085BD80916E00816080936E0010928100F3
:1007C00080918100826080938100809181008160AE
:1007D000809381008091800081608093800080916F
:1007E000B10084608093B1008091B00081608093FB
:1007F000B00080919100826080939100809191007F
:10080000816080939100809190008160809390003E
:100810008091A10082608093A1008091A1008160FD
:100820008093A1008091A00081608093A0008091BE
:100830002101826080932101809121018160809358
:1008400021018091200181608093200180917A00B4
:10085000846080937A0080917A00826080937A002D
:1008600080917A00816080937A0080917A0080681C
:1008700080937A001092C10010922A0310922B03E9
:1008800010922C0310922D031092E8021092E902AC
:100890001092EA021092EB0268EB7BE080E090E0BD
:1008A00011DE89E492E090932903809328035BDCB6
:1008B000FDDD6093E8027093E9028093EA02909371
:1008C000EB0262E172E0809128039091290320DE1F
:1008D0006AE070E080E090E0F5DD81E08093FC026A
:1008E00042DCBFDD4B015C0194EFC92EDD24D394C3
:1008F000E12CF12CB6DDDC01CB0188199909AA099C
:10090000BB09883E9340A105B10558F021E0C21A09
:10091000D108E108F10838EE830E33E0931EA11CE4
:10092000B11CC114D104E104F10421F784EF882E35
:1009300099249394A12CB12CB9DD672B682B692BDA
:1009400039F4B4DD623071058105910508F4F8C011
:10095000ADDD609345027093460280934702909309
:100960004802C0904102D0904202E0904302F090D1
:1009700044026C157D058E059F0540F4609341028D
:10098000709342028093430290934402C0904102CC
:10099000D0904202E0904302F09044029B01AC01EF
:1009A0002C193D094E095F0969017A013AEFC31616
:1009B000D104E104F10408F4C3C0609341027093D0
:1009C000420280934302909344028092F4029092F8
:1009D000F502A092F602B092F7021092F80210927D
:1009E000F9021092FA021092FB028091EC029091AF
:1009F000ED02A091EE02B091EF028093F00290938D
:100A0000F102A093F202B093F30250DD6093EC0286
:100A10007093ED028093EE029093EF0247DD6093B6
:100A2000E8027093E9028093EA029093EB023EDDC4
:100A30006B017C0164E272E08091280390912903AC
:100A400067DD2AE041E050E060E070E0809128033B
:100A50009091290372DD6BE272E0809128039091FE
:100A6000290356DD2AE0B701A60180912803909161
:100A7000290363DD6DE272E08091280390912903E0
:100A800047DD8091EC029091ED02A091EE02B091D1
:100A9000EF02B701A601481B590B6A0B7B0B2AE03A
:100AA000809128039091290348DD6DE272E08091E6
:100AB0002803909129032CDD4091EC025091ED0226
:100AC0006091EE027091EF028091F0029091F1023C
:100AD000A091F202B091F302481B590B6A0B7B0BF9
:100AE0002AE0809128039091290327DD6FE272E0CC
:100AF00080912803909129030BDDD8DCAB01BC0168
:100B00002AE0809128039091290317DDE0902803C3
:100B1000F090290361E372E0C701FADC61E272E060
:100B2000C701F6DC65E070E080E090E0CBDCBEDC85
:100B30006093EC027093ED028093EE029093EF02CB
:100B40008AEF90E038DB8FEE90E035DB84EE90E0CA
:100B500032DB4FDCF1CEA1E21A2EAA1BBB1BFD013A
:100B60000DC0AA1FBB1FEE1FFF1FA217B307E4078C
:100B7000F50720F0A21BB30BE40BF50B661F771FE4
:100B8000881F991F1A9469F76095709580959095C4
:100B90009B01AC01BD01CF010895EE0FFF1F881F1F
:100BA0008BBF0790F691E02D199481E090E0F894C6
:060BB00000C0F894FFCF25
:100BB600000000009201FC002B01D8015C013A0103
:100BC6004E01564D4450565F317C315F564D445070
:100BD600560D0A00564D4450455F003A323A007CA5
:080BE600005F564D445045002C
:00000001FF
