:10000000F4C300000C94C8110C949D110C9472114F
:100010000C9447110C941C110C94F1100C94C61004
:100020000C949B1013C4000011C400000FC4000006
:100030000C94C01F0BC4000009C4000007C40000DA
:1000400005C4000003C4000001C40000FFC3000099
:10005000FDC30000FBC30000F9C300000C94511065
:10006000F5C300000C94DA180C94B118EFC300002B
:10007000EDC30000EBC30000E9C30000E7C30000CC
:10008000E5C30000E3C30000E1C30000DFC30000DC
:10009000DDC30000DBC30000D9C30000D7C30000EC
:1000A000D5C30000D3C30000D1C30000CFC30000FC
:1000B000CDC30000CBC30000C9C30000C7C300000C
:1000C000C5C30000C3C30000C1C30000BFC300001C
:1000D000BDC30000BBC30000B9C30000B7C300002C
:1000E000B5C300007E1B7E1B7E1B441BA01BAD1BEB
:1000F0007E1B7E1B441BA01B3F1942193119351969
:100100003919791946194A195019541958195E198B
:100110006219661979196C19701974194E563130B3
:100120005F44415348424F41524420495320534C6D
:10013000454550494E47204245434155534520438C
:10014000414E5F494E4954204641494C2E2E2E00C7
:100150004E5631305F6261636B2043414E20696EC1
:100160006974207375636365737321004E56313073
:100170005F6261636B2043414E20696E6974206643
:1001800061696C210000000000003E5B4F5B3E3E59
:100190006B4F6B3E1C3E7C3E1C183C7E3C181C5733
:1001A0007D571C1C5E7F5E1C00183C1800FFE7C3D7
:1001B000E7FF0018241800FFE7DBE7FF30483A06A6
:1001C0000E2629792926407F050507407F05253F12
:1001D0005A3CE73C5A7F3E1C1C08081C1C3E7F14FE
:1001E000227F22145F5F005F5F06097F017F006648
:1001F00089956A606060606094A2FFA29408047EA2
:10020000040810207E201008082A1C08081C2A0850
:10021000081E101010100C1E0C1E0C30383E38300A
:10022000060E3E0E06000000000000005F00000009
:1002300007000700147F147F14242A7F2A12231337
:1002400008646236495620500008070300001C224B
:1002500041000041221C002A1C7F1C2A08083E087D
:10026000080080703000080808080800006060007E
:1002700020100804023E5149453E00427F40007272
:10028000494949462141494D331814127F102745E9
:100290004545393C4A494931412111090736494907
:1002A0004936464949291E00001400000040340028
:1002B00000000814224114141414140041221408DC
:1002C00002015909063E415D594E7C1211127C7F94
:1002D000494949363E414141227F4141413E7F49A2
:1002E0004949417F090909013E414151737F08088D
:1002F000087F00417F41002040413F017F081422D8
:10030000417F404040407F021C027F7F0408107FF5
:100310003E4141413E7F090909063E4151215E7F30
:1003200009192946264949493203017F01033F4003
:1003300040403F1F2040201F3F4038403F6314088B
:10034000146303047804036159494D43007F41411C
:10035000410204081020004141417F0402010204CF
:100360004040404040000307080020545478407F3C
:10037000284444383844444428384444287F385476
:1003800054541800087E090218A4A49C787F08041D
:10039000047800447D40002040403D007F10284408
:1003A0000000417F40007C047804787C08040478D5
:1003B0003844444438FC1824241818242418FC7C9D
:1003C00008040408485454542404043F44243C4082
:1003D00040207C1C2040201C3C4030403C442810E5
:1003E00028444C9090907C4464544C44000836411E
:1003F00000000077000000413608000201020402FC
:100400003C2623263C1EA1A161123A4040207A38A6
:100410005454555921555579412254547842215507
:1004200054784020545579400C1E5272123955555B
:100430005559395454545939555454580000457C31
:10044000410002457D420001457C407D1211127D34
:10045000F0282528F07C545545002054547C547CC9
:100460000A097F4932494949323A4444443A324AB6
:100470004848303A4141217A3A42402078009DA0D4
:10048000A07D3D4242423D3D4040403D3C24FF2452
:1004900024487E4943662B2FFC2F2BFF0929F62089
:1004A000C0887E090320545479410000447D4130C6
:1004B00048484A32384040227A007A0A0A727D0D52
:1004C00019317D2629292F28262929292630484D0A
:1004D0004020380808080808080808382F10C8AC59
:1004E000BA2F102834FA00007B000008142A1422C6
:1004F00022142A14085500550055AA55AA55AAFFDA
:1005000055FF55FF000000FF00101010FF001414ED
:1005100014FF001010FF00FF1010F010F01414145E
:10052000FC001414F700FF0000FF00FF1414F40493
:10053000FC141417101F10101F101F1414141F0088
:10054000101010F0000000001F101010101F1010ED
:100550001010F010000000FF1010101010101010FC
:1005600010FF10000000FF140000FF00FF00001F3C
:1005700010170000FC04F414141710171414F404DA
:10058000F40000FF00F714141414141414F700F707
:10059000141414171410101F101F141414F4141032
:1005A00010F010F000001F101F0000001F140000CA
:1005B00000FC140000F010F01010FF10FF141414D1
:1005C000FF141010101F00000000F010FFFFFFFFCD
:1005D000FFF0F0F0F0F0FFFFFF0000000000FFFF71
:1005E0000F0F0F0F0F3844443844FC4A4A4A347EF8
:1005F00002020606027E027E0263554941633844C8
:10060000443C04407E201E2006027E020299A5E79B
:10061000A5991C2A492A1C4C7201724C304A4D4D36
:10062000303048784830BC625A463D3E494949001E
:100630007E0101017E2A2A2A2A2A44445F4444403A
:10064000514A444040444A51400000FF0103E080C9
:10065000FF000008086B6B083612362436060F09B7
:100660000F06000018180000001010003040FF01B5
:1006700001001F01011E00191D1712003C3C3C3CEB
:10068000000000000000002100240027002A002DA7
:10069000003000330001010000040107010A0100DD
:1006A000002200250028002B002E0031003400021B
:1006B000010000050108010B0105050505070508F6
:1006C000080808020202020A0A08080404040401D5
:1006D00001010101010101030303030303030304F7
:1006E0000707070C0C0C0C0C0C0C0C020202020687
:1006F000060606060606060B0B0B0B0B0B0B0B0177
:100700000210202008081020401020408002010222
:1007100001080402010102040810204080804020EA
:100720001008040201800402018040201008040225
:1007300001080402010102040810204080010204A3
:10074000081020408000000A0B02090C0D0E08075B
:100750000304010000000000000000000000000091
:100760000000000000000000000000000000000089
:100770000012111000000000000000000000000046
:100780000000000000000000000000008091DA037B
:10079000882309F10FB6F8940F92E091C802F09106
:1007A000C902C681D781CE0102960E94C21F8091E4
:1007B000FD0281508093FD028091DA038150809385
:1007C000DA030F900FBE8F89988D0E944523CE01CA
:1007D0000E944523DBCF8091D502823010F00E9429
:1007E00084200E947718D2CFB01B11241FBECFEFF8
:1007F000D1E2DEBFCDBF00E00CBF23E0A2EAB2E051
:1008000001C01D92A53EB207E1F712E0A0E0B2E000
:10081000ECE5FEE400E00BBF02C007900D92A23AA7
:10082000B107D9F713E0C5EFD3E000E006C0219788
:100830000109802FFE010E94C825C43FD10780E036
:100840000807A9F70E9430250C942C27D9CB0895CE
:1008500080E090E008950F931F93CF93DF93C091B2
:10086000A202D091A3028A859B858A5B924081F582
:100870008C899D8922E08C3C920751F1892B41F5AE
:100880008091DB03811119C08091FB029091FC02E1
:100890008E010E5F1F4FC8010E94C21F9E8980916A
:1008A000F902891710F49093F90229E0929FC00190
:1008B0001124B8018B529D4F05C0BE01645F7F4F6C
:1008C0008CEC92E0DF91CF911F910F910C94E61F79
:1008D000DF91CF911F910F91089508958CBD9DBD1B
:1008E0000895CF93DF93CDB7DEB7C658D1090FB6C1
:1008F000F894DEBF0FBECDBF0E94F31180E591E0FA
:10090000EDDF60E08091AB030E94101980EC0E9443
:10091000251261E08091AB030E94101983E290E000
:100920000197F1F780E48093AC0380E80E9465139F
:10093000811163C060E08AE20E949A136AEC89E246
:100940000E949A1361E888E20E949A1361E080E2B3
:100950000E94B81361E084E20E94B81361E080E075
:100960000E94B81360E084E00E94B81361E088E060
:100970000E94B81360E080E10E94B81361E084E156
:100980000E94B81360E088E10E94B81310E360E0B1
:10099000812F0E949A1360E080E1810F0E949A13D8
:1009A00060E080E2810F0E949A131F5F1E3379F787
:1009B00060E080E60E949A1360E080E70E949A134C
:1009C00063E08BE20E949A136CE38CE00E949A131E
:1009D00060E08DE00E949A1344E664E680E60E949F
:1009E000371340E660E680E70E9437138091AC033E
:1009F0000E946513882309F4ADC18CE691E00E9442
:100A00007513F8941092FA020FB6F894A895809195
:100A10006000886180936000109260000FBE78943F
:100A20001092AC0380E00E9465131B821C821D8221
:100A30001E82FE01379684E5DF011D928A95E9F753
:100A40007E01BCE7EB0EF11C88248394912C9BE57E
:100A5000A92EB12CAC0EBD1EE0E2AE0EB11C2AE0F8
:100A6000422E512C612C712C39E0332E80E591E01F
:100A700035DF60E08091AB030E94101980EA0E948C
:100A8000251280E00E942512182F61E08091AB03AF
:100A90000E94101910FF06C081E60E94B91240E0C2
:100AA00061E007C011FF58C081E70E94B91240E021
:100AB00062E08CE20E94371380919B03882389F0C7
:100AC00080919C0390919D03A0919E03B0919F0300
:100AD000B06880939C0390939D03A0939E03B09372
:100AE0009F038091A903882389F080919C039091B2
:100AF0009D03A0919E03B0919F03B06480939C03DB
:100B000090939D03A0939E03B0939F0320909C031A
:100B1000F0919D03CC57DF4FF883C458D04020910B
:100B20009E03CB57DF4F2883C558D04080919F0349
:100B3000CA57DF4F8883C658D0408091A00390E009
:100B4000A1EAB3E0F7019F012E193F0928173907E1
:100B50001CF42D912193F7CF66E172E0CE0103964C
:100B60000E94252721FE03C09A82898202C01A8230
:100B7000198282E692E00E94A812EC961FAEEC97D2
:100B8000222DCC57DF4F3881C458D040CB57DF4F90
:100B90004881C558D040CA57DF4F5881C658D04009
:100BA0008501CA01B901A30192010E94A625605DD9
:100BB000D8016E938D01211531054105510589F745
:100BC000CD010E94A8128BE692E00E94A8128EE648
:100BD00092E00E94A812CE0103960E94A8128BE612
:100BE00092E00E94A8120091A2021091A3020FB6F7
:100BF000F8940F920115110521F40091FB02109158
:100C0000FC026801B2E0CB0ED11CC6010E94C21FDB
:100C1000F80184899589892B21F0C8010C960E94DE
:100C2000C21FB6018AEB92E00E94E61FD801979698
:100C30008C919797813011F497961C920F900FBE6C
:100C40008091FA02882339F00FB6F8940F920E942F
:100C500039120F900FBE8091FB029091FC02081791
:100C6000190709F003CF8091FA02882319F00E9436
:100C70008420FCCE9091BA028091FD02981305C0A9
:100C80001092FC021092FB02F1CE8091DB038823CC
:100C900021F081E08093C203E9CE1092C203A091BB
:100CA000FB02B091FC02E091FB02F091FC022D915D
:100CB0003C918789908D82179307A8F08091FB0261
:100CC0009091FC028091FB029091FC02279A2F9A4E
:100CD000BFEFE7EAF1E6B150E040F040E1F700C0D5
:100CE00000001F9AF5CF4091F902242F30E0329E88
:100CF000C001339E900D1124FC01EB52FD4F508139
:100D0000511102C04150F1CFA181B28112960D90D4
:100D1000BC91A02DB283A18388529D4FA817B9071B
:100D200031F412968D919C91139792838183329E18
:100D3000F001339EF00D1124EB52FD4F0180F28142
:100D4000E02D868197819093FC028093FB02409373
:100D5000F9028CCE80E591E00E94751361CECF93AD
:100D6000DF93CDB7DEB7CB58D1090FB6F894DEBF0D
:100D70000FBECDBF1B821C821D821E82FE013796D4
:100D800084E5DF011D928A95E9F76F961FAE1EAECE
:100D90006F9720E431E0A1963FAF2EAFA19780EE90
:100DA00091E0A3969FAF8EAFA397A5963FAF2EAFCE
:100DB000A597A7969FAF8EAFA797E1961FAEE19735
:100DC000A9961FAE1EAEA997AB961FAE1EAEAB97EF
:100DD00081E0E0968FAFE0972FEF3FEFAF963FAF08
:100DE0002EAFAF97AD963FAF2EAFAD97E2968FAFD8
:100DF000E297E3961FAEE397E5961FAE1EAEE5972A
:100E00002CE132E06D963FAF2EAF6D979AE0CE5752
:100E1000DF4F9883C258D04097E0CD57DF4F98837B
:100E2000C358D04098E0CC57DF4F9883C458D04087
:100E3000E7968FAFE797C957DF4F1882C758D04062
:100E4000CB57DF4F1882C558D04061E088E00E9440
:100E50008D1960E0CC57DF4F8881C458D0400E9484
:100E6000101961E0CD57DF4F8881C358D0400E94F0
:100E70008D1961E0CE57DF4F8881C258D0400E9463
:100E80008D19CE57DF4F8881C258D040082E000CF4
:100E9000990BFC01E754F94FE491F0E0EE0FFF1FCE
:100EA000E156F94F25913491C058DF4F398328839B
:100EB000C058D040FC01E150F94FE491C657DF4FD4
:100EC000E883CA58D040CD57DF4F8881C358D040FF
:100ED000082E000C990BFC01E754F94FE491F0E067
:100EE000EE0FFF1FE156F94F25913491EE963FAF7B
:100EF0002EAFEE97FC01E150F94FE491C557DF4F5B
:100F0000E883CB58D040E7968FADE797882319F058
:100F10000E94F3116AC061E0C957DF4F8881C7584A
:100F2000D0400E948D1961E0CB57DF4F8881C558B2
:100F3000D0400E948D1960E0CA57DF4F8881C658A3
:100F4000D0400E948D19C957DF4F8881C758D040C3
:100F5000082E000C990BFC01E754F94FE491F0E0E6
:100F6000EE0FFF1FE156F94FA591B491EC96BFAF7C
:100F7000AEAFEC97FC01E150F94F8491C757DF4FBA
:100F80008883C958D040CB57DF4F2881C558D040FF
:100F9000022E000C330BF901E754F94FE491F0E015
:100FA000EE0FFF1FE156F94F45915491EA965FAF5E
:100FB0004EAFEA97F901E150F94FE491C857DF4F7E
:100FC000E883C858D0409C91E82FE095E923EC9342
:100FD000EA96EEADFFADEA979081C857DF4F888162
:100FE000C858D040809589238083CC57DF4F8881B3
:100FF000C458D040181624F561E00E94101965E02D
:1010000070E080E090E00E94191060E0CC57DF4F64
:101010008881C458D0400E94101964E170E080E0DB
:1010200090E00E94191061E0CC57DF4F8881C458CE
:10103000D0400E94101966E970E080E090E0F9D796
:10104000E7968FADE797882319F080E591E046DCBD
:1010500060EECE01855A9F4F0E948F1460E0CE0152
:10106000855A9F4F0E94741463E0CE01855A9F4FAA
:101070000E94741469E0CE01855A9F4F0E94741437
:1010800068E0CE01855A9F4F0E94741466E1CE013C
:10109000855A9F4F0E9474146AE0CE01855A9F4F73
:1010A0000E9474146FE3CE01855A9F4F0E947414FE
:1010B00068E7CE01855A9F4F0E9474146CE4CE01FC
:1010C000855A9F4F0E94741469E0CE01855A9F4F44
:1010D0000E9474146AE0CE01855A9F4F0E947414D6
:1010E00068E0CE01855A9F4F0E94741466E1CE01DC
:1010F000855A9F4F0E9474146AE1CE01855A9F4F12
:101100000E9474146FE0CE01855A9F4F0E947414A0
:1011100061EECE01855A9F4F0E948F1460E0CE0190
:10112000855A9F4F0E94741466E1CE01855A9F4FE5
:101130000E94741469E1CE01855A9F4F0E94741475
:1011400063E0CE01855A9F4F0E9474146FE0CE0178
:10115000855A9F4F0E94741465E0CE01855A9F4FB7
:101160000E94741462E3CE01855A9F4F0E9474144A
:1011700065E4CE01855A9F4F0E94741466E4CE0147
:10118000855A9F4F0E94741464E0CE01855A9F4F88
:101190000E9474146EE0CE01855A9F4F0E94741411
:1011A0006DE0CE01855A9F4F0E94741465E3CE0115
:1011B000855A9F4F0E94741467E3CE01855A9F4F52
:1011C0000E9474146FE0CE01855A9F4F0E947414E0
:1011D00060ECCE01855A9F4F0E948F1467E1CE01CB
:1011E000855A9F4F0E94741465E1CE01855A9F4F26
:1011F0000E94741461ECCE01855A9F4F0E948F1497
:1012000061E4CE01855A9F4F0E94741465ECCE01B3
:10121000855A9F4F0E948F1460E0CE01855A9F4FE0
:101220000E94741462E1CE01855A9F4F0E9474148B
:1012300060E8CE01855A9F4F0E94741466E3CE0188
:10124000855A9F4F0E948F1468E4CE01855A9F4FA4
:101250000E9474146AE3CE01855A9F4F0E948F1436
:1012600066E6CE01855A9F4F0E94741460EBCE0152
:10127000855A9F4F0E948F1460E8CE01855A9F4F78
:101280000E94741461EBCE01855A9F4F0E948F1407
:1012900060EACE01855A9F4F0E94741464EBCE0120
:1012A000855A9F4F0E948F1462E0CE01855A9F4F4E
:1012B0000E94741466EBCE01855A9F4F0E948F14D2
:1012C00062E0CE01855A9F4F0E94741462E0CE0105
:1012D000855A9F4F0E94741469EECE01855A9F4F24
:1012E0000E948F1460E0CE01855A9F4F0E947414B3
:1012F00067EFCE01855A9F4F0E948F1469EACE0195
:10130000855A9F4F0E94741461E5CE01855A9F4F04
:101310000E9474146CE2CE01855A9F4F0E9474148F
:1013200062E8CE01855A9F4F0E94741461E1CE019C
:10133000855A9F4F0E948F1468E770E080E090E02C
:1013400078D6E7968FADE797882319F080E591E08E
:10135000C5DA69E2CE01855A9F4F0E948F1461E081
:10136000CE01855A9F4F0E94D51460E070E0CE01F7
:10137000855A9F4F0E94EA1388E792E00E94A812C4
:101380008BE692E00E94A812BE016F5F7F4F8091B2
:10139000AD039091AE030E945F240E94AF1F60E0F6
:1013A00082E190E00E943F1A0E9449218111ECCF16
:1013B0000E948420E9CF8BE294E09093070280930F
:1013C000060280916900837F886080936900E99AB2
:1013D00061E089E00E948D1961E089E00E941019A6
:1013E000E0910E03F0910F0382E08083E0910A0305
:1013F000F0910B031082E0910C03F0910D038FEC40
:10140000808310921603E0911203F091130386E09B
:101410008083E0911003F0911103808180618083CB
:10142000E0911003F0911103808188608083E09146
:101430001003F0911103808180688083E091100394
:10144000F091110380818F7D808368EE73E080E0EE
:1014500090E0EFD502EA12E021E04AEF50E06DE8BB
:1014600072E08FEA96E00E943C1C00E010E022E06F
:1014700044EF51E06DE872E081E794E00E943C1C8B
:101480000E94A3228CE191E00E94751360ED77E049
:1014900080E090E0CED5F6CF3FB7F8948091B202CD
:1014A0009091B302A091B402B091B50226B5A89B69
:1014B00005C02F3F19F00196A11DB11D3FBFBA2FE6
:1014C000A92F982F8827820F911DA11DB11DBC0146
:1014D000CD0142E0660F771F881F991F4A95D1F70B
:1014E000089508950895FC016370658B848195814A
:1014F00026813781613039F0633029F09187808708
:1015000033872287089531872087938782870895BC
:101510002F923F924F925F926F927F928F929F9203
:10152000AF92BF92CF92DF92EF92FF920F931F93F1
:10153000CF93DF93CDB7DEB76C970FB6F894DEBFCD
:101540000FBECDBF9C8F8B8F5B011A011F830E8353
:101550003701C982DC0158964D915C91599741152C
:10156000510509F0E5C018968D919C91199768175F
:1015700079070CF0CAC11A968D919C911B97281679
:1015800039060CF0C2C18C2C912CFB0136E0C39EB5
:10159000E00DF11D1124FB87EA871E161F060CF0D3
:1015A000B4C1C40133E0880F991F3A95E1F79D87D4
:1015B0008C87820D931D181619060CF0A6C157963C
:1015C0008C91811103C0203B08F02F5FAB8DBC8D47
:1015D000ED91FC9111970284F385E02DCD012A8FC6
:1015E00019952A8DB5E02B9F90011124F5013596B0
:1015F000FF87EE87BB82AA822501A9014A195B09F0
:10160000598B488BC10108969B8B8A8BE889F98995
:10161000E40DF51DEB57FE4F9491988761013D82D3
:101620002C82A885A0FF13C0AB8DBC8DED91FC91E1
:10163000B981B13031F40484F585E02D2E813F81EC
:1016400016C00684F785E02DEE80FF801AC0EE817B
:10165000FF816E167F06F1F0AB8DBC8DED91FC9194
:10166000B981B13051F40484F585E02D9301A601D0
:10167000B2018B8D9C8D19950DC00684F785E02DE8
:101680007301840194014C815D816A817B818B8D22
:101690009C8D1995E885E695E887FFEFCF1ADF0A5C
:1016A0002C813D81280D391D3D832C834A895B891E
:1016B000C416D50609F0B5CF5FEF451A550A8A81E1
:1016C0009B81880D991D9B838A83AE85BF854A16B1
:1016D0005B0609F09BCFEE81FF816E167F0609F451
:1016E000F2C0EB8DFC8DA081B181F981F13079F4EC
:1016F000B5016B5F7F4F5096ED91FC91519783013F
:1017000028E030E0A1018B8D9C8D1995DCC06A85A5
:101710007B85681979091E96ED91FC911F977301DD
:101720000C851D859401A1018B8D9C8D1995CBC0D5
:10173000FA0134969491329765917491291BCB01EB
:10174000B7E02B9F800D911D1124FA012591349152
:101750003B8B2A8BFC01459154915B834A83FC01AE
:101760003296C490319654915E8732961491319698
:10177000D4908981823058F0612E012E000C7708B8
:10178000AD2D0D2C000CBB0BB987A88704C01986A2
:101790001886612C712CAB8DBC8DED91FC9111974D
:1017A0000284F385E02DCD011995B9818B2E912C02
:1017B000689CC001699C900D789C900D1124FC01DF
:1017C000EA0DFB1DFD87EC871C82712C612CE12F3B
:1017D000110FFF0B95012E0F3F1F3B872A87AC0C83
:1017E000B11CA5014E0F5F1F5F8B4E8BC1018D0D8C
:1017F000911DD7FC9A95998F888F4E85641608F0B5
:1018000062C0862D90E048855985480F591F489D34
:101810009001499D300D589D300D1124D901A20D24
:10182000B31DB98BA88BAA84BB844C845D84DC80F7
:10183000BA85DB1AE88DF98DE80FF91FFD8BEC8B6B
:101840008D2D8A0D2E893F89A216B306B9F18770B6
:1018500061F48A819B810196EA89FB89AA81BB8117
:10186000EA0FFB1F74909B838A8377FE20C0AB8DA9
:10187000BC8DED91FC91B981B13061F40484F585A2
:10188000E02D2E813F814C895D89B5018B8D9C8D2A
:1018900019950DC00684F785E02DEE80FF80840148
:1018A000940148895989B2018B8D9C8D1995770CCB
:1018B000EFEFAE1ABE0A480C591CC2CF3C813C0D5A
:1018C0003C8363949ACFAB8DBC8DED91FC911197C5
:1018D0000688F789E02DCD016C960FB6F894DEBF2F
:1018E0000FBECDBFDF91CF911F910F91FF90EF9071
:1018F000DF90CF90BF90AF909F908F907F906F9030
:101900005F904F903F902F9019946C960FB6F8947B
:10191000DEBF0FBECDBFDF91CF911F910F91FF9022
:10192000EF90DF90CF90BF90AF909F908F907F907F
:101930006F905F904F903F902F900895AF92BF921D
:10194000CF92EF92FF920F931F93CF93DF93EC010F
:10195000262F888D998D009709F03FC06A3059F481
:101960001D861C862C898E859F8538E0239F800DDF
:10197000911D112440C06D3009F4A8C08E898823C0
:10198000C1F03C898C859D8546E0349F800D911D7A
:10199000112448855985481759075CF41D861C8613
:1019A0008E859F8548E0349F800D911D11249F876F
:1019B0008E87EA88FB88088919894E855F856C8542
:1019C0007D85CC88CE01A4DD2C898C859D8536E073
:1019D000239F800D911D112442C06A3079F41D8629
:1019E0001C862C89FC013696E4918E859F852E9F5E
:1019F000800D911D11249F878E8768C06D3009F47A
:101A000065C0FC0134963491631708F45FC03196C9
:101A1000E491E61708F45AC0FC013296A590B49000
:101A2000462F50E0431B510937E0349FB001359FEA
:101A3000700D1124A60EB71EF50132963491319621
:101A4000E491332311F0E1110DC0F5013496E491D6
:101A50002C898C859D85E29F800D911D11249D8789
:101A60008C8734C0F501359644915E89552311F178
:101A70006C89E32FF0E0E40FF11D47FDFA956E9FAE
:101A8000D0016F9FB00D11244C855D854A0F5B1FFF
:101A9000E885F985E417F5076CF41D861C86FC01C2
:101AA0003696E4918E859F856E9F800D911D112441
:101AB0009F878E87EA88FB88088919894E855F850C
:101AC0006C857D85CC88CE0123DDBFCF81E090E0A1
:101AD000DF91CF911F910F91FF90EF90CF90BF902A
:101AE000AF9008956F927F928F929F92AF92BF9224
:101AF000CF92DF92EF92FF920F931F93CF93DF93DA
:101B0000EC014B015A0169013801E881F981028435
:101B1000F385E02D1995E881F9810288F389E02D9C
:101B200087019601A501B401CE011995E881F981DB
:101B3000A501460D571D415051090288F389E02D3A
:101B40009601B401CE011995E881F9810088F189E7
:101B5000E02D9301A501B401CE011995E881F98129
:101B6000C80CD91CB601615071090088F189E02DBB
:101B70009301A501CE011995E881F9810688F789BD
:101B8000E02DCE01DF91CF911F910F91FF90EF904B
:101B9000DF90CF90BF90AF909F908F907F906F908D
:101BA0001994CF92DF92EF92FF920F931F93CF93EE
:101BB000DF9300D000D0CDB7DEB76C01DC01ED9132
:101BC000FC916217730789F4041715072CF4942FFE
:101BD000852FA801092F182F041B150B98012F5FC3
:101BE0003F4F048CF58DE02D12C04017510709F5C9
:101BF000261737072CF4962F872FB901292F382F56
:101C0000261B370B2F5F3F4F068CF78DE02D87018A
:101C1000C601199526960FB6F894DEBF0FBECDBF4C
:101C2000DF91CF911F910F91FF90EF90DF90CF90B8
:101C300008950284F385E02D2D833E834B835C83DE
:101C400069837A831995D601ED91FC910488F58911
:101C5000E02D2D813E814B815C8169817A81C601B5
:101C60001995D601ED91FC910688F789E02DC60102
:101C700026960FB6F894DEBF0FBECDBFDF91CF9191
:101C80001F910F91FF90EF90DF90CF901994EF92FA
:101C9000FF920F931F93DC01ED91FC9111971A961F
:101CA0000D911C911B9718962D913C91199700A0AE
:101CB000F1A1E02D7B0140E050E060E070E019957B
:101CC0001F910F91FF90EF9008954F925F926F9246
:101CD0007F928F929F92AF92BF92CF92DF92EF92BC
:101CE000FF920F931F93CF93DF931F921F92CDB755
:101CF000DEB76C015A0139014801DC01ED91FC911C
:101D00000284F385E02D69837A8319956981462ED3
:101D10007A81572E640C751CD601ED91FC91461406
:101D200057046CF40088F189E02D87019401A50126
:101D3000B201C6011995BFEF4B1A5B0AEDCF0688B9
:101D4000F789E02DC6010F900F90DF91CF911F9181
:101D50000F91FF90EF90DF90CF90BF90AF909F904A
:101D60008F907F906F905F904F901994AF92BF9239
:101D7000CF92DF92EF92FF920F931F93CF93DF9357
:101D800000D01F92CDB7DEB75C016901DC01ED9197
:101D9000FC910284F385E02D4B835C8369837A8315
:101DA0001995D501ED91FC9169817A819B012C0DEA
:101DB0003D1D215031090488F589E02D78014B81C2
:101DC0005C818A01C5011995D501ED91FC910688C8
:101DD000F789E02DC5010F900F900F900F90DF91C4
:101DE000CF911F910F91FF90EF90DF90CF90BF9018
:101DF000AF901994AF92BF92CF92DF92EF92FF9281
:101E00000F931F93CF93DF9300D01F92CDB7DEB710
:101E10005C016901DC01ED91FC910284F385E02D08
:101E20004B835C8369837A831995D501ED91FC918D
:101E30004B815C81C40ED51EB1E0CB1AD108048859
:101E4000F589E02D7801860169817A819B01C501C0
:101E50001995D501ED91FC910688F789E02DC50112
:101E60000F900F900F900F90DF91CF911F910F91D6
:101E7000FF90EF90DF90CF90BF90AF9019940895AE
:101E8000EF92FF920F931F93DC01ED91FC9100A064
:101E9000F1A1E02D19951F910F91FF90EF900895FA
:101EA0000F931F93DC01ED91FC91068CF78DE02DD3
:101EB00019951F910F9108950F931F93DC01ED91D8
:101EC000FC91048CF58DE02D19951F910F910895CB
:101ED000DC01ED91FC910084F185E02D19940895C9
:101EE0002F923F924F925F926F927F928F929F922A
:101EF000AF92BF92CF92DF92EF92FF920F931F9318
:101F0000CF93DF9300D0CDB7DEB74C017B836A83DC
:101F10006A01590117019801241B350B37FF03C0D3
:101F2000319521953109C5014A815B81841B950B4F
:101F300097FF03C091958195910951E059838217CC
:101F4000930714F019820BC09A2D8B2D5801092F7D
:101F5000182F9A818B81DB82CA82C92ED82E8A8162
:101F60009B81A816B9065CF49C2D8D2D6801092F64
:101F7000182F9A818B81BB82AA82A92EB82E2501A7
:101F8000AA81BB814A1A5B0A38016C187D0877FE6A
:101F900003C0719461947108720157FE03C0BFEFD2
:101FA000EB1AFB0AF594E794C016D1061CF00FEF6C
:101FB0001FEF1FC001E010E01CC0D401ED91FC91A7
:101FC000B9810484F585E02D9101BB23C1F04A81DC
:101FD0005B81B601C4011995E618F708F7FE04C045
:101FE000C00ED11EE40CF51CEA81FB813196FB8307
:101FF000EA834A815B81A416B506FCF604C0A601FB
:102000006A817B81E7CF0F900F900F90DF91CF9186
:102010001F910F91FF90EF90DF90CF90BF90AF9006
:102020009F908F907F906F905F904F903F902F90F8
:1020300008958F929F92AF92BF92CF92DF92EF92CC
:10204000FF926B017C0128DA4B015C01C114D104C1
:10205000E104F104E9F020DADC01CB0188199909E7
:10206000AA09BB09883E9340A105B10578F321E098
:10207000C21AD108E108F10888EE880E83E0981EA4
:10208000A11CB11CC114D104E104F10421F7DECF7D
:10209000FF90EF90DF90CF90BF90AF909F908F9088
:1020A00008951F920F920FB60F9211242F933F9312
:1020B0008F939F93AF93BF938091AE029091AF02A5
:1020C000A091B002B091B1023091AD0223E0230F94
:1020D0002D3720F40196A11DB11D05C026E8230F60
:1020E0000296A11DB11D2093AD028093AE02909384
:1020F000AF02A093B002B093B1028091B20290916E
:10210000B302A091B402B091B5020196A11DB11D18
:102110008093B2029093B302A093B402B093B5023D
:10212000BF91AF919F918F913F912F910F900FBED3
:102130000F901F9018951F920F920FB60F921124B7
:102140000BB60F922F933F934F935F936F937F93B1
:102150008F939F93AF93BF93EF93FF93E0910E0202
:10216000F0910F021995FF91EF91BF91AF919F915F
:102170008F917F916F915F914F913F912F910F9030
:102180000BBE0F900FBE0F901F9018951F920F92CD
:102190000FB60F9211240BB60F922F933F934F93CC
:1021A0005F936F937F938F939F93AF93BF93EF93BF
:1021B000FF93E0910C02F0910D021995FF91EF91C0
:1021C000BF91AF919F918F917F916F915F914F914F
:1021D0003F912F910F900BBE0F900FBE0F901F904D
:1021E00018951F920F920FB60F9211240BB60F92F3
:1021F0002F933F934F935F936F937F938F939F930F
:10220000AF93BF93EF93FF93E0910202F09103022B
:102210001995FF91EF91BF91AF919F918F917F9110
:102220006F915F914F913F912F910F900BBE0F9047
:102230000FBE0F901F9018951F920F920FB60F921E
:1022400011240BB60F922F933F934F935F936F938D
:102250007F938F939F93AF93BF93EF93FF93E091FF
:102260000002F09101021995FF91EF91BF91AF919A
:102270009F918F917F916F915F914F913F912F919E
:102280000F900BBE0F900FBE0F901F9018951F92CE
:102290000F920FB60F9211240BB60F922F933F930C
:1022A0004F935F936F937F938F939F93AF93BF935E
:1022B000EF93FF93E0910A02F0910B021995FF91C1
:1022C000EF91BF91AF919F918F917F916F915F91AE
:1022D0004F913F912F910F900BBE0F900FBE0F901B
:1022E0001F9018951F920F920FB60F9211240BB6E4
:1022F0000F922F933F934F935F936F937F938F939F
:102300009F93AF93BF93EF93FF93E0910802F091F7
:1023100009021995FF91EF91BF91AF919F918F9114
:102320007F916F915F914F913F912F910F900BBED5
:102330000F900FBE0F901F9018951F920F920FB61F
:102340000F9211240BB60F922F933F934F935F93ED
:102350006F937F938F939F93AF93BF93EF93FF936D
:10236000E0910602F09107021995FF91EF91BF915C
:10237000AF919F918F917F916F915F914F913F911D
:102380002F910F900BBE0F900FBE0F901F901895BE
:102390001F920F920FB60F9211240BB60F922F932C
:1023A0003F934F935F936F937F938F939F93AF93DD
:1023B000BF93EF93FF93E0910402F091050219950A
:1023C000FF91EF91BF91AF919F918F917F916F910D
:1023D0005F914F913F912F910F900BBE0F900FBEC9
:1023E0000F901F901895CF93CFB7F8948091AC02BF
:1023F000811123C0EEEEF6E08491E4E3F7E09491DE
:10240000E82FF0E0EE0FFF1FEB57F94FA591B491C5
:10241000EC91E92319F461E085E302D761E085E3FB
:102420007CD78CB580618CBD8CB580648CBD61E03F
:1024300084E373D761E083E370D78091AC028F5F50
:102440008093AC02CFBFCF9108958EBD00000DB434
:1024500007FEFDCF8EB50895279A2F9A2FEF80E7BC
:1024600092E0215080409040E1F700C000001F9AA8
:10247000F5CFE091B802F091B9028081811103C0DB
:102480008FEF9FEF0CC0E091B802F091B902058088
:10249000F681E02D0680F781E02D82819381909373
:1024A000A5028093A4020895CF92DF92FF920F932A
:1024B0001F93CF93DF931F92CDB7DEB7F82E162F61
:1024C000042F80E591E079830E946E0460E08091A2
:1024D000AB03A6D683E0B9DF8F2DB7DFF12EC12E77
:1024E0007981D72E8C2D8F19801730F480E0ADDFE5
:1024F000F60181936F01F6CF61E08091AB0390D636
:102500000F90DF91CF911F910F91FF90DF90CF90AF
:102510000C946D041F93CF93DF93182F80E591E007
:102520000E946E04CBE9D3E060E0888979D683E02D
:102530008CDF812F8ADF80E088DF182F61E08889B7
:102540006FD60E946D04812FDF91CF911F91089566
:10255000009761F0FC0101900020E9F73197AF018D
:10256000481B590BBC018EEF92E0C8C480E090E09C
:1025700008950F931F93CF93DF9300D01F92CDB791
:10258000DEB7182F10929B0310929C0310929D03AC
:1025900010929E0310929F0344E0BE016F5F7F4F35
:1025A00083DF8A819981482F50E065E055954795F2
:1025B0006A95E1F728E0929F400D511D1124052EE8
:1025C000000C660B770B40939C0350939D03609324
:1025D0009E0370939F0383FF29C092E0440F551F11
:1025E000661F771F9A95D1F78370480F511D611DA3
:1025F000711D762F652F542F44278B81480F511D55
:10260000611D711D762F652F542F44278C81480F33
:10261000511D611D711D40939C0350939D03609358
:102620009E0370939F0381E080939B038FEF810F44
:1026300071DF082F84E0810F6DDF482F03FF04C096
:1026400081E08093A90302C01092A9034F704093C8
:10265000A00361EA73E085E0810F26DF0F900F9001
:102660000F900F90DF91CF911F910F910895EF92EE
:10267000FF920F931F93CF93DF931F92CDB7DEB7D7
:10268000082F162F80E591E049830E946E048BE9A4
:10269000E82E83E0F82E60E0F7018089C1D585E05F
:1026A000D4DE802FD2DE812FD0DE4981842FCDDE93
:1026B00061E0F7018089B4D50F90DF91CF911F9130
:1026C0000F91FF90EF900C946D04CF93C82F482F7B
:1026D00060EE8FE0CCDF8FE01DDF807E91E08C1319
:1026E00001C090E0892FCF9108950F931F93CF934E
:1026F000DF938C01C0E0D0E0F801EC0FFD1F649186
:10270000662371F0E091FE02F091FF020190F081EA
:10271000E02D8EEF92E01995892B11F02196ECCFE8
:102720008BE692E015DF8C0F9D1FDF91CF911F91FB
:102730000F9108950F931F93CF93DF93082F162FB8
:1027400080E591E00E946E04CBE9D3E060E08889E7
:1027500067D582E07ADE802F78DE812F76DE61E039
:1027600088895ED5DF91CF911F910F910C946D04F4
:102770001F93CF93DF9300D01F92CDB7DEB7182FF2
:102780001C821B82613019F488E08A8301C01A829E
:10279000198280E591E00E946E0460E08091AB03B5
:1027A0003FD582E052DE812F50DE89814EDE8A8164
:1027B0004CDE8B814ADE8C8148DE61E08091AB0388
:1027C0002FD50F900F900F900F90DF91CF911F9109
:1027D0000C946D04EF92FF920F931F93DC01ED9127
:1027E000FC9111971A960D911C911B9718962D919B
:1027F0003C91199700A0F1A1E02D7B0140E050E051
:1028000060E070E019951F910F91FF90EF9008958F
:10281000FC01838D811122C028E030E090E8A58D75
:10282000B68D85A5492F462319F04C91842B03C002
:102830004C91809584238C93A78DB0A14C9186A553
:10284000842B8C93A78DB0A14C9186A58095842371
:102850008C9396952150310911F708956EBD0DB4F2
:1028600007FEFDCF0895EF92FF920F931F93CF9332
:10287000DF938C01EB01862F8F71FF24FA942FEFE9
:10288000829FC00111242FE130E0B9010E949325FD
:10289000E62EAE01452F5527469546954695F49E62
:1028A000C001F59E900D1124B9010E949325C80125
:1028B000AFDFC07ED77095E0D695C7959A95E1F7C2
:1028C000FC9EC001FD9E900D11246FE370E00E94FC
:1028D0009325C8019DDF6E2DC801DF91CF911F9117
:1028E0000F91FF90EF9094CFCF93DF93EC01E9A18C
:1028F000FAA1908188A9892B8083EDA1FEA1908106
:102900008FA5809589238083CE0182DFEDA1FEA172
:1029100090818FA5892B8083DF91CF910895CF93EC
:10292000DF93EC01E9A1FAA1908188A98095892320
:102930008083EDA1FEA190818FA58095892380835E
:10294000CE0166DFEDA1FEA190818FA5892B80834A
:10295000DF91CF9108950F931F93CF93DF931F9231
:10296000CDB7DEB78C01FC01838D882331F080E583
:1029700091E069830E946E046981611102C060E286
:1029800001C061E2C801CBDFF801838D882339F0F3
:102990000F90DF91CF911F910F910C946D040F90C8
:1029A000DF91CF911F910F9108951F93CF93DF93E4
:1029B000EC01162F8B8D882321F080E591E00E9499
:1029C0006E0466E3CE01ABDF612F63706D8B623006
:1029D00041F0633081F0613011F068E403C068E2D7
:1029E0000BC068E8CE0180DF80E491E0998788879A
:1029F00080EE91E009C068EECE0176DF80EE91E0D6
:102A00009987888780E491E09B878A878B8D8823CC
:102A100029F0DF91CF911F910C946D04DF91CF913C
:102A20001F910895CF92DF92FF920F931F93CF9340
:102A3000DF9300D01F921F92CDB7DEB76C01F62E48
:102A40006AE22B833A834D835C83798368DF7981E3
:102A5000672FC60149DF6F2DC60146DF3A81632F1C
:102A6000C60142DF2B81622FC6013EDF6BE2C60149
:102A700056DF5C81652FC60137DF4D81642FC601AB
:102A800033DF612FC60130DF602FC6012DDF6CE21E
:102A9000C6010F900F900F900F900F90DF91CF9184
:102AA0001F910F91FF90DF90CF9039CF8F929F921F
:102AB000AF92BF92CF92DF92EF92FF920F931F934C
:102AC000CF93DF9300D01F92CDB7DEB74C015901F1
:102AD0006801DC0118962D913C91199762177307D4
:102AE0000CF07DC01A968D919C911B974817590741
:102AF0000CF075C0FB01EA0DFB1D2E173F071CF4FF
:102B00005901A61AB70A9A012C0D3D1D8217930789
:102B10001CF46C01C41AD50AF401838D882361F07A
:102B200080E591E04B835C8369837A830E946E0425
:102B30007A8169815C814B818A010C0D1D1D0150D8
:102B400011099B012A0D3B1D21503109C4016ADF87
:102B5000D4019196ED91FC9192979081D0968C91B1
:102B6000D097892B80839596ED91FC9196979081D3
:102B70009F968C918095892380831C141D0474F486
:102B800085011016110634F4B701C4016CDE015042
:102B90001109F7CFB1E0CB1AD108EFCFD401959648
:102BA000ED91FC91969790819F968C919F97892BA0
:102BB00080835B968C91882391F00F900F900F90FB
:102BC0000F90DF91CF911F910F91FF90EF90DF90C9
:102BD000CF90BF90AF909F908F900C946D040F900A
:102BE0000F900F900F90DF91CF911F910F91FF9059
:102BF000EF90DF90CF90BF90AF909F908F9008950F
:102C00008F929F92AF92BF92CF92DF92EF92FF92FC
:102C10000F931F93CF93DF931F921F92CDB7DEB711
:102C20004C016B0179015801DC0118968D919C9142
:102C30001997681779070CF064C01A962D913C918A
:102C40001B97421753070CF05CC09B012E0D3F1DD4
:102C5000821793071CF47C01E61AF70AF401838DAE
:102C6000882341F080E591E049835A830E946E04F5
:102C70005A81498196012E0D3F1D215031098A014B
:102C8000B601C401CFDED4019196ED91FC919297EB
:102C90009081D0968C91D097892B80839596ED91D9
:102CA000FC91969790819F968C9180958923808343
:102CB000E114F10439F0B501C401D5DDB1E0EB1A3E
:102CC000F108F6CFD4019596ED91FC9196979081FD
:102CD0009F968C919F97892B80835B968C918823FC
:102CE00081F00F900F90DF91CF911F910F91FF9086
:102CF000EF90DF90CF90BF90AF909F908F900C940B
:102D00006D040F900F90DF91CF911F910F91FF9065
:102D1000EF90DF90CF90BF90AF909F908F900895ED
:102D2000AF92BF92CF92DF92EF92FF920F931F93D9
:102D3000CF93DF9300D01F92CDB7DEB75C0179014E
:102D40006801DC0118968D919C9119976817790795
:102D50000CF067C01A968D919C911B9748175907E4
:102D60000CF05FC09A012E0D3F1D821793071CF4D3
:102D70007C01E41AF50AF501838D882361F080E572
:102D800091E04B835C8369837A830E946E047A812D
:102D900069815C814B818A010E0D1F1D0150110953
:102DA0009B01C5013FDED5019196ED91FC91929773
:102DB0009081D0968C91D097892B80839596ED91B8
:102DC000FC91969790819F968C9180958923808322
:102DD000E114F10439F0B601C50145DDB1E0EB1AAB
:102DE000F108F6CFD5019596ED91FC9196979081DB
:102DF0009F968C919F97892B80835B968C918823DB
:102E000081F00F900F900F900F90DF91CF911F9155
:102E10000F91FF90EF90DF90CF90BF90AF900C9408
:102E20006D040F900F900F900F90DF91CF911F9135
:102E30000F91FF90EF90DF90CF90BF90AF900895EB
:102E4000AF92BF92CF92DF92EF92FF920F931F93B8
:102E5000CF93DF93EC0177FD46C08885998568178D
:102E600079070CF040C057FD3EC08A859B85481706
:102E70005907CCF579015A016B018B8D882321F01C
:102E800080E591E00E946E0485010F5F1F4F96015F
:102E90002F5F3F4FA501B601CE01C4DDE9A1FAA124
:102EA000908188A9892B8083EDA1FEA190818FA5B7
:102EB000809589238083B701CE01D5DCEDA1FEA1E9
:102EC00090818FA5892B80838B8D882361F0DF9182
:102ED000CF911F910F91FF90EF90DF90CF90BF9017
:102EE000AF900C946D04DF91CF911F910F91FF90E3
:102EF000EF90DF90CF90BF90AF900895CF92DF9288
:102F0000EF92FF920F931F93CF93DF936C017A019F
:102F10008B01C0E0D0E0CE15DF0589F0D8016D91BE
:102F20008D01D601ED91FC910190F081E02DC6015B
:102F30001995892B11F47E0102C02196ECCFC701AF
:102F4000DF91CF911F910F91FF90EF90DF90CF9085
:102F50000895FC01538D448D252F30E0842F90E09F
:102F6000821B930B541710F0CF9608950197089584
:102F7000FC01918D828D981761F0828DDF01A80F81
:102F8000B11D5D968C91928D9F5F9F73928F90E0A3
:102F900008958FEF9FEF0895FC01918D828D981712
:102FA00031F0828DE80FF11D858D90E008958FEF4F
:102FB0009FEF0895FC01918D228D892F90E0805C18
:102FC0009F4F821B91098F73992708958EEF92E08E
:102FD000F1DF21E0892B09F420E0822F0895FC0124
:102FE000848DDF01A80FB11DA35ABF4F2C91848D92
:102FF00090E001968F739927848FA689B7892C93C7
:10300000A089B1898C9180648C93938D848D981361
:1030100006C00288F389E02D80818F7D808308952A
:10302000EF92FF920F931F93CF93DF93EC0181E018
:10303000888F9B8D8C8D981305C0E889F9898081D4
:1030400085FD23C0F62E0B8D10E00F5F1F4F0F7311
:103050001127E02E8C8DE8120BC00FB607FCFACFBB
:10306000E889F989808185FFF5CFCE01B8DFF2CFFD
:103070008B8DFE01E80FF11DE35AFF4FF0820B8F9D
:10308000EA89FB898081806207C0EE89FF896083BD
:10309000E889F98980818064808381E090E0DF9114
:1030A000CF911F910F91FF90EF900895CF93DF93F1
:1030B000EC01888D8823C1F0EA89FB89808185FD38
:1030C00005C0A889B9898C9186FD0EC00FB607FC92
:1030D000F5CF808185FFF2CFA889B9898C9185FFD2
:1030E000EDCFCE017CDFE8CFDF91CF91089580E076
:1030F00090E0892B19F06ADF811125C080E090E013
:10310000892B41F080E090E0892B21F00E940000A3
:1031100081111CC080E090E0892B41F080E090E0BC
:10312000892B21F00E940000811113C080E090E003
:10313000892BA1F080E090E0892B81F00E940000B3
:1031400081110AC008950E940000D8CF0E9400009B
:10315000E1CF0E940000EACF0C94000008950E9485
:1031600011271F920F920FB60F9211240BB60F92D8
:103170002F933F934F935F936F937F938F939F937F
:10318000AF93BF93EF93FF938EEF92E028DFFF9111
:10319000EF91BF91AF919F918F917F916F915F91CF
:1031A0004F913F912F910F900BBE0F900FBE0F903C
:1031B0001F9018951F920F920FB60F9211240BB605
:1031C0000F922F938F939F93EF93FF93E0910E03B2
:1031D000F0910F038081E0911403F091150382FDBB
:1031E00012C09081809117038F5F8F732091180315
:1031F000821751F0E0911703F0E0E250FD4F958FF8
:103200008093170301C08081FF91EF919F918F916F
:103210002F910F900BBE0F900FBE0F901F9018951F
:10322000362F90E0FC01EB5BF84F4491FC01E1503C
:10323000F94F2491FC01E754F94F9491992309F433
:103240006BC0442309F455C050E0FA013197E231D4
:10325000F10508F04EC08827E458FF4F8F4F0C94BB
:10326000C825809180008F7707C0809180008F7D76
:1032700003C080918000877F809380003AC084B52E
:103280008F7702C084B58F7D84BD33C08091B0003C
:103290008F7703C08091B0008F7D8093B00029C0EC
:1032A000809190008F7707C0809190008F7D03C040
:1032B00080919000877F809390001BC08091A00038
:1032C0008F7707C08091A0008F7D03C08091A00000
:1032D000877F8093A0000DC0809120018F7707C069
:1032E000809120018F7D03C080912001877F809392
:1032F0002001E92FF0E0EE0FFF1FE156F94FA591F5
:10330000B4918FB7F894EC91311103C020952E231E
:1033100001C02E2B2C938FBF0895CF93DF9390E0A5
:10332000FC01E150F94F2491FC01E754F94F8491DD
:10333000882361F190E0880F991FFC01EB57F94F4A
:10334000C591D491FC01E156F94FA591B491611159
:1033500009C09FB7F8948881209582238883EC91D7
:103360002E230BC0623061F49FB7F8943881822F0E
:10337000809583238883EC912E2B2C939FBF06C0CE
:103380008FB7F894E8812E2B28838FBFDF91CF91E0
:103390000895FC01738362839187808746175707DE
:1033A00078F0421B530B8485958548175907C8F45C
:1033B000BF016E5F7F4F8091A6029091A7020DC062
:1033C0004217530718F46217730758F4BF016E5F72
:1033D0007F4F8091A8029091A9020E945D2280E017
:1033E000089581E00895EF92FF920F931F93CF937A
:1033F000DF93E091A802F091A9028081882361F116
:103400000580F681E02D00811181C681D7817E0182
:1034100082E0E80EF11CC701B5D5E989FA89CE0131
:1034200019958E85813029F72C853D85200F311F18
:103430000217130760F43B832A83D987C887B70133
:103440008091A8029091A9020E945D22D2CFB8017A
:10345000CE010E940825CDCF8091A6029091A702AF
:103460009093A9028093A802F093A702E093A6028A
:10347000DF91CF911F910F91FF90EF900895EF9200
:10348000FF920F931F93CF93DF931F92CDB7DEB7B9
:103490007C010091DE031091DF038091FB0290918B
:1034A000FC02029669836ED569818FEFE816F806F3
:1034B00091F4662381F06091FB027091FC026E5FD3
:1034C0007F4F8AEB92E00F90DF91CF911F910F9188
:1034D000FF90EF907BC5E00EF11EE091FB02F091B2
:1034E000FC02F382E2826091FB027091FC02E01622
:1034F000F10670F48091B6029091B7026E5F7F4F33
:103500000F90DF91CF911F910F91FF90EF90D5C752
:103510008091B8029091B9026E5F7F4FCED78091B3
:10352000A4029091A502E816F90620F4F092A502F3
:10353000E092A4020F90DF91CF911F910F91FF9025
:10354000EF900895CF93DF93CDB7DEB727970FB6EF
:10355000F894DEBF0FBECDBFE091A802F091A902A2
:103560008081FF24F394882339F0F12C0580F681C3
:10357000E02D0081118102C000E010E0F0D4E5D41C
:103580006C018091AA029091AB02C816D90618F47A
:103590002ADF81E001C080E0D092AB02C092AA0293
:1035A00081116DC0F1102EC0C016D10698F171D6F0
:1035B000E091A802F091A9020580F681E02DE68055
:1035C000F780C7010296DED4D7011E968C911E9714
:1035D000813081F41C966D917C911D97600F711F55
:1035E0009801A601C701D5DE882321F0B801C701E3
:1035F0000E940825D7015196ED91FC915297C70181
:10360000199542C0E091A602F091A7028081BB24E7
:10361000B3948111B12CE090DC03F090DD030FB680
:10362000F8940F92F701858D8F3F09F4158ED7011D
:103630005E968C915E978F3F11F45E961C920F9070
:103640000FBEF701828D811113C06091FB02709152
:10365000FC02645F7F4FC7014196B8D4B11004C02B
:10366000C8018C199D0902C08FEF9FEF6B2D07DFFA
:10367000C7010AD50ED6811107C046D505C009D6A7
:1036800003C0898187FF0CC0BE016F5F7F4F8091AF
:10369000DC039091DD030E945F248111F2CF5CCFA7
:1036A0000C811D81D8011A968D919C911B97892BB5
:1036B00019F0C801029666D448D4AC018091AA02E0
:1036C0009091AB024817590728F44E835F838BDE35
:1036D0005F814E815093AB024093AA028981082EEC
:1036E000000C990BAA0BBB0B8A30910568F6FC0104
:1036F0008827EE58FF4F8F4F0C94C8252A813B81B5
:10370000F80164857585620F731FC80142DE882346
:1037100009F4BACFD8015196ED91FC915297C801A6
:103720001995F8018685813009F0AECF64857585DD
:103730008A819B81680F791FC8010E940825A4CF48
:103740006A817B81D8011D967C936E931C97640FD0
:10375000751F9A01C8011DDE97CFC80196D794CF77
:10376000CF93DF93109201031092000388EE93E051
:10377000A0E0B0E08093020390930303A0930403BE
:10378000B093050388E492E09093FF028093FE02D9
:1037900085EC90E090930B0380930A0384EC90E017
:1037A00090930D0380930C0380EC90E090930F03B3
:1037B00080930E0381EC90E09093110380931003AB
:1037C00082EC90E0909313038093120386EC90E0D8
:1037D000909315038093140310921703109218030B
:1037E0001092190310921A0389E790E05CD7EC015C
:1037F000009749F04F969983888381E08B8F8AE503
:103800008C8FCE010FD0D093AE03C093AD0387E071
:103810008093AB0361E004DD61E08091AB03DF9155
:10382000CF917BCDCF93DF93EC010FB6F8940F923D
:10383000288139819B8D4C8D949FC0011124B90141
:10384000680F791F7B836A831A8E3D832C83841BC8
:103850009109820F931F9F838E838FEF8D8F8E8FA1
:10386000CE01089662D6CE0141965FD60F900FBE6C
:1038700081E0DF91CF9108957F928F929F92AF92D6
:10388000BF92CF92DF92EF92FF920F931F93CF934D
:10389000DF93982EC92E762E872EEA01D22ECA01EA
:1038A00002D75C01892B09F441C188E290E0FBD684
:1038B0007C010097D9F0DC015896BC92AE925797E4
:1038C000AE0165EA70E0C5010E941E272197D7016D
:1038D0005796ED91FC915897EC0FFD1FB701675E6D
:1038E0007F4FA72DB82DCD01089606C0C501CDD6B6
:1038F0001DC1A817B90749F09D014D91EB014993EE
:10390000BE01E90128812111F4CFD70190961C92C4
:103910002D2D243008F023E0E7012E8B29A31AA2D5
:103920001B861A861D8A1C8AF986E88684E090E048
:10393000821B91099D878C87FB8AEA8A1BA21CA2A5
:103940001DA21EA21FA291E19083DF01119782E2C6
:103950008C93119723E32C9311979C921197CC92FF
:1039600011971C9211971C92119720E82C93119794
:103970001C9211971C9211971C92119722E02C9384
:10398000119723E02C93119724E02C93119725E0B5
:103990002C93119726E02C93119727E02C931197E5
:1039A00028E02C93119729E02C93119720E12C9378
:1039B00011979C93119792E19C93119793E19C939B
:1039C000119794E19C93119795E19C93119796E13F
:1039D0009C93119797E19C93119798E19C93119771
:1039E00099E19C93119790E29C93119791E29C939B
:1039F00011978C93119783E28C9311971C921197D6
:103A00001C92119786E28C93119787E28C93119701
:103A100088E28C93119789E28C93119780E38C93C1
:103A2000119781E38C93B997F983E8830115110508
:103A300019F0F801F182E0820FB6F8940F928091AC
:103A4000FD028F5F8093FD028091FB029091FC024A
:103A5000892B89F5F092FC02E092FB028091FD0235
:103A6000813009F03AC085ED92E05FD58EED92E0AD
:103A70005CD587EE92E059D580EF92E056D588EB81
:103A800093E053D58FEA93E050D58CEC92E04DD57E
:103A900083EC92E04AD58AEB92E047D588EB93E03D
:103AA0009093B9028093B8028FEA93E09093B702A3
:103AB0008093B60212C08091FA0281110EC0E0918B
:103AC000FB02F091FC029689D70156968C918917DA
:103AD00020F0F092FC02E092FB028091C1038F5F24
:103AE0008093C103E7018E899091F902981710F431
:103AF0008093F902D9E08D9FC0011124B7016E5F58
:103B00007F4F8B529D4F62D20F900FBE8091FA0271
:103B1000882351F0E091FB02F091FC029689F701B5
:103B20008689981708F4F0D281E001C08FEFDF9109
:103B3000CF911F910F91FF90EF90DF90CF90BF90AA
:103B4000AF909F908F907F9008950F920FB6F8944A
:103B50000F920BB60F920CB60F921F9211242F9258
:103B60003F924F925F926F927F928F929F92AF920D
:103B7000BF92CF92DF92EF92FF920F931F932F93FA
:103B80003F934F935F936F937F938F939F93AF93E5
:103B9000BF93CF93DF93EF93FF93A091FB02B0917C
:103BA000FC020DB60D920EB60D9213BE8091DB0392
:103BB0008111F3C08091DE039091DF030196909311
:103BC000DF038093DE03009799F52091B8023091CE
:103BD000B9024091B6025091B7025093B902409396
:103BE000B8023093B7022093B6022091E0032F5F12
:103BF0002093E003E091B802F091B90220812111F5
:103C000007C02FEF3FEF3093A5022093A40210C00E
:103C1000E091B802F091B9020580F681E02D0680AE
:103C2000F781E02D228133813093A5022093A402F5
:103C30002091A4023091A5028217930710F420E08E
:103C40009CC020E019E0E091B802F091B902308107
:103C5000311107C08FEF9FEF9093A5028093A402CC
:103C60008CC0E091B802F091B9020580F681E02D98
:103C70000680F781E02D428153818417950728F44F
:103C80005093A5024093A40278C0AF014E5F5F4FEE
:103C9000A285B38564817581E680F780EB01FD82A2
:103CA000EC82C681D7817B836A8311966D917C916A
:103CB00012976417750721F41296DC93CE9311972F
:103CC000138612863C9131503C933C91A489B5896E
:103CD0001097F9F066857785E088F188EB01FD8221
:103CE000EC82C089D1897B836A831196ED90FC9028
:103CF0001297BF01645F7F4FE616F70621F4129614
:103D0000DC93CE931197158A148A3C9131503C93E1
:103D10003C91A6893091F9023A1710F4A093F90268
:103D20001A9FD0011124BD016B527D4F7B01DB0135
:103D30001196CD91DC911297D583C4836C817D81DE
:103D4000778366836C817D81DB0113965C934E9350
:103D500012975D834C83F386E286E70138813F5FEB
:103D60003883A091FB02B091FC02468956963C91A3
:103D7000431708F468CF21E066CFE091FB02F09191
:103D8000FC02E689D9E0ED9FF0011124EB52FD4FD2
:103D90008081823040F021E006C08091D9038F5F9E
:103DA0008093D90320E08091C203811103C02223B4
:103DB00009F466C08091DB03882321F081E08093C1
:103DC000C2035EC01092C203A091FB02B091FC023C
:103DD000E091FB02F091FC022D913C918789908D3E
:103DE00082179307A8F08091FB029091FC028091CA
:103DF000FB029091FC02279A2F9A2FEF67EA71E657
:103E0000215060407040E1F700C000001F9AF5CFDC
:103E10008091F90269E001C08150482F50E0649F11
:103E20009001659F300D1124F901EB52FD4F9081F7
:103E3000992391F3A181B28112960D90BC91A02D8E
:103E4000B283A18328523D4FA217B30731F41296D3
:103E50002D913C9113973283218399E0949FF00137
:103E6000959FF00D1124EB52FD4F0180F281E02D62
:103E7000268137813093FC022093FB028093F90264
:103E8000A091FB02B091FC02CD91CDBFDD91DEBFD0
:103E9000FF91EF91DF91CF91BF91AF919F918F9162
:103EA0007F916F915F914F913F912F911F910F9152
:103EB000FF90EF90DF90CF90BF90AF909F908F904A
:103EC0007F906F905F904F903F902F901F900F903A
:103ED0000CBE0F900BBE0F900FBE0F900895FC010B
:103EE000DB010FB6F8940F924091DE035091DF038F
:103EF000818192812D913C9111972F3F6FEF360771
:103F0000F1F07091E0036081761719F048175907B6
:103F1000C0F4481B590B4217530770F4241B350B90
:103F20002D933C938091E00380838091DE039091F8
:103F3000DF039283818303C01D921C9202C080E044
:103F400001C081E00F900FBE08950FB6F8940F9254
:103F50008091DE039091DF030F900FBE0895809152
:103F6000DB038F5F8093DB0308950FB6F8940F9205
:103F7000FC01928D0F900FBE81E0911180E00895B9
:103F8000E4DD1895CF93DF93FC01A085B185828194
:103F9000938124813581EC013D832C83C481D581BB
:103FA0009B838A8311968D919C9112978E179F0700
:103FB00021F41296DC93CE931197118610868C9182
:103FC00081508C938C91DF91CF910895CF93DF93A3
:103FD0009C01FB01DC011196CD91DC911297D383FA
:103FE000C2838C819D81958384838C819D81DC013A
:103FF00013967C936E9312977D836C833187208711
:10400000F90180818F5F8083DF91CF9108950F93B5
:104010001F93CF93DF93DC011596ED91FC911697DA
:10402000C681D7818E01045F1F4FC801ABDF80912D
:10403000DB03811113C00A501109C801A3DF9E8957
:104040008091F902891710F49093F902B9E09B9FCF
:10405000C0011124B8018B529D4F03C0B8018CECF4
:1040600092E0B4DFE091FB02F091FC029E89868928
:10407000891720F481E08093C20301C080E0DF91C2
:10408000CF911F910F910895EF92FF920F931F937D
:10409000CF93DF93EC010FB6F8940F921E8D7C0145
:1040A00081E1E80EF11C01E0111654F4898988239E
:1040B00039F0C701ACDF81110093C2031150F4CF76
:1040C0008FEF8E8F0F900FBE0FB6F8940F921D8D4D
:1040D0007E0188E0E80EF11C01E0111654F4888599
:1040E000882339F0C70193DF81110093C203115077
:1040F000F4CF8FEF8D8F0F900FBEDF91CF911F9177
:104100000F91FF90EF9008950F920FB6F8940F92D1
:104110000BB60F920CB60F921F9211242F923F9262
:104120004F925F926F927F928F929F92AF92BF92C7
:10413000CF92DF92EF92FF920F931F932F933F93B3
:104140004F935F936F937F938F939F93AF93BF939F
:10415000CF93DF93EF93FF93A091FB02B091FC020A
:104160000DB60D920EB60D928091DB03882321F0DF
:1041700081E08093C2035EC01092C203A091FB0253
:10418000B091FC02E091FB02F091FC022D913C9178
:104190008789908D82179307A8F08091FB029091F8
:1041A000FC028091FB029091FC02279A2F9A2FEF3C
:1041B00087EA91E6215080409040E1F700C000007E
:1041C0001F9AF5CF8091F90269E001C08150482F14
:1041D00050E0649F9001659F300D1124F901EB526E
:1041E000FD4F9081992391F3A181B28112960D9098
:1041F000BC91A02DB283A18328523D4FA217B307D3
:1042000031F412962D913C9113973283218399E0DA
:10421000949FF001959FF00D1124EB52FD4F01800A
:10422000F281E02D268137813093FC022093FB023E
:104230008093F902A091FB02B091FC02CD91CDBF19
:10424000DD91DEBFFF91EF91DF91CF91BF91AF91F3
:104250009F918F917F916F915F914F913F912F919E
:104260001F910F91FF90EF90DF90CF90BF90AF9094
:104270009F908F907F906F905F904F903F902F9086
:104280001F900F900CBE0F900BBE0F900FBE0F90A3
:1042900008958F929F92AF92BF92CF92DF92EF924A
:1042A000FF920F931F93CF93DF930FB6F8940F9263
:1042B0008091DB0381508093DB038091DB038823B3
:1042C00011F080E0EBC08091FD028823D1F3C0E0C3
:1042D000D0E029E0F22EEE24E3948091CC028823F2
:1042E00039F1E091D102F091D202C681D781CE019D
:1042F0000C9648DE8E010E5F1F4FC80143DE9E897B
:104300008091F902891710F49093F902F99EC00187
:104310001124B8018B529D4F59DEE091FB02F091C0
:10432000FC029E8986899817C0F2E092C203D5CF1D
:10433000CD2B11F00E943912E090D903EE2009F440
:10434000A6C089E0B82EAA24A394CC24CA94DC2C5D
:104350008091DB03811189C0C091DE03D091DF031E
:104360002196D093DF03C093DE032097B9F48091A8
:10437000B8029091B9022091B6023091B702309301
:10438000B9022093B8029093B7028093B60280914D
:10439000E0038F5F8093E0030E9439128091A402B2
:1043A0009091A502F12CC817D90708F44EC0E091EE
:1043B000B802F091B9028081811105C0D092A502A6
:1043C000C092A40242C0E091B802F091B902058007
:1043D000F681E02D06811781D80112968D919C916E
:1043E0001397C817D90728F49093A5028093A402C5
:1043F0002CC04801B2E08B0E911CC401C3DDF80152
:1044000084899589892B19F0C8010C96BBDDD801E8
:1044100056968C919091F902981710F48093F902B6
:10442000B89EC0011124B4018B529D4FCFDDE091A5
:10443000FB02F091FC02D80156969C918689981750
:1044400008F4B5CFFF24F394B2CFE091FB02F091D2
:10445000FC02E689BE9EF0011124EB52FD4F8081E3
:10446000823048F0FF24F39406C08091D9038F5F17
:104470008093D903F12C8091C203811101C0F11006
:10448000A092C203EA94E11063CF1092D903809105
:10449000C203882309F415CF37DE81E00F900FBEE9
:1044A000DF91CF911F910F91FF90EF90DF90CF9010
:1044B000BF90AF909F908F9008950F931F93CF93CD
:1044C000DF938C01FB01808191818F3F2FEF920759
:1044D00021F4E801AF81B8850EC0D8011396129679
:1044E0002D913C911397E9014881598184179507D3
:1044F00010F0D901F4CF12968D919C91139793836C
:104500008283EC01FD83EC83B583A4831396FC9333
:10451000EE93129711870087F80180818F5F808367
:10452000DF91CF911F910F910895FC010396928323
:1045300081832FEF3FEF3483238396838583908796
:104540008783108208950F931F93CF93DF9307ED16
:1045500013E020E040EC50E065E972E086EC93E087
:104560008BD9813009F08CC00FB6F8940F928091EE
:10457000DC039091DD03892B29F58CEC93E0D5DFEA
:1045800083EC93E0D2DF8CEC93E09093A9028093CC
:10459000A80283EC93E09093A7028093A60281E5A2
:1045A00090E081D0EC01009749F04F969983888381
:1045B0008AE08B8F85E08C8FCE0134D9D093DD03D8
:1045C000C093DC030F900FBE8091DC039091DD035C
:1045D000892B09F455C005ED13E023E045E550E0D3
:1045E0006AE972E082EA9AE147D9813009F048C06D
:1045F000F8942FEF3FEF3093A5022093A40280930D
:10460000FA021092DF031092DE03A89520EC88E1F5
:1046100090E00FB6F894A895809360000FBE2093A9
:104620006000A091FB02B091FC02CD91CDBFDD9165
:10463000DEBFFF91EF91DF91CF91BF91AF919F913D
:104640008F917F916F915F914F913F912F911F912A
:104650000F91FF90EF90DF90CF90BF90AF909F9021
:104660008F907F906F905F904F903F902F901F9012
:104670000F900CBE0F900BBE0F900FBE0F900895C1
:10468000DF91CF911F910F910895CF93DF93009702
:1046900039F0EC0164DCCE012CD3DF91CF91F9CD60
:1046A000DF91CF9108950F931F93CF93DF931F92C4
:1046B0001F92CDB7DEB789839A8351DC89819A81B5
:1046C00083D28C01E6DD0115110511F40E942C1234
:1046D000C8010F900F90DF91CF911F910F91089516
:1046E000AF92BF92CF92DF92EF92FF920F931F9300
:1046F000CF93DF9300D01F921F92CDB7DEB78C010E
:104700007B011D821C8290E0580188E0A80EB11C3C
:104710000FB6F8940F92F801228D838D281708F0B8
:1047200068C0D28C448D41113DC080819181892B1C
:1047300009F04FC0F801E280F380E114F10411F4B4
:1047400080E02CC0F70182A1815082A3268991A12B
:104750002917B1F38111F4CF5701F2E0AF0EB11C6C
:10476000C50110DCF70191A1968B492F50E024E0A0
:1047700030E0241B350B358724878091F902891797
:1047800010F49093F90229E0249FC001259F900D19
:104790001124B5018B529D4F19DC81E0F801138281
:1047A000128218C050E0B701F801848195813DD391
:1047B000F801248D84819581820F911D95838483D6
:1047C000228133818217930720F080819181958324
:1047D000848380E0D394F801D28E9189992319F0D3
:1047E000C801419614DC81118FDC0F900FBE81E06F
:1047F00056C02C813D81232B19F40F900FBE4EC063
:10480000911109C08091E00389838091DE0390912A
:10481000DF039B838A830F900FBEA1DB0FB6F89452
:104820000F92F801858D8F3F09F4158EF801868D62
:104830008F3F09F4168E0F900FBEBE016C5F7F4F45
:10484000CE0101964CDB811126C00FB6F8940F9271
:10485000F801928D838D0F900FBE981318C0CC80F5
:10486000DD802091FB023091FC02B901645F7F4F33
:10487000C50123DE61E0C6010E943F1AC80104DCC5
:1048800008DD882311F091E043CF3EDCFCCFC80166
:10489000FBDBFFDCF8CFC801F7DBFBDC80E00F902F
:1048A0000F900F900F900F90DF91CF911F910F916C
:1048B000FF90EF90DF90CF90BF90AF900895AF92B0
:1048C000BF92CF92DF92EF92FF920F931F93CF93FD
:1048D000DF9300D01F921F92CDB7DEB78C016B0122
:1048E0001D821C8280E0580191E1A90EB11C0FB617
:1048F000F8940F92F801F28CFF2039F1448D442393
:10490000A9F050E026813781240F351F3783268395
:10491000828193812817390720F0808191819783C4
:104920008683F80166817781C6017FD2FA94F80107
:10493000F28E8085882329F0C801089668DB8111F2
:10494000E3DB0F900FBE81E053C02C813D81232B10
:1049500019F40F900FBE4BC0811109C08091E00384
:1049600089838091DE039091DF039B838A830F907C
:104970000FBEF5DA0FB6F8940F92F801858D8F3FD0
:1049800009F4158EF801868D8F3F09F4168E0F906D
:104990000FBEBE016C5F7F4FCE010196A0DA811180
:1049A0001FC0C801E2DA8823B9F0EC80FD80609175
:1049B000FB027091FC02645F7F4FC5017EDD61E008
:1049C000C7010E943F1AC8015FDB63DC882311F036
:1049D00081E08DCF99DBFCCFC80156DB5ADCF8CFE4
:1049E000C80152DB56DCC801C0DA882389F380E0B5
:1049F0000F900F900F900F900F90DF91CF911F911C
:104A00000F91FF90EF90DF90CF90BF90AF900895FF
:104A1000CF93DF9300D01F921F92CDB7DEB79C01DA
:104A20008091DC039091DD03009761F019827B8314
:104A30006A833D832C832091FA02222329F020915E
:104A4000DB0302C080E004C0BE016F5F7F4F48DE21
:104A50000F900F900F900F900F90DF91CF910895CE
:104A6000789484B5826084BD84B5816084BD85B549
:104A7000826085BD85B5816085BDEEE6F0E0808110
:104A800081608083E1E8F0E0108280818260808331
:104A9000808181608083E0E8F0E0808181608083B4
:104AA000E1EBF0E0808184608083E0EBF0E08081E6
:104AB00081608083E1E9F0E0808182608083808191
:104AC00081608083E0E9F0E0808181608083E1EAB9
:104AD000F0E0808182608083808181608083E0EA71
:104AE000F0E0808181608083E1E2F1E0808182609A
:104AF0008083808181608083E0E2F1E08081816059
:104B00008083EAE7F0E08081846080838081826036
:104B1000808380818160808380818068808310921F
:104B2000C1000E94DB0997FB072E16F4009406D003
:104B300077FD08D035D007FC05D03EF490958195DF
:104B40009F4F0895709561957F4F0895A1E21A2EA9
:104B5000AA1BBB1BFD010DC0AA1FBB1FEE1FFF1F21
:104B6000A217B307E407F50720F0A21BB30BE40B71
:104B7000F50B661F771F881F991F1A9469F76095B8
:104B80007095809590959B01AC01BD01CF01089572
:104B9000EE0FFF1F881F8BBF0790F691E02D199431
:104BA000AA1BBB1B51E107C0AA1FBB1FA617B70753
:104BB00010F0A61BB70B881F991F5A95A9F780956F
:104BC0009095BC01CD010895CF93DF93823091057C
:104BD00010F482E090E0E091E303F091E40320E040
:104BE00030E0C0E0D0E0309711F1408151814817AA
:104BF0005907C0F04817590761F4828193812097C3
:104C000019F09B838A832BC09093E4038093E30382
:104C100026C02115310519F04217530718F49A01DF
:104C2000BE01DF01EF010280F381E02DDCCF211511
:104C3000310509F1281B390B2430310590F4129607
:104C40008D919C9113976115710521F0FB01938360
:104C5000828304C09093E4038093E303FD013296C2
:104C600044C0FD01E20FF31F81939193225031095B
:104C70002D933C933AC02091E1033091E203232B22
:104C800041F420911202309113023093E2032093F9
:104C9000E10320911002309111022115310541F4F8
:104CA0002DB73EB74091140250911502241B350BCD
:104CB000E091E103F091E203E217F307A0F42E1B69
:104CC0003F0B2817390778F0AC014E5F5F4F241770
:104CD000350748F04E0F5F1F5093E2034093E10306
:104CE0008193919302C0E0E0F0E0CF01DF91CF919A
:104CF00008950F931F93CF93DF93009709F48CC00F
:104D0000FC013297138212820091E3031091E403B5
:104D10000115110581F420813181820F931F2091AB
:104D2000E1033091E2032817390779F5F093E203A4
:104D3000E093E10371C0D80140E050E0AE17BF0737
:104D400050F412962D913C911397AD012115310528
:104D500009F1D901F3CF9D01DA0133832283608108
:104D60007181860F971F8217930769F4EC012881E0
:104D70003981260F371F2E5F3F4F318320838A8171
:104D80009B8193838283452B29F4F093E403E09382
:104D9000E30342C01396FC93EE931297ED01499101
:104DA00059919E01240F351FE217F30771F480819A
:104DB0009181840F951F029611969C938E93828108
:104DC000938113969C938E931297E0E0F0E0D801C4
:104DD00012968D919C911397009719F0F8018C0110
:104DE000F6CF8D919C9198012E5F3F4F820F931FBC
:104DF0002091E1033091E2032817390769F43097D5
:104E000029F41092E4031092E30302C01382128289
:104E10001093E2030093E103DF91CF911F910F9173
:104E2000089581E090E0F89417C0FB01DC0102C016
:104E300001900D9241505040D8F70895DC0101C017
:104E40006D9341505040E0F70895FB01DC01019063
:0C4E50000D920020E1F70895F894FFCFC8
:104E5C00710A710A710A710A710A710A710A710A6E
:104E6C000000E50380000000000000009E0C7E178F
:104E7C002804270420176F0F680F400F5C0F500F8A
:104E8C00700F3F0FD514AB14901600165615EA137D
:104E9C00D10D720D0000000010187E17A9175618BE
:104EAC00DA17B817CC1700000000AF187E172804CB
:104EBC002704526563762049443A000D0A00436F7B
:104ECC006E74656E743A0A0053637265656E3120B8
:104EDC00696E697469616C697A65642E00526566E5
:104EEC00726573680049444C4500546D72205376CA
:024EFC00630051
:00000001FF
