:10000000F9C300000C9492110C9467110C943C11EC
:100010000C9411110C94E6100C94BB100C949010DD
:100020000C94651018C4000016C4000014C400002D
:100030000C94281C10C400000EC400000CC4000066
:100040000AC4000008C4000006C4000004C4000084
:1000500002C4000000C40000FEC300000C941B108A
:10006000FAC300000C947A130C945113F4C30000EB
:10007000F2C30000F0C30000EEC30000ECC30000B8
:10008000EAC30000E8C30000E6C30000E4C30000C8
:10009000E2C30000E0C30000DEC30000DCC30000D8
:1000A000DAC30000D8C30000D6C30000D4C30000E8
:1000B000D2C30000D0C30000CEC30000CCC30000F8
:1000C000CAC30000C8C30000C6C30000C4C3000008
:1000D000C2C30000C0C30000BEC30000BCC3000018
:1000E000BAC30000DC19DC19DC19A319FD190A1ABE
:1000F000DC19DC19A319FD19DF13E213D113D51391
:10010000D9131914E613EA13F013F413F813FE13BA
:100110000214061419140C14101414144E56313011
:100120005F44415348424F41524420495320534C6D
:10013000454550494E47204245434155534520438C
:10014000414E5F494E4954204641494C2E2E2E00C7
:100150004E5631305F64617368626F617264204330
:10016000414E20696E6974207375636365737321F2
:10017000004E5631305F64617368626F6172642053
:1001800043414E20696E6974206661696C210000EC
:10019000000000003E5B4F5B3E3E6B4F6B3E1C3EE3
:1001A0007C3E1C183C7E3C181C577D571C1C5E7FF7
:1001B0005E1C00183C1800FFE7C3E7FF0018241876
:1001C00000FFE7DBE7FF30483A060E2629792926AB
:1001D000407F050507407F05253F5A3CE73C5A7F95
:1001E0003E1C1C08081C1C3E7F14227F22145F5FEB
:1001F000005F5F06097F017F006689956A60606025
:10020000606094A2FFA29408047E040810207E205F
:100210001008082A1C08081C2A08081E10101010B4
:100220000C1E0C1E0C30383E3830060E3E0E0600FA
:100230000000000000005F00000007000700147FBE
:10024000147F14242A7F2A12231308646236495625
:1002500020500008070300001C2241000041221C1E
:10026000002A1C7F1C2A08083E0808008070300005
:100270000808080808000060600020100804023E1A
:100280005149453E00427F4000724949494621415B
:10029000494D331814127F1027454545393C4A49CA
:1002A0004931412111090736494949364649492909
:1002B0001E00001400000040340000000814224119
:1002C0001414141414004122140802015909063EA2
:1002D000415D594E7C1211127C7F494949363E419D
:1002E0004141227F4141413E7F494949417F0909BE
:1002F00009013E414151737F0808087F00417F4159
:10030000002040413F017F081422417F404040408F
:100310007F021C027F7F0408107F3E4141413E7FE7
:10032000090909063E4151215E7F091929462649DE
:1003300049493203017F01033F4040403F1F2040B5
:10034000201F3F4038403F631408146303047804BF
:10035000036159494D43007F414141020408102087
:10036000004141417F0402010204404040404000FE
:100370000307080020545478407F28444438384408
:10038000444428384444287F385454541800087E84
:10039000090218A4A49C787F0804047800447D40D6
:1003A000002040403D007F1028440000417F400075
:1003B0007C047804787C080404783844444438FC8D
:1003C0001824241818242418FC7C08040408485411
:1003D00054542404043F44243C4040207C1C2040CE
:1003E000201C3C4030403C44281028444C909090C5
:1003F0007C4464544C4400083641000000770000FF
:10040000004136080002010204023C2623263C1E5D
:10041000A1A161123A4040207A38545455592155CF
:1004200055794122545478422155547840205455EE
:1004300079400C1E5272123955555559395454543D
:100440005939555454580000457C410002457D42BD
:100450000001457C407D1211127DF0282528F07C9A
:10046000545545002054547C547C0A097F49324934
:100470004949323A4444443A324A4848303A414180
:10048000217A3A42402078009DA0A07D3D42424220
:100490003D3D4040403D3C24FF2424487E49436686
:1004A0002B2FFC2F2BFF0929F620C0887E09032063
:1004B000545479410000447D413048484A32384024
:1004C00040227A007A0A0A727D0D19317D26292987
:1004D0002F28262929292630484D40203808080889
:1004E0000808080808382F10C8ACBA2F102834FAAA
:1004F00000007B000008142A142222142A14085534
:1005000000550055AA55AA55AAFF55FF55FF0000F2
:1005100000FF00101010FF00141414FF001010FF53
:1005200000FF1010F010F0141414FC001414F70065
:10053000FF0000FF00FF1414F404FC141417101F34
:1005400010101F101F1414141F00101010F00000C2
:1005500000001F101010101F10101010F0100000DD
:1005600000FF101010101010101010FF10000000ED
:10057000FF140000FF00FF00001F10170000FC0424
:10058000F414141710171414F404F40000FF00F707
:1005900014141414141414F700F71414141714106A
:1005A000101F101F141414F4141010F010F0000099
:1005B0001F101F0000001F14000000FC140000F0BA
:1005C00010F01010FF10FF141414FF141010101F5F
:1005D00000000000F010FFFFFFFFFFF0F0F0F0F070
:1005E000FFFFFF0000000000FFFF0F0F0F0F0F388D
:1005F00044443844FC4A4A4A347E02020606027EDB
:10060000027E0263554941633844443C04407E20E5
:100610001E2006027E020299A5E7A5991C2A492AF6
:100620001C4C7201724C304A4D4D30304878483085
:10063000BC625A463D3E494949007E0101017E2A7D
:100640002A2A2A2A44445F444440514A44404044B0
:100650004A51400000FF0103E080FF000008086BE2
:100660006B083612362436060F090F0600001818DC
:100670000000001010003040FF0101001F01011EAA
:1006800000191D1712003C3C3C3C0000000000001B
:10069000002100240027002A002D00300033000133
:1006A000010000040107010A0100002200250028C2
:1006B000002B002E0031003400020100000501086B
:1006C000010B0105050505070508080808020202D7
:1006D000020A0A08080404040401010101010101DD
:1006E000010303030303030303040707070C0C0CB4
:1006F0000C0C0C0C0C02020202060606060606068C
:10070000060B0B0B0B0B0B0B0B0102102020080828
:100710001020401020408002010201080402010163
:10072000020408102040808040201008040201804C
:1007300004020180402010080402010804020101A3
:1007400002040810204080010204081020408000AC
:10075000000A0B02090C0D0E08070304010000003B
:100760000000000000000000000000000000000089
:100770000000000000000000000000121110000046
:100780000000000000000000000000000000000069
:100790000000000000008091F702882309F10FB6E5
:1007A000F8940F92E0911003F0911103C681D78164
:1007B000CE0102960E942A1C8091450381508093AD
:1007C00045038091F70281508093F7020F900FBE8E
:1007D0008F89988D0E94AD1FCE010E94AD1FDBCF87
:1007E00080911D03823010F00E94EC1C0E941713B0
:1007F000D2CFDD2111241FBECFEFD1E2DEBFCDBFAE
:1008000000E00CBF24E0AAECB2E001C01D92A730CA
:10081000B207E1F712E0A0E0B2E0E6E2FBE400E0BC
:100820000BBF02C007900D92AA3CB107D9F713E0A5
:10083000CAEFD3E000E006C021970109802FFE0136
:100840000E942D24C93FD10780E00807A9F70E9424
:100850007A210C949125D4CBFC01838D811122C087
:1008600028E030E090E8A58DB68D85A5492F462378
:1008700019F04C91842B03C04C91809584238C9368
:10088000A78DB0A14C9186A5842B8C93A78DB0A188
:100890004C9186A5809584238C939695215031099F
:1008A00011F708956EBD0DB407FEFDCF08950895AC
:1008B00080E090E0089581E08093CC020895EF926B
:1008C000FF920F931F93CF93DF938C01EB01862F41
:1008D0008F71FF24FA942FEF829FC00111242FE122
:1008E00030E0B9010E94F823E62EAE01452F5527CE
:1008F000469546954695F49EC001F59E900D1124AF
:10090000B9010E94F823C801A7DFC07ED77095E027
:10091000D695C7959A95E1F7FC9EC001FD9E900D76
:1009200011246FE370E00E94F823C80195DF6E2D5B
:10093000C801DF91CF911F910F91FF90EF908CCF65
:10094000CF93DF93EC01E9A1FAA1908188A9892BCB
:100950008083EDA1FEA190818FA58095892380835E
:10096000CE017ADFEDA1FEA190818FA5892B808336
:10097000DF91CF910895CF93DF93EC01E9A1FAA124
:10098000908188A9809589238083EDA1FEA1908123
:100990008FA5809589238083CE015EDFEDA1FEA126
:1009A00090818FA5892B8083DF91CF910895CF927D
:1009B000DF92FF920F931F93CF93DF9300D01F928C
:1009C0001F92CDB7DEB76C01F62E6AE22B833A8315
:1009D0004D835C837983CFDF7981672FC601B0DFD8
:1009E0006F2DC601ADDF3A81632FC601A9DF2B81D0
:1009F000622FC601A5DF6BE2C601BDDF5C81652FFA
:100A0000C6019EDF4D81642FC6019ADF612FC601AA
:100A100097DF602FC60194DF6CE2C6010F900F9044
:100A20000F900F900F90DF91CF911F910F91FF903A
:100A3000DF90CF90A0CF08958CBD9DBD0895AF925B
:100A4000BF92CF92DF92EF92FF920F931F93CF93BB
:100A5000DF93EC0177FD35C08885998568177907A4
:100A600084F557FD2EC08A859B85481759074CF59C
:100A700079015A016B018B8D882319F080E591E093
:100A8000DBDF85010F5F1F4F96012F5F3F4FA501F1
:100A9000B601CE018CDFE9A1FAA1908188A9892B4A
:100AA0008083EDA1FEA190818FA58095892380830D
:100AB000B701CE0104DFEDA1FEA190818FA5892BA6
:100AC0008083DF91CF911F910F91FF90EF90DF9086
:100AD000CF90BF90AF900895CF93DF93CDB7DEB79F
:100AE000C458D1090FB6F894DEBF0FBECDBF1B822C
:100AF0001C821D821E82FE01379684E5DF011D9255
:100B00008A95E9F7412C512C32019BE5292E312C95
:100B10002C0E3D1EB0E22B0E311C2AE0822E912CB1
:100B2000A12CB12CCC24C394D12C82E692E00E945B
:100B30007A148091CC02882309F48CC01092CC02E4
:100B40008DE20E943315887F09F092C080E591E024
:100B500073DF60E08091E9030E94B01380EA0E9495
:100B6000EF1180E00E94EF11182F61E08091E903FE
:100B70000E94B01313FD02C020E001C024E015FF65
:100B800002C098E001C090E0812F881F8827881F4D
:100B90008295807F1370122B192B812B80FF0FC041
:100BA000FE01E458FF4F7F018E010C571F4F28EEC6
:100BB00033E043EE53E064EE73E080E910C081FF60
:100BC0005CC0CE0184589F4F7C018E010C571F4F93
:100BD00028EE33E043EE53E064EE73E084E90E94D4
:100BE000861466E172E0CE0103960E948A254114C4
:100BF00051046104710419F0DA82C98202C01A82B8
:100C0000198288E692E00E946914EC961FAEEC9778
:100C100020E030E0A9018101CA01B901A5019401D8
:100C20000E940B24605DD8016E938D012115310562
:100C30004105510589F7CD010E94691481E792E0D1
:100C40000E94691484E792E00E946914CE01039621
:100C50000E947A140E94171C60E089E090E00E94D4
:100C60009F180E94B11D811160CF0E94EC1C5ACFC9
:100C70008EE792E00E947A1469CFCC57DF4F18823A
:100C8000C458D0408DE892E00E947A14AACFCF9346
:100C9000DF93CDB7DEB7CB58D1090FB6F894DEBFDE
:100CA0000FBECDBF1B821C821D821E82FE013796A5
:100CB00084E5DF011D928A95E9F76F961FAE1EAE9F
:100CC0006F9720E431E0A1963FAF2EAFA19780EE61
:100CD00091E0A3969FAF8EAFA397A5963FAF2EAF9F
:100CE000A597A7969FAF8EAFA797E1961FAEE19706
:100CF000A9961FAE1EAEA997AB961FAE1EAEAB97C0
:100D000081E0E0968FAFE0972FEF3FEFAF963FAFD8
:100D10002EAFAF97AD963FAF2EAFAD97E2968FAFA8
:100D2000E297E3961FAEE397E5961FAE1EAEE597FA
:100D30002CE132E06D963FAF2EAF6D979AE0CE5723
:100D4000DF4F9883C258D04097E0CD57DF4F98834C
:100D5000C358D04098E0CC57DF4F9883C458D04058
:100D6000E7968FAFE797C957DF4F1882C758D04033
:100D7000CB57DF4F1882C558D04061E088E00E9411
:100D80002D1460E0CC57DF4F8881C458D0400E94BA
:100D9000B01361E0CD57DF4F8881C358D0400E9427
:100DA0002D1461E0CE57DF4F8881C258D0400E9499
:100DB0002D14CE57DF4F8881C258D040082E000C2A
:100DC000990BFC01ED53F94FE491F0E0EE0FFF1F9A
:100DD000E755F94F25913491C058DF4F3983288367
:100DE000C058D040FC01E75FF84FE491C657DF4F91
:100DF000E883CA58D040CD57DF4F8881C358D040D0
:100E0000082E000C990BFC01ED53F94FE491F0E032
:100E1000EE0FFF1FE755F94F25913491EE963FAF46
:100E20002EAFEE97FC01E75FF84FE491C557DF4F17
:100E3000E883CB58D040E7968FADE797882319F029
:100E40000E94BD116AC061E0C957DF4F8881C75851
:100E5000D0400E942D1461E0CB57DF4F8881C558E8
:100E6000D0400E942D1460E0CA57DF4F8881C658D9
:100E7000D0400E942D14C957DF4F8881C758D040F9
:100E8000082E000C990BFC01ED53F94FE491F0E0B2
:100E9000EE0FFF1FE755F94FA591B491EC96BFAF48
:100EA000AEAFEC97FC01E75FF84F8491C757DF4F77
:100EB0008883C958D040CB57DF4F2881C558D040D0
:100EC000022E000C330BF901ED53F94FE491F0E0E1
:100ED000EE0FFF1FE755F94F45915491EA965FAF2A
:100EE0004EAFEA97F901E75FF84FE491C857DF4F3B
:100EF000E883C858D0409C91E82FE095E923EC9313
:100F0000EA96EEADFFADEA979081C857DF4F888132
:100F1000C858D040809589238083CC57DF4F888183
:100F2000C458D04018162CF561E00E94B01365E05B
:100F300070E080E090E00E94E30F60E0CC57DF4F6C
:100F40008881C458D0400E94B01364E170E080E012
:100F500090E00E94E30F61E0CC57DF4F8881C458D6
:100F6000D0400E94B01366E970E080E090E00E94FB
:100F7000E30FE7968FADE797882319F080E591E0BE
:100F80005BDD60EECE01855A9F4FF5DC60E0CE015F
:100F9000855A9F4FD5DC63E0CE01855A9F4FD0DC48
:100FA00069E0CE01855A9F4FCBDC68E0CE01855ABF
:100FB0009F4FC6DC66E1CE01855A9F4FC1DC6AE0D7
:100FC000CE01855A9F4FBCDC6FE3CE01855A9F4FFF
:100FD000B7DC68E7CE01855A9F4FB2DC6CE4CE01E6
:100FE000855A9F4FADDC69E0CE01855A9F4FA8DC42
:100FF0006AE0CE01855A9F4FA3DC68E0CE01855A96
:101000009F4F9EDC66E1CE01855A9F4F99DC6AE1D5
:10101000CE01855A9F4F94DC6FE0CE01855A9F4FD9
:101020008FDC61EECE01855A9F4FA5DC60E0CE01DA
:10103000855A9F4F85DC66E1CE01855A9F4F80DC43
:1010400069E1CE01855A9F4F7BDC63E0CE01855A72
:101050009F4F76DC6FE0CE01855A9F4F71DC65E0D3
:10106000CE01855A9F4F6CDC62E3CE01855A9F4FBB
:1010700067DC65E4CE01855A9F4F62DC66E4CE01F1
:10108000855A9F4F5DDC64E0CE01855A9F4F58DC46
:101090006EE0CE01855A9F4F53DC6DE0CE01855A3C
:1010A0009F4F4EDC65E3CE01855A9F4F49DC67E3D5
:1010B000CE01855A9F4F44DC6FE0CE01855A9F4F89
:1010C0003FDC60ECCE01855A9F4F55DC67E1CE01D5
:1010D000855A9F4F35DC65E1CE01855A9F4F30DC44
:1010E00061ECCE01855A9F4F46DC61E4CE01855A02
:1010F0009F4F26DC65ECCE01855A9F4F3CDC60E0BB
:10110000CE01855A9F4F1CDC62E1CE01855A9F4F6C
:1011100017DC60E8CE01855A9F4F12DC66E3CE01F2
:10112000855A9F4F28DC68E4CE01855A9F4F08DC22
:101130006AE3CE01855A9F4F1EDC66E6CE01855AD2
:101140009F4FFEDB60EBCE01855A9F4F14DC60E8B9
:10115000CE01855A9F4FF4DB61EBCE01855A9F4F3C
:101160000ADC60EACE01855A9F4FEADB64EBCE01D0
:10117000855A9F4F00DC62E0CE01855A9F4FE0DB2D
:1011800066EBCE01855A9F4FF6DB62E0CE01855AB1
:101190009F4FD6DB62E0CE01855A9F4FD1DB69EECF
:1011A000CE01855A9F4FE7DB60E0CE01855A9F4F05
:1011B000C7DB67EFCE01855A9F4FDDDB69EACE01C1
:1011C000855A9F4FBDDB61E5CE01855A9F4FB8DB45
:1011D0006CE2CE01855A9F4FB3DB62E8CE01855A9F
:1011E0009F4FAEDB61E1CE01855A9F4FC4DB68E7BC
:1011F00070E080E090E0E7D6E7968FADE797882330
:1012000019F080E591E018DC69E2CE01855A9F4F24
:10121000B2DB61E0CE01855A9F4F0E941B1660E051
:1012200070E0CE01855A9F4F0E94D21588E992E066
:101230000E947A14BE016F5F7F4F8091ED03909101
:10124000EE030E94A9200E94171C60E082E190E05A
:101250000E949F180E94B11D8111ECCF0E94EC1CCE
:10126000E9CF8BE594E0909307028093060280918A
:101270006900837F886080936900E99A0E94BD11AC
:1012800080E591E0D9DB60E08091E9030E94B01332
:1012900080EC0E94EF1161E08091E9030E94B0139D
:1012A0006AE070E080E090E08ED680E80E94A415AD
:1012B000882351F06AE070E080E090E084D681E716
:1012C00091E00E945115A7C06AE070E080E090E0D4
:1012D0007AD660E08AE20E94B41560ED89E20E944D
:1012E000B41562E888E20E94B4156AE070E080E01C
:1012F00090E069D6C0E360E08C2F0E94B41560E0F6
:1013000080E18C0F0E94B41560E080E28C0F0E9497
:10131000B415CF5FCE3379F760E080E60E94B41554
:1013200060E080E70E94B41563E08BE20E94B41590
:1013300044E064E680E60E94761540E060E680E7DF
:101340000E94761580E00E94A4158111B3CF6AE057
:1013500070E080E090E037D680E591E00E94511582
:1013600061E089E00E942D1461E089E00E94B013E1
:10137000E0915603F091570382E08083E09152039D
:10138000F09153031082E0915403F09155038FECD8
:10139000808310925E03E0915A03F0915B0386E034
:1013A0008083E0915803F0915903808180618083AC
:1013B000E0915803F0915903808188608083E09127
:1013C0005803F0915903808180688083E09158032D
:1013D000F091590380818F7D808368EE73E080E017
:1013E00090E0F1D500E010E021E04AEF50E06DEA36
:1013F00072E087E496E00E9473220AEC12E022E099
:1014000044EF51E065EB72E08CE695E00E947322B8
:101410000E940B1F01C0FFCF8CE191E00E9451158B
:1014200060ED77E080E090E0CED5F6CF3FB7F8945E
:101430008091DB029091DC02A091DD02B091DE028E
:1014400026B5A89B05C02F3F19F00196A11DB11D1F
:101450003FBFBA2FA92F982F8827820F911DA11D5A
:10146000B11DBC01CD0142E0660F771F881F991F97
:101470004A95D1F7089508950895FC016370658B2E
:101480008481958126813781613039F0633029F07C
:1014900091878087338722870895318720879387B4
:1014A000828708952F923F924F925F926F927F9220
:1014B0008F929F92AF92BF92CF92DF92EF92FF9264
:1014C0000F931F93CF93DF93CDB7DEB76C970FB613
:1014D000F894DEBF0FBECDBF9C8F8B8F5B011A01CE
:1014E0001F830E833701C982DC0158964D915C91B0
:1014F00059974115510509F0E5C018968D919C91B9
:101500001997681779070CF0CAC11A968D919C91AA
:101510001B97281639060CF0C2C18C2C912CFB01AC
:1015200036E0C39EE00DF11D1124FB87EA871E16ED
:101530001F060CF0B4C1C40133E0880F991F3A951F
:10154000E1F79D878C87820D931D181619060CF004
:10155000A6C157968C91811103C0203B08F02F5FE4
:10156000AB8DBC8DED91FC9111970284F385E02D3C
:10157000CD012A8F19952A8DB5E02B9F900111245A
:10158000F5013596FF87EE87BB82AA822501A90166
:101590004A195B09598B488BC10108969B8B8A8B32
:1015A000E889F989E40DF51DE157FE4F949198877C
:1015B00061013D822C82A885A0FF13C0AB8DBC8D3C
:1015C000ED91FC91B981B13031F40484F585E02DC1
:1015D0002E813F8116C00684F785E02DEE80FF80C6
:1015E0001AC0EE81FF816E167F06F1F0AB8DBC8DC7
:1015F000ED91FC91B981B13051F40484F585E02D71
:101600009301A601B2018B8D9C8D19950DC00684A6
:10161000F785E02D7301840194014C815D816A811D
:101620007B818B8D9C8D1995E885E695E887FFEF8A
:10163000CF1ADF0A2C813D81280D391D3D832C8373
:101640004A895B89C416D50609F0B5CF5FEF451A04
:10165000550A8A819B81880D991D9B838A83AE855B
:10166000BF854A165B0609F09BCFEE81FF816E169F
:101670007F0609F4F2C0EB8DFC8DA081B181F98168
:10168000F13079F4B5016B5F7F4F5096ED91FC918D
:101690005197830128E030E0A1018B8D9C8D199535
:1016A000DCC06A857B85681979091E96ED91FC91ED
:1016B0001F9773010C851D859401A1018B8D9C8D55
:1016C0001995CBC0FA013496949132976591749133
:1016D000291BCB01B7E02B9F800D911D1124FA012E
:1016E000259134913B8B2A8BFC01459154915B836E
:1016F0004A83FC013296C490319654915E873296AB
:1017000014913196D4908981823058F0612E012E47
:10171000000C7708AD2D0D2C000CBB0BB987A887EA
:1017200004C019861886612C712CAB8DBC8DED918F
:10173000FC9111970284F385E02DCD011995B981B3
:101740008B2E912C689CC001699C900D789C900D0B
:101750001124FC01EA0DFB1DFD87EC871C82712C16
:10176000612CE12F110FFF0B95012E0F3F1F3B87BF
:101770002A87AC0CB11CA5014E0F5F1F5F8B4E8BEF
:10178000C1018D0D911DD7FC9A95998F888F4E853B
:10179000641608F062C0862D90E048855985480F90
:1017A000591F489D9001499D300D589D300D1124C1
:1017B000D901A20DB31DB98BA88BAA84BB844C841C
:1017C0005D84DC80BA85DB1AE88DF98DE80FF91F9E
:1017D000FD8BEC8B8D2D8A0D2E893F89A216B306C9
:1017E000B9F1877061F48A819B810196EA89FB894E
:1017F000AA81BB81EA0FFB1F74909B838A8377FECB
:1018000020C0AB8DBC8DED91FC91B981B13061F4FC
:101810000484F585E02D2E813F814C895D89B501D9
:101820008B8D9C8D19950DC00684F785E02DEE807B
:10183000FF808401940148895989B2018B8D9C8D68
:101840001995770CEFEFAE1ABE0A480C591CC2CF9F
:101850003C813C0D3C8363949ACFAB8DBC8DED9164
:10186000FC9111970688F789E02DCD016C960FB693
:10187000F894DEBF0FBECDBFDF91CF911F910F91C6
:10188000FF90EF90DF90CF90BF90AF909F908F90A0
:101890007F906F905F904F903F902F9019946C962F
:1018A0000FB6F894DEBF0FBECDBFDF91CF911F9171
:1018B0000F91FF90EF90DF90CF90BF90AF909F90EF
:1018C0008F907F906F905F904F903F902F900895F2
:1018D000AF92BF92CF92EF92FF920F931F93CF934D
:1018E000DF93EC01262F888D998D009709F03FC07A
:1018F0006A3059F41D861C862C898E859F8538E0B8
:10190000239F800D911D112440C06D3009F4A8C0A3
:101910008E898823C1F03C898C859D8546E0349F63
:10192000800D911D112448855985481759075CF48D
:101930001D861C868E859F8548E0349F800D911DF5
:1019400011249F878E87EA88FB88088919894E852C
:101950005F856C857D85CC88CE01A4DD2C898C8546
:101960009D8536E0239F800D911D112442C06A3071
:1019700079F41D861C862C89FC013696E4918E85AF
:101980009F852E9F800D911D11249F878E8768C093
:101990006D3009F465C0FC0134963491631708F486
:1019A0005FC03196E491E61708F45AC0FC01329604
:1019B000A590B490462F50E0431B510937E0349F67
:1019C000B001359F700D1124A60EB71EF501329699
:1019D00034913196E491332311F0E1110DC0F501FA
:1019E0003496E4912C898C859D85E29F800D911D14
:1019F00011249D878C8734C0F501359644915E890A
:101A0000552311F16C89E32FF0E0E40FF11D47FD40
:101A1000FA956E9FD0016F9FB00D11244C855D85A6
:101A20004A0F5B1FE885F985E417F5076CF41D86FE
:101A30001C86FC013696E4918E859F856E9F800DF5
:101A4000911D11249F878E87EA88FB880889198950
:101A50004E855F856C857D85CC88CE0123DDBFCF2B
:101A600081E090E0DF91CF911F910F91FF90EF9077
:101A7000CF90BF90AF9008956F927F928F929F9278
:101A8000AF92BF92CF92DF92EF92FF920F931F938C
:101A9000CF93DF93EC014B015A0169013801E881D2
:101AA000F9810284F385E02D1995E881F981028896
:101AB000F389E02D87019601A501B401CE011995A6
:101AC000E881F981A501460D571D41505109028851
:101AD000F389E02D9601B401CE011995E881F981D1
:101AE0000088F189E02D9301A501B401CE0119957B
:101AF000E881F981C80CD91CB601615071090088D0
:101B0000F189E02D9301A501CE011995E881F981B4
:101B10000688F789E02DCE01DF91CF911F910F91BB
:101B2000FF90EF90DF90CF90BF90AF909F908F90FD
:101B30007F906F901994CF92DF92EF92FF920F9364
:101B40001F93CF93DF9300D000D0CDB7DEB76C01E9
:101B5000DC01ED91FC916217730789F404171507F6
:101B60002CF4942F852FA801092F182F041B150B77
:101B700098012F5F3F4F048CF58DE02D12C0401768
:101B8000510709F5261737072CF4962F872FB9012F
:101B9000292F382F261B370B2F5F3F4F068CF78DD1
:101BA000E02D8701C601199526960FB6F894DEBF81
:101BB0000FBECDBFDF91CF911F910F91FF90EF909E
:101BC000DF90CF9008950284F385E02D2D833E832E
:101BD0004B835C8369837A831995D601ED91FC91DF
:101BE0000488F589E02D2D813E814B815C816981DE
:101BF0007A81C6011995D601ED91FC910688F78985
:101C0000E02DC60126960FB6F894DEBF0FBECDBFFD
:101C1000DF91CF911F910F91FF90EF90DF90CF90C8
:101C20001994EF92FF920F931F93DC01ED91FC91B9
:101C300011971A960D911C911B9718962D913C9116
:101C4000199700A0F1A1E02D7B0140E050E060E099
:101C500070E019951F910F91FF90EF9008954F92AA
:101C60005F926F927F928F929F92AF92BF92CF922C
:101C7000DF92EF92FF920F931F93CF93DF931F9208
:101C80001F92CDB7DEB76C015A0139014801DC0162
:101C9000ED91FC910284F385E02D69837A83199597
:101CA0006981462E7A81572E640C751CD601ED9100
:101CB000FC91461457046CF40088F189E02D8701EB
:101CC0009401A501B201C6011995BFEF4B1A5B0A39
:101CD000EDCF0688F789E02DC6010F900F90DF91B8
:101CE000CF911F910F91FF90EF90DF90CF90BF9019
:101CF000AF909F908F907F906F905F904F901994CE
:101D0000AF92BF92CF92DF92EF92FF920F931F9309
:101D1000CF93DF9300D01F92CDB7DEB75C0169018E
:101D2000DC01ED91FC910284F385E02D4B835C8313
:101D300069837A831995D501ED91FC9169817A8146
:101D40009B012C0D3D1D215031090488F589E02DA2
:101D500078014B815C818A01C5011995D501ED910E
:101D6000FC910688F789E02DC5010F900F900F9028
:101D70000F90DF91CF911F910F91FF90EF90DF9027
:101D8000CF90BF90AF901994AF92BF92CF92DF9255
:101D9000EF92FF920F931F93CF93DF9300D01F9288
:101DA000CDB7DEB75C016901DC01ED91FC910284E5
:101DB000F385E02D4B835C8369837A831995D50184
:101DC000ED91FC914B815C81C40ED51EB1E0CB1A24
:101DD000D1080488F589E02D7801860169817A812E
:101DE0009B01C5011995D501ED91FC910688F789F4
:101DF000E02DC5010F900F900F900F90DF91CF91C4
:101E00001F910F91FF90EF90DF90CF90BF90AF9018
:101E100019940895EF92FF920F931F93DC01ED91B7
:101E2000FC9100A0F1A1E02D19951F910F91FF9059
:101E3000EF9008950F931F93DC01ED91FC91068CB8
:101E4000F78DE02D19951F910F9108950F931F9312
:101E5000DC01ED91FC91048CF58DE02D19951F911D
:101E60000F910895DC01ED91FC910084F185E02D46
:101E7000199408952F923F924F925F926F927F92A2
:101E80008F929F92AF92BF92CF92DF92EF92FF928A
:101E90000F931F93CF93DF9300D0CDB7DEB74C01E4
:101EA0007B836A836A01590117019801241B350B52
:101EB00037FF03C0319521953109C5014A815B8106
:101EC000841B950B97FF03C091958195910951E073
:101ED00059838217930714F019820BC09A2D8B2D0A
:101EE0005801092F182F9A818B81DB82CA82C92E53
:101EF000D82E8A819B81A816B9065CF49C2D8D2D65
:101F00006801092F182F9A818B81BB82AA82A92E82
:101F1000B82E2501AA81BB814A1A5B0A38016C18C8
:101F20007D0877FE03C0719461947108720157FEB9
:101F300003C0BFEFEB1AFB0AF594E794C016D10675
:101F40001CF00FEF1FEF1FC001E010E01CC0D40118
:101F5000ED91FC91B9810484F585E02D9101BB23BD
:101F6000C1F04A815B81B601C4011995E618F708F2
:101F7000F7FE04C0C00ED11EE40CF51CEA81FB8103
:101F80003196FB83EA834A815B81A416B506FCF691
:101F900004C0A6016A817B81E7CF0F900F900F905C
:101FA000DF91CF911F910F91FF90EF90DF90CF9035
:101FB000BF90AF909F908F907F906F905F904F9069
:101FC0003F902F9008958F929F92AF92BF92CF92A1
:101FD000DF92EF92FF926B017C0128DA4B015C01EA
:101FE000C114D104E104F104E9F020DADC01CB01F1
:101FF00088199909AA09BB09883E9340A105B10532
:1020000078F321E0C21AD108E108F10888EE880EC1
:1020100083E0981EA11CB11CC114D104E104F10499
:1020200021F7DECFFF90EF90DF90CF90BF90AF9081
:102030009F908F9008951F920F920FB60F921124C8
:102040002F933F938F939F93AF93BF938091D7022A
:102050009091D802A091D902B091DA023091D602C3
:1020600023E0230F2D3720F40196A11DB11D05C0DB
:1020700026E8230F0296A11DB11D2093D60280935E
:10208000D7029093D802A093D902B093DA0280913C
:10209000DB029091DC02A091DD02B091DE0201969C
:1020A000A11DB11D8093DB029093DC02A093DD02A1
:1020B000B093DE02BF91AF919F918F913F912F918D
:1020C0000F900FBE0F901F9018951F920F920FB692
:1020D0000F9211240BB60F922F933F934F935F9360
:1020E0006F937F938F939F93AF93BF93EF93FF93E0
:1020F000E0910E02F0910F021995FF91EF91BF91BF
:10210000AF919F918F917F916F915F914F913F918F
:102110002F910F900BBE0F900FBE0F901F90189530
:102120001F920F920FB60F9211240BB60F922F939E
:102130003F934F935F936F937F938F939F93AF934F
:10214000BF93EF93FF93E0910C02F0910D0219956C
:10215000FF91EF91BF91AF919F918F917F916F917F
:102160005F914F913F912F910F900BBE0F900FBE3B
:102170000F901F9018951F920F920FB60F92112477
:102180000BB60F922F933F934F935F936F937F9371
:102190008F939F93AF93BF93EF93FF93E0910202CE
:1021A000F09103021995FF91EF91BF91AF919F912B
:1021B0008F917F916F915F914F913F912F910F90F0
:1021C0000BBE0F900FBE0F901F9018951F920F928D
:1021D0000FB60F9211240BB60F922F933F934F938C
:1021E0005F936F937F938F939F93AF93BF93EF937F
:1021F000FF93E0910002F09101021995FF91EF9198
:10220000BF91AF919F918F917F916F915F914F910E
:102210003F912F910F900BBE0F900FBE0F901F900C
:1022200018951F920F920FB60F9211240BB60F92B2
:102230002F933F934F935F936F937F938F939F93CE
:10224000AF93BF93EF93FF93E0910A02F0910B02DB
:102250001995FF91EF91BF91AF919F918F917F91D0
:102260006F915F914F913F912F910F900BBE0F9007
:102270000FBE0F901F9018951F920F920FB60F92DE
:1022800011240BB60F922F933F934F935F936F934D
:102290007F938F939F93AF93BF93EF93FF93E091BF
:1022A0000802F09109021995FF91EF91BF91AF914A
:1022B0009F918F917F916F915F914F913F912F915E
:1022C0000F900BBE0F900FBE0F901F9018951F928E
:1022D0000F920FB60F9211240BB60F922F933F93CC
:1022E0004F935F936F937F938F939F93AF93BF931E
:1022F000EF93FF93E0910602F09107021995FF9189
:10230000EF91BF91AF919F918F917F916F915F916D
:102310004F913F912F910F900BBE0F900FBE0F90DA
:102320001F9018951F920F920FB60F9211240BB6A3
:102330000F922F933F934F935F936F937F938F935E
:102340009F93AF93BF93EF93FF93E0910402F091BB
:1023500005021995FF91EF91BF91AF919F918F91D8
:102360007F916F915F914F913F912F910F900BBE95
:102370000F900FBE0F901F901895CF93CFB7F89482
:102380008091D502811123C0E8EFF6E08491EEE35D
:10239000F7E09491E82FF0E0EE0FFF1FE157F94FBF
:1023A000A591B491EC91E92319F461E085E3D8D1CA
:1023B00061E085E352D28CB580618CBD8CB58064C0
:1023C0008CBD61E084E349D261E083E346D2809131
:1023D000D5028F5F8093D502CFBFCF9108958EBD78
:1023E00000000DB407FEFDCF8EB50895279A2F9AF1
:1023F0002FEF80E792E0215080409040E1F700C04D
:1024000000001F9AF5CFE0910003F0910103808155
:10241000811103C08FEF9FEF0CC0E0910003F0919A
:1024200001030580F681E02D0680F781E02D828191
:1024300093819093CE028093CD020895CF92DF9244
:10244000EF92FF920F931F93CF93DF936C017A016A
:102450008B01C0E0D0E0CE15DF0589F0D8016D9189
:102460008D01D601ED91FC910190F081E02DC60126
:102470001995892B11F47E0102C02196ECCFC7017A
:10248000DF91CF911F910F91FF90EF90DF90CF9050
:102490000895FC01538D448D252F30E0842F90E06A
:1024A000821B930B541710F0CF960895019708954F
:1024B000FC01918D828D981761F0828DDF01A80F4C
:1024C000B11D5D968C91928D9F5F9F73928F90E06E
:1024D00008958FEF9FEF0895FC01918D828D9817DD
:1024E00031F0828DE80FF11D858D90E008958FEF1A
:1024F0009FEF0895FC01918D228D892F90E0805CE3
:102500009F4F821B91098F739927089586E493E06A
:10251000F1DF21E0892B09F420E0822F0895FC01EE
:10252000848DDF01A80FB11DA35ABF4F2C91848D5C
:1025300090E001968F739927848FA689B7892C9391
:10254000A089B1898C9180648C93938D848D98132C
:1025500006C00288F389E02D80818F7D80830895F5
:10256000EF92FF920F931F93CF93DF93EC0181E0E3
:10257000888F9B8D8C8D981305C0E889F98980819F
:1025800085FD23C0F62E0B8D10E00F5F1F4F0F73DC
:102590001127E02E8C8DE8120BC00FB607FCFACF86
:1025A000E889F989808185FFF5CFCE01B8DFF2CFC8
:1025B0008B8DFE01E80FF11DE35AFF4FF0820B8F68
:1025C000EA89FB898081806207C0EE89FF89608388
:1025D000E889F98980818064808381E090E0DF91DF
:1025E000CF911F910F91FF90EF900895CF93DF93BC
:1025F000EC01888D8823C1F0EA89FB89808185FD03
:1026000005C0A889B9898C9186FD0EC00FB607FC5C
:10261000F5CF808185FFF2CFA889B9898C9185FF9C
:10262000EDCFCE017CDFE8CFDF91CF91089580E040
:1026300090E0892B19F06ADF811125C080E090E0DD
:10264000892B41F080E090E0892B21F00E9400006E
:1026500081111CC080E090E0892B41F080E090E087
:10266000892B21F00E940000811113C080E090E0CE
:10267000892BA1F080E090E0892B81F00E9400007E
:1026800081110AC008950E940000D8CF0E94000066
:10269000E1CF0E940000EACF0C94000008950E9450
:1026A00076251F920F920FB60F9211240BB60F9240
:1026B0002F933F934F935F936F937F938F939F934A
:1026C000AF93BF93EF93FF9386E493E028DFFF91EE
:1026D000EF91BF91AF919F918F917F916F915F919A
:1026E0004F913F912F910F900BBE0F900FBE0F9007
:1026F0001F9018951F920F920FB60F9211240BB6D0
:102700000F922F938F939F93EF93FF93E091560334
:10271000F09157038081E0915C03F0915D0382FDAD
:1027200012C0908180915F038F5F8F73209160034F
:10273000821751F0E0915F03F0E0EA5BFC4F958F68
:1027400080935F0301C08081FF91EF919F918F91F2
:102750002F910F900BBE0F900FBE0F901F901895EA
:10276000362F90E0FC01E15BF84F4491FC01E75FFC
:10277000F84F2491FC01ED53F94F9491992309F4FA
:102780006BC0442309F455C050E0FA013197E2319F
:10279000F10508F04EC08827E458FF4F8F4F0C9486
:1027A0002D24809180008F7707C0809180008F7DDD
:1027B00003C080918000877F809380003AC084B5F9
:1027C0008F7702C084B58F7D84BD33C08091B00007
:1027D0008F7703C08091B0008F7D8093B00029C0B7
:1027E000809190008F7707C0809190008F7D03C00B
:1027F00080919000877F809390001BC08091A00003
:102800008F7707C08091A0008F7D03C08091A000CA
:10281000877F8093A0000DC0809120018F7707C033
:10282000809120018F7D03C080912001877F80935C
:102830002001E92FF0E0EE0FFF1FE755F94FA591BA
:10284000B4918FB7F894EC91311103C020952E23E9
:1028500001C02E2B2C938FBF0895CF93DF9390E070
:10286000FC01E75FF84F2491FC01ED53F94F84918F
:10287000882361F190E0880F991FFC01E157F94F1F
:10288000C591D491FC01E755F94FA591B49161111F
:1028900009C09FB7F8948881209582238883EC91A2
:1028A0002E230BC0623061F49FB7F8943881822FD9
:1028B000809583238883EC912E2B2C939FBF06C099
:1028C0008FB7F894E8812E2B28838FBFDF91CF91AB
:1028D0000895009761F0FC0101900020E9F731971D
:1028E000AF01481B590BBC0186E493E0A7CD80E003
:1028F00090E00895CF93DF93ECDFEC0181E792E065
:10290000E8DF8C0F9D1FDF91CF9108955F926F924A
:102910007F928F929F92AF92BF92CF92DF92EF926F
:10292000FF920F931F93CF93DF9300D01F92CDB7E9
:10293000DEB7782E6B015A01490160E08091E9030E
:102940000FDF872D4CDDCE0101963C01E4E05E2EC9
:10295000580E80E044DDF30181933F015E12F9CF10
:102960002C8123FB882780F9F40180833A814981F7
:10297000832F90E075E0959587957A95E1F7F8E0DB
:102980004F9F800D911D1124092E000CAA0BBB0B2B
:10299000F60180839183A283B38333FF38C08081A3
:1029A0009181A281B38142E0880F991FAA1FBB1FAA
:1029B0004A95D1F73370830F911DA11DB11D8083FE
:1029C0009183A283B38380819181A281B381BA2F45
:1029D000A92F982F88273B81830F911DA11DB11D21
:1029E00080839183A283B38380819181A281B3810B
:1029F000BA2FA92F982F8827820F911DA11DB11DD5
:102A000080839183A283B38381E0F501808380E09A
:102A1000E6DC8F70F80180836701F12CF80180817A
:102A2000F81650F4F8E0FF1639F080E0D8DCF60133
:102A300081936F01F394F2CF61E08091E9030F90ED
:102A40000F900F900F90DF91CF911F910F91FF90FA
:102A5000EF90DF90CF90BF90AF909F908F907F903E
:102A60006F905F907DCE1F93CF93DF93182F80E5FB
:102A700091E00E941C05C3EED3E060E08E8170DE21
:102A800083E0ADDC812FABDC80E0A9DC182F61E0B6
:102A90008E8166DE0E941B05812FDF91CF911F91F1
:102AA00008950F931F93CF93DF938C01C0E0D0E084
:102AB000F801EC0FFD1F6491662371F0E09146036D
:102AC000F09147030190F081E02D86E493E01995A1
:102AD000892B11F02196ECCF81E792E0FADE8C0F82
:102AE0009D1FDF91CF911F910F910895EF92FF925B
:102AF0000F931F93CF93DF931F92CDB7DEB7082FAD
:102B0000162F80E591E049830E941C0583EEE82E94
:102B100083E0F82E60E0F701868122DE85E05FDC4D
:102B2000802F5DDC812F5BDC4981842F58DC61E0E4
:102B3000F701868115DE0F90DF91CF911F910F91E4
:102B4000FF90EF900C941B05CF93C82F482F60EE99
:102B50008FE0CCDF8FE087DF807E91E08C1301C0B7
:102B600090E0892FCF9108950F931F93CF93DF9318
:102B7000082F162F80E591E00E941C05C3EED3E0DC
:102B800060E08E81EDDD82E02ADC802F28DC812F61
:102B900026DC61E08E81E4DDDF91CF911F910F9102
:102BA0000C941B05EF92FF920F931F93DC01ED91A4
:102BB000FC9111971A960D911C911B9718962D91C7
:102BC0003C91199700A0F1A1E02D7B0140E050E07D
:102BD00060E070E019951F910F91FF90EF900895BC
:102BE0000F931F93CF93DF931F92CDB7DEB78C0166
:102BF000FC01838D882331F080E591E069830E9498
:102C00001C056981611102C060E201C061E2C80176
:102C10000E94BB04F801838D882339F00F90DF9167
:102C2000CF911F910F910C941B050F90DF91CF91C5
:102C30001F910F9108951F93CF93DF93EC01162FEF
:102C40008B8D882321F080E591E00E941C0566E3CE
:102C5000CE010E94BB04612F63706D8B623041F026
:102C6000633089F0613011F068E403C068E20CC0A1
:102C700068E8CE010E94A00480E491E099878887EB
:102C800080EE91E00AC068EECE010E94A00480EEC2
:102C900091E09987888780E491E09B878A878B8D74
:102CA000882329F0DF91CF911F910C941B05DF91B0
:102CB000CF911F9108958F929F92AF92BF92CF9222
:102CC000DF92EF92FF920F931F93CF93DF9300D089
:102CD0001F92CDB7DEB74C0159016801DC0118968F
:102CE0002D913C911997621773070CF07FC01A96CB
:102CF0008D919C911B97481759070CF077C0FB01E9
:102D0000EA0DFB1D2E173F071CF45901A61AB70A3E
:102D10009A012C0D3D1D821793071CF46C01C41AF7
:102D2000D50AF401838D882361F080E591E04B831F
:102D30005C8369837A830E941C057A8169815C8146
:102D40004B818A010C0D1D1D015011099B012A0D9B
:102D50003B1D21503109C4010E94D704D401919632
:102D6000ED91FC9192979081D0968C91D097892B80
:102D700080839596ED91FC91969790819F968C918A
:102D80008095892380831C141D047CF48501101612
:102D900011063CF4B701C4010E945F0401501109FF
:102DA000F6CFB1E0CB1AD108EECFD4019596ED91D4
:102DB000FC91969790819F968C919F97892B808309
:102DC0005B968C91882391F00F900F900F900F904D
:102DD000DF91CF911F910F91FF90EF90DF90CF90F7
:102DE000BF90AF909F908F900C941B050F900F9009
:102DF0000F900F90DF91CF911F910F91FF90EF9067
:102E0000DF90CF90BF90AF909F908F9008958F925A
:102E10009F92AF92BF92CF92DF92EF92FF920F9369
:102E20001F93CF93DF931F921F92CDB7DEB74C0154
:102E30006B0179015801DC0118968D919C911997CD
:102E4000681779070CF066C01A962D913C911B9774
:102E5000421753070CF05EC09B012E0D3F1D8217D9
:102E600093071CF47C01E61AF70AF401838D88238A
:102E700041F080E591E049835A830E941C055A8104
:102E8000498196012E0D3F1D215031098A01B6015D
:102E9000C4010E94D704D4019196ED91FC919297C0
:102EA0009081D0968C91D097892B80839596ED91C7
:102EB000FC91969790819F968C9180958923808331
:102EC000E114F10441F0B501C4010E945F04B1E0D6
:102ED000EB1AF108F5CFD4019596ED91FC919697F8
:102EE00090819F968C919F97892B80835B968C9184
:102EF000882381F00F900F90DF91CF911F910F9158
:102F0000FF90EF90DF90CF90BF90AF909F908F9009
:102F10000C941B050F900F90DF91CF911F910F9193
:102F2000FF90EF90DF90CF90BF90AF909F908F90E9
:102F30000895AF92BF92CF92DF92EF92FF920F93DC
:102F40001F93CF93DF9300D01F92CDB7DEB75C0104
:102F500079016801DC0118968D919C911997681789
:102F600079070CF069C01A968D919C911B974817B0
:102F700059070CF061C09A012E0D3F1D821793076F
:102F80001CF47C01E41AF50AF501838D882361F0B5
:102F900080E591E04B835C8369837A830E941C0502
:102FA0007A8169815C814B818A010E0D1F1D015060
:102FB00011099B01C5010E94D704D5019196ED919D
:102FC000FC9192979081D0968C91D097892B808399
:102FD0009596ED91FC91969790819F968C91809516
:102FE00089238083E114F10441F0B601C5010E94F8
:102FF0005F04B1E0EB1AF108F5CFD5019596ED919C
:10300000FC91969790819F968C919F97892B8083B6
:103010005B968C91882381F00F900F900F900F900A
:10302000DF91CF911F910F91FF90EF90DF90CF90A4
:10303000BF90AF900C941B050F900F900F900F90C6
:10304000DF91CF911F910F91FF90EF90DF90CF9084
:10305000BF90AF900895FC0173836283918780874E
:103060004617570778F0421B530B84859585481700
:103070005907C0F4BF016E5F7F4F8091CF029091DE
:10308000D0020DC04217530718F46217730750F4AB
:10309000BF016E5F7F4F8091D1029091D20275D6B1
:1030A00080E0089581E00895EF92FF920F931F93BF
:1030B000CF93DF93E091D102F091D20280818823F7
:1030C00059F10580F681E02D00811181C681D781FB
:1030D0007E0182E0E80EF11CC701BCD3E989FA89C0
:1030E000CE0119958E85813029F72C853D85200FDD
:1030F000311F0217130758F43B832A83D987C887E7
:10310000B7018091D1029091D2023FD6D3CFB801BE
:10311000CE010E945221CECF8091CF029091D00259
:103120009093D2028093D102F093D002E093CF0229
:10313000DF91CF911F910F91FF90EF900895EF9243
:10314000FF920F931F93CF93DF931F92CDB7DEB7FC
:103150007C010091FB021091FC028091430390914D
:1031600044030296698376D369818FEFE816F806E7
:1031700091F4662381F060914303709144036E5F84
:103180007F4F82E093E00F90DF91CF911F910F91DD
:10319000FF90EF9083C3E00EF11EE0914303F091A6
:1031A0004403F382E2826091430370914403E0168A
:1031B000F10670F48091FE029091FF026E5F7F4FE6
:1031C0000F90DF91CF911F910F91FF90EF90DDC590
:1031D00080910003909101036E5F7F4FD6D580915F
:1031E000CD029091CE02E816F90620F4F092CE02BC
:1031F000E092CD020F90DF91CF911F910F91FF9040
:10320000EF900895CF93DF93CDB7DEB727970FB632
:10321000F894DEBF0FBECDBFE091D102F091D20293
:103220008081FF24F394882339F0F12C0580F68106
:10323000E02D0081118102C000E010E0F8D2EDD253
:103240006C018091D3029091D402C816D90618F46B
:103250002BDF81E001C080E0D092D402C092D30283
:1032600081116CC0F1102DC0C016D10690F179D437
:10327000E091D102F091D2020580F681E02DE68046
:10328000F780C7010296E6D2D7011E968C911E9751
:10329000813079F41C966D917C911D97600F711FA0
:1032A0009801A601C701D7DE882319F0B801C7012C
:1032B000F9D7D7015196ED91FC915297C701199515
:1032C00042C0E091CF02F091D0028081BB24B39440
:1032D0008111B12CE090F902F090FA020FB6F89447
:1032E0000F92F701858D8F3F09F4158ED7015E96F9
:1032F0008C915E978F3F11F45E961C920F900FBEDB
:10330000F701828D811113C06091430370914403D2
:10331000645F7F4FC7014196C1D2B11004C0C8019C
:103320008C199D0902C08FEF9FEF6B2D08DFC7013D
:1033300013D317D4811107C04FD305C012D403C0D3
:10334000898187FF0BC0BE016F5F7F4F8091F902BB
:103350009091FA02FED68111F3CF5ECF0C811D81D0
:10336000D8011A968D919C911B97892B19F0C80151
:10337000029670D252D2AC018091D3029091D402C5
:103380004817590728F44E835F838EDE5F814E8194
:103390005093D4024093D3028981082E000C990BDC
:1033A000AA0BBB0B8A30910570F6FC018827EE58FA
:1033B000FF4F8F4F0C942D242A813B81F8016485A7
:1033C0007585620F731FC80146DE882309F4BBCFE1
:1033D000D8015196ED91FC915297C8011995F801C9
:1033E0008685813009F0AFCF648575858A819B81A0
:1033F000680F791FC80156D7A6CF6A817B81D80193
:103400001D967C936E931C97640F751F9A01C801DB
:1034100022DE99CFC801A1D596CF0F920FB6F894AE
:103420000F920BB60F920CB60F921F9211242F928F
:103430003F924F925F926F927F928F929F92AF9244
:10344000BF92CF92DF92EF92FF920F931F932F9331
:103450003F934F935F936F937F938F939F93AF931C
:10346000BF93CF93DF93EF93FF93A0914303B0916A
:1034700044030DB60D920EB60D9213BE8091F80264
:103480008111F3C08091FB029091FC020196909310
:10349000FC028093FB02009799F520910003309184
:1034A00001034091FE025091FF02509301034093AB
:1034B00000033093FF022093FE022091FD022F5F54
:1034C0002093FD02E0910003F0910103208121117E
:1034D00007C02FEF3FEF3093CE022093CD0210C0F4
:1034E000E0910003F09101030580F681E02D068054
:1034F000F781E02D228133813093CE022093CD02DB
:103500002091CD023091CE028217930710F420E073
:103510009CC020E019E0E0910003F09101033081AC
:10352000311107C08FEF9FEF9093CE028093CD02B1
:103530008CC0E0910003F09101030580F681E02D3D
:103540000680F781E02D428153818417950728F486
:103550005093CE024093CD0278C0AF014E5F5F4FD3
:10356000A285B38564817581E680F780EB01FD82D9
:10357000EC82C681D7817B836A8311966D917C91A1
:1035800012976417750721F41296DC93CE93119766
:10359000138612863C9131503C933C91A489B589A5
:1035A0001097F9F066857785E088F188EB01FD8258
:1035B000EC82C089D1897B836A831196ED90FC905F
:1035C0001297BF01645F7F4FE616F70621F412964B
:1035D000DC93CE931197158A148A3C9131503C9319
:1035E0003C91A689309141033A1710F4A09341030E
:1035F0001A9FD0011124BD01635E7C4F7B01DB016A
:103600001196CD91DC911297D583C4836C817D8115
:10361000778366836C817D81DB0113965C934E9387
:1036200012975D834C83F386E286E70138813F5F22
:103630003883A0914303B0914403468956963C9148
:10364000431708F468CF21E066CFE0914303F0917F
:103650004403E689D9E0ED9FF0011124E35EFC4FBD
:103660008081823040F021E006C08091F5028F5FBA
:103670008093F50220E08091F602811103C022239D
:1036800009F466C08091F802882321F081E08093DC
:10369000F6025EC01092F602A0914303B09144037B
:1036A000E0914303F09144032D913C918789908DE3
:1036B00082179307A8F0809143039091440380916F
:1036C000430390914403279A2F9A2FEF67EA71E6FC
:1036D000215060407040E1F700C000001F9AF5CF14
:1036E0008091410369E001C08150482F50E0649F00
:1036F0009001659F300D1124F901E35EFC4F90812C
:10370000992391F3A181B28112960D90BC91A02DC5
:10371000B283A183205E3C4FA217B30731F4129607
:103720002D913C9113973283218399E0949FF0016E
:10373000959FF00D1124E35EFC4F0180F281E02D96
:1037400026813781309344032093430380934103C0
:10375000A0914303B0914403CD91CDBFDD91DEBF75
:10376000FF91EF91DF91CF91BF91AF919F918F9199
:103770007F916F915F914F913F912F911F910F9189
:10378000FF90EF90DF90CF90BF90AF909F908F9081
:103790007F906F905F904F903F902F901F900F9071
:1037A0000CBE0F900BBE0F900FBE0F900895FC0142
:1037B000DB010FB6F8940F924091FB025091FC028E
:1037C000818192812D913C9111972F3F6FEF3607A8
:1037D000F1F07091FD026081761719F048175907D2
:1037E000C0F4481B590B4217530770F4241B350BC8
:1037F0002D933C938091FD0280838091FB029091F8
:10380000FC029283818303C01D921C9202C080E05F
:1038100001C081E00F900FBE08950FB6F8940F928B
:103820008091FB029091FC020F900FBE0895809151
:10383000F8028F5F8093F80208950FB6F8940F9204
:10384000FC01928D0F900FBE81E0911180E00895F0
:10385000E4DD1895CF93DF93FC01A085B1858281CB
:10386000938124813581EC013D832C83C481D581F2
:103870009B838A8311968D919C9112978E179F0737
:1038800021F41296DC93CE931197118610868C91B9
:1038900081508C938C91DF91CF910895CF93DF93DA
:1038A0009C01FB01DC011196CD91DC911297D38331
:1038B000C2838C819D81958384838C819D81DC0171
:1038C00013967C936E9312977D836C833187208748
:1038D000F90180818F5F8083DF91CF9108950F93ED
:1038E0001F93CF93DF93DC011596ED91FC91169712
:1038F000C681D7818E01045F1F4FC801ABDF809165
:10390000F802811113C00A501109C801A3DF9E8972
:1039100080914103891710F490934103B9E09B9F74
:10392000C0011124B801835E9C4F03C0B80184E13B
:1039300093E0B4DFE0914303F09144039E898689CC
:10394000891720F481E08093F60201C080E0DF91C6
:10395000CF911F910F910895EF92FF920F931F93B4
:10396000CF93DF93EC010FB6F8940F921E8D7C017C
:1039700081E1E80EF11C01E0111654F489898823D5
:1039800039F0C701ACDF81110093F6021150F4CF7A
:103990008FEF8E8F0F900FBE0FB6F8940F921D8D84
:1039A0007E0188E0E80EF11C01E0111654F48885D0
:1039B000882339F0C70193DF81110093F60211507B
:1039C000F4CF8FEF8D8F0F900FBEDF91CF911F91AE
:1039D0000F91FF90EF9008950F920FB6F8940F9209
:1039E0000BB60F920CB60F921F9211242F923F929A
:1039F0004F925F926F927F928F929F92AF92BF92FF
:103A0000CF92DF92EF92FF920F931F932F933F93EA
:103A10004F935F936F937F938F939F93AF93BF93D6
:103A2000CF93DF93EF93FF93A0914303B0914403AF
:103A30000DB60D920EB60D928091F802882321F0FA
:103A400081E08093F6025EC01092F602A0914303DB
:103A5000B0914403E0914303F09144032D913C91D4
:103A60008789908D82179307A8F0809143039091E6
:103A700044038091430390914403279A2F9A2FEF98
:103A800087EA91E6215080409040E1F700C00000B5
:103A90001F9AF5CF8091410369E001C08150482F02
:103AA00050E0649F9001659F300D1124F901E35EA1
:103AB000FC4F9081992391F3A181B28112960D90D0
:103AC000BC91A02DB283A183205E3C4FA217B30707
:103AD00031F412962D913C9113973283218399E012
:103AE000949FF001959FF00D1124E35EFC4F01803F
:103AF000F281E02D268137813093440320934303E4
:103B000080934103A0914303B0914403CD91CDBF75
:103B1000DD91DEBFFF91EF91DF91CF91BF91AF912A
:103B20009F918F917F916F915F914F913F912F91D5
:103B30001F910F91FF90EF90DF90CF90BF90AF90CB
:103B40009F908F907F906F905F904F903F902F90BD
:103B50001F900F900CBE0F900BBE0F900FBE0F90DA
:103B600008958F929F92AF92BF92CF92DF92EF9281
:103B7000FF920F931F93CF93DF930FB6F8940F929A
:103B80008091F80281508093F8028091F802882396
:103B900011F080E0EBC0809145038823D1F3C0E0B1
:103BA000D0E029E0F22EEE24E394809114038823E0
:103BB00039F1E0911903F0911A03C681D781CE0142
:103BC0000C9648DE8E010E5F1F4FC80143DE9E89B2
:103BD00080914103891710F490934103F99EC0012D
:103BE0001124B801835E9C4F59DEE0914303F091AC
:103BF00044039E8986899817C0F2E092F602D5CFD9
:103C0000CD2B11F00E940312E090F502EE2009F492
:103C1000A6C089E0B82EAA24A394CC24CA94DC2C94
:103C20008091F802811189C0C091FB02D091FC0201
:103C30002196D093FC02C093FB022097B9F48091A7
:103C40000003909101032091FE023091FF02309316
:103C50000103209300039093FF028093FE02809162
:103C6000FD028F5F8093FD020E9403128091CD02BE
:103C70009091CE02F12CC817D90708F44EC0E091FC
:103C80000003F09101038081811105C0D092CE0222
:103C9000C092CD0242C0E0910003F0910103058083
:103CA000F681E02D06811781D80112968D919C91A5
:103CB0001397C817D90728F49093CE028093CD02AA
:103CC0002CC04801B2E08B0E911CC401C3DDF80189
:103CD00084899589892B19F0C8010C96BBDDD80120
:103CE00056968C9190914103981710F4809341035C
:103CF000B89EC0011124B401835E9C4FCFDDE091DA
:103D00004303F0914403D80156969C9186899817F5
:103D100008F4B5CFFF24F394B2CFE0914303F091C0
:103D20004403E689BE9EF0011124E35EFC4F8081CE
:103D3000823048F0FF24F39406C08091F5028F5F33
:103D40008093F502F12C8091F602811101C0F110EF
:103D5000A092F602EA94E11063CF1092F5028091EE
:103D6000F602882309F415CF37DE81E00F900FBEED
:103D7000DF91CF911F910F91FF90EF90DF90CF9047
:103D8000BF90AF909F908F9008950F931F93CF9304
:103D9000DF938C01FB01808191818F3F2FEF920790
:103DA00021F4E801AF81B8850EC0D80113961296B0
:103DB0002D913C911397E90148815981841795070A
:103DC00010F0D901F4CF12968D919C9113979383A3
:103DD0008283EC01FD83EC83B583A4831396FC936B
:103DE000EE93129711870087F80180818F5F80839F
:103DF000DF91CF911F910F910895FC01039692835B
:103E000081832FEF3FEF34832383968385839087CD
:103E10008783108208950F931F93CF93DF9303EF4F
:103E200012E020E040EC50E06DEB72E08BEC93E0B0
:103E30005AD3813009F08CC00FB6F8940F9280915C
:103E4000F9029091FA02892B29F588EE92E0D5DFEC
:103E50008FED92E0D2DF88EE92E09093D2028093D1
:103E6000D1028FED92E09093D0028093CF0281E552
:103E700090E0A1D4EC01009749F04F969983888394
:103E80008AE08B8F85E08C8FCE0103D3D093FA022A
:103E9000C093F9020F900FBE8091F9029091FA023F
:103EA000892B09F455C001EF12E023E045E550E00D
:103EB00062EC72E082E099E116D3813009F048C0EB
:103EC000F8942FEF3FEF3093CE022093CD028093F2
:103ED00042031092FC021092FB02A89520EC88E1AC
:103EE00090E00FB6F894A895809360000FBE2093E1
:103EF0006000A0914303B0914403CD91CDBFDD910B
:103F0000DEBFFF91EF91DF91CF91BF91AF919F9174
:103F10008F917F916F915F914F913F912F911F9161
:103F20000F91FF90EF90DF90CF90BF90AF909F9058
:103F30008F907F906F905F904F903F902F901F9049
:103F40000F900CBE0F900BBE0F900FBE0F900895F8
:103F5000DF91CF911F910F910895CF93DF93009739
:103F600039F0EC0164DCCE0129D5DF91CF91F9CD98
:103F7000DF91CF910895AF92BF92CF92DF92EF92EF
:103F8000FF920F931F93CF93DF9300D01F921F9246
:103F9000CDB7DEB78C017B011D821C8290E05801F9
:103FA00088E0A80EB11C0FB6F8940F92F801228D8C
:103FB000838D281708F068C0D28C448D41113DC014
:103FC00080819181892B09F04FC0F801E280F38054
:103FD000E114F10411F480E02CC0F70182A18150BA
:103FE00082A3268991A12917B1F38111F4CF57013A
:103FF000F2E0AF0EB11CC5012DDCF70191A1968B4B
:10400000492F50E024E030E0241B350B358724870E
:1040100080914103891710F49093410329E0249F74
:10402000C001259F900D1124B501835E9C4F36DCA5
:1040300081E0F8011382128218C050E0B701F80144
:104040008481958157D5F801248D84819581820FD3
:10405000911D95838483228133818217930720F0F9
:10406000808191819583848380E0D394F801D28EFE
:104070009189992319F0C801419631DC8111ACDC9A
:104080000F900FBE81E055C02C813D81232B19F488
:104090000F900FBE4DC0911109C08091FD02898320
:1040A0008091FB029091FC029B838A830F900FBE4C
:1040B000BEDB0FB6F8940F92F801858D8F3F09F49F
:1040C000158EF801868D8F3F09F4168E0F900FBE66
:1040D000BE016C5F7F4FCE01019669DB811125C067
:1040E0000FB6F8940F92F801928D838D0F900FBE4A
:1040F000981317C0CC80DD80209143033091440396
:10410000B901645F7F4FC50140DE61E0C60117D889
:10411000C80122DC26DD882311F091E044CF5CDC6D
:10412000FCCFC80119DC1DDDF8CFC80115DC19DD95
:1041300080E00F900F900F900F900F90DF91CF9134
:104140001F910F91FF90EF90DF90CF90BF90AF90B5
:104150000895AF92BF92CF92DF92EF92FF920F93AA
:104160001F93CF93DF9300D01F921F92CDB7DEB77E
:104170008C016B011D821C8280E0580191E1A90E27
:10418000B11C0FB6F8940F92F801F28CFF2039F1B0
:10419000448D4423A9F050E026813781240F351F38
:1041A00037832683828193812817390720F0808105
:1041B000918197838683F80166817781C6019AD4BD
:1041C000FA94F801F28E8085882329F0C8010896B8
:1041D00086DB811101DC0F900FBE81E053C02C8182
:1041E0003D81232B19F40F900FBE4BC0811109C0E4
:1041F0008091FD0289838091FB029091FC029B8358
:104200008A830F900FBE13DB0FB6F8940F92F8015C
:10421000858D8F3F09F4158EF801868D8F3F09F447
:10422000168E0F900FBEBE016C5F7F4FCE010196C0
:10423000BEDA81111FC0C80100DB8823B9F0EC8011
:10424000FD806091430370914403645F7F4FC5011B
:104250009CDD61E0C7010E949F18C8017DDB81DC05
:10426000882311F081E08DCFB7DBFCCFC80174DB70
:1042700078DCF8CFC80170DB74DCC801DEDA882393
:1042800089F380E00F900F900F900F900F90DF91C7
:10429000CF911F910F91FF90EF90DF90CF90BF9043
:1042A000AF900895CF93DF9300D01F921F92CDB7A8
:1042B000DEB79C018091F9029091FA02009761F0BB
:1042C00019827B836A833D832C83209142032223BE
:1042D00029F02091F80202C080E004C0BE016F5FA7
:1042E0007F4F49DE0F900F900F900F900F90DF914E
:1042F000CF910895789484B5826084BD84B581603F
:1043000084BD85B5826085BD85B5816085BDEEE6DD
:10431000F0E0808181608083E1E8F0E010828081BC
:1043200082608083808181608083E0E8F0E080812A
:1043300081608083E1EBF0E0808184608083E0EB4A
:10434000F0E0808181608083E1E9F0E0808182603B
:104350008083808181608083E0E9F0E080818160FA
:104360008083E1EAF0E080818260808380818160E7
:104370008083E0EAF0E0808181608083E1E2F1E027
:10438000808182608083808181608083E0E2F1E0CF
:10439000808181608083EAE7F0E0808184608083AF
:1043A0008081826080838081816080838081806859
:1043B00080831092C1000E943109CF93DF93109245
:1043C00049031092480388EE93E0A0E0B0E08093A8
:1043D0004A0390934B03A0934C03B0934D0388E49E
:1043E00092E0909347038093460385EC90E090938E
:1043F00053038093520384EC90E090935503809391
:10440000540380EC90E0909357038093560381EC23
:1044100090E0909359038093580382EC90E090933E
:104420005B0380935A0386EC90E090935D03809346
:104430005C0310925F03109260031092610310926C
:10444000620389E790E0B7D1EC01009749F04F96FD
:104450009983888381E08B8F8AE58C8FCE0119D078
:10446000D093EE03C093ED031092EC0382E094E04E
:104470009093EB038093EA0387E08093E90361E084
:104480000E942D1461E08091E903DF91CF910C949B
:10449000B013CF93DF93EC010FB6F8940F922881FD
:1044A00039819B8D4C8D949FC0011124B901680FF7
:1044B000791F7B836A831A8E3D832C83841B910929
:1044C000820F931F9F838E838FEF8D8F8E8FCE01F0
:1044D000089693DCCE01419690DC0F900FBE81E0F0
:1044E000DF91CF9108957F928F929F92AF92BF926A
:1044F000CF92DF92EF92FF920F931F93CF93DF93B0
:10450000982EC92E762E872EEA01D22ECA0153D1BB
:104510005C01892B09F440C188E290E04CD17C0118
:104520000097D1F0DC015896BC92AE925797AE013D
:1045300065EA70E0C501E7D22197D7015796ED9162
:10454000FC915897EC0FFD1FB701675E7F4FA72DB9
:10455000B82DCD01089606C0C501FFDC1DC1A81706
:10456000B90749F09D014D91EB014993BE01E90165
:1045700028812111F4CFD70190961C922D2D243043
:1045800008F023E0E7012E8B29A31AA21B861A86C6
:104590001D8A1C8AF986E88684E090E0821B9109D6
:1045A0009D878C87FB8AEA8A1BA21CA21DA21EA2E1
:1045B0001FA291E19083DF01119782E28C93119702
:1045C00023E32C9311979C921197CC9211971C92F4
:1045D00011971C92119720E82C9311971C92119718
:1045E0001C9211971C92119722E02C93119723E0B3
:1045F0002C93119724E02C93119725E02C9311977D
:1046000026E02C93119727E02C93119728E02C9308
:10461000119729E02C93119720E12C9311979C93EB
:10462000119792E19C93119793E19C93119794E1D8
:104630009C93119795E19C93119796E19C93119708
:1046400097E19C93119798E19C93119799E19C9322
:10465000119790E29C93119791E29C9311978C9300
:10466000119783E28C9311971C9211971C921197CA
:1046700086E28C93119787E28C93119788E28C9352
:10468000119789E28C93119780E38C93119781E3C2
:104690008C93B997F983E8830115110519F0F80196
:1046A000F182E0820FB6F8940F92809145038F5FFC
:1046B000809345038091430390914403892B89F5AE
:1046C000F0924403E092430380914503813009F066
:1046D0003AC08DE193E091DB86E293E08EDB8FE2DE
:1046E00093E08BDB88E393E088DB88EF93E085DB66
:1046F0008FEE93E082DB84E193E07FDB8BE093E05D
:104700007CDB82E093E079DB88EF93E09093010318
:10471000809300038FEE93E09093FF028093FE025C
:1047200012C08091420381110EC0E0914303F091C9
:1047300044039689D70156968C91891720F0F09200
:104740004403E0924303809101048F5F809301044E
:10475000E7018E8990914103981710F480934103EB
:10476000D9E08D9FC0011124B7016E5F7F4F835E3A
:104770009C4F94D80F900FBE80914203882351F034
:10478000E0914303F09144039689F70186899817D5
:1047900008F422D981E001C08FEFDF91CF911F9102
:1047A0000F91FF90EF90DF90CF90BF90AF909F90D0
:1047B0008F907F9008950F931F93CF93DF931F9255
:1047C0001F92CDB7DEB789839A8331D889819A81C8
:1047D00060D08C01C6D90115110511F40E94F611A3
:1047E000C8010F900F90DF91CF911F910F91089505
:1047F00097FB072E16F4009406D077FD08D035D02D
:1048000007FC05D03EF4909581959F4F08957095D3
:1048100061957F4F0895A1E21A2EAA1BBB1BFD01D3
:104820000DC0AA1FBB1FEE1FFF1FA217B307E4078F
:10483000F50720F0A21BB30BE40BF50B661F771FE7
:10484000881F991F1A9469F76095709580959095C7
:104850009B01AC01BD01CF010895EE0FFF1F881F22
:104860008BBF0790F691E02D1994AA1BBB1B51E159
:1048700007C0AA1FBB1FA617B70710F0A61BB70BD0
:10488000881F991F5A95A9F780959095BC01CD0175
:104890000895CF93DF938230910510F482E090E089
:1048A000E0910504F091060420E030E0C0E0D0E0A3
:1048B000309711F14081518148175907C0F04817CE
:1048C000590761F482819381209719F09B838A8331
:1048D0002BC0909306048093050426C02115310552
:1048E00019F04217530718F49A01BE01DF01EF01D6
:1048F0000280F381E02DDCCF2115310509F1281B61
:10490000390B2430310590F412968D919C911397B8
:104910006115710521F0FB019383828304C090939C
:10492000060480930504FD01329644C0FD01E20FA8
:10493000F31F81939193225031092D933C933AC0F8
:104940002091030430910404232B41F4209112029E
:104950003091130230930404209303042091100239
:10496000309111022115310541F42DB73EB7409128
:10497000140250911502241B350BE0910304F091B1
:104980000404E217F307A0F42E1B3F0B2817390786
:1049900078F0AC014E5F5F4F2417350748F04E0F9B
:1049A0005F1F50930404409303048193919302C0CA
:1049B000E0E0F0E0CF01DF91CF9108950F931F93D6
:1049C000CF93DF93009709F48CC0FC0132971382D8
:1049D000128200910504109106040115110581F45D
:1049E00020813181820F931F2091030430910404B0
:1049F0002817390779F5F0930404E093030471C094
:104A0000D80140E050E0AE17BF0750F412962D9148
:104A10003C911397AD012115310509F1D901F3CF6F
:104A20009D01DA013383228360817181860F971F94
:104A30008217930769F4EC0128813981260F371F0B
:104A40002E5F3F4F318320838A819B8193838283B2
:104A5000452B29F4F0930604E093050442C0139615
:104A6000FC93EE931297ED01499159919E01240F09
:104A7000351FE217F30771F480819181840F951F30
:104A8000029611969C938E938281938113969C93A8
:104A90008E931297E0E0F0E0D80112968D919C91F0
:104AA0001397009719F0F8018C01F6CF8D919C9126
:104AB00098012E5F3F4F820F931F20910304309186
:104AC00004042817390769F4309729F41092060472
:104AD0001092050402C01382128210930404009302
:104AE0000304DF91CF911F910F91089581E090E031
:104AF000F89417C0FB01DC0102C001900D924150F7
:104B00005040D8F70895DC0101C06D9341505040EA
:104B1000E0F70895FB01DC0101900D920020E1F720
:064B20000895F894FFCF98
:104B26003B0A3B0A3B0A3B0A3B0A3B0A3B0A3B0A57
:104B3600000007048000000000000000680C1E1240
:104B4600580457041F05390F320F0A0F260F1A0F84
:104B56003A0F090F1B16F015991707175B16D21592
:104B66009B0D3C0D00000000B0121E124912F612F9
:104B76007A1258126C12000000004F131E125804CD
:104B86005704414C49564500526563762049443ADC
:104B9600000D0A00436F6E74656E743A0A00446134
:104BA60074612073706F696C742E2E2E004E6F2008
:104BB600646174612E2E2E0053637265656E31201A
:104BC600696E697469616C697A65642E00526566FE
:104BD60072657368005265616443414E0049444CF6
:0A4BE6004500546D72205376630001
:00000001FF
