:10000000BBC00000EAC00000E8C00000E6C000007D
:10001000E4C00000E2C00000E0C00000DEC000005C
:10002000DCC00000DAC00000D8C00000D6C000006C
:100030000C94790BD2C00000D0C00000CEC00000EC
:10004000CCC00000CAC00000C8C00000C6C000008C
:10005000C4C00000C2C00000C0C0000085C70000CE
:10006000BCC0000027C70000FCC60000B6C00000EE
:10007000B4C00000B2C00000B0C00000AEC00000BC
:10008000ACC00000AAC00000A8C00000A6C00000CC
:10009000BFC6000094C60000A0C000009EC00000C3
:1000A0009CC000009AC0000098C0000096C00000EC
:1000B00094C0000092C0000090C000008EC00000FC
:1000C0008CC000008AC0000088C000004FC600003D
:1000D00024C6000082C0000080C000007EC0000076
:1000E0007CC000006D126D126D1235128E129B12C3
:1000F0006D126D1235128E125265636569766564F4
:10010000206E6F7468696E672E002066726F6D20B6
:100110000052656365697665642000008091E202A3
:10012000882309F10FB6F8940F92E091E902F0915B
:10013000EA02C681D781CE0102960E947B0B809194
:10014000E30281508093E3028091E2028150809328
:10015000E2020F900FBE8F89988D0E94CB0CCE01CA
:100160000E94CB0CDBCF80910E03823010F00E94F6
:10017000C00B8AD5D3CF9E1211241FBECFEFD1E280
:10018000DEBFCDBF00E00CBF25E0A6EAB2E001C0B3
:100190001D92A237B207E1F712E0A0E0B2E0E6E973
:1001A000FFE200E00BBF02C007900D92A63AB10734
:1001B000D9F710E0CCEBD0E000E006C021970109B0
:1001C000802FFE010E944516CB3BD10780E0080737
:1001D000A9F70E9439130C94C91712CF0F931F93DC
:1001E000CF93DF938C01EB01BC0164597F4FCE01AB
:1001F0000E94991761E272E0CE010E948E17B80149
:1002000069597F4FCE010E948E1761E272E0CE01E4
:100210000E948E17B8016F587F4FCE010E948E1733
:1002200061E272E0CE010E948E17B8016A587F4FDA
:10023000CE01DF91CF911F910F910C948E17EF9209
:10024000FF920F931F93CF93DF93EC018A599F4F37
:100250007C0188819981DC01ED91FC910084F1851C
:10026000E02D1995892BA9F0D7011C91133688F43C
:1002700081E0810F8C9388819981DC01ED91FC9163
:100280000284F385E02D1995FE01E10FF11D8283B3
:10029000E0CFF7018081FE01E80FF11D12826CE0D2
:1002A00072E0CE0102960E94AF178C01009709F40C
:1002B00050C0FC0101900020E9F73197E81BF90BD1
:1002C0007997A0F480E0282F30E0F801E20FF31FC7
:1002D0009081FE01E20FF31F928321E0280F992302
:1002E00011F0822FF0CFF701808335C0BC016E5F23
:1002F0007F4F44E050E0CE0184599F4F0E94A017E9
:10030000B801685F7F4F44E050E0CE0189599F4FAC
:100310000E94A017B801625F7F4F44E050E0CE0119
:100320008F589F4F0E94A017B8016C5E7F4F45E029
:1003300050E0CE018A589F4F0E94A017FE01E55859
:10034000FF4F1082369710823A971082C059DF4FC4
:100350001882D7011C92DF91CF911F910F91FF90CE
:10036000EF900895CF93DF93EC01CB0179836883FD
:10037000FE01EA59FF4F108240E05BE460E070E06C
:10038000BDD663E272E0CE0184599F4F0E94991757
:1003900063E272E0CE0189599F4F0E94991769E28A
:1003A00072E0CE018F589F4F0E94991768E272E069
:1003B000CE018A589F4FDF91CF910C94991782E11B
:1003C00090E00E94B50FFBCFCF93DF93CDB7DEB7A0
:1003D00067970FB6F894DEBF0FBECDBF94EFC92E5E
:1003E000DD24D394E12CF12CBE016F5F7F4F80910F
:1003F0005405909155050E944D158130C1F481E15D
:1004000091E05BD6BE016D5F7F4F8FE694E04AD7E7
:100410008AE091E052D6E981FA81EE0FFF1FEA5F90
:10042000FD4F608171818FE694E0CFD603C088EFE5
:1004300090E043D66FE372E08FE694E0C6D682E1A7
:1004400090E00E94B50F84D56093BC027093BD020A
:100450008093BE029093BF020091B8021091B9023E
:100460002091BA023091BB0260177107820793078F
:1004700040F46093B8027093B9028093BA029093EB
:10048000BB020091B8021091B9022091BA023091DA
:10049000BB024B015C01801A910AA20AB30A48EE22
:1004A000841643E09406A104B10408F49DCF609340
:1004B000B8027093B9028093BA029093BB02C092C3
:1004C0001A05D0921B05E0921C05F0921D051092B2
:1004D0001E0510921F051092200510922105809193
:1004E000120590911305A0911405B0911505809304
:1004F000160590931705A0931805B093190528D5F4
:10050000609312057093130580931405909315055D
:100510001FD560930E0570930F058093100590937F
:10052000110581E0C0D66EE272E080914E05909197
:100530004F05B8D60E944814482F50E060E070E0A4
:100540002AE080914E0590914F0564D653D665E020
:1005500070E080E090E08CD5FBD46093120570933E
:10056000130580931405909315053ECFCF93DF9329
:10057000CDB7DEB767970FB6F894DEBF0FBECDBF1D
:100580008C017C012CE7E20EF11CCC24C394D12C0D
:1005900094EF892E99249394A12CB12C1A8219825C
:1005A000BE016D5F7F4FC80119DE44E650E0BE0119
:1005B0006F5F7F4F80915405909155050E945A14AA
:1005C000DA82C982BE016D5F7F4FC70107DE44E654
:1005D00050E0BE016F5F7F4F8091540590915505AB
:1005E0000E945A148EE390E00E94B50FB1D460933C
:1005F000B4027093B5028093B6029093B702409014
:10060000B0025090B1026090B2027090B3026415D3
:1006100075058605970540F46093B0027093B102AA
:100620008093B2029093B3024090B0025090B10216
:100630006090B2027090B3029B01AC01241935099D
:100640004609570929013A0138EE431633E05306AB
:100650006104710408F4A2CF6093B0027093B102F8
:100660008093B2029093B30280921A0590921B0578
:10067000A0921C05B0921D0510921E0510921F0538
:10068000109220051092210580911205909113057A
:10069000A0911405B0911505809316059093170548
:1006A000A0931805B093190553D460931205709365
:1006B000130580931405909315054AD460930E0595
:1006C00070930F05809310059093110582E0EBD590
:1006D0006EE272E080914E0590914F05E3D50E9445
:1006E0004814482F50E060E070E02AE080914E0509
:1006F00090914F058FD57ED565E070E080E090E069
:10070000B7D426D460931205709313058093140513
:100710009093150543CF8C017C012CE7E20EF11C70
:100720000E94910E6C0184EF882E99249394A12C41
:10073000B12CC80184DDC70182DD0E94AF0F80911A
:100740000B0390910C03E601EC968C159D0520F4AB
:10075000CC15DD0548F404C0CC15DD0508F4A0C0B7
:100760008C179D0708F49CC00E949B0E811102C04B
:100770000E94C00BEDD36093AC027093AD028093E6
:10078000AE029093AF024090A8025090A9026090F0
:10079000AA027090AB02641575058605970540F4B2
:1007A0006093A8027093A9028093AA029093AB026F
:1007B0006E014090A8025090A9026090AA02709029
:1007C000AB029B01AC0124193509460957092901DF
:1007D0003A0138EE431633E053066104710408F41D
:1007E000A8CF6093A8027093A9028093AA02909365
:1007F000AB0280921A0590921B05A0921C05B09244
:100800001D0510921E0510921F05109220051092D2
:1008100021058091120590911305A0911405B091C6
:1008200015058093160590931705A0931805B093AE
:1008300019058ED3609312057093130580931405E8
:100840009093150585D360930E0570930F058093E3
:1008500010059093110583E026D56EE272E0809139
:100860004E0590914F051ED50E944814482F50E028
:1008700060E070E02AE080914E0590914F05CAD467
:10088000B9D465E070E080E090E0F2D361D360938A
:10089000120570931305809314059093150549CFA5
:1008A00060E0AE01481B590BCA010E94BB0D5CCF32
:1008B0008F929F92AF92BF92CF92DF92EF92FF9270
:1008C0000F931F93CF93DF93CDB7DEB7C85FD109E6
:1008D0000FB6F894DEBF0FBECDBF10925005109238
:1008E0005105109252051092530510920E05109268
:1008F0000F05109210051092110568EB7BE080E067
:1009000090E0B6D38FE694E090934F0580934E0528
:1009100040E855E260E070E0F1D31AD360930E0531
:1009200070930F05809310059093110560E372E0BA
:1009300080914E0590914F05B5D46AE070E080E05B
:1009400090E096D381E08093220540E855E260E094
:1009500070E08FE694E0D2D3D6D24B015C0188EEF2
:10096000C82E83E0D82EE12CF12CCDD2DC01CB01B6
:1009700088199909AA09BB09883E9340A105B105C8
:1009800058F021E0C21AD108E108F10888EE880E7B
:1009900083E0981EA11CB11CC114D104E104F10430
:1009A00021F762ED73E0CE010196DCDC65E373E0D4
:1009B000CE0183589F4FD6DC8091A6029091A7026A
:1009C000892B11F541E060E081E00E94F70C8C0179
:1009D000009761F0FC01138212821182108216824C
:1009E00040E050E060E070E00E945A141093A702CB
:1009F0000093A6020115110539F040E050E060E0D7
:100A000070E0C8010E945A14E12CF12C03E09E0111
:100A10002F5F3F4F48EC50E062E472E08BE893E0D8
:100A20000E94CE0F02E09E012F5F3F4F4CE251E04B
:100A300067E472E086EB92E00E94CE0F01E020E0D6
:100A400030E046E950E06FE472E084EE91E00E940D
:100A5000CE0F20E030E048EC50E067E572E08FED2B
:100A600091E00E94CE0FC850DF4F0FB6F894DEBF62
:100A70000FBECDBFDF91CF911F910F91FF90EF90EF
:100A8000DF90CF90BF90AF909F908F900895FC0122
:100A9000A089B1898C91A689B78982FD0FC09C91EC
:100AA000818D8F5F8F73228D821749F0218DDF0139
:100AB000A20FB11D5D969C93818F08958C9108952E
:100AC000089580E090E00895FC01538D448D252F1A
:100AD00030E0842F90E0821B930B541710F0CF96D8
:100AE000089501970895FC01918D828D981761F00A
:100AF000828DDF01A80FB11D5D968C91928D9F5F55
:100B00009F73928F90E008958FEF9FEF0895FC01FF
:100B1000918D828D981731F0828DE80FF11D858DB2
:100B200090E008958FEF9FEF0895FC01918D228D45
:100B3000892F90E0805C9F4F821B91098F739927CA
:100B4000089585E393E0F1DF21E0892B09F420E0AB
:100B5000822F089582ED93E0E8DF21E0892B09F4EC
:100B600020E0822F08958FE694E0DFDF21E0892BDB
:100B700009F420E0822F0895FC01848DDF01A80F85
:100B8000B11DA35ABF4F2C91848D90E001968F73B5
:100B90009927848FA689B7892C93A089B1898C91D4
:100BA00080648C93938D848D981306C00288F3899A
:100BB000E02D80818F7D80830895EF92FF920F93C7
:100BC0001F93CF93DF93EC0181E0888F9B8D8C8DF9
:100BD000981305C0E889F989808185FD23C0F62E28
:100BE0000B8D10E00F5F1F4F0F731127E02E8C8DC0
:100BF000E8120BC00FB607FCFACFE889F9898081AB
:100C000085FFF5CFCE01B8DFF2CF8B8DFE01E80F67
:100C1000F11DE35AFF4FF0820B8FEA89FB89808137
:100C2000806207C0EE89FF896083E889F989808145
:100C30008064808381E090E0DF91CF911F910F91DC
:100C4000FF90EF900895CF93DF93EC01888D882378
:100C5000C1F0EA89FB89808185FD05C0A889B98931
:100C60008C9186FD0EC00FB607FCF5CF808185FF05
:100C7000F2CFA889B9898C9185FFEDCFCE017CDFB9
:100C8000E8CFDF91CF91089580E090E0892B19F0B3
:100C90006ADF81111BC080E090E0892B19F05ADFD8
:100CA000811117C080E090E0892B19F04ADF811193
:100CB00013C080E090E0892BA1F080E090E0892BC8
:100CC00081F00E94000081110AC008950E94000076
:100CD000E2CF0E940000E6CF0E940000EACF0C9411
:100CE00000000895E091C202F091C3028081811159
:100CF00003C08FEF9FEF0CC0E091C202F091C302DE
:100D00000580F681E02D0680F781E02D82819381B8
:100D1000909306038093050308951F920F920FB6D8
:100D20000F9211240BB60F922F933F934F935F9323
:100D30006F937F938F939F93AF93BF93EF93FF93A3
:100D400085E393E019DFFF91EF91BF91AF919F9100
:100D50008F917F916F915F914F913F912F910F9064
:100D60000BBE0F900FBE0F901F9018951F920F9201
:100D70000FB60F9211240BB60F922F933F934F9300
:100D80005F936F937F938F939F93AF93BF93EF93F3
:100D9000FF9385E393E07BDEFF91EF91BF91AF91ED
:100DA0009F918F917F916F915F914F913F912F9183
:100DB0000F900BBE0F900FBE0F901F9018951F92B3
:100DC0000F920FB60F9211240BB60F922F933F93F1
:100DD0004F935F936F937F938F939F93AF93BF9343
:100DE000EF93FF9382ED93E0C7DEFF91EF91BF9108
:100DF000AF919F918F917F916F915F914F913F91B3
:100E00002F910F900BBE0F900FBE0F901F90189553
:100E10001F920F920FB60F9211240BB60F922F93C1
:100E20003F934F935F936F937F938F939F93AF9372
:100E3000BF93EF93FF9382ED93E029DEFF91EF9153
:100E4000BF91AF919F918F917F916F915F914F91E2
:100E50003F912F910F900BBE0F900FBE0F901F90E0
:100E600018951F920F920FB60F9211240BB60F9286
:100E70002F933F934F935F936F937F938F939F93A2
:100E8000AF93BF93EF93FF938FE694E075DEFF91EE
:100E9000EF91BF91AF919F918F917F916F915F91F2
:100EA0004F913F912F910F900BBE0F900FBE0F905F
:100EB0001F9018951F920F920FB60F9211240BB628
:100EC0000F922F933F934F935F936F937F938F93E3
:100ED0009F93AF93BF93EF93FF938FE694E0D7DD9B
:100EE000FF91EF91BF91AF919F918F917F916F9102
:100EF0005F914F913F912F910F900BBE0F900FBEBE
:100F00000F901F9018953FB7F8948091FD02909133
:100F1000FE02A091FF02B091000326B5A89B05C078
:100F20002F3F19F00196A11DB11D3FBFBA2FA92F68
:100F3000982F8827820F911DA11DB11DBC01CD01E5
:100F400042E0660F771F881F991F4A95D1F70895D1
:100F50002FB7F8946091F9027091FA028091FB0228
:100F60009091FC022FBF08951F920F920FB60F921F
:100F700011242F933F938F939F93AF93BF938091AF
:100F8000F9029091FA02A091FB02B091FC0230911B
:100F9000F80223E0230F2D3720F40196A11DB11D87
:100FA00005C026E8230F0296A11DB11D2093F8026B
:100FB0008093F9029093FA02A093FB02B093FC0293
:100FC0008091FD029091FE02A091FF02B09100037A
:100FD0000196A11DB11D8093FD029093FE02A09386
:100FE000FF02B0930003BF91AF919F918F913F910A
:100FF0002F910F900FBE0F901F901895279A2F9A40
:101000002FEF80E792E0215080409040E1F700C050
:1010100000001F9AF5CFCF92DF92EF92FF920F93CD
:101020001F93CF93DF936C017A018B01C0E0D0E076
:10103000CE15DF0589F0D8016D918D01D601ED91B6
:10104000FC910190F081E02DC6011995892B11F4D6
:101050007E0102C02196ECCFC701DF91CF911F9195
:101060000F91FF90EF90DF90CF9008950E947A1734
:101070008F929F92AF92BF92CF92DF92EF92FF92A8
:101080006B017C0165DF4B015C01C60ED71EE81EBB
:10109000F91E5EDF681579058A059B0528F0C616DE
:1010A000D706E806F906A8F7FF90EF90DF90CF90FB
:1010B000BF90AF909F908F9008950F931F93CF9301
:1010C000DF938C01C0E0D0E0F801EC0FFD1F6491CC
:1010D000662371F0E0916F04F09170040190F0814B
:1010E000E02D8FE694E01995892B11F02196ECCF35
:1010F000CE01DF91CF911F910F910895CF92DF9292
:10110000EF92FF920F931F93CF93DF93EC016A014D
:101110007B01E889F98982E080834115514E6105A0
:101120007105B1F060E079E08DE390E0A7019601F0
:101130000E94231689019A010150110921093109E0
:101140003695279517950795980101151041A8F038
:10115000E889F989108260E874E88EE190E0A701DF
:1011600096010E942316DA01C9010197A109B1096C
:10117000B695A795979587959C01EC85FD8530835D
:10118000EE85FF852083188EEC89FD8986E08083BB
:10119000EA89FB89808180618083EA89FB8980817B
:1011A00088608083EA89FB89808180688083EA89FE
:1011B000FB8980818F7D8083DF91CF911F910F917B
:1011C000FF90EF90DF90CF9008956115710579F051
:1011D000FB0101900020E9F73197AF01461B570B47
:1011E000DC01ED91FC910280F381E02D199480E007
:1011F00090E00895CF93DF93C0914E05D0914F05B5
:1012000066E872E0CE01E1DF6FE372E0CE01DF91CC
:10121000CF91DBCF4F925F926F927F92EF92FF92CE
:101220000F931F93CF93DF93CDB7DEB7A1970FB680
:10123000F894DEBF0FBECDBF7C01FA01CB0119A22D
:10124000223008F42AE08E010F5D1F4F422E512CF0
:10125000612C712CBF01A30192010E942316F90198
:10126000CA01015011096A3014F4605D01C0695C63
:10127000D8016C93232B242B252B61F7B801C701D0
:10128000A4DFA1960FB6F894DEBF0FBECDBFDF91ED
:10129000CF911F910F91FF90EF907F906F905F9093
:1012A0004F90089592CFBF92CF92DF92EF92FF922C
:1012B0000F931F93CF93DF93B82E4ADE6B017C010F
:1012C0000CE015E0CEE4D5E06DE872E0888199810C
:1012D000E9DF4B2D50E060E070E02AE088819981E1
:1012E00099DF64E972E088819981DCDF2AE0B70147
:1012F000A601888199818EDF66E972E088819981F3
:10130000D1DFF80186819781A085B185B701A6015B
:10131000481B590B6A0B7B0B2AE0888199817ADF85
:1013200066E972E088819981BDDFF80146815781C5
:101330006085718582859385A485B585481B590B89
:101340006A0B7B0B2AE088819981DF91CF911F91F5
:101350000F91FF90EF90DF90CF90BF905BCF0F92F7
:101360000FB6F8940F920BB60F920CB60F921F9215
:1013700011242F923F924F925F926F927F928F92A1
:101380009F92AF92BF92CF92DF92EF92FF920F9314
:101390001F932F933F934F935F936F937F938F93FD
:1013A0009F93AF93BF93CF93DF93EF93FF93A0915E
:1013B0003303B09134030DB60D920EB60D9213BEE9
:1013C000809107038111F3C080910B0390910C036E
:1013D000019690930C0380930B03009799F520914D
:1013E000C2023091C3024091C4025091C502509391
:1013F000C3024093C2023093C5022093C4022091DD
:101400000D032F5F20930D03E091C202F091C30200
:101410002081211107C02FEF3FEF30930603209367
:10142000050310C0E091C202F091C3020580F6816D
:10143000E02D0680F781E02D228133813093060371
:10144000209305032091050330910603821793072B
:1014500010F420E09CC020E019E0E091C202F0917D
:10146000C3023081311107C08FEF9FEF90930603C5
:10147000809305038CC0E091C202F091C302058005
:10148000F681E02D0680F781E02D4281538184179B
:10149000950728F4509306034093050378C0AF01E5
:1014A0004E5F5F4FA285B38564817581E680F780CA
:1014B000EB01FD82EC82C681D7817B836A83119622
:1014C0006D917C9112976417750721F41296DC9345
:1014D000CE931197138612863C9131503C933C91E8
:1014E000A489B5891097F9F066857785E088F18839
:1014F000EB01FD82EC82C089D1897B836A831196DE
:10150000ED90FC901297BF01645F7F4FE616F706DF
:1015100021F41296DC93CE931197158A148A3C918C
:1015200031503C933C91A689309132033A1710F424
:10153000A09332031A9FD0011124BD01625F7C4F3A
:101540007B01DB011196CD91DC911297D583C48389
:101550006C817D81778366836C817D81DB0113964D
:101560005C934E9312975D834C83F386E286E7018A
:1015700038813F5F3883A0913303B09134034689AB
:1015800056963C91431708F468CF21E066CFE0916E
:101590003303F0913403E689D9E0ED9FF001112483
:1015A000E25FFC4F8081823040F021E006C08091F4
:1015B000C0028F5F8093C00220E08091C102811140
:1015C00003C0222309F466C080910703882321F019
:1015D00081E08093C1025EC01092C102A0913303EA
:1015E000B0913403E0913303F09134032D913C9199
:1015F0008789908D82179307A8F08091330390918B
:1016000034038091330390913403279A2F9A2FEF5C
:1016100067EA71E6215060407040E1F700C00000C9
:101620001F9AF5CF8091320369E001C08150482FA5
:1016300050E0649F9001659F300D1124F901E25F35
:10164000FC4F9081992391F3A181B28112960D9064
:10165000BC91A02DB283A1832F5E3C4FA217B3078C
:1016600031F412962D913C9113973283218399E0A6
:10167000949FF001959FF00D1124E25FFC4F0180D3
:10168000F281E02D26813781309334032093330398
:1016900080933203A0913303B0913403CD91CDBF39
:1016A000DD91DEBFFF91EF91DF91CF91BF91AF91BF
:1016B0009F918F917F916F915F914F913F912F916A
:1016C0001F910F91FF90EF90DF90CF90BF90AF9060
:1016D0009F908F907F906F905F904F903F902F9052
:1016E0001F900F900CBE0F900BBE0F900FBE0F906F
:1016F000089535DE1895CF93DF93FC01A085B18561
:101700008281938124813581EC013D832C83C481C6
:10171000D5819B838A8311968D919C9112978E1708
:101720009F0721F41296DC93CE93119711861086B1
:101730008C9181508C938C91DF91CF910895CF93B0
:10174000DF939C01FB01DC011196CD91DC91129796
:10175000D383C2838C819D81958384838C819D8179
:10176000DC0113967C936E9312977D836C83318793
:101770002087F90180818F5F8083DF91CF91089569
:101780000F920FB6F8940F920BB60F920CB60F9201
:101790001F9211242F923F924F925F926F927F92ED
:1017A0008F929F92AF92BF92CF92DF92EF92FF9271
:1017B0000F931F932F933F934F935F936F937F9359
:1017C0008F939F93AF93BF93CF93DF93EF93FF9349
:1017D000A0913303B09134030DB60D920EB60D9265
:1017E00080910703882321F081E08093C1025EC0CD
:1017F0001092C102A0913303B0913403E0913303FE
:10180000F09134032D913C918789908D8217930735
:10181000A8F0809133039091340380913303909129
:101820003403279A2F9A2FEF87EA91E621508040C0
:101830009040E1F700C000001F9AF5CF809132037D
:1018400069E001C08150482F50E0649F9001659F7E
:10185000300D1124F901E25FFC4F9081992391F33F
:10186000A181B28112960D90BC91A02DB283A1836B
:101870002F5E3C4FA217B30731F412962D913C9185
:1018800013973283218399E0949FF001959FF00D87
:101890001124E25FFC4F0180F281E02D2681378127
:1018A000309334032093330380933203A0913303A6
:1018B000B0913403CD91CDBFDD91DEBFFF91EF91AB
:1018C000DF91CF91BF91AF919F918F917F916F9158
:1018D0005F914F913F912F911F910F91FF90EF904A
:1018E000DF90CF90BF90AF909F908F907F906F9040
:1018F0005F904F903F902F901F900F900CBE0F90D5
:101900000BBE0F900FBE0F9008950F931F93CF93B0
:10191000DF938C01FB01808191818F3F2FEF920734
:1019200021F4E801AF81B8850EC0D8011396129654
:101930002D913C911397E9014881598184179507AE
:1019400010F0D901F4CF12968D919C911397938347
:101950008283EC01FD83EC83B583A4831396FC930F
:10196000EE93129711870087F80180818F5F808343
:10197000DF91CF911F910F910895FC0103969283FF
:1019800081832FEF3FEF3483238396838583908772
:10199000878310820895CF93DF93009741F0EC0185
:1019A000DED2CE010E94E216DF91CF91C4C1DF9159
:1019B000CF9108950F931F93CF93DF931F921F92A0
:1019C000CDB7DEB789839A83CAD289819A810E9472
:1019D0004D168C01B0D10115110509F40FDBC801BA
:1019E0000F900F90DF91CF911F910F910895EF927B
:1019F000FF921F93CF93DF931F92CDB7DEB7182FBF
:101A0000662321F0869FC001112402C080E090E08F
:101A10004F966983CFDF7C016981009781F1611165
:101A200004C0FC019183808304C04F96F701918329
:101A30008083F701138F648F0FB6F8940F92208183
:101A40003181938D448D949FC0011124B901680F99
:101A5000791F73836283128E35832483841B9109DB
:101A6000820F931F978386838FEF858F868FC701A1
:101A7000089683DFC701419680DF0F900FBEC70134
:101A80000F90DF91CF911F91FF90EF900895FC018F
:101A900073836283918780874617570778F0421BCC
:101AA000530B8485958548175907C0F4BF016E5FB5
:101AB0007F4F80910103909102030DC0421753079D
:101AC00018F46217730750F4BF016E5F7F4F809167
:101AD00003039091040319DF80E0089581E00895E5
:101AE000EF92FF920F931F93CF93DF93E091030345
:101AF000F09104038081882359F10580F681E02D5F
:101B000000811181C681D7817E0182E0E80EF11C3F
:101B1000C701F1DDE989FA89CE0119958E858130F9
:101B200029F72C853D85200F311F0217130758F424
:101B30003B832A83D987C887B7018091030390919B
:101B40000403E3DED3CFB801CE010E94F915CECF56
:101B50008091010390910203909304038093030307
:101B6000F0930203E0930103DF91CF911F910F9156
:101B7000FF90EF900895EF92FF920F931F93CF93F2
:101B8000DF931F92CDB7DEB77C0100910B0310915C
:101B90000C03809133039091340302966983ABDD8B
:101BA00069818FEFE816F80691F4662381F0609161
:101BB0003303709134036E5F7F4F8DEE92E00F9090
:101BC000DF91CF911F910F91FF90EF90B8CDE00E74
:101BD000F11EE0913303F0913403F382E2826091CD
:101BE000330370913403E016F10670F48091C4025F
:101BF0009091C5026E5F7F4F0F90DF91CF911F9143
:101C00000F91FF90EF9081CE8091C2029091C3021C
:101C10006E5F7F4F7ADE8091050390910603E81690
:101C2000F90620F4F0920603E09205030F90DF918D
:101C3000CF911F910F91FF90EF900895FC01DB0170
:101C40000FB6F8940F9240910B0350910C038181D1
:101C500092812D913C9111972F3F6FEF3607F1F054
:101C600070910D036081761719F048175907C0F479
:101C7000481B590B4217530770F4241B350B2D9347
:101C80003C9380910D03808380910B0390910C0312
:101C90009283818303C01D921C9202C080E001C028
:101CA00081E00F900FBE08950F931F93CF93DF93A2
:101CB000DC011596ED91FC911697C681D7818E01B6
:101CC000045F1F4FC80117DD80910703811113C006
:101CD0000A501109C8010FDD9E89809132038917CE
:101CE00010F490933203B9E09B9FC0011124B80116
:101CF000825F9C4F03C0B80189ED92E020DDE09146
:101D00003303F09134039E898689891720F481E09A
:101D10008093C10201C080E0DF91CF911F910F91AC
:101D200008950FB6F8940F9280910B0390910C03D5
:101D30000F900FBE08958F929F92AF92BF92CF9255
:101D4000DF92EF92FF920F931F93CF93DF930FB623
:101D5000F8940F928091070381508093070380913C
:101D60000703882311F080E0EBC08091E302882311
:101D7000D1F3C0E0D0E029E0F22EEE24E39480918C
:101D8000D902882339F1E091DE02F091DF02C681A9
:101D9000D781CE010C96AFDC8E010E5F1F4FC801BC
:101DA000AADC9E8980913203891710F49093320344
:101DB000F99EC0011124B801825F9C4FC0DCE09104
:101DC0003303F09134039E8986899817C0F2E0921C
:101DD000C102D5CFCD2B11F00E947206E090C00257
:101DE000EE2009F4A6C089E0B82EAA24A394CC243E
:101DF000CA94DC2C80910703811189C0C0910B0328
:101E0000D0910C032196D0930C03C0930B03209721
:101E1000B9F48091C2029091C3022091C402309122
:101E2000C5023093C3022093C2029093C5028093EF
:101E3000C40280910D038F5F80930D030E94720690
:101E40008091050390910603F12CC817D90708F477
:101E50004EC0E091C202F091C3028081811105C0A1
:101E6000D0920603C092050342C0E091C202F091F5
:101E7000C3020580F681E02D06811781D8011296F4
:101E80008D919C911397C817D90728F49093060356
:101E9000809305032CC04801B2E08B0E911CC40155
:101EA0002ADCF80184899589892B19F0C8010C96E0
:101EB00022DCD80156968C9190913203981710F439
:101EC00080933203B89EC0011124B401825F9C4FFD
:101ED00036DCE0913303F0913403D80156969C919F
:101EE0008689981708F4B5CFFF24F394B2CFE09118
:101EF0003303F0913403E689BE9EF0011124E25FC2
:101F0000FC4F8081823048F0FF24F39406C080911A
:101F1000C0028F5F8093C002F12C8091C1028111B9
:101F200001C0F110A092C102EA94E11063CF1092B7
:101F3000C0028091C102882309F415CF21DC81E021
:101F40000F900FBEDF91CF911F910F91FF90EF90F7
:101F5000DF90CF90BF90AF909F908F900895809129
:101F600007038F5F809307030895CF93DF931F923A
:101F70001F92CDB7DEB7009711F402DC0AC0898347
:101F80009A83EDDF60E089819A81F5DDD4DE8823D4
:101F9000A1F30F900F90DF91CF9108955F926F9210
:101FA0007F928F929F92AF92BF92CF92DF92EF92E9
:101FB000FF920F931F93CF93DF93782E892E562E87
:101FC000672EEA01922E132FCA01F4DC5C01892BE3
:101FD00009F44EC188E290E0EDDC6C010097C1F09D
:101FE000DC015896BC92AE925797AE0165EA70E05C
:101FF000C5018DD72197F6018789908DC80FD91F0C
:10200000B601675E7F4FE52DF62DCF01089606C01D
:10201000C501C1DC2DC1E817F90749F09F014191C5
:10202000DB014D93BD01D9012C912111F4CFF601B3
:1020300010A2043008F003E0D60156960C93569790
:1020400091960C93919792961C9292971B961C9244
:102050001E921A9755961C921E9254971996DC92CE
:10206000CE92189784E090E0801B91091D969C9376
:102070008E931C975396DC92CE925297F60113A240
:1020800014A215A216A217A291E19883FE0131971E
:1020900082E28083319723E32083319770823197E6
:1020A00080823197108231971082319720E8208307
:1020B000319710823197108231971082319722E048
:1020C0002083319723E02083319724E020833197C8
:1020D00025E02083319726E02083319727E0208375
:1020E000319728E02083319729E02083319720E140
:1020F000208331979083319792E19083319793E1D8
:102100009083319794E19083319795E19083319753
:1021100096E19083319797E19083319798E190838E
:10212000319799E19083319790E29083319791E2D2
:10213000908331978083319783E2808331979082B7
:1021400031971083319786E28083319787E28083CD
:10215000319788E28083319789E28083319780E3E9
:102160008083319781E38083A997CD93DC93E11439
:10217000F10419F0F701D182C0820FB6F8940F92E2
:102180008091E3028F5F8093E3028091330390910B
:102190003403892B89F5D0923403C09233038091A4
:1021A000E302813009F03AC08EE093E0E6DB87E19C
:1021B00093E0E3DB80E293E0E0DB89E293E0DDDBC8
:1021C0008FEC92E0DADB86EC92E0D7DB89ED92E0EF
:1021D000D4DB84EE92E0D1DB8DEE92E0CEDB8FECAF
:1021E00092E09093C3028093C20286EC92E09093B7
:1021F000C5028093C40212C08091080381110EC0F1
:10220000E0913303F09134039689D60156968C9170
:10221000891720F0D0923403C09233038091D80202
:102220008F5F8093D802F6018689909132039817C8
:1022300010F480933203F9E08F9FC0011124B6019E
:102240006E5F7F4F825F9C4F7ADA0F900FBE809156
:102250000803882359F0E0913303F0913403968901
:10226000D60156968C91981708F48ADA81E001C05D
:102270008FEFDF91CF911F910F91FF90EF90DF9043
:10228000CF90BF90AF909F908F907F906F905F9016
:1022900008950FB6F8940F92FC01928D0F900FBE27
:1022A00081E0911180E00895EF92FF920F931F93C8
:1022B000CF93DF93EC010FB6F8940F921E8D7C0143
:1022C00081E1E80EF11C01E0111654F4898988239C
:1022D00039F0C701E9DC81110093C1021150F4CF3C
:1022E0008FEF8E8F0F900FBE0FB6F8940F921D8D4B
:1022F0007E0188E0E80EF11C01E0111654F4888597
:10230000882339F0C701D0DC81110093C10211503C
:10231000F4CF8FEF8D8F0F900FBEDF91CF911F9174
:102320000F91FF90EF900895CF93DF93CDB7DEB775
:1023300027970FB6F894DEBF0FBECDBFE091030321
:10234000F09104038081FF24F394882339F0F12C69
:102350000580F681E02D0081118102C000E010E0CF
:10236000FEDDDFDC6C018091F6029091F702C81669
:10237000D90618F4B5DB81E001C080E0D092F70205
:10238000C092F60281116CC0F1102DC0C016D106AA
:1023900090F1D1DCE0910303F09104030580F68114
:1023A000E02DE680F780C7010296A5D9D7011E96D9
:1023B0008C911E97813079F41C966D917C911D97BC
:1023C000600F711F9801A601C70161DB882319F016
:1023D000B801C7010ED4D7015196ED91FC915297E7
:1023E000C701199542C0E0910103F0910203808179
:1023F000BB24B3948111B12CE0900903F0900A033F
:102400000FB6F8940F92F701858D8F3F09F4158E62
:10241000D7015E968C915E978F3F11F45E961C9269
:102420000F900FBEF701828D811113C060913303AD
:1024300070913403645F7F4FC701419680D9B1101A
:1024400004C0C8018C199D0902C08FEF9FEF6B2D4E
:1024500092DBC70129DF6FDC811107C091D905C06C
:102460006ADC03C0898187FF0BC0BE016F5F7F4FAD
:102470008091090390910A0310D38111F3CF5ECFAD
:102480000C811D81D8011A968D919C911B97892BE7
:1024900019F0C80102962FD944DCAC018091F602F4
:1024A0009091F7024817590728F44E835F8318DB91
:1024B0005F814E815093F7024093F6028981082E86
:1024C000000C990BAA0BBB0B8A30910570F6FC012E
:1024D0008827EE58FF4F8F4FD8C32A813B81F801E0
:1024E00064857585620F731FC801D1DA882309F4EA
:1024F000BCCFD8015196ED91FC915297C801199526
:10250000F8018685813009F0B0CF648575858A81B0
:102510009B81680F791FC8016CD3A7CF6A817B812B
:10252000D8011D967C936E931C97640F751F9A01BA
:10253000C801ADDA9ACFC8012EDA97CFE5E3F3E010
:102540001382128248EE53E060E070E044835583CA
:102550006683778383E192E09183808325ED30E089
:102560003587248724ED30E03787268720ED30E05B
:10257000318B208B21ED30E0338B228B22ED30E04C
:10258000358B248B26ED30E0378B268B118E128E07
:10259000138E148EE2EDF3E013821282448355838E
:1025A00066837783918380832DEC30E035872487A1
:1025B0002CEC30E03787268728EC30E0318B208BFD
:1025C00029EC30E0338B228B2AEC30E0358B248BE6
:1025D0002EEC30E0378B268B118E128E138E148EDC
:1025E000EFE6F4E013821282448355836683778397
:1025F0009183808385EC90E09587848784EC90E0DC
:102600009787868780EC90E0918B808B81EC90E0BF
:10261000938B828B82EC90E0958B848B86EC90E0A0
:10262000978B868B118E128E138E148EECE0F5E054
:1026300016821782108611861286138614861586D6
:1026400016861786108A118A128A138A148A158AA6
:1026500040E067E182E0CBD9909355058093540523
:1026600040E067E181E0C3D990936D0580936C05EC
:102670000895789484B5826084BD84B5816084BDFA
:1026800085B5826085BD85B5816085BD80916E0010
:10269000816080936E001092810080918100826041
:1026A000809381008091810081608093810080917E
:1026B00080008160809380008091B100846080936D
:1026C000B1008091B00081608093B0008091910052
:1026D000826080939100809191008160809391004D
:1026E000809190008160809390008091A100826031
:1026F0008093A1008091A10081608093A1008091CE
:10270000A00081608093A00080912101826080936D
:10271000210180912101816080932101809120011C
:1027200081608093200180917A00846080937A0098
:1027300080917A00826080937A0080917A00816033
:1027400080937A0080917A00806880937A0010925A
:10275000C1000E9458049AE6E92E95E0F92E00E0A7
:1027600020E030E040EC50E068E972E08EE890E074
:1027700015DC813009F085C00FB6F8940F92809176
:10278000090390910A03892BD1F48FE595E0F5D8E0
:1027900086E595E0F2D88FE595E090930403809369
:1027A000030386E595E0909302038093010340E0E4
:1027B00065E08AE01CD990930A03809309030F9087
:1027C0000FBE8091090390910A03892B09F459C027
:1027D00088E6E82E85E0F82E03E020E030E045E5CD
:1027E00050E06DE972E084E991E1D8DB813009F0D5
:1027F00048C0F8942FEF3FEF309306032093050372
:102800008093080310920C0310920B03A89520EC00
:1028100088E190E00FB6F894A895809360000FBE11
:1028200020936000A0913303B0913403CD91CDBFCC
:10283000DD91DEBFFF91EF91DF91CF91BF91AF911D
:102840009F918F917F916F915F914F913F912F91C8
:102850001F910F91FF90EF90DF90CF90BF90AF90BE
:102860009F908F907F906F905F904F903F902F90B0
:102870001F900F900CBE0F900BBE0F900FBE0F90CD
:1028800008950E94FE070E9458040E944406FDCF4E
:10289000E0913303F09134030788F08DE02D80E060
:1028A00090E0DC012191253A21F40196A11DB11D92
:1028B000F9CF0895AF92BF92CF92DF92EF92FF923D
:1028C0000F931F93CF93DF9300D01F921F92CDB72A
:1028D000DEB78C017B015D834C8390E0580188E07A
:1028E000A80EB11C0FB6F8940F92F801228D838DBB
:1028F000281708F06BC0D28C448D41113FC08081F5
:102900009181892B09F051C0F801E280F380E11434
:10291000F10411F480E02EC0F70182A1815082A35E
:10292000268991A12917B1F38111F4CF5701F2E063
:10293000AF0EB11CC5010E947B0BF70191A1968BD4
:10294000492F50E024E030E0241B350B35872487E5
:1029500080913203891710F49093320329E0249F69
:10296000C001259F900D1124B501825F9C4F0E94EC
:102970009F0B81E0F8011382128218C050E0B7016A
:10298000F80184819581BAD2F801248D84819581E2
:10299000820F911D9583848322813381821793074F
:1029A00020F0808191819583848380E0D394F80125
:1029B000D28E9189992319F0C801419675D9811158
:1029C0000E94C00B0F900FBE81E057C02C813D814B
:1029D000232B19F40F900FBE4FC0911109C08091A5
:1029E0000D03898380910B0390910C039B838A8351
:1029F0000F900FBEB4DA0FB6F8940F92F801858DE0
:102A00008F3F09F4158EF801868D8F3F09F4168EDD
:102A10000F900FBEBE016C5F7F4FCE0101960ED9A5
:102A2000811127C00FB6F8940F92F801928D838D13
:102A30000F900FBE981319C0CC80DD802091330316
:102A400030913403B901645F7F4FC5010E94850C4A
:102A500061E0C60190D8C80127DC6DD9882311F048
:102A600091E040CF0E94C00BFBCFC8011DDC63D9B1
:102A7000F7CFC80119DC5FD980E00F900F900F905D
:102A80000F900F90DF91CF911F910F91FF90EF90DA
:102A9000DF90CF90BF90AF900895AF92BF92CF924A
:102AA000DF92EF92FF920F931F93CF93DF9300D0AB
:102AB0001F921F92CDB7DEB78C016B011D821C8265
:102AC00080E0580191E1A90EB11C0FB6F8940F9265
:102AD000F801F28CFF2041F1448D4423A9F050E02D
:102AE00026813781240F351F378326838281938186
:102AF0002817390720F08081918197838683F80118
:102B000066817781C601FAD1FA94F801F28E808548
:102B1000882331F0C8010896C7D881110E94C00BE4
:102B20000F900FBE81E055C02C813D81232B19F4FD
:102B30000F900FBE4DC0811109C080910D03898394
:102B400080910B0390910C039B838A830F900FBE9F
:102B500006DA0FB6F8940F92F801858D8F3F09F4CD
:102B6000158EF801868D8F3F09F4168E0F900FBEDB
:102B7000BE016C5F7F4FCE01019660D8811121C0EC
:102B8000C80187DB8823C9F0EC80FD8060913303A6
:102B900070913403645F7F4FC5010E94850C61E032
:102BA000C7010E94BB0DC8017FDBC5D8882311F087
:102BB00081E08BCF0E94C00BFBCFC80175DBBBD877
:102BC000F7CFC80171DBB7D8C80163DB882381F375
:102BD00080E00F900F900F900F900F90DF91CF91AA
:102BE0001F910F91FF90EF90DF90CF90BF90AF902B
:102BF0000895CF93DF9300D01F921F92CDB7DEB719
:102C00009C018091090390910A03009761F0198259
:102C10007B836A833D832C8320910803222329F040
:102C20002091070302C080E006C040E050E0BE01F2
:102C30006F5F7F4F3FDE0F900F900F900F900F90C0
:102C4000DF91CF910895A1E21A2EAA1BBB1BFD01B3
:102C50000DC0AA1FBB1FEE1FFF1FA217B307E4077B
:102C6000F50720F0A21BB30BE40BF50B661F771FD3
:102C7000881F991F1A9469F76095709580959095B3
:102C80009B01AC01BD01CF010895EE0FFF1F881F0E
:102C90008BBF0790F691E02D1994CF93DF9382308C
:102CA000910510F482E090E0E0917005F0917105DB
:102CB00020E030E0C0E0D0E0309711F14081518158
:102CC00048175907C0F04817590761F4828193816A
:102CD000209719F09B838A832BC090937105809372
:102CE000700526C02115310519F04217530718F455
:102CF0009A01BE01DF01EF010280F381E02DDCCFFC
:102D00002115310509F1281B390B2430310590F4C8
:102D100012968D919C9113976115710521F0FB011D
:102D20009383828304C09093710580937005FD01A5
:102D3000329644C0FD01E20FF31F8193919322501C
:102D400031092D933C933AC020916E0530916F0567
:102D5000232B41F4209102023091030230936F053E
:102D600020936E052091000230910102211531055A
:102D700041F42DB73EB74091040250910502241B47
:102D8000350BE0916E05F0916F05E217F307A0F4A3
:102D90002E1B3F0B2817390778F0AC014E5F5F4FB1
:102DA0002417350748F04E0F5F1F50936F0540936F
:102DB0006E058193919302C0E0E0F0E0CF01DF91D6
:102DC000CF9108950F931F93CF93DF93009709F44A
:102DD0008CC0FC0132971382128200917005109111
:102DE00071050115110581F420813181820F931F36
:102DF00020916E0530916F052817390779F5F0930A
:102E00006F05E0936E0571C0D80140E050E0AE1749
:102E1000BF0750F412962D913C911397AD012115E7
:102E2000310509F1D901F3CF9D01DA013383228302
:102E300060817181860F971F8217930769F4EC01F7
:102E400028813981260F371F2E5F3F4F3183208322
:102E50008A819B8193838283452B29F4F0937105AA
:102E6000E093700542C01396FC93EE931297ED0128
:102E7000499159919E01240F351FE217F30771F410
:102E800080819181840F951F029611969C938E9359
:102E90008281938113969C938E931297E0E0F0E0E9
:102EA000D80112968D919C911397009719F0F80113
:102EB0008C01F6CF8D919C9198012E5F3F4F820F30
:102EC000931F20916E0530916F052817390769F41B
:102ED000309729F4109271051092700502C0138288
:102EE000128210936F0500936E05DF91CF911F91B1
:102EF0000F91089581E090E0F8944BC0FB01DC0154
:102F000002C001900D9241505040D8F70895DC0165
:102F100001C06D9341505040E0F70895FB01DC0182
:102F20000D900020E9F7119701900D920020E1F734
:102F30000895FB01DC0101900D920020E1F7089556
:102F4000FB01DC014150504048F001900D920020FF
:102F5000C9F701C01D9241505040E0F70895FB01B0
:102F600051915523A9F0BF01DC014D914517411145
:102F7000E1F759F4CD010190002049F04D91401541
:102F80004111C9F3FB014111EFCF81E090E00197BE
:062F90000895F894FFCF44
:102F96000000720580005F02700280023E20000081
:102FA600000000DD050B08640523069505730587FB
:102FB600052000302E3030003030303030007C00BC
:102FC600564D4450565F317C315F564D4450560D38
:102FD6000A004675656C00456E7175657565004C31
:102FE6006F6753656E6400446973706C6179004D58
:102FF6006173746572204675656C2043656C6C0060
:10300600536C617665204675656C2043656C6C0073
:103016004D6F746F72005F564D44504500564D44D7
:1030260050455F003A323A0049444C4500546D72AF
:0630360020537663000048
:00000001FF
