:10000000AAC00000D9C00000D7C00000D5C00000C1
:10001000D3C00000D1C00000CFC00000CDC00000A0
:10002000CBC00000C9C00000C7C00000C5C00000B0
:100030000C943A12C1C00000BFC00000BDC0000057
:10004000BBC00000B9C00000B7C00000B5C00000D0
:10005000B3C00000B1C00000AFC00000BCC60000CB
:10006000ABC0000043C6000018C60000A5C00000D9
:10007000A3C00000A1C000009FC000009DC0000000
:100080009BC0000099C0000097C0000095C0000010
:10009000DBC50000B0C500008FC000008DC00000AF
:1000A0008BC0000089C0000087C0000085C0000030
:1000B00083C0000081C000007FC000007DC0000040
:1000C0007BC0000079C0000077C000006BC5000055
:1000D00040C5000071C000006FC000006DC000008E
:1000E0006BC00000F111F111F111BD1112121F12BC
:1000F000F111F111BD1112128091FB02882309F157
:100100000FB6F8940F92E091C102F091C202C6813D
:10011000D781CE0102960E9498098091CE0281502B
:100120008093CE028091FB0281508093FB020F905E
:100130000FBE8F89988D0E94E80ACE010E94E80ABE
:10014000DBCF80910C03823010F00E94DD0975D165
:1001500060D4D2CF3D1211241FBECFEFD1E2DEBF5B
:10016000CDBF00E00CBF25E0ACE9B2E001C01D92BC
:10017000A435B207E1F712E0A0E0B2E0EEEAFDE25A
:1001800000E00BBF02C007900D92AC39B107D9F760
:1001900010E0CBEAD0E000E006C021970109802FF3
:1001A000FE010E946315CA3AD10780E00807A9F74B
:1001B0000E94CF0C0C94D51623CF6F927F928F9212
:1001C0009F92AF92BF92CF92DF92EF92FF920F93E6
:1001D0001F93CF93DF93EC018C010A591F4F888145
:1001E0009981DC01ED91FC910084F185E02D199558
:1001F000892BB9F0D801FC90B2E6BF1590F081E0F0
:100200008F0DF801808388819981DC01ED91FC914B
:100210000284F385E02D1995FE01EF0DF11D828317
:10022000DECFF8018081FE01E80FF11D128266E049
:1002300072E0CE0102960E94BB163C01009709F4C1
:1002400091C0FC0101900020E9F73197E81BF90B00
:100250007997A0F480E0282F30E0F301E20FF31F3C
:100260009081FE01E20FF31F928321E0280F992372
:1002700011F0822FF0CFF801808376C04E01FCE6AA
:100280008F0E911CBC016E5F7F4F44E050E0C401B3
:100290000E94AC165E0127E6A20EB11CB301685F96
:1002A0007F4F44E050E0C5010E94AC166E0181E72B
:1002B000C80ED11CB301625F7F4F44E050E0C6011D
:1002C0000E94AC167E01A6E7EA0EF11CB3016C5E3B
:1002D0007F4F45E050E0C7010E94AC16FE01E55893
:1002E000FF4F1082369710823A971082359610820F
:1002F00088819981B3E08E3C9B0719F46BE172E031
:1003000005C08153934029F462E272E08BE694E0E9
:100310000DD469E272E08BE694E01AD4B4018BE666
:1003200094E004D460E372E08BE694E011D4B5016C
:100330008BE694E0FBD366E372E08BE694E008D4AE
:10034000B6018BE694E0F2D36DE372E08BE694E0C5
:10035000FFD3B7018BE694E0E9D365E472E08BE666
:1003600094E0E4D3D8011C92DF91CF911F910F91BB
:10037000FF90EF90DF90CF90BF90AF909F908F90C5
:100380007F906F900895CF93DF93CDB7DEB7CC57B2
:10039000D1090FB6F894DEBF0FBECDBF81E393E065
:1003A0009A838983A8961FAEA89740E05BE460E03B
:1003B00070E068D5CE01019600DF8091A402909193
:1003C000A5020E94B913813041F460E070E0809191
:1003D000A4029091A5020E94D3120E94C812EACFF3
:1003E000CF93DF93CDB7DEB7CC57D1090FB6F894D2
:1003F000DEBF0FBECDBF8EEC93E09A838983A896B3
:100400001FAEA89740E05BE460E070E03BD5CE0112
:100410000196D3DE8091A4029091A5020E94B913A7
:10042000813041F460E070E08091A4029091A502D7
:100430000E94D3120E94C812EACFCF92DF92EF92AD
:10044000FF92BDD4672B682B692B39F4B8D4623086
:1004500071058105910508F4F7C0B1D46093A0023D
:100460007093A1028093A2029093A302C0909C0279
:10047000D0909D02E0909E02F0909F026C157D0549
:100480008E059F0540F460939C0270939D028093BB
:100490009E0290939F02C0909C02D0909D02E0909B
:1004A0009E02F0909F029B01AC012C193D094E0960
:1004B0005F0969017A013AEFC316D104E104F1043E
:1004C00008F4C2C060939C0270939D0280939E02C8
:1004D00090939F0284EF91E0A0E0B0E08093160536
:1004E00090931705A0931805B093190510921A055B
:1004F00010921B0510921C0510921D0580910E058F
:1005000090910F05A0911005B091110580931205EF
:1005100090931305A0931405B093150550D46093E0
:100520000E0570930F05809310059093110547D425
:1005300060930A0570930B0580930C0590930D054D
:100540003ED46B017C016CE472E080914A0590918D
:100550004B05FED22AE041E050E060E070E080917F
:100560004A0590914B059AD263E572E080914A0565
:1005700090914B05EDD22AE0B701A60180914A0582
:1005800090914B058BD260E272E080914A05909188
:100590004B05DED280910E0590910F05A0911005BC
:1005A000B0911105B701A601481B590B6A0B7B0BD3
:1005B0002AE080914A0590914B0570D260E272E08A
:1005C00080914A0590914B05C3D240910E05509100
:1005D0000F056091100570911105809112059091A1
:1005E0001305A0911405B0911505481B590B6A0B12
:1005F0007B0B2AE080914A0590914B054FD267E52D
:1006000072E080914A0590914B05A2D2D8D3AB01FC
:10061000BC012AE080914A0590914B053FD269E5E3
:1006200072E080914A0590914B0580D265E070E0C0
:1006300080E090E08ED4C3D360930E0570930F05D5
:100640008093100590931105FF90EF90DF90CF906D
:1006500008958F929F92AF92BF92CF92DF92EF92C6
:10066000FF920F931F93CF93DF9310924C0510923C
:100670004D0510924E0510924F0510920A051092EA
:100680000B0510920C0510920D0568EB7BE080E0E5
:1006900090E05FD48BE694E090934B0580934A05FD
:1006A00040E855E260E070E0EDD389D360930A053D
:1006B00070930B0580930C0590930D0560E672E036
:1006C00080914A0590914B0543D26AE070E080E04A
:1006D00090E03FD481E080931E0540E855E260E061
:1006E00070E08BE694E0CED345D34B015C0188EEFD
:1006F000C82E83E0D82EE12CF12C3CD3DC01CB01B9
:1007000088199909AA09BB09883E9340A105B1053A
:1007100058F021E0C21AD108E108F10888EE880EED
:1007200083E0981EA11CB11CC114D104E104F104A2
:1007300021F78091A4029091A502892B19F58FE1F0
:1007400090E055D7EC01009791F09983888381E080
:100750008B8F1C8ECE010E947D0C1B821A82198207
:1007600018821E8260E070E0CE010E94D312D09306
:10077000A502C093A402209729F060E070E0CE01AA
:100780000E94D31200E010E021E040E051E062E777
:1007900072E080EF91E048D721E040E051E06FE760
:1007A00072E083EC91E040D7DF91CF911F910F91E0
:1007B000FF90EF90DF90CF90BF90AF909F908F9081
:1007C0000895CF92DF92EF92FF920F931F93CF93F2
:1007D000DF936C017A018B01C0E0D0E0CE15DF051C
:1007E00089F0D8016D918D01D601ED91FC910190B8
:1007F000F081E02DC6011995892B11F47E0102C00C
:100800002196ECCFC701DF91CF911F910F91FF90FF
:10081000EF90DF90CF900895FC01A089B1898C9171
:10082000A689B78982FD0FC09C91818D8F5F8F73E0
:10083000228D821749F0218DDF01A20FB11D5D9637
:100840009C93818F08958C910895089580E090E0A5
:100850000895FC01538D448D252F30E0842F90E0C6
:10086000821B930B541710F0CF96089501970895AB
:10087000FC01918D828D981761F0828DDF01A80FA8
:10088000B11D5D968C91928D9F5F9F73928F90E0CA
:1008900008958FEF9FEF0895FC01918D828D981739
:1008A00031F0828DE80FF11D858D90E008958FEF76
:1008B0009FEF0895FC01918D228D892F90E0805C3F
:1008C0009F4F821B91098F739927089581E393E0CD
:1008D000F1DF21E0892B09F420E0822F08958EECCE
:1008E00093E0E8DF21E0892B09F420E0822F0895CE
:1008F0008BE694E0DFDF21E0892B09F420E0822FF2
:100900000895FC01848DDF01A80FB11DA35ABF4FCC
:100910002C91848D90E001968F739927848FA689FE
:10092000B7892C93A089B1898C9180648C93938D25
:10093000848D981306C00288F389E02D80818F7D15
:1009400080830895EF92FF920F931F93CF93DF93CD
:10095000EC0181E0888F9B8D8C8D981305C0E88910
:10096000F989808185FD23C0F62E0B8D10E00F5F85
:100970001F4F0F731127E02E8C8DE8120BC00FB69E
:1009800007FCFACFE889F989808185FFF5CFCE0190
:10099000B8DFF2CF8B8DFE01E80FF11DE35AFF4F58
:1009A000F0820B8FEA89FB898081806207C0EE8923
:1009B000FF896083E889F98980818064808381E090
:1009C00090E0DF91CF911F910F91FF90EF900895EC
:1009D000CF93DF93EC01888D8823C1F0EA89FB89EE
:1009E000808185FD05C0A889B9898C9186FD0EC0DE
:1009F0000FB607FCF5CF808185FFF2CFA889B989B2
:100A00008C9185FFEDCFCE017CDFE8CFDF91CF91D8
:100A1000089580E090E0892B19F06ADF81111BC0F6
:100A200080E090E0892B19F05ADF811117C080E037
:100A300090E0892B19F04ADF811113C080E090E02B
:100A4000892BA1F080E090E0892B81F00E940000CA
:100A500081110AC008950E940000E2CF0E940000A8
:100A6000E6CF0E940000EACF0C94000008950E9497
:100A700098166115710579F0FB0101900020E9F7E6
:100A80003197AF01461B570BDC01ED91FC910280C1
:100A9000F381E02D199480E090E008954F925F92E9
:100AA0006F927F92EF92FF920F931F93CF93DF93FA
:100AB000CDB7DEB7A1970FB6F894DEBF0FBECDBF9E
:100AC0007C01FA01CB0119A2223008F42AE08E0140
:100AD0000F5D1F4F422E512C612C712CBF01A301C1
:100AE00092010E944115F901CA01015011096A30B1
:100AF00014F4605D01C0695CD8016C93232B242B36
:100B0000252B61F7B801C701B4DFA1960FB6F894A1
:100B1000DEBF0FBECDBFDF91CF911F910F91FF9030
:100B2000EF907F906F905F904F9008950F931F9379
:100B3000CF93DF93EC019DDF8C016FE672E0CE0175
:100B400098DF800F911FDF91CF911F910F91089532
:100B500090CF1F920F920FB60F9211240BB60F92E7
:100B60002F933F934F935F936F937F938F939F93B5
:100B7000AF93BF93EF93FF9381E393E0C2DEFF91C6
:100B8000EF91BF91AF919F918F917F916F915F9105
:100B90004F913F912F910F900BBE0F900FBE0F9072
:100BA0001F9018951F920F920FB60F9211240BB63B
:100BB0000F922F933F934F935F936F937F938F93F6
:100BC0009F93AF93BF93EF93FF9381E393E024DE72
:100BD000FF91EF91BF91AF919F918F917F916F9115
:100BE0005F914F913F912F910F900BBE0F900FBED1
:100BF0000F901F9018951F920F920FB60F9211240D
:100C00000BB60F922F933F934F935F936F937F9306
:100C10008F939F93AF93BF93EF93FF938EEC93E0EB
:100C200070DEFF91EF91BF91AF919F918F917F9176
:100C30006F915F914F913F912F910F900BBE0F904D
:100C40000FBE0F901F9018951F920F920FB60F9224
:100C500011240BB60F922F933F934F935F936F9393
:100C60007F938F939F93AF93BF93EF93FF938EECFC
:100C700093E0D2DDFF91EF91BF91AF919F918F9162
:100C80007F916F915F914F913F912F910F900BBE8C
:100C90000F900FBE0F901F9018951F920F920FB6D6
:100CA0000F9211240BB60F922F933F934F935F93A4
:100CB0006F937F938F939F93AF93BF93EF93FF9324
:100CC0008BE694E01EDEFF91EF91BF91AF919F9173
:100CD0008F917F916F915F914F913F912F910F90E5
:100CE0000BBE0F900FBE0F901F9018951F920F9282
:100CF0000FB60F9211240BB60F922F933F934F9381
:100D00005F936F937F938F939F93AF93BF93EF9373
:100D1000FF938BE694E080DDFF91EF91BF91AF915F
:100D20009F918F917F916F915F914F913F912F9103
:100D30000F900BBE0F900FBE0F901F901895E09173
:100D4000B102F091B2028081811103C08FEF9FEF59
:100D50000CC0E091B102F091B2020580F681E02D65
:100D60000680F781E02D828193819093AB0280937E
:100D7000AA0208953FB7F894809103039091040369
:100D8000A0910503B091060326B5A89B05C02F3F8F
:100D900019F00196A11DB11D3FBFBA2FA92F982FA1
:100DA0008827820F911DA11DB11DBC01CD0142E01C
:100DB000660F771F881F991F4A95D1F708952FB79F
:100DC000F8946091FF02709100038091010390916B
:100DD00002032FBF08951F920F920FB60F92112496
:100DE0002F933F938F939F93AF93BF938091FF0275
:100DF00090910003A0910103B09102033091FE0293
:100E000023E0230F2D3720F40196A11DB11D05C04D
:100E100026E8230F0296A11DB11D2093FE028093A8
:100E2000FF0290930003A0930103B093020380910B
:100E3000030390910403A0910503B091060301966A
:100E4000A11DB11D8093030390930403A093050398
:100E5000B0930603BF91AF919F918F913F912F91D6
:100E60000F900FBE0F901F901895279A2F9A2FEF73
:100E700080E792E0215080409040E1F700C0000000
:100E80001F9AF5CFCF92DF92EF92FF920F931F93AD
:100E9000CF93DF93EC016A017B01E889F98982E055
:100EA00080834115514E61057105B1F060E079E034
:100EB0008DE390E0A70196010E94411589019A01F6
:100EC0000150110921093109369527951795079584
:100ED000980101151041A8F0E889F989108260E8AD
:100EE00074E88EE190E0A70196010E944115DA01B5
:100EF000C9010197A109B109B695A795979587955D
:100F00009C01EC85FD853083EE85FF852083188E5E
:100F1000EC89FD8986E08083EA89FB898081806194
:100F20008083EA89FB89808188608083EA89FB89E4
:100F3000808180688083EA89FB8980818F7D8083BE
:100F4000DF91CF911F910F91FF90EF90DF90CF90A5
:100F500008958F929F92AF92BF92CF92DF92EF92BD
:100F6000FF926B017C012BDF4B015C01C60ED71E8B
:100F7000E81EF91E24DF681579058A059B0528F00F
:100F8000C616D706E806F906A8F7FF90EF90DF909F
:100F9000CF90BF90AF909F908F9008950F920FB613
:100FA000F8940F920BB60F920CB60F921F92112469
:100FB0002F923F924F925F926F927F928F929F9269
:100FC000AF92BF92CF92DF92EF92FF920F931F9357
:100FD0002F933F934F935F936F937F938F939F9341
:100FE000AF93BF93CF93DF93EF93FF93A09107034A
:100FF000B09108030DB60D920EB60D9213BE8091FE
:10100000AC028111F3C08091090390910A0301960B
:1010100090930A0380930903009799F52091B102F8
:101020003091B2024091AF025091B0025093B2029F
:101030004093B1023093B0022093AF0220910B0392
:101040002F5F20930B03E091B102F091B202208157
:10105000211107C02FEF3FEF3093AB022093AA027C
:1010600010C0E091B102F091B2020580F681E02D4E
:101070000680F781E02D228133813093AB022093EB
:10108000AA022091AA023091AB028217930710F4B2
:1010900020E09CC020E019E0E091B102F091B202A2
:1010A0003081311107C08FEF9FEF9093AB02809397
:1010B000AA028CC0E091B102F091B2020580F681E3
:1010C000E02D0680F781E02D42815381841795073A
:1010D00028F45093AB024093AA0278C0AF014E5F50
:1010E0005F4FA285B38564817581E680F780EB014F
:1010F000FD82EC82C681D7817B836A8311966D91D4
:101100007C9112976417750721F41296DC93CE93A5
:101110001197138612863C9131503C933C91A489DF
:10112000B5891097F9F066857785E088F188EB013D
:10113000FD82EC82C089D1897B836A831196ED9010
:10114000FC901297BF01645F7F4FE616F70621F40B
:101150001296DC93CE931197158A148A3C913150E4
:101160003C933C91A689309130033A1710F4A09338
:1011700030031A9FD0011124BD01645F7C4F7B01B5
:10118000DB011196CD91DC911297D583C4836C81DC
:101190007D81778366836C817D81DB0113965C930F
:1011A0004E9312975D834C83F386E286E701388184
:1011B0003F5F3883A0910703B09108034689569694
:1011C0003C91431708F468CF21E066CFE091070314
:1011D000F0910803E689D9E0ED9FF0011124E45F66
:1011E000FC4F8081823040F021E006C08091F902FE
:1011F0008F5F8093F90220E08091FA02811103C091
:10120000222309F466C08091AC02882321F081E09A
:101210008093FA025EC01092FA02A0910703B09187
:101220000803E0910703F09108032D913C91878911
:10123000908D82179307A8F080910703909108037F
:101240008091070390910803279A2F9A2FEF67EA5E
:1012500071E6215060407040E1F700C000001F9A25
:10126000F5CF8091300369E001C08150482F50E0F4
:10127000649F9001659F300D1124F901E45FFC4FDC
:101280009081992391F3A181B28112960D90BC9126
:10129000A02DB283A183215F3C4FA217B30731F485
:1012A00012962D913C9113973283218399E0949F5C
:1012B000F001959FF00D1124E45FFC4F0180F28155
:1012C000E02D268137813093080320930703809314
:1012D0003003A0910703B0910803CD91CDBFDD91FC
:1012E000DEBFFF91EF91DF91CF91BF91AF919F91C1
:1012F0008F917F916F915F914F913F912F911F91AE
:101300000F91FF90EF90DF90CF90BF90AF909F90A4
:101310008F907F906F905F904F903F902F901F9095
:101320000F900CBE0F900BBE0F900FBE0F90089544
:10133000CF93DF93FC01A085B185828193812481C5
:101340003581EC013D832C83C481D5819B838A83C5
:1013500011968D919C9112978E179F0721F41296EA
:10136000DC93CE931197118610868C9181508C93CB
:101370008C91DF91CF910895CF93DF939C01FB0176
:10138000DC011196CD91DC911297D383C2838C81BD
:101390009D81958384838C819D81DC0113967C9350
:1013A0006E9312977D836C8331872087F90180814A
:1013B0008F5F8083DF91CF9108950F920FB6F894DD
:1013C0000F920BB60F920CB60F921F9211242F9210
:1013D0003F924F925F926F927F928F929F92AF92C5
:1013E000BF92CF92DF92EF92FF920F931F932F93B2
:1013F0003F934F935F936F937F938F939F93AF939D
:10140000BF93CF93DF93EF93FF93A0910703B09126
:1014100008030DB60D920EB60D928091AC02882392
:1014200021F081E08093FA025EC01092FA02A0914E
:101430000703B0910803E0910703F09108032D9191
:101440003C918789908D82179307A8F080910703BC
:10145000909108038091070390910803279A2F9A8F
:101460002FEF87EA91E6215080409040E1F700C0DD
:1014700000001F9AF5CF8091300369E001C08150D0
:10148000482F50E0649F9001659F300D1124F901B1
:10149000E45FFC4F9081992391F3A181B281129670
:1014A0000D90BC91A02DB283A183215F3C4FA21768
:1014B000B30731F412962D913C9113973283218317
:1014C00099E0949FF001959FF00D1124E45FFC4F8B
:1014D0000180F281E02D268137813093080320932B
:1014E000070380933003A0910703B0910803CD91C7
:1014F000CDBFDD91DEBFFF91EF91DF91CF91BF9125
:10150000AF919F918F917F916F915F914F913F919B
:101510002F911F910F91FF90EF90DF90CF90BF9090
:10152000AF909F908F907F906F905F904F903F9083
:101530002F901F900F900CBE0F900BBE0F900FBE00
:101540000F9008950F931F93CF93DF938C01FB01AE
:10155000808191818F3F2FEF920721F4E801AF81C5
:10156000B8850EC0D801139612962D913C91139711
:10157000E901488159818417950710F0D901F4CF0A
:1015800012968D919C91139793838283EC01FD8336
:10159000EC83B583A4831396FC93EE931297118783
:1015A0000087F80180818F5F8083DF91CF911F9149
:1015B0000F910895FC010396928381832FEF3FEFF3
:1015C000348323839683858390878783108208954D
:1015D000CF93DF93009741F0EC016BD5CE010E94D1
:1015E0000016DF91CF9151C4DF91CF9108950F93F1
:1015F0001F93CF93DF931F921F92CDB7DEB78983DE
:101600009A8357D589819A810E946B158C013DD4AC
:101610000115110509F429DCC8010F900F90DF9125
:10162000CF911F910F9108957F928F929F92AF92C9
:10163000BF92CF92DF92EF92FF920F931F93CF93BF
:10164000DF93982EC92E762E872EEA01D22ECA015C
:10165000CEDF5C01892B09F441C188E290E0C7DF4D
:101660007C010097D9F0DC015896BC92AE92579756
:10167000AE0165EA70E0C5010E94A5162197D70169
:101680005796ED91FC915897EC0FFD1FB701675EDF
:101690007F4FA72DB82DCD01089606C0C50198DF54
:1016A0001DC1A817B90749F09D014D91EB01499360
:1016B000BE01E90128812111F4CFD70190961C9237
:1016C0002D2D243008F023E0E7012E8B29A31AA248
:1016D0001B861A861D8A1C8AF986E88684E090E0BB
:1016E000821B91099D878C87FB8AEA8A1BA21CA218
:1016F0001DA21EA21FA291E19083DF01119782E239
:101700008C93119723E32C9311979C921197CC9271
:1017100011971C9211971C92119720E82C93119706
:101720001C9211971C9211971C92119722E02C93F6
:10173000119723E02C93119724E02C93119725E027
:101740002C93119726E02C93119727E02C93119757
:1017500028E02C93119729E02C93119720E12C93EA
:1017600011979C93119792E19C93119793E19C930D
:10177000119794E19C93119795E19C93119796E1B1
:101780009C93119797E19C93119798E19C931197E3
:1017900099E19C93119790E29C93119791E29C930D
:1017A00011978C93119783E28C9311971C92119748
:1017B0001C92119786E28C93119787E28C93119774
:1017C00088E28C93119789E28C93119780E38C9334
:1017D000119781E38C93B997F983E883011511057B
:1017E00019F0F801F182E0820FB6F8940F9280911F
:1017F000CE028F5F8093CE02809107039091080301
:10180000892B89F5F0920803E09207038091CE02BC
:10181000813009F03AC08CE093E0CCDE85E193E0C2
:10182000C9DE8EE193E0C6DE87E293E0C3DE8EEE92
:1018300092E0C0DE85EE92E0BDDE85EC92E0BADE9D
:101840008CEB92E0B7DE83EB92E0B4DE8EEE92E0BA
:101850009093B2028093B10285EE92E09093B00231
:101860008093AF0212C08091F80281110EC0E09106
:101870000703F09108039689D70156968C91891732
:1018800020F0F0920803E09207038091F7028F5F47
:101890008093F702E7018E8990913003981710F436
:1018A00080933003D9E08D9FC0011124B7016E5F92
:1018B0007F4F845F9C4F60DD0F900FBE8091F802D8
:1018C000882351F0E0910703F09108039689F7010E
:1018D0008689981708F471DD81E001C08FEFDF91F0
:1018E000CF911F910F91FF90EF90DF90CF90BF901D
:1018F000AF909F908F907F900895CF93DF93EC01EE
:101900000FB6F8940F92288139819B8D4C8D949F4E
:10191000C0011124B901680F791F7B836A831A8E75
:101920003D832C83841B9109820F931F9F838E8399
:101930008FEF8D8F8E8FCE0108963CDECE014196C3
:1019400039DE0F900FBE81E0DF91CF910895CF93E4
:10195000DF9300D01F921F92CDB7DEB79C0180911C
:10196000AD029091AE02009761F019827B836A8389
:101970003D832C832091F802222329F02091AC0290
:1019800002C080E004C0BE016F5F7F4F0CD60F9095
:101990000F900F900F900F90DF91CF910895789452
:1019A00084B5826084BD84B5816084BD85B5826064
:1019B00085BD85B5816085BD80916E008160809315
:1019C0006E0010928100809181008260809381007E
:1019D000809181008160809381008091800081608E
:1019E000809380008091B10084608093B1008091E9
:1019F000B00081608093B0008091910082608093FC
:101A0000910080919100816080939100809190007D
:101A10008160809390008091A10082608093A100FA
:101A20008091A10081608093A1008091A0008160DD
:101A30008093A00080912101826080932101809198
:101A40002101816080932101809120018160809338
:101A5000200180917A00846080937A0080917A00DE
:101A6000826080937A0080917A00816080937A000E
:101A700080917A00806880937A001092C1000E9461
:101A8000290303EE12E020E040EC50E06EE872E043
:101A90008CE790E0C9DD813009F08CC00FB6F89476
:101AA0000F928091AD029091AE02892B29F588EDBD
:101AB00092E080DD8FEC92E07DDD88ED92E0909306
:101AC000A9028093A8028FEC92E09093A7028093E2
:101AD000A60281E590E08BDDEC01009749F04F967E
:101AE000998388838AE08B8F85E08C8FCE0105DF18
:101AF000D093AE02C093AD020F900FBE8091AD02A5
:101B00009091AE02892B09F455C001EE12E023E05A
:101B100045E550E063E972E08AEA90E185DD8130D5
:101B200009F048C0F8942FEF3FEF3093AB022093B9
:101B3000AA028093F80210920A0310920903A89552
:101B400020EC88E190E00FB6F894A89580936000AF
:101B50000FBE20936000A0910703B0910803CD91C0
:101B6000CDBFDD91DEBFFF91EF91DF91CF91BF91AE
:101B7000AF919F918F917F916F915F914F913F9125
:101B80002F911F910F91FF90EF90DF90CF90BF901A
:101B9000AF909F908F907F906F905F904F903F900D
:101BA0002F901F900F900CBE0F900BBE0F900FBE8A
:101BB0000F9008955AD90E9429030E941D020E9485
:101BC0000905FBCF0FB6F8940F928091090390910D
:101BD0000A030F900FBE0895FC01738362839187FF
:101BE00080874617570778F0421B530B84859585ED
:101BF00048175907C0F4BF016E5F7F4F8091A6025E
:101C00009091A7020DC04217530718F4621773078B
:101C100050F4BF016E5F7F4F8091A8029091A9029E
:101C200091DC80E0089581E00895EF92FF920F9398
:101C30001F93CF93DF93E091A802F091A9028081D6
:101C4000882351F10580F681E02D00811181C68144
:101C5000D7817E0182E0E80EF11CC70169DBE989CA
:101C6000FA89CE0119958E85813029F72C853D851D
:101C7000200F311F0217130758F43B832A83D9879B
:101C8000C887B7018091A8029091A9025BDCD3CFED
:101C9000B801CE015CDECFCF8091A6029091A70261
:101CA0009093A9028093A802F093A702E093A60262
:101CB000DF91CF911F910F91FF90EF900895EF92D8
:101CC000FF920F931F93CF93DF931F92CDB7DEB791
:101CD0007C010091090310910A0380910703909100
:101CE00008030296698324DB69818FEFE816F80602
:101CF00091F4662381F060910703709108036E5F91
:101D00007F4F83EB92E00F90DF91CF911F910F9166
:101D1000FF90EF9031CBE00EF11EE0910703F091C0
:101D20000803F382E2826091070370910803E016D2
:101D3000F10670F48091AF029091B0026E5F7F4F18
:101D40000F90DF91CF911F910F91FF90EF90FACB01
:101D50008091B1029091B2026E5F7F4FF3DB809170
:101D6000AA029091AB02E816F90620F4F092AB02B9
:101D7000E092AA020F90DF91CF911F910F91FF90F7
:101D8000EF900895FC01DB010FB6F8940F9240919B
:101D9000090350910A03818192812D913C91119701
:101DA0002F3F6FEF3607F1F070910B0360817617CC
:101DB00019F048175907C0F4481B590B421753072D
:101DC00070F4241B350B2D933C9380910B0380837F
:101DD0008091090390910A039283818303C01D922D
:101DE0001C9202C080E001C081E00F900FBE0895F8
:101DF0000F931F93CF93DF93DC011596ED91FC9128
:101E00001697C681D7818E01045F1F4FC80190DAF3
:101E10008091AC02811113C00A501109C80188DAFF
:101E20009E8980913003891710F490933003B9E0B4
:101E30009B9FC0011124B801845F9C4F03C0B8016F
:101E400085EC92E099DAE0910703F09108039E890E
:101E50008689891720F481E08093FA0201C080E02E
:101E6000DF91CF911F910F910895CF93DF93EB01F5
:101E70002091070330910803B901645F7F4F62DB53
:101E800061E0CE01DF91CF911ACF8F929F92AF92F6
:101E9000BF92CF92DF92EF92FF920F931F93CF9357
:101EA000DF930FB6F8940F928091AC02815080932B
:101EB000AC028091AC02882311F080E0EBC08091ED
:101EC000CE028823D1F3C0E0D0E029E0F22EEE2448
:101ED000E3948091C502882339F1E091CA02F09120
:101EE000CB02C681D781CE010C9622DA8E010E5F1D
:101EF0001F4FC8011DDA9E8980913003891710F4A5
:101F000090933003F99EC0011124B801845F9C4F67
:101F100033DAE0910703F09108039E8986899817C8
:101F2000C0F2E092FA02D5CFCD2B11F00E949F06AD
:101F3000E090F902EE2009F4A6C089E0B82EAA24A8
:101F4000A394CC24CA94DC2C8091AC02811189C06A
:101F5000C0910903D0910A032196D0930A03C0933C
:101F600009032097B9F48091B1029091B2022091B7
:101F7000AF023091B0023093B2022093B10290933D
:101F8000B0028093AF0280910B038F5F80930B03AD
:101F90000E949F068091AA029091AB02F12CC81773
:101FA000D90708F44EC0E091B102F091B2028081ED
:101FB000811105C0D092AB02C092AA0242C0E0914A
:101FC000B102F091B2020580F681E02D0681178101
:101FD000D80112968D919C911397C817D90728F4B0
:101FE0009093AB028093AA022CC04801B2E08B0E02
:101FF000911CC4019DD9F80184899589892B19F018
:10200000C8010C9695D9D80156968C9190913003C1
:10201000981710F480933003B89EC0011124B401C6
:10202000845F9C4FA9D9E0910703F0910803D80180
:1020300056969C918689981708F4B5CFFF24F3949F
:10204000B2CFE0910703F0910803E689BE9EF0014C
:102050001124E45FFC4F8081823048F0FF24F39428
:1020600006C08091F9028F5F8093F902F12C809174
:10207000FA02811101C0F110A092FA02EA94E11073
:1020800063CF1092F9028091FA02882309F415CFE8
:1020900094D981E00F900FBEDF91CF911F910F91E6
:1020A000FF90EF90DF90CF90BF90AF909F908F9078
:1020B00008958091AC028F5F8093AC0208950FB6B3
:1020C000F8940F92FC01928D0F900FBE81E0911158
:1020D00080E00895EF92FF920F931F93CF93DF93C9
:1020E000EC010FB6F8940F921E8D7C0181E1E80E91
:1020F000F11C01E0111654F48989882339F0C701D5
:1021000077DE81110093FA021150F4CF8FEF8E8F9A
:102110000F900FBE0FB6F8940F921D8D7E0188E0D0
:10212000E80EF11C01E0111654F48885882339F07B
:10213000C7015EDE81110093FA021150F4CF8FEFD8
:102140008D8F0F900FBEDF91CF911F910F91FF9058
:10215000EF900895CF93DF93CDB7DEB72C970FB6EE
:10216000F894DEBF0FBECDBFE091A802F091A902A6
:102170008081FF24F394882339F0F12C0580F681C7
:10218000E02D0081118102C000E010E092DF1ADD35
:102190006C018091FC029091FD02C816D90618F4DA
:1021A00044DD81E001C080E0D092FD02C092FC02DB
:1021B00081116CC0F1102DC0C016D10690F165DE02
:1021C000E091A802F091A9020580F681E02DE68059
:1021D000F780C7010296ACD8D7011E968C911E9746
:1021E000813079F41C966D917C911D97600F711F61
:1021F0009801A601C701F0DC882319F0B801C701D6
:10220000A6DBD7015196ED91FC915297C701199524
:10221000B4C0E091A602F091A7028081BB24B394E0
:102220008111B12CE090AD02F090AE020FB6F8949F
:102230000F92F701858D8F3F09F4158ED7015E96B9
:102240008C915E978F3F11F45E961C920F900FBE9B
:10225000F701828D811113C060910703709108030B
:10226000645F7F4FC701419687D8B11004C0C80191
:102270008C199D0902C08FEF9FEF6B2D20DDC701E8
:1022800029DF03DE811179C098D877C0FEDD75C0E3
:10229000911109C080910B038E8380910903909165
:1022A0000A0398878F830F900FBE03DF0FB6F89451
:1022B0000F92D8015D968C915D978F3F11F45D96DA
:1022C0001C92F801868D8F3F09F4168E0F900FBE79
:1022D000BE01675F7F4FCE01069654DD8111C1C0FC
:1022E000C801EDDE882309F4B8C069857A85C60186
:1022F000BCDDC801EFDEC9DD882309F4ABC091E085
:102300000FB6F8940F92F801F28CFF2009F49AC0EE
:10231000448D41113EC0FA94F801F28E80858111FE
:1023200051C00F900FBEF980F7FC27C00C811D81B2
:10233000D8011A968D919C911B97892B21F0C80189
:1023400002960E9498093EDCAC018091FC029091BB
:10235000FD024817590728F44B875C8766DC5C85CB
:102360004B855093FD024093FC028F2DFF0C990B7F
:10237000AA0BBB0B8A30910570F10091AD02109150
:10238000AE021A86198690E06801B1E1CB0ED11C2D
:10239000B7CF50E086819781840F951F97838683FE
:1023A000228133818217930720F080819181978366
:1023B0008683D80116966D917C911797CE01019670
:1023C000BBD4A9CFC801089613DD882309F4A9CF8F
:1023D0000E94DD09A6CFFC018827EE58FF4F8F4FE2
:1023E00072C3EA80FB80F801648575856E0D7F1DE0
:1023F0009701C801F1DB882309F4BFCFD8015196BA
:10240000ED91FC915297C8011995F80186858130AC
:1024100009F0B3CF84859585B701680F791FC8018E
:1024200096DAABCF6A817B81D8011D967C936E933F
:102430001C97640F751F9A01C801CEDB9ECFC8019F
:10244000C7D89BCF29853A85232B09F021CF0F9040
:102450000FBE8ACE0E94DD0952CFC8013BDE15DDDA
:102460004ECFC80137DE11DDC80129DE882309F40B
:1024700046CF7ACE0E94CE071895E1E3F3E01382AF
:10248000128248EE53E060E070E044835583668337
:1024900077838DE092E09183808325ED30E035876E
:1024A000248724ED30E03787268720ED30E0318B1C
:1024B000208B21ED30E0338B228B22ED30E0358B09
:1024C000248B26ED30E0378B268B118E128E138EE7
:1024D000148EEEECF3E013821282448355836683FC
:1024E0007783918380832DEC30E0358724872CEC33
:1024F00030E03787268728EC30E0318B208B29ECC1
:1025000030E0338B228B2AEC30E0358B248B2EECA1
:1025100030E0378B268B118E128E138E148EEBE6E5
:10252000F4E0138212824483558366837783918318
:10253000808385EC90E09587848784EC90E0978792
:10254000868780EC90E0918B808B81EC90E0938B80
:10255000828B82EC90E0958B848B86EC90E0978B5D
:10256000868B118E128E138E148EE8E0F5E01682A3
:102570001782108611861286138614861586168693
:102580001786108A118A128A138A148A158A089566
:1025900090DD60E082E190E092DB77DC811102C0A7
:1025A0000C94DD090895AF92BF92DF92EF92FF92F3
:1025B0000F931F93CF93DF9300D01F921F92CDB73D
:1025C000DEB78C017B011D821C8290E0580188E0FF
:1025D000A80EB11C0FB6F8940F92F801228D838DCE
:1025E000281708F06BC0D28C448D41113FC0808108
:1025F0009181892B09F051C0F801E280F380E11448
:10260000F10411F480E02EC0F70182A1815082A371
:10261000268991A12917B1F38111F4CF5701F2E076
:10262000AF0EB11CC5010E949809F70191A1968BCC
:10263000492F50E024E030E0241B350B35872487F8
:1026400080913003891710F49093300329E0249F80
:10265000C001259F900D1124B501845F9C4F0E94FD
:10266000BC0981E0F8011382128218C050E0B70162
:10267000F8018481958160D3F801248D848195814E
:10268000820F911D95838483228133818217930762
:1026900020F0808191819583848380E0D394F80138
:1026A000D28E9189992319F0C8014196A1DB81113D
:1026B0000E94DD090F900FBE81E04CC02C813D814E
:1026C000232B19F40F900FBE44C0911109C08091C3
:1026D0000B0389838091090390910A039B838A836A
:1026E0000F900FBEE6DC0FB6F8940F92F801858DBF
:1026F0008F3F09F4158EF801868D8F3F09F4168EF1
:102700000F900FBEBE016C5F7F4FCE0101963ADB8A
:1027100081111CC00FB6F8940F92F801928D838D31
:102720000F900FBE98130EC06C817D81C5019DDB9B
:10273000C801D0DCAADB882311F091E04BCF0E94C6
:10274000DD09FBCFC801C6DCA0DBF7CFC801C2DCC6
:102750009CDB80E00F900F900F900F900F90DF9117
:10276000CF911F910F91FF90EF90DF90BF90AF90AE
:1027700008956F927F928F929F92AF92BF92CF9265
:10278000DF92EF92FF920F931F93CF93DF9300D0CE
:102790001F921F92CDB7DEB78C0185E090E09D833C
:1027A0008C83D12C90E0580121E1A20EB11C89E06C
:1027B000C82E24E0822E912C0FB6F8940F92D801E7
:1027C0005A968C915A97882359F181505A968C9336
:1027D0005A978D919C91892BA1F480910703909138
:1027E0000803892B39F0E0910703F091080382A1D7
:1027F0008F5F82A38091070390910803F801938370
:102800008283D80118968C91882331F0C8010896EC
:10281000EFDA81110E94DD090F900FBE81E01DC12A
:102820002C813D81232B09F415C1911109C08091A0
:102830000B0389838091090390910A039B838A8308
:102840000F900FBE36DC0FB6F8940F92F801858D0D
:102850008F3F09F4158ED8015E968C915E978F3F5D
:1028600011F45E961C920F900FBEBE016C5F7F4FFD
:10287000CE01019687DA811185C0C80120DC88234A
:1028800009F47CC0F80180819181892B09F068C02E
:102890000FB6F8940F92E280F380E114F10409F48A
:1028A0005CC0F7018689E0910703F09108039689DF
:1028B000891708F046C0D7011C962D913C911D97B1
:1028C00037FD0CC0E0910703F0910803968994014D
:1028D000291B31091D963C932E931C97C89EC0015D
:1028E0001124845F9C4FF70122853385281739070F
:1028F000F1F43701F2E06F0E711CC3010E949809D8
:10290000E0910703F09108032689D70156962C938E
:1029100080913003821710F420933003C29EC001CF
:102920001124B301845F9C4F0E94BC0907C0E09151
:102930000703F09108038689F701868BDD24D39481
:102940000DC0E0910703F0910803DD24D394D70173
:1029500091969C918689981708F0D12C0F900FBE04
:102960006C817D81C50181DAC801B4DB8EDA8823F0
:1029700011F091E021CF0E94DD09FBCFC801AADB55
:1029800084DAF7CFC801A6DB80DAC80198DB882398
:1029900081F3DD2009F460C00FB6F8940F92F801BE
:1029A0008189882339F00688F789E02D908184E0B9
:1029B000891B01C080E0D80112960D911C911397DC
:1029C0000115110509F446C0F80191A1891708F411
:1029D000892FD80156969C9156979817D9F19296BF
:1029E0002C9192972130B1F556968C9356971C9660
:1029F0002D913C911D9737FD08C024E030E0281B45
:102A000031091D963C932E931C97B9E09B9FC00102
:102A10001124845F9C4FF8012285338528173907DC
:102A2000C9F47801F2E0EF0EF11CC7010E94980989
:102A3000D80156969C9180913003891710F4909399
:102A40003003B9E09B9FC0011124B701845F9C4F04
:102A50000E94BC090F900FBE80E00F900F900F9066
:102A60000F900F90DF91CF911F910F91FF90EF90FA
:102A7000DF90CF90BF90AF909F908F907F906F909E
:102A80000895A1E21A2EAA1BBB1BFD010DC0AA1FAF
:102A9000BB1FEE1FFF1FA217B307E407F50720F0C7
:102AA000A21BB30BE40BF50B661F771F881F991F42
:102AB0001A9469F760957095809590959B01AC018B
:102AC000BD01CF010895EE0FFF1F881F8BBF079038
:102AD000F691E02D1994CF93DF938230910510F495
:102AE00082E090E0E0915205F091530520E030E063
:102AF000C0E0D0E0309711F140815181481759076B
:102B0000C0F04817590761F482819381209719F02A
:102B10009B838A832BC0909353058093520526C0D4
:102B20002115310519F04217530718F49A01BE0117
:102B3000DF01EF010280F381E02DDCCF21153105AB
:102B400009F1281B390B2430310590F412968D9130
:102B50009C9113976115710521F0FB01938382838A
:102B600004C09093530580935205FD01329644C0F2
:102B7000FD01E20FF31F81939193225031092D93B0
:102B80003C933AC02091500530915105232B41F4DC
:102B90002091020230910302309351052093500599
:102BA00020910002309101022115310541F42DB729
:102BB0003EB74091040250910502241B350BE09171
:102BC0005005F0915105E217F307A0F42E1B3F0BBF
:102BD0002817390778F0AC014E5F5F4F241735078F
:102BE00048F04E0F5F1F509351054093500581935D
:102BF000919302C0E0E0F0E0CF01DF91CF91089522
:102C00000F931F93CF93DF93009709F48CC0FC01BF
:102C100032971382128200915205109153050115CB
:102C2000110581F420813181820F931F209150057D
:102C3000309151052817390779F5F0935105E09344
:102C4000500571C0D80140E050E0AE17BF0750F406
:102C500012962D913C911397AD012115310509F183
:102C6000D901F3CF9D01DA01338322836081718121
:102C7000860F971F8217930769F4EC012881398129
:102C8000260F371F2E5F3F4F318320838A819B8120
:102C900093838283452B29F4F0935305E0935205E7
:102CA00042C01396FC93EE931297ED01499159910E
:102CB0009E01240F351FE217F30771F48081918183
:102CC000840F951F029611969C938E938281938117
:102CD00013969C938E931297E0E0F0E0D801129641
:102CE0008D919C911397009719F0F8018C01F6CF04
:102CF0008D919C9198012E5F3F4F820F931F2091E1
:102D00005005309151052817390769F4309729F497
:102D1000109253051092520502C013821282109332
:102D2000510500935005DF91CF911F910F910895A8
:102D300081E090E0F89439C0FB01DC0102C0019011
:102D40000D9241505040D8F70895DC0101C06D93B9
:102D500041505040E0F70895FB01DC0141505040E4
:102D600048F001900D920020C9F701C01D9241501A
:102D70005040E0F70895FB0151915523A9F0BF01A0
:102D8000DC014D9145174111E1F759F4CD01019056
:102D9000002049F04D9140154111C9F3FB0141114B
:0E2DA000EFCF81E090E001970895F894FFCF07
:102DAE000000540580003E200000000000A204E157
:102DBE00032904E8045A0438044C0443656C6C314E
:102DCE003A0043656C6C323A00566F6C74733A007D
:102DDE00416D70733A0057617474733A00456E65B5
:102DEE007267793A005F5F5F5F5F5F00564D4450D8
:102DFE00455F003A323A007C005F564D4450450024
:102E0E00564D4450565F317C315F564D4450560DF1
:102E1E000A00526561644675656C43656C6C0052C0
:102E2E006561644D6F746F72506F776572004944BF
:0C2E3E004C4500546D7220537663000078
:00000001FF
