:1000000075C100000C94181C0C94ED1B0C94C21BC1
:100010000C94971B0C946C1B0C94411B0C94161B9A
:100020000C94EB1A94C1000092C1000090C1000032
:100030008EC100008CC100008AC1000088C1000090
:1000400086C1000084C1000082C1000080C10000A0
:100050007EC1000066C400007AC100000C94A11AA1
:1000600076C100000C94B7190C948E1970C1000071
:100070006EC100006CC100006AC1000068C10000D0
:1000800066C1000064C1000062C1000060C10000E0
:100090005EC100005CC100005AC1000058C10000F0
:1000A00056C1000054C1000052C1000050C1000000
:1000B0004EC100004CC100004AC1000048C1000010
:1000C00046C1000044C1000042C100000C94651903
:1000D0000C943C193CC100000C9413190C94EA18C0
:1000E00036C100000F1A121A011A051A091A491A04
:1000F000161A1A1A201A241A281A2E1A321A361AFE
:10010000491A3C1A401A441A094D696C6C69730902
:1001100020565F634920415F63490920565F634F62
:1001200020415F634F0920565F4D5420415F4D547D
:1001300000094D696C6C6973092020565F6D2020A1
:10014000415F6D202020575F6D20202057685F6D34
:10015000546D705F6D20507265735F6D20566361E2
:10016000705F6D2053746174655F6D092020565F68
:10017000732020415F73202020575F732020205779
:10018000685F73546D705F7320507265735F732086
:10019000566361705F732053746174655F73004EC2
:1001A0005631305F6261636B2043414E20696E6956
:1001B00074207375636365737321004E5631305F2D
:1001C0006261636B2043414E20696E6974206661F1
:1001D000696C210000002200250028002B002E0061
:1001E0003100340002010000050108010B0100008C
:1001F0002100240027002A002D00300033000101D7
:100200000000040107010A010505050507050808A6
:100210000808020202020A0A080804040404010190
:1002200001010101010103030303030303030407A5
:1002300007070C0C0C0C0C0C0C0C0202020206063C
:100240000606060606060B0B0B0B0B0B0B0B01022F
:1002500010202008081020401020408002010201D8
:100260000804020101020408102040808040201090
:1002700008040201800402018040201008040201E9
:100280000804020101020408102040800102040851
:10029000102040807C3C3E5E2B3D3F2F5B5D3B2C25
:1002A0002A225C0000000A0B02090C0D0E0807034D
:1002B0000401000000000000000000000000000039
:1002C000000000000000000000000000000000002E
:1002D00012111000000000000000000000000000EB
:1002E00000000000000000000000852711241FBE50
:1002F000CFEFD1E2DEBFCDBF00E00CBF12E0A0E047
:10030000B2E0EEE4F8E500E00BBF02C007900D920A
:10031000A83DB107D9F729E0A8EDB2E001C01D92D0
:10032000A33EB207E1F711E0C6E7D1E000E006C066
:1003300021970109802FFE010E94C52BC537D107E7
:1003400080E00807A9F70E941D210C94252C58CEA7
:100350008091FB028F5F8093FB020895CF93DF9320
:10036000FC01A085B1858281938124813581EC01D6
:100370003D832C83C481D5819B838A8311968D9183
:100380009C9112978E179F0721F41296DC93CE93BF
:100390001197118610868C9181508C93DF91CF91AB
:1003A00008950F931F93CF93DF938C01FB018081FE
:1003B00091818F3F2FEF920721F4E801AF81B8853B
:1003C0000EC0D801139612962D913C911397E90116
:1003D000488159818417950710F0D901F4CF1296FE
:1003E0008D919C91139793838283EC01FD83EC8321
:1003F000B583A4831396FC93EE931297118700871D
:10040000F80180818F5F8083DF91CF911F910F91E1
:1004100008958C01F8948DE09BD7C0E0D0E0C01720
:10042000D107E4F461E08DE00E94E01980E899EAE8
:10043000A3E0B0E000000197A109B109D9F760E09D
:100440008DE00E94E01980E899EAA3E0B0E00000A6
:100450000197A109B109D9F72196E1CF40E05AE609
:1004600068E170E000004150510961097109D1F75C
:10047000D4CFCF93DF930E94951AC9EBD6E02C819D
:100480003D81621B730B7B836A830E94951A6C8388
:100490007D838E839F83DF91CF910895CF93DF93E8
:1004A0009C01FB01DC011196CD91DC911297D38365
:1004B000C2838C819D81958384838C819D81DC01A5
:1004C00013967C936E9312977D836C83318720877C
:1004D000F90180818F5F8083DF91CF91089581E062
:1004E00090E097DF1092FD02E0913A03F0913B0318
:1004F0000788F08DE02D80819181A281B381853ABA
:10050000954AA54AB54AE9F484819581A681B781C7
:10051000853A954AA54AB54AA1F480859185A28578
:10052000B385853A954AA54AB54A59F48485958597
:10053000A685B785853A954AA54AB54A11F499E04A
:1005400010C080913A0390913B0380913A039091BF
:100550003B0383E090E05DDF80913803815080931E
:100560003803E09138039E9FF0011124EC5EFC4FAC
:100570008081811105C0809138038111EDCFAFDFFB
:100580008091380390E049E0489F9001499F300DE9
:100590001124F901EC5EFC4FA181B28112960D90FD
:1005A000BC91A02DB283A183295E3C4FA217B30753
:1005B00031F412962D913C9113973283218329E0D7
:1005C000289FF001299FF00D1124EC5EFC4F018063
:1005D000F281E02D8681978190933B0380933A03CB
:1005E00008950F920FB6F8940F920BB60F920CB6B7
:1005F0000F921F9211242F923F924F925F926F920F
:100600007F928F929F92AF92BF92CF92DF92EF92A2
:10061000FF920F931F932F933F934F935F936F938B
:100620007F938F939F93AF93BF93CF93DF93EF937A
:10063000FF93A0913A03B0913B030DB60D920EB615
:100640000D928091FB02882321F081E08093FD02CE
:1006500001C048DFA0913A03B0913B03CD91CDBFDB
:10066000DD91DEBFFF91EF91DF91CF91BF91AF910F
:100670009F918F917F916F915F914F913F912F91BA
:100680001F910F91FF90EF90DF90CF90BF90AF90B0
:100690009F908F907F906F905F904F903F902F90A2
:1006A0001F900F900CBE0F900BBE0F900FBE0F90BF
:1006B0000895CF92DF92EF92FF920F931F93CF9303
:1006C000DF938091FB028111ADC08091D80290919F
:1006D000D90201969093D9028093D802E090D80273
:1006E000F090D902E114F104B1F5E0910003F0912A
:1006F000010380818111F3DE809100039091010359
:100700002091FE023091FF023093010320930003F9
:100710009093FF028093FE028091FA028F5F809394
:10072000FA02E0910003F09101038081811103C07E
:100730008FEF9FEF0CC0E0910003F0910103058063
:10074000F681E02D0680F781E02D828193819093E0
:10075000DB028093DA028091DA029091DB02C0E042
:10076000E816F90608F44CC0D9E0E0910003F091D6
:1007700001038081811103C08FEF9FEF11C0E091D1
:100780000003F09101030580F681E02D06811781B9
:10079000D80112968D919C911397E816F90628F4CA
:1007A0009093DB028093DA022BC06801B2E0CB0E9B
:1007B000D11CC601D3DDF80184899589892B19F0F4
:1007C000C8010C96CBDDD80156969C9180913803D8
:1007D000891710F490933803D99FC0011124B601F2
:1007E0008C5E9C4F5BDEE0913A03F0913B03D801B5
:1007F00056969C918689981708F4B7CFC1E0B5CF7B
:10080000E0913A03F0913B03E689B9E0EB9FF001F8
:100810001124EC5EFC4F8081823008F0C1E08091B1
:10082000F90206C08091F9028F5F8093F902C0E05F
:100830008091FD028111C1E08C2FDF91CF911F913A
:100840000F91FF90EF90DF90CF9008950F920FB629
:10085000F8940F920BB60F920CB60F921F921124C0
:100860002F923F924F925F926F927F928F929F92C0
:10087000AF92BF92CF92DF92EF92FF920F931F93AE
:100880002F933F934F935F936F937F938F939F9398
:10089000AF93BF93CF93DF93EF93FF93A0913A036E
:1008A000B0913B030DB60D920EB60D9202DF882378
:1008B00049F08091FB02882321F081E08093FD02C2
:1008C00001C010DEA0913A03B0913B03CD91CDBFA2
:1008D000DD91DEBFFF91EF91DF91CF91BF91AF919D
:1008E0009F918F917F916F915F914F913F912F9148
:1008F0001F910F91FF90EF90DF90CF90BF90AF903E
:100900009F908F907F906F905F904F903F902F902F
:100910001F900F900CBE0F900BBE0F900FBE0F904C
:10092000089594DF1895EF92FF920F931F93CF9342
:10093000DF938091FB02811101C0D1DD0FB6F894E5
:100940000F928091FB0281508093FB028091FB0209
:10095000882311F080E04EC080913C038823D1F3BE
:1009600089E0F82EEE24E39480910B03882339F17B
:10097000E0911003F0911103C681D781CE010C964E
:10098000EDDC8E010E5F1F4FC801E8DC9E8980916F
:100990003803891710F490933803F99EC00111248D
:1009A000B8018C5E9C4F7ADDE0913A03F0913B03F5
:1009B0009E8986899817C0F2E092FD02D5CF80917A
:1009C000F902811108C08091FD02813009F0C2CF87
:1009D00008DE81E00FC0C1E08091F902882399F31D
:1009E00068DE8111C093FD028091F90281508093ED
:1009F000F902F2CF0F900FBEDF91CF911F910F91AF
:100A0000FF90EF900895CF93DF93009741F0EC01B2
:100A10009FDCCE010E947029DF91CF9184CFDF91BE
:100A2000CF9108958091FC02882321F191DCC0913F
:100A3000020379DFCC23B1F30FB6F8940F92E09163
:100A40000703F0910803C681D781CE01029686DCA8
:100A500080913C03815080933C038091FC02815043
:100A60008093FC020F900FBE8F89988DCCDFCE0152
:100A7000CADFD8CF809114038230A0F2B2DDD2CF8A
:100A80000F931F93CF93DF931F921F92CDB7DEB7C3
:100A900089839A835DDC89819A810E94DB288C019D
:100AA00042DF0115110519F482E090E0B2DCC801C3
:100AB0000F900F90DF91CF911F910F910895CF93D9
:100AC000DF93CDB7DEB7C454D1400FB6F894DEBF84
:100AD0000FBECDBF22ED30E02C0F3D1F2A5D3F4FF2
:100AE000CF5BDE4F39832883C154D1404E0138ECAF
:100AF000831A3EEF930A44E0480DCD5BDE4F4883F6
:100B0000C354D14052EDE52EF12CEC0EFD1E56E003
:100B1000E50EF11C00E010E0B801655F7F4F072E85
:100B2000000C880B990B0E94832A20E030E040E201
:100B300051E40E944A2BD7016D937D938D939D9331
:100B40007D010F5F1F4F0830110531F7CF5BDE4F7E
:100B5000E880F980C154D14000E010E0B8016B5E3C
:100B60007F4F072E000C880B990B0E94832A20E0F0
:100B700030E040E251E40E944A2BF7016193719307
:100B8000819391937F010F5F1F4F0830110531F75B
:100B90007E01F8EEEF1AFEEFFF0A00E010E0B80168
:100BA000615E7F4F072E000C880B990B0E94832AF1
:100BB00020E030E040E251E40E944A2BD7016D93DF
:100BC0007D938D939D937D010F5F1F4F083011051D
:100BD00031F720E1A4016FEE7DEC8BEA99E80E94E9
:100BE000372A84E090E0A0E0B0E089839A83AB8369
:100BF000BC8388E08D83F401DE01169601900D928E
:100C00008A95E1F781E0CF52DF4F8883C15DD04004
:100C1000FE01EE52FF4F20E03DE018E0223011F4DB
:100C200043E001C042E0446050E060E070E0C28414
:100C3000D384E484F5844680578060847184CF52E5
:100C4000DF4F8881C15DD040389FC0011124A1E0F1
:100C5000B0E0AC0FBD1FA80FB91F4D935D936D930E
:100C60007C931397A1E0B0E0AC0FBD1FA80FB91F94
:100C700015964D925D926D927C921897CF52DF4FF0
:100C80008881C15DD040A1E0B0E0AC0FBD1F389FAE
:100C9000A00DB11D11241996CD92DD92ED92FC921A
:100CA0001C97CF52DF4F8881C15DD040A1E0B0E0FA
:100CB000AC0FBD1F389FA00DB11D112414961C93BD
:100CC0008F5FCF52DF4F8883C15DD0402F5FB096DA
:100CD000233009F0A3CF00E043E2242E312CCF5281
:100CE000DF4F8881C15DD040081708F0F0C2E1E015
:100CF000F0E0EC0FFD1FBDE00B9FE00DF11D112496
:100D0000E48040805180628073804092B0065092AF
:100D1000B1066092B2067092B3061092AF061092BE
:100D2000B406C12CD12C80E591E00E94E21260E073
:100D30008091B5060E94E01980EA0E94A91280E025
:100D40000E94A912182F61E08091B5060E94E01957
:100D50000E949E12812F84758435C9F19091B80646
:100D600043E050E0491B5109EEE2F2E06E2F2EE223
:100D700032E0621B262F30E02417350744F563303C
:100D800010F4908101C09FEF982331969111EECF1E
:100D9000633028F4F901E55DFD4F108101C010E5D5
:100DA0001F5F633028F4F901E85DFD4F608101C0E9
:100DB00060E040E08CE2CC5BDE4F9883C454D140CD
:100DC000C9D3CC5BDE4F9881C454D14002C010E03F
:100DD00092E03FEFC31AD30A923069F442E3C4169B
:100DE000D10409F4B4C0C114D10409F49CCFC101E9
:100DF0000197F1F798CF52E3C516D10409F4A7C0C3
:100E0000113431F0113531F0113331F020E005C0EB
:100E100022E403C024E401C020E4C20133E096953B
:100E200087953A95E1F7D4018C93842D8295880FAC
:100E3000807E11968C93119713961C92139712969D
:100E40001C9280E591E0CC5BDE4F2883C454D140F6
:100E50000E94E21260E08091B5060E94E019CC5B2E
:100E6000DE4F2881C454D140822F0E94A912640110
:100E7000F60181916F010E94A912CD5BDE4FF881CE
:100E8000C354D140FC11F4CF8E2D0E94A9122DE045
:100E9000029F50011124C12CD12C34E0A30EB11CAF
:100EA000CE14A0F45FEFC51AD50A89E0C816D104A4
:100EB00069F0F501EC0DFD1D41E050E04C0F5D1FA8
:100EC000E40FF51F80810E94A912EACF61E08091B2
:100ED000B5060E94E0190E949E1280E591E00E94F2
:100EE000E21260E08091B5060E94E019113451F0E1
:100EF000113521F0113321F481E805C084E803C0E5
:100F000080E001C082E80E94A91261E08091B506EC
:100F10000E94E0190E949E12C12CD12C11509FEF0B
:100F2000C91AD90A812FF4D283FF0BC0A2E3CA16D3
:100F3000D10479F0C114D10491F3C1010197F1F703
:100F4000EECFB2E3CB16D10421F010E003C016E0DF
:100F500001C017E024EF31E040E050E02093750637
:100F60003093760640937706509378061092790670
:100F700010927A0610927B0610927C0680916D0684
:100F800090916E06A0916F06B091700680937106E5
:100F900090937206A0937306B09374060E94951AFC
:100FA00060936D0670936E0680936F069093700643
:100FB00080E015D2882371F181E045D264EA72E0C5
:100FC0008091A9069091AA060E941C212AE0B301F3
:100FD000A2018091A9069091AA060E94992064EA34
:100FE00072E08091A9069091AA060E941C214E2DC4
:100FF00050E060E070E02AE08091A9069091AA0696
:101000000E94992066EA72E08091A9069091AA0652
:101010000E94E12065E070E080E090E0DFD10E9476
:10102000951A60936D0670936E0680936F06909389
:1010300070063DE0039F50011124C12CD12CF12CEE
:1010400080916D0690916E06A0916F06B09170062A
:1010500024EF31E040E050E02093750630937606AF
:1010600040937706509378061092790610927A068C
:1010700010927B0610927C06809371069093720604
:10108000A0937306B0937406CE14DF040CF047C02F
:101090000E94951A60936D0670936E0680936F069A
:1010A0009093700680E09BD1882331F182E0CBD110
:1010B00064EA72E08091A9069091AA060E941C2120
:1010C000F601EA0DFB1D41E050E04C0F5D1FE40FFF
:1010D000F51F458150E060E070E02AE08091A906AC
:1010E0009091AA060E94992066EA72E08091A90672
:1010F0009091AA060E94E12065E070E080E090E017
:101100006DD10E94951A60936D0670936E06809360
:101110006F06909370065FEFC51AD50A91CF0E94B3
:10112000951A60936D0670936E0680936F06909388
:10113000700665E070E080E090E050D16AE070E019
:1011400080E090E04BD185E680937E0680917E061C
:10115000833609F4A5C08536B1F580917906909162
:101160007A06A0917B06B0917C060196A11DB11D67
:101170008093790690937A06A0937B06B0937C06C1
:1011800040917506509176066091770670917806C9
:10119000452B462B472B21F4892B8A2B8B2B99F43B
:1011A00080E01DD1882351F083E04DD166EA72E0E2
:1011B0008091A9069091AA060E94E12064EF71E057
:1011C00080E090E0E4D06AE070E080E090E006D15A
:1011D00080917D06882309F461C08091A9069091D1
:1011E000AA06DC01ED91FC910084F185E02D1995B2
:1011F000882309F4A8CF8091A9069091AA06DC0162
:10120000ED91FC910084F185E02D1995882309F476
:101210009ACF8091A9069091AA06DC01ED91FC91EC
:101220000284F385E02D19958836C1F178F588356B
:1012300099F1833601F70E94951A609369067093BD
:101240006A0680936B0690936C066DEA72E080915B
:10125000A9069091AA060E941C212AE043E050E0D2
:1012600060E070E08091A9069091AA060E94992002
:1012700064EB72E08091A9069091AA060E941C215D
:1012800062E370E080E090E0A9D008C0813731F0DF
:10129000863709F459CFAFCF10927D0683E654CF3D
:1012A0000E94951A60936D0670936E0680936F0688
:1012B00090937006112319F06DEB72E002C067EC99
:1012C00072E08FE395E00E94E1200F5F08CD8091EE
:1012D000FB02811104D93CD80091D8021091D902A7
:1012E000045D1F4F80913A0390913B03029636D8DC
:1012F000E0913A03F0913B03138302838091D8027B
:101300009091D90260913A0370913B030817190735
:1013100040F48091FE029091FF026E5F7F4F41D8B2
:1013200012C080910003909101036E5F7F4F39D806
:101330008091DA029091DB020817190720F41093CC
:10134000DB020093DA02EFDA8111DCCB4AD9DACB87
:1013500090E0FC01E25BFD4F2491FC01E85FFD4F52
:101360008491882399F090E0880F991FFC01E25145
:10137000FE4FA591B491FC01EC52FE4F85919491E2
:101380008FB7F894EC91E22BEC938FBF08958F9276
:101390009F92AF92BF92CF92DF92EF92FF926B013A
:1013A0007C010E94951A4B015C01C60ED71EE81EF7
:1013B000F91E0E94951A681579058A059B0528F083
:1013C000C616D706E806F906A0F7FF90EF90DF9063
:1013D000CF90BF90AF909F908F900895D8CF0F93EC
:1013E0001F93811122C00E94951A009169061091E5
:1013F0006A0620916B0630916C06DC01CB01801BE4
:10140000910BA20BB30B82339105A105B10568F4D2
:1014100042E350E060E070E08A019B01081B190B79
:101420002A0B3B0BC901B801B2DF0E94951A6093E9
:10143000690670936A0680936B0690936C0681E050
:101440001F910F910895BF92CF92DF92EF92FF927A
:101450000F931F93CF93DF93B82E0E94951A6B01C1
:101460007C0107E616E0C9EAD6E06CEC72E0888100
:1014700099810E941C214B2D50E060E070E02AE031
:10148000888199810E94992063ED72E08881998119
:101490000E941C212AE0B701A601888199810E943F
:1014A000992065ED72E0888199810E941C21F801E4
:1014B00086819781A085B185B701A601481B590B8C
:1014C0006A0B7B0B2AE0888199810E94992065ED47
:1014D00072E0888199810E941C21F8014681578120
:1014E0006085718582859385A485B585481B590BD8
:1014F0006A0B7B0B2AE088819981DF91CF911F9144
:101500000F91FF90EF90DF90CF90BF900C949920B7
:101510001F93CF93DF93182F80E591E00E94E21292
:10152000CFEAD6E060E08E810E94E01983E00E945D
:10153000A912812F0E94A91280E00E94A912182FDF
:1015400061E08E810E94E019F9D7812FDF91CF9160
:101550001F910895EF92FF920F931F93CF93DF9304
:101560001F92CDB7DEB7082F162F80E591E0498393
:101570000E94E2128FEAE82E86E0F82E60E0F70182
:1015800086810E94E01985E0E4D7802FE2D7812F81
:10159000E0D74981842FDDD761E0F70186810E9481
:1015A000E0190F90DF91CF911F910F91FF90EF9075
:1015B000C5C7CF92DF92EF92FF920F931F93CF9305
:1015C000DF93EC016A017B01E889F98982E080837D
:1015D0004115514E61057105B1F060E079E08DE390
:1015E00090E0A70196010E940F2B89019A010150FA
:1015F0001109210931093695279517950795980105
:1016000001151041A8F0E889F989108260E874E8B2
:101610008EE190E0A70196010E940F2BDA01C9012B
:101620000197A109B109B695A795979587959C0152
:10163000EC85FD853083EE85FF852083188EEC894F
:10164000FD8986E08083EA89FB89808180618083CF
:10165000EA89FB89808188608083EA89FB898081AF
:1016600080688083EA89FB8980818F7D8083DF9118
:10167000CF911F910F91FF90EF90DF90CF90089541
:101680002F923F924F925F926F927F928F929F9292
:10169000AF92BF92CF92DF92EF92FF920F931F9380
:1016A000CF93DF93CDB7DEB7C756D1090FB6F89405
:1016B000DEBF0FBECDBF3C015B01A6964FAFA69724
:1016C0004E018EE1880E911C68E476E0C4010E9410
:1016D000BF161C821B8289E592E09A8389831E8251
:1016E0007501FE0131966F0124011F016FE270E068
:1016F000C7010E94042C0097E1F1F70120812F32ED
:1017000021F4FFEFEF1AFF0AF1CF8E198D3008F0A8
:101710008CE0082F10E0A801B701CE01885A9F4F36
:101720000E94162CE8E5F0E0EC0FFD1FE00FF11F22
:101730001082C60181D521E0AE01485A5F4FB20147
:10174000C6010E94F81481110AC01EAE1DAE89E5C3
:1017500092E09CAF8BAF21961FAE219716C0E00E92
:10176000F11EC20169D5942D852D2601C92ED82ED2
:10177000BDCFC7018A199B09A8969FAF8EAFA897C6
:10178000B201CE01CB960E94BF16A896EEADFFAD7A
:10179000A897AE0EBF1EF5018081811109C0BE0160
:1017A000655C7F4FC1010E94BF1641E952E03AC01B
:1017B00019A218A289E592E09F8F8E8F1BA2219615
:1017C0008FAD2197811104C0C3010E9421172EC043
:1017D0008250A6962FADA697A501823040F468E40A
:1017E00076E0C4010E94F81481110CC0EDCFBE0157
:1017F000655C7F4FC4010E94F814882329F3CE0151
:10180000CB961AD5A6968FADA697867031F049A9CA
:101810005AA96BA97CA9C40173D3B401C1010E9468
:10182000BF16A501B101C3010E943417C301C959F4
:10183000DF4F0FB6F894DEBF0FBECDBFDF91CF9163
:101840001F910F91FF90EF90DF90CF90BF90AF90DE
:101850009F908F907F906F905F904F903F902F90D0
:1018600008958F929F92AF92BF92CF92DF92EF92A4
:10187000FF92CF93DF93C82F8EE196E090933E05C1
:1018800080933D05CC2369F1C53010F080E00DC197
:1018900040E060E070E0CB010E947C1C8823B1F343
:1018A00020E1C29FC0011124835D9C4FFC01E254E2
:1018B000FE4F20812F7751F73C9640815181628104
:1018C0007381443651056105710500F33497C0807A
:1018D000D180E280F380C114D104E104F10421F449
:1018E000D5CFC12CD12C760140E0C701B6010E94B2
:1018F0007C1C882359F280914803909149038115FB
:10190000924021F6A0914D03AA2309F4BFCF609124
:101910004B0370914C036115710509F4B7CF209109
:101920004A03222309F4B2CFA0933C0620932E064B
:1019300080E030E0E1E0F0E0C82FAF01082E02C007
:10194000440F551F0A94E2F72417350741F0982FEA
:101950008F5F983089F789E08093370697CF80931F
:10196000370620915303309154032115310519F0A6
:1019700040E050E008C02091610330916203409143
:1019800063035091640320932F06309330064093F5
:1019900031065093320646015701860E971EA11C50
:1019A000B11C80923D0690923E06A0923F06B092F6
:1019B0004006E0914E03F0914F03F0934306E0930D
:1019C0004206B0E00E94312B860E971EA81EB91E5B
:1019D0008092440690924506A0924606B092470631
:1019E00085E0EE0FFF1F8A95E1F7E150FE4FEF2FE4
:1019F000FF27E6958E0E9F1EA11CB11C8092380613
:101A000090923906A0923A06B0923B06209150037C
:101A1000309151032115310521F0A90160E070E0FA
:101A200008C040915D0350915E0360915F03709127
:101A30006003D701C60188199909AA09BB09840F57
:101A4000951FA61FB71F04C0B695A79597958795B4
:101A5000CA95D2F78093330690933406A093350647
:101A6000B0933606853F2FE09207A105B10510F42B
:101A70008CE018C0853F9F4FA105B10510F480E1AF
:101A800011C08091690390916A03A0916B03B0919A
:101A90006C038093440690934506A0934606B0934A
:101AA000470680E28093410681E0DF91CF91FF906D
:101AB000EF90DF90CF90BF90AF909F908F90089560
:101AC0006F927F929F92AF92BF92CF92DF92EF92EE
:101AD000FF920F931F93CF93DF935C01962EC72E37
:101AE000EA01D22E892B11F40E946F02822F90E01E
:101AF0000497D4F7CA010E9440053C01892B09F4E0
:101B000091C189E290E00E9440057C010097D9F0E4
:101B1000DC0158967C926E925797AE0165EA70E0B0
:101B2000C3010E94F22B2197D7015796ED91FC91AA
:101B30005897EC0FFD1FB701675E7F4FA92DBC2D95
:101B4000CD01089607C0C3010E9403056BC1A81709
:101B5000B90749F09D014D91EB014993BE01E9019F
:101B600028812111F4CFD70190961C928D2DB3E0DE
:101B7000BD1508F483E0E7018E8B89A31AA21B86AA
:101B80001A861D8A1C8AF986E88624E030E0A901BD
:101B9000481B51095D874C87FB8AEA8A1BA21CA25D
:101BA0001DA21EA218A61FA291E19083DF0111972A
:101BB00082E28C93119723E32C931197AC921197A7
:101BC000BC9211971C9211971C92119720E82C93AC
:101BD00011971C9211971C9211971C92119722E059
:101BE0002C93119723E02C93119724E02C931197B9
:101BF00025E02C93119726E02C93119727E02C9346
:101C0000119728E02C93119729E02C93119720E14C
:101C10002C9311979C93119792E19C93119793E1C8
:101C20009C93119794E19C93119795E19C93119744
:101C300096E19C93119797E19C93119798E19C935F
:101C4000119799E19C93119790E29C93119791E2DF
:101C50009C9311978C93119783E28C9311971C920C
:101C600011971C92119786E28C93119787E28C93BF
:101C7000119788E28C93119789E28C93119780E3F6
:101C80008C93119781E38C93B997F983E8830115BD
:101C9000110519F0F801F182E0820FB6F8940F9265
:101CA00080913C038F5F80933C0380913A03909135
:101CB0003B03892B09F07DC0F0923B03E0923A038D
:101CC00080913C03813009F083C0E4E1F3E04FEF01
:101CD0005FEF9F012D5F3F4F328321838FEF9FEF97
:101CE0005483438336832583308727831082399634
:101CF00023E0E833F20769F72CE838E030938B08EB
:101D000020938A0890938D0880938C0830938F08D5
:101D100020938E08309391082093900810928908A0
:101D200023E838E030938208209381089093840858
:101D30008093830830938608209385083093880821
:101D400020938708109280082EE033E030930D0333
:101D500020930C0390930F0380930E033093110391
:101D600020931003309313032093120310920B035C
:101D700025E033E03093040320930303909306039C
:101D800080930503309308032093070330930A03DD
:101D9000209309031092020389E898E090930103CD
:101DA0008093000380E898E09093FF028093FE0206
:101DB0000FC08091390381110BC0E0913A03F0917B
:101DC0003B038689D81620F0F0923B03E0923A0359
:101DD000809192088F5F80939208D70156968C91DC
:101DE00090913803981710F480933803B7016E5F11
:101DF0007F4FB9E08B9FC00111248C5E9C4F0E94E5
:101E00004E020F900FBE80913903882349F0E09174
:101E10003A03F0913B0386898D1510F40E94F1027C
:101E200081E001C08FEFDF91CF911F910F91FF9063
:101E3000EF90DF90CF90BF90AF909F907F906F908A
:101E40000895DC015996ED91FC915A973097B9F0BD
:101E500083899489A589B68942855385648575856A
:101E6000841B950BA60BB70B811520E89207A105E3
:101E7000B10538F08FEF9FE7A0E0B0E0089580E073
:101E800090E00895CF93DF931F92CDB7DEB76983BB
:101E9000DC01ED91FC910280F381E02D41E050E006
:101EA000BE016F5F7F4F19950F90DF91CF9108951D
:101EB000089580E090E00895FC01818D928D009757
:101EC00011F00C944E1E0895CF93DF93EC01898D91
:101ED0009A8D009739F481E090E09B838A8380E0BB
:101EE00090E00BC0FC01138212820E948A1EE98DD1
:101EF000FA8D22813381232B71F7DF91CF910895E1
:101F00008F929F92AF92BF92CF92DF92EF92FF9209
:101F10000F931F93CF93DF93EC018D81811102C04A
:101F200080E077C00B891C892D893E89041715072D
:101F300026073707A8F36A017B01823029F4CA8695
:101F4000DB86EC86FD860DC0C114D104E104F104EA
:101F500051F41E821F82188619861A861B861C86DB
:101F60001D8681E056C08A849B84AC84BD84EB8D41
:101F7000FC8D258530E0275F3F4FB501A40141501E
:101F8000510961097109022E04C07695679557952C
:101F900047950A94D2F7D701C6010197A109B10963
:101FA00004C0B695A795979587952A95D2F784177B
:101FB0009507A607B70720F089288A288B2849F4B7
:101FC0004F89588D698D7A8D4E835F8368877987B5
:101FD00004C0841B950BA60BB70B4C015D018E0151
:101FE0000A5F1F4F81149104A104B10409F4A7CF23
:101FF0004E815F816885798598018B8D9C8D0E94CB
:10200000631D91E0891A9108A108B1088111EACFF6
:1020100087CFDF91CF911F910F91FF90EF90DF90CD
:10202000CF90BF90AF909F908F9008958F929F9286
:10203000AF92BF92CF92DF92EF92FF920F931F93D6
:10204000CF93DF9300D01F92CDB7DEB77C0180E243
:10205000689F600111249601235C3C4FD9011B96B7
:102060009C91917121F0842F827409F096C0142FF5
:10207000F701628B8091100290911102A0911202DF
:10208000B091130286879787A08BB18BF601E35C32
:10209000FC4F4489558960E070E0BA015527442718
:1020A000D70157964D935D936D937C935A97828D8C
:1020B000938DA0E0B0E0482B592B6A2B7B2BD701E6
:1020C00057964D935D936D937C935A97D9011B96C8
:1020D0008C91887159F4848D958DA68DB78DF701FB
:1020E000838B948BA58BB68B81E012C0803109F075
:1020F00054C097012D5E3F4FD7015B968D919C9107
:102100005C970E94E61D882309F447C084E0F7012C
:102110008583812F8F70D70114968C931497F701C4
:1021200016821782108611861A961D921D921D9294
:102130001C921D9716FF33C015968C91813069F55E
:1021400011FF2BC0F7014389548965897689452B96
:10215000462B472B09F45FC040E050E0BA01C701AD
:10216000CFDE8823D1F0F7018788908CA18CB28CC8
:10217000C38CD48C82E090E0A0E0B0E0F6018083D4
:102180009183A283B3839E012F5F3F4FB501A401CA
:10219000C6010E94631D811104C080E03CC081E043
:1021A0003AC000E010E09801B501A401C6010E9408
:1021B000C41C882391F389809A80AB80BC80D601AF
:1021C00057968C91803129F088EF9FEFAFEFBFE0F9
:1021D00004C088EF9FEFA0E0B0E088169906AA0639
:1021E000BB0688F2D70157961D921D921D921C9234
:1021F0005A97F701138A148A158A168A848180688F
:102200008483C7010E944E1E882339F240E050E0CB
:10221000BA01C70175DE0F900F900F900F90DF91FC
:10222000CF911F910F91FF90EF90DF90CF90BF90D3
:10223000AF909F908F900895CF93DF93EC010E9411
:102240004E1E882311F01D8281E0DF91CF91089509
:102250003F924F925F926F927F928F929F92AF9236
:10226000BF92CF92DF92EF92FF920F931F93CF9383
:10227000DF93CDB7DEB72C970FB6F894DEBF0FBE55
:10228000CDBF5C01DC015B968D909C905C971696AF
:10229000CD90DD90ED90FC901997C114D104E1042C
:1022A000F10439F0BFEFCB1ADB0AEB0AFB0A312C41
:1022B00007C0F401C080D180E280F38033243394DE
:1022C000F40181859285A385B4859C01AD012F5FC2
:1022D0003F4F4F4F5F4F29873A874B875C872601D7
:1022E00037011D821E821F821886F4018185928526
:1022F000A385B4852D813E814F81588528173907E4
:102300004A075B0708F063C089859A85AB85BC8561
:102310008C159D05AE05BF0550F482E0C82ED12C6A
:10232000E12CF12C92E0492E512C612C712C9E0154
:102330002F5F3F4FB701A601C4010E94631D882390
:1023400009F445C089819A81AB81BC81892B8A2B94
:102350008B2B41F0260137019FEF491A590A690A70
:10236000790A05C0C414D504E604F70491F02D8160
:102370003E814F8158852F5F3F4F4F4F5F4F2D83D9
:102380003E834F8358873FEFC31AD30AE30AF30A09
:10239000ACCF0FEF1FEF2FEF3FE0B301A201C4015D
:1023A0000E94C41C882399F0D50116964D915D9129
:1023B0006D917C911997411551056105710549F0A1
:1023C00093018201C4010E94C41C811102C080E0FB
:1023D0002AC0D50116964D925D926D927C92199706
:1023E000332051F0D301C2010196A11DB11DF401AA
:1023F00080839183A283B383F5018789908DA18D1A
:10240000B28D892B8A2B8B2B69F4D50157964D926F
:102410005D926D927C925A9714968C911497806875
:1024200014968C9381E02C960FB6F894DEBF0FBE05
:10243000CDBFDF91CF911F910F91FF90EF90DF9073
:10244000CF90BF90AF909F908F907F906F905F9054
:102450004F903F900895CF92DF92EF92FF921F939B
:10246000CF93DF93EC01F4DE811102C080E05EC007
:10247000EB8DFC8DCE80DF80E884F98482E0C81A81
:10248000D108E108F108058404C0CC0CDD1CEE1C69
:10249000FF1C0A94D2F786859785A089B189C80E5A
:1024A000D91EEA1EFB1E148181E0C81AD108E1087A
:1024B000F108112301F10E94431C8823B9F2EDE3D6
:1024C000F3E0119285E0ED33F807D9F7D701C601A3
:1024D000810F911DA11DB11D8093100290931102D7
:1024E000A0931202B09313028091D109816080936E
:1024F000D1091150DECFEB8DFC8D80E092E0A0E0A1
:10250000B0E0058404C0880F991FAA1FBB1F0A945E
:10251000D2F74B895C896D897E89840F951FA61F30
:10252000B71F8B8B9C8BAD8BBE8B81E0DF91CF91E6
:102530001F91FF90EF90DF90CF900895089561E094
:10254000FC0184813DD78091D00981111092D0097E
:1025500008958EBD00000DB407FEFDCF8EB5089521
:102560008FEFF7CF0F931F93CF93DF93EB01DDD75F
:102570008B01F6DF8F3F41F0D8D7601B710B6C17D2
:102580007D07B8F380E001C081E0DF91CF911F911A
:102590000F910895CF93DF93EC018E81882379F01A
:1025A0008F8198859C012F5F3F4F38872F83823022
:1025B000924010F4D5DFF4CFCE01C1DF1E82DF914F
:1025C000CF9108958CBD9DBD0895CF93DF93EC010D
:1025D0008091D009811108C081E08093D009809159
:1025E0001C0690911D06EEDF60E08C81DF91CF919B
:1025F000E7C6CF92DF92FF920F931F93CF93DF93A3
:1026000000D01F92CDB7DEB76C01F62E29833A8336
:102610004B835C83BFDFC601D8DF6CE271E0C6018B
:10262000A1DF8F2D806495DF08E110E05C814B8194
:102630003A812981DA01C901002E04C0B695A79517
:10264000979587950A94D2F729833A834B835C83C5
:1026500080DF0850110929813A814B815C81083F54
:102660008FEF180739F7FF2029F0E8E0FE1204C0C9
:1026700087E803C085E901C08FEF6BDF10E070DFF2
:10268000F601828787FF04C01F3F11F01F5FF7CF5D
:102690000F900F900F900F90DF91CF911F910F919E
:1026A000FF90DF90CF900895AF92BF92CF92DF92CC
:1026B000EF92FF920F931F93CF93DF93EC01690189
:1026C000C801820F931F8130924008F068C08E814C
:1026D000882371F088819981AA81BB8148175907A5
:1026E0006A077B0729F48F819885C816D90688F573
:1026F000488359836A837B838B85833039F089E0F3
:10270000440F551F661F771F8A95D1F79A01AB01B9
:1027100061E1CE016EDF882319F083E08D833FC035
:1027200004D75B011DDF8A878F3F41F4FED66A190B
:102730007B096D327140B0F38FE003C08E3F29F00A
:102740008DE08D83CE01FBDE2AC018861F8281E0DA
:102750008E838F8198858C159D0538F401DF8F81DC
:102760009885019698878F83F4CF6701E00EF11E5C
:10277000CE14DF0429F0F4DEF60181936F01F8CF67
:102780008F819885080F191F18870F8389858823E3
:1027900019F00115124038F0CE01FCDE04C0CE0164
:1027A000CEDE80E001C081E0DF91CF911F910F91DB
:1027B000FF90EF90DF90CF90BF90AF9008952F9251
:1027C0003F924F925F926F927F928F929F92AF92C1
:1027D000BF92CF92DF92EF92FF920F931F93CF930E
:1027E000DF93EC016B014A018D81811103C08FEFF2
:1027F0009FEFD5C08C8180FFFACF4B885C886D88B5
:102800007E884A855B856C857D85C401A0E0B0E04B
:1028100093018201041B150B260B370B08171907B0
:102820002A073B0718F44201841A950A54011E0135
:1028300026E0220E311CA114B10409F47EC04A85A1
:102840005B856C857D852A0181E05822ED818A01B6
:102850009B0189E036952795179507958A95D1F7BD
:102860008B8D9C8DE23061F4FC01828D938DA48D63
:10287000B58DBC01CD01600F711F821F931F3FC03A
:10288000FC0174807A94702241145104C9F47110CF
:1028900017C0452B462B472B49F48F89988DA98D5E
:1028A000BA8D8E839F83A887B9870AC04E815F81C6
:1028B0006885798591010E94631D882309F497CF6B
:1028C000EB8DFC8D8E819F81A885B9850297A1092A
:1028D000B109058404C0880F991FAA1FBB1F0A9461
:1028E000D2F74685578560897189840F951FA61F89
:1028F000B71FBC01CD01670D711D811D911D20E029
:1029000032E02419350935012A153B0508F439014F
:102910002C8126FD04C06114F2E07F0681F4009151
:1029200010021091110220911202309113026017CF
:10293000710782079307A9F402C0C40130C040E0C8
:10294000DBD7882309F453CFF201E35CFC4FD601B7
:10295000CF01860D971DE817F90781F021912D937E
:10296000FACF760183019201AB01BC0180913D0554
:1029700090913E0599DE882309F439CFC60CD71C07
:102980008A859B85AC85BD85860D971DA11DB11DD2
:102990008A879B87AC87BD87A618B7084CCFDF9185
:1029A000CF911F910F91FF90EF90DF90CF90BF904C
:1029B000AF909F908F907F906F905F904F903F90DF
:1029C0002F900895CF93DF931F92CDB7DEB741E0EC
:1029D00050E0BE016F5F7F4FF2DE019719F48981ED
:1029E00090E002C08FEF9FEF0F90DF91CF9108959D
:1029F0008F929F92AF92BF92CF92DF92EF92FF920F
:102A00000F931F93CF93DF93CDB7DEB72B970FB6FE
:102A1000F894DEBF0FBECDBF7C01FC01A580A110E4
:102A200009C1CE0101966C01FC0190E28BE08C0D96
:102A300091938E13FDCFDA0130E087E09D919923C9
:102A400039F19E3219F0E4E9F2E00AC08A3009F463
:102A5000F2C038E08AE0F2CF3196491709F4EBC0B2
:102A600044914111F9CF831708F4E5C04FED490FA8
:102A70004E3508F0E0C041E0430FF601E30FF11DD1
:102A80003FE9390F3A3108F490529083342FD6CF72
:102A90008981803209F4CFC0B22E8B01FB01838D76
:102AA000948DF701948F838FFB0116821782108615
:102AB00011861286138614861586912CF80182855C
:102AC0009385A485B585438954896589768984175A
:102AD0009507A607B70708F05FC025E0B695A7954C
:102AE000979587952A95D1F7F82FFF708F2EF801CB
:102AF0008581823008F49FC0C80164DF97FD9BC0C8
:102B0000F80182859385A485B5854F96A11DB11DD9
:102B100082879387A487B587F0E28F9EC001112436
:102B2000BC01635C7C4F6115710509F484C0FB0135
:102B30002081222319F0253EC1F427C091100EC038
:102B4000F701828A409110025091110260911202A5
:102B50007091130246875787608B718BFC01E35C91
:102B6000FC4F8081811113C015C04BE050E0C601BD
:102B70000E94E52B892B09F0A1CF8B2D8073803328
:102B800009F459C04B2D682D51C09920C9F29924E0
:102B9000939494CF992493948B2D8271823109F070
:102BA0004AC09920B1F0F7016685778580899189BF
:102BB00041E0A2D6882309F43EC0F7016289F0E221
:102BC0006F9FB0011124635C7C4F6115710569F43E
:102BD00032C0F8018581823071F1C8013CDC882364
:102BE00051F1F701128A6DE373E080E2FB0111926B
:102BF0008A95E9F78BE0F601DB0101900D928A9549
:102C0000E1F781E298E2FB01918B808B20E038E0D4
:102C100037872687938B828B918F808F378B268B7C
:102C200032D6882341F04B2DF7016289C701FED9C6
:102C3000A82E01C0A12C8A2D2B960FB6F894DEBFCA
:102C40000FBECDBFDF91CF911F910F91FF90EF90FD
:102C5000DF90CF90BF90AF909F908F900895FC0130
:102C6000818D928D009709F0ADCE8FEF9FEF089583
:102C70000F931F93CF93DF93FC01818D928D00976B
:102C8000A9F0EF019FDE8C010F3F8FEF180789F04D
:102C9000898D9A8DFC0142855385648575854150E7
:102CA0005109610971092CD9C80105C080E090E083
:102CB00002C08FEF9FEFDF91CF911F910F91089589
:102CC000EF92FF920F931F93CF93DF93EC01790163
:102CD000411551056105710511F482E134C08B8500
:102CE000833039F089E0440F551F661F771F8A959E
:102CF000D1F79A01AB0168E1CE017BDC882311F0AA
:102D000084E021C08EEF25DC87018EEFF81AF801F0
:102D100081918F011EDC0E151F05C9F78FEF19DC9D
:102D20008FEF17DC1DDC8A878F71853029F081E1F8
:102D30008D83CE0104DC08C068E572E0CE0112DCB0
:102D4000811106C085E18D83CE01F9DB80E010C0E2
:102D500020E030E0A9016DE0CE014BDC811103C021
:102D6000FFDB882311F084E1EECFCE01E8DB81E0C8
:102D7000DF91CF911F910F91FF90EF900895FC018B
:102D8000DB0112968D919C9113979383828389E541
:102D900092E09183808314968C9114978483159686
:102DA0008C911597858316964D915D916D917C91CF
:102DB000199746835783608771871A964D915D9165
:102DC0006D917C911D9742875387648775871E9606
:102DD0004D915D916D917C91519746875787608B9E
:102DE000718B52968C915297828B53964D915D9137
:102DF0006D917C915697438B548B658B768B579650
:102E00004D915D916D917C915A97478B508F618F59
:102E1000728F5B968D919C915C97948F838F0895B0
:102E2000CF93DF93EC01898D9A8D009739F004DA06
:102E3000898D9A8D0E9470291A8E198EDF91CF91FB
:102E40000895FC011382128288EE93E0A0E0B0E0C6
:102E500084839583A683B78381E792E091838083FF
:102E6000128E118E14860895EF92FF920F931F9386
:102E7000CF93DF93EC017B018A011B821A8288EEDB
:102E800093E0A0E0B0E08C839D83AE83BF8381E7B5
:102E900092E0998388838DE190E00E94DB289A8FED
:102EA000898F009779F02DE1F701DC0101900D92F7
:102EB0002A95E1F74CE050E0B801CE010C960E9453
:102EC000162C188EDF91CF911F910F91FF90EF90EC
:102ED0000895CF93CFB7F8948091CF09811123C083
:102EE000EDE3F2E08491E3E8F2E09491E82FF0E082
:102EF000EE0FFF1FE251FE4FA591B491EC91E92333
:102F000019F461E085E35CD285E30E94A8098CB5E1
:102F100080618CBD8CB580648CBD84E30E94A8095F
:102F200083E30E94A8098091CF098F5F8093CF0926
:102F3000CFBFCF910895FC01A089B1898C91A6895A
:102F4000B78982FD0FC09C91818D8F5F8F77228D15
:102F5000821749F0218DDF01A20FB11D5D969C9370
:102F6000818F08958C910895FC01538D448D252FF8
:102F700030E0842F90E0821B930B541710F0CF9613
:102F8000089501970895FC01918D828D981761F045
:102F9000828DDF01A80FB11D5D968C91928D9F5F90
:102FA0009F77928F90E008958FEF9FEF0895FC0137
:102FB000918D828D981731F0828DE80FF11D858DEE
:102FC00090E008958FEF9FEF0895FC01918D228D81
:102FD000892F90E080589F4F821B91098F77992706
:102FE000089583EA97E0F1DF21E0892B09F420E0DE
:102FF000822F089586EC96E0E8DF21E0892B09F422
:1030000020E0822F08958FE395E0DFDF21E0892B18
:1030100009F420E0822F0895FC01848DDF01A80FC0
:10302000B11DA356BF4F2C91848D90E001968F73F4
:103030009927848FA689B7892C93A089B1898C910F
:1030400080648C93938D848D981306C00288F389D5
:10305000E02D80818F7D80830895EF92FF920F9302
:103060001F93CF93DF93EC0181E0888F9B8D8C8D34
:10307000981305C0E889F989808185FD23C0F62E63
:103080000B8D10E00F5F1F4F0F731127E02E8C8DFB
:10309000E8120BC00FB607FCFACFE889F9898081E6
:1030A00085FFF5CFCE01B8DFF2CF8B8DFE01E80FA3
:1030B000F11DE356FF4FF0820B8FEA89FB89808177
:1030C000806207C0EE89FF896083E889F989808181
:1030D0008064808381E090E0DF91CF911F910F9118
:1030E000FF90EF900895CF93DF93EC01888D8823B4
:1030F000C1F0EA89FB89808185FD05C0A889B9896D
:103100008C9186FD0EC00FB607FCF5CF808185FF40
:10311000F2CFA889B9898C9185FFEDCFCE017CDFF4
:10312000E8CFDF91CF91089580E090E0892B19F0EE
:103130006ADF81111BC080E090E0892B41F080E0C4
:1031400090E0892B21F00E940000811112C080E0E4
:1031500090E0892B19F04EDF81110EC080E090E0E5
:10316000892B79F03EDF81110AC008950E9400008A
:10317000E2CF0E940000EBCF0E940000EFCF0C9442
:10318000000008953FB7F8948091DB099091DC0925
:10319000A091DD09B091DE0926B5A89B05C02F3F9F
:1031A00019F00196A11DB11D3FBFBA2FA92F982F6D
:1031B0008827820F911DA11DB11DBC01CD0142E0E8
:1031C000660F771F881F991F4A95D1F708950895B4
:1031D0000E94E12B1F920F920FB60F9211240BB693
:1031E0000F922F933F934F935F936F937F938F93A0
:1031F0009F93AF93BF93EF93FF9383EA97E00CDF26
:10320000FF91EF91BF91AF919F918F917F916F91BE
:103210005F914F913F912F910F900BBE0F900FBE7A
:103220000F901F9018951F920F920FB60F921124B6
:103230000BB60F922F933F934F935F936F937F93B0
:103240008F939F93AF93BF93EF93FF9383EA97E09E
:1032500072DEFF91EF91BF91AF919F918F917F911E
:103260006F915F914F913F912F910F900BBE0F90F7
:103270000FBE0F901F9018951F920F920FB60F92CE
:1032800011240BB60F922F933F934F935F936F933D
:103290007F938F939F93AF93BF93EF93FF9386ECAE
:1032A00096E0BADEFF91EF91BF91AF919F918F9120
:1032B0007F916F915F914F913F912F910F900BBE36
:1032C0000F900FBE0F901F9018951F920F920FB680
:1032D0000F9211240BB60F922F933F934F935F934E
:1032E0006F937F938F939F93AF93BF93EF93FF93CE
:1032F00086EC96E020DEFF91EF91BF91AF919F9118
:103300008F917F916F915F914F913F912F910F908E
:103310000BBE0F900FBE0F901F9018951F920F922B
:103320000FB60F9211240BB60F922F933F934F932A
:103330005F936F937F938F939F93AF93BF93EF931D
:10334000FF938FE395E068DEFF91EF91BF91AF911E
:103350009F918F917F916F915F914F913F912F91AD
:103360000F900BBE0F900FBE0F901F9018951F92DD
:103370000F920FB60F9211240BB60F922F933F931B
:103380004F935F936F937F938F939F93AF93BF936D
:10339000EF93FF938FE395E0CEDDFF91EF91BF9127
:1033A000AF919F918F917F916F915F914F913F91DD
:1033B0002F910F900BBE0F900FBE0F901F9018957E
:1033C000362F90E0FC01EC55FD4F4491FC01E25B8F
:1033D000FD4F2491FC01E85FFD4F9491992309F47E
:1033E0006BC0442309F455C050E0FA013197E23133
:1033F000F10508F04EC08827EE58FF4F8F4F0C9410
:10340000C52B809180008F7707C0809180008F7DD1
:1034100003C080918000877F809380003AC084B58C
:103420008F7702C084B58F7D84BD33C08091B0009A
:103430008F7703C08091B0008F7D8093B00029C04A
:10344000809190008F7707C0809190008F7D03C09E
:1034500080919000877F809390001BC08091A00096
:103460008F7707C08091A0008F7D03C08091A0005E
:10347000877F8093A0000DC0809120018F7707C0C7
:10348000809120018F7D03C080912001877F8093F0
:103490002001E92FF0E0EE0FFF1FEC52FE4FA59147
:1034A000B4918FB7F894EC91311103C020952E237D
:1034B00001C02E2B2C938FBF08958F929F92AF92B5
:1034C000BF92CF92DF92EF92FF926B017C015ADEA6
:1034D0004B015C01C114D104E104F104E9F052DEB6
:1034E000DC01CB0188199909AA09BB09883E9340E0
:1034F000A105B10578F321E0C21AD108E108F1086D
:1035000088EE880E83E0981EA11CB11CC114D10462
:10351000E104F10421F7DECFFF90EF90DF90CF9030
:10352000BF90AF909F908F9008952FB7F8946091BF
:10353000D7097091D8098091D9099091DA092FBFE4
:1035400008951F920F920FB60F9211242F933F935D
:103550008F939F93AF93BF938091D7099091D80990
:10356000A091D909B091DA093091D60923E0230F4F
:103570002D3720F40196A11DB11D05C026E8230FAB
:103580000296A11DB11D2093D6098093D70990936F
:10359000D809A093D909B093DA098091DB099091F9
:1035A000DC09A091DD09B091DE090196A11DB11DD4
:1035B0008093DB099093DC09A093DD09B093DE09C9
:1035C000BF91AF919F918F913F912F910F900FBE1F
:1035D0000F901F9018951F920F920FB60F92112403
:1035E0000BB60F922F933F934F935F936F937F93FD
:1035F0008F939F93AF93BF93EF93FF93E0910E024E
:10360000F0910F021995FF91EF91BF91AF919F91AA
:103610008F917F916F915F914F913F912F910F907B
:103620000BBE0F900FBE0F901F9018951F920F9218
:103630000FB60F9211240BB60F922F933F934F9317
:103640005F936F937F938F939F93AF93BF93EF930A
:10365000FF93E0910C02F0910D021995FF91EF910B
:10366000BF91AF919F918F917F916F915F914F919A
:103670003F912F910F900BBE0F900FBE0F901F9098
:1036800018951F920F920FB60F9211240BB60F923E
:103690002F933F934F935F936F937F938F939F935A
:1036A000AF93BF93EF93FF93E0910202F091030277
:1036B0001995FF91EF91BF91AF919F918F917F915C
:1036C0006F915F914F913F912F910F900BBE0F9093
:1036D0000FBE0F901F9018951F920F920FB60F926A
:1036E00011240BB60F922F933F934F935F936F93D9
:1036F0007F938F939F93AF93BF93EF93FF93E0914B
:103700000002F09101021995FF91EF91BF91AF91E5
:103710009F918F917F916F915F914F913F912F91E9
:103720000F900BBE0F900FBE0F901F9018951F9219
:103730000F920FB60F9211240BB60F922F933F9357
:103740004F935F936F937F938F939F93AF93BF93A9
:10375000EF93FF93E0910A02F0910B021995FF910C
:10376000EF91BF91AF919F918F917F916F915F91F9
:103770004F913F912F910F900BBE0F900FBE0F9066
:103780001F9018951F920F920FB60F9211240BB62F
:103790000F922F933F934F935F936F937F938F93EA
:1037A0009F93AF93BF93EF93FF93E0910802F09143
:1037B00009021995FF91EF91BF91AF919F918F9160
:1037C0007F916F915F914F913F912F910F900BBE21
:1037D0000F900FBE0F901F9018951F920F920FB66B
:1037E0000F9211240BB60F922F933F934F935F9339
:1037F0006F937F938F939F93AF93BF93EF93FF93B9
:10380000E0910602F09107021995FF91EF91BF91A7
:10381000AF919F918F917F916F915F914F913F9168
:103820002F910F900BBE0F900FBE0F901F90189509
:103830001F920F920FB60F9211240BB60F922F9377
:103840003F934F935F936F937F938F939F93AF9328
:10385000BF93EF93FF93E0910402F0910502199555
:10386000FF91EF91BF91AF919F918F917F916F9158
:103870005F914F913F912F910F900BBE0F900FBE14
:103880000F901F9018958091D109882399F140914C
:1038900010025091110260911202709113022DE3F7
:1038A00033E080913D0590913E050ADA811102C016
:1038B00080E008954091D2095091D3096091D409D4
:1038C0007091D509411551056105710589F02DE308
:1038D00033E080913D0590913E05F2D9882341F374
:1038E0001092D2091092D3091092D4091092D509DE
:1038F0001092D10981E008958F929F92AF92BF926A
:10390000EF92FF920F931F93CF934B015C01C42F53
:103910008091100290911102A0911202B0911302B5
:1039200088159905AA05BB05F9F0ADDF811102C024
:1039300080E020C08DE3E82E83E0F82E00E012E066
:1039400020E030E0B501A40180913D0590913E0555
:103950000E945413882361F3809210029092110206
:10396000A0921202B09213028091D109C82BC09389
:10397000D10981E0CF911F910F91FF90EF90BF90FF
:10398000AF909F908F9008954F925F926F927F9229
:103990008F929F92AF92BF92CF92DF92EF92FF925F
:1039A0000F931F93CF93DF93EC016A017B012801F2
:1039B0003901423051056105710510F480E072C093
:1039C00089859A85AB85BC850196A11DB11D84179B
:1039D0009507A607B70790F38B889C88AD88BE88AB
:1039E0008F89803129F4BB27AF2D9E2D8D2D09C0E5
:1039F000DB01CA0147E0B695A795979587954A954B
:103A0000D1F7880E991EAA1EBB1E809110029091BC
:103A10001102A0911202B091130288169906AA060B
:103A2000BB0679F48F89803199F4DD24EE24FF24DC
:103A3000C601880F991FFC01E35CFC4F5182408254
:103A400018C040E0C501B40157DF8111EBCFB6CFFC
:103A5000E894C7F8DD24EE24FF24C601880F991FDF
:103A6000880F991FFC01E35CFC4F40825182628207
:103A700073828091D10981608093D1098A898230D3
:103A800080F08D819E81AF81B885880E991EAA1E17
:103A9000BB1E8092D2099092D309A092D409B09211
:103AA000D50981E0DF91CF911F910F91FF90EF90A9
:103AB000DF90CF90BF90AF909F908F907F906F904E
:103AC0005F904F9008958F929F92AF92BF92CF9246
:103AD000DF92EF92FF920F931F93CF93DF93FC013E
:103AE00081859285A385B4850196A11DB11D84179A
:103AF0009507A607B70710F480E05BC08389948917
:103B0000A589B689C789C03129F4852E962EA72E9E
:103B1000BB2409C04A015B01C7E0B694A7949794FF
:103B20008794CA95D1F7E9016A017B018F01BC0135
:103B3000CD01680D791D8A1D9B1D8090100290900B
:103B40001102A0901202B0901302681579058A053F
:103B50009B0599F4F80187898031A1F4B701A6018A
:103B6000552766277727440F551FFA01E35CFC4F62
:103B700080819181A0E0B0E017C040E0BDDE8111FE
:103B8000E9CFBACFB701A6014F7755276627772728
:103B9000440F551F440F551FFA01E35CFC4F808111
:103BA0009181A281B381BF7088839983AA83BB83EB
:103BB00081E0DF91CF911F910F91FF90EF90DF9007
:103BC000CF90BF90AF909F908F9008954F925F924B
:103BD0006F927F92AF92BF92CF92DF92EF92FF925D
:103BE0000F931F93CF93DF9300D01F92CDB7DEB713
:103BF0008C0149835A836B837C835901C12CD12C5E
:103C00007601412C82E0582E612C712C49815A8119
:103C10006B817C819E012F5F3F4FC80154DF882359
:103C200051F1D301C201F801058404C0880F991F26
:103C3000AA1FBB1F0A94D2F7C80ED91EEA1EFB1E8C
:103C400049815A816B817C818789803129F088EF95
:103C50009FEFAFEFBFE004C088EF9FEFA0E0B0E0C0
:103C6000481759076A077B0788F2F501C082D1829D
:103C7000E282F38281E00F900F900F900F90DF911E
:103C8000CF911F910F91FF90EF90DF90CF90BF9059
:103C9000AF907F906F905F904F900895CF93DF9398
:103CA000EC018D81882391F18C8187FF2CC06E857A
:103CB0007F858889998941E01FDE882339F1EA8967
:103CC00080E2E89FF0011124DF01A35CBC4F109754
:103CD000E9F08D81823050F44B895C896D897E8951
:103CE0005C964D935D936D937C935F978F89988DD0
:103CF000A98DBA8DE35CFC4F938F828FB58BA48B1B
:103D00008C818F778C83DF91CF91BDCD80E0DF9167
:103D1000CF9108952F923F924F925F926F927F9230
:103D20008F929F92AF92BF92CF92DF92EF92FF92CB
:103D30000F931F93CF93DF9300D01F92CDB7DEB7C1
:103D40008C015B011A01DC0115968C91159781306D
:103D5000C9F414968C9181FF15C082FF1BC0F80135
:103D6000438954896589768982859385A485B5853B
:103D700084179507A607B70769F0C8010E94800F4E
:103D8000811108C081E090E0F8019383828380E094
:103D900090E035C1610183C0D8015B968D919C9103
:103DA0005C97FC01248121502A013B0139E0769483
:103DB0006794579447943A95D1F7722E74207A01FC
:103DC000F1E0FF22772009F476C080E092E08E19BE
:103DD0009F0946018C159D0508F44C01D8015B969E
:103DE0002D913C915C9716968D919D910D90BC9173
:103DF000A02D0297A109B109F901058404C0880F1B
:103E0000991FAA1FBB1F0A94D2F746855785608960
:103E10007189840F951FA61FB71F9C01AD01270D47
:103E2000311D411D511D29013A01811432E09306D3
:103E300009F087C08091100290911102A0911202A6
:103E4000B091130284159505A605B70559F48FEFB7
:103E50009FEFDC018093100290931102A093120255
:103E6000B09313029501B301A20180913D05909199
:103E70003E050E946016882309F484CF9EEFB91A8C
:103E8000C818D908F80182859385A485B585880D61
:103E9000991DA11DB11D82879387A487B587D8017D
:103EA0001A964D915D916D917C911D97C114D1042D
:103EB00009F072CF84C0E114F10409F086CF1696A0
:103EC0004D915D916D917C91199741155105610559
:103ED000710559F457968D919D910D90BC91A02D2F
:103EE0000097A105B10539F520C09E012F5F3F4F16
:103EF000EADD882309F44CCF89819A81AB81BC81AA
:103F0000F801238D348DF9012789203129F048EFFC
:103F10005FEF6FEF7FE004C048EF5FEF60E070E0BD
:103F200084179507A607B70730F0C8010E9428112B
:103F300081114BCF27CFF80186839783A087B18764
:103F400044CFE114F10421F5D8011A964D915D9109
:103F50006D917C911D9753968D919D910D90BC9183
:103F6000A02D481759076A077B0790F08CDC88233F
:103F700009F408CF4092100250921102609212028E
:103F8000709213028091D10981608093D10907C09A
:103F900041E0C301B201B0DC882309F4F3CED501BE
:103FA000F701E35CFC4FCF01880D991DE817F90775
:103FB00019F02D912193FACFA80CB91C61CF53961B
:103FC0008D919D910D90BC91A02D84179507A6070A
:103FD000B70740F4F801438B548B658B768B848153
:103FE00080688483D80114968C9183FD02C0C1013E
:103FF00006C0C80153DE882309F4C4CEF8CF0F9061
:104000000F900F900F90DF91CF911F910F91FF9024
:10401000EF90DF90CF90BF90AF909F908F907F9068
:104020006F905F904F903F902F900895CF93DF93C4
:104030001F92CDB7DEB7698341E050E0BE016F5FEC
:104040007F4F68DE0F90DF91CF910895CF92DF927E
:10405000EF92FF920F931F93CF93DF936C017A013E
:104060008B01C0E0D0E0CE15DF0589F0D8016D915D
:104070008D01D601ED91FC910190F081E02DC601FA
:104080001995892B11F47E0102C02196ECCFC7014E
:10409000DF91CF911F910F91FF90EF90DF90CF9024
:1040A00008956115710579F0FB0101900020E9F791
:1040B0003197AF01461B570BDC01ED91FC9102805B
:1040C000F381E02D199480E090E00895CF93C82FFC
:1040D000482F60EE8FE00E94AA0A8FE00E94880AB3
:1040E000807E91E08C1301C090E0892FCF910895DC
:1040F0000F931F93CF93DF93082F162F80E591E046
:104100000E94E212CFEAD6E060E08E8159D982E0C7
:104110000E94A912802F0E94A912812F0E94A91229
:1041200061E08E814DD9DF91CF911F910F910C9459
:104130009E124F925F926F927F92EF92FF920F9337
:104140001F93CF93DF93CDB7DEB7A1970FB6F89447
:10415000DEBF0FBECDBF7C01FA01CB0119A2223018
:1041600008F42AE08E010F5D1F4F422E512C612C66
:10417000712CBF01A30192010E940F2BF901CA010A
:10418000015011096A3014F4605D01C0695CD80106
:104190006C93232B242B252B61F7B801C70181DFFA
:1041A000A1960FB6F894DEBF0FBECDBFDF91CF91C1
:1041B0001F910F91FF90EF907F906F905F904F90C5
:1041C00008950F931F93CF93DF93EC016ADF8C0167
:1041D0006AEB72E0CE0165DF800F911FDF91CF9116
:1041E0001F910F910895EF92FF920F931F93CF931A
:1041F000DF938C017B01C0E0D0E0F701EC0FFD1FE5
:104200006491662361F0D801ED91FC910190F081F9
:10421000E02DC8011995892B11F02196EECF6AEB9C
:1042200072E0C8013EDF8C0F9D1FDF91CF911F917F
:104230000F91FF90EF90089534CFCF93DF93CDB7D8
:10424000DEB7C95CD1090FB6F894DEBF0FBECDBF93
:10425000789484B5826084BD84B5816084BD85B561
:10426000826085BD85B5816085BD80916E0081606D
:1042700080936E0010928100809181008260809313
:104280008100809181008160809381008091800015
:104290008160809380008091B10084608093B10040
:1042A0008091B00081608093B00080919100826025
:1042B0008093910080919100816080939100809122
:1042C00090008160809390008091A1008260809333
:1042D000A1008091A10081608093A1008091A00045
:1042E00081608093A00080912101826080932101F0
:1042F0008091210181608093210180912001816062
:104300008093200180917A00846080937A0080916C
:104310007A00826080937A0080917A008160809335
:104320007A0080917A00806880937A001092C100B0
:104330001092AB061092AC061092AD061092AE062B
:104340001092690610926A0610926B0610926C0623
:1043500068EB7BE080E090E00E94EE098FE395E05F
:104360009093AA068093A90640E855E260E070E0C9
:104370000E94D90ADAD86093690670936A0680931E
:104380006B0690936C066FE772E08091A90690919E
:10439000AA0652DF6AE070E080E090E00E94EE0939
:1043A00081E080937D0640E855E260E070E08FE3B5
:1043B00095E00E94D90A64E670E080E090E07DD844
:1043C00010922906109227061092240610922306B6
:1043D00084E080932206A9D88B01809122060E9456
:1043E000A80961E0809122060E94E0190E946917E5
:1043F00082E580931C0610921D0680911C06909108
:104400001D060E94E212EAE0FE2E8FEF0E94A91222
:10441000FA94F110FACF0E949E128EE196E00E946B
:10442000E51220E030E0A90160E08EE196E00E9414
:10443000F912F82E8093280631E0831741F075D8E1
:10444000601B710B613D774060F381E055C02AEA43
:1044500031E040E050E068E08EE196E00E94F91221
:1044600082FF03C0F092290610C074E0F72E0E946C
:10447000B01280932806FA94F110F9CF8A3A11F01D
:1044800082E03AC082E0809329068091290682303A
:1044900021F0C12CD12C760105C0C12CD12CE12CEE
:1044A00060E4F62E20E030E0A90167E38EE196E0BB
:1044B0000E94F912A701960169E28EE196E00E943E
:1044C000F91280932806882341F02FD8601B710BC6
:1044D000613D774038F388E00FC080912906823033
:1044E00001F520E030E0A9016AE38EE196E00E9448
:1044F000F912882341F086E0809323068EE196E04E
:104500000E949F12BEC40E94B012807C803C19F4AD
:1045100083E0809329060E94B0120E94B0120E948C
:10452000B0128EE196E00E949F1280E580931C06F7
:1045300010921D0681E00E94310C882329F08091A1
:104540004D06882341F09DC480E00E94310C8823F1
:1045500009F493C3F4CF80914106803109F582E0DC
:1045600080934D0610925F061092600610926106CD
:10457000109262068091420690914306A0E0B0E05E
:1045800055E0880F991FAA1FBB1F5A95D1F780933A
:104590005B0690935C06A0935D06B0935E061EC01A
:1045A000803209F06EC483E080934D06409144064A
:1045B00050914506609146067091470640935F060C
:1045C0005093600660936106709362062BE536E0B7
:1045D0008AE296E0FBDA882309F453C48AE296E083
:1045E000909364068093630681E080934C0610925A
:1045F0004E0610924F0610925006109251061092DD
:1046000052061092530610925406109255061092BC
:10461000560610925706109258061092590610929C
:104620005A0661E972E082EE92E00E940F2C63E983
:1046300072E082EE92E00E94F92B62EB72E082EE71
:1046400092E00E94F92B41E061E972E0CE018D56C3
:104650009F4F0E94400BCE0188589F4F0E94211708
:104660007E015BEBE50EF11CD7011D921D921D92A0
:104670001C92139714961C92C701CAD66C018E0126
:10468000055A1F4FF8013C965F0139E5832E32E051
:10469000932E4EE2542EC455DF4F68807980CC5A59
:1046A000D040D30115968C91823008F471C0F3018B
:1046B00082859385A485B5858F719927AA27BB2705
:1046C000892B8A2B8B2B09F063C040E250E0BE019E
:1046D0006F5F7F4FC3010E94DF13803209F058C023
:1046E0008981882309F454C0853E79F38E3269F3B9
:1046F0008C8583FDEACF22961FAE1EAE22979FAE19
:104700008EAE24961FAE2497FE01319690E080E095
:104710002191203291F0883041F4AEEAB0E0AC0F44
:10472000BD1FA90FB11D5C929F5FAEEAB0E0AC0F58
:10473000BD1FA90FB11D2C939F5F8F5F8B3041F779
:10474000EEEAF0E0EC0FFD1FE90FF11D1082C455F9
:10475000DF4F68817981CC5AD04021E0AE014255CB
:104760005F4FCE01CE960E94F814882389F0BE01D7
:10477000625C7F4FCE0181960E94BF16AE0142550A
:104780005F4FBE016F5D7F4FC8010E94341703C0A9
:10479000C8010E942117D80112968D919C91139700
:1047A000EC969FAF8EAFEC9714968D919D910D90E6
:1047B000BC91A02DC458DF4F88839983AA83BB8303
:1047C000CC57D040F80180859185A285B385C0582B
:1047D000DF4F88839983AA83BB83C058D0408DE084
:1047E000F501A8E7B0E0AC0FBD1F1C9601900D923B
:1047F0008A95E1F7D8015996ED91FC915A97CF56D9
:10480000DF4FF983E883C159D040309739F0858173
:10481000882321F0823008F01FC33DCFBFEFCB1AB1
:10482000DB0AB60124E0EAE0F0E0161617062CF4E5
:10483000CB01BF0197D72150F8CFF70190E38E2F1E
:104840008E19821710F49193FACF243031F0B7010A
:10485000620F711D4AE0C601F8D5CE018D569F4FFB
:104860000E941017CE0188589F4F0E941017B70161
:1048700082EE92E0BED7F8011382128289E592E0BF
:1048800091838083158222961FAE1EAE22979FAF22
:104890008EAF24961FAE2497E12CF12CC02EB12EA2
:1048A00008E416E04C0184E0A82E90E2D92E9E0187
:1048B000245F3F4FC054DF4F39832883C05CD04012
:1048C00020E4222E312C412C512CC701F701EE514E
:1048D000FD4F20812F3209F40196FE01E255FF4F72
:1048E00020E030E0DC01AE51BD4F4C914F3249F039
:1048F000442339F02F5F3F4F019641932C3031050F
:1049000089F7EEEAF0E0EC0FFD1FE20FF31F1082D3
:10491000FC01EE51FD4F20812F3209F401967C01FC
:10492000FC01EE51FD4F3081CC53DF4F3883C45C26
:10493000D0401CA21BA29AA289A21EA21C821B828A
:104940009A8289821E8221E0AE0142555F4FB801F2
:10495000CE0101960E94F814882329F0CE01019619
:104960000E941C11C4C023E3AE0142555F4FB80141
:10497000CE0181960E94F814882309F4B3C081E027
:104980008DA3AEA2CE0181960E942B12882309F43A
:10499000A9C0CE01819682D9882309F4A3C06FA54E
:1049A00078A989A99AA941E00E947C1C882309F46E
:1049B00099C08BA940E2849FC0011124835C9C4F65
:1049C000009709F48FC0E0E1DC011B96EC93FC0139
:1049D000DE0111962D2D01900D922A95E1F7DC0153
:1049E00054960D90BC91A02DCE53DF4FB983A88370
:1049F000C25CD040FC01628C738CFE013296D19275
:104A0000C054DF4F28813981C05CD040E217F307E2
:104A1000B1F72EE22983ECADFDAD88AD99ADAAAD1D
:104A2000BBAD0297A109B109058404C0880F991F85
:104A3000AA1FBB1F0A94D2F74685578560897189E2
:104A4000840F951FA61FB71F41E0BC01CD01CB53BA
:104A5000DF4F2883C55CD0400E947C1CCB53DF4FC6
:104A60002881C55CD0408823E9F1CE53DF4F6881AF
:104A70007981C25CD0407E8B6D8B7C8E6B8EFE010B
:104A80003196ADE3B3E08D2D01900D928A95E1F75B
:104A90002A83D80115968C9115978250823048F060
:104AA00057964D915D916D917C915A97CA019B01EA
:104AB00004C080E090E020E030E03E8B2D8B9C8FA6
:104AC0008B8FFE013196ADE5B3E08D2D01900D92F7
:104AD0008A95E1F72BA63CA64DA65EA60E94431C34
:104AE000811105C0B6E008341B0739F529C0CC5345
:104AF000DF4F3881C45CD0403323D9F021E0AE01D0
:104B000042555F4FB8018C2D9B2D0E94F814682EE2
:104B100046E00834140709F4B6C1C8010E941C110C
:104B2000662071F0902F812F0C2D1B2DC92EB82ED1
:104B3000CCCE56E00834150719F0C8010E941C11AC
:104B400061E972E082EE92E054D661E272E08CEEAE
:104B500092E065D643E162EE72E0CE0101960E94DA
:104B6000400B8B819C81EC969FAF8EAFEC978D8133
:104B70009E81AF81B885C458DF4F88839983AA830B
:104B8000BB83CC57D04089859A85AB85BC85C058FE
:104B9000DF4F88839983AA83BB83C058D0408DE0C0
:104BA000FE013D96A8E7B0E0AC0FBD1F1C9601903A
:104BB0000D928A95E1F78A8D9B8DCF56DF4F9983B1
:104BC0008883C159D04061E371E0CE0188589F4F7E
:104BD0000ADBCE0188589F4F0E9410176AE172E0ED
:104BE0008CEE92E01CD643E162EE72E0CE010196BB
:104BF0000E94400B8B819C81EC969FAF8EAFEC970F
:104C00008D819E81AF81B885C458DF4F8883998399
:104C1000AA83BB83CC57D04089859A85AB85BC8558
:104C2000C058DF4F88839983AA83BB83C058D04084
:104C30008DE0FE013D96A8E7B0E0AC0FBD1F1C96CD
:104C400001900D928A95E1F78A8D9B8DCF56DF4FAB
:104C500099838883C159D04068E071E0CE018858BB
:104C60009F4FC1DACE0188589F4F0E9410176CEBFE
:104C700072E08CEE92E0D3D581E08093E10288234C
:104C800049F081E08093DE0282EE92E09093DD02B3
:104C90008093DC0289E392E090930B0280930A02F6
:104CA000809169008F73806880936900EB9A0E94FD
:104CB000691780E591E00E94E21260E08091B506FC
:104CC0000E94E01980EC0E94A91261E08091B50673
:104CD0000E94E0190E949E126AE070E080E090E07D
:104CE0000E945D1A80E8F2D9882361F06AE070E0E2
:104CF00080E090E00E945D1A6BEB71E08FE395E03D
:104D000072DAA2C06AE070E080E090E00E945D1A72
:104D100060E08AE2EDD960ED89E2EAD962E888E2F2
:104D2000E7D96AE070E080E090E00E945D1A10E34D
:104D300060E0812FDDD960E080E1810FD9D960E0AA
:104D400080E2810FD5D91F5F1E3391F760E080E6C6
:104D5000CFD960E080E7CCD963E08BE2C9D944E0E9
:104D600064E680E60E94AA0A40E060E680E70E94CE
:104D7000AA0A80E0ABD98111B9CF6AE070E080E087
:104D800090E00E945D1A6FE971E08FE395E02BDA05
:104D900000E010E021E040E253E067E972E08FE5D7
:104DA00095E00E94600D0FED12E020E044E650E037
:104DB0006FE972E082E195E00E94600D813009F0B8
:104DC00044C0F8942FEF3FEF3093DB022093DA02D8
:104DD000809339031092D9021092D80287BD809136
:104DE0006E00826080936E00A0913A03B0913B0305
:104DF000CD91CDBFDD91DEBFFF91EF91DF91CF91DE
:104E0000BF91AF919F918F917F916F915F914F91E2
:104E10003F912F911F910F91FF90EF90DF90CF90D6
:104E2000BF90AF909F908F907F906F905F904F90CA
:104E30003F902F901F900F900CBE0F900BBE0F90C5
:104E40000FBE0F90089505C0FFCF811102C00E94D0
:104E50006F020E949418FDCFE2EEF2E00190002074
:104E6000E9F7CF01885D924068E770E06C0F7D1F25
:104E7000860F971FCDD2C816D9060CF006CC6C0150
:104E800004CC80E0FACE882309F45ACE8E01025C6D
:104E90001F4F48CE86E890E00E944005FC01009735
:104EA00011F40E946F024F969183808321E0238F3B
:104EB00026E6248F0FB6F8940F929F012B573F4F91
:104EC00033832283128E95838483978386838FEF27
:104ED000858F868FCF010B96928781872FEF3FEFCB
:104EE0003487238796878587908B878710860996D6
:104EF000938B828B358B248B978B868B918F808FB6
:104F0000118A0F900FBECF010895BF92CF92DF920A
:104F1000EF92FF920F931F93CF93DF9303EA17E073
:104F2000D80113961C921E92129748EE53E060E04F
:104F300070E0E8014C835D836E837F8385E392E0BC
:104F40009983888325E331E03D872C8724E331E092
:104F50003F872E8720E331E0398B288B21E331E036
:104F60003B8B2A8B22E331E03D8B2C8B26E331E017
:104F70003F8B2E8B198E1A8E1B8E1C8EC6ECD6E0A4
:104F80001B821A824C835D836E837F83998388831F
:104F900025ED30E03D872C8724ED30E03F872E87DC
:104FA00020ED30E0398B288B21ED30E03B8B2A8BD4
:104FB00022ED30E03D8B2C8B26ED30E03F8B2E8BAD
:104FC000198E1A8E1B8E1C8EEFE3F5E0138212826F
:104FD00044835583668377839183808385EC90E057
:104FE0009587848784EC90E09787868780EC90E0B3
:104FF000918B808B81EC90E0938B828B82EC90E0A4
:10500000958B848B86EC90E0978B868B118E128E1D
:10501000138E148EECE1F6E080E580831182EEE1E0
:10502000F6E0158216821186138682E090E0A0E0F9
:10503000B0E084879587A687B78713A215A614A624
:1050400089E592E093A782A717A6E7E6F6E0168225
:105050001782108611861286138614861586168688
:105060001786108A118A128A138A148A158A12DF07
:105070009093CE098093CD090DDF9093CC09809356
:10508000CB09E9EBF8E0108212830183109220092A
:1050900080E2B82EE2E2F9E0DF018B2D1D928A95C5
:1050A000E9F740E05BE460E070E0C8010E94D90AE3
:1050B00094EFC92EDD24D394E12CF12CD801149661
:1050C000CD92DD92ED92FC921797109221091092E9
:1050D000940810929508109296081092970811E083
:1050E00010934209D0934409C09343091092A9092F
:1050F000EBEAF9E0DF011D92BA94E9F740E05BE4E6
:1051000060E070E0CE010E94D90ACC82DD82EE829E
:10511000FF821092AA09E8E9F8E0108286E3818311
:1051200087E3828388E0ABE9B8E0ED01982F19921C
:105130009A95E9F7138798E3948799E39587A6EA08
:10514000B8E0ED01982F19929A95E9F792E0968BC5
:105150009AE3978B9BE3908FE1EBF8E0DF011D92E0
:105160008A95E9F7E9EBF6E081E292E091838083AA
:10517000138212821482158216821782108611867B
:10518000128613861486CFEAD6E0198683E998E062
:1051900098878F8380E38E830E94A80961E08E81C7
:1051A000DF91CF911F910F91FF90EF90DF90CF9003
:1051B000BF900C94E019CF93DF938230910510F4E7
:1051C00082E090E0E091E109F091E20920E030E036
:1051D000C0E0D0E0309711F1408151814817590764
:1051E000C0F04817590761F482819381209719F024
:1051F0009B838A832BC09093E2098093E10926C0A8
:105200002115310519F04217530718F49A01BE0110
:10521000DF01EF010280F381E02DDCCF21153105A4
:1052200009F1281B390B2430310590F412968D9129
:105230009C9113976115710521F0FB019383828383
:1052400004C09093E2098093E109FD01329644C0C5
:10525000FD01E20FF31F81939193225031092D93A9
:105260003C933AC02091DF093091E009232B41F4AF
:1052700020911602309117023093E0092093DF0944
:1052800020911402309115022115310541F42DB7FA
:105290003EB74091180250911902241B350BE09142
:1052A000DF09F091E009E217F307A0F42E1B3F0B92
:1052B0002817390778F0AC014E5F5F4F2417350788
:1052C00048F04E0F5F1F5093E0094093DF09819330
:1052D000919302C0E0E0F0E0CF01DF91CF9108951B
:1052E0000F931F93CF93DF93009709F48CC0FC01B9
:1052F0003297138212820091E1091091E20901159F
:10530000110581F420813181820F931F2091DF09E3
:105310003091E0092817390779F5F093E009E09317
:10532000DF0971C0D80140E050E0AE17BF0750F46C
:1053300012962D913C911397AD012115310509F17C
:10534000D901F3CF9D01DA0133832283608171811A
:10535000860F971F8217930769F4EC012881398122
:10536000260F371F2E5F3F4F318320838A819B8119
:1053700093838283452B29F4F093E209E093E109BA
:1053800042C01396FC93EE931297ED014991599107
:105390009E01240F351FE217F30771F4808191817C
:1053A000840F951F029611969C938E938281938110
:1053B00013969C938E931297E0E0F0E0D80112963A
:1053C0008D919C911397009719F0F8018C01F6CFFD
:1053D0008D919C9198012E5F3F4F820F931F2091DA
:1053E000DF093091E0092817390769F4309729F46B
:1053F0001092E2091092E10902C013821282109306
:10540000E0090093DF09DF91CF911F910F9108957B
:10541000FC0188279927E89421912032E9F329306B
:1054200010F02E30C8F32B3239F02D3231F468945D
:1054300003C015D0820F911D219120532A30C8F34B
:105440001EF4909581959F4F0895BB274A3031F403
:10545000992322F4BDE2909581959F4F2AC07AE06E
:10546000979F902D879F802D910D11240895BB2724
:10547000FA01A62F6217710581059105330B30FBE8
:1054800066F0AA27660F771F881F991FAA1FA21709
:1054900010F0A21B63953850A9F7A05DAA3308F05D
:1054A000A95DA19336F7B111B1931082CA0119C059
:1054B000BB27FB015527AA27880F991FAA1FA417EE
:1054C00010F0A41B83955051B9F7A05DAA3308F0E2
:1054D000A95DA193009779F7B111B1931192CB0116
:1054E00000C0DC01FC01672F71917723E1F732974F
:1054F00004C07C916D9370836291AE17BF07C8F3AF
:105500000895E89409C097FB3EF4909580957095B6
:1055100061957F4F8F4F9F4F9923A9F0F92F96E9FF
:10552000BB279395F695879577956795B795F11174
:10553000F8CFFAF4BB0F11F460FF1BC06F5F7F4F11
:105540008F4F9F4F16C0882311F096E911C0772323
:1055500021F09EE8872F762F05C0662371F096E82C
:10556000862F70E060E02AF09A95660F771F881FFB
:10557000DAF7880F9695879597F9089597F99F67B9
:1055800080E870E060E008959FEF80EC08950024CB
:105590000A941616170618060906089500240A9498
:1055A00012161306140605060895092E0394000C1E
:1055B00011F4882352F0BB0F40F4BF2B11F460FFAD
:1055C00004C06F5F7F4F8F4F9F4F089557FD9058D6
:1055D000440F551F59F05F3F71F04795880F97FBB7
:1055E000991F61F09F3F79F0879508951216130671
:1055F0001406551FF2CF4695F1DF08C016161706A0
:105600001806991FF1CF86957105610508940895D4
:10561000E894BB2766277727CB0197F90895A1E285
:105620001A2EAA1BBB1BFD010DC0AA1FBB1FEE1F1C
:10563000FF1FA217B307E407F50720F0A21BB30B67
:10564000E40BF50B661F771F881F991F1A9469F7E3
:1056500060957095809590959B01AC01BD01CF013F
:10566000089509D0A59F900DB49F900DA49F800D23
:10567000911D11240895A29FB001B39FC001A39F63
:10568000700D811D1124911DB29F700D811D11247B
:10569000911D08950CD089CF81DF40F078DF30F084
:1056A00021F45F3F19F06ACF5111B3CF6DCF8EDF78
:1056B00098F39923C9F35523B1F3951B550BBB27D9
:1056C000AA2762177307840738F09F5F5F4F220F86
:1056D000331F441FAA1FA9F333D00E2E3AF0E0E87F
:1056E00030D091505040E695001CCAF729D0FE2FCB
:1056F00027D0660F771F881FBB1F2617370748075D
:10570000AB07B0E809F0BB0B802DBF01FF27935812
:105710005F4F2AF09E3F510568F030CF7ACF5F3F50
:10572000ECF3983EDCF3869577956795B795F795FA
:105730009F5FC9F7880F911D9695879597F90895F2
:10574000E1E0660F771F881FBB1F6217730784078E
:10575000BA0720F0621B730B840BBA0BEE1F88F79D
:10576000E095089597FB072E16F4009406D077FD78
:1057700008D013D007FC05D03EF4909581959F4F3B
:105780000895709561957F4F0895EE0FFF1F881F54
:105790008BBF0790F691E02D1994AA1BBB1B51E11A
:1057A00007C0AA1FBB1FA617B70710F0A61BB70B91
:1057B000881F991F5A95A9F780959095BC01CD0136
:1057C000089581E090E0F89440C0FB01DC0104C042
:1057D0008D910190801921F441505040C8F7881BE9
:1057E000990B0895DC0101C06D9341505040E0F7E2
:1057F0000895FB01DC010D900020E9F7119701905D
:105800000D920020E1F70895FC018191861721F0A7
:105810008823D9F7992708953197CF010895FB017F
:10582000DC0101900D920020E1F70895FB01DC01FD
:105830004150504048F001900D920020C9F701C03E
:0E5840001D9241505040E0F70895F894FFCFBC
:10584E00E718E718E718E718E718E718E718E71852
:10585E00FFFFFFFF0000E309800043532E747874AE
:10586E000046432E74787400040810304050041023
:10587E0040000000002D182620B4177318E517C33A
:10588E0017D71700000000E8182620590F580FE808
:10589E0018E818E8180000000016202620590F58A6
:1058AE000F00000000E8182620590F580F000000C6
:1058BE0000420F640F590F5C0F210F2F163816562A
:1058CE004D4450565F317C315F564D4450560D0A53
:1058DE00002F004C4F470043414E206C6121004980
:1058EE00444C45007C005F564D44504500564D4497
:1058FE0050435F005F564D4450430D0A00464149E8
:10590E004C2053454E440053454E5400564D445082
:08591E00455F003A323A000037
:00000001FF
