:1000000010C200000C943C170C9411170C94E616C7
:100010000C94BB160C9490160C9465160C943A161E
:100020000C940F162FC200002DC200002BC200003E
:100030000C94702727C2000025C2000023C20000D4
:1000400021C200001FC200001DC200001BC2000030
:1000500019C2000017C2000015C200000C94C5159B
:1000600011C200000C9419110C94F0100BC2000086
:1000700009C2000007C2000005C2000003C2000060
:1000800001C20000FFC10000FDC10000FBC1000073
:10009000F9C10000F7C10000F5C10000F3C1000084
:1000A000F1C10000EFC10000EDC10000EBC1000094
:1000B000E9C10000E7C10000E5C10000E3C10000A4
:1000C000E1C10000DFC10000DDC100000C94C710D9
:1000D0000C949E10D7C100000C9475100C944C1019
:1000E000D1C100004615491538153C15401580153D
:1000F0004D15511557155B155F15651569156D156E
:100100008015731577157B15F431F431F431C03156
:1001100015322232F431F431C031153200407A10F8
:10012000F35A00A0724E18090010A5D4E80000E8A8
:100130007648170000E40B54020000CA9A3B000006
:1001400000E1F505000080969800000040420F0095
:100150000000A08601000000102700000000E80356
:10016000000000006400000000000A000000000021
:100170000100000000002C76D888DC674F0823DFE0
:10018000C1DFAE59E1B1B796E5E3E453C63AE651B3
:10019000997696E8E6C28426EB898C9B62ED407CDA
:1001A0006FFCEFBC9C9F40F2BAA56FA5F490055A76
:1001B0002AF75C936B6CF9676DC11BFCE0E40D479B
:1001C000FEF520E6B500D0ED902E030094357705BE
:1001D0000080841E080000204E0A000000C80C3376
:1001E0003333330F986E12831141EF8D2114893B05
:1001F000E65516CFFEE6DB18D1844B381BF77C1D85
:10020000901DA4BBE424203284725E228100C9F1D7
:1002100024ECA1E53D27094D696C6C6973092056F2
:100220005F634920415F63490920565F634F204166
:100230005F634F0920565F4D5420415F4D540009C4
:100240004D696C6C6973092020565F6D2020415FF9
:100250006D202020575F6D20202057685F6D546D02
:10026000705F6D20507265735F6D20566361705FC3
:100270006D2053746174655F6D092020565F732093
:1002800020415F73202020575F7320202057685F34
:1002900073546D705F7320507265735F7320566383
:1002A00061705F732053746174655F730000002296
:1002B00000250028002B002E003100340002010030
:1002C00000050108010B0100002100240027002A7D
:1002D000002D003000330001010000040107010A75
:1002E0000105050505070508080808020202020ABB
:1002F0000A080804040404010101010101010103C9
:1003000003030303030303040707070C0C0C0C0C83
:100310000C0C0C0202020206060606060606060B76
:100320000B0B0B0B0B0B0B010210202008081020ED
:100330004010204080020102010804020101020471
:100340000810204080804020100804020180040230
:100350000180402010080402010804020101020487
:100360000810204080010204081020408000000A8C
:100370000B02090C0D0E0807030401000000000029
:10038000000000000000000000000000000000006D
:10039000000000000000000000121110000000002A
:1003A000000000000000000000000000000000004D
:1003B0000000007C3C3E5E2B3D3F2F5B5D3B2C2ACA
:1003C000225C00008091690A882309F10FB6F89435
:1003D0000F92E0918903F0918A03C681D781CE0103
:1003E00002960E9472278091BD0381508093BD03C5
:1003F0008091690A81508093690A0F900FBE8F899E
:10040000988D0E94C228CE010E94C228DBCF809125
:100410009603823010F00E94B7270E94550ED2CF6B
:10042000752C11241FBECFEFD1E2DEBFCDBF00E09F
:100430000CBF2AE0AAE4B3E001C01D92AB37B207BB
:10044000E1F713E0A0E0B2E0E8E4F3E700E00BBF7F
:1004500002C007900D92AA34B107D9F712E0C1E1AA
:10046000D2E000E006C021970109802FFE010E9422
:100470000338C031D10780E00807A9F70E946F2B2D
:100480000C94A239BDCD2F923F924F925F926F9202
:100490007F928F929F92AF92BF92CF92DF92EF9214
:1004A000FF920F931F93CF93DF93CDB7DEB7C95C55
:1004B000D1090FB6F894DEBF0FBECDBF109256071C
:1004C000109257071092580710925907109214076C
:1004D00010921507109216071092170768EB7BE031
:1004E00080E090E00E948A118AEE95E09093550793
:1004F0008093540740E855E260E070E00E94A51345
:100500000E94B9156093140770931507809316071E
:100510009093170765E872E0809154079091550712
:100520000E944B106AE070E080E090E00E948A1127
:1005300081E08093280740E855E260E070E08AEEB1
:1005400095E00E94A5130E9494154B015C01E4E61E
:10055000CE2ED12CE12CF12C0E949415DC01CB0184
:1005600088199909AA09BB09883E9340A105B105DC
:1005700058F021E0C21AD108E108F10838EE830EE4
:1005800033E0931EA11CB11CC114D104E104F10499
:1005900019F71092D4061092D2061092CF0610923C
:1005A000CE0684E08093CD060E94B9156B017C01D4
:1005B0008091CD060E94861361E08091CD060E9455
:1005C00017151FB7F89480914A03811124C0E6E102
:1005D000F3E08491ECE5F3E09491E82FF0E0EE0F86
:1005E000FF1FE953FD4FA591B491EC91E92321F44C
:1005F00061E085E30E94171585E30E9486138CB5A0
:1006000080618CBD8CB580648CBD84E30E948613B0
:1006100083E30E94861380914A038F5F80934A038D
:100620001FBF82E58093C7061092C8068091C70657
:100630009091C8060E94101C1AE08FEF0E94D71BF1
:100640001150D9F789EC96E00E94131C20E030E0AD
:10065000A90160E089EC96E00E94271C182F809386
:10066000D306813049F00E94B9156C197D09613DAE
:10067000774060F381E054C02AEA31E040E050E086
:1006800068E089EC96E00E94271C82FF03C010936B
:10069000D4060EC014E00E94DE1B8093D3061150D6
:1006A000D1F78A3A11F082E03BC082E08093D40611
:1006B0008091D406823021F0812C912C540105C008
:1006C000812C912CA12C60E4B62E20E030E0A90111
:1006D00067E389EC96E00E94271CA501940169E27A
:1006E00089EC96E00E94271C8093D306882349F06A
:1006F0000E94B9156C197D09613D774030F388E09F
:100700000FC08091D406823001F520E030E0A901CD
:100710006AE389EC96E00E94271C882341F086E07A
:100720008093CE0689EC96E00E94CD1B15C40E94F2
:10073000DE1B807C803C19F483E08093D4060E9409
:10074000DE1B0E94DE1B0E94DE1B89EC96E00E94ED
:10075000CD1B80E58093C7061092C80681E00E94F9
:10076000850E882329F08091F806882341F0F4C390
:1007700080E00E94850E882309F499C3F4CF80910C
:10078000EC06803109F582E08093F80610920A07A2
:1007900010920B0710920C0710920D078091ED0636
:1007A0009091EE06A0E0B0E055E0880F991FAA1FD7
:1007B000BB1F5A95D1F78093060790930707A09324
:1007C0000807B09309071EC0803209F0C5C383E053
:1007D0008093F8064091EF065091F0066091F10683
:1007E0007091F20640930A0750930B0760930C0731
:1007F00070930D0726E037E085ED96E05BD5882302
:1008000009F4AAC385ED96E090930F0780930E0735
:1008100081E08093F7061092F9061092FA06109282
:10082000FB061092FC061092FD061092FE06109236
:10083000FF06109200071092010710920207109213
:100840000307109204071092050767E972E08FE42E
:1008500093E00E948C3969E972E08FE493E00E9492
:10086000763965ED72E08FE493E00E94763941E0DD
:1008700067E972E0CE018D569F4F0E940C14CE01A5
:1008800088589F4F0E9407257E019BEBE90EF11CC3
:10089000D7011D921D921D921C92139714961C92C3
:1008A000C7010E945F326C018E01055A1F4FF8018B
:1008B0003C965F0130E5832E32E0932E4EE2542EBB
:1008C000C455DF4F68807980CC5AD040D30115964B
:1008D0008C91823008F470C0F30182859385A485E1
:1008E000B5858F719927AA27BB27892B8A2B8B2B3C
:1008F00009F062C040E250E0BE016F5F7F4FC3016C
:10090000ADD7803209F058C08981882309F454C0DA
:10091000853E81F38E3271F38C8583FDEBCF229679
:100920001FAE1EAE22979FAE8EAE24961FAE2497AA
:10093000FE01319690E080E02191203291F08830E4
:1009400041F4AEEAB0E0AC0FBD1FA90FB11D5C923F
:100950009F5FAEEAB0E0AC0FBD1FA90FB11D2C9395
:100960009F5F8F5F8B3041F7EEEAF0E0EC0FFD1FE9
:10097000E90FF11D1082C455DF4F68817981CC5A8F
:10098000D04021E0AE0142555F4FCE01CE960E948D
:100990008D1A882389F0BE01625C7F4FCE0181965B
:1009A0000E946C1DAE0142555F4FBE016F5D7F4FCF
:1009B000C8010E941A2503C0C8010E940725D8015A
:1009C00012968D919C911397EC969FAF8EAFEC97FA
:1009D00014968D919D910D90BC91A02DC458DF4F20
:1009E00088839983AA83BB83CC57D040F801808544
:1009F0009185A285B385C058DF4F88839983AA83E8
:100A0000BB83C058D0408DE0F501A8E7B0E0AC0F43
:100A1000BD1F1C9601900D928A95E1F7D801599659
:100A2000ED91FC915A97CF56DF4FF983E883C15976
:100A3000D040309739F08581882321F0823008F04A
:100A400075C23ECFBFEFCB1ADB0AB60124E0EAE065
:100A5000F0E01616170634F4CB01BF010E94F03700
:100A60002150F7CFF70190E38E2F8E19821710F4E3
:100A70009193FACF243039F0B701620F711D4AE02B
:100A8000C6010E948432CE018D569F4F0E94BD1D2B
:100A9000CE0188589F4F0E94BD1DB7018FE493E09F
:100AA0000E947639F8011382128280E592E09183E8
:100AB0008083158222961FAE1EAE22979FAF8EAF07
:100AC00024961FAE2497E12CF12CC02EB12E03EFFB
:100AD00016E04C0184E0A82E90E2D92E9E01245FFE
:100AE0003F4FC054DF4F39832883C05CD04020E49F
:100AF000222E312C412C512CC701F701E15BFC4F18
:100B000020812F3209F40196FE01E255FF4F20E0CB
:100B100030E0DC01A15BBC4F4C914F3249F04423E3
:100B200039F02F5F3F4F019641932C30310589F703
:100B3000EEEAF0E0EC0FFD1FE20FF31F1082FC0164
:100B4000E15BFC4F20812F3209F401967C01FC010E
:100B5000E15BFC4F3081CC53DF4F3883C45CD04025
:100B60001CA21BA29AA289A21EA21C821B829A828C
:100B700089821E8221E0AE0142555F4FB801CE014D
:100B800001960E948D1A882329F0CE0101960E94B9
:100B90000B19C1C023E3AE0142555F4FB801CE012E
:100BA00081960E948D1A882309F4B0C081E08DA33C
:100BB000AEA2CE0181960E941A1A882309F4A6C01B
:100BC000CE018196DFD3882309F4A0C06FA578A950
:100BD00089A99AA941E004D2882309F497C08BA976
:100BE00040E2849FC001112482549C4F009709F475
:100BF0008DC0E0E1DC011B96EC93FC01DE01119657
:100C00002D2D01900D922A95E1F7DC0154960D905F
:100C1000BC91A02DCE53DF4FB983A883C25CD040D6
:100C2000FC01628C738CFE013296D192C054DF4F6E
:100C300028813981C05CD040E217F307B1F72EE27A
:100C40002983ECADFDAD88AD99ADAAADBBAD0297E2
:100C5000A109B109058404C0880F991FAA1FBB1FF1
:100C60000A94D2F74685578560897189840F951F4C
:100C7000A61FB71F41E0BC01CD01CB53DF4F288336
:100C8000C55CD040ADD1CB53DF4F2881C55CD0408F
:100C90008823E1F1CE53DF4F68817981C25CD04077
:100CA0007E8B6D8B7C8E6B8EFE013196AEEBB3E04E
:100CB0008D2D01900D928A95E1F72A83D801159622
:100CC0008C9115978250823048F057964D915D91E6
:100CD0006D917C915A97CA019B0104C080E090E01D
:100CE00020E030E03E8B2D8B9C8F8B8FFE01319668
:100CF000AEEDB3E08D2D01900D928A95E1F72BA614
:100D00003CA64DA65EA631D1811105C0B6E0033FD9
:100D10001B0739F529C0CC53DF4F3881C45CD04064
:100D20003323D9F021E0AE0142555F4FB8018C2D3D
:100D30009B2D0E948D1A682E46E0033F140709F48C
:100D40000DC1C8010E940B19662071F0902F812FF0
:100D50000C2D1B2DC92EB82ECFCE56E0033F150704
:100D600019F0C8010E940B1967E972E08FE493E063
:100D70000E94763961E272E089E593E00E948C3945
:100D800043E16FE473E0CE0101960E940C148B8165
:100D90009C81EC969FAF8EAFEC978D819E81AF8149
:100DA000B885C458DF4F88839983AA83BB83CC5707
:100DB000D04089859A85AB85BC85C058DF4F888334
:100DC0009983AA83BB83C058D0408DE0FE013D9635
:100DD000A8E7B0E0AC0FBD1F1C9601900D928A955C
:100DE000E1F78A8D9B8DCF56DF4F99838883C15958
:100DF000D0406FE372E0CE0188589F4F0E942810C8
:100E0000CE0188589F4F0E94BD1D6AE172E089E5BE
:100E100093E00E948C3943E16FE473E0CE010196C8
:100E20000E940C148B819C81EC969FAF8EAFEC9747
:100E30008D819E81AF81B885C458DF4F88839983A7
:100E4000AA83BB83CC57D04089859A85AB85BC8566
:100E5000C058DF4F88839983AA83BB83C058D04092
:100E60008DE0FE013D96A8E7B0E0AC0FBD1F1C96DB
:100E700001900D928A95E1F78A8D9B8DCF56DF4FB9
:100E800099838883C159D04066E172E0CE018858C9
:100E90009F4F0E942810CE0188589F4F0E94BD1D71
:100EA00063E473E089E593E00E948C3981E08093EC
:100EB0004E03882349F081E080934D038FE493E053
:100EC00090934C0380934B0382ED9DE190930F022E
:100ED00080930E02809169008F738068809369000F
:100EE000EB9A00E010E021E040E253E06DE972E0AF
:100EF00087EE9DE10E94DE29C753DF4F0FB6F894BD
:100F0000DEBF0FBECDBFDF91CF911F910F91FF903C
:100F1000EF90DF90CF90BF90AF909F908F907F9099
:100F20006F905F904F903F902F900895EFE4F3E023
:100F300001900020E9F7CF018554934068E770E005
:100F40006C0F7D1F860F971F0E945F32C816D9064F
:100F50000CF0B0CC6C01AECC80E0A9CF882309F4B2
:100F600003CF8E01025C1F4FF1CE80916603882370
:100F7000A9F140910002509101026091020270912A
:100F800003022EEB33E08091BE059091BF050E94D5
:100F90000D1D811102C080E00895409167035091BA
:100FA00068036091690370916A03411551056105F9
:100FB000710591F02EEB33E08091BE059091BF0555
:100FC0000E940D1D882339F3109267031092680365
:100FD0001092690310926A031092660381E00895EB
:100FE0008F929F92AF92BF92EF92FF920F931F93B7
:100FF000CF934B015C01C42F8091000290910102BC
:10100000A0910202B091030288159905AA05BB05BB
:10101000F9F0ABDF811102C080E020C08EEBE82E3A
:1010200083E0F82E00E012E020E030E0B501A401FA
:101030008091BE059091BF050E94821C882361F3B8
:101040008092000290920102A0920202B0920302EA
:1010500080916603C82BC093660381E0CF911F91F6
:101060000F91FF90EF90BF90AF909F908F90089559
:101070004F925F926F927F928F929F92AF92BF92A8
:10108000CF92DF92EF92FF920F931F93CF93DF9354
:10109000EC016A017B0128013901423051056105EB
:1010A000710510F480E072C089859A85AB85BC8596
:1010B0000196A11DB11D84179507A607B70790F3E8
:1010C0008B889C88AD88BE888F89803129F4BB27A6
:1010D000AF2D9E2D8D2D09C0DB01CA0147E0B695CD
:1010E000A795979587954A95D1F7880E991EAA1EC0
:1010F000BB1E8091000290910102A0910202B0916A
:10110000030288169906AA06BB0679F48F898031F6
:1011100099F4DD24EE24FF24C601880F991FFC01F9
:10112000E254FC4F5182408218C040E0C501B40136
:1011300057DF8111EBCFB6CFE894C7F8DD24EE245A
:10114000FF24C601880F991F880F991FFC01E254E4
:10115000FC4F40825182628273828091660381607B
:10116000809366038A89823080F08D819E81AF8171
:10117000B885880E991EAA1EBB1E809267039092A6
:101180006803A0926903B0926A0381E0DF91CF9176
:101190001F910F91FF90EF90DF90CF90BF90AF9095
:1011A0009F908F907F906F905F904F9008958F9257
:1011B0009F92AF92BF92CF92DF92EF92FF920F93E6
:1011C0001F93CF93DF93FC0181859285A385B4851E
:1011D0000196A11DB11D84179507A607B70710F446
:1011E00080E05BC083899489A589B689C789C031AD
:1011F00029F4852E962EA72EBB2409C04A015B0137
:10120000C7E0B694A79497948794CA95D1F7E9015B
:101210006A017B018F01BC01CD01680D791D8A1D1A
:101220009B1D8090000290900102A0900202B0905D
:101230000302681579058A059B0599F4F8018789E9
:101240008031A1F4B701A601552766277727440FFF
:10125000551FFA01E254FC4F80819181A0E0B0E07B
:1012600017C040E0BDDE8111E9CFBACFB701A601BA
:101270004F77552766277727440F551F440F551F73
:10128000FA01E254FC4F80819181A281B381BF7049
:1012900088839983AA83BB8381E0DF91CF911F91DB
:1012A0000F91FF90EF90DF90CF90BF90AF909F9005
:1012B0008F9008954F925F926F927F92AF92BF92FC
:1012C000CF92DF92EF92FF920F931F93CF93DF9312
:1012D00000D01F92CDB7DEB78C0149835A836B8350
:1012E0007C835901C12CD12C7601412C82E0582EEF
:1012F000612C712C49815A816B817C819E012F5F09
:101300003F4FC80154DF882351F1D301C201F801D6
:10131000058404C0880F991FAA1FBB1F0A94D2F727
:10132000C80ED91EEA1EFB1E49815A816B817C8141
:101330008789803129F088EF9FEFAFEFBFE004C0CD
:1013400088EF9FEFA0E0B0E0481759076A077B07D6
:1013500088F2F501C082D182E282F38281E00F90AF
:101360000F900F900F90DF91CF911F910F91FF90F1
:10137000EF90DF90CF90BF90AF907F906F905F9095
:101380004F900895CF93DF93EC018D81882391F1E5
:101390008C8187FF2CC06E857F858889998941E083
:1013A0001FDE882339F1EA8980E2E89FF0011124E9
:1013B000DF01A254BC4F1097E9F08D81823050F4C8
:1013C0004B895C896D897E895C964D935D936D93A5
:1013D0007C935F978F89988DA98DBA8DE254FC4FCD
:1013E000938F828FB58BA48B8C818F778C83DF91C9
:1013F000CF91BBCD80E0DF91CF9108958F929F92E6
:10140000AF92BF92CF92DF92EF92FF920F931F9312
:10141000CF93DF93EC018D81811102C080E076C013
:101420000B891C892D893E89041715072607370764
:10143000A8F36A017B01823029F4CA86DB86EC8638
:10144000FD860DC0C114D104E104F10451F41E82E3
:101450001F82188619861A861B861C861D8681E0C7
:1014600055C08A849B84AC84BD84EB8DFC8D25851E
:1014700030E0275F3F4FB501A40141505109610998
:101480007109022E04C076956795579547950A9481
:10149000D2F7D701C6010197A109B10904C0B695D9
:1014A000A795979587952A95D2F784179507A6074C
:1014B000B70720F089288A288B2849F44F89588D4E
:1014C000698D7A8D4E835F836887798704C0841B1A
:1014D000950BA60BB70B4C015D018E010A5F1F4FE8
:1014E00081149104A104B10409F4A7CF4E815F8156
:1014F0006885798598018B8D9C8D59DE91E0891ADC
:101500009108A108B1088111EBCF88CFDF91CF916D
:101510001F910F91FF90EF90DF90CF90BF90AF9011
:101520009F908F9008952F923F924F925F926F926B
:101530007F928F929F92AF92BF92CF92DF92EF9263
:10154000FF920F931F93CF93DF9300D01F92CDB7DD
:10155000DEB78C015B011A01DC0115968C911597A1
:101560008130C1F414968C9181FF14C082FF1AC09F
:10157000F801438954896589768982859385A48594
:10158000B58584179507A607B70761F0C80136DF50
:10159000811108C081E090E0F8019383828380E0AC
:1015A00090E035C1610183C0D8015B968D919C911B
:1015B0005C97FC01248121502A013B0139E076949B
:1015C0006794579447943A95D1F7722E74207A0114
:1015D000F1E0FF22772009F476C080E092E08E19D6
:1015E0009F0946018C159D0508F44C01D8015B96B6
:1015F0002D913C915C9716968D919D910D90BC918B
:10160000A02D0297A109B109F901058404C0880F32
:10161000991FAA1FBB1F0A94D2F746855785608978
:101620007189840F951FA61FB71F9C01AD01270D5F
:10163000311D411D511D29013A01811432E09306EB
:1016400009F087C08091000290910102A0910202EE
:10165000B091030284159505A605B70559F48FEFDF
:101660009FEFDC018093000290930102A09302029D
:10167000B09303029501B301A2018091BE05909140
:10168000BF050E940D1D882309F484CF9EEFB91A6F
:10169000C818D908F80182859385A485B585880D79
:1016A000991DA11DB11D82879387A487B587D80195
:1016B0001A964D915D916D917C911D97C114D10445
:1016C00009F072CF84C0E114F10409F086CF1696B8
:1016D0004D915D916D917C91199741155105610571
:1016E000710559F457968D919D910D90BC91A02D47
:1016F0000097A105B10539F520C09E012F5F3F4F2E
:1017000056DD882309F44CCF89819A81AB81BC8155
:10171000F801238D348DF9012789203129F048EF14
:101720005FEF6FEF7FE004C048EF5FEF60E070E0D5
:1017300084179507A607B70730F0C8010E9417194C
:1017400081114BCF27CFF80186839783A087B1877C
:1017500044CFE114F10421F5D8011A964D915D9121
:101760006D917C911D9753968D919D910D90BC919B
:10177000A02D481759076A077B0790F0F6DB8823EE
:1017800009F408CF409200025092010260920202D6
:10179000709203028091660381608093660307C0A4
:1017A00041E0C301B2011CDC882309F4F3CED5016A
:1017B000F701E254FC4FCF01880D991DE817F90796
:1017C00019F02D912193FACFA80CB91C61CF539633
:1017D0008D919D910D90BC91A02D84179507A60722
:1017E000B70740F4F801438B548B658B768B84816B
:1017F00080688483D80114968C9183FD02C0C10156
:1018000006C0C801BFDD882309F4C4CEF8CF0F900D
:101810000F900F900F90DF91CF911F910F91FF903C
:10182000EF90DF90CF90BF90AF909F908F907F9080
:101830006F905F904F903F902F900895CF93DF93DC
:101840001F92CDB7DEB7698341E050E0BE016F5F04
:101850007F4F69DE0F90DF91CF9108952F923F92D5
:101860004F925F926F927F928F929F92AF92BF92B0
:10187000CF92DF92EF92FF920F931F93CF93DF935C
:10188000EC016B014A018D81811103C08FEF9FEF45
:10189000D5C08C8180FFFACF4B885C886D887E88AC
:1018A0004A855B856C857D85C401A0E0B0E093012D
:1018B0008201041B150B260B370B081719072A0783
:1018C0003B0718F44201841A950A54011E0126E0D0
:1018D000220E311CA114B10409F47DC04A855B8538
:1018E0006C857D852A0181E05822ED818A019B016A
:1018F00089E036952795179507958A95D1F78B8DB1
:101900009C8DE23061F4FC01828D938DA48DB58DA8
:10191000BC01CD01600F711F821F931F3EC0FC01EF
:1019200074807A94702241145104C1F4711016C06D
:10193000452B462B472B49F48F89988DA98DBA8D5D
:101940008E839F83A887B98709C04E815F81688590
:10195000798591012CDC882309F498CFEB8DFC8DDF
:101960008E819F81A885B9850297A109B109058457
:1019700004C0880F991FAA1FBB1F0A94D2F746857F
:10198000578560897189840F951FA61FB71FBC01F9
:10199000CD01670D711D811D911D20E032E02419DC
:1019A000350935012A153B0508F439012C8126FD3E
:1019B00004C06114F2E07F0681F4009100021091EE
:1019C0000102209102023091030260177107820721
:1019D0009307A9F402C0C40131C040E001DB8823B1
:1019E00009F454CFF201E254FC4FD601CF01860D29
:1019F000971DE817F90789F021912D93FACF760109
:101A000083019201AB01BC018091BE059091BF059D
:101A10000E94821C882309F439CFC60CD71C8A8502
:101A20009B85AC85BD85860D971DA11DB11D8A873F
:101A30009B87AC87BD87A618B7084CCFDF91CF91A5
:101A40001F910F91FF90EF90DF90CF90BF90AF90DC
:101A50009F908F907F906F905F904F903F902F90CE
:101A60000895CF92DF92EF92FF920F931F93CF933F
:101A7000DF936C017A018B01C0E0D0E0CE15DF0569
:101A800089F0D8016D918D01D601ED91FC91019005
:101A9000F081E02DC6011995892B11F47E0102C059
:101AA0002196ECCFC701DF91CF911F910F91FF904D
:101AB000EF90DF90CF900895FC01A089B1898C91BF
:101AC000A689B78982FD0FC09C91818D8F5F8F772A
:101AD000228D821749F0218DDF01A20FB11D5D9685
:101AE0009C93818F08958C910895FC01538D448DB2
:101AF000252F30E0842F90E0821B930B541710F0B9
:101B0000CF96089501970895FC01918D828D9817C5
:101B100061F0828DDF01A80FB11D5D968C91928DD1
:101B20009F5F9F77928F90E008958FEF9FEF0895CA
:101B3000FC01918D828D981731F0828DE80FF11D97
:101B4000858D90E008958FEF9FEF0895FC01918DB2
:101B5000228D892F90E080589F4F821B91098F77AB
:101B60009927089584E498E0F1DF21E0892B09F4B6
:101B700020E0822F089587E697E0E8DF21E0892BB7
:101B800009F420E0822F08958AEE95E0DFDF21E05E
:101B9000892B09F420E0822F0895FC01848DDF0158
:101BA000A80FB11DA356BF4F2C91848D90E00196D4
:101BB0008F739927848FA689B7892C93A089B189BF
:101BC0008C9180648C93938D848D981306C00288C9
:101BD000F389E02D80818F7D80830895EF92FF92BD
:101BE0000F931F93CF93DF93EC0181E0888F9B8D40
:101BF0008C8D981305C0E889F989808185FD23C003
:101C0000F62E0B8D10E00F5F1F4F0F731127E02E84
:101C10008C8DE8120BC00FB607FCFACFE889F98962
:101C2000808185FFF5CFCE01B8DFF2CF8B8DFE012D
:101C3000E80FF11DE356FF4FF0820B8FEA89FB8915
:101C40008081806207C0EE89FF896083E889F98915
:101C500080818064808381E090E0DF91CF911F914B
:101C60000F91FF90EF900895CF93DF93EC01888D53
:101C70008823C1F0EA89FB89808185FD05C0A88998
:101C8000B9898C9186FD0EC00FB607FCF5CF808117
:101C900085FFF2CFA889B9898C9185FFEDCFCE0160
:101CA0007CDFE8CFDF91CF91089580E090E0892B31
:101CB00019F06ADF81111BC080E090E0892B41F0B0
:101CC00080E090E0892B21F00E940000811112C079
:101CD00080E090E0892B19F04EDF81110EC080E08A
:101CE00090E0892B79F03EDF81110AC008950E94AF
:101CF0000000E2CF0E940000EBCF0E940000EFCF77
:101D00000C94000008950E944C398F929F92AF92DC
:101D1000BF92CF92DF92EF92FF92CF93DF93C82FC3
:101D200089EC96E09093BF058093BE05CC2361F1CA
:101D3000C53010F080E00BC140E060E070E0CB0106
:101D40004FD98823B9F320E1C29FC00111248255E5
:101D50009C4FFC01E254FE4F20812F7759F73C96AF
:101D6000408151816281738144365105610571055D
:101D700008F33497C080D180E280F380C114D1048D
:101D8000E104F10421F4D6CFC12CD12C760140E03E
:101D9000C701B60125D9882369F28091C9039091C2
:101DA000CA038115924031F6A091CE03AA2309F40B
:101DB000C1CF6091CC037091CD036115710509F419
:101DC000B9CF2091CB03222309F4B4CFA093E70627
:101DD0002093D90680E030E0E1E0F0E0C82FAF01C9
:101DE000082E02C0440F551F0A94E2F72417350746
:101DF00041F0982F8F5F983089F789E08093E20651
:101E000099CF8093E2062091D4033091D503211518
:101E1000310519F040E050E008C02091E203309114
:101E2000E3034091E4035091E5032093DA063093F5
:101E3000DB064093DC065093DD0646015701860E13
:101E4000971EA11CB11C8092E8069092E906A09210
:101E5000EA06B092EB06E091CF03F091D003F09345
:101E6000EE06E093ED06B0E00E948336860E971EE4
:101E7000A81EB91E8092EF069092F006A092F1067D
:101E8000B092F20685E0EE0FFF1F8A95E1F7E15070
:101E9000FE4FEF2FFF27E6958E0E9F1EA11CB11C53
:101EA0008092E3069092E406A092E506B092E606E0
:101EB0002091D1033091D2032115310521F0A901E0
:101EC00060E070E008C04091DE035091DF03609154
:101ED000E0037091E103D701C60188199909AA09A5
:101EE000BB09840F951FA61FB71F04C0B695A79501
:101EF00097958795CA95D2F78093DE069093DF0673
:101F0000A093E006B093E106853F2FE09207A1057C
:101F1000B10510F48CE018C0853F9F4FA105B105B5
:101F200010F480E111C08091EA039091EB03A0913D
:101F3000EC03B091ED038093EF069093F006A0932D
:101F4000F106B093F20680E28093EC0681E0DF9127
:101F5000CF91FF90EF90DF90CF90BF90AF909F9088
:101F60008F900895DC01ED91FC910190F081E02DBE
:101F700019946115710579F0FB0101900020E9F7D2
:101F80003197AF01461B570BDC01ED91FC910280AC
:101F9000F381E02D199480E090E008954F925F92D4
:101FA0006F927F92EF92FF920F931F93CF93DF93E5
:101FB000CDB7DEB7A1970FB6F894DEBF0FBECDBF89
:101FC0007C01FA01CB0119A2223008F42AE08E012B
:101FD0000F5D1F4F422E512C612C712CBF01A301AC
:101FE00092010E946136F901CA01015011096A305B
:101FF00014F4605D01C0695CD8016C93232B242B21
:10200000252B61F7B801C701B4DFA1960FB6F8948C
:10201000DEBF0FBECDBFDF91CF911F910F91FF901B
:10202000EF907F906F905F904F9008950F931F9364
:10203000CF93DF93EC019DDF8C016DED72E0CE015B
:1020400098DF800F911FDF91CF911F910F9108951D
:10205000EF92FF920F931F93CF93DF938C017B013D
:10206000C0E0D0E0F701EC0FFD1F6491662331F072
:10207000C8015BD7892B11F02196F4CF6DED72E08A
:10208000C80177DF8C0F9D1FDF91CF911F910F91BA
:10209000FF90EF9008956DCF1F920F920FB60F92A1
:1020A00011240BB60F922F933F934F935F936F932F
:1020B0007F938F939F93AF93BF93EF93FF9384E4AA
:1020C00098E06BDDFF91EF91BF91AF919F918F9160
:1020D0007F916F915F914F913F912F910F900BBE28
:1020E0000F900FBE0F901F9018951F920F920FB672
:1020F0000F9211240BB60F922F933F934F935F9340
:102100006F937F938F939F93AF93BF93EF93FF93BF
:1021100084E498E0D1DCFF91EF91BF91AF919F9162
:102120008F917F916F915F914F913F912F910F9080
:102130000BBE0F900FBE0F901F9018951F920F921D
:102140000FB60F9211240BB60F922F933F934F931C
:102150005F936F937F938F939F93AF93BF93EF930F
:10216000FF9387E697E019DDFF91EF91BF91AF9163
:102170009F918F917F916F915F914F913F912F919F
:102180000F900BBE0F900FBE0F901F9018951F92CF
:102190000F920FB60F9211240BB60F922F933F930D
:1021A0004F935F936F937F938F939F93AF93BF935F
:1021B000EF93FF9387E697E07FDCFF91EF91BF916C
:1021C000AF919F918F917F916F915F914F913F91CF
:1021D0002F910F900BBE0F900FBE0F901F90189570
:1021E0001F920F920FB60F9211240BB60F922F93DE
:1021F0003F934F935F936F937F938F939F93AF938F
:10220000BF93EF93FF938AEE95E0C7DCFF91EF91C8
:10221000BF91AF919F918F917F916F915F914F91FE
:102220003F912F910F900BBE0F900FBE0F901F90FC
:1022300018951F920F920FB60F9211240BB60F92A2
:102240002F933F934F935F936F937F938F939F93BE
:10225000AF93BF93EF93FF938AEE95E02DDCFF9150
:10226000EF91BF91AF919F918F917F916F915F910E
:102270004F913F912F910F900BBE0F900FBE0F907B
:102280001F901895CF93DF939B01672B61F4E0912A
:10229000EA05F091EB050190F081E02D682F8AEEC0
:1022A00095E0199507C0482F50E060E070E08AEE95
:1022B00095E074DEEC016DED72E08AEE95E059DE9A
:1022C0008C0F9D1FDF91CF9108958F929F92AF92B7
:1022D000BF92CF92DF92EF92FF926B017C0149D4C3
:1022E0004B015C01C60ED71EE81EF91E42D46815CC
:1022F00079058A059B0528F0C616D706E806F90673
:10230000A8F7FF90EF90DF90CF90BF90AF909F9095
:102310008F900895DACF62EB72E08091540790912C
:10232000550784CE8F929F92AF92BF92CF92DF9249
:10233000EF92FF920F931F93CF93DF93EC016A010B
:102340007B019A01AB01C701B6010E94EC378823DB
:1023500019F069EB72E027C046015701E894B7F81D
:102360002FEF3FEF4FE75FE7C501B4010E94EC3765
:1023700081110DC02FEF3FEF4FE75FE7C501B401BB
:102380000E94483518161CF46DEB72E00CC02FEF5C
:102390003FEF4FE75FE4C701B6010E94E837181628
:1023A00084F461EC72E0CE01DF91CF911F910F9127
:1023B000FF90EF90DF90CF90BF90AF909F908F9065
:1023C000D8CD2FEF3FEF4FE75FECC701B6010E947A
:1023D000483587FDE6CF20E030E0A901C701B6010E
:1023E0000E94483587FF09C06DE2CE01BBDD8C013C
:1023F000F7FAF094F7F8F09402C000E010E02AE059
:1024000037ED43EA5BE3C701B6010E949D366B01DD
:102410007C010E947C374B015C010E944C359B0182
:10242000AC01C701B6010E949C366B017C012AE019
:10243000B501A401CE01B2DD080F191F6EE2CE0175
:1024400091DD080F191F20E030E040E251E4C701A0
:10245000B6010E94AD354B015C010E947C376B01D7
:10246000E12CF12C2AE0B701A601CE0197DD080F7F
:10247000191FC701B6010E944C359B01AC01C50173
:10248000B4010E949C3620E030E040E251E40E941A
:10249000AD350E947C37AB0160E070E02AE0CE01F0
:1024A0007DDD800F911FDF91CF911F910F91FF90E4
:1024B000EF90DF90CF90BF90AF909F908F90089556
:1024C000462F50E060E070E02AE068CDBF92CF92E6
:1024D000DF92EF92FF920F931F93CF93DF93B82E6B
:1024E00048D36B017C0102E117E0C4E5D7E065EC5D
:1024F00072E088819981CFDD6B2D88819981E0DF41
:102500006CEC72E088819981C6DD2AE0B701A601F2
:102510008881998143DD6EEC72E088819981BBDD11
:10252000F80186819781A085B185B701A601481B76
:10253000590B6A0B7B0B2AE0888199812FDD6EECA9
:1025400072E088819981A7DDF80146815781608515
:10255000718582859385A485B585481B590B6A0BC7
:102560007B0B2AE088819981DF91CF911F910F9198
:10257000FF90EF90DF90CF90BF9010CD0F931F93FF
:10258000811121C0F6D200911407109115072091F6
:10259000160730911707DC01CB01801B910BA20BB2
:1025A000B30B82339105A105B10568F442E350E015
:1025B00060E070E08A019B01081B190B2A0B3B0BA2
:1025C000C901B80182DED5D2609314077093150754
:1025D000809316079093170781E01F910F9108953C
:1025E000CF9390912807992309F45AC0C82F80915E
:1025F000540790915507DC01ED91FC910084F18521
:10260000E02D1995811115C085E64BC080915407C6
:1026100090915507DC01ED91FC910284F385E02D4A
:102620001995883609F43CC090F08137C9F1863796
:10263000C1F18091540790915507DC01ED91FC9117
:102640000084F185E02D19958111E0CFDDCF88352B
:1026500029F1833671F78DD26093140770931507B3
:10266000809316079093170760ED72E080915407EE
:102670009091550710DD6C2F80915407909155076C
:102680001FDF67ED72E0809154079091550703DDDD
:1026900062E370E080E090E03DDE02C01092280727
:1026A00083E6CF910895CF92DF92EF92FF920F933E
:1026B0001F93CF93DF936B01770FEE08FF08F7FEB0
:1026C00019C0EC016DE24EDC8C0144275527BA019C
:1026D0004C195D096E097F092AE0CE015FDC800F8D
:1026E000911FDF91CF911F910F91FF90EF90DF909D
:1026F000CF9008952AE0B701A601DF91CF911F91F5
:102700000F91FF90EF90DF90CF9048CC90E0FC01CC
:10271000E95DFC4F2491FC01EF51FD4F849188232A
:1027200099F090E0880F991FFC01E953FD4FA591A6
:10273000B491FC01E355FD4F859194918FB7F894C6
:10274000EC91E22BEC938FBF0895CF92DF92EF9242
:10275000FF920F931F93CF93DF93EC016A017B01EC
:10276000E889F98982E080834115514E6105710540
:10277000B1F060E079E08DE390E0A70196010E945E
:10278000613689019A0101501109210931093695F3
:10279000279517950795980101151041A8F0E8892C
:1027A000F989108260E874E88EE190E0A701960153
:1027B0000E946136DA01C9010197A109B109B695F4
:1027C000A795979587959C01EC85FD853083EE85CF
:1027D000FF852083188EEC89FD8986E08083EA8955
:1027E000FB89808180618083EA89FB8980818860A0
:1027F0008083EA89FB89808180688083EA89FB89FC
:1028000080818F7D8083DF91CF911F910F91FF9009
:10281000EF90DF90CF9008952F923F924F925F926A
:102820006F927F928F929F92AF92BF92CF92DF92E0
:10283000EF92FF920F931F93CF93DF93CDB7DEB745
:10284000C756D1090FB6F894DEBF0FBECDBF3C010D
:102850005B01A6964FAFA6974E018EE1880E911CA4
:1028600063EF76E0C4010E946C1D1C821B8280E530
:1028700092E09A8389831E827501FE0131966F0171
:1028800024011F016FE270E0C7010E9481390097A7
:10289000D9F1F70120812F3221F4FFEFEF1AFF0A5F
:1028A000F1CF8E198D3008F08CE0082F10E0A801D0
:1028B000B701CE01885A9F4F0E949339E8E5F0E0B6
:1028C000EC0FFD1FE00FF11F1082C601A4D421E020
:1028D000AE01485A5F4FB201C6011FD681110AC02E
:1028E0001EAE1DAE80E592E09CAF8BAF21961FAE71
:1028F000219716C0E00EF11EC2018DD4942D852DB6
:102900002601C92ED82EBECFC7018A199B09A896C9
:102910009FAF8EAFA897B201CE01CB960E946C1DDF
:10292000A896EEADFFADA897AE0EBF1EF501808153
:10293000811109C0BE01655C7F4FC1010E946C1D01
:1029400047E952E039C019A218A280E592E09F8FB2
:102950008E8F1BA221968FAD2197811104C0C301D8
:102960000E9407252DC08250A6962FADA697A501DF
:10297000823038F463EF76E0C401CFD581110BC00B
:10298000EECFBE01655C7F4FC401C7D5882339F304
:10299000CE01CB9640D4A6968FADA697867039F01F
:1029A00049A95AA96BA97CA9C4010E94FE09B401D6
:1029B000C1010E946C1DA501B101C3010E941A252D
:1029C000C301C959DF4F0FB6F894DEBF0FBECDBFAC
:1029D000DF91CF911F910F91FF90EF90DF90CF90FB
:1029E000BF90AF909F908F907F906F905F904F902F
:1029F0003F902F9008950895E0917903F0917A0324
:102A00008081811103C08FEF9FEF0CC0E0917903AB
:102A1000F0917A030580F681E02D0680F781E02DA4
:102A2000828193819093700380936F030895362F72
:102A300090E0FC01E359FC4F4491FC01E95DFC4F3F
:102A40002491FC01EF51FD4F9491992309F46BC03F
:102A5000442309F455C050E0FA013197E231F10501
:102A600008F04EC08827EE58FF4F8F4F0C94033864
:102A7000809180008F7707C0809180008F7D03C098
:102A800080918000877F809380003AC084B58F77E3
:102A900002C084B58F7D84BD33C08091B0008F7734
:102AA00003C08091B0008F7D8093B00029C08091D9
:102AB00090008F7707C0809190008F7D03C0809138
:102AC0009000877F809390001BC08091A0008F773B
:102AD00007C08091A0008F7D03C08091A000877FF8
:102AE0008093A0000DC0809120018F7707C0809156
:102AF00020018F7D03C080912001877F809320017A
:102B0000E92FF0E0EE0FFF1FE355FD4FA591B491C3
:102B10008FB7F894EC91311103C020952E2301C09A
:102B20002E2B2C938FBF08953FB7F8948091710A94
:102B30009091720AA091730AB091740A26B5A89B6D
:102B400005C02F3F19F00196A11DB11D3FBFBA2F3F
:102B5000A92F982F8827820F911DA11DB11DBC019F
:102B6000CD0142E0660F771F881F991F4A95D1F764
:102B700008952FB7F89460916D0A70916E0A809154
:102B80006F0A9091700A2FBF08951F920F920FB68F
:102B90000F9211242F933F938F939F93AF93BF93E3
:102BA00080916D0A90916E0AA0916F0AB091700A9F
:102BB00030916C0A23E0230F2D3720F40196A11DDC
:102BC000B11D05C026E8230F0296A11DB11D20935B
:102BD0006C0A80936D0A90936E0AA0936F0AB0936B
:102BE000700A8091710A9091720AA091730AB09153
:102BF000740A0196A11DB11D8093710A9093720A07
:102C0000A093730AB093740ABF91AF919F918F9173
:102C10003F912F910F900FBE0F901F9018951F920C
:102C20000F920FB60F9211240BB60F922F933F9372
:102C30004F935F936F937F938F939F93AF93BF93C4
:102C4000EF93FF93E0911202F09113021995FF9117
:102C5000EF91BF91AF919F918F917F916F915F9114
:102C60004F913F912F910F900BBE0F900FBE0F9081
:102C70001F9018951F920F920FB60F9211240BB64A
:102C80000F922F933F934F935F936F937F938F9305
:102C90009F93AF93BF93EF93FF93E0911002F09156
:102CA00011021995FF91EF91BF91AF919F918F9173
:102CB0007F916F915F914F913F912F910F900BBE3C
:102CC0000F900FBE0F901F9018951F920F920FB686
:102CD0000F9211240BB60F922F933F934F935F9354
:102CE0006F937F938F939F93AF93BF93EF93FF93D4
:102CF000E0910602F09107021995FF91EF91BF91C3
:102D0000AF919F918F917F916F915F914F913F9183
:102D10002F910F900BBE0F900FBE0F901F90189524
:102D20001F920F920FB60F9211240BB60F922F9392
:102D30003F934F935F936F937F938F939F93AF9343
:102D4000BF93EF93FF93E0910402F0910502199570
:102D5000FF91EF91BF91AF919F918F917F916F9173
:102D60005F914F913F912F910F900BBE0F900FBE2F
:102D70000F901F9018951F920F920FB60F9211246B
:102D80000BB60F922F933F934F935F936F937F9365
:102D90008F939F93AF93BF93EF93FF93E0910E02B6
:102DA000F0910F021995FF91EF91BF91AF919F9113
:102DB0008F917F916F915F914F913F912F910F90E4
:102DC0000BBE0F900FBE0F901F9018951F920F9281
:102DD0000FB60F9211240BB60F922F933F934F9380
:102DE0005F936F937F938F939F93AF93BF93EF9373
:102DF000FF93E0910C02F0910D021995FF91EF9174
:102E0000BF91AF919F918F917F916F915F914F9102
:102E10003F912F910F900BBE0F900FBE0F901F9000
:102E200018951F920F920FB60F9211240BB60F92A6
:102E30002F933F934F935F936F937F938F939F93C2
:102E4000AF93BF93EF93FF93E0910A02F0910B02CF
:102E50001995FF91EF91BF91AF919F918F917F91C4
:102E60006F915F914F913F912F910F900BBE0F90FB
:102E70000FBE0F901F9018951F920F920FB60F92D2
:102E800011240BB60F922F933F934F935F936F9341
:102E90007F938F939F93AF93BF93EF93FF93E091B3
:102EA0000802F09109021995FF91EF91BF91AF913E
:102EB0009F918F917F916F915F914F913F912F9152
:102EC0000F900BBE0F900FBE0F901F901895279A72
:102ED0002F9A2FEF80E792E0215080409040E1F759
:102EE00000C000001F9AF5CFDC015996ED91FC91CE
:102EF0005A973097B9F083899489A589B689428514
:102F0000538564857585841B950BA60BB70B8115BE
:102F100020E89207A105B10538F08FEF9FE7A0E008
:102F2000B0E0089580E090E00895CF93DF931F9282
:102F3000CDB7DEB76983DC01ED91FC910280F381AE
:102F4000E02D41E050E0BE016F5F7F4F19950F907B
:102F5000DF91CF910895FC01818D928D009711F042
:102F60000C94C20908958F929F92AF92BF92CF9214
:102F7000DF92EF92FF920F931F93CF93DF9300D0D6
:102F80001F92CDB7DEB77C0180E2689F60011124FB
:102F9000960122543C4FD9011B969C91917121F0CE
:102FA000842F827409F097C0142FF701628B8091EF
:102FB000000290910102A0910202B0910302868763
:102FC0009787A08BB18BF601E254FC4F4489558959
:102FD00060E070E0BA0155274427D70157964D931A
:102FE0005D936D937C935A97828D938DA0E0B0E0B2
:102FF000482B592B6A2B7B2BD70157964D935D930A
:103000006D937C935A97D9011B968C91887159F4D2
:10301000848D958DA68DB78DF701838B948BA58BB1
:10302000B68B81E012C0803109F055C097012D5E4A
:103030003F4FD7015B968D919C915C970E945A09F6
:10304000882309F448C084E0F7018583812F8F70BD
:10305000D70114968C931497F70116821782108665
:1030600011861A961D921D921D921C921D9716FF95
:1030700034C015968C91813071F511FF2CC0F70189
:103080004389548965897689452B462B472B09F45A
:1030900061C040E050E0BA01C7010E94FE098823E8
:1030A000D1F0F7018788908CA18CB28CC38CD48C22
:1030B00082E090E0A0E0B0E0F60180839183A283FB
:1030C000B3839E012F5F3F4FB501A401C6010E944B
:1030D000D708811104C080E03DC081E03BC000E022
:1030E00010E09801B501A401C6010E9438088823A8
:1030F00091F389809A80AB80BC80D60157968C91E1
:10310000803129F088EF9FEFAFEFBFE004C088EF78
:103110009FEFA0E0B0E088169906AA06BB0688F2E9
:10312000D70157961D921D921D921C925A97F70136
:10313000138A148A158A168A848180688483C70159
:103140000E94C209882339F240E050E0BA01C70169
:103150000E94FE090F900F900F900F90DF91CF917A
:103160001F910F91FF90EF90DF90CF90BF90AF90A5
:103170009F908F900895FC01818D928D009711F0A2
:103180000C944F258FEF9FEF08950F931F93CF93CC
:10319000DF93FC01818D928D0097B9F0EF010E94C1
:1031A0004F258C010F3F8FEF180791F0898D9A8D75
:1031B000FC0142855385648575854150510961093B
:1031C00071090E94FE09C80105C080E090E002C0BC
:1031D0008FEF9FEFDF91CF911F910F910895CF93C4
:1031E000DF93EC01898D9A8D009739F481E090E0AE
:1031F0009B838A8380E090E00BC0FC0113821282E3
:103200000E94930AE98DFA8D22813381232B71F775
:10321000DF91CF910895CF93DF93EC010E94C20913
:10322000882311F01D8281E0DF91CF9108953F92B4
:103230004F925F926F927F928F929F92AF92BF92C6
:10324000CF92DF92EF92FF920F931F93CF93DF9372
:10325000CDB7DEB72C970FB6F894DEBF0FBECDBF4B
:103260005C01DC015B968D909C905C971696CD90EE
:10327000DD90ED90FC901997C114D104E104F104A4
:1032800039F0BFEFCB1ADB0AEB0AFB0A312C07C07F
:10329000F401C080D180E280F38033243394F401C0
:1032A00081859285A385B4859C01AD012F5F3F4F39
:1032B0004F4F5F4F29873A874B875C87260137013D
:1032C0001D821E821F821886F40181859285A38546
:1032D000B4852D813E814F815885281739074A07CB
:1032E0005B0708F063C089859A85AB85BC858C1522
:1032F0009D05AE05BF0550F482E0C82ED12CE12C0F
:10330000F12C92E0492E512C612C712C9E012F5FE3
:103310003F4FB701A601C4010E94D708882309F4D2
:1033200045C089819A81AB81BC81892B8A2B8B2BEB
:1033300041F0260137019FEF491A590A690A790AB3
:1033400005C0C414D504E604F70491F02D813E8134
:103350004F8158852F5F3F4F4F4F5F4F2D833E83E7
:103360004F8358873FEFC31AD30AE30AF30AACCF5F
:103370000FEF1FEF2FEF3FE0B301A201C4010E9446
:103380003808882399F0D50116964D915D916D917D
:103390007C911997411551056105710549F093011B
:1033A0008201C4010E943808811102C080E02AC055
:1033B000D50116964D925D926D927C9219973320AD
:1033C00051F0D301C2010196A11DB11DF40180830A
:1033D0009183A283B383F5018789908DA18DB28DEE
:1033E000892B8A2B8B2B69F4D50157964D925D92D0
:1033F0006D927C925A9714968C91149780681496CB
:103400008C9381E02C960FB6F894DEBF0FBECDBF33
:10341000DF91CF911F910F91FF90EF90DF90CF90B0
:10342000BF90AF909F908F907F906F905F904F90E4
:103430003F900895CF92DF92EF92FF921F93CF9328
:10344000DF93EC01F4DE811102C080E05EC0EB8D01
:10345000FC8DCE80DF80E884F98482E0C81AD10830
:10346000E108F108058404C0CC0CDD1CEE1CFF1C37
:103470000A94D2F786859785A089B189C80ED91E8E
:10348000EA1EFB1E148181E0C81AD108E108F10888
:10349000112301F10E94B5078823B9F2EEEBF3E0A6
:1034A000119285E0EE3BF807D9F7D701C601810FED
:1034B000911DA11DB11D8093000290930102A09364
:1034C0000202B093030280916603816080936603D9
:1034D0001150DECFEB8DFC8D80E092E0A0E0B0E0FB
:1034E000058404C0880F991FAA1FBB1F0A94D2F736
:1034F0004B895C896D897E89840F951FA61FB71F34
:103500008B8B9C8BAD8BBE8B81E0DF91CF911F911C
:10351000FF90EF90DF90CF9008958F929F92AF929F
:10352000BF92CF92DF92EF92FF920F931F93CF93B0
:10353000DF93CDB7DEB72B970FB6F894DEBF0FBE83
:10354000CDBF7C01FC01A580A1100CC1CE0101966C
:103550006C01FC0190E28BE08C0D91938E13FDCFFA
:10356000DA0130E087E09D91992339F19E3219F01C
:10357000E3EBF3E00AC08A3009F4F5C038E08AE0F2
:10358000F2CF3196491709F4EEC044914111F9CFB9
:10359000831708F4E8C04FED490F4E3508F0E3C03B
:1035A00041E0430FF601E30FF11D3FE9390F3A31D6
:1035B00008F490529083342FD6CF8981803209F459
:1035C000D2C0B22E8B01FB01838D948DF701948FB5
:1035D000838FFB011682178210861186128613864E
:1035E00014861586912CF80182859385A485B5856E
:1035F000438954896589768984179507A607B70793
:1036000008F060C025E0B695A795979587952A950F
:10361000D1F7F82FFF708F2EF8018581823008F4E2
:10362000A2C0C8010E944F2597FD9DC0F801828568
:103630009385A485B5854F96A11DB11D828793877B
:10364000A487B587F0E28F9EC0011124BC016254AB
:103650007C4F6115710509F486C0FB01208122238E
:1036600019F0253EC1F427C091100EC0F701828ADF
:103670004091000250910102609102027091030298
:1036800046875787608B718BFC01E254FC4F808129
:10369000811113C015C04BE050E0C6010E9459399A
:1036A000892B09F0A0CF8B2D8073803309F45BC088
:1036B0004B2D682D53C09920C9F29924939493CF30
:1036C000992493948B2D8271823109F04CC09920FA
:1036D000B9F0F701668577858089918941E00E947C
:1036E000F007882309F43FC0F7016289F0E26F9F79
:1036F000B001112462547C4F6115710569F433C027
:10370000F8018581823079F1C80194DE882359F16E
:10371000F701128A6EEB73E080E2FB0111928A9549
:10372000E9F78BE0F601DB0101900D928A95E1F754
:1037300081E298E2FB01918B808B20E038E03787B3
:103740002687938B828B918F808F378B268B0E945D
:10375000B507882341F04B2DF7016289C70103DCCF
:10376000A82E01C0A12C8A2D2B960FB6F894DEBF8F
:103770000FBECDBFDF91CF911F910F91FF90EF90C2
:10378000DF90CF90BF90AF909F908F9008958FB7AC
:10379000F8948091760A8FBF089561E0FC018481DE
:1037A00046D98091750A81111092750A08958EBDCF
:1037B00000000DB407FEFDCF8EB508958FEFF7CF53
:1037C0000F931F93CF93DF93EB01D3D98B01F6DFD8
:1037D0008F3F41F0CED9601B710B6C177D07B8F39A
:1037E00080E001C081E0DF91CF911F910F9108959A
:1037F000CF93DF93EC018E81882379F08F819885B8
:103800009C012F5F3F4F38872F838230924010F406
:10381000D5DFF4CFCE01C1DF1E82DF91CF910895B5
:103820008CBD9DBD0895CF93DF93EC018091750A07
:10383000811108C081E08093750A8091C70690913C
:10384000C806EEDF60E08C81DF91CF91F0C8CF92A7
:10385000DF92FF920F931F93CF93DF9300D01F92BD
:10386000CDB7DEB76C01F62E29833A834B835C8398
:10387000BFDFC601D8DF6CE271E0C601A1DF8F2D8A
:10388000806495DF08E110E05C814B813A812981F9
:10389000DA01C901002E04C0B695A79597958795C2
:1038A0000A94D2F729833A834B835C8380DF0850E4
:1038B000110929813A814B815C81083F8FEF1807FC
:1038C00039F7FF2029F0E8E0FE1204C087E803C0C2
:1038D00085E901C08FEF6BDF10E070DFF6018287B2
:1038E00087FF04C01F3F11F01F5FF7CF0F900F90AD
:1038F0000F900F90DF91CF911F910F91FF90DF906C
:10390000CF900895AF92BF92CF92DF92EF92FF9245
:103910000F931F93CF93DF93EC016901C801820FCE
:10392000931F8130924008F068C08E81882371F027
:1039300088819981AA81BB81481759076A077B074B
:1039400029F48F819885C816D90688F5488359834C
:103950006A837B838B85833039F089E0440F551F60
:10396000661F771F8A95D1F79A01AB0161E1CE01FD
:103970006EDF882319F083E08D833FC0FAD85B01A6
:103980001DDF8A878F3F41F4F4D86A197B096D32B5
:103990007140B0F38FE003C08E3F29F08DE08D833E
:1039A000CE01FBDE2AC018861F8281E08E838F81C4
:1039B00098858C159D0538F401DF8F8198850196D7
:1039C00098878F83F4CF6701E00EF11ECE14DF04D9
:1039D00029F0F4DEF60181936F01F8CF8F8198858D
:1039E000080F191F18870F838985882319F001157F
:1039F000124038F0CE01FCDE04C0CE01CEDE80E005
:103A000001C081E0DF91CF911F910F91FF90EF9066
:103A1000DF90CF90BF90AF900895EF92FF920F93F9
:103A20001F93CF93DF93EC01790141155105610597
:103A3000710511F482E134C08B85833039F089E05F
:103A4000440F551F661F771F8A95D1F79A01AB0166
:103A500068E1CE01FCDE882311F084E021C08EEF06
:103A6000A6DE87018EEFF81AF80181918F019FDEA3
:103A70000E151F05C9F78FEF9ADE8FEF98DE9EDED9
:103A80008A878F71853029F081E18D83CE0185DEB3
:103A900008C068E572E0CE0193DE811106C085E1C1
:103AA0008D83CE017ADE80E010C020E030E0A901F5
:103AB0006DE0CE01CCDE811103C080DE882311F0E1
:103AC00084E1EECFCE0169DE81E0DF91CF911F91DD
:103AD0000F91FF90EF900895FC01DB0112968D91FC
:103AE0009C9113979383828380E592E091838083F6
:103AF00014968C911497848315968C9115978583D1
:103B000016964D915D916D917C91199746835783DF
:103B1000608771871A964D915D916D917C911D978B
:103B200042875387648775871E964D915D916D918D
:103B30007C91519746875787608B718B52968C91F9
:103B40005297828B53964D915D916D917C915697D2
:103B5000438B548B658B768B57964D915D916D9110
:103B60007C915A97478B508F618F728F5B968D91A6
:103B70009C915C97948F838F0895CF93DF93EC0192
:103B8000898D9A8D009739F046DB898D9A8D0E9438
:103B9000B4381A8E198EDF91CF910895089580E080
:103BA00090E00895CF93DF930E94B915CAE5D7E05E
:103BB0002C813D81621B730B7B836A830E94B91544
:103BC0006C837D838E839F83DF91CF910895CF9304
:103BD000DF93CDB7DEB7CC53D2400FB6F894DEBF3B
:103BE0000FBECDBF2FEBA22EBB24B394AC0EBD1ED7
:103BF00026E0A20EB11C39E5232E332433942C0E7B
:103C00003D1E36E0230E311C71010BE010E0B801BF
:103C1000012E000C880B990B0E944E3520E030E0FD
:103C200040E251E40E941437D5016D937D938D934A
:103C30009D935D01B801625E7F4F072E000C880BDB
:103C4000990B0E944E3520E030E040E251E40E94A2
:103C50001437F70161937193819391937F010F5F03
:103C60001F4F0331110599F69FEBE92EFF24F394C2
:103C7000EC0EFD1EF6E2EF0EF11C510105E110E025
:103C8000B801012E000C880B990B0E944E3520E0E4
:103C900030E040E251E40E941437D7016D937D93E8
:103CA0008D939D937D01B801625E7F4F072E000CBE
:103CB000880B990B0E944E3520E030E040E251E441
:103CC0000E941437F50161937193819391935F0181
:103CD0000F5F1F4F0D31110599F65E01FBEFAF1A13
:103CE000FDEFBF0A71010FE110E0B801012E000CD9
:103CF000880B990B0E944E3520E030E040E251E401
:103D00000E941437D5016D937D938D939D935D0132
:103D1000B801625E7F4F072E000C880B990B0E9442
:103D20004E3520E030E040E251E40E941437F701C4
:103D300061937193819391937F010F5F1F4F0732BE
:103D4000110599F620E1AE014E525F4F6FEE7DEC0A
:103D50008BEA99E80E94963219821A821B821C8291
:103D600088E08D83FE01EE52FF4FDE011696019032
:103D70000D928A95E1F781E0CF52DF4F8883C15DD4
:103D8000D0409E0121543E4FCD5CDD4F39832883C6
:103D9000C353D24010E00DE088E0D82ECD5CDD4F5B
:103DA000E881F981C353D24020E030E0263031056C
:103DB00021F4113021F042E003C041E001C043E0B2
:103DC00082849384A484B5844680578060847184FF
:103DD000CF52DF4F8881C15DD040089FC0011124C0
:103DE000EE24E394F12CEC0EFD1EE80EF91E50E0DB
:103DF00060E070E0D7014D935D936D937C931397D2
:103E000015964D925D926D927C921897CF52DF4F2E
:103E10008881C15DD04041E050E04C0F5D1F089F9C
:103E2000400D511D1124DA0119968D929D92AD928B
:103E3000BC921C97CF52DF4F4881C15DD04081E0DA
:103E400090E08C0F9D1F049F800D911D1124DC01BB
:103E50001496DC924F5FCF52DF4F4883C15DD04054
:103E600038962E5F3F4F2830310509F09FCFCD5C4B
:103E7000DD4FE881F981C353D240B096CD5CDD4F70
:103E8000F983E883C353D240113011F011E086CF9B
:103E900089E0CF52DF4F8883C15DD0409E012F5F04
:103EA0003F4F790100E010E0D7018D909D90AD90DB
:103EB000BC90D501C40183709927AA27BB2760EE67
:103EC00072E00397A105B10509F442C08AEE95E0BE
:103ED0000E944B10B8018AEE95E00E94531366E4ED
:103EE00073E08AEE95E00E944B102AE0B501A40130
:103EF0008AEE95E00E94CE0F67E473E08AEE95E0CB
:103F00000E944B10D7011496AC906A2D8AEE95E072
:103F10000E9460126EED72E08AEE95E00E944B10F6
:103F2000812C912CB12C8A149B0464F4F701E80DC8
:103F3000F91D60E170E085810E944211BFEF8B1A8C
:103F40009B0AF1CF0F5F1F4FEDE0EE0EF11CACCFDF
:103F50008AEE95E00E944B10B8018AEE95E00E942F
:103F6000531366E473E08AEE95E00E944B102AE05A
:103F7000B501A4018AEE95E00E94CE0F67E473E0DC
:103F80008AEE95E00E944B108DE0809F7001819F2A
:103F9000F00C1124E1E0F0E0EC0FFD1FEE0DFF1D31
:103FA0000481602F8AEE95E00E9460126EED72E04F
:103FB0008AEE95E00E944B10A12CB12C10E0A016C7
:103FC000B10694F4F501EE0DFF1D21E030E02C0F59
:103FD0003D1FE20FF31F60E170E085810E944211F6
:103FE0003FEFA31AB30AEBCF49815A816B817C81E1
:103FF000142F137061F067EE72E08AEE95E00E9474
:1040000016106AE070E0812F0E94421153C4A2E0B2
:104010007695679557954795AA95D1F74770552797
:10402000C75ADE4F59834883C955D140FA01E9592F
:10403000FD4F8081A82FB0E0CD5CDD4FB983A88310
:10404000C353D240FA01EC59FD4F8081E82FF0E0D4
:10405000CB5CDD4FF983E883C553D240BF01FF0F2E
:10406000880B990B0E944E3520E030E040E05FE382
:104070000E94AD350E9401379B01AC01CD5CDD4F44
:10408000A881B981C353D240BD01BB0F880B990BE6
:10409000C75CDD4F2883C953D240C65CDD4F3883EF
:1040A000CA53D240C55CDD4F4883CB53D240C45C79
:1040B000DD4F5883CC53D2400E944E35C75CDD4F54
:1040C0002881C953D240C65CDD4F3881CA53D240E3
:1040D000C55CDD4F4881CB53D240C45CDD4F588175
:1040E000CC53D2400E94AD3520E030E040E85FE3A1
:1040F0000E949D364B015C0120E030E040E151E43C
:104100000E9448358823E9F06FEF72E08AEE95E06F
:104110000E944B10B501A4018AEE95E00E94921115
:1041200060E273E08AEE95E00E944B1069E08AEE4F
:1041300095E00E946012CF52DF4F1882C15DD040DF
:10414000B9C3CF52DF4F1882C15DD0404D8150E0DE
:10415000BE016A5F7F4FCE018E529F4F0E9466392B
:10416000FE01EE52FF4F7F0187010F5F1F4FD70106
:10417000DC908D2D90E00E947C32892B11F078012B
:10418000F3CFBDE2DB1208C00F5F1F4FF701D180F4
:10419000AA24A394B12C0BC0FBE2DF1206C0870156
:1041A0000E5F1F4FD7011196DC90A12CB12CB0E30C
:1041B000DB1208C0F80180818F7D883519F4D18029
:1041C0000E5F1F4FE12CF12C412C512C32018D2C14
:1041D000912CD7FC38C0C401C0970A9718F420ED81
:1041E0002D0D0FC0C4010E945239892B61F1C40109
:1041F0000E945039892B11F487E501C087E32D2DEA
:10420000281B822F90E04097F4F4F7FC15C041146E
:1042100051046104F0E17F0678F474E0440C551C0D
:10422000661C771C7A95D1F7420E511C611C711CDB
:10423000EE24E394F12C03C0EE24EA94FE2CD80182
:10424000DD908D01C4CFD301C201F7FC0AC0AB28B9
:1042500059F088279927DC0184199509A609B7091F
:1042600003C08FEF9FEFDC01C55ADE4F888399832F
:10427000AA83BB83CB55D1402101A12CB12C01E0F5
:1042800010E05DE0C52ECB5CDD4F68807980C553C2
:10429000D240B2E06B1A7108CD5CDD4FE881F98144
:1042A000C353D2403197C95CDD4FF983E883C753CC
:1042B000D240CD5CDD4F88819981C353D240A8168E
:1042C000B9060CF0FEC24201E12CF12CCB5CDD4FB3
:1042D00028813981C553D240E216F3060CF0E3C2BF
:1042E000C09EF001C19EF00D112421E030E02C0FA2
:1042F0003D1FE20FF31F80818370D82E84EF91E081
:10430000A0E0B0E08093200790932107A0932207BC
:10431000B0932307109224071092250710922607C6
:10432000109227078091180790911907A0911A07FA
:10433000B0911B0780931C0790931D07A0931E0745
:10434000B0931F070E94B91560931807709319075F
:1043500080931A0790931B0780E00E94BE12882367
:1043600019F181E00E9466126CE273E080915407BB
:10437000909155070E944B10B8018091540790917D
:1043800055070E9453136CE273E08091540790919B
:1043900055070E944B106D2D809154079091550741
:1043A0000E9460120E948B1165E070E080E090E056
:1043B0000E948A110E94B91560931807709319071B
:1043C00080931A0790931B07E614F7040CF446C178
:1043D000C95CDD4F28813981C753D240A216B3068C
:1043E00009F09EC033E0D31609F4E1C144EF842EF6
:1043F00099249394A12CB12C8092200790922107AC
:10440000A0922207B092230710922407109225074A
:10441000109226071092270760931C0770931D07C0
:1044200080931E0790931F070E94B9156093180789
:104430007093190780931A0790931B0765E070E04B
:1044400080E090E00E948A116AE070E080E090E0F5
:104450000E948A1185E68093290780912907833677
:1044600009F49AC1853609F051C0809124079091D2
:104470002507A0912607B09127070196A11DB11D20
:104480008093240790932507A0932607B0932707CE
:1044900040912007509121076091220770912307D6
:1044A000452B462B472B21F4892B8A2B8B2B71F51F
:1044B00080E00E94BE12882319F183E00E946612F8
:1044C0006CE273E080915407909155070E944B1065
:1044D000B80180915407909155070E9453136CE2E4
:1044E00073E080915407909155070E944B106D2DF9
:1044F00080915407909155070E9460120E948B1181
:1045000064EF71E080E090E00E9465116AE070E085
:1045100080E090E00E948A1183E00E94F0129BCF1D
:1045200042E0D41609F443C134EF832E99249394C6
:10453000A12CB12C8092200790922107A0922207F3
:10454000B092230710922407109225071092260795
:104550001092270760931C0770931D0780931E0716
:1045600090931F070E94B91560931807709319075D
:1045700080931A0790931B0765E070E080E090E05D
:104580000E948A116AE070E080E090E00E948A1147
:1045900085E68093290780912907833609F4FCC0BA
:1045A000853609F051C08091240790912507A0918C
:1045B0002607B09127070196A11DB11D80932407FE
:1045C00090932507A0932607B093270740912007D3
:1045D000509121076091220770912307452B462BAC
:1045E000472B21F4892B8A2B8B2B71F580E00E94BD
:1045F000BE12882319F184E00E9466126CE273E017
:1046000080915407909155070E944B10B8018091FA
:104610005407909155070E9453136CE273E0809108
:104620005407909155070E944B106D2D80915407AF
:10463000909155070E9460120E948B1164EF71E007
:1046400080E090E00E9465116AE070E080E090E018
:104650000E948A1184E00E94F0129BCF51E0D5168F
:1046600009F4A5C024EF822E99249394A12CB12C97
:104670008092200790922107A0922207B0922307F0
:1046800010922407109225071092260710922707F0
:1046900060931C0770931D0780931E0790931F075C
:1046A0000E94B915609318077093190780931A0731
:1046B00090931B0765E070E080E090E00E948A1113
:1046C0006AE070E080E090E00E948A1185E68093C5
:1046D000290780912907833609F45EC0853609F0E1
:1046E00051C08091240790912507A0912607B09191
:1046F00027070196A11DB11D8093240790932507DC
:10470000A0932607B09327074091200750912107D7
:104710006091220770912307452B462B472B21F4EC
:10472000892B8A2B8B2B71F580E00E94BE12882387
:1047300019F185E00E9466126CE273E080915407E3
:10474000909155070E944B10B801809154079091A9
:1047500055070E9453136CE273E0809154079091C7
:1047600055070E944B106D2D80915407909155076D
:104770000E9460120E948B1164EF71E080E090E073
:104780000E9465116AE070E080E090E00E948A116A
:1047900085E00E94F0129BCF0E94B9156093180724
:1047A0007093190780931A0790931B0783C0C09ECC
:1047B000F001C19EF00D1124E0FC08C03596A1E087
:1047C000B0E0AC0FBD1FEA0FFB1F09C021E030E0D5
:1047D0002C0F3D1FE20FF31F39960F5F1F4F2081F3
:1047E000318142815381D4012D933D934D935C934C
:1047F000139724EF31E040E050E0209320073093FE
:104800002107409322075093230710922407109208
:104810002507109226071092270760931C077093B4
:104820001D0780931E0790931F070E94B915609380
:1048300018077093190780931A0790931B0780E05D
:104840000E94BE128823C1F082E00E9466126CE2D0
:1048500073E080915407909155070E944B10D4014A
:104860004D915D916D917C91809154079091550788
:104870000E9492110E948B1165E070E080E090E050
:104880000E948A110E94B915609318077093190746
:1048900080931A0790931B07BFEFEB1AFB0AE4E023
:1048A0008E0E911C13CD3FEFA31AB30A40E2440EC3
:1048B000511CFFCC6EE273E08AEE95E00E94161068
:1048C000FFCFCE52DF4F1882C25DD040C75ADE4FB5
:1048D00008811981C955D140B801660F771F600F53
:1048E000711F66597D4FCE018E529F4F0E947639BF
:1048F00062E473E0CE018E529F4F0E947639C55A12
:10490000DE4F688179818A819B81CB55D14020E13E
:10491000AE014B5D5D4F0E949632BE016B5D7D4FD7
:10492000CE018E529F4F0E947639F801E959FD4F12
:10493000D080F801EC59FD4F7080912C9D14C1F18D
:1049400062E473E0CE018E529F4F0E94763990E26E
:10495000999E50011124E12CF12C812CB4E0EB0E36
:10496000F11C871419F1F701EA0DFB1DA9E5B1E06F
:10497000AC0FBD1FEA0FFB1F62817381848195819B
:104980008E01025D1D4F21E044E00E94403267E449
:1049900073E0CE018E529F4F0E947639B801CE014E
:1049A0008E529F4F0E9476398394D8CF9394C6CF6E
:1049B000BE016E527F4F8AEE95E00E94161064E4AD
:1049C00073E08AEE95E00E944B10E091BB03F091FA
:1049D000BC030788F08DE02D80E090E0DC012191A0
:1049E000253A21F40196A11DB11DF9CF6AE070E0CE
:1049F0000E9442110E94983060E086E390E00E949D
:104A0000A72E0E947D2F81119DC9B1D29BC9FC01A7
:104A10001382128288EE93E0A0E0B0E08483958355
:104A2000A683B78387E792E091838083128E118EED
:104A300014860895EF92FF920F931F93CF93DF9305
:104A4000EC017B018A011B821A8288EE93E0A0E0D0
:104A5000B0E08C839D83AE83BF8387E792E0998328
:104A600088838DE190E00E941F389A8F898F00978C
:104A700079F02DE1F701DC0101900D922A95E1F723
:104A80004CE050E0B801CE010C960E949339188E8C
:104A9000DF91CF911F910F91FF90EF900895CF93E9
:104AA000DF931F92CDB7DEB741E050E0BE016F5FEC
:104AB0007F4F0E942E0C019719F4898190E002C06B
:104AC0008FEF9FEF0F90DF91CF9108950F920FB668
:104AD000F8940F920BB60F920CB60F921F921124FE
:104AE0002F923F924F925F926F927F928F929F92FE
:104AF000AF92BF92CF92DF92EF92FF920F931F93EC
:104B00002F933F934F935F936F937F938F939F93D5
:104B1000AF93BF93CF93DF93EF93FF93A091BB032A
:104B2000B091BC030DB60D920EB60D9213BE8091DE
:104B300071038111F3C08091740390917503019604
:104B40009093750380937403009799F520917903EE
:104B500030917A03409177035091780350937A0310
:104B60004093790330937803209377032091760361
:104B70002F5F20937603E0917903F0917A032081EF
:104B8000211107C02FEF3FEF3093700320936F0385
:104B900010C0E0917903F0917A030580F681E02D51
:104BA0000680F781E02D22813381309370032093BA
:104BB0006F0320916F03309170038217930710F4F5
:104BC00020E09CC020E019E0E0917903F0917A03A5
:104BD0003081311107C08FEF9FEF90937003809366
:104BE0006F038CC0E0917903F0917A030580F68120
:104BF000E02D0680F781E02D4281538184179507CF
:104C000028F45093700340936F0378C0AF014E5F58
:104C10005F4FA285B38564817581E680F780EB01E3
:104C2000FD82EC82C681D7817B836A8311966D9168
:104C30007C9112976417750721F41296DC93CE933A
:104C40001197138612863C9131503C933C91A48974
:104C5000B5891097F9F066857785E088F188EB01D2
:104C6000FD82EC82C089D1897B836A831196ED90A5
:104C7000FC901297BF01645F7F4FE616F70621F4A0
:104C80001296DC93CE931197158A148A3C91315079
:104C90003C933C91A6893091BA033A1710F4A09343
:104CA000BA031A9FD0011124BD016A567C4F7B01C3
:104CB000DB011196CD91DC911297D583C4836C8171
:104CC0007D81778366836C817D81DB0113965C93A4
:104CD0004E9312975D834C83F386E286E701388119
:104CE0003F5F3883A091BB03B091BC0346895696C1
:104CF0003C91431708F468CF21E066CFE091BB03F5
:104D0000F091BC03E689D9E0ED9FF0011124EA5649
:104D1000FC4F8081823040F021E006C08091670A1C
:104D20008F5F8093670A20E08091680A811103C039
:104D3000222309F466C080917103882321F081E069
:104D40008093680A5EC01092680AA091BB03B0917C
:104D5000BC03E091BB03F091BC032D913C9187898A
:104D6000908D82179307A8F08091BB039091BC03AC
:104D70008091BB039091BC03279A2F9A2FEF67EA8B
:104D800071E6215060407040E1F700C000001F9ABA
:104D9000F5CF8091BA0369E001C08150482F50E0FF
:104DA000649F9001659F300D1124F901EA56FC4F74
:104DB0009081992391F3A181B28112960D90BC91BB
:104DC000A02DB283A18327563C4FA217B30731F41D
:104DD00012962D913C9113973283218399E0949FF1
:104DE000F001959FF00D1124EA56FC4F0180F281ED
:104DF000E02D268137813093BC032093BB03809341
:104E0000BA03A091BB03B091BC03CD91CDBFDD919E
:104E1000DEBFFF91EF91DF91CF91BF91AF919F9155
:104E20008F917F916F915F914F913F912F911F9142
:104E30000F91FF90EF90DF90CF90BF90AF909F9039
:104E40008F907F906F905F904F903F902F901F902A
:104E50000F900CBE0F900BBE0F900FBE0F900895D9
:104E6000EF92FF920F931F93CF93DF93EC010FB656
:104E7000F8940F921E8D7C0181E1E80EF11C01E097
:104E8000111654F48989882339F0C701F9D78111A3
:104E90000093680A1150F4CF8FEF8E8F0F900FBEE2
:104EA0000FB6F8940F921D8D7E0188E0E80EF11C7C
:104EB00001E0111654F48885882339F0C701E0D742
:104EC00081110093680A1150F4CF8FEF8D8F0F90EE
:104ED0000FBEDF91CF911F910F91FF90EF9008953A
:104EE000F5DD1895CF93DF93FC01A085B185828114
:104EF000938124813581EC013D832C83C481D5814C
:104F00009B838A8311968D919C9112978E179F0790
:104F100021F41296DC93CE931197118610868C9112
:104F200081508C938C91DF91CF910895CF93DF9333
:104F30009C01FB01DC011196CD91DC911297D3838A
:104F4000C2838C819D81958384838C819D81DC01CA
:104F500013967C936E9312977D836C8331872087A1
:104F6000F90180818F5F8083DF91CF9108950F9247
:104F70000FB6F8940F920BB60F920CB60F921F92C9
:104F800011242F923F924F925F926F927F928F9255
:104F90009F92AF92BF92CF92DF92EF92FF920F93C8
:104FA0001F932F933F934F935F936F937F938F93B1
:104FB0009F93AF93BF93CF93DF93EF93FF93A09112
:104FC000BB03B091BC030DB60D920EB60D9280914D
:104FD0007103882321F081E08093680A5EC01092FB
:104FE000680AA091BB03B091BC03E091BB03F091B0
:104FF000BC032D913C918789908D82179307A8F06F
:105000008091BB039091BC038091BB039091BC0342
:10501000279A2F9A2FEF87EA91E6215080409040FF
:10502000E1F700C000001F9AF5CF8091BA0369E054
:1050300001C08150482F50E0649F9001659F300D62
:105040001124F901EA56FC4F9081992391F3A18133
:10505000B28112960D90BC91A02DB283A1832756E8
:105060003C4FA217B30731F412962D913C91139740
:105070003283218399E0949FF001959FF00D1124D4
:10508000EA56FC4F0180F281E02D26813781309372
:10509000BC032093BB038093BA03A091BB03B091E0
:1050A000BC03CD91CDBFDD91DEBFFF91EF91DF91CC
:1050B000CF91BF91AF919F918F917F916F915F91B0
:1050C0004F913F912F911F910F91FF90EF90DF90A3
:1050D000CF90BF90AF909F908F907F906F905F9098
:1050E0004F903F902F901F900F900CBE0F900BBED3
:1050F0000F900FBE0F9008950F931F93CF93DF93E0
:105100008C01FB01808191818F3F2FEF920721F469
:10511000E801AF81B8850EC0D801139612962D9183
:105120003C911397E901488159818417950710F044
:10513000D901F4CF12968D919C911397938382831A
:10514000EC01FD83EC83B583A4831396FC93EE936B
:10515000129711870087F80180818F5F8083DF912C
:10516000CF911F910F910895FC0103969283818343
:105170002FEF3FEF34832383968385839087878344
:1051800010820895CF93DF93009741F0EC01D0D7C0
:10519000CE010E94B438DF91CF91AFC6DF91CF919D
:1051A00008950F931F93CF93DF931F921F92CDB754
:1051B000DEB789839A83BCD789819A810E941F3880
:1051C0008C019BD60115110511F40E946717C801C7
:1051D0000F900F90DF91CF911F910F910895AF9293
:1051E000BF92CF92DF92EF92FF920F931F93CF93D4
:1051F000DF9300D01F921F92CDB7DEB78C017B01E9
:105200001D821C8290E0580188E0A80EB11C0FB6E8
:10521000F8940F92F801228D838D281708F069C049
:10522000D28C448D41113DC080819181892B09F040
:1052300050C0F801E280F380E114F10411F480E041
:105240002CC0F70182A1815082A3268991A1291740
:10525000B1F38111F4CF5701F2E0AF0EB11CC501DB
:1052600041DEF70191A1968B492F50E024E030E018
:10527000241B350B358724878091BA03891710F4D6
:105280009093BA0329E0249FC001259F900D11241B
:10529000B5018A569C4F4ADE81E0F80113821282E2
:1052A00019C050E0B701F801848195810E946639E8
:1052B000F801248D84819581820F911D95838483CB
:1052C000228133818217930720F080819181958319
:1052D000848380E0D394F801D28E9189992319F0C8
:1052E000C8014196CDD5811142DE0F900FBE81E0FD
:1052F00055C02C813D81232B19F40F900FBE4DC05A
:10530000911109C0809176038983809174039091F3
:1053100075039B838A830F900FBE0AD70FB6F8944C
:105320000F92F801858D8F3F09F4158EF801868D57
:105330008F3F09F4168E0F900FBEBE016C5F7F4F3A
:10534000CE01019667D5811125C00FB6F8940F9252
:10535000F801928D838D0F900FBE981317C0CC80EB
:10536000DD802091BB033091BC03B901645F7F4FA6
:10537000C501C2DE61E0C601EAD4C80171DDBDD558
:10538000882311F091E043CFF2DDFCCFC80168DD46
:10539000B4D5F8CFC80164DDB0D580E00F900F9090
:1053A0000F900F900F90DF91CF911F910F91FF9071
:1053B000EF90DF90CF90BF90AF9008957F928F9243
:1053C0009F92AF92BF92CF92DF92EF92FF920F9394
:1053D0001F93CF93DF93982EC92E762E872EEA0146
:1053E000D22ECA01DEDE5C01892B09F441C188E2BC
:1053F00090E0D7DE7C010097D9F0DC015896BC9292
:10540000AE925797AE0165EA70E0C5010E946F3910
:105410002197D7015796ED91FC915897EC0FFD1FFE
:10542000B701675E7F4FA72DB82DCD01089606C046
:10543000C501A8DE1DC1A817B90749F09D014D910E
:10544000EB014993BE01E90128812111F4CFD70175
:1054500090961C922D2D243008F023E0E7012E8B2E
:1054600029A31AA21B861A861D8A1C8AF986E88639
:1054700084E090E0821B91099D878C87FB8AEA8AF1
:105480001BA21CA21DA21EA21FA291E19083DF01FC
:10549000119782E28C93119723E32C9311979C929E
:1054A0001197CC9211971C9211971C92119720E89A
:1054B0002C9311971C9211971C9211971C92119783
:1054C00022E02C93119723E02C93119724E02C9346
:1054D000119725E02C93119726E02C93119727E044
:1054E0002C93119728E02C93119729E02C93119776
:1054F00020E12C9311979C93119792E19C93119723
:1055000093E19C93119794E19C93119795E19C935F
:10551000119796E19C93119797E19C93119798E1CD
:105520009C93119799E19C93119790E29C9311970A
:1055300091E29C9311978C93119783E28C9311972E
:105540001C9211971C92119786E28C93119787E217
:105550008C93119788E28C93119789E28C93119721
:1055600080E38C93119781E38C93B997F983E88357
:105570000115110519F0F801F182E0820FB6F894D7
:105580000F928091BD038F5F8093BD038091BB0319
:105590009091BC03892B89F5F092BC03E092BB0388
:1055A0008091BD03813009F03AC086E993E0DCDDEB
:1055B0008FE993E0D9DD88EA93E0D6DD81EB93E0D3
:1055C000D3DD8FED95E0D0DD86ED95E0CDDD8DE886
:1055D00093E0CADD84E893E0C7DD8BE793E0C4DDA8
:1055E0008FED95E090937A038093790386ED95E0B3
:1055F000909378038093770312C08091E90581111D
:105600000EC0E091BB03F091BC039689D70156967A
:105610008C91891720F0F092BC03E092BB0380913B
:10562000E8058F5F8093E805E7018E899091BA03C2
:10563000981710F48093BA03D9E08D9FC00111240C
:10564000B7016E5F7F4F8A569C4F70DC0F900FBE84
:105650008091E905882351F0E091BB03F091BC03F0
:105660009689F7018689981708F481DC81E001C0EA
:105670008FEFDF91CF911F910F91FF90EF90DF900F
:10568000CF90BF90AF909F908F907F900895CF93D1
:10569000DF9300D01F921F92CDB7DEB79C0180919F
:1056A000720390917303009761F019827B836A8380
:1056B0003D832C832091E905222329F02091710359
:1056C00002C080E004C0BE016F5F7F4F88DD0F9095
:1056D0000F900F900F900F90DF91CF9108957894D5
:1056E00084B5826084BD84B5816084BD85B58260E7
:1056F00085BD85B5816085BD80916E008160809398
:105700006E00109281008091810082608093810000
:105710008091810081608093810080918000816010
:10572000809380008091B10084608093B10080916B
:10573000B00081608093B00080919100826080937E
:105740009100809191008160809391008091900000
:105750008160809390008091A10082608093A1007D
:105760008091A10081608093A1008091A000816060
:105770008093A0008091210182608093210180911B
:1057800021018160809321018091200181608093BB
:10579000200180917A00846080937A0080917A0061
:1057A000826080937A0080917A00816080937A0091
:1057B00080917A00806880937A001092C1000E94E4
:1057C000430204ED15E020E040EC50E065EA72E0B1
:1057D00082EE91E0F3DD813009F080C00FB6F894DD
:1057E0000F928091720390917303892BC9F489EC15
:1057F00095E0BADC80EC95E0B7DC89EC95E090931D
:105800006E0380936D0380EC95E090936C0380931E
:105810006B0365E08AE0C3D19093730380937203B6
:105820000F900FBE8091720390917303892B09F43E
:1058300055C002ED15E023E045E550E06AEA72E06C
:105840008EE990E3BBDD813009F048C0F8942FEF7A
:105850003FEF3093700320936F038093E90510921C
:10586000750310927403A89520EC88E190E00FB6C0
:10587000F894A895809360000FBE20936000A091DB
:10588000BB03B091BC03CD91CDBFDD91DEBFFF91D5
:10589000EF91DF91CF91BF91AF919F918F917F91C8
:1058A0006F915F914F913F912F911F910F91FF90B9
:1058B000EF90DF90CF90BF90AF909F908F907F90B0
:1058C0006F905F904F903F902F901F900F900CBE65
:1058D0000F900BBE0F900FBE0F9008950E94671798
:1058E0000E9443020E94550EFDCFBF92CF92DF92DD
:1058F000EF92FF920F931F93CF93DF9304E418E08E
:10590000D80113961C921E92129748EE53E060E065
:1059100070E0E8014C835D836E837F838CE292E0CC
:105920009983888325E331E03D872C8724E331E0A8
:105930003F872E8720E331E0398B288B21E331E04C
:105940003B8B2A8B22E331E03D8B2C8B26E331E02D
:105950003F8B2E8B198E1A8E1B8E1C8EC7E6D7E0BE
:105960001B821A824C835D836E837F839983888335
:1059700025ED30E03D872C8724ED30E03F872E87F2
:1059800020ED30E0398B288B21ED30E03B8B2A8BEA
:1059900022ED30E03D8B2C8B26ED30E03F8B2E8BC3
:1059A000198E1A8E1B8E1C8EEAEEF5E0138212827F
:1059B00044835583668377839183808385EC90E06D
:1059C0009587848784EC90E09787868780EC90E0C9
:1059D000918B808B81EC90E0938B828B82EC90E0BA
:1059E000958B848B86EC90E0978B868B118E128E34
:1059F000138E148EE7ECF6E080E580831182E9ECEB
:105A0000F6E0158216821186138682E090E0A0E00F
:105A1000B0E084879587A687B78713A215A614A63A
:105A200080E592E093A782A717A6E2E1F7E016824D
:105A3000178210861186128613861486158616869E
:105A40001786108A118A128A138A148A158A66E6C2
:105A500081E0A5D09093660A8093650A66E681E0AE
:105A60009ED09093640A8093630AE1E5F9E0108286
:105A7000128301831092B80980E2B82EEAEBF9E0B4
:105A8000DF018B2D1D928A95E9F740E05BE460E031
:105A900070E0C8010E94A51394EFC92EDD24D394B1
:105AA000E12CF12CD8011496CD92DD92ED92FC926E
:105AB00017971092B9091092220910922309109297
:105AC00024091092250911E01093DA09D093DC091A
:105AD000C093DB091092410AE3E4FAE0DF011D9272
