:100000008BC40000BAC40000B8C40000B6C400002D
:10001000B4C40000B2C40000B0C40000AEC400000C
:10002000ACC40000AAC40000A8C40000A6C400001C
:100030000C944539A2C40000A0C400009EC4000076
:100040009CC400009AC4000098C4000096C400003C
:1000500094C4000092C4000090C400000C94DC30F2
:100060008CC400000C94FE1D0C94D41D86C40000AA
:1000700084C4000082C4000080C400007EC400006C
:100080007CC400007AC4000078C4000076C400007C
:100090000C94AA1D0C94801D70C400000C94263191
:1000A0006CC400006AC4000068C4000066C400009C
:1000B00064C4000062C4000060C400005EC40000AC
:1000C0005CC400005AC4000058C400000C94561DC3
:1000D0000C942C1D52C400000C94021D0C94D81CCE
:1000E0004CC40000FF36FF36FF36C63620372D37AA
:1000F000FF36FF36C63620372B302E301D302130EC
:1001000025306530323036303C30403044304A3073
:100110004E305230653058305C3060304E414E4980
:100120004E495459494E46CDCCCC3D0AD7233C17B5
:10013000B7D13877CC2B329595E6241FB14F0A0002
:100140000020410000C84200401C4620BCBE4CCAF2
:100150001B0E5AAEC59D7400407A10F35A00A0726F
:100160004E18090010A5D4E80000E87648170000F2
:10017000E40B54020000CA9A3B000000E1F50500C0
:100180000080969800000040420F000000A0860109
:10019000000000102700000000E8030000000064D9
:1001A00000000000000A0000000000010000000044
:1001B000002C76D888DC674F0823DFC1DFAE59E119
:1001C000B1B796E5E3E453C63AE651997696E8E688
:1001D000C28426EB898C9B62ED407C6FFCEFBC9C5B
:1001E0009F40F2BAA56FA5F490055A2AF75C936B6D
:1001F0006CF9676DC11BFCE0E40D47FEF520E6B528
:1002000000D0ED902E0300943577050080841E0801
:100210000000204E0A000000C80C333333330F981F
:100220006E12831141EF8D2114893BE65516CFFEE6
:10023000E6DB18D1844B381BF77C1D901DA4BBE472
:1002400024203284725E228100C9F124ECA1E53DB4
:100250002720202020202020202020202020202097
:100260002020202020004E6F20646174612066727F
:100270006F6D20536C6176652100202020202020A6
:100280002020202020202020202020202020004E60
:100290006F20646174612066726F6D204D617374AC
:1002A000657221007C3C3E5E2B3D3F2F5B5D3B2C0D
:1002B0002A225C0000000000003E5B4F5B3E3E6B6C
:1002C0004F6B3E1C3E7C3E1C183C7E3C181C577DF0
:1002D000571C1C5E7F5E1C00183C1800FFE7C3E73C
:1002E000FF0018241800FFE7DBE7FF30483A060E4E
:1002F0002629792926407F050507407F05253F5A95
:100300003CE73C5A7F3E1C1C08081C1C3E7F142204
:100310007F22145F5F005F5F06097F017F006689AF
:10032000956A606060606094A2FFA29408047E04F5
:100330000810207E201008082A1C08081C2A08081B
:100340001E101010100C1E0C1E0C30383E383006DB
:100350000E3E0E06000000000000005F00000007D7
:10036000000700147F147F14242A7F2A1223130805
:10037000646236495620500008070300001C2241E1
:10038000000041221C002A1C7F1C2A08083E080885
:100390000080703000080808080800006060002035
:1003A000100804023E5149453E00427F4000724918
:1003B0004949462141494D331814127F10274545BC
:1003C00045393C4A494931412111090736494949D2
:1003D00036464949291E0000140000004034000040
:1003E00000081422411414141414004122140802A9
:1003F000015909063E415D594E7C1211127C7F491C
:100400004949363E414141227F4141413E7F494970
:1004100049417F090909013E414151737F0808089C
:100420007F00417F41002040413F017F081422416D
:100430007F404040407F021C027F7F0408107F3EC7
:100440004141413E7F090909063E4151215E7F0934
:10045000192946264949493203017F01033F40409B
:10046000403F1F2040201F3F4038403F6314081486
:100470006303047804036159494D43007F414141BE
:100480000204081020004141417F0402010204409F
:1004900040404040000307080020545478407F2823
:1004A0004444383844444428384444287F38545419
:1004B000541800087E090218A4A49C787F0804043C
:1004C0007800447D40002040403D007F10284400DB
:1004D00000417F40007C047804787C08040478386C
:1004E00044444438FC1824241818242418FC7C089C
:1004F000040408485454542404043F44243C404019
:10050000207C1C2040201C3C4030403C44281028CB
:10051000444C9090907C4464544C44000836410014
:100520000000770000004136080002010204023C8E
:100530002623263C1EA1A161123A4040207A38545D
:1005400054555921555579412254547842215554D6
:10055000784020545579400C1E5272123955555529
:1005600059395454545939555454580000457C4114
:100570000002457D420001457C407D1211127DF054
:10058000282528F07C545545002054547C547C0A7E
:10059000097F4932494949323A4444443A324A4847
:1005A00048303A4141217A3A42402078009DA0A04B
:1005B0007D3D4242423D3D4040403D3C24FF24249D
:1005C000487E4943662B2FFC2F2BFF0929F620C0BC
:1005D000887E090320545479410000447D4130480D
:1005E000484A32384040227A007A0A0A727D0D1950
:1005F000317D2629292F28262929292630484D40B2
:1006000020380808080808080808382F10C8ACBAAD
:100610002F102834FA00007B000008142A1422222C
:10062000142A14085500550055AA55AA55AAFF5575
:10063000FF55FF000000FF00101010FF00141414FD
:10064000FF001010FF00FF1010F010F0141414FC45
:10065000001414F700FF0000FF00FF1414F404FC62
:10066000141417101F10101F101F1414141F001043
:100670001010F0000000001F101010101F101010BC
:1006800010F010000000FF101010101010101010CB
:10069000FF10000000FF140000FF00FF00001F100B
:1006A000170000FC04F414141710171414F404F4C5
:1006B0000000FF00F714141414141414F700F714B6
:1006C0001414171410101F101F141414F414101005
:1006D000F010F000001F101F0000001F14000000A9
:1006E000FC140000F010F01010FF10FF141414FFA1
:1006F000141010101F00000000F010FFFFFFFFFF9C
:10070000F0F0F0F0F0FFFFFF0000000000FFFF0F2F
:100710000F0F0F0F3844443844FC4A4A4A347E02D3
:10072000020606027E027E02635549416338444454
:100730003C04407E201E2006027E020299A5E7A509
:10074000991C2A492A1C4C7201724C304A4D4D307A
:100750003048784830BC625A463D3E494949007E9F
:100760000101017E2A2A2A2A2A44445F4444405136
:100770004A444040444A51400000FF0103E080FFEA
:10078000000008086B6B083612362436060F090F76
:1007900006000018180000001010003040FF010192
:1007A000001F01011E00191D1712003C3C3C3C00BB
:1007B0000000000000002200250028002B002E0071
:1007C0003100340002010000050108010B010000A6
:1007D0002100240027002A002D00300033000101F1
:1007E0000000040107010A010505050507050808C1
:1007F0000808020202020A0A0808040404040101AB
:1008000001010101010103030303030303030407BF
:1008100007070C0C0C0C0C0C0C0C02020202060656
:100820000606060606060B0B0B0B0B0B0B0B010249
:1008300010202008081020401020408002010201F2
:1008400008040201010204081020408080402010AA
:100850000804020180040201804020100804020103
:10086000080402010102040810204080010204086B
:100870001020408000000A0B02090C0D0E0807032F
:100880000401000000000000000000000000000063
:100890000000000000000000000000000000000058
:1008A0001211100000000000000000000000000015
:1008B000000000000000000000008091A4058823D3
:1008C00009F10FB6F8940F92E0919305F091940519
:1008D000C681D781CE0102960E94473980918D054D
:1008E000815080938D058091A40581508093A4054B
:1008F0000F900FBE8F89988D0E94B03ACE010E9452
:10090000B03ADBCF8091FC05823010F00E948C3928
:100910000E94D92ED2CF593C11241FBECFEFD1E275
:10092000DEBFCDBF00E00CBF13E0A0E0B2E0EAE420
:10093000F0E900E00BBF02C007900D92AA34B107A6
:10094000D9F72BE0AAE4B3E001C01D92A93AB2079F
:10095000E1F714E0CCE8D4E000E006C021970109FB
:10096000802FFE010E946346CB38D10780E0080744
:10097000A9F70E94AA320C94234842CBAF92BF92AF
:10098000CF92DF92FF920F931F93CF93DF936C016F
:10099000EB0183E0F82E80E0FF20D9F08F5F082F75
:1009A00010E05E01A00EB11EF50190819930A1F713
:1009B000FA9461EF72E0C6010E94CD47A801415050
:1009C0005109BE016F5F7F4FC6010E94EA47E501F2
:1009D000E2CFCE01DF91CF911F910F91FF90DF9079
:1009E000CF90BF90AF900895CF93DF93CDB7DEB790
:1009F000C45AD1090FB6F894DEBF0FBECDBFEA9638
:100A00001FAE1EAEEA978EE092E0E8969FAF8EAFE3
:100A1000E897CA57DF4F1882C658D0408FEFCB57A0
:100A2000DF4F8883C558D040CC57DF4F1882C45859
:100A3000D040C957DF4F1882C758D04087E2CF5700
:100A4000DF4F8883C158D040CE57DF4F1882C2583D
:100A5000D040CD57DF4F1882C358D040C158DF4F28
:100A600019821882CF57D04084E0C857DF4F88835F
:100A7000C858D04082E0C757DF4F8883C958D0405C
:100A800011E0C657DF4F1883CA58D04080E1C557E0
:100A9000DF4F8883CB58D04080E2C457DF4F888334
:100AA000CC58D04080E4C357DF4F8883CD58D04026
:100AB00080E8C257DF4F8883CE58D04040E050E0F6
:100AC00063E0CE018A589F4F0E9436292D961FAEB3
:100AD0001EAE2D9780E890E02F969FAF8EAF2F9798
:100AE00061969FAF8EAF619763969FAF8EAF63970E
:100AF00065969FAF8EAF65976F961FAE6F9767969F
:100B00001FAE1EAE679769961FAE1EAE69976E96B2
:100B10001FAF6E978FEF9FEF6D969FAF8EAF6D9764
:100B20006B969FAF8EAF6B97A0961FAFA097A196C5
:100B30001FAEA197A3961FAE1EAEA39782E292E0CE
:100B40002B969FAF8EAF2B978AE0AE968FAFAE9766
:100B500089E0AF968FAFAF978BE0E0968FAFE097CD
:100B600020E044E064E1CE018A589F4F0E943D2C72
:100B70006FEFCE018A589F4F0E94972AE5961FAECD
:100B8000E597E6961FAEE697AF968FADAF970E94BA
:100B90007D2EAE968FADAE970E947D2EAE962FAD78
:100BA000AE9730E0F901E851F84FE491F0E0EE0F34
:100BB000FF1FEC54F84F85919491AB969FAF8EAF89
:100BC000AB97AF964FADAF9750E0FA01E851F84FB1
:100BD0008491E82FF0E0EE0FFF1FEC54F84F859161
:100BE0009491AD969FAF8EAFAD97F901E25DF74F4F
:100BF000E491E396EFAFE397FA01E25DF74FE491FA
:100C0000E496EFAFE4970E94862B80E5809332084C
:100C100010933308AB96EEADFFADAB979081E396A2
:100C20008FADE397809589238083E0968FADE09721
:100C30008F3F31F10E947D2E61E0E0968FADE0970D
:100C40000E94FC2F64EF71E080E090E00E949830F9
:100C500060E0E0968FADE0970E94FC2F64EF71E0BA
:100C600080E090E00E94983061E0E0968FADE097E0
:100C70000E94FC2F64EF71E080E090E00E949830C9
:100C8000A4961FAEA49781E0A5968FAFA59761E0CB
:100C9000CE01875B9F4F0E94912564EF71E080E059
:100CA00090E00E94983061E1CE01875B9F4F0E94E7
:100CB000912565E070E080E090E00E9498306AE362
:100CC000CE01875B9F4F0E94912565E0CE01875B37
:100CD0009F4F0E945B2565E070E080E090E00E94FD
:100CE000983066E2CE01875B9F4F0E94912564E0B9
:100CF000CE01875B9F4F0E945B2561E070E080E042
:100D000090E00E94983062EFCE01875B9F4F0E9477
:100D1000912561E0CE01875B9F4F0E945B2561E0DA
:100D200070E080E090E00E94983063E1CE01875B44
:100D30009F4F0E94912566EBCE01875B9F4F0E94DB
:100D400091256FEFCE01875B9F4F0E945B2566E088
:100D5000CE01875B9F4F0E945B2560EECE01875BD3
:100D60009F4F0E94912509E512E04FE0D42ED00E4E
:100D7000F80161918F01CE01875B9F4F0E945B2537
:100D8000D012F6CF61EECE01875B9F4F0E94912576
:100D90000AE412E03FE0D32ED00EF80161918F01FA
:100DA000CE01875B9F4F0E945B25D012F6CF61EB8F
:100DB000CE01875B9F4F0E94912568E0CE01875B43
:100DC0009F4F0E945B2562E0CE01875B9F4F0E9490
:100DD0005B2561E070E080E090E00E94983064EB79
:100DE000CE01875B9F4F0E94912567E0CE01875B14
:100DF0009F4F0E945B2561E070E080E090E00E94E0
:100E0000983060ECCE01875B9F4F0E9491256AE08D
:100E1000CE01875B9F4F0E945B2562E0CE01875B1E
:100E20009F4F0E945B2561E070E080E090E00E94AF
:100E3000983061ECCE01875B9F4F0E94912562E064
:100E4000CE01875B9F4F0E945B2561E070E080E0F0
:100E500090E00E94983065ECCE01875B9F4F0E9426
:100E6000912560E5CE01875B9F4F0E945B2563E67D
:100E7000CE01875B9F4F0E945B2561E070E080E0C0
:100E800090E00E94983067ECCE01875B9F4F0E94F4
:100E9000912560E0CE01875B9F4F0E945B2561E05A
:100EA00070E080E090E00E9498306AE2CE01875BBB
:100EB0009F4F0E94912560E070E0CE01875B9F4FBD
:100EC0000E941F2560E870E0CE01875B9F4F0E9463
:100ED0001F256BE2CE01875B9F4F0E94912560E04A
:100EE00070E0CE01875B9F4F0E941F2560EA70E093
:100EF000CE01875B9F4F0E941F2563E3CE01875B76
:100F00009F4F0E94912560E270E0CE01875B9F4F6A
:100F10000E941F2560E870E0CE01875B9F4F0E9412
:100F20001F2560E070E0CE01875B9F4F0E941F2568
:100F3000A5968FADA597811105C0A4968FADA497F6
:100F4000877F04C0A4968FADA4978860A4968FAFC6
:100F5000A49760E0CE01875B9F4F0E94C82569E29D
:100F6000CE01875B9F4F0E94912561E070E080E099
:100F700090E00E9498306CE2CE01875B9F4F0E9408
:100F8000912561E070E080E090E00E94983060E0A0
:100F900070E0CE01875B9F4F0E94852663E0CE0103
:100FA000875B9F4F0E94C82560E070E0CE01875BA1
:100FB0009F4F0E9485268FE890E08C0F9D1F04961E
:100FC000CD55DF4F99838883C35AD0402FE3222E1B
:100FD000312C412C512CBE016F5F7F4F8091060B4D
:100FE0009091070B0E94473E813009F092C1C15792
:100FF000DF4F188219821A821B82CF58D0408CE0B2
:10100000CD55DF4FE881F981C35AD04011928A95BE
:10101000E9F7CE0104968C010196F8012081293070
:10102000D1F789819A81892B09F07EC0818161E0A5
:101030008D3269F4CE018A589F4F0E94492E6FE885
:1010400072E0CE018A589F4F0E945D1C27C0CE01DE
:101050008A589F4F0E94492E6AE772E0CE018A5853
:101060009F4F0E945D1C60E0CE018A589F4F0E94F6
:10107000492E63EF72E0CE018A589F4F0E94811C77
:10108000B801CE0181579F4F79DC8C01BE016157B9
:101090007F4FCE018A589F4F0E94811C0F5F1F4FC8
:1010A00068010F5F1F4FF60180818930C9F7C15772
:1010B000DF4F1882CF58D04081818D3271F463E0C8
:1010C000CE018A589F4F0E94492E66E672E0CE01FB
:1010D0008A589F4F0E945D1C27C061E0CE018A584C
:1010E0009F4F0E94492E61E572E0CE018A589F4FC2
:1010F0000E945D1C62E0CE018A589F4F0E94492EDB
:1011000067EF72E0CE018A589F4F0E94811CB601A2
:10111000CE0181579F4F32DCBE0161577F4FCE0118
:101120008A589F4F0E94811CCE0103963C01019674
:10113000F30120812930D1F789819A81019709F043
:101140004ACF88E0882E912CCF55DF4F1982188224
:10115000C15AD040C301FC01019620812930D9F742
:101160003C010E94663FCF55DF4FE881C15AD04015
:10117000E0FD0DC00E941B469B01AC01A1E8BFEF42
:101180000E9419452CE330E040E050E00CC00E9482
:101190001B469B01AC01A1E8BFEF0E94194520E36B
:1011A00030E040E050E00E94F1441FE7120F10329F
:1011B00028F0812F103618F08FE501C080E290E012
:1011C000A0E0B0E06C017D01F0E2CF1AD108E108A7
:1011D000F108AFEFB0E0A70196010E940D45A20112
:1011E00091010E94F144022F087FA1E0BFEFA70107
:1011F00096010E941945A20191010E94F144DA0171
:10120000C90181509F4FAF4FBF4F9C0193E035956F
:1012100027959A95E1F7C901902BC156DF4F998325
:101220008883CF59D040A1E8BFEFA70196010E9463
:101230001945A20191010E94F144DA01C9018158C6
:101240009F4FAF4FBF4F282F2C7F98E0299F500111
:101250001124C156DF4FE881F981CF59D040AE2A21
:10126000BF2AC12ED12CCF55DF4F88819981C15A19
:10127000D040E12CF12C860127E030E040E050E046
:10128000029784F4B401CE01875B9F4F0E943426FD
:101290000FE710E00C191D09750127E030E0A601E9
:1012A000B4011CC0F401F496C156DF4FF983E88302
:1012B000CF59D040BF01CE01875B9F4F0E9434269B
:1012C0000FE710E00C191D09750127E030E0A601B9
:1012D000C156DF4F68817981CF59D040CE01875BFD
:1012E0009F4F0E943426CF55DF4F88819981C15A84
:1012F000D0400196CF55DF4F99838883C15AD040A3
:1013000093E1890E911CE4E58E16910409F022CF39
:1013100062CE86E090E00E94513A5DCECF93DF939B
:10132000CDB7DEB7CB54D1090FB6F894DEBF0FBEF0
:10133000CDBF06E413E48DE4E82E84E5F82EBE016B
:101340006F5F7F4F8091080B9091090B0E94473E81
:101350002C961DAE1EAE1FAE2C97813071F5898183
:101360009A81009739F0019749F42B96FFAEEEAEC3
:101370002B9704C02B961FAF0EAF2B97BE01675B58
:101380007F4F8EEF96E00E94811CE091FE06F09167
:10139000FF060190F081E02D69E08EEF96E019954F
:1013A000BE016D5F7F4F8EEF96E00E94811C6BEF58
:1013B00072E08EEF96E00E94811C82E190E00E9434
:1013C000513ABDCFCF93DF93CDB7DEB7C854D10923
:1013D0000FB6F894DEBF0FBECDBF01E010E01A8259
:1013E00019821B8267EA75E0CE0103960E94CD4701
:1013F0006EEF72E0CE0103960E94CD478091800A85
:101400001092800A882341F0BE016D5F7F4F8CEF00
:1014100099E00E94D92706C060E073E0CE010396F0
:101420000E94CD476EEF72E0CE0103960E94CD4739
:101430008091050B1092050B882341F0BE016D5F72
:101440007F4F81E89AE00E94D92706C060E073E0F0
:10145000CE0103960E94CD4744E650E0BE016F5F87
:101460007F4F8091080B9091090B0E94523D44E6FA
:1014700050E0BE016F5F7F4F8091060B9091070B8C
:101480000E94523D1A8309831B8260EB75E0CE01F6
:1014900003960E94CD476EEF72E0CE0103960E9444
:1014A000CD47BE016D5F7F4F84E398E00E946427C3
:1014B0006EEF72E0CE0103960E94CD47BE016D5FD4
:1014C0007F4F8BE398E00E94642744E650E0BE0122
:1014D0006F5F7F4F8091080B9091090B0E94523DE6
:1014E00044E650E0BE016F5F7F4F8091060B909104
:1014F000070B0E94523D8EE390E00E94513A6FCF5D
:10150000EC018C01095F1F4FCE010E94C327C80167
:101510000E94C32785E290E00E94513AF5CF7C01FA
:101520006C0185E8C80ED11C0E9401358C01C701F1
:101530000E942028C6010E9420280E941F36209168
:10154000F9053091FA05E801AE962017310720F42D
:10155000C017D10738F403C0C017D10760F02C17AB
:101560003D0748F00E940B35882311F08E01DFCF34
:101570000E948C39FBCF60E0CE01821B930B0E944E
:101580002B34F0CF8F929F92AF92BF92CF92DF9287
:10159000EF92FF920F931F93CF93DF931F921F92AF
:1015A000CDB7DEB7E0910E07F0910F0782E08083A0
:1015B000E0910A07F0910B071082E0910C07F0917F
:1015C0000D078FEC808310921607E0911207F091BF
:1015D000130786E08083E0911007F0911107808166
:1015E00080618083E0911007F0911107808188600D
:1015F0008083E0911007F0911107808180688083DB
:10160000E0911007F091110780818F7D808364E65F
:1016100070E080E090E00E949830C12CD12C7601DF
:10162000C11480E1D806E104F10461F1C6010E9411
:10163000E9448983C60101960E94E9448A830981AD
:101640001A810F3F8FEF1807B9F04AE0C701B601C2
:101650000E94961C61EF72E08EEF96E00E94811C62
:10166000B80180E090E04AE00E94961C6BEF72E0C7
:101670008EEF96E00E94811C82E0C80ED11CE11C16
:10168000F11CCECF1092F4071092F2071092EF07E0
:101690001092EE0784E08093ED070E94D0306B013A
:1016A0007C018091ED070E947D2E61E08091ED0725
:1016B0000E94FC2F0E94862B82E58093E707109200
:1016C000E8078091E7079091E8070E94AC241AE0B0
:1016D0008FEF0E9471231150D9F776010E94882460
:1016E00089EE97E00E94AF2420E030E0A90160E09D
:1016F00089EE97E00E94C424182F8093F30781306D
:1017000049F00E94D0306E197F09613D774060F347
:1017100081E054C02AEA31E040E050E068E089EE20
:1017200097E00E94C42482FF03C01093F4070EC008
:1017300014E00E9478238093F3071150D1F78A3A7E
:1017400011F082E03BC082E08093F4078091F407BF
:10175000823021F0812C912C540105C0812C912CD8
:10176000A12C30E4B32E20E030E0A90167E389EE3C
:1017700097E00E94C424A501940169E289EE97E0F4
:101780000E94C4248093F307882349F00E94D0303C
:101790006E197F09613D774030F388E00FC080917A
:1017A000F407823001F520E030E0A9016AE389EE18
:1017B00097E00E94C424882341F086E08093EE07DE
:1017C00089EE97E00E948924D8C00E947823807C0B
:1017D000803C19F483E08093F4070E9478230E94F0
:1017E00078230E94782389EE97E00E94892480E57F
:1017F0008093E7071092E80781E00E942E1B882360
:1018000029F080911808882341F0B7C080E00E9439
:101810002E1B882309F469C0F4CF80910C08803115
:1018200009F582E08093180810922A0810922B087C
:1018300010922C0810922D0880910D0890910E089E
:10184000A0E0B0E025E0880F991FAA1FBB1F2A95D2
:10185000D1F78093260890932708A0932808B09387
:1018600029081EC0803209F088C083E080931808E0
:1018700040910F0850911008609111087091120862
:1018800040932A0850932B0860932C0870932D08DE
:1018900026E238E085EF97E074D2882309F46DC022
:1018A00085EF97E090932F0880932E0881E0809336
:1018B00017081092190810921A0810921B0810921B
:1018C0001C0810921D0810921E0810921F081092FA
:1018D00020081092210810922208109223081092DA
:1018E0002408109225080E94921780934A03E12C45
:1018F000F12C03E02CEF39E048EC50E062E073E0BB
:101900008FE89AE00E94DD3A24E338E046E950E0AF
:1019100067E073E080E89AE00E94DD3A02E020E0B0
:1019200030E04AEF50E06DE073E082EE99E00E9413
:10193000DD3A01E020E030E04CE251E065E173E0A7
:101940008EE899E00E94DD3A20E030E040E951E085
:101950006DE173E084EF94E00E94DD3A0F900F9008
:10196000DF91CF911F910F91FF90EF90DF90CF907B
:10197000BF90AF909F908F90089580E0B6CFAF92C8
:10198000BF92CF92DF92EF92FF920F931F93CF936C
:10199000DF93EC016901C801820F931F81309240EF
:1019A00008F070C08E81882371F088819981AA81A6
:1019B000BB81481759076A077B0729F48F819885EF
:1019C000C816D906B0F5488359836A837B838B8513
:1019D000833039F089E0440F551F661F771F8A95C1
:1019E000D1F79A01AB0161E1CE010E94C4248823A2
:1019F00019F083E08D8346C00E94D0305B010E94C5
:101A000078238A878F3F49F40E94D0306A197B0976
:101A10006D327140A0F38FE003C08E3F31F08DE056
:101A20008D83CE010E9489242DC018861F8281E0FB
:101A30008E838F8198858C159D0540F40E947823B4
:101A40008F819885019698878F83F3CF6701E00E89
:101A5000F11ECE14DF0431F00E947823F601819349
:101A60006F01F7CF8F819885080F191F18870F8393
:101A70008985882319F00115124048F0CE010E9493
:101A8000942405C0CE010E94892480E001C081E039
:101A9000DF91CF911F910F91FF90EF90DF90CF904A
:101AA000BF90AF900895EF92FF920F931F93CF9343
:101AB000DF93EC017901411551056105710511F4C0
:101AC00082E13CC08B85833039F089E0440F551F9B
:101AD000661F771F8A95D1F79A01AB0168E1CE01A5
:101AE0000E94C424882311F084E028C08EEF0E9455
:101AF000712387018EEFF81AF80181918F010E94FE
:101B000071230E151F05C1F78FEF0E9471238FEF10
:101B10000E9471230E9478238A878F71853031F06B
:101B200081E18D83CE010E94892409C068E572E0BD
:101B3000CE010E947A23811107C085E18D83CE01F9
:101B40000E94892480E013C020E030E0A9016DE00C
:101B5000CE010E94C424811104C00E9478238823EE
:101B600011F084E1EBCFCE010E94892481E0DF9166
:101B7000CF911F910F91FF90EF9008958091DF0515
:101B8000882399F140910002509101026091020274
:101B90007091030227E533E080915503909156033D
:101BA00082DF811102C080E008954091E0055091EC
:101BB000E1056091E2057091E3054115510561056C
:101BC000710589F027E533E0809155039091560324
:101BD0006ADF882341F31092E0051092E10510922C
:101BE000E2051092E3051092DF0581E008958F92DF
:101BF0009F92AF92BF92EF92FF920F931F93CF935A
:101C00004B015C01C42F8091000290910102A091D0
:101C10000202B091030288159905AA05BB05F1F0EF
:101C2000ADDF811102C080E01FC087E5E82E83E0B0
:101C3000F82E00E012E020E030E0B501A401809130
:101C40005503909156039BDE882369F3809200022E
:101C500090920102A0920202B09203028091DF05ED
:101C6000C82BC093DF0581E0CF911F910F91FF90AA
:101C7000EF90BF90AF909F908F9008958F929F921A
:101C8000AF92BF92CF92DF92EF92FF920F931F938A
:101C9000CF93DF93FC0181859285A385B48501965E
:101CA000A11DB11D84179507A607B70710F480E0A2
:101CB0005BC083899489A589B689C789C03129F415
:101CC000852E962EA72EBB2409C04A015B01C7E0D2
:101CD000B694A79497948794CA95D1F7E9016A01BD
:101CE0007B018F01BC01CD01680D791D8A1D9B1DF3
:101CF0008090000290900102A0900202B090030236
:101D0000681579058A059B0599F4F8018789803162
:101D1000A1F4B701A601552766277727440F551F61
:101D2000FA01E95AFC4F80819181A0E0B0E017C030
:101D300040E05DDF8111E9CFBACFB701A6014F774F
:101D4000552766277727440F551F440F551FFA0163
:101D5000E95AFC4F80819181A281B381BF70888351
:101D60009983AA83BB8381E0DF91CF911F910F916B
:101D7000FF90EF90DF90CF90BF90AF909F908F90AB
:101D800008954F925F926F927F92AF92BF92CF92DF
:101D9000DF92EF92FF920F931F93CF93DF9300D0C8
:101DA0001F92CDB7DEB78C0149835A836B837C8346
:101DB0005901C12CD12C7601412C82E0582E612C86
:101DC000712C49815A816B817C819E012F5F3F4F2D
:101DD000C80154DF882351F1D301C201F801058401
:101DE00004C0880F991FAA1FBB1F0A94D2F7C80E00
:101DF000D91EEA1EFB1E49815A816B817C8187892D
:101E0000803129F088EF9FEFAFEFBFE004C088EF8B
:101E10009FEFA0E0B0E0481759076A077B0788F2F8
:101E2000F501C082D182E282F38281E00F900F90AF
:101E30000F900F90DF91CF911F910F91FF90EF9036
:101E4000DF90CF90BF90AF907F906F905F904F905A
:101E500008953F924F925F926F927F928F929F92DE
:101E6000AF92BF92CF92DF92EF92FF920F931F93A8
:101E7000CF93DF93CDB7DEB72C970FB6F894DEBFC4
:101E80000FBECDBF5C01DC015B968D909C905C9792
:101E90001696CD90DD90ED90FC901997C114D10469
:101EA000E104F10439F0BFEFCB1ADB0AEB0AFB0ABD
:101EB000312C07C0F401C080D180E280F38033244C
:101EC0003394F40181859285A385B4859C01AD018D
:101ED0002F5F3F4F4F4F5F4F29873A874B875C8774
:101EE000260137011D821E821F821886F40181851A
:101EF0009285A385B4852D813E814F815885281711
:101F000039074A075B0708F062C089859A85AB8567
:101F1000BC858C159D05AE05BF0550F482E0C82E2A
:101F2000D12CE12CF12C92E0492E512C612C712CFA
:101F30009E012F5F3F4FB701A601C4019FDE88239A
:101F400009F445C089819A81AB81BC81892B8A2B98
:101F50008B2B41F0260137019FEF491A590A690A74
:101F6000790A05C0C414D504E604F70491F02D8164
:101F70003E814F8158852F5F3F4F4F4F5F4F2D83DD
:101F80003E834F8358873FEFC31AD30AE30AF30A0D
:101F9000ADCF0FEF1FEF2FEF3FE0B301A201C40160
:101FA0000E94D12C882399F0D50116964D915D9110
:101FB0006D917C911997411551056105710549F0A5
:101FC00093018201C4010E94D12C811102C080E0E2
:101FD0002AC0D50116964D925D926D927C9219970A
:101FE000332051F0D301C2010196A11DB11DF401AE
:101FF00080839183A283B383F5018789908DA18D1E
:10200000B28D892B8A2B8B2B69F4D50157964D9273
:102010005D926D927C925A9714968C911497806879
:1020200014968C9381E02C960FB6F894DEBF0FBE09
:10203000CDBFDF91CF911F910F91FF90EF90DF9077
:10204000CF90BF90AF909F908F907F906F905F9058
:102050004F903F900895CF93DF93EC018D818823BB
:1020600091F18C8187FF2CC06E857F858889998945
:1020700041E0BDDD882339F1EA8980E2E89FF00183
:102080001124DF01A95ABC4F1097E9F08D818230ED
:1020900050F44B895C896D897E895C964D935D9384
:1020A0006D937C935F978F89988DA98DBA8DE95A2E
:1020B000FC4F938F828FB58BA48B8C818F778C8311
:1020C000DF91CF915BCD80E0DF91CF9108958F922A
:1020D0009F92AF92BF92CF92DF92EF92FF920F93B7
:1020E0001F93CF93DF93EC018D81811102C080E0BB
:1020F00076C00B891C892D893E8904171507260790
:102100003707A8F36A017B01823029F4CA86DB868F
:10211000EC86FD860DC0C114D104E104F10451F434
:102120001E821F82188619861A861B861C861D86AB
:1021300081E055C08A849B84AC84BD84EB8DFC8D8A
:10214000258530E0275F3F4FB501A401415051097B
:1021500061097109022E04C07695679557954795D8
:102160000A94D2F7D701C6010197A109B10904C0A9
:10217000B695A795979587952A95D2F784179507D1
:10218000A607B70720F089288A288B2849F44F89A9
:10219000588D698D7A8D4E835F836887798704C0F7
:1021A000841B950BA60BB70B4C015D018E010A5FDA
:1021B0001F4F81149104A104B10409F4A7CF4E81EB
:1021C0005F816885798598018B8D9C8D57DD91E0C5
:1021D000891A9108A108B1088111EBCF88CFDF914E
:1021E000CF911F910F91FF90EF90DF90CF90BF9014
:1021F000AF909F908F9008952F923F924F925F9251
:102200006F927F928F929F92AF92BF92CF92DF9206
:10221000EF92FF920F931F93CF93DF9300D01F9203
:10222000CDB7DEB78C015B011A01DC0115968C91EC
:1022300015978130C1F414968C9181FF14C082FFF0
:102240001AC0F80143895489658976898285938506
:10225000A485B58584179507A607B70761F0C8015F
:1022600036DF811108C081E090E0F801938382831A
:1022700080E090E033C1610182C0D8015B968D910E
:102280009C915C97FC01248121502A013B0139E09B
:1022900076946794579447943A95D1F7722E7420A8
:1022A0007A01F1E0FF22772009F475C080E092E026
:1022B0008E199F0946018C159D0508F44C01D80123
:1022C0005B962D913C915C9716968D919D910D900A
:1022D000BC91A02D0297A109B109F901058404C0A0
:1022E000880F991FAA1FBB1F0A94D2F746855785EE
:1022F00060897189840F951FA61FB71F9C01AD01CE
:10230000270D311D411D511D29013A01811432E073
:10231000930609F085C08091000290910102A0917E
:102320000202B091030284159505A605B70559F47C
:102330008FEF9FEFDC018093000290930102A09346
:102340000202B09303029501B301A20180915503EB
:1023500090915603A8DB882309F485CF9EEFB91A24
:10236000C818D908F80182859385A485B585880D9C
:10237000991DA11DB11D82879387A487B587D801B8
:102380001A964D915D916D917C911D97C114D10468
:1023900009F073CF83C0E114F10409F087CF1696DA
:1023A0004D915D916D917C91199741155105610594
:1023B000710559F457968D919D910D90BC91A02D6A
:1023C0000097A105B10531F520C09E012F5F3F4F59
:1023D00055DC882309F44DCF89819A81AB81BC817A
:1023E000F801238D348DF9012789203129F048EF38
:1023F0005FEF6FEF7FE004C048EF5FEF60E070E0F9
:1024000084179507A607B70728F0C80122DD8111B8
:102410004DCF29CFF80186839783A087B18746CF18
:10242000E114F10421F5D8011A964D915D916D9159
:102430007C911D9753968D919D910D90BC91A02DEF
:10244000481759076A077B0790F098DB882309F43F
:102450000ACF4092000250920102609202027092F2
:1024600003028091DF0581608093DF0507C041E0B2
:10247000C301B201BCDB882309F4F5CED501F70115
:10248000E95AFC4FCF01880D991DE817F90719F09B
:102490002D912193FACFA80CB91C62CF53968D9140
:1024A0009D910D90BC91A02D84179507A607B707A5
:1024B00040F4F801438B548B658B768B8481806864
:1024C0008483D80114968C9183FD02C0C10106C09B
:1024D000C801C1DD882309F4C6CEF8CF0F900F9054
:1024E0000F900F90DF91CF911F910F91FF90EF9080
:1024F000DF90CF90BF90AF909F908F907F906F9024
:102500005F904F903F902F900895CF93DF931F924D
:10251000CDB7DEB7698341E050E0BE016F5F7F4F0A
:102520006BDE0F90DF91CF9108958F929F92AF92C3
:10253000BF92CF92DF92EF92FF920F931F93CF93B0
:10254000DF9300D01F92CDB7DEB77C0180E2689F99
:10255000600111249601295A3C4FD9011B969C9188
:10256000917121F0842F827409F094C0142FF70127
:10257000628B8091000290910102A0910202B091C1
:10258000030286879787A08BB18BF601E95AFC4F2F
:102590004489558960E070E0BA0155274427D70186
:1025A00057964D935D936D937C935A97828D938D3F
:1025B000A0E0B0E0482B592B6A2B7B2BD701579614
:1025C0004D935D936D937C935A97D9011B968C9193
:1025D000887159F4848D958DA68DB78DF701838B05
:1025E000948BA58BB68B81E011C0803109F052C06D
:1025F00097012D5E3F4FD7015B968D919C915C9723
:10260000C0DB882309F446C084E0F7018583812F6D
:102610008F70D70114968C931497F7011682178246
:10262000108611861A961D921D921D921C921D975E
:1026300016FF32C015968C91813061F511FF2AC0CA
:10264000F7014389548965897689452B462B472BA9
:1026500009F45DC040E050E0BA01C70138DD8823CD
:10266000C9F0F7018788908CA18CB28CC38CD48C74
:1026700082E090E0A0E0B0E0F60180839183A28345
:10268000B3839E012F5F3F4FB501A401C601F6DA67
:10269000811104C080E03BC081E039C000E010E05F
:1026A0009801B501A401C6010E94D12C882391F3A1
:1026B00089809A80AB80BC80D60157968C918031FE
:1026C00029F088EF9FEFAFEFBFE004C088EF9FEFE6
:1026D000A0E0B0E088169906AA06BB0690F2D701E2
:1026E00057961D921D921D921C925A97F701138ABC
:1026F000148A158A168A848180688483C701ABDCBA
:10270000882341F240E050E0BA01C701E0DC0F90BD
:102710000F900F900F90DF91CF911F910F91FF902D
:10272000EF90DF90CF90BF90AF909F908F900895E3
:102730002F923F924F925F926F927F928F929F92D1
:10274000AF92BF92CF92DF92EF92FF920F931F93BF
:10275000CF93DF93EC016B014A018D81811103C09E
:102760008FEF9FEFD4C08C8180FFFACF4B885C88BD
:102770006D887E884A855B856C857D85C401A0E077
:10278000B0E093018201041B150B260B370B0817D1
:1027900019072A073B0718F44201841A950A5401C5
:1027A0001E0126E0220E311CA114B10409F47DC0E3
:1027B0004A855B856C857D852A0181E05822ED8103
:1027C0008A019B0189E036952795179507958A958B
:1027D000D1F78B8D9C8DE23061F4FC01828D938D5D
:1027E000A48DB58DBC01CD01600F711F821F931F99
:1027F0003EC0FC0174807A94702241145104C1F4EB
:10280000711016C0452B462B472B49F48F89988DA4
:10281000A98DBA8D8E839F83A887B98709C04E8101
:102820005F8168857985910129DA882309F498CF39
:10283000EB8DFC8D8E819F81A885B9850297A109BA
:10284000B109058404C0880F991FAA1FBB1F0A94F1
:10285000D2F74685578560897189840F951FA61F19
:10286000B71FBC01CD01670D711D811D911D20E0B9
:1028700032E02419350935012A153B0508F43901E0
:102880002C8126FD04C06114F2E07F0681F40091E2
:1028900000021091010220910202309103026017A0
:1028A000710782079307A9F402C0C40130C040E059
:1028B0009ED9882309F454CFF201E95AFC4FD6017E
:1028C000CF01860D971DE817F90781F021912D930F
:1028D000FACF760183019201AB01BC0180915503CF
:1028E000909156034CD8882309F43ACFC60CD71CD4
:1028F0008A859B85AC85BD85860D971DA11DB11D63
:102900008A879B87AC87BD87A618B7084DCFDF9114
:10291000CF911F910F91FF90EF90DF90CF90BF90DC
:10292000AF909F908F907F906F905F904F903F906F
:102930002F900895CF93DF93EC018DDB882311F066
:102940001D8281E0DF91CF910895CF92DF92EF92C7
:10295000FF921F93CF93DF93EC017BDA811102C0CA
:1029600080E05DC0EB8DFC8DCE80DF80E884F98453
:1029700082E0C81AD108E108F108058404C0CC0C33
:10298000DD1CEE1CFF1C0A94D2F786859785A08972
:10299000B189C80ED91EEA1EFB1E148181E0C81A37
:1029A000D108E108F1081123F9F0E8D88823C1F231
:1029B000E7E5F3E0119285E0E735F807D9F7D701AD
:1029C000C601810F911DA11DB11D8093000290933E
:1029D0000102A0930202B09303028091DF0581609F
:1029E0008093DF051150DFCFEB8DFC8D80E092E00E
:1029F000A0E0B0E0058404C0880F991FAA1FBB1F88
:102A00000A94D2F74B895C896D897E89840F951F62
:102A1000A61FB71F8B8B9C8BAD8BBE8B81E0DF918C
:102A2000CF911F91FF90EF90DF90CF9008958F92FC
:102A30009F92AF92BF92CF92DF92EF92FF920F934D
:102A40001F93CF93DF93CDB7DEB72B970FB6F894D4
:102A5000DEBF0FBECDBF7C01FC01A580A1100CC163
:102A6000CE0101966C01FC0190E28BE08C0D9193FC
:102A70008E13FDCFDA0130E087E09D91992339F183
:102A80009E3219F0E4EAF2E00AC08A3009F4F5C097
:102A900038E08AE0F2CF3196491709F4EEC044914C
:102AA0004111F9CF831708F4E8C04FED490F4E35B7
:102AB00008F0E3C041E0430FF601E30FF11D3FE9E9
:102AC000390F3A3108F490529083342FD6CF898150
:102AD000803209F4D2C0B22E8B01FB01838D948D1C
:102AE000F701948F838FFB0116821782108611865F
:102AF0001286138614861586912CF801828593859B
:102B0000A485B58543895489658976898417950795
:102B1000A607B70708F060C025E0B695A79597957A
:102B200087952A95D1F7F82FFF708F2EF8018581B0
:102B3000823008F4A2C0C8010E943F2497FD9DC0C6
:102B4000F80182859385A485B5854F96A11DB11D99
:102B500082879387A487B587F0E28F9EC0011124F6
:102B6000BC01695A7C4F6115710509F486C0FB01EF
:102B70002081222319F0253EC1F427C091100EC0F8
:102B8000F701828A40910002509101026091020295
:102B90007091030246875787608B718BFC01E95A5D
:102BA000FC4F8081811113C015C04BE050E0C6017D
:102BB0000E94B047892B09F0A0CF8B2D8073803302
:102BC00009F45BC04B2D682D53C09920C9F299249C
:102BD000939493CF992493948B2D8271823109F031
:102BE0004CC09920B9F0F701668577858089918975
:102BF00041E00E94F70D882309F43FC0F701628984
:102C0000F0E26F9FB0011124695A7C4F6115710584
:102C100069F433C0F8018581823079F1C80195DE0D
:102C2000882359F1F701128A67E573E080E2FB011E
:102C300011928A95E9F78BE0F601DB0101900D9284
:102C40008A95E1F781E298E2FB01918B808B20E08D
:102C500038E037872687938B828B918F808F378BD5
:102C6000268B0E94BE0D882341F04B2DF70162890F
:102C7000C7015BDCA82E01C0A12C8A2D2B960FB6B4
:102C8000F894DEBF0FBECDBFDF91CF911F910F91A2
:102C9000FF90EF90DF90CF90BF90AF909F908F907C
:102CA0000895CF92DF92EF92FF920F931F93CF93ED
:102CB000DF936C017A018B01C0E0D0E0CE15DF0517
:102CC00089F0D8016D918D01D601ED91FC910190B3
:102CD000F081E02DC6011995892B11F47E0102C007
:102CE0002196ECCFC701DF91CF911F910F91FF90FB
:102CF000EF90DF90CF9008952F923F924F925F9286
:102D00006F927F928F929F92AF92BF92CF92DF92FB
:102D1000EF92FF920F931F93CF93DF93CDB7DEB760
:102D2000C756D1090FB6F894DEBF0FBECDBF3C0128
:102D30005B01A6964FAFA6974E018EE1880E911CBF
:102D400063E178E0C4010E9494231C821B828DED14
:102D500092E09A8389831E827501FE0131966F018C
:102D600024011F016FE270E0C7010E94D84700975D
:102D7000D9F1F70120812F3221F4FFEFEF1AFF0A7A
:102D8000F1CF8E198D3008F08CE0082F10E0A801EB
:102D9000B701CE01885A9F4F0E94FA47E8E5F0E05C
:102DA000EC0FFD1FE00FF11F1082C601C3DD21E013
:102DB000AE01485A5F4FB201C60139DE81110AC027
:102DC0001EAE1DAE8DED92E09CAF8BAF21961FAE77
:102DD000219716C0E00EF11EC201ACDD942D852DA9
:102DE0002601C92ED82EBECFC7018A199B09A896E5
:102DF0009FAF8EAFA897B201CE01CB960E949423CD
:102E0000A896EEADFFADA897AE0EBF1EF50180816E
:102E1000811109C0BE01655C7F4FC1010E949423EE
:102E200045E253E038C019A218A28DED92E09F8FC1
:102E30008E8F1BA221968FAD2197811104C0C301F3
:102E40000E94F7232CC08250A6962FADA697A5010D
:102E5000823038F463E178E0C401E9DD81110BC010
:102E6000EECFBE01655C7F4FC401E1DD882339F3FD
:102E7000CE01CB965FDDA6968FADA697867031F01A
:102E800049A95AA96BA97CA9C40121D9B401C101DE
:102E90000E949423A501B101C3010E940A24C30129
:102EA000C959DF4F0FB6F894DEBF0FBECDBFDF911B
:102EB000CF911F910F91FF90EF90DF90CF90BF9037
:102EC000AF909F908F907F906F905F904F903F90CA
:102ED0002F9008958FE199E00E94CD2E21E0892B5B
:102EE00009F420E0822F089582E498E00E94CD2E1C
:102EF00021E0892B09F420E0822F089581E296E0F9
:102F00000E94CD2E21E0892B09F420E0822F089524
:102F10008EEF96E00E94CD2E21E0892B09F420E06F
:102F2000822F08952F923F924F925F926F927F92DD
:102F30008F929F92AF92BF92CF92DF92EF92FF92C9
:102F40000F931F93CF93DF93CDB7DEB7C95CD10941
:102F50000FB6F894DEBF0FBECDBF65E273E087E524
:102F600095E00E94CD476AE872E087E595E00E940F
:102F7000CD4767E273E087E595E00E94CD477E018B
:102F80002BEBE20EF11CD7011D921D921D921C929B
:102F9000139714961C9241E065E273E0CE018D56C2
:102FA0009F4FAADECE0188589F4F0E94F723C7018A
:102FB0000E94693F6C018E01055A1F4FF8013C9633
:102FC0005F013DED832E32E0932E4EE2542EC45528
:102FD000DF4F68807980CC5AD040D30115968C9110
:102FE000823008F46FC0F30182859385A485B5858E
:102FF0008F719927AA27BB27892B8A2B8B2B09F046
:1030000061C040E250E0BE016F5F7F4FC30190DBC3
:10301000803209F057C08981882309F453C0853E66
:1030200081F38E3271F38C8583FDEBCF22961FAE38
:103030001EAE22979FAE8EAE24961FAE2497FE0141
:10304000319690E080E02191203291F0883041F477
:10305000AEEAB0E0AC0FBD1FA90FB11D5C929F5F3F
:10306000AEEAB0E0AC0FBD1FA90FB11D2C939F5F5E
:103070008F5F8B3041F7EEEAF0E0EC0FFD1FE90FB8
:10308000F11D1082C455DF4F68817981CC5AD04040
:1030900021E0AE0142555F4FCE01CE96C8DC8823B9
:1030A00089F0BE01625C7F4FCE0181960E9494231D
:1030B000AE0142555F4FBE016F5D7F4FC8010E9458
:1030C0000A2403C0C8010E94F723D80112968D91EB
:1030D0009C911397EC969FAF8EAFEC9714968D91C1
:1030E0009D910D90BC91A02DC458DF4F888399838A
:1030F000AA83BB83CC57D040F80180859185A285F7
:10310000B385C058DF4F88839983AA83BB83C05897
:10311000D0408DE0F501A8E7B0E0AC0FBD1F1C96D4
:1031200001900D928A95E1F7D8015996ED91FC91A5
:103130005A97CF56DF4FF983E883C159D040309773
:1031400039F08581882321F0823008F090C13FCF8B
:10315000BFEFCB1ADB0AB60124E0EAE0F0E0161676
:10316000170634F4CB01BF010E9450462150F7CF1F
:10317000F70190E38E2F8E19821710F49193FACFF6
:10318000243039F0B701620F711D4AE0C6010E9478
:10319000863FCE018D569F4F0E94E523CE01885871
:1031A0009F4F0E94E523B70187E595E00E94CD4738
:1031B000F801138212828DED92E091838083158253
:1031C00022961FAE1EAE22979FAF8EAF24961FAEE3
:1031D0002497E12CF12CC02EB12E03E118E04C0114
:1031E00084E0A82E90E2D92E9E01245F3F4FC05468
:1031F000DF4F39832883C05CD04020E4222E312C5D
:10320000412C512CC701F701E95AFA4F20812F3286
:1032100009F40196FE01E255FF4F20E030E0DC01A9
:10322000A95ABA4F4C914F3249F0442339F02F5FDD
:103230003F4F019641932C30310589F7EEEAF0E0DB
:10324000EC0FFD1FE20FF31F1082FC01E95AFA4F49
:1032500020812F3209F401967C01FC01E95AFA4FD2
:103260003081CE53DF4F3883C25CD0401CA21BA2FA
:103270009AA289A21EA21C821B829A8289821E8225
:1032800021E0AE0142555F4FB801CE010196CFDB80
:10329000882321F0CE0101964DDBC3C023E3AE01AC
:1032A00042555F4FB801CE018196C1DB882309F4F6
:1032B000B3C081E08DA3AEA2CE01819646DB882308
:1032C00009F4AAC0CE0181960E942B10882309F42C
:1032D000A3C06FA578A989A99AA941E00E94F70D1A
:1032E000882309F499C08BA940E2849FC00111246E
:1032F000895A9C4F009709F48FC0E0E1DC011B96CE
:10330000EC93FC01DE0111962D2D01900D922A9572
:10331000E1F7DC0154960D90BC91A02DCD53DF4F09
:10332000B983A883C35CD040FC01628C738CFE011E
:103330003296D192C054DF4F28813981C05CD04091
:10334000E217F307B1F72EE22983ECADFDAD88ADAE
:1033500099ADAAADBBAD0297A109B109058404C01E
:10336000880F991FAA1FBB1F0A94D2F7468557855D
:1033700060897189840F951FA61FB71F41E0BC01AA
:10338000CD01CB53DF4F2883C55CD0400E94F70DA1
:10339000CB53DF4F2881C55CD0408823E9F1CD5362
:1033A000DF4F68817981C35CD0407E8B6D8B7C8ED2
:1033B0006B8EFE013196A7E5B3E08D2D01900D9245
:1033C0008A95E1F72A83D80115968C91159782503A
:1033D000823048F057964D915D916D917C915A974E
:1033E000CA019B0104C080E090E020E030E03E8B09
:1033F0002D8B9C8F8B8FFE013196A7E7B3E08D2D2F
:1034000001900D928A95E1F72BA63CA64DA65EA6EB
:103410000E94BE0D811105C0B8E003311B0721F5E4
:1034200039C0CE53DF4F3881C25CD0403323C1F066
:1034300021E0AE0142555F4FB8018C2D9B2DF7DA8C
:10344000682E48E003311407F9F0C80173DA6620EA
:1034500009F1902F812F0C2D1B2DC92EB82ED2CE05
:1034600058E003311507B1F0C80164DA13C088E7EA
:1034700090E08C0F9D1F40960E94693FC816D906A8
:103480000CF09FCD6C019DCD882321F08E01025C54
:103490001F4FDFCF6EE772E08FE595E00E94E347B4
:1034A00043E167E575E0CE01019626DC8B819C81C6
:1034B000EC969FAF8EAFEC978D819E81AF81B885E2
:1034C000C458DF4F88839983AA83BB83CC57D040ED
:1034D00089859A85AB85BC85C058DF4F88839983E1
:1034E000AA83BB83C058D0408DE0FE013D96A8E77B
:1034F000B0E0AC0FBD1F1C9601900D928A95E1F7CC
:103500008A8D9B8DCF56DF4F99838883C159D040D8
:10351000CE0188589F4F0E94E52363E772E08FE554
:1035200095E00E94E34743E163E772E0CE01019634
:10353000E3DB8B819C81EC969FAF8EAFEC978D8106
:103540009E81AF81B885C458DF4F88839983AA8351
:10355000BB83CC57D04089859A85AB85BC85C05844
:10356000DF4F88839983AA83BB83C058D0408DE006
:10357000FE013D96A8E7B0E0AC0FBD1F1C96019080
:103580000D928A95E1F78A8D9B8DCF56DF4F9983F7
:103590008883C159D040CE0188589F4F0E94E523AF
:1035A00068E672E08FE595E00E94E34743E168E654
:1035B00072E0CE010196A0DB8B819C81EC969FAFDF
:1035C0008EAFEC978D819E81AF81B885C458DF4F57
:1035D00088839983AA83BB83CC57D04089859A85F9
:1035E000AB85BC85C058DF4F88839983AA83BB8392
:1035F000C058D0408DE0FE013D96A8E7B0E0AC0F8A
:10360000BD1F1C9601900D928A95E1F78A8D9B8DC6
:10361000CF56DF4F99838883C159D040CE01885857
:103620009F4F0E94E52381E0C753DF4F0FB6F89408
:10363000DEBF0FBECDBFDF91CF911F910F91FF90E5
:10364000EF90DF90CF90BF90AF909F908F907F9042
:103650006F905F904F903F902F9008958F929F9220
:10366000AF92BF92CF92DF92EF92FF92CF93DF9310
:10367000C82F89EE97E09093560380935503CC238F
:1036800069F1C53010F080E00DC140E060E070E00D
:10369000CB010E94F70D8823B1F320E1C29FC00146
:1036A0001124895B9C4FFC01E254FE4F20812F774F
:1036B00051F73C96408151816281738144365105B6
:1036C0006105710500F33497C080D180E280F380FA
:1036D000C114D104E104F10421F4D5CFC12CD12CC3
:1036E000760140E0C701B6010E94F70D882359F228
:1036F00080916203909163038115924021F6A0911D
:103700006703AA2309F4BFCF609165037091660334
:103710006115710509F4B7CF20916403222309F4E0
:10372000B2CFA09307082093F90780E030E0E1E0F2
:10373000F0E0C82FAF01082E02C0440F551F0A94B5
:10374000E2F72417350741F0982F8F5F983089F7FB
:1037500089E08093020897CF8093020820916D033F
:1037600030916E032115310519F040E050E008C09A
:1037700020917B0330917C0340917D0350917E0327
:103780002093FA073093FB074093FC075093FD0703
:1037900046015701860E971EA11CB11C8092080895
:1037A00090920908A0920A08B0920B08E091680371
:1037B000F0916903F0930E08E0930D08B0E00E94C9
:1037C0000D45860E971EA81EB91E80920F08909276
:1037D0001008A0921108B092120885E0EE0FFF1FAA
:1037E0008A95E1F7E150FE4FEF2FFF27E6958E0E09
:1037F0009F1EA11CB11C8092030890920408A09205
:103800000508B092060820916A0330916B032115D8
:10381000310521F0A90160E070E008C04091770314
:10382000509178036091790370917A03D701C601B2
:1038300088199909AA09BB09840F951FA61FB71FEC
:1038400004C0B695A79597958795CA95D2F78093AA
:10385000FE079093FF07A0930008B0930108853FEF
:103860002FE09207A105B10510F48CE018C0853F48
:103870009F4FA105B10510F480E111C08091830331
:1038800090918403A0918503B091860380930F08E3
:1038900090931008A0931108B093120880E28093CF
:1038A0000C0881E0DF91CF91FF90EF90DF90CF90F7
:1038B000BF90AF909F908F900895EF92FF920F93DB
:1038C0001F93CF93DF938C017B01C0E0D0E0F70121
:1038D000EC0FFD1F6491662361F0D801ED91FC911E
:1038E0000190F081E02DC8011995892B11F02196E6
:1038F000EECFCE01DF91CF911F910F91FF90EF900E
:1039000008956115710579F0FB0101900020E9F738
:103910003197AF01461B570BDC01ED91FC91028002
:10392000F381E02D199480E090E008958F929F92AA
:10393000AF92BF920F931F93CF93DF93CDB7DEB7B4
:10394000A1970FB6F894DEBF0FBECDBF19A24230CB
:1039500008F44AE08E010F5D1F4F842E912CA12C9C
:10396000B12CA50194010E941D45E62FB901CA01A1
:1039700001501109EA3014F4E05D01C0E95CD8019E
:10398000EC93232B242B252B61F7B8018EEF96E0C7
:10399000B8DFA1960FB6F894DEBF0FBECDBFDF91A2
:1039A000CF911F910F91BF90AF909F908F900895EE
:1039B0001F920F920FB60F9211240BB60F922F93F6
:1039C0003F934F935F936F937F938F939F93AF93A7
:1039D000BF93EF93FF938FE199E00E94742FFF91C3
:1039E000EF91BF91AF919F918F917F916F915F9177
:1039F0004F913F912F910F900BBE0F900FBE0F90E4
:103A00001F9018951F920F920FB60F9211240BB6AC
:103A10000F922F933F934F935F936F937F938F9367
:103A20009F93AF93BF93EF93FF938FE199E00E9431
:103A30005B2FFF91EF91BF91AF919F918F917F91FC
:103A40006F915F914F913F912F910F900BBE0F900F
:103A50000FBE0F901F9018951F920F920FB60F92E6
:103A600011240BB60F922F933F934F935F936F9355
:103A70007F938F939F93AF93BF93EF93FF9382E4D2
:103A800098E00E94742FFF91EF91BF91AF919F91A9
:103A90008F917F916F915F914F913F912F910F90F7
:103AA0000BBE0F900FBE0F901F9018951F920F9294
:103AB0000FB60F9211240BB60F922F933F934F9393
:103AC0005F936F937F938F939F93AF93BF93EF9386
:103AD000FF9382E498E00E945B2FFF91EF91BF91EA
:103AE000AF919F918F917F916F915F914F913F9196
:103AF0002F910F900BBE0F900FBE0F901F90189537
:103B00001F920F920FB60F9211240BB60F922F93A4
:103B10003F934F935F936F937F938F939F93AF9355
:103B2000BF93EF93FF9381E296E00E94742FFF9181
:103B3000EF91BF91AF919F918F917F916F915F9125
:103B40004F913F912F910F900BBE0F900FBE0F9092
:103B50001F9018951F920F920FB60F9211240BB65B
:103B60000F922F933F934F935F936F937F938F9316
:103B70009F93AF93BF93EF93FF9381E296E00E94F0
:103B80005B2FFF91EF91BF91AF919F918F917F91AB
:103B90006F915F914F913F912F910F900BBE0F90BE
:103BA0000FBE0F901F9018951F920F920FB60F9295
:103BB00011240BB60F922F933F934F935F936F9304
:103BC0007F938F939F93AF93BF93EF93FF938EEF6A
:103BD00096E00E94742FFF91EF91BF91AF919F915A
:103BE0008F917F916F915F914F913F912F910F90A6
:103BF0000BBE0F900FBE0F901F9018951F920F9243
:103C00000FB60F9211240BB60F922F933F934F9341
:103C10005F936F937F938F939F93AF93BF93EF9334
:103C2000FF938EEF96E00E945B2FFF91EF91BF9183
:103C3000AF919F918F917F916F915F914F913F9144
:103C40002F910F900BBE0F900FBE0F901F901895E5
:103C50006F927F928F929F92AF92BF92CF92DF929C
:103C6000EF92FF920F931F93CF93DF93EC014B01E1
:103C70005A0169013801E881F9810284F385E02D58
:103C80001995E881F9810288F389E02D8701960171
:103C9000A501B401CE011995E881F981A501460D70
:103CA000571D415051090288F389E02D9601B40156
:103CB000CE011995E881F9810088F189E02D930101
:103CC000A501B401CE011995E881F981C80CD91C70
:103CD000B601615071090088F189E02D9301A501B9
:103CE000CE011995E881F9810688F789E02DCE018A
:103CF000DF91CF911F910F91FF90EF90DF90CF90C8
:103D0000BF90AF909F908F907F906F901994CF92BB
:103D1000DF92EF92FF920F931F93CF93DF9300D028
:103D200000D0CDB7DEB76C01DC01ED91FC916217DC
:103D3000730789F4041715072CF4942F852FA80115
:103D4000092F182F041B150B98012F5F3F4F048C70
:103D5000F58DE02D12C04017510709F526173707DA
:103D60002CF4962F872FB901292F382F261B370BBC
:103D70002F5F3F4F068CF78DE02D8701C601199507
:103D800026960FB6F894DEBF0FBECDBFDF91CF9160
:103D90001F910F91FF90EF90DF90CF9008950284D4
:103DA000F385E02D2D833E834B835C8369837A8387
:103DB0001995D601ED91FC910488F589E02D2D81AE
:103DC0003E814B815C8169817A81C6011995D6015A
:103DD000ED91FC910688F789E02DC60126960FB675
:103DE000F894DEBF0FBECDBFDF91CF911F910F9131
:103DF000FF90EF90DF90CF901994EF92FF920F9386
:103E00001F93DC01ED91FC9111971A960D911C9175
:103E10001B9718962D913C91199700A0F1A1E02DC8
:103E20007B0140E050E060E070E019951F910F9138
:103E3000FF90EF9008954F925F926F927F928F92D2
:103E40009F92AF92BF92CF92DF92EF92FF920F9329
:103E50001F93CF93DF931F921F92CDB7DEB76C01F4
:103E60005A0139014801DC01ED91FC910284F3858E
:103E7000E02D69837A8319956981462E7A81572EC0
:103E8000640C751CD601ED91FC91461457046CF43A
:103E90000088F189E02D87019401A501B201C601D6
:103EA0001995BFEF4B1A5B0AEDCF0688F789E02D15
:103EB000C6010F900F90DF91CF911F910F91FF904E
:103EC000EF90DF90CF90BF90AF909F908F907F90BA
:103ED0006F905F904F901994AF92BF92CF92DF9204
:103EE000EF92FF920F931F93CF93DF9300D01F9217
:103EF000CDB7DEB75C016901DC01ED91FC91028474
:103F0000F385E02D4B835C8369837A831995D50112
:103F1000ED91FC9169817A819B012C0D3D1D215011
:103F200031090488F589E02D78014B815C818A0193
:103F3000C5011995D501ED91FC910688F789E02D11
:103F4000C5010F900F900F900F90DF91CF911F91AF
:103F50000F91FF90EF90DF90CF90BF90AF901994AA
:103F6000AF92BF92CF92DF92EF92FF920F931F9387
:103F7000CF93DF9300D01F92CDB7DEB75C0169010C
:103F8000DC01ED91FC910284F385E02D4B835C8391
:103F900069837A831995D501ED91FC914B815C8100
:103FA000C40ED51EB1E0CB1AD1080488F589E02DE6
:103FB0007801860169817A819B01C5011995D50136
:103FC000ED91FC910688F789E02DC5010F900F90C7
:103FD0000F900F90DF91CF911F910F91FF90EF9075
:103FE000DF90CF90BF90AF9019940895EF92FF9219
:103FF0000F931F93DC01ED91FC9100A0F1A1E02D46
:1040000019951F910F91FF90EF9008950F931F93B3
:10401000DC01ED91FC91068CF78DE02D19951F9137
:104020000F9108950F931F93DC01ED91FC91048C87
:10403000F58DE02D19951F910F910895DC01ED91FB
:10404000FC910084F185E02D199408952F923F9200
:104050004F925F926F927F928F929F92AF92BF9298
:10406000CF92DF92EF92FF920F931F93CF93DF9344
:1040700000D0CDB7DEB74C017B836A836A0159015A
:1040800017019801241B350B37FF03C0319521958B
:104090003109C5014A815B81841B950B97FF03C0E1
:1040A00091958195910951E059838217930714F0F6
:1040B00019820BC09A2D8B2D5801092F182F9A8128
:1040C0008B81DB82CA82C92ED82E8A819B81A81659
:1040D000B9065CF49C2D8D2D6801092F182F9A814B
:1040E0008B81BB82AA82A92EB82E2501AA81BB8111
:1040F0004A1A5B0A38016C187D0877FE03C0719478
:1041000061947108720157FE03C0BFEFEB1AFB0AFE
:10411000F594E794C016D1061CF00FEF1FEF1FC0F7
:1041200001E010E01CC0D401ED91FC91B981048440
:10413000F585E02D9101BB23C1F04A815B81B60179
:10414000C4011995E618F708F7FE04C0C00ED11E89
:10415000E40CF51CEA81FB813196FB83EA834A81FA
:104160005B81A416B506FCF604C0A6016A817B81BA
:10417000E7CF0F900F900F90DF91CF911F910F918C
:10418000FF90EF90DF90CF90BF90AF909F908F9077
:104190007F906F905F904F903F902F900895E091A7
:1041A000A005F091A1058081811103C08FEF9FEFE1
:1041B0000CC0E091A005F091A1050580F681E02DED
:1041C0000680F781E02D8281938190935003809344
:1041D0004F0308952F923F924F925F926F927F927A
:1041E0008F929F92AF92BF92CF92DF92EF92FF9207
:1041F0000F931F93CF93DF93CDB7DEB76C970FB6B6
:10420000F894DEBF0FBECDBF9C8F8B8F5B011A0170
:104210001F830E833701C982DC0158964D915C9152
:1042200059974115510509F0E5C018968D919C915B
:104230001997681779070CF0CAC11A968D919C914D
:104240001B97281639060CF0C2C18C2C912CFB014F
:1042500036E0C39EE00DF11D1124FB87EA871E1690
:104260001F060CF0B4C1C40133E0880F991F3A95C2
:10427000E1F79D878C87820D931D181619060CF0A7
:10428000A6C157968C91811103C0203B08F02F5F87
:10429000AB8DBC8DED91FC9111970284F385E02DDF
:1042A000CD012A8F19952A8DB5E02B9F90011124FD
:1042B000F5013596FF87EE87BB82AA822501A90109
:1042C0004A195B09598B488BC10108969B8B8A8BD5
:1042D000E889F989E40DF51DEC54FD4F9491988718
:1042E00061013D822C82A885A0FF13C0AB8DBC8DDF
:1042F000ED91FC91B981B13031F40484F585E02D64
:104300002E813F8116C00684F785E02DEE80FF8068
:104310001AC0EE81FF816E167F06F1F0AB8DBC8D69
:10432000ED91FC91B981B13051F40484F585E02D13
:104330009301A601B2018B8D9C8D19950DC0068449
:10434000F785E02D7301840194014C815D816A81C0
:104350007B818B8D9C8D1995E885E695E887FFEF2D
:10436000CF1ADF0A2C813D81280D391D3D832C8316
:104370004A895B89C416D50609F0B5CF5FEF451AA7
:10438000550A8A819B81880D991D9B838A83AE85FE
:10439000BF854A165B0609F09BCFEE81FF816E1642
:1043A0007F0609F4F2C0EB8DFC8DA081B181F9810B
:1043B000F13079F4B5016B5F7F4F5096ED91FC9130
:1043C0005197830128E030E0A1018B8D9C8D1995D8
:1043D000DCC06A857B85681979091E96ED91FC9190
:1043E0001F9773010C851D859401A1018B8D9C8DF8
:1043F0001995CBC0FA0134969491329765917491D6
:10440000291BCB01B7E02B9F800D911D1124FA01D0
:10441000259134913B8B2A8BFC01459154915B8310
:104420004A83FC013296C490319654915E8732964D
:1044300014913196D4908981823058F0612E012EEA
:10444000000C7708AD2D0D2C000CBB0BB987A8878D
:1044500004C019861886612C712CAB8DBC8DED9132
:10446000FC9111970284F385E02DCD011995B98156
:104470008B2E912C689CC001699C900D789C900DAE
:104480001124FC01EA0DFB1DFD87EC871C82712CB9
:10449000612CE12F110FFF0B95012E0F3F1F3B8762
:1044A0002A87AC0CB11CA5014E0F5F1F5F8B4E8B92
:1044B000C1018D0D911DD7FC9A95998F888F4E85DE
:1044C000641608F062C0862D90E048855985480F33
:1044D000591F489D9001499D300D589D300D112464
:1044E000D901A20DB31DB98BA88BAA84BB844C84BF
:1044F0005D84DC80BA85DB1AE88DF98DE80FF91F41
:10450000FD8BEC8B8D2D8A0D2E893F89A216B3066B
:10451000B9F1877061F48A819B810196EA89FB89F0
:10452000AA81BB81EA0FFB1F74909B838A8377FE6D
:1045300020C0AB8DBC8DED91FC91B981B13061F49F
:104540000484F585E02D2E813F814C895D89B5017C
:104550008B8D9C8D19950DC00684F785E02DEE801E
:10456000FF808401940148895989B2018B8D9C8D0B
:104570001995770CEFEFAE1ABE0A480C591CC2CF42
:104580003C813C0D3C8363949ACFAB8DBC8DED9107
:10459000FC9111970688F789E02DCD016C960FB636
:1045A000F894DEBF0FBECDBFDF91CF911F910F9169
:1045B000FF90EF90DF90CF90BF90AF909F908F9043
:1045C0007F906F905F904F903F902F9019946C96D2
:1045D0000FB6F894DEBF0FBECDBFDF91CF911F9114
:1045E0000F91FF90EF90DF90CF90BF90AF909F9092
:1045F0008F907F906F905F904F903F902F90089595
:10460000279A2F9A2FEF80E792E021508040904028
:10461000E1F700C000001F9AF5CFDC015996ED913B
:10462000FC915A973097B9F083899489A589B68906
:104630004285538564857585841B950BA60BB70B46
:10464000811520E89207A105B10538F08FEF9FE7AB
:10465000A0E0B0E0089580E090E00895CF93DF936C
:104660001F92CDB7DEB76983DC01ED91FC9102802A
:10467000F381E02D41E050E0BE016F5F7F4F19955F
:104680000F90DF91CF9108958EBD0DB407FEFDCF41
:104690000895089580E090E00895FC01818D928D49
:1046A000009711F00C942B100895CF93DF93EC0139
:1046B000898D9A8D009739F481E090E09B838A83FD
:1046C00080E090E00BC0FC01138212820E94FC107B
:1046D000E98DFA8D22813381232B71F7DF91CF9100
:1046E00008958EBD00000DB407FEFDCF8EB5089570
:1046F0008FEFF7CF0F931F93CF93DF93EB010E94C0
:10470000D0308B01F5DF8F3F49F00E94D030601B25
:10471000710B6C177D07B0F380E001C081E0DF9181
:10472000CF911F910F910895FC01DB0112968D919D
:104730009C911397938382838DED92E09183808384
:1047400014968C911497848315968C911597858374
:1047500016964D915D916D917C9119974683578383
:10476000608771871A964D915D916D917C911D972F
:1047700042875387648775871E964D915D916D9131
:104780007C91519746875787608B718B52968C919D
:104790005297828B53964D915D916D917C91569776
:1047A000438B548B658B768B57964D915D916D91B4
:1047B0007C915A97478B508F618F728F5B968D914A
:1047C0009C915C97948F838F0895CF93DF93EC0136
:1047D000898D9A8D009741F00E949A14898D9A8D47
:1047E0000E9414471A8E198EDF91CF910895FC0113
:1047F0001382128288EE93E0A0E0B0E08483958378
:10480000A683B78385E992E091838083128E118E0F
:1048100014860895EF92FF920F931F93CF93DF9327
:10482000EC017B018A011B821A8288EE93E0A0E0F2
:10483000B0E08C839D83AE83BF8385E992E099834A
:1048400088838DE190E00E947F469A8F898F009740
:1048500079F02DE1F701DC0101900D922A95E1F745
:104860004CE050E0B801CE010C960E94FA47188E39
:10487000DF91CF911F910F91FF90EF900895CF930B
:10488000DF931F92CDB7DEB741E050E0BE016F5F0E
:104890007F4F0E949813019719F4898190E002C01C
:1048A0008FEF9FEF0F90DF91CF910895FC01818DE5
:1048B000928D009709F0E3CF8FEF9FEF08950F934C
:1048C0001F93CF93DF93FC01818D928D0097B1F000
:1048D000EF01D5DF8C010F3F8FEF180791F0898D25
:1048E0009A8DFC0142855385648575854150510937
:1048F000610971090E946710C80105C080E090E05D
:1049000002C08FEF9FEFDF91CF911F910F9108951C
:10491000089561E0FC0184810E94FC2F8091B9051B
:1049200081111092B9050895CF93DF93EC018E8128
:10493000882379F08F8198859C012F5F3F4F3887BE
:104940002F838230924010F4D3DEF4CFCE01E1DF2A
:104950001E82DF91CF9108958CBD9DBD0895CF93A8
:10496000DF93EC018091B905811108C081E080934B
:10497000B9058091E7079091E807EEDF60E08C8150
:10498000DF91CF910C94FC2FCF92DF92FF920F9387
:104990001F93CF93DF9300D01F92CDB7DEB76C018A
:1049A000F62E29833A834B835C83BEDFC601D7DFB3
:1049B0006CE271E0C6019EDE8F2D806492DE08E11C
:1049C00010E05C814B813A812981DA01C901002E16
:1049D00004C0B695A795979587950A94D2F7298331
:1049E0003A834B835C837DDE0850110929813A812B
:1049F0004B815C81083F8FEF180739F7FF2029F0C2
:104A0000E8E0FE1204C087E803C085E901C08FEF2B
:104A100068DE10E06DDEF601828787FF04C01F3F6D
:104A200011F01F5FF7CF0F900F900F900F90DF9155
:104A3000CF911F910F91FF90DF90CF9008950F932A
:104A40001F93CF93DF931F921F92CDB7DEB78C01D8
:104A500080913208909133086A8379837DDFD80191
:104A60009296ED91FC91939780819A969C919A975A
:104A7000982B90839096ED91FC9191972081999637
:104A80009C919095922390837981872FFDDD6A8197
:104A9000862FFADDD8019096ED91FC919197908147
:104AA00099968C91892B80830F900F90DF91CF91F5
:104AB0001F910F9108950F931F93CF93DF931F9230
:104AC000CDB7DEB78C0180913208909133086983AD
:104AD00043DFD8019296ED91FC91939780819A964D
:104AE0009C919A97982B90839096ED91FC91919739
:104AF000208199969C919095922390836981862F2D
:104B0000C3DDD8019096ED91FC9191979081999693
:104B10008C91892B80830F90DF91CF911F910F9102
:104B200008950F931F93CF93DF931F92CDB7DEB7F6
:104B30008C01809132089091330869830DDFD80190
:104B40009296ED91FC91939720819A969C919A97D9
:104B50009095922390839096ED91FC91919720816E
:104B600099969C919095922390836981862F8CDDF4
:104B7000D8019096ED91FC919197908199968C91A6
:104B8000892B80830F90DF91CF911F910F91089512
:104B9000CF93DF93EC0163706D8B623041F0633033
:104BA00041F0613011F088E005C088E603C088EC70
:104BB00001C088EA8A8F80E890E0998788879B8780
:104BC0008A878B8D811103C08A8D877F02C08A8D71
:104BD00088608A8F66E3CE01A4DF6A8DCE01DF9103
:104BE000CF9169CFAF92BF92CF92DF92EF92FF92B7
:104BF0000F931F93CF93DF93EC015B017A0169015F
:104C00006AE28FDF8D89B501813021F0CE0117DF97
:104C1000B60107C0605E7F4FCE0111DFB601605E56
:104C20007F4FCE010CDF6BE2CE017BDF8D89B701B8
:104C3000811108C0605E7F4FCE0101DFB801605E68
:104C40007F4F03C0CE01FBDEB801CE01F8DE6CE27F
:104C5000CE01DF91CF911F910F91FF90EF90DF90E8
:104C6000CF90BF90AF905DCFAF92BF92CF92DF92C7
:104C7000EF92FF920F931F93CF93DF936C01590133
:104C8000E801FC0120853185621773079CF5828558
:104C900093854817590774F5FB01EA0DFB1D2E1784
:104CA0003F071CF45901A61AB70A9A012C0F3D1FA1
:104CB000821793071CF4EC01C41BD50B8A010C0F5F
:104CC0001D1F015011099B012A0D3B1D2150310967
:104CD000C60188DF1C161D066CF48501B701C601EC
:104CE0000230110524F0ABDE01501109F7CFA7DE29
:104CF0002197F0CFDF91CF911F910F91FF90EF900F
:104D0000DF90CF90BF90AF900895CF92DF92EF9257
:104D1000FF920F931F93CF93DF937C016B0100EA07
:104D200010E020E830E040E050E060E070E05ADF62
:104D3000C0E0D0E5B601C70182DE2197D9F7DF9147
:104D4000CF911F910F91FF90EF90DF90CF9008953A
:104D5000CF92DF92EF92FF920F931F93CF93DF9347
:104D60007C01E9016801FC0180859185681779075C
:104D7000F4F42285338542175307CCF49B012C0FA2
:104D80003D1F821793071CF4EC01C61BD70B9B0138
:104D90002C0F3D1F215031098A01C70123DF1C164A
:104DA0001D062CF4B601C7014ADE2197F8CFDF912A
:104DB000CF911F910F91FF90EF90DF90CF900895CA
:104DC000CF92DF92EF92FF920F931F93CF93DF93D7
:104DD0007C01E9016801FC018085918568177907EC
:104DE000F4F48285938548175907CCF49A012C0F67
:104DF0003D1F821793071CF4EC01C41BD50B8A01DD
:104E00000C0F1D1F015011099B01C701EBDE1C1681
:104E10001D062CF4B601C70112DE2197F8CFDF91F1
:104E2000CF911F910F91FF90EF90DF90CF90089559
:104E3000EF92FF920F931F93CF93DF93DC011896AD
:104E4000ED91FC9119976E177F07ECF41A96ED918E
:104E5000FC911B974E175F07B4F477FD14C057FD04
:104E600012C0E9017C018A010F5F1F4F9B012F5F78
:104E70003F4FB8DEBE01C701DF91CF911F910F9167
:104E8000FF90EF90DCCDDF91CF911F910F91FF90BC
:104E9000EF900895611102C060E201C061E241CE6D
:104EA0000F931F93CF93DF938C01EB010E94E94492
:104EB0008883C80101960E94E9448983CE01DF916D
:104EC000CF911F910F9108958F929F92AF92BF92B1
:104ED000CF92DF92EF92FF920F931F93CF93DF93C6
:104EE00000D000D0CDB7DEB75C014B01FC01628180
:104EF0007381C12CD12CE12CF12C00EA10E420E0CC
:104F000030E040E752E4C501ECD58E010F5F1F4F42
:104F100021E044E00E94473FB801C4010E94CD4710
:104F20006EEF72E0C4010E94CD47F5016481758186
:104F3000C12C98E0D92EE12CF12C00E010E420E007
:104F400030E040E452E4C501CCD58E010F5F1F4F25
:104F500021E044E00E94473FB801C4010E94CD47D0
:104F600026960FB6F894DEBF0FBECDBFDF91CF916E
:104F70001F910F91FF90EF90DF90CF90BF90AF9077
:104F80009F908F900895CF93DF93EC0188810E94CA
:104F900079309B838A8389810E9479309D838C83B9
:104FA0000E94D03020E140EB55E0DF91CF910C948E
:104FB000983F0F931F93CF93DF938C01EB01BC01BC
:104FC00064597F4FCE010E94CD476EEF72E0CE0153
:104FD0000E94CD47B80169597F4FCE010E94CD474D
:104FE0006EEF72E0CE010E94CD47B8016F587F4F3F
:104FF000CE010E94CD476EEF72E0CE010E94CD47F8
:10500000B8016A587F4FCE010E94CD476EEF72E023
:10501000CE010E94CD47B80164587F4FCE010E9457
:10502000CD476EEF72E0CE010E94CD47B8016F57B9
:105030007F4FCE01DF91CF911F910F910C94CD47FF
:10504000EF92FF920F931F93CF93DF93EC018A5956
:105050009F4F7C0188819981DC01ED91FC91008456
:10506000F185E02D1995892BA9F0D7011C911336F4
:1050700088F481E0810F8C9388819981DC01ED9126
:10508000FC910284F385E02D1995FE01E10FF11DDD
:105090008283E0CFF7018081FE01E80FF11D1282CB
:1050A0006EE872E0CE0102960E9409488C010097DA
:1050B00009F466C0FC0101900020E9F73197E81B74
:1050C000F90BED34F105A0F480E0282F30E0F80171
:1050D000E20FF31F9081FE01E20FF31F928321E0A4
:1050E000280F992311F0822FF0CFF70180834AC057
:1050F0000E94D03020E147EA55E00E94983FFE012F
:10510000EC57FF4F81E08083B8016E5F7F4F44E032
:1051100050E0CE0184599F4F0E94FA47B801685F62
:105120007F4F44E050E0CE0189599F4F0E94FA47DB
:10513000B801625F7F4F44E050E0CE018F589F4F2F
:105140000E94FA47B8016C5E7F4F45E050E0CE0107
:105150008A589F4F0E94FA47B801625C7F4F44E033
:1051600050E0CE0184589F4F0E94FA47B801655B1A
:105170007F4F42E050E0CE018F579F4F0E94FA4789
:10518000D7011C92DF91CF911F910F91FF90EF906B
:105190000895CF93DF93EC01FB0179836883DC01F1
:1051A000AA59BF4F1C92A089B18982E08C93A48533
:1051B000B5851C92A685B78587E68C93108EA48949
:1051C000B58986E08C93A289B3898C9180618C9398
:1051D000A289B3898C9188608C93A289B3898C91C0
:1051E00080688C930288F389E02D80818F7D808395
:1051F000FE01EC57FF4F108266E373E0CE01845945
:105200009F4F0E94E34766E373E0CE0189599F4FA9
:105210000E94E3476CE373E0CE018F589F4F0E94DA
:10522000E3476BE373E0CE018A589F4F0E94E34748
:1052300061E473E0CE0184589F4F0E94E34766E427
:1052400073E0CE018F579F4F0E94E34764E473E001
:1052500087EA95E0DF91CF910C94E34780912A0B88
:1052600090E020912B0B821B9109089521E001C051
:10527000220F6A95EAF7DC011C962C931C971A966C
:105280005C934E931997ED91FC910484F585E02D84
:1052900060E01994DC01ED91FC910684F785E02D26
:1052A00041E0199581E090E00895089508950895EA
:1052B000FC016370658B8481958126813781613023
:1052C00039F0633029F091878087338722870895EA
:1052D00031872087938782870895CF92DF92EF925C
:1052E000FF920F931F93CF93DF937C01262F972F6D
:1052F0008A018091DE05882391F0C62FD72F6E0199
:10530000C40ED51ECC15DD0571F06991D701ED9164
:10531000FC910190F081E02DC7011995F3CF642F26
:10532000822F0E945732C801DF91CF911F910F91B8
:10533000FF90EF90DF90CF900895CF93DF931F926F
:10534000CDB7DEB769832091DE052223D1F020910D
:10535000DD05203240F021E030E0FC013383228380
:1053600080E090E015C08091DC05E82FF0E0E45487
:10537000FA4F998190838F5F8093DC058093DD05E0
:1053800005C061E0CE0101960E94573281E090E0B5
:105390000F90DF91CF910895CF93FC0123812223B9
:1053A00009F46DC09181909569236083C28181E089
:1053B0008093DE05C093BA051092DC051092DD05DE
:1053C0008BED97E0BADF8091DD05813208F04AC0AD
:1053D00020912D0B2111FCCF92E090932D0B91E0A9
:1053E00090932F0B9FEF90932C0B1092510B809367
:1053F000500BACEBB5E040E35BE0FA019E2F941B51
:10540000981718F49D919193F9CF1092520B8091B7
:10541000520BCC0FC82BC093520B80912E0B8130B6
:1054200061F410922E0B8091520B8093BB008091FF
:10543000BC0083FDF8CF85EC01C085EE8093BC00F5
:1054400080912D0B8230E1F380912C0B8F3F79F00E
:1054500080912C0B803241F080912C0B803331F005
:1054600024E005C021E003C022E001C023E0109247
:10547000DC051092DD051092DE0530E002C020E070
:1054800030E081E090E0232B11F080E090E0CF91BC
:105490000895EF92FF920F931F93CF938C01FC011D
:1054A000759684E0C0E060FF02C09081C92B6695CC
:1054B000815031968111F7CF413011F4F8014489C0
:1054C000F8018585C82BC42B7801FEE0EF0EF11C96
:1054D000F80162896C2BC7015FDFF8016289609572
:1054E0006C23C701CF911F910F91FF90EF9054CF84
:1054F0000F931F93CF93DF93062F0F70423019F451
:1055000040E0602F0FC0142F262FEC0130E0B901CE
:1055100084E0759567958A95E1F7CE01BADF412F52
:10552000602FCE01DF91CF911F910F91B2CFFC017F
:1055300084858823A1F0218532852115310519F450
:10554000611106C007C02130310521F4611102C08C
:10555000858701C015866585CF010E961DCF0895FC
:10556000AF92BF92CF92EF92FF920F931F93CF9380
:10557000DF93EC01262F888D998D009709F040C0AC
:105580006A3059F41D861C862C898E859F8538E0EB
:10559000239F800D911D112441C06D3009F4AAC0D4
:1055A0008E898823C1F03C898C859D8546E0349F97
:1055B000800D911D112448855985481759075CF4C1
:1055C0001D861C868E859F8548E0349F800D911D29
:1055D00011249F878E87EA88FB88088919894E8560
:1055E0005F856C857D85CC88CE010E94EA202C8960
:1055F0008C859D8536E0239F800D911D112442C02E
:105600006A3079F41D861C862C89FC013696E4915B
:105610008E859F852E9F800D911D11249F878E87DB
:1056200069C06D3009F466C0FC013496349163178B
:1056300008F460C03196E491E61708F45BC0FC0101
:105640003296A590B490462F50E0431B510937E0A5
:10565000349FB001359F700D1124A60EB71EF501C1
:10566000329634913196E491332311F0E1110DC05B
:10567000F5013496E4912C898C859D85E29F800DFF
:10568000911D11249D878C8735C0F5013596449175
:105690005E89552311F16C89E32FF0E0E40FF11DD1
:1056A00047FDFA956E9FD0016F9FB00D11244C8578
:1056B0005D854A0F5B1FE885F985E417F5076CF4F3
:1056C0001D861C86FC013696E4918E859F856E9F13
:1056D000800D911D11249F878E87EA88FB88088999
:1056E00019894E855F856C857D85CC88CE010E94A9
:1056F000EA20BECF81E090E0DF91CF911F910F9122
:10570000FF90EF90CF90BF90AF900895CF93CFB719
:10571000F8948091BB05811120C0EDE1F8E08491FF
:10572000E3E6F8E09491E82FF0E0EE0FFF1FE2537C
:10573000F84FA591B491EC91E92319F461E085E368
:105740005BD485E3DAD28CB580618CBD8CB5806486
:105750008CBD84E3D2D283E3D0D28091BB058F5F2E
:105760008093BB05CFBFCF910895DC01ED91FC91F3
:105770000684F785E02D40E019940F931F93CF9393
:10578000DF93EC01423018F08C8188608C834F836A
:105790006887222329F0413019F48C8184608C833E
:1057A00064E670E080E090E0C3D46C8164FD31C0B9
:1057B000E881F9810684F785E02D42E063E0CE01BF
:1057C00019950BE416E4C8010197F1F7E881F98116
:1057D0000684F785E02D42E063E0CE011995C8010B
:1057E0000197F1F7E881F9810684F785E02D42E021
:1057F00063E0CE01199583E592E00197F1F7E88126
:10580000F9810684F785E02D42E062E0CE0119952A
:1058100013C06062CE01A9DF8BE496E40197F1F733
:105820006C816062CE01A1DF83E592E00197F1F720
:105830006C816062CE0199DF6C816062CE0195DF80
:1058400084E08D836CE0CE0190DF61E0CE018DDFDE
:105850008BE39FE10197F1F782E08E8366E0CE0152
:1058600084DFE881F9810484F585E02D6FEFCE01B6
:10587000DF91CF911F910F911994FF920F931F9376
:10588000CF93DF93EC01162F042FF22E8B85888B9C
:1058900010922B0B10922A0B1092DC051092DD0552
:1058A00010922D0B81E080932F0B10922E0B61E054
:1058B00084E1A2D361E085E19FD38091B9008E7F1E
:1058C0008093B9008091B9008D7F8093B90088E4FE
:1058D0008093B80085E48093BC00888990912D0B5B
:1058E0009111FCCF91E090932D0B90932F0B2FEF04
:1058F00020932C0B1092510B1092500B9093520B43
:105900009091520B880F892B8093520B80912E0B14
:10591000813061F410922E0B8091520B8093BB006A
:105920008091BC0083FDF8CF85EC01C085EE8093AB
:10593000BC0080912D0B8130E1F38091510B8111DE
:1059400003C08091510B01C081E0A0E3BBE02AE0DD
:105950003BE0F9019E2F921B981718F49D919193AB
:10596000F9CF10922B0B80932A0B91E0811101C08B
:1059700090E0998B8BED97E088D28E878989882378
:1059800031F01F861C8260E0CE010E9605DD2F2DC2
:10599000402F612FCE01DF91CF911F910F91FF908A
:1059A000ECCE4F925F926F927F928F929F92AF92C6
:1059B000BF92CF92DF92EF92FF920F931F93CF93FC
:1059C000DF93EC016A017B01280139014230510566
:1059D0006105710510F480E073C089859A85AB85F7
:1059E000BC850196A11DB11D84179507A607B707B1
:1059F00090F38B889C88AD88BE888F89803129F48C
:105A0000BB27AF2D9E2D8D2D09C0DB01CA0147E0BC
:105A1000B695A795979587954A95D1F7880E991EC3
:105A2000AA1EBB1E8091000290910102A091020269
:105A3000B091030288169906AA06BB0679F48F89ED
:105A40008031A1F4DD24EE24FF24C601880F991FC4
:105A5000FC01E95AFC4F5182408219C040E0C50167
:105A6000B4010E94F70D8111EACFB5CFE894C7F8D1
:105A7000DD24EE24FF24C601880F991F880F991F8B
:105A8000FC01E95AFC4F408251826282738280910C
:105A9000DF0581608093DF058A89823080F08D8107
:105AA0009E81AF81B885880E991EAA1EBB1E80926A
:105AB000E0059092E105A092E205B092E30581E055
:105AC000DF91CF911F910F91FF90EF90DF90CF90DA
:105AD000BF90AF909F908F907F906F905F904F900E
