:10000000F1C4000020C500001EC500001CC5000092
:100010001AC5000018C5000016C5000014C5000070
:1000200012C5000010C500000EC500000CC5000080
:100030000C949F3D08C5000006C5000004C50000E3
:1000400002C5000000C50000FEC40000FCC40000A2
:10005000FAC40000F8C40000F6C400000C94481371
:10006000F2C400000C943F120C941612ECC4000071
:10007000EAC40000E8C40000E6C40000E4C40000D4
:10008000E2C40000E0C40000DEC40000DCC40000E4
:100090000C94ED110C94C411D6C400000C9492136E
:1000A000D2C40000D0C40000CEC40000CCC4000004
:1000B000CAC40000C8C40000C6C40000C4C4000014
:1000C000C2C40000C0C40000BEC400000C949B1158
:1000D0000C947211B8C400000C9449110C942011B6
:1000E000B2C4000097129A1289128D129112D11285
:1000F0009E12A212A812AC12B012B612BA12BE12FE
:10010000D112C412C812CC124438443844380B38C7
:1001100065387238443844380B3865384E414E499A
:100120004E495459494E46CDCCCC3D0AD7233C17B5
:10013000B7D13877CC2B329595E6241FB14F0A0002
:100140000020410000C84200401C4620BCBE4CCAF2
:100150001B0E5AAEC59D7400407A10F35A00A0726F
:100160004E18090010A5D4E80000E87648170000F2
:10017000E40B54020000CA9A3B000000E1F50500C0
:100180000080969800000040420F000000A0860109
:10019000000000102700000000E8030000000064D9
:1001A00000000000000A0000000000010000000044
:1001B000002C76D888DC674F0823DFC1DFAE59E119
:1001C000B1B796E5E3E453C63AE651997696E8E688
:1001D000C28426EB898C9B62ED407C6FFCEFBC9C5B
:1001E0009F40F2BAA56FA5F490055A2AF75C936B6D
:1001F0006CF9676DC11BFCE0E40D47FEF520E6B528
:1002000000D0ED902E0300943577050080841E0801
:100210000000204E0A000000C80C333333330F981F
:100220006E12831141EF8D2114893BE65516CFFEE6
:10023000E6DB18D1844B381BF77C1D901DA4BBE472
:1002400024203284725E228100C9F124ECA1E53DB4
:100250002720202020202020202020202020202097
:100260002020202020004E6F20646174612066727F
:100270006F6D20536C6176652100202020202020A6
:100280002020202020202020202020202020004E60
:100290006F20646174612066726F6D204D617374AC
:1002A0006572210000000A0B02090C0D0E080703FD
:1002B0000401000000000000000000000000000039
:1002C000000000000000000000000000000000002E
:1002D00012111000000000000000000000000000EB
:1002E000000000000000000000007C3C3E5E2B3D52
:1002F0003F2F5B5D3B2C2A225C0000000000003E8B
:100300005B4F5B3E3E6B4F6B3E1C3E7C3E1C183C85
:100310007E3C181C577D571C1C5E7F5E1C00183CE1
:100320001800FFE7C3E7FF0018241800FFE7DBE72A
:10033000FF30483A060E2629792926407F05050711
:10034000407F05253F5A3CE73C5A7F3E1C1C08086D
:100350001C1C3E7F14227F22145F5F005F5F060932
:100360007F017F006689956A606060606094A2FF8B
:10037000A29408047E040810207E201008082A1C7D
:1003800008081C2A08081E101010100C1E0C1E0C49
:1003900030383E3830060E3E0E06000000000000E9
:1003A000005F00000007000700147F147F14242A58
:1003B0007F2A12231308646236495620500008072A
:1003C0000300001C2241000041221C002A1C7F1C4B
:1003D0002A08083E0808008070300008080808084D
:1003E000000060600020100804023E5149453E00B4
:1003F000427F400072494949462141494D33181412
:10040000127F1027454545393C4A49493141211160
:1004100009073649494936464949291E0000140052
:100420000000403400000008142241141414141475
:10043000004122140802015909063E415D594E7CD3
:100440001211127C7F494949363E414141227F4188
:1004500041413E7F494949417F090909013E4141E6
:1004600051737F0808087F00417F41002040413FD1
:10047000017F081422417F404040407F021C027FE0
:100480007F0408107F3E4141413E7F090909063E35
:100490004151215E7F091929462649494932030104
:1004A0007F01033F4040403F1F2040201F3F403816
:1004B000403F631408146303047804036159494DF1
:1004C00043007F4141410204081020004141417F27
:1004D000040201020440404040400003070800209D
:1004E000545478407F28444438384444442838449D
:1004F00044287F385454541800087E090218A4A4D4
:100500009C787F0804047800447D40002040403DF2
:10051000007F1028440000417F40007C047804786C
:100520007C080404783844444438FC1824241818FF
:10053000242418FC7C08040408485454542404045B
:100540003F44243C4040207C1C2040201C3C403048
:10055000403C44281028444C9090907C4464544C77
:1005600044000836410000007700000041360800D2
:1005700002010204023C2623263C1EA1A161123A7C
:100580004040207A385454555921555579412254C8
:10059000547842215554784020545579400C1E52CD
:1005A0007212395555555939545454593955545472
:1005B000580000457C410002457D420001457C40D9
:1005C0007D1211127DF0282528F07C54554500201D
:1005D00054547C547C0A097F4932494949323A448F
:1005E00044443A324A4848303A4141217A3A4240FA
:1005F0002078009DA0A07D3D4242423D3D404040CC
:100600003D3C24FF2424487E4943662B2FFC2F2B9E
:10061000FF0929F620C0887E09032054547941003F
:1006200000447D413048484A32384040227A007ABE
:100630000A0A727D0D19317D2629292F282629299C
:10064000292630484D4020380808080808080808BE
:10065000382F10C8ACBA2F102834FA00007B0000E5
:1006600008142A142222142A14085500550055AAE9
:1006700055AA55AAFF55FF55FF000000FF001010B6
:1006800010FF00141414FF001010FF00FF1010F0F2
:1006900010F0141414FC001414F700FF0000FF0005
:1006A000FF1414F404FC141417101F10101F101F53
:1006B0001414141F00101010F0000000001F101080
:1006C00010101F10101010F010000000FF1010107C
:1006D000101010101010FF10000000FF140000FF99
:1006E00000FF00001F10170000FC04F41414171082
:1006F000171414F404F40000FF00F7141414141475
:100700001414F700F7141414171410101F101F14EA
:100710001414F4141010F010F000001F101F00004B
:10072000001F14000000FC140000F010F01010FF77
:1007300010FF141414FF141010101F00000000F01C
:1007400010FFFFFFFFFFF0F0F0F0F0FFFFFF0000F1
:10075000000000FFFF0F0F0F0F0F3844443844FC18
:100760004A4A4A347E02020606027E027E0263552F
:100770004941633844443C04407E201E2006027EEA
:10078000020299A5E7A5991C2A492A1C4C720172FC
:100790004C304A4D4D303048784830BC625A463D66
:1007A0003E494949007E0101017E2A2A2A2A2A441B
:1007B000445F444440514A444040444A5140000050
:1007C000FF0103E080FF000008086B6B083612365B
:1007D0002436060F090F060000181800000010103C
:1007E000003040FF0101001F01011E00191D1712FA
:1007F000003C3C3C3C0000000000000022002500C2
:1008000028002B002E0031003400020100000501F9
:1008100008010B0100002100240027002A002D0000
:100820003000330001010000040107010A01050541
:100830000505070508080808020202020A0A080856
:100840000404040401010101010101010303030384
:1008500003030303040707070C0C0C0C0C0C0C0C13
:100860000202020206060606060606060B0B0B0B24
:100870000B0B0B0B01021020200808102040102049
:100880004080020102010804020101020408102054
:100890004080804020100804020180040201804052
:1008A00020100804020108040201010204081020BB
:1008B0004080010204081020408000000F001D004D
:1008C0002C003B004A005900680076008500940027
:1008D000A100B200C100D000DF00ED00FC000B0160
:1008E0001A0129010100110020002F003E004D00D7
:1008F0005D006C007B008A009900A900B800C70069
:10090000D700E600F50004011401230132010000C4
:1009100005000C0013001A00200027002E003500EF
:100920003C0043004A00510057005E0065006C0027
:1009300073007A008100870000003E008000C10043
:10094000030145018601C70108024A028B02CD025C
:100950000E0300003E008000C10003014601870134
:10096000C8010A024C028D02CF02110300003E00B2
:100970008000C100010143018401C5010702480252
:100980008802CA020B0380915804882309F10FB62C
:10099000F8940F92E0914704F0914804C681D78102
:1009A000CE0102960E94A13D809141048150809326
:1009B0004104809158048150809358040F900FBED9
:1009C0008F89988D0E940C3FCE010E940C3FDBCF97
:1009D00080917D06823010F00E94E63D0E948C0FCF
:1009E000D2CFEF3811241FBECFEFD1E2DEBFCDBF93
:1009F00000E00CBF13E0A0E0B2E0EAE2F3E900E0BF
:100A00000BBF02C007900D92AA34B107D9F72BE0B3
:100A1000AAE4B3E001C01D92A23BB207E1F714E0E3
:100A2000C2EFD4E000E006C021970109802FFE014B
:100A30000E94D347C13FD10780E00807A9F70E9471
:100A4000E4330C949349DCCAEF92FF920F931F9307
:100A5000CF93DF93EC018A599F4F7C018881998164
:100A6000DC01ED91FC910084F185E02D1995892B35
:100A7000A9F0D7011C91133688F481E0810F8C9383
:100A800088819981DC01ED91FC910284F385E02D50
:100A90001995FE01E10FF11D8283E0CFF7018081FE
:100AA000FE01E80FF11D128268E672E0CE010296A7
:100AB0000E9479498C01009709F466C0FC010190FD
:100AC0000020E9F73197E81BF90BED34F105A0F4AC
:100AD00080E0282F30E0F801E20FF31F9081FE0143
:100AE000E20FF31F928321E0280F992311F0822F48
:100AF000F0CFF70180834AC00E943C1320E144E517
:100B000053E00E940841FE01EC57FF4F81E08083D3
:100B1000B8016E5F7F4F44E050E0CE0184599F4F93
:100B20000E946A49B801685F7F4F44E050E0CE01FF
:100B300089599F4F0E946A49B801625F7F4F44E024
:100B400050E0CE018F589F4F0E946A49B8016C5EF9
:100B50007F4F45E050E0CE018A589F4F0E946A497E
:100B6000B801625C7F4F44E050E0CE0184589F4F53
:100B70000E946A49B801655B7F4F42E050E0CE01B8
:100B80008F579F4F0E946A49D7011C92DF91CF91E6
:100B90001F910F91FF90EF900895AF92BF92CF9267
:100BA000DF92FF920F931F93CF93DF936C01EB01C2
:100BB00083E0F82E80E0FF20D9F08F5F082F10E04F
:100BC0005E01A00EB11EF50190819930A1F7FA9453
:100BD00061EF72E0C6010E943D49A80141505109F0
:100BE000BE016F5F7F4FC6010E945A49E501E2CF07
:100BF000CE01DF91CF911F910F91FF90DF90CF90A9
:100C0000BF90AF900895CF93DF93CDB7DEB7C45AAE
:100C1000D1090FB6F894DEBF0FBECDBFEA961FAE66
:100C20001EAEEA978EE092E0E8969FAF8EAFE8970F
:100C3000CA57DF4F1882C658D0408FEFCB57DF4FCF
:100C40008883C558D040CC57DF4F1882C458D04055
:100C5000C957DF4F1882C758D04087E2CF57DF4FC0
:100C60008883C158D040CE57DF4F1882C258D04039
:100C7000CD57DF4F1882C358D040C158DF4F19827B
:100C80001882CF57D04084E0C857DF4F8883C858B8
:100C9000D04082E0C757DF4F8883C958D04011E069
:100CA000C657DF4F1883CA58D04080E1C557DF4F81
:100CB0008883CB58D04080E2C457DF4F8883CC581C
:100CC000D04080E4C357DF4F8883CD58D04080E8C0
:100CD000C257DF4F8883CE58D04040E050E063E0F9
:100CE000CE018A589F4F0E9420312D961FAE1EAE16
:100CF0002D9780E890E02F969FAF8EAF2F9761964B
:100D00009FAF8EAF619763969FAF8EAF63976596E7
:100D10009FAF8EAF65976F961FAE6F9767961FAEAA
:100D20001EAE679769961FAE1EAE69976E961FAF8F
:100D30006E978FEF9FEF6D969FAF8EAF6D976B960F
:100D40009FAF8EAF6B97A0961FAFA097A1961FAED7
:100D5000A197A3961FAE1EAEA39782E292E02B96B8
:100D60009FAF8EAF2B978AE0AE968FAFAE9789E09C
:100D7000AF968FAFAF978BE0E0968FAFE09720E014
:100D800044E064E1CE018A589F4F0E944D336FEFDB
:100D9000CE018A589F4F0E943433E5961FAEE597E7
:100DA000E6961FAEE697AF968FADAF970E94DC2315
:100DB000AE968FADAE970E94DC23AE962FADAE9768
:100DC00030E0F901E25DF74FE491F0E0EE0FFF1F34
:100DD000E650F84F85919491AB969FAF8EAFAB974D
:100DE000AF964FADAF9750E0FA01E25DF74F8491B7
:100DF000E82FF0E0EE0FFF1FE650F84F8591949139
:100E0000AD969FAF8EAFAD97F901EC58F74FE491D7
:100E1000E396EFAFE397FA01EC58F74FE491E496CD
:100E2000EFAFE4970E94C31480E58093B30810935A
:100E3000B408AB96EEADFFADAB979081E3968FAD66
:100E4000E397809589238083E0968FADE0978F3F6D
:100E500031F10E94DC2361E0E0968FADE0970E94C3
:100E6000681264EF71E080E090E00E94041360E09B
:100E7000E0968FADE0970E94681264EF71E080E029
:100E800090E00E94041361E0E0968FADE0970E942D
:100E9000681264EF71E080E090E00E940413A49671
:100EA0001FAEA49781E0A5968FAFA59761E0CE0114
:100EB000875B9F4F0E94142E64EF71E080E090E00A
:100EC0000E94041361E1CE01875B9F4F0E94142EA4
:100ED00065E070E080E090E00E9404136AE3CE01D8
:100EE000875B9F4F0E94142E65E0CE01875B9F4F6A
:100EF0000E94DE2D65E070E080E090E00E94041327
:100F000066E2CE01875B9F4F0E94142E64E0CE0103
:100F1000875B9F4F0E94DE2D61E070E080E090E0F3
:100F20000E94041362EFCE01875B9F4F0E94142E34
:100F300061E0CE01875B9F4F0E94DE2D61E070E093
:100F400080E090E00E94041363E1CE01875B9F4F35
:100F50000E94142E66EBCE01875B9F4F0E94142ED9
:100F60006FEFCE01875B9F4F0E94DE2D66E0CE01C2
:100F7000875B9F4F0E94DE2D60EECE01875B9F4F07
:100F80000E94142E09E512E04FE0D42ED00EF80195
:100F900061918F01CE01875B9F4F0E94DE2DD012A1
:100FA000F6CF61EECE01875B9F4F0E94142E0AE4BC
:100FB00012E03FE0D32ED00EF80161918F01CE01F7
:100FC000875B9F4F0E94DE2DD012F6CF61EBCE01E2
:100FD000875B9F4F0E94142E68E0CE01875B9F4F76
:100FE0000E94DE2D62E0CE01875B9F4F0E94DE2DC6
:100FF00061E070E080E090E00E94041364EBCE01B9
:10100000875B9F4F0E94142E67E0CE01875B9F4F46
:101010000E94DE2D61E070E080E090E00E94041309
:1010200060ECCE01875B9F4F0E94142E6AE0CE01D8
:10103000875B9F4F0E94DE2D62E0CE01875B9F4F52
:101040000E94DE2D61E070E080E090E00E940413D9
:1010500061ECCE01875B9F4F0E94142E62E0CE01AF
:10106000875B9F4F0E94DE2D61E070E080E090E0A2
:101070000E94041365ECCE01875B9F4F0E94142EE3
:1010800060E5CE01875B9F4F0E94DE2D63E6CE01B7
:10109000875B9F4F0E94DE2D61E070E080E090E072
:1010A0000E94041367ECCE01875B9F4F0E94142EB1
:1010B00060E0CE01875B9F4F0E94DE2D61E070E013
:1010C00080E090E00E9404136AE2CE01875B9F4FAC
:1010D0000E94142E60E070E0CE01875B9F4F0E945B
:1010E000A22D60E870E0CE01875B9F4F0E94A22D89
:1010F0006BE2CE01875B9F4F0E94142E60E070E090
:10110000CE01875B9F4F0E94A22D60EA70E0CE0166
:10111000875B9F4F0E94A22D63E3CE01875B9F4FA9
:101120000E94142E60E270E0CE01875B9F4F0E9408
:10113000A22D60E870E0CE01875B9F4F0E94A22D38
:1011400060E070E0CE01875B9F4F0E94A22DA596C4
:101150008FADA597811105C0A4968FADA497877F09
:1011600004C0A4968FADA4978860A4968FAFA4976F
:1011700060E0CE01875B9F4F0E944B2E69E2CE015B
:10118000875B9F4F0E94142E61E070E080E090E04A
:101190000E9404136CE2CE01875B9F4F0E94142EC5
:1011A00061E070E080E090E00E94041360E070E095
:1011B000CE01875B9F4F0E94082F62E0CE01875BC4
:1011C0009F4F0E944B2E60E070E0CE01875B9F4FE7
:1011D0000E94082F65E070E0CE01875B9F4F0E9460
:1011E0006A2368E470E0CE01875B9F4F0E946A2308
:1011F0008FE890E08C0F9D1F0496CD55DF4F9983AB
:101200008883C35AD0402FE3222E312C412C512CFD
:10121000BE016F5F7F4F80918E0B90918F0B0E946C
:10122000E13A813009F08AC1C157DF4F1882198233
:101230001A821B82CF58D0408CE0CD55DF4FE88119
:10124000F981C35AD04011928A95E9F7CE010496EC
:101250008C010196F80120812930D1F789819A818A
:10126000892B09F076C0818161E08D3261F4CE0175
:101270008A589F4F0E94C1296FE872E0CE018A58B8
:101280009F4FA5D724C0CE018A589F4F0E94C129E5
:101290006AE772E0CE018A589F4F99D760E0CE018D
:1012A0008A589F4F0E94C12963EF72E0CE018A588D
:1012B0009F4FB1D7B801CE0181579F4F6EDC8C0193
:1012C000BE0161577F4FCE018A589F4FA4D70F5F51
:1012D0001F4F68010F5F1F4FF60180818930C9F7EA
:1012E000C157DF4F1882CF58D04081818D3269F4C9
:1012F00063E0CE018A589F4F0E94C12966E672E0E2
:10130000CE018A589F4F63D724C061E0CE018A582E
:101310009F4F0E94C12961E572E0CE018A589F4F1C
:1013200056D762E0CE018A589F4F0E94C12967EFCD
:1013300072E0CE018A589F4F6ED7B601CE01815719
:101340009F4F2BDCBE0161577F4FCE018A589F4FC4
:1013500062D7CE0103963C010196F301208129302A
:10136000D1F789819A81019709F052CF82E1882EC5
:10137000912CCF55DF4F19821882C15AD040C3013A
:10138000FC01019620812930D9F73C010E94D6400A
:10139000CF55DF4FE881C15AD040E0FD0DC00E941B
:1013A00083479B01AC01A1E8BFEF0E9481462CE37B
:1013B00030E040E050E00CC00E9483479B01AC014C
:1013C000A1E8BFEF0E94814628E230E040E050E013
:1013D0000E9459461FE7120F103228F0812F103655
:1013E00018F08FE501C080E290E0A0E0B0E06C0171
:1013F0007D01F0E2CF1AD108E108F108AFEFB0E0CB
:10140000A70196010E947546A20191010E945946CA
:10141000022F087FA1E0BFEFA70196010E9481463D
:10142000A20191010E945946DA01C90181509F4FE2
:10143000AF4FBF4F9C0193E0359527959A95E1F703
:10144000C901902BC156DF4F99838883CF59D04073
:10145000A1E8BFEFA70196010E948146A201910178
:101460000E945946DA01C90181589F4FAF4FBF4FC3
:10147000282F2C7F98E0299F50011124C156DF4F5F
:10148000E881F981CF59D040AE2ABF2AC12ED12C94
:10149000CF55DF4F88819981C15AD040E12CF12C82
:1014A000860127E030E040E050E0029784F4B40188
:1014B000CE01875B9F4F0E94B72E0FE710E00C19FB
:1014C0001D09750127E030E0A601B4011CC0F4013C
:1014D000B096C156DF4FF983E883CF59D040BF01A2
:1014E000CE01875B9F4F0E94B72E0FE710E00C19CB
:1014F0001D09750127E030E0A601C156DF4F688164
:101500007981CF59D040CE01875B9F4F0E94B72E83
:10151000CF55DF4F88819981C15AD0400196CF5570
:10152000DF4F99838883C15AD04093E1890E911C83
:10153000EEE58E16910409F022CF6ACE86E090E0A7
:101540000E94AB3E65CECF93DF93CDB7DEB7C656D4
:10155000D1090FB6F894DEBF0FBECDBF06E413E489
:101560008DE4E82E84E5F82EBE016F5F7F4F8091F9
:10157000900B9091910B0E94E13AA7961DAE1EAE82
:101580001FAEA797813009F05CC089819A810097CE
:1015900049F0019789F4A696FFAEEEAEA69766E7EE
:1015A00072E006C0A6961FAF0EAFA69761E872E084
:1015B0008BE696E00E945349BE016C597F4F8FE73E
:1015C00097E029D6E0917F07F09180070190F081A4
:1015D000E02D69E08FE797E01995BE016D5F7F4FC1
:1015E0008FE797E018D66BEF72E08FE797E013D69E
:1015F000809153038823F9F00FB6F8940F9243E1DA
:1016000061E676E0CE01875B9F4F0E94D228BE0143
:101610006D5F7F4FCE01875B9F4FFDD56BEF72E013
:10162000CE01875B9F4FF7D5CE01875B9F4F0E940E
:10163000682C0F900FBE6FEF72E08BE696E00E9471
:10164000534982E190E00E94AB3E8ECFCF93DF936F
:10165000CDB7DEB7CE54D1090FB6F894DEBF0FBEBA
:10166000CDBFFF24F3949AE0E92EAA24A394B12CD1
:10167000F3948AE08F1510F4FF24F3941A821982F0
:101680001B8264E573E0CE0103960E943D496EEF34
:1016900072E0CE0103960E943D498F2D6E2D0E946F
:1016A000B447D92E911144C08091080B1092080BB9
:1016B000882341F0BE016D5F7F4F84E89AE00E946D
:1016C000D93006C060E073E0CE0103960E943D4928
:1016D0006EEF72E0CE0103960E943D4980918D0B22
:1016E00010928D0B882341F0BE016D5F7F4F89E022
:1016F0009BE00E94D93006C060E073E0CE01039603
:101700000E943D4944E650E0BE016F5F7F4F8091EB
:10171000900B9091910B0E94F23944E650E0BE018B
:101720006F5F7F4F80918E0B90918F0B0E94F239EB
:10173000BA82A9821B82D11051C06AE473E0CE0143
:1017400003960E943D4985EBC82E88E0D82E6EEFA7
:1017500072E0CE0103960E943D4966E5C6010E94F3
:10176000D32F8E01075B1F4F21E044E00E94B7405A
:10177000B801CE0103960E943D496EEF72E0CE01A2
:1017800003960E943D4961E4C6010E94D32F21E0E7
:1017900044E00E94B740B801CE0103960E943D4943
:1017A00087E0C80ED11C8AECC81688E0D80679F606
:1017B00044E650E0BE016F5F7F4F8091900B9091A7
:1017C000910B0E94F23944E650E0BE016F5F7F4FFB
:1017D00080918E0B90918F0B0E94F2398FE090E0F8
:1017E0000E94AB3E45CF7C012FEFE21AF20A8C013A
:1017F0000A5E1F4FE701FE0131978081E6D69A838A
:1018000089838881E2D69C838B8336D720E14AE4A2
:1018100053E00E9408412796C017D10761F78FE077
:1018200090E00E94AB3EE6CF7C016C0185E8C80EDB
:10183000D11C0E9446368C01C70106D9C60104D9C5
:101840000E94643720917A0630917B06E801AE96BB
:101850002017310720F4C017D10738F403C0C01790
:10186000D10760F02C173D0748F00E9450368823BE
:1018700011F08E01E1CF0E94E63DFBCF60E0CE018A
:10188000821B930B0E946C35F0CFCF93DF93EC015A
:10189000FB0179836883DC01AA59BF4F1C92A089A0
:1018A000B18982E08C93A485B5851C92A685B78505
:1018B00087E68C93108EA489B58986E08C93A289E3
:1018C000B3898C9180618C93A289B3898C91886053
:1018D0008C93A289B3898C9180688C930288F38958
:1018E000E02D80818F7D8083FE01EC57FF4F1082B9
:1018F00062E073E0CE0184599F4F0E94534962E039
:1019000073E0CE0189599F4F0E94534968E073E00C
:10191000CE018F589F4F0E94534967E073E0CE017C
:101920008A589F4F0E9453496DE073E0CE0184585E
:101930009F4F0E94534962E173E0CE018F579F4F42
:101940000E94534960E173E084E593E0DF91CF9119
:101950000C945349CF92DF92EF92FF920F931F9313
:10196000CF93DF93E0918F07F091900782E080831F
:10197000E0918B07F0918C071082E0918D07F09138
:101980008E078FEC808310929707E0919307F09178
:10199000940786E08083E0919107F091920780811F
:1019A00080618083E0919107F09192078081886047
:1019B0008083E0919107F091920780818068808315
:1019C000E0919107F091920780818F7D808364E69A
:1019D00070E080E090E018D61092750810927308BD
:1019E0001092700810926F0884E080936E0844D6BD
:1019F0006B017C0180916E080E94DC2361E0809184
:101A00006E0866D5C0D782E5809368081092690891
:101A100080916808909169080E942F2DDAE08FEF7D
:101A20000E94F42BD150D9F7E6010E940B2D8AE6D3
:101A300098E00E94322D20E030E0A90160E08AE6C3
:101A400098E00E94472D182F80937408813041F050
:101A500013D66C1B7D0B613D774068F381E053C06A
:101A60002AEA31E040E050E068E08AE698E00E942F
:101A7000472D82FF03C0109375080EC014E00E942A
:101A8000FB2B809374081150D1F78A3A11F082E051
:101A90003AC082E08093750880917508823021F009
:101AA000C12CD12C760105C0C12CD12CE12C30E405
:101AB000F32E20E030E0A90167E38AE698E00E9477
:101AC000472DA701960169E28AE698E00E94472D1A
:101AD00080937408882341F0CFD56C1B7D0B613D4A
:101AE000774038F388E00FC080917508823001F5A7
:101AF00020E030E0A9016AE38AE698E00E94472DE1
:101B0000882341F086E080936F088AE698E00E947F
:101B10000C2DD3C00E94FB2B807C803C19F483E009
:101B2000809375080E94FB2B0E94FB2B0E94FB2BCD
:101B30008AE698E00E940C2D80E580936808109258
:101B4000690881E00E94A327882329F080919908E1
:101B5000882341F0B2C080E00E94A327882309F4C3
:101B60006AC0F4CF80918D08803109F582E08093BE
:101B700099081092AB081092AC081092AD08109220
:101B8000AE0880918E0890918F08A0E0B0E025E02B
:101B9000880F991FAA1FBB1F2A95D1F78093A7080A
:101BA0009093A808A093A908B093AA081FC08032F8
:101BB00009F083C083E08093990840919008509188
:101BC000910860919208709193084093AB085093EC
:101BD000AC086093AD087093AE0827EA38E086E75A
:101BE00098E00E94F516882309F467C086E798E01C
:101BF0009093B0088093AF0881E08093980810928A
:101C00009A0810929B0810929C0810929D081092BE
:101C10009E0810929F081092A0081092A10810929E
:101C2000A2081092A3081092A4081092A50810927E
:101C3000A6080E94FB2380935303E12CF12C03E0C0
:101C400024E83AE048EC50E065E173E084E19CE090
:101C50000E943B3F25EB38E046E950E06AE173E043
:101C600083EF9BE00E943B3F02E020E030E04AEF40
:101C700050E060E273E086E29BE00E943B3F01E0BF
:101C800020E030E04CE251E068E273E083EA9AE061
:101C90000E943B3F20E030E040E951E060E373E028
:101CA00083E096E00E943B3FDF91CF911F910F911F
:101CB000FF90EF90DF90CF90089580E0BCCFCF925F
:101CC000DF92EF92FF920F931F93CF93DF936C01FC
:101CD0007A018B01C0E0D0E0CE15DF0589F0D80194
:101CE0006D918D01D601ED91FC910190F081E02D77
:101CF000C6011995892B11F47E0102C02196ECCF03
:101D0000C701DF91CF911F910F91FF90EF90DF906E
:101D1000CF900895FC01A089B1898C91A689B789DB
:101D200082FD0FC09C91818D8F5F8F77228D8217EE
:101D300049F0218DDF01A20FB11D5D969C93818F2B
:101D400008958C910895FC01538D448D252F30E02A
:101D5000842F90E0821B930B541710F0CF960895B8
:101D600001970895FC01918D828D981761F0828D05
:101D7000DF01A80FB11D5D968C91928D9F5F9F77BB
:101D8000928F90E008958FEF9FEF0895FC01918D61
:101D9000828D981731F0828DE80FF11D858D90E0CE
:101DA00008958FEF9FEF0895FC01918D228D892F6B
:101DB00090E080589F4F821B91098F779927089553
:101DC00087EA99E0F1DF21E0892B09F420E0822FF6
:101DD00008958AEC98E0E8DF21E0892B09F420E0FF
:101DE000822F089582EA96E0DFDF21E0892B09F453
:101DF00020E0822F08958FE797E0D6DF21E0892B3E
:101E000009F420E0822F0895FC01848DDF01A80FE2
:101E1000B11DA356BF4F2C91848D90E001968F7316
:101E20009927848FA689B7892C93A089B1898C9131
:101E300080648C93938D848D981306C00288F389F7
:101E4000E02D80818F7D80830895EF92FF920F9324
:101E50001F93CF93DF93EC0181E0888F9B8D8C8D56
:101E6000981305C0E889F989808185FD23C0F62E85
:101E70000B8D10E00F5F1F4F0F731127E02E8C8D1D
:101E8000E8120BC00FB607FCFACFE889F989808108
:101E900085FFF5CFCE01B8DFF2CF8B8DFE01E80FC5
:101EA000F11DE356FF4FF0820B8FEA89FB89808199
:101EB000806207C0EE89FF896083E889F9898081A3
:101EC0008064808381E090E0DF91CF911F910F913A
:101ED000FF90EF900895CF93DF93EC01888D8823D6
:101EE000C1F0EA89FB89808185FD05C0A889B9898F
:101EF0008C9186FD0EC00FB607FCF5CF808185FF63
:101F0000F2CFA889B9898C9185FFEDCFCE017CDF16
:101F1000E8CFDF91CF91089580E090E0892B19F010
:101F20006ADF811116C080E090E0892B19F05ADF3A
:101F3000811112C080E090E0892B19F04ADF8111F5
:101F40000EC080E090E0892B79F03ADF81110AC061
:101F500008950E940000E7CF0E940000EBCF0E948E
:101F60000000EFCF0C94000008953FB7F8948091E3
:101F70001C0490911D04A0911E04B0911F0426B56D
:101F8000A89B05C02F3F19F00196A11DB11D3FBFB1
:101F9000BA2FA92F982F8827820F911DA11DB11D3F
:101FA000BC01CD0142E0660F771F881F991F4A953B
:101FB000D1F7089585ED8093BC008091BC0084FD2D
:101FC000FCCF1092A30308954091F203262F30E036
:101FD000240F311D21323105DCF42091A30324307C
:101FE000C9F4FC0180E090E0861758F43091F203C8
:101FF0002191DC01A053BC4FA30FB11D2C9301967E
:10200000F3CF8091F203680F6093F20380E00895AC
:1020100081E0089582E008950895E091A103809100
:10202000A003E81730F4F0E0E058FC4F808190E026
:1020300008958FEF9FEF08959091A1038091A003E1
:10204000981750F4E92FF0E0E058FC4F208130E081
:102050009F5F9093A10302C02FEF3FEFC901089546
:102060008091A00390E02091A103821B9109089523
:10207000CF92DF92EF92FF920F931F93CF93DF9354
:102080007C01262F972F8A0180917F03882391F06E
:10209000C62FD72F6E01C40ED51ECC15DD0569F0F5
:1020A0006991D701ED91FC910190F081E02DC7017C
:1020B0001995F3CF642F822F87DFC801DF91CF916D
:1020C0001F910F91FF90EF90DF90CF900895CF93E5
:1020D000DF931F92CDB7DEB7698320917F03222360
:1020E000D1F020917E03203240F021E030E0FC016D
:1020F0003383228380E090E014C080917D03E82F39
:10210000F0E0E35AFC4F998190838F5F80937D03C9
:1021100080937E0304C061E0CE01019655DF81E02B
:1021200090E00F90DF91CF9108950E941C49EF92AB
:10213000FF920F931F93CF938C01FC01759684E05F
:10214000C0E060FF02C09081C92B66958150319636
:102150008111F7CF413011F4F8014489F8018585E8
:10216000C82BC42B7801FEE0EF0EF11CF801628948
:102170006C2BC7010E94B632F801628960956C230E
:10218000C701CF911F910F91FF90EF900C94B63241
:102190000F931F93CF93DF93062F0F70423019F4E4
:1021A00040E0602F0FC0142F262FEC0130E0B90162
:1021B00084E0759567958A95E1F7CE01B8DF412FE8
:1021C000602FCE01DF91CF911F910F91B0CFEF9291
:1021D000FF920F931F93CF93DF938C017B01C0E09D
:1021E000D0E0F701EC0FFD1F6491662361F0D80188
:1021F000ED91FC910190F081E02DC8011995892B9A
:1022000011F02196EECFCE01DF91CF911F910F916A
:10221000FF90EF9008956115710579F0FB01019031
:102220000020E9F73197AF01461B570BDC01ED9118
:10223000FC910280F381E02D199480E090E00895F4
:102240001F920F920FB60F9211240BB60F922F937D
:102250003F934F935F936F937F938F939F93AF932E
:10226000BF93EF93FF9387EA99E0CEDDFF91EF9163
:10227000BF91AF919F918F917F916F915F914F919E
:102280003F912F910F900BBE0F900FBE0F901F909C
:1022900018951F920F920FB60F9211240BB60F9242
:1022A0002F933F934F935F936F937F938F939F935E
:1022B000AF93BF93EF93FF9387EA99E02BDDFF91F4
:1022C000EF91BF91AF919F918F917F916F915F91AE
:1022D0004F913F912F910F900BBE0F900FBE0F901B
:1022E0001F9018951F920F920FB60F9211240BB6E4
:1022F0000F922F933F934F935F936F937F938F939F
:102300009F93AF93BF93EF93FF938AEC98E07CDDAC
:10231000FF91EF91BF91AF919F918F917F916F91BD
:102320005F914F913F912F910F900BBE0F900FBE79
:102330000F901F9018951F920F920FB60F921124B5
:102340000BB60F922F933F934F935F936F937F93AF
:102350008F939F93AF93BF93EF93FF938AEC98E093
:10236000D9DCFF91EF91BF91AF919F918F917F91B8
:102370006F915F914F913F912F910F900BBE0F90F6
:102380000FBE0F901F9018951F920F920FB60F92CD
:1023900011240BB60F922F933F934F935F936F933C
:1023A0007F938F939F93AF93BF93EF93FF9382EAB3
:1023B00096E02ADDFF91EF91BF91AF919F918F91B0
:1023C0007F916F915F914F913F912F910F900BBE35
:1023D0000F900FBE0F901F9018951F920F920FB67F
:1023E0000F9211240BB60F922F933F934F935F934D
:1023F0006F937F938F939F93AF93BF93EF93FF93CD
:1024000082EA96E087DCFF91EF91BF91AF919F91B7
:102410008F917F916F915F914F913F912F910F908D
:102420000BBE0F900FBE0F901F9018951F920F922A
:102430000FB60F9211240BB60F922F933F934F9329
:102440005F936F937F938F939F93AF93BF93EF931C
:10245000FF938FE797E0D8DCFF91EF91BF91AF91A9
:102460009F918F917F916F915F914F913F912F91AC
:102470000F900BBE0F900FBE0F901F9018951F92DC
:102480000F920FB60F9211240BB60F922F933F931A
:102490004F935F936F937F938F939F93AF93BF936C
:1024A000EF93FF938FE797E035DCFF91EF91BF91BA
:1024B000AF919F918F917F916F915F914F913F91DC
:1024C0002F910F900BBE0F900FBE0F901F9018957D
:1024D000362F90E0FC01EC55FD4F4491FC01EC5887
:1024E000F74F2491FC01E25DF74F9491992309F491
:1024F0006BC0442309F455C050E0FA013197E23132
:10250000F10508F04EC08827EE58FF4F8F4F0C940E
:10251000D347809180008F7707C0809180008F7DA6
:1025200003C080918000877F809380003AC084B58B
:102530008F7702C084B58F7D84BD33C08091B00099
:102540008F7703C08091B0008F7D8093B00029C049
:10255000809190008F7707C0809190008F7D03C09D
:1025600080919000877F809390001BC08091A00095
:102570008F7707C08091A0008F7D03C08091A0005D
:10258000877F8093A0000DC0809120018F7707C0C6
:10259000809120018F7D03C080912001877F8093EF
:1025A0002001E92FF0E0EE0FFF1FE650F84FA59154
:1025B000B4918FB7F894EC91311103C020952E237C
:1025C00001C02E2B2C938FBF0895863308F08653BD
:1025D00090917B00282F2870977F922B90937B00FF
:1025E0008770806480937C0080917A0080648093FF
:1025F0007A0080917A0086FDFCCF8091780020914E
:10260000790090E0922B08958F929F92AF92BF92A3
:10261000CF92DF92EF92FF926B017C01A6DC4B011F
:102620005C01C114D104E104F104E9F09EDCDC0199
:10263000CB0188199909AA09BB09883E9340A105D5
:10264000B10578F321E0C21AD108E108F10888EE5B
:10265000880E83E0981EA11CB11CC114D104E104B2
:10266000F10421F7DECFFF90EF90DF90CF90BF9085
:10267000AF909F908F9008952FB7F89460911804B1
:102680007091190480911A0490911B042FBF089532
:102690001F920F920FB60F9211242F933F938F9397
:1026A0009F93AF93BF938091180490911904A091C8
:1026B0001A04B0911B043091170423E0230F2D3727
:1026C00020F40196A11DB11D05C026E8230F029636
:1026D000A11DB11D20931704809318049093190431
:1026E000A0931A04B0931B0480911C0490911D04C4
:1026F000A0911E04B0911F040196A11DB11D8093ED
:102700001C0490931D04A0931E04B0931F04BF915A
:10271000AF919F918F913F912F910F900FBE0F908E
:102720001F9018951F920F920FB60F9211240BB69F
:102730000F922F933F934F935F936F937F938F935A
:102740009F93AF93BF93EF93FF938091B900887FDE
:10275000803609F49CC068F5883209F45BC090F4B7
:10276000803109F454C038F4882309F4F6C0883065
:1027700009F44DC0F5C0883109F44CC0803209F429
:102780005DC0EEC0803409F468C048F4803309F4B9
:1027900055C0883309F0E4C08093A203D8C08035C7
:1027A00009F44FC0883509F45DC0883409F0D8C0F9
:1027B000D6C0883909F4C7C0A8F4883709F467C0BF
:1027C00038F4883609F463C0803709F460C0C8C0A3
:1027D000883809F4B8C0803909F45FC0803809F03E
:1027E000BFC05BC0803B09F486C038F4803A09F46E
:1027F00066C0883A09F47FC0B3C0803C09F4A7C022
:10280000883C09F4A4C0883B09F48AC0A9C080911F
:10281000C80310C09091C7038091C603981770F544
:10282000E091C70381E08E0F8093C703F0E0EA5583
:10283000FC4F80818093BB0085EC86C08093A2030F
:102840008EC0E091C70381E08E0F8093C703809113
:10285000BB00F0E0EA55FC4F80839091C703809164
:10286000C6036EC0E091C70381E08E0F8093C7035B
:102870008091BB00F0E0EA55FC4F80838091A50376
:1028800081116DC081E08093A40384EA61C083E07C
:102890008093A30310921604CFCF80911604803248
:1028A00008F051C0E091160481E08E0F8093160469
:1028B0008091BB00F0E0EA50FC4F8083BDCF85ECF7
:1028C0008093BC001092A30380911604803230F4F0
:1028D000E0911604F0E0EA50FC4F1082609116047B
:1028E00070E0E091F403F091F50386EF93E0199521
:1028F0001092160435C084E08093A3031092F30372
:102900001092F203E091F003F091F1031995809198
:10291000F203811105C081E08093F2031092D0038D
:10292000E091F30381E08E0F8093F303F0E0E05336
:10293000FC4F80818093BB009091F3038091F20360
:10294000981708F479CF85E88093BC0009C085EC1E
:102950008093BC001092A30303C01092A2032ADB51
:10296000FF91EF91BF91AF919F918F917F916F9167
:102970005F914F913F912F910F900BBE0F900FBE23
:102980000F901F901895CF93CFB7F8948091CF03F5
:10299000811123C0E3E6F8E08491E9EAF8E094913C
:1029A000E82FF0E0EE0FFF1FEC5EF74FA591B4911A
:1029B000EC91E92319F461E085E38ADD85E30E9467
:1029C000DC238CB580618CBD8CB580648CBD84E3C8
:1029D0000E94DC2383E30E94DC238091CF038F5F7E
:1029E0008093CF03CFBFCF910895AF92BF92CF9284
:1029F000DF92EF92FF920F931F93CF93DF93EC013F
:102A00006901C801820F931F8130924008F06EC0A7
:102A10008E81882371F088819981AA81BB814817B2
:102A200059076A077B0729F48F819885C816D9064C
:102A3000A0F5488359836A837B838B85833039F083
:102A400089E0440F551F661F771F8A95D1F79A01B9
:102A5000AB0161E1CE010E94472D882319F083E08C
:102A60008D8344C009DE5B010E94FB2B8A878F3F68
:102A700041F402DE6A197B096D327140A8F38FE0E0
:102A800003C08E3F31F08DE08D83CE010E940C2D6E
:102A90002DC018861F8281E08E838F8198858C15CA
:102AA0009D0540F40E94FB2B8F81988501969887A5
:102AB0008F83F3CF6701E00EF11ECE14DF0431F0F7
:102AC0000E94FB2BF60181936F01F7CF8F819885D0
:102AD000080F191F18870F838985882319F001159E
:102AE000124048F0CE010E94172D05C0CE010E9471
:102AF0000C2D80E001C081E0DF91CF911F910F91FB
:102B0000FF90EF90DF90CF90BF90AF900895EF923D
:102B1000FF920F931F93CF93DF93EC01790141153F
:102B200051056105710511F482E13CC08B8583304C
:102B300039F089E0440F551F661F771F8A95D1F73A
:102B40009A01AB0168E1CE010E94472D882311F064
:102B500084E028C08EEF0E94F42B87018EEFF81AD4
:102B6000F80181918F010E94F42B0E151F05C1F70A
:102B70008FEF0E94F42B8FEF0E94F42B0E94FB2B0F
:102B80008A878F71853031F081E18D83CE010E947B
:102B90000C2D09C068E572E0CE010E94FD2B811169
:102BA00007C085E18D83CE010E940C2D80E013C00B
:102BB00020E030E0A9016DE0CE010E94472D811197
:102BC00004C00E94FB2B882311F084E1EBCFCE01DF
:102BD0000E940C2D81E0DF91CF911F910F91FF900A
:102BE000EF9008958091920B882399F14091000213
:102BF00050910102609102027091030221E634E0DB
:102C000080915F049091600482DF811102C080E0B6
:102C100008954091930B5091940B6091950B709196
:102C2000960B411551056105710589F021E634E0E7
:102C300080915F04909160046ADF882341F31092D1
:102C4000930B1092940B1092950B1092960B10927E
:102C5000920B81E008958F929F92AF92BF92EF9274
:102C6000FF920F931F93CF934B015C01C42F809170
:102C7000000290910102A0910202B0910302881516
:102C80009905AA05BB05F1F0ADDF811102C080E016
:102C90001FC081E6E82E84E0F82E00E012E020E07C
:102CA00030E0B501A40180915F04909160049DDE45
:102CB000882369F38092000290920102A09202029E
:102CC000B09203028091920BC82BC093920B81E0CB
:102CD000CF911F910F91FF90EF90BF90AF909F9079
:102CE0008F9008958F929F92AF92BF92CF92DF9272
:102CF000EF92FF920F931F93CF93DF93FC01818597
:102D00009285A385B4850196A11DB11D84179507F1
:102D1000A607B70710F480E05BC083899489A58972
:102D2000B689C789C03129F4852E962EA72EBB24DB
:102D300009C04A015B01C7E0B694A79497948794B1
:102D4000CA95D1F7E9016A017B018F01BC01CD0170
:102D5000680D791D8A1D9B1D8090000290900102D4
:102D6000A0900202B0900302681579058A059B05C0
:102D700099F4F80187898031A1F4B701A60155279C
:102D800066277727440F551FFA01EF59FB4F8081C3
:102D90009181A0E0B0E017C040E05DDF8111E9CF94
:102DA000BACFB701A6014F77552766277727440F7B
:102DB000551F440F551FFA01EF59FB4F8081918138
:102DC000A281B381BF7088839983AA83BB8381E08A
:102DD000DF91CF911F910F91FF90EF90DF90CF90F7
:102DE000BF90AF909F908F9008954F925F926F9297
:102DF0007F92AF92BF92CF92DF92EF92FF920F93AA
:102E00001F93CF93DF9300D01F92CDB7DEB78C0115
:102E100049835A836B837C835901C12CD12C760161
:102E2000412C82E0582E612C712C49815A816B8192
:102E30007C819E012F5F3F4FC80154DF882351F1F1
:102E4000D301C201F801058404C0880F991FAA1F8D
:102E5000BB1F0A94D2F7C80ED91EEA1EFB1E498179
:102E60005A816B817C818789803129F088EF9FEFBF
:102E7000AFEFBFE004C088EF9FEFA0E0B0E04817DD
:102E800059076A077B0788F2F501C082D182E28286
:102E9000F38281E00F900F900F900F90DF91CF9110
:102EA0001F910F91FF90EF90DF90CF90BF90AF9068
:102EB0007F906F905F904F9008953F924F925F92F6
:102EC0006F927F928F929F92AF92BF92CF92DF923A
:102ED000EF92FF920F931F93CF93DF93CDB7DEB79F
:102EE0002C970FB6F894DEBF0FBECDBF5C01DC019E
:102EF0005B968D909C905C971696CD90DD90ED90B2
:102F0000FC901997C114D104E104F10439F0BFEF2A
:102F1000CB1ADB0AEB0AFB0A312C07C0F401C08094
:102F2000D180E280F38033243394F401818592854B
:102F3000A385B4859C01AD012F5F3F4F4F4F5F4F7D
:102F400029873A874B875C87260137011D821E82BD
:102F50001F821886F40181859285A385B4852D8111
:102F60003E814F815885281739074A075B0708F0CB
:102F700062C089859A85AB85BC858C159D05AE059B
:102F8000BF0550F482E0C82ED12CE12CF12C92E048
:102F9000492E512C612C712C9E012F5F3F4FB701A0
:102FA000A601C4019FDE882309F445C089819A8166
:102FB000AB81BC81892B8A2B8B2B41F026013701F9
:102FC0009FEF491A590A690A790A05C0C414D50441
:102FD000E604F70491F02D813E814F8158852F5FE3
:102FE0003F4F4F4F5F4F2D833E834F8358873FEFB7
:102FF000C31AD30AE30AF30AADCF0FEF1FEF2FEF87
:103000003FE0B301A201C4010E94F02A882399F095
:10301000D50116964D915D916D917C911997411551
:1030200051056105710549F093018201C4010E94B7
:10303000F02A811102C080E02AC0D50116964D9277
:103040005D926D927C921997332051F0D301C201A9
:103050000196A11DB11DF40180839183A283B383E6
:10306000F5018789908DA18DB28D892B8A2B8B2BB1
:1030700069F4D50157964D925D926D927C925A9764
:1030800014968C911497806814968C9381E02C96FA
:103090000FB6F894DEBF0FBECDBFDF91CF911F9169
:1030A0000F91FF90EF90DF90CF90BF90AF909F90E7
:1030B0008F907F906F905F904F903F900895CF9347
:1030C000DF93EC018D81882391F18C8187FF2CC0E7
:1030D0006E857F858889998941E0BDDD882339F136
:1030E000EA8980E2E89FF0011124DF01AF59BB4F6C
:1030F0001097E9F08D81823050F44B895C896D899D
:103100007E895C964D935D936D937C935F978F89D9
:10311000988DA98DBA8DEF59FB4F938F828FB58B08
:10312000A48B8C818F778C83DF91CF915BCD80E0F6
:10313000DF91CF9108958F929F92AF92BF92CF92DD
:10314000DF92EF92FF920F931F93CF93DF93EC01E7
:103150008D81811102C080E076C00B891C892D8988
:103160003E890417150726073707A8F36A017B0174
:10317000823029F4CA86DB86EC86FD860DC0C11438
:10318000D104E104F10451F41E821F8218861986CD
:103190001A861B861C861D8681E055C08A849B8406
:1031A000AC84BD84EB8DFC8D258530E0275F3F4FDF
:1031B000B501A4014150510961097109022E04C0F1
:1031C00076956795579547950A94D2F7D701C6012A
:1031D0000197A109B10904C0B695A7959795879560
:1031E0002A95D2F784179507A607B70720F08928F4
:1031F0008A288B2849F44F89588D698D7A8D4E83A2
:103200005F836887798704C0841B950BA60BB70B77
:103210004C015D018E010A5F1F4F81149104A104CE
:10322000B10409F4A7CF4E815F8168857985980143
:103230008B8D9C8D57DD91E0891A9108A108B1080A
:103240008111EBCF88CFDF91CF911F910F91FF902C
:10325000EF90DF90CF90BF90AF909F908F900895A8
:103260002F923F924F925F926F927F928F929F9296
:10327000AF92BF92CF92DF92EF92FF920F931F9384
:10328000CF93DF9300D01F92CDB7DEB78C015B01E7
:103290001A01DC0115968C9115978130C1F41496B2
:1032A0008C9181FF14C082FF1AC0F80143895489B0
:1032B0006589768982859385A485B5858417950768
:1032C000A607B70761F0C80136DF811108C081E0A9
:1032D00090E0F8019383828380E090E033C1610144
:1032E00082C0D8015B968D919C915C97FC012481F2
:1032F00021502A013B0139E0769467945794479412
:103300003A95D1F7722E74207A01F1E0FF227720EE
:1033100009F475C080E092E08E199F0946018C1572
:103320009D0508F44C01D8015B962D913C915C976A
:1033300016968D919D910D90BC91A02D0297A1099B
:10334000B109F901058404C0880F991FAA1FBB1F8A
:103350000A94D2F74685578560897189840F951F35
:10336000A61FB71F9C01AD01270D311D411D511D29
:1033700029013A01811432E0930609F085C0809159
:10338000000290910102A0910202B0910302841503
:103390009505A605B70559F48FEF9FEFDC018093E3
:1033A000000290930102A0930202B09303029501E0
:1033B000B301A20180915F0490916004A8DB88238F
:1033C00009F485CF9EEFB91AC818D908F80182858B
:1033D0009385A485B585880D991DA11DB11D828792
:1033E0009387A487B587D8011A964D915D916D9109
:1033F0007C911D97C114D10409F073CF83C0E114EF
:10340000F10409F087CF16964D915D916D917C91F5
:103410001997411551056105710559F457968D911C
:103420009D910D90BC91A02D0097A105B10531F59E
:1034300020C09E012F5F3F4F55DC882309F44DCFFC
:1034400089819A81AB81BC81F801238D348DF9018A
:103450002789203129F048EF5FEF6FEF7FE004C04C
:1034600048EF5FEF60E070E084179507A607B707A5
:1034700028F0C80122DD81114DCF29CFF8018683C4
:103480009783A087B18746CFE114F10421F5D801D5
:103490001A964D915D916D917C911D9753968D91EA
:1034A0009D910D90BC91A02D481759076A077B0785
:1034B00090F098DB882309F40ACF409200025092E2
:1034C000010260920202709203028091920B81606D
:1034D0008093920B07C041E0C301B201BCDB88239B
:1034E00009F4F5CED501F701EF59FB4FCF01880D57
:1034F000991DE817F90719F02D912193FACFA80C1F
:10350000B91C62CF53968D919D910D90BC91A02DC9
:1035100084179507A607B70740F4F801438B548B2F
:10352000658B768B848180688483D80114968C9116
:1035300083FD02C0C10106C0C801C1DD882309F4B2
:10354000C6CEF8CF0F900F900F900F90DF91CF91D4
:103550001F910F91FF90EF90DF90CF90BF90AF90B1
:103560009F908F907F906F905F904F903F902F90A3
:103570000895CF93DF931F92CDB7DEB7698341E003
:1035800050E0BE016F5F7F4F6BDE0F90DF91CF91F8
:1035900008958F929F92AF92BF92CF92DF92EF9257
:1035A000FF920F931F93CF93DF9300D01F92CDB75D
:1035B000DEB77C0180E2689F6001112496012F59DB
:1035C0003B4FD9011B969C91917121F0842F8274FD
:1035D00009F094C0142FF701628B80910002909142
:1035E0000102A0910202B091030286879787A08B07
:1035F000B18BF601EF59FB4F4489558960E070E0CB
:10360000BA0155274427D70157964D935D936D9383
:103610007C935A97828D938DA0E0B0E0482B592B74
:103620006A2B7B2BD70157964D935D936D937C93BB
:103630005A97D9011B968C91887159F4848D958D78
:10364000A68DB78DF701838B948BA58BB68B81E00C
:1036500011C0803109F052C097012D5E3F4FD70154
:103660005B968D919C915C97C0DB882309F446C0E2
:1036700084E0F7018583812F8F70D70114968C9396
:103680001497F70116821782108611861A961D92DA
:103690001D921D921C921D9716FF32C015968C919B
:1036A000813061F511FF2AC0F7014389548965898A
:1036B0007689452B462B472B09F45DC040E050E04E
:1036C000BA01C70138DD8823C9F0F7018788908CDB
:1036D000A18CB28CC38CD48C82E090E0A0E0B0E0EE
:1036E000F60180839183A283B3839E012F5F3F4FB6
:1036F000B501A401C601F6DA811104C080E03BC027
:1037000081E039C000E010E09801B501A401C601D4
:103710000E94F02A882391F389809A80AB80BC8034
:10372000D60157968C91803129F088EF9FEFAFEF4B
:10373000BFE004C088EF9FEFA0E0B0E088169906D4
:10374000AA06BB0690F2D70157961D921D921D92B4
:103750001C925A97F701138A148A158A168A848153
:1037600080688483C701ABDC882341F240E050E0ED
:10377000BA01C701E0DC0F900F900F900F90DF911E
:10378000CF911F910F91FF90EF90DF90CF90BF905E
:10379000AF909F908F9008952F923F924F925F929B
:1037A0006F927F928F929F92AF92BF92CF92DF9251
:1037B000EF92FF920F931F93CF93DF93EC016B0176
:1037C0004A018D81811103C08FEF9FEFD4C08C819E
:1037D00080FFFACF4B885C886D887E884A855B8540
:1037E0006C857D85C401A0E0B0E093018201041BDB
:1037F000150B260B370B081719072A073B0718F478
:103800004201841A950A54011E0126E0220E311C41
:10381000A114B10409F47DC04A855B856C857D8562
:103820002A0181E05822ED818A019B0189E03695C9
:103830002795179507958A95D1F78B8D9C8DE2304A
:1038400061F4FC01828D938DA48DB58DBC01CD01F9
:10385000600F711F821F931F3EC0FC0174807A9419
:10386000702241145104C1F4711016C0452B462B2F
:10387000472B49F48F89988DA98DBA8D8E839F83AC
:10388000A887B98709C04E815F81688579859101D4
:1038900029DA882309F498CFEB8DFC8D8E819F81E6
:1038A000A885B9850297A109B109058404C0880FCC
:1038B000991FAA1FBB1F0A94D2F7468557856089B6
:1038C0007189840F951FA61FB71FBC01CD01670D1D
:1038D000711D811D911D20E032E02419350935014B
:1038E0002A153B0508F439012C8126FD04C061141A
:1038F000F2E07F0681F40091000210910102209114
:103900000202309103026017710782079307A9F43E
:1039100002C0C40130C040E09ED9882309F454CFCE
:10392000F201EF59FB4FD601CF01860D971DE81725
:10393000F90781F021912D93FACF7601830192014D
:10394000AB01BC0180915F04909160044ED8882344
:1039500009F43ACFC60CD71C8A859B85AC85BD85FA
:10396000860D971DA11DB11D8A879B87AC87BD87DA
:10397000A618B7084DCFDF91CF911F910F91FF90FF
:10398000EF90DF90CF90BF90AF909F908F907F90FF
:103990006F905F904F903F902F900895CF93DF935B
:1039A000EC018DDB882311F01D8281E0DF91CF9146
:1039B0000895CF92DF92EF92FF921F93CF93DF9300
:1039C000EC017BDA811102C080E05DC0EB8DFC8DE3
:1039D000CE80DF80E884F98482E0C81AD108E1084B
:1039E000F108058404C0CC0CDD1CEE1CFF1C0A94FD
:1039F000D2F786859785A089B189C80ED91EEA1E9F
:103A0000FB1E148181E0C81AD108E108F1081123D6
:103A1000F9F0E8D88823C1F2E1E6F4E0119286E0FB
:103A2000E136F807D9F7D701C601810F911DA11D15
:103A3000B11D8093000290930102A0930202B09303
:103A400003028091920B81608093920B1150DFCF23
:103A5000EB8DFC8D80E092E0A0E0B0E0058404C036
:103A6000880F991FAA1FBB1F0A94D2F74B895C8944
:103A70006D897E89840F951FA61FB71F8B8B9C8B2A
:103A8000AD8BBE8B81E0DF91CF911F91FF90EF90C6
:103A9000DF90CF9008958F929F92AF92BF92CF9276
:103AA000DF92EF92FF920F931F93CF93DF93CDB7E7
:103AB000DEB72B970FB6F894DEBF0FBECDBF7C01EB
:103AC000FC01A580A1100CC1CE0101966C01FC0186
:103AD00090E28BE08C0D91938E13FDCFDA0130E0F4
:103AE00087E09D91992339F19E3219F0EAEEF2E0D8
:103AF0000AC08A3009F4F5C038E08AE0F2CF319686
:103B0000491709F4EEC044914111F9CF831708F425
:103B1000E8C04FED490F4E3508F0E3C041E0430FD8
:103B2000F601E30FF11D3FE9390F3A3108F49052E5
:103B30009083342FD6CF8981803209F4D2C0B22E3F
:103B40008B01FB01838D948DF701948F838FFB0193
:103B500016821782108611861286138614861586A1
:103B6000912CF80182859385A485B5854389548974
:103B70006589768984179507A607B70708F060C09E
:103B800025E0B695A795979587952A95D1F7F82FB3
:103B9000FF708F2EF8018581823008F4A2C0C80121
:103BA0000E94C22C97FD9DC0F80182859385A48553
:103BB000B5854F96A11DB11D82879387A487B587D0
:103BC000F0E28F9EC0011124BC016F597B4F61153B
:103BD000710509F486C0FB012081222319F0253EDE
:103BE000C1F427C091100EC0F701828A40910002F3
:103BF000509101026091020270910302468757873B
:103C0000608B718BFC01EF59FB4F8081811113C0D8
:103C100015C04BE050E0C6010E942049892B09F0F5
:103C2000A0CF8B2D8073803309F45BC04B2D682DA2
:103C300053C09920C9F29924939493CF99249394D3
:103C40008B2D8271823109F04CC09920B9F0F701B7
:103C5000668577858089918941E00E942B168823AB
:103C600009F43FC0F7016289F0E26F9FB0011124AF
:103C70006F597B4F6115710569F433C0F801858177
:103C8000823079F1C80195DE882359F1F701128A53
:103C900061E674E080E2FB0111928A95E9F78BE01E
:103CA000F601DB0101900D928A95E1F781E298E23D
:103CB000FB01918B808B20E038E037872687938B40
:103CC000828B918F808F378B268B0E94F2158823F1
:103CD00041F04B2DF7016289C7015BDCA82E01C0C2
:103CE000A12C8A2D2B960FB6F894DEBF0FBECDBF48
:103CF000DF91CF911F910F91FF90EF90DF90CF90C8
:103D0000BF90AF909F908F9008956F927F928F9207
:103D10009F92AF92BF92CF92DF92EF92FF920F935A
:103D20001F93CF93DF93EC014B015A0169013801D6
:103D3000E881F9810284F385E02D1995E881F98104
:103D40000288F389E02D87019601A501B401CE0117
:103D50001995E881F981A501460D571D415051097A
:103D60000288F389E02D9601B401CE011995E8810E
:103D7000F9810088F189E02D9301A501B401CE01FC
:103D80001995E881F981C80CD91CB60161507109F7
:103D90000088F189E02D9301A501CE011995E881F4
:103DA000F9810688F789E02DCE01DF91CF911F912F
:103DB0000F91FF90EF90DF90CF90BF90AF909F90CA
:103DC0008F907F906F901994CF92DF92EF92FF9235
:103DD0000F931F93CF93DF9300D000D0CDB7DEB702
:103DE0006C01DC01ED91FC916217730789F40417F3
:103DF00015072CF4942F852FA801092F182F041BC9
:103E0000150B98012F5F3F4F048CF58DE02D12C0EC
:103E10004017510709F5261737072CF4962F872FDF
:103E2000B901292F382F261B370B2F5F3F4F068CE8
:103E3000F78DE02D8701C601199526960FB6F894E7
:103E4000DEBF0FBECDBFDF91CF911F910F91FF90CD
:103E5000EF90DF90CF9008950284F385E02D2D83BD
:103E60003E834B835C8369837A831995D601ED91F8
:103E7000FC910488F589E02D2D813E814B815C8188
:103E800069817A81C6011995D601ED91FC91068868
:103E9000F789E02DC60126960FB6F894DEBF0FBE57
:103EA000CDBFDF91CF911F910F91FF90EF90DF90E9
:103EB000CF901994EF92FF920F931F93DC01ED9135
:103EC000FC9111971A960D911C911B9718962D91A4
:103ED0003C91199700A0F1A1E02D7B0140E050E05A
:103EE00060E070E019951F910F91FF90EF90089599
:103EF0004F925F926F927F928F929F92AF92BF92FA
:103F0000CF92DF92EF92FF920F931F93CF93DF93A5
:103F10001F921F92CDB7DEB76C015A0139014801DB
:103F2000DC01ED91FC910284F385E02D69837A83B5
:103F300019956981462E7A81572E640C751CD6011D
:103F4000ED91FC91461457046CF40088F189E02D42
:103F500087019401A501B201C6011995BFEF4B1A63
:103F60005B0AEDCF0688F789E02DC6010F900F9010
:103F7000DF91CF911F910F91FF90EF90DF90CF9045
:103F8000BF90AF909F908F907F906F905F904F9079
:103F90001994AF92BF92CF92DF92EF92FF920F935C
:103FA0001F93CF93DF9300D01F92CDB7DEB75C0194
:103FB0006901DC01ED91FC910284F385E02D4B83D6
:103FC0005C8369837A831995D501ED91FC916981B0
:103FD0007A819B012C0D3D1D215031090488F58902
:103FE000E02D78014B815C818A01C5011995D501CD
:103FF000ED91FC910688F789E02DC5010F900F9097
:104000000F900F90DF91CF911F910F91FF90EF9044
:10401000DF90CF90BF90AF901994AF92BF92CF92A4
:10402000DF92EF92FF920F931F93CF93DF9300D015
:104030001F92CDB7DEB75C016901DC01ED91FC9107
:104040000284F385E02D4B835C8369837A83199521
:10405000D501ED91FC914B815C81C40ED51EB1E080
:10406000CB1AD1080488F589E02D78018601698191
:104070007A819B01C5011995D501ED91FC910688C6
:10408000F789E02DC5010F900F900F900F90DF91F1
:10409000CF911F910F91FF90EF90DF90CF90BF9045
:1040A000AF9019940895EF92FF920F931F93DC0144
:1040B000ED91FC9100A0F1A1E02D19951F910F91B8
:1040C000FF90EF9008950F931F93DC01ED91FC9109
:1040D000068CF78DE02D19951F910F9108950F9380
:1040E0001F93DC01ED91FC91048CF58DE02D199569
:1040F0001F910F910895DC01ED91FC910084F185F1
:10410000E02D199408952F923F924F925F926F92F3
:104110007F928F929F92AF92BF92CF92DF92EF9257
:10412000FF920F931F93CF93DF9300D0CDB7DEB7ED
:104130004C017B836A836A01590117019801241B92
:10414000350B37FF03C0319521953109C5014A81EF
:104150005B81841B950B97FF03C091958195910915
:1041600051E059838217930714F019820BC09A2DDE
:104170008B2D5801092F182F9A818B81DB82CA82DF
:10418000C92ED82E8A819B81A816B9065CF49C2D75
:104190008D2D6801092F182F9A818B81BB82AA82ED
:1041A000A92EB82E2501AA81BB814A1A5B0A3801C3
:1041B0006C187D0877FE03C07194619471087201D8
:1041C00057FE03C0BFEFEB1AFB0AF594E794C01645
:1041D000D1061CF00FEF1FEF1FC001E010E01CC064
:1041E000D401ED91FC91B9810484F585E02D910114
:1041F000BB23C1F04A815B81B601C4011995E61861
:10420000F708F7FE04C0C00ED11EE40CF51CEA81CD
:10421000FB813196FB83EA834A815B81A416B50654
:10422000FCF604C0A6016A817B81E7CF0F900F9056
:104230000F90DF91CF911F910F91FF90EF90DF9042
:10424000CF90BF90AF909F908F907F906F905F9036
:104250004F903F902F900895E0915404F0915504B1
:104260008081811103C08FEF9FEF0CC0E091540457
:10427000F09155040580F681E02D0680F781E02D50
:10428000828193819093CE038093CD0308952F92E2
:104290003F924F925F926F927F928F929F92AF92D6
:1042A000BF92CF92DF92EF92FF920F931F93CF9323
:1042B000DF93CDB7DEB76C970FB6F894DEBF0FBEB5
:1042C000CDBF9C8F8B8F5B011A011F830E8337013B
:1042D000C982DC0158964D915C9159974115510561
:1042E00009F0E5C018968D919C9119976817790788
:1042F0000CF0CAC11A968D919C911B97281639060D
:104300000CF0C2C18C2C912CFB0136E0C39EE00D59
:10431000F11D1124FB87EA871E161F060CF0B4C19D
:10432000C40133E0880F991F3A95E1F79D878C8788
:10433000820D931D181619060CF0A6C157968C9184
:10434000811103C0203B08F02F5FAB8DBC8DED9138
:10435000FC9111970284F385E02DCD012A8F1995E8
:104360002A8DB5E02B9F90011124F5013596FF872A
:10437000EE87BB82AA822501A9014A195B09598BE4
:10438000488BC10108969B8B8A8BE889F989E40DDB
:10439000F51DE650FD4F9491988761013D822C8276
:1043A000A885A0FF13C0AB8DBC8DED91FC91B981A8
:1043B000B13031F40484F585E02D2E813F8116C0A3
:1043C0000684F785E02DEE80FF801AC0EE81FF8124
:1043D0006E167F06F1F0AB8DBC8DED91FC91B9812D
:1043E000B13051F40484F585E02D9301A601B201AA
:1043F0008B8D9C8D19950DC00684F785E02D73017A
:10440000840194014C815D816A817B818B8D9C8DBF
:104410001995E885E695E887FFEFCF1ADF0A2C812A
:104420003D81280D391D3D832C834A895B89C41643
:10443000D50609F0B5CF5FEF451A550A8A819B81F1
:10444000880D991D9B838A83AE85BF854A165B06BE
:1044500009F09BCFEE81FF816E167F0609F4F2C052
:10446000EB8DFC8DA081B181F981F13079F4B5013A
:104470006B5F7F4F5096ED91FC915197830128E03F
:1044800030E0A1018B8D9C8D1995DCC06A857B8500
:10449000681979091E96ED91FC911F9773010C859F
:1044A0001D859401A1018B8D9C8D1995CBC0FA01BE
:1044B00034969491329765917491291BCB01B7E0A2
:1044C0002B9F800D911D1124FA01259134913B8B76
:1044D0002A8BFC01459154915B834A83FC013296FF
:1044E000C490319654915E87329614913196D4904F
:1044F0008981823058F0612E012E000C7708AD2D95
:104500000D2C000CBB0BB987A88704C01986188630
:10451000612C712CAB8DBC8DED91FC9111970284B7
:10452000F385E02DCD011995B9818B2E912C689CD6
:10453000C001699C900D789C900D1124FC01EA0D3E
:10454000FB1DFD87EC871C82712C612CE12F110F64
:10455000FF0B95012E0F3F1F3B872A87AC0CB11C28
:10456000A5014E0F5F1F5F8B4E8BC1018D0D911DFD
:10457000D7FC9A95998F888F4E85641608F062C093
:10458000862D90E048855985480F591F489D900118
:10459000499D300D589D300D1124D901A20DB31D38
:1045A000B98BA88BAA84BB844C845D84DC80BA85DB
:1045B000DB1AE88DF98DE80FF91FFD8BEC8B8D2D43
:1045C0008A0D2E893F89A216B306B9F1877061F46E
:1045D0008A819B810196EA89FB89AA81BB81EA0FC6
:1045E000FB1F74909B838A8377FE20C0AB8DBC8DAC
:1045F000ED91FC91B981B13061F40484F585E02D31
:104600002E813F814C895D89B5018B8D9C8D1995DB
:104610000DC00684F785E02DEE80FF8084019401B3
:1046200048895989B2018B8D9C8D1995770CEFEFD4
:10463000AE1ABE0A480C591CC2CF3C813C0D3C83CB
:1046400063949ACFAB8DBC8DED91FC911197068848
:10465000F789E02DCD016C960FB6F894DEBF0FBE42
:10466000CDBFDF91CF911F910F91FF90EF90DF9021
:10467000CF90BF90AF909F908F907F906F905F9002
:104680004F903F902F9019946C960FB6F894DEBF20
:104690000FBECDBFDF91CF911F910F91FF90EF9093
:1046A000DF90CF90BF90AF909F908F907F906F9052
:1046B0005F904F903F902F900895279A2F9A2FEF59
:1046C00080E792E0215080409040E1F700C0000078
:1046D0001F9AF5CFCF92DF92EF92FF920F931F9325
:1046E000CF93DF93EC017B01E881F9810284F385AC
:1046F000E02D1995670185E0C80ED11CE881F9818C
:104700000288F389E02D00EE17E029E230E045E071
:1047100050E0B601CE011995E881F9810288F3894C
:10472000E02D29E230E04FE750E0B601CE011995C7
:10473000E881F9810088F189E02D21E730E04AE045
:1047400050E0B701CE011995E881F981B7016E5C9F
:104750007F4F0088F189E02D21E730E04AE050E00A
:10476000CE01199521E04AE050E0B601CE013ED6D7
:104770008DE2E80EF11C22E04AE050E0B701CE01E4
:1047800035D624E04AE750E0B701CE012FD628E025
:104790004AE750E0B601CE0129D6E881F9810688C2
:1047A000F789E02DCE01DF91CF911F910F91FF90FE
:1047B000EF90DF90CF90199490E0FC01EC58F74F08
:1047C0002491FC01E25DF74F8491882399F090E0F9
:1047D000880F991FFC01EC5EF74FA591B491FC0185
:1047E000E650F84F859194918FB7F894EC91E22BB5
:1047F000EC938FBF08952F923F924F925F926F92EA
:104800007F928F929F92AF92BF92CF92DF92EF9260
:10481000FF920F931F93CF93DF93CDB7DEB7C95CA1
:10482000D1090FB6F894DEBF0FBECDBF65E473E0CB
:1048300081E696E00E943D496DE872E081E696E0EF
:104840000E943D4967E473E081E696E00E943D499D
:104850007E012BEBE20EF11CD7011D921D921D92E1
:104860001C92139714961C9241E065E473E0CE010C
:104870008D569F4F97D4CE0188589F4F0E947A2C17
:10488000C7010E94D9406C018E01055A1F4FF801E3
:104890003C965F013BEC832E32E0932E4EE2542E89
:1048A000C455DF4F68807980CC5AD040D30115962B
:1048B0008C91823008F46EC0F30182859385A485C3
:1048C000B5858F719927AA27BB27892B8A2B8B2B1C
:1048D00009F060C040E250E0BE016F5F7F4FC3014E
:1048E0000E94CC1B803209F055C08981882309F4CD
:1048F00051C0853E79F38E3269F38C8583FDEACF12
:1049000022961FAE1EAE22979FAE8EAE24961FAE8D
:104910002497FE01319690E080E02191203291F0C1
:10492000883041F4AEEAB0E0AC0FBD1FA90FB11D55
:104930005C929F5FAEEAB0E0AC0FBD1FA90FB11D46
:104940002C939F5F8F5F8B3041F7EEEAF0E0EC0F26
:10495000FD1FE90FF11D1082C455DF4F6881798179
:10496000CC5AD04021E0AE0142555F4FCE01CE96E9
:1049700092D8882379F0BE01625C7F4FCE01819688
:1049800056D7AE0142555F4FBE016F5D7F4FC801E4
:10499000C4D702C0C801AED7D80112968D919C91A0
:1049A0001397EC969FAF8EAFEC9714968D919D91D7
:1049B0000D90BC91A02DC458DF4F88839983AA83A2
:1049C000BB83CC57D040F80180859185A285B38503
:1049D000C058DF4F88839983AA83BB83C058D040D7
:1049E0008DE0F501A8E7B0E0AC0FBD1F1C9601906B
:1049F0000D928A95E1F7D8015996ED91FC915A975D
:104A0000CF56DF4FF983E883C159D040309739F052
:104A10008581882321F0823008F095C141CFBFEF16
:104A2000CB1ADB0AB60124E0EAE0F0E0161617061E
:104A300034F4CB01BF010E94C0472150F7CFF701EA
:104A400090E38E2F8E19821710F49193FACF2430B1
:104A500039F0B701620F711D4AE0C6010E94F640AD
:104A6000CE018D569F4F34D7CE0188589F4F30D7F7
:104A7000B70181E696E00E943D49F8011382128257
:104A80008BEC92E091838083158222961FAE1EAE3E
:104A900022979FAF8EAF24961FAE2497E12CF12C66
:104AA000C02EB12E04E918E04C0184E0A82E90E25B
:104AB000D92E9E01245F3F4FC054DF4F3983288396
:104AC000C05CD04020E4222E312C412C512CC70157
:104AD000F701EF59F94F20812F3209F40196FE01B9
:104AE000E255FF4F20E030E0DC01AF59B94F4C9167
:104AF0004F3249F0442339F02F5F3F4F01964193E5
:104B00002C30310589F7EEEAF0E0EC0FFD1FE20FE3
:104B1000F31F1082FC01EF59F94F20812F3209F465
:104B200001967C01FC01EF59F94F3081CE53DF4FE4
:104B30003883C25CD0401CA21BA29AA289A21EA2EA
:104B40001C821B829A8289821E8221E0AE0142551C
:104B50005F4FB801CE0101960E944B1D882329F0BA
:104B6000CE0101960E94CE1CC5C023E3AE01425582
:104B70005F4FB801CE0181960E944B1D882309F436
:104B8000B4C081E08DA3AEA2CE0181960E94D91C53
:104B9000882309F4AAC0CE0181960E945F18882359
:104BA00009F4A3C06FA578A989A99AA941E00E9438
:104BB0002B16882309F499C08BA940E2849FC00179
:104BC00011248F599B4F009709F48FC0E0E1DC015D
:104BD0001B96EC93FC01DE0111962D2D01900D9298
:104BE0002A95E1F7DC0154960D90BC91A02DCD5390
:104BF000DF4FB983A883C35CD040FC01628C738C07
:104C0000FE013296D192C054DF4F28813981C05CB9
:104C1000D040E217F307B1F72EE22983ECADFDADEA
:104C200088AD99ADAAADBBAD0297A109B1090584C4
:104C300004C0880F991FAA1FBB1F0A94D2F746858C
:104C4000578560897189840F951FA61FB71F41E0A2
:104C5000BC01CD01CB53DF4F2883C55CD0400E94FF
:104C60002B16CB53DF4F2881C55CD0408823E9F158
:104C7000CD53DF4F68817981C35CD0407E8B6D8BD3
:104C80007C8E6B8EFE013196A1E6B4E08D2D0190F5
:104C90000D928A95E1F72A83D80115968C91159784
:104CA0008250823048F057964D915D916D917C9184
:104CB0005A97CA019B0104C080E090E020E030E0F8
:104CC0003E8B2D8B9C8F8B8FFE013196A1E8B4E03B
:104CD0008D2D01900D928A95E1F72BA63CA64DA64D
:104CE0005EA60E94F215811105C0B8E004391B07C9
:104CF00031F53CC0CE53DF4F3881C25CD040332306
:104D0000D1F021E0AE0142555F4FB8018C2D9B2DB3
:104D10000E944B1D682E48E00439140709F1C801B0
:104D20000E94CE1C662011F1902F812F0C2D1B2D7F
:104D3000C92EB82ECCCE58E004391507B9F0C801F9
:104D40000E94CE1C13C088E790E08C0F9D1F4096F8
:104D50000E94D940C816D9060CF09CCD6C019ACDA2
:104D6000882321F08E01025C1F4FDECF65E473E0E3
:104D700081E696E00E943D4961E872E08BE696E0AC
:104D80000E94534943E161E676E0CE0101960AD2E2
:104D90008B819C81EC969FAF8EAFEC978D819E812D
:104DA000AF81B885C458DF4F88839983AA83BB83BA
:104DB000CC57D04089859A85AB85BC85C058DF4FDC
:104DC00088839983AA83BB83C058D0408DE0FE01BD
:104DD0003D96A8E7B0E0AC0FBD1F1C9601900D9268
:104DE0008A95E1F78A8D9B8DCF56DF4F9983888313
:104DF000C159D040CE0188589F4F6AD566E772E00E
:104E00008BE696E00E94534943E161E676E0CE01ED
:104E10000196C8D18B819C81EC969FAF8EAFEC97A9
:104E20008D819E81AF81B885C458DF4F8883998377
:104E3000AA83BB83CC57D04089859A85AB85BC8536
:104E4000C058DF4F88839983AA83BB83C058D04062
:104E50008DE0FE013D96A8E7B0E0AC0FBD1F1C96AB
:104E600001900D928A95E1F78A8D9B8DCF56DF4F89
:104E700099838883C159D040CE0188589F4F28D547
:104E80006BE672E08BE696E00E94534943E161E6EF
:104E900076E0CE01019686D18B819C81EC969FAF06
:104EA0008EAFEC978D819E81AF81B885C458DF4F5E
:104EB00088839983AA83BB83CC57D04089859A8500
:104EC000AB85BC85C058DF4F88839983AA83BB8399
:104ED000C058D0408DE0FE013D96A8E7B0E0AC0F91
:104EE000BD1F1C9601900D928A95E1F78A8D9B8DCE
:104EF000CF56DF4F99838883C159D040CE0188585F
:104F00009F4FE6D46FEF72E08BE696E00E94534924
:104F100081E0C753DF4F0FB6F894DEBF0FBECDBFA1
:104F2000DF91CF911F910F91FF90EF90DF90CF9085
:104F3000BF90AF909F908F907F906F905F904F90B9
:104F40003F902F9008958F929F92AF92BF92CF92F1
:104F5000DF92EF92FF92CF93DF93C82F8AE698E01B
:104F60009093600480935F04CC2369F1C53010F006
:104F700080E00DC140E060E070E0CB010E942B16A4
:104F80008823B1F320E1C29FC00111248F5A9B4FA7
:104F9000FC01E254FE4F20812F7751F73C9640816F
:104FA000518162817381443651056105710500F3B9
:104FB0003497C080D180E280F380C114D104E10431
:104FC000F10421F4D5CFC12CD12C760140E0C701EA
:104FD000B6010E942B16882359F280916C0490919F
:104FE0006D048115924021F6A0917104AA2309F461
:104FF000BFCF60916F04709170046115710509F461
:10500000B7CF20916E04222309F4B2CFA093880871
:1050100020937A0880E030E0E1E0F0E0C82FAF01B3
:10502000082E02C0440F551F0A94E2F724173507D3
:1050300041F0982F8F5F983089F789E0809383083B
:1050400097CF8093830820917704309178042115BD
:10505000310519F040E050E008C0209185043091FE
:105060008604409187045091880420937B083093F4
:105070007C0840937D0850937E0846015701860EB8
:10508000971EA11CB11C8092890890928A08A09258
:105090008B08B0928C08E0917204F0917304F09345
:1050A0008F08E0938E08B0E00E947546860E971E2A
:1050B000A81EB91E8092900890929108A092920822
:1050C000B092930885E0EE0FFF1F8A95E1F7E1505B
:1050D000FE4FEF2FFF27E6958E0E9F1EA11CB11CE1
:1050E0008092840890928508A0928608B0928708E2
:1050F00020917404309175042115310521F0A90126
:1051000060E070E008C04091810450918204609199
:10511000830470918404D701C60188199909AA09EA
:10512000BB09840F951FA61FB71F04C0B695A7958E
:1051300097958795CA95D2F780937F0890938008BA
:10514000A0938108B0938208853F2FE09207A105C4
:10515000B10510F48CE018C0853F9F4FA105B10543
:1051600010F480E111C080918D0490918E04A09183
:105170008F04B09190048093900890939108A0932D
:105180009208B093930880E280938D0881E0DF91CC
:10519000CF91FF90EF90DF90CF90BF90AF909F9016
:1051A0008F9008952F923F924F925F926F927F92CD
:1051B0008F929F92AF92BF92CF92DF92EF92FF9227
:1051C0000F931F93CF93DF93CDB7DEB7C756D109A7
:1051D0000FB6F894DEBF0FBECDBF3C015B01A696B3
:1051E0004FAFA6974E018EE1880E911C64E978E0DE
:1051F000C4011DD31C821B828BEC92E09A838983AD
:105200001E827501FE0131966F0124011F016FE2BC
:1052100070E0C7010E9448490097F1F1F701208131
:105220002F3221F4FFEFEF1AFF0AF1CF8E198D30E4
:1052300008F08CE0082F10E0A801B701CE01885AD1
:105240009F4F0E946A49E8E5F0E0EC0FFD1FE00F78
:10525000F11F1082C6010E94CE1C21E0AE01485A07
:105260005F4FB201C6010E944B1D81110AC01EAEE4
:105270001DAE8BEC92E09CAF8BAF21961FAE2197B9
:1052800016C0E00EF11EC2010E94CE1C942D852D89
:105290002601C92ED82EBBCFC7018A199B09A89613
:1052A0009FAF8EAFA897B201CE01CB96C0D2A89681
:1052B000EEADFFADA897AE0EBF1EF5018081811146
:1052C00008C0BE01655C7F4FC101B1D245E453E027
:1052D0003AC019A218A28BEC92E09F8F8E8F1BA26E
:1052E00021968FAD2197811103C0C30103D32EC036
:1052F0008250A6962FADA697A501823040F464E9AE
:1053000078E0C4010E944B1D81110DC0EECFBE019B
:10531000655C7F4FC4010E944B1D882331F3CE0191
:10532000CB960E94CE1CA6968FADA697867039F0BC
:1053300049A95AA96BA97CA9C4010E949B18B40170
:10534000C10175D2A501B101C301E7D2C301C95999
:10535000DF4F0FB6F894DEBF0FBECDBFDF91CF9108
:105360001F910F91FF90EF90DF90CF90BF90AF9083
:105370009F908F907F906F905F904F903F902F9075
:105380000895CF93DF93CDB7DEB728970FB6F89483
:10539000DEBF0FBECDBF1D8220E42E8334E13F83EC
:1053A00034E5388719822A8320E12B8320E52C837A
:1053B000FC012781621710F06FEF620FFC0130854E
:1053C00070E0FE01E60FF71F303121F4243011F4B4
:1053D000618101C06581606828960FB6F894DEBFD0
:1053E0000FBECDBFDF91CF910C942D322F923F9203
:1053F0004F925F926F927F928F929F92AF92BF92E5
:10540000CF92DF92EF92FF920F931F93CF93DF9390
:1054100000D01F92CDB7DEB79C838B836B015A01FE
:1054200044244394512CE12CF12C05E010E096EF3C
:10543000692E77247A943CEF832E99249A94822FB4
:1054400084708983A22FA270AA83B22FB8702B2EEA
:105450002170322EFFEFEF1AFF0A82E0480E511C36
:10546000840C951CA981AA2321F1AB81BC81ED910B
:10547000FC9111970484F585E02D20EE37E0A5011D
:10548000400F511FB6016E0D7F1DCD011995AB81E7
:10549000BC81ED91FC9111970484F585E02D20EEFF
:1054A00037E0A5014E0D5F1DB601600F711FCD01E4
:1054B0001995BA81BB2321F1AB81BC81ED91FC919F
:1054C00011970484F585E02D20EE37E0A501401BFF
:1054D000510BB6016E0D7F1DCD011995AB81BC81BD
:1054E000ED91FC9111970484F585E02D20EE37E0D5
:1054F000A5014E195F09B601600F711FCD01199505
:10550000222021F1AB81BC81ED91FC9111970484A3
:10551000F585E02D20EE37E0A5014E0D5F1DB601AB
:10552000601B710BCD011995AB81BC81ED91FC9194
:1055300011970484F585E02D20EE37E0A501400F9A
:10554000511FB6016E197F09CD011995332021F144
:10555000AB81BC81ED91FC9111970484F585E02D20
:1055600020EE37E0A5014E195F09B601601B710BF3
:10557000CD011995AB81BC81ED91FC91119704840B
:10558000F585E02D20EE37E0A501401B510BB6015B
:105590006E197F09CD011995E016F10654F497FCB8
:1055A00059CF01501109E2E06E0E711C860C971C58
:1055B00051CF0F900F900F900F90DF91CF911F91CF
:1055C0000F91FF90EF90DF90CF90BF90AF909F90A2
:1055D0008F907F906F905F904F903F902F900895A5
:1055E0004F925F926F927F928F929F92AF92BF92F3
:1055F000CF92DF92EF92FF920F931F93CF93DF939F
:10560000EC016A017B012801390142305105610535
:10561000710510F480E073C089859A85AB85BC85DF
:105620000196A11DB11D84179507A607B70790F332
:105630008B889C88AD88BE888F89803129F4BB27F0
:10564000AF2D9E2D8D2D09C0DB01CA0147E0B69517
:10565000A795979587954A95D1F7880E991EAA1E0A
:10566000BB1E8091000290910102A0910202B091B4
:10567000030288169906AA06BB0679F48F89803141
:10568000A1F4DD24EE24FF24C601880F991FFC013C
:10569000EF59FB4F5182408219C040E0C501B4016F
:1056A0000E942B168111EACFB5CFE894C7F8DD240C
:1056B000EE24FF24C601880F991F880F991FFC0153
:1056C000EF59FB4F40825182628273828091920B2C
:1056D00081608093920B8A89823080F08D819E81D7
:1056E000AF81B885880E991EAA1EBB1E8092930BAF
:1056F0009092940BA092950BB092960B81E0DF9163
:10570000CF911F910F91FF90EF90DF90CF90BF90BE
:10571000AF909F908F907F906F905F904F90089583
:10572000DC015996ED91FC915A973097B9F0838935
:105730009489A589B6894285538564857585841BBE
:10574000950BA60BB70B811520E89207A105B105B3
:1057500038F08FEF9FE7A0E0B0E0089580E090E0A0
:105760000895CF93DF931F92CDB7DEB76983DC0135
:10577000ED91FC910280F381E02D41E050E0BE010B
:105780006F5F7F4F19950F90DF91CF9108958EBD78
:105790000DB407FEFDCF0895089580E090E00895D0
:1057A000FC01818D928D009711F00C945F18089583
:1057B000CF93DF93EC01898D9A8D009739F481E0C6
:1057C00090E09B838A8380E090E00BC0FC01138211
:1057D00012820E943019E98DFA8D22813381232BA8
:1057E00071F7DF91CF9108958EBD00000DB407FED3
:1057F000FDCF8EB508958FEFF7CF0F931F93CF9303
:10580000DF93EB010E943C138B01F5DF8F3F49F0E2
:105810000E943C13601B710B6C177D07B0F380E096
:1058200001C081E0DF91CF911F910F910895FC019C
:10583000DB0112968D919C911397938382838BEC5D
:1058400092E09183808314968C91149784831596AB
:105850008C911597858316964D915D916D917C91F4
:10586000199746835783608771871A964D915D918A
:105870006D917C911D9742875387648775871E962B
:105880004D915D916D917C91519746875787608BC3
:10589000718B52968C915297828B53964D915D915C
:1058A0006D917C915697438B548B658B768B579675
:1058B0004D915D916D917C915A97478B508F618F7F
:1058C000728F5B968D919C915C97948F838F0895D6
:1058D000CF93DF93EC01898D9A8D009741F00E9460
:1058E000CE1C898D9A8D0E9484481A8E198EDF9164
:1058F000CF910895FC011382128288EE93E0A0E01C
:10590000B0E084839583A683B78383EE92E091838E
:105910008083128E118E14860895EF92FF920F935A
:105920001F93CF93DF93EC017B018A011B821A82C4
:1059300088EE93E0A0E0B0E08C839D83AE83BF83CC
:1059400083EE92E0998388838DE190E00E94EF4797
:105950009A8F898F009779F02DE1F701DC01019092
:105960000D922A95E1F74CE050E0B801CE010C967B
:105970000E946A49188EDF91CF911F910F91FF907D
:10598000EF900895CF93DF931F92CDB7DEB741E03C
:1059900050E0BE016F5F7F4F0E94CC1B019719F44E
:1059A000898190E002C08FEF9FEF0F90DF91CF9140
:1059B0000895FC01818D928D009709F0E3CF8FEF60
:1059C0009FEF08950F931F93CF93DF93FC01818D79
:1059D000928D0097B1F0EF01D5DF8C010F3F8FEF73
:1059E000180791F0898D9A8DFC0142855385648555
:1059F000758541505109610971090E949B18C801C0
:105A000005C080E090E002C08FEF9FEFDF91CF9163
:105A10001F910F910895089561E0FC0184810E9417
:105A200068128091AA0B81111092AA0B0895CF934E
:105A3000DF93EC018E81882379F08F8198859C011A
:105A40002F5F3F4F38872F838230924010F4D3DE90
:105A5000F4CFCE01E1DF1E82DF91CF9108958CBD9E
:105A60009DBD0895CF93DF93EC018091AA0B811126
:105A700008C081E08093AA0B809168089091690822
:105A8000EEDF60E08C81DF91CF910C946812CF92B1
:105A9000DF92FF920F931F93CF93DF9300D01F925B
:105AA000CDB7DEB76C01F62E29833A834B835C8336
:105AB000BEDFC601D7DF6CE271E0C6019EDE8F2D2E
:105AC000806492DE08E110E05C814B813A8129819B
:105AD000DA01C901002E04C0B695A7959795879560
