:100000000C9467000C94B4060C948D060C948F002D
:100010000C948F000C948F000C94FB080C948F00B0
:100020000C948F000C948F000C948F000C948F0014
:100030000C948F000C948F000C948F000C948F0004
:100040000C9443060C948F000C948B050C9465055E
:100050000C948F000C948F000C948F000C948F00E4
:100060000C948F000C948F00C20DC20DC20D8D0D2B
:10007000E50DF30DC20DC20D8D0DE50D0000000064
:10008000250028002B0000000000240027002A0083
:10009000040404040404040402020202020203032E
:1000A0000303030301020408102040800102040836
:1000B00010200102040810200000000800020100C6
:1000C000000304070000000000000000140E1124CB
:1000D0001FBECFEFD8E0DEBFCDBF11E0A0E0B1E0A2
:1000E000E4EEF7E202C005900D92AC38B107D9F703
:1000F00022E0ACE8B1E001C01D92A63CB207E1F7F6
:1001000010E0C7E6D0E004C02197FE010E94A812CB
:10011000C636D107C9F70E9481110C94F0130C94D4
:100120000000E0919601F09197018081811103C058
:100130008FEF9FEF0CC0E0919601F0919701058041
:10014000F681E02D0680F781E02D828193819093E6
:100150009F0280939E02089580918E01882309F169
:100160000FB6F8940F92E091A601F091A701C68115
:10017000D781CE0102960E94FE088091DB0181505A
:100180008093DB0180918E01815080938E010F90CE
:100190000FBE8F89988D0E944A0CCE010E944A0C96
:1001A000DBCF8091B301823010F00E94C5090E941C
:1001B0002F05D2CF009769F0FC0101900020E9F7EC
:1001C0003197AF01481B590BBC018CED91E00C94A9
:1001D000330480E090E00895CF93DF930E94DA002B
:1001E000EC018CE191E00E94DA008C0F9D1FDF9101
:1001F000CF9108955F926F927F928F929F92AF926C
:10020000BF92CF92DF92EF92FF920F931F93CF9303
:10021000DF9300D000D0CDB7DEB7782E6B015A0146
:10022000490160E080917F020E94BD05872D0E94F8
:100230006802CE0101963C01E4E05E2E580E80E09B
:100240000E946802F30181933F015E12F8CF2C8176
:1002500023FB882780F9F40180833A814981832F29
:1002600090E075E0959587957A95E1F7F8E04F9FD6
:10027000800D911D1124092E000CAA0BBB0BF60159
:1002800080839183A283B38333FF38C080819181BF
:10029000A281B38142E0880F991FAA1FBB1F4A9514
:1002A000D1F73370830F911DA11DB11D8083918300
:1002B000A283B38380819181A281B381BA2FA92FB8
:1002C000982F88273B81830F911DA11DB11D80832D
:1002D0009183A283B38380819181A281B381BA2F5C
:1002E000A92F982F8827820F911DA11DB11D8083F2
:1002F0009183A283B38381E0F501808380E00E9433
:1003000068028F70F80180836701F12CF801808109
:10031000F81658F4F8E0FF1641F080E00E946802F9
:10032000F60181936F01F394F1CF61E080917F0238
:100330000F900F900F900F90DF91CF911F910F9121
:10034000FF90EF90DF90CF90BF90AF909F908F90F5
:100350007F906F905F900C94BD051F93CF93DF93B8
:10036000182F80E591E00E946F02C9E7D2E060E0BB
:100370008E810E94BD0583E00E946802812F0E9449
:10038000680280E00E946802182F61E08E810E945E
:10039000BD050E946702812FDF91CF911F910895C3
:1003A00090E0FC01EC55FF4F2491FC01E057FF4F1A
:1003B0008491882399F090E0880F991FFC01EA57F7
:1003C000FF4FA591B491FC01E458FF4F85919491A2
:1003D0008FB7F894EC91E22BEC938FBF0895EF92D6
:1003E000FF920F931F93CF93DF931F92CDB7DEB78A
:1003F000082F162F80E591E049830E946F0289E75C
:10040000E82E82E0F82E60E0F70186810E94BD05AB
:1004100085E00E946802802F0E946802812F0E945E
:1004200068024981842F0E94680261E0F701868199
:100430000E94BD050F90DF91CF911F910F91FF900A
:10044000EF900C946702CF93C82F482F60EE8FE097
:100450000E94EF018FE00E94AD01807E91E08C133D
:1004600001C090E0892FCF9108950F931F93CF93F0
:10047000DF93082F162F80E591E00E946F02C9E7F5
:10048000D2E060E08E810E94BD0582E00E94680299
:10049000802F0E946802812F0E94680261E08E8195
:1004A0000E94BD05DF91CF911F910F910C946702BF
:1004B0008DE20E94AD01887F19F481E090E002C0D6
:1004C0008FEF9FEF9093990280939802089508957B
:1004D0008EBD00000DB407FEFDCF8EB508958CBD16
:1004E0009DBD0895CF93DF93CDB7DEB7AA970FB622
:1004F000F894DEBF0FBECDBF88E08AA78AE0882EC1
:10050000912CA12CB12C6E0122E2C20ED11C809143
:10051000980290919902019709F08CC080E591E0D2
:100520000E946F0260E080917F020E94BD0580EA18
:100530000E94680280E00E946802182F61E08091AA
:100540007F020E94BD0513FD02C020E001C024E02F
:1005500015FF02C098E001C090E0812F881F882716
:10056000881F8295807F1370122B192B812B80FF9F
:100570000CC076018E01065D1F4F2EE732E049E781
:1005800052E06AE772E080E90DC081FF6CC076013D
:100590008E01065D1F4F2EE732E049E752E06AE721
:1005A00072E084E90E94FA008FE191E00E94DA0093
:1005B00020917A0230917B0240917C0250917D0221
:1005C00019A28E010F5D1F4FCA01B901A501940147
:1005D0000E948612605DF80162938F01211531053A
:1005E0004105510589F7CF010E94DA008CE191E0C5
:1005F0000E94DA0086018AA590E098012C193D0935
:100600002817390774F4F80161918F01E091DC013A
:10061000F091DD010190F081E02D8CED91E00995E4
:10062000EACF8CE191E00E94DA00109299021092D8
:1006300098026DCF8091980290919902019609F0ED
:1006400066CF8AE391E00E94EC000E94F50860E02A
:1006500082E390E00E94D50B0E94820A811157CF5D
:100660000E94C50954CF1AA69FCF0F931F93CF9313
:10067000E091EC01F091ED0182E08083E091E801EE
:10068000F091E9011082E091EA01F091EB018FEC29
:1006900080831092F401E091F001F091F10186E085
:1006A0008083E091EE01F091EF0180818061808391
:1006B000E091EE01F091EF01808188608083E0910C
:1006C000EE01F091EF01808180688083E091EE017E
:1006D000F091EF0180818F7D808368EE73E080E090
:1006E00090E00E940906CFB7F8948091970281119B
:1006F00024C0EAE9F0E08491EEEAF0E09491E82F7A
:10070000F0E0EE0FFF1FEA57FF4FA591B491EC9177
:10071000E92321F461E08AE00E94BD058AE00E949D
:10072000D0018CB580618CBD8CB580648CBD8DE0B2
:100730000E94D0018BE00E94D001809197028F5FD0
:1007400080939702CFBF80E591E00E946F0260E046
:1007500080917F020E94BD0580EC0E94680261E0EA
:1007600080917F020E94BD056AE070E080E090E029
:100770000E94090680E80E942302882349F06AE06B
:1007800070E080E090E00E9409068DE491E04DC0A9
:100790006AE070E080E090E00E94090660E08AE292
:1007A0000E94350260ED89E20E94350262E888E22B
:1007B0000E9435026AE070E080E090E00E94090645
:1007C000C0E360E08C2F0E94350260E080E18C0F76
:1007D0000E94350260E080E28C0F0E943502CF5FFC
:1007E000CE3379F760E080E60E94350260E080E772
:1007F0000E94350263E08BE20E94350244E064E629
:1008000080E60E94EF0140E060E680E70E94EF0191
:1008100080E00E9423028111B2CF6AE070E080E0A4
:1008200090E00E94090688E591E00E94EC0088E5CE
:1008300092E0909303018093020180916900837F8D
:10084000886080936900E99A00E010E021E040E9C7
:1008500051E066E771E082E792E00E94530ECF918B
:100860001F910F910895CF92DF92EF92FF920F9315
:100870001F93CF93DF936C017A018B01C0E0D0E02E
:10088000CE15DF0589F0D8016D918D01D601ED916E
:10089000FC910190F081E02DC6010995892B11F49E
:1008A0007E0102C02196ECCFC701DF91CF911F914D
:1008B0000F91FF90EF90DF90CF900895FC01538D42
:1008C000448D252F30E0842F90E0821B930B54172A
:1008D00010F0CF96089501970895FC01918D828DB7
:1008E000981761F0828DDF01A80FB11D5D968C9184
:1008F000928D9F5F9F73928F90E008958FEF9FEF8F
:100900000895FC01918D828D981731F0828DE80F4A
:10091000F11D858D90E008958FEF9FEF0895FC0104
:10092000918D228D892F90E0805C9F4F821B9109D1
:100930008F73992708958CED91E00E948F0421E038
:10094000892B09F420E0822F0895FC01848DDF01BA
:10095000A80FB11DA35ABF4F2C91848D90E0019632
:100960008F739927848FA689B7892C93A089B18921
:100970008C9180648C93938D848D981306C002882B
:10098000F389E02D80818F7D80830895EF92FF921F
:100990000F931F93CF93DF93EC0181E0888F9B8DA2
:1009A0008C8D981305C0E889F989808185FD24C064
:1009B000F62E0B8D10E00F5F1F4F0F731127E02EE7
:1009C0008C8DE8120CC00FB607FCFACFE889F989C4
:1009D000808185FFF5CFCE010E94A504F1CF8B8DDC
:1009E000FE01E80FF11DE35AFF4FF0820B8FEA89F9
:1009F000FB898081806207C0EE89FF896083E88976
:100A0000F98980818064808381E090E0DF91CF91DB
:100A10001F910F91FF90EF900895CF93DF93EC011A
:100A2000888D8823C9F0EA89FB89808185FD05C00E
:100A3000A889B9898C9186FD0FC00FB607FCF5CF48
:100A4000808185FFF2CFA889B9898C9185FFEDCF90
:100A5000CE010E94A504E7CFDF91CF91089580E0F9
:100A600090E0892B29F00E949B0481110C940000D6
:100A700008953FB7F8948091A8029091A902A0919F
:100A8000AA02B091AB0226B5A89B05C02F3F19F072
:100A90000196A11DB11D3FBFBA2FA92F982F8827FE
:100AA000820F911DA11DB11DBC01CD0142E0660F59
:100AB000771F881F991F4A95D1F7089508950895C3
:100AC00080E090E008950E94DB131F920F920FB612
:100AD0000F9211242F933F934F935F936F937F93C4
:100AE0008F939F93AF93BF93EF93FF938CED91E020
:100AF0000E94A504FF91EF91BF91AF919F918F91BB
:100B00007F916F915F914F913F912F910F900FBE09
:100B10000F901F9018951F920F920FB60F921124ED
:100B20002F938F939F93EF93FF93E091EC01F091BC
:100B3000ED018081E091F201F091F30182FD12C09C
:100B400090818091F5018F5F8F732091F60182175C
:100B500051F0E091F501F0E0E452FE4F958F809363
:100B6000F50101C08081FF91EF919F918F912F91AD
:100B70000F900FBE0F901F90189590E0FC01E85465
:100B8000FF4F3491FC01EC55FF4F2491FC01E057DD
:100B9000FF4FE491EE2309F43BC0332339F13330A6
:100BA00091F038F43130A9F0323001F584B58F7D01
:100BB00012C0373091F03830A1F03430B9F4809160
:100BC00080008F7D03C0809180008F7780938000AC
:100BD0000DC084B58F7784BD09C08091B0008F7738
:100BE00003C08091B0008F7D8093B000F0E0EE0FE5
:100BF000FF1FE458FF4FA591B4918FB7F894EC9183
:100C0000611103C020952E2301C02E2B2C938FBF82
:100C100008958F929F92AF92BF92CF92DF92EF9200
:100C2000FF926B017C010E9439054B015C01C114EC
:100C3000D104E104F104F1F00E943905DC01CB019B
:100C400088199909AA09BB09883E9340A105B105F5
:100C500070F321E0C21AD108E108F10888EE880E8D
:100C600083E0981EA11CB11CC114D104E104F1045D
:100C700019F7DDCFFF90EF90DF90CF90BF90AF904E
:100C80009F908F9008951F920F920FB60F9211248C
:100C90002F933F938F939F93AF93BF938091A40221
:100CA0009091A502A091A602B091A7023091A30253
:100CB00023E0230F2D3720F40196A11DB11D05C09F
:100CC00026E8230F0296A11DB11D2093A302809355
:100CD000A4029093A502A093A602B093A7028091CC
:100CE000A8029091A902A091AA02B091AB0201962C
:100CF000A11DB11D8093A8029093A902A093AA02FE
:100D0000B093AB02BF91AF919F918F913F912F9183
:100D10000F900FBE0F901F9018951F920F920FB655
:100D20000F9211242F933F934F935F936F937F9371
:100D30008F939F93AF93BF93EF93FF93E091020143
:100D4000F09103010995FF91EF91BF91AF919F91B0
:100D50008F917F916F915F914F913F912F910F9064
:100D60000FBE0F901F9018951F920F920FB60F9203
:100D700011242F933F934F935F936F937F938F93A0
:100D80009F93AF93BF93EF93FF93E0910001F09196
:100D900001010995FF91EF91BF91AF919F918F91C3
:100DA0007F916F915F914F913F912F910F900FBE67
:100DB0000F901F901895259A2D9A2FEF80E792E0BB
:100DC000215080409040E1F700C000001D9AF5CF0F
:100DD0000FB6F8940F9280919101909192010F902B
:100DE0000FBE08950FB6F8940F92FC01928D0F90EC
:100DF0000FBE81E0911180E008950F920FB6F89434
:100E00000F921F9211242F923F924F925F926F92F6
:100E10007F928F929F92AF92BF92CF92DF92EF928A
:100E2000FF920F931F932F933F934F935F936F9373
:100E30007F938F939F93AF93BF93CF93DF93EF9362
:100E4000FF93A091D901B091DA010DB60D920EB6C3
:100E50000D9213BE8091A0028111F3C08091910187
:100E60009091920101969093920180939101009745
:100E700099F52091960130919701409194015091FC
:100E800095015093970140939601309395012093DB
:100E90009401209193012F5F20939301E09196019B
:100EA000F09197012081211107C02FEF3FEF309380
:100EB0009F0220939E0210C0E0919601F09197014D
:100EC0000580F681E02D0680F781E02D22813381B7
:100ED00030939F0220939E0220919E0230919F02A8
:100EE0008217930710F420E09CC020E019E0E09105
:100EF0009601F09197013081311107C08FEF9FEF7C
:100F000090939F0280939E028CC0E0919601F09195
:100F100097010580F681E02D0680F781E02D428162
:100F200053818417950728F450939F0240939E02A3
:100F300078C0AF014E5F5F4FA285B3856481758134
:100F4000E680F780EB01FD82EC82C681D7817B834E
:100F50006A8311966D917C9112976417750721F43D
:100F60001296DC93CE931197138612863C913150E2
:100F70003C933C91A489B5891097F9F066857785F3
:100F8000E088F188EB01FD82EC82C089D1897B8306
:100F90006A831196ED90FC901297BF01645F7F4FBA
:100FA000E616F70621F41296DC93CE931197158A74
:100FB000148A3C9131503C933C91A6893091D701E1
:100FC0003A1710F4A093D7011A9FD0011124BD0144
:100FD0006D547E4F7B01DB011196CD91DC91129710
:100FE000D583C4836C817D81778366836C817D81A9
:100FF000DB0113965C934E9312975D834C83F386CB
:10100000E286E70138813F5F3883A091D901B09132
:10101000DA01468956963C91431708F468CF21E0DF
:1010200066CFE091D901F091DA01E689D9E0ED9F30
:10103000F0011124ED54FE4F8081823040F021E018
:1010400006C080918C018F5F80938C0120E080919D
:101050008D01811103C0222309F466C08091A00292
:10106000882321F081E080938D015EC010928D0174
:10107000A091D901B091DA01E091D901F091DA01A2
:101080002D913C918789908D82179307A8F08091CC
:10109000D9019091DA018091D9019091DA01259AD4
:1010A0002D9A2FEF67EA71E6215060407040E1F71A
:1010B00000C000001D9AF5CF8091D70169E001C002
:1010C0008150482F50E0649F9001659F300D11249E
:1010D000F901ED54FE4F9081992391F3A181B281E2
:1010E00012960D90BC91A02DB283A1832A543E4F3D
:1010F000A217B30731F412962D913C9113973283C6
:10110000218399E0949FF001959FF00D1124ED54F7
:10111000FE4F0180F281E02D268137813093DA0184
:101120002093D9018093D701A091D901B091DA0120
:10113000CD91CDBFDD91DEBFFF91EF91DF91CF91DA
:10114000BF91AF919F918F917F916F915F914F91DF
:101150003F912F911F910F91FF90EF90DF90CF90D3
:10116000BF90AF909F908F907F906F905F904F90C7
:101170003F902F901F900F900FBE0F900895FC018D
:10118000DB010FB6F8940F924091910150919201BA
:10119000818192812D913C9111972F3F6FEF3607FE
:1011A000F1F0709193016081761719F04817590793
:1011B000C0F4481B590B4217530770F4241B350B1E
:1011C0002D933C9380919301808380919101909124
:1011D00092019283818303C01D921C9202C080E021
:1011E00001C081E00F900FBE08958091A0028F5F33
:1011F0008093A00208950E94FD061895CF93DF9377
:10120000FC01A085B1858281938124813581EC0127
:101210003D832C83C481D5819B838A8311968D91D4
:101220009C9112978E179F0721F41296DC93CE9310
:101230001197118610868C9181508C938C91DF913F
:10124000CF910895CF93DF939C01FB01DC011196B0
:10125000CD91DC911297D383C2838C819D8195833C
:1012600084838C819D81DC0113967C936E9312970D
:101270007D836C8331872087F90180818F5F808334
:10128000DF91CF9108950F931F93CF93DF93DC01EC
:101290001596ED91FC911697C681D7818E01045F5A
:1012A0001F4FC8010E94FE088091A002811114C046
:1012B0000A501109C8010E94FE089E898091D70139
:1012C000891710F49093D701B9E09B9FC0011124B6
:1012D000B8018D549E4F03C0B8018AEA91E00E9484
:1012E0002209E091D901F091DA019E898689891756
:1012F00020F481E080938D0101C080E0DF91CF91E7
:101300001F910F910895EF92FF920F931F93CF9328
:10131000DF93EC010FB6F8940F921E8D7C0181E1F2
:10132000E80EF11C01E011165CF48989882341F074
:10133000C7010E944309811100938D011150F3CF21
:101340008FEF8E8F0F900FBE0FB6F8940F921D8DFA
:101350007E0188E0E80EF11C01E011165CF488853E
:10136000882341F0C7010E944309811100938D0138
:101370001150F3CF8FEF8D8F0F900FBEDF91CF9174
:101380001F910F91FF90EF9008950F920FB6F89470
:101390000F921F9211242F923F924F925F926F9261
:1013A0007F928F929F92AF92BF92CF92DF92EF92F5
:1013B000FF920F931F932F933F934F935F936F93DE
:1013C0007F938F939F93AF93BF93CF93DF93EF93CD
:1013D000FF93A091D901B091DA010DB60D920EB62E
:1013E0000D928091A002882321F081E080938D01ED
:1013F0005EC010928D01A091D901B091DA01E09107
:10140000D901F091DA012D913C918789908D821755
:101410009307A8F08091D9019091DA018091D901C8
:101420009091DA01259A2D9A2FEF87EA91E62150C3
:1014300080409040E1F700C000001D9AF5CF8091F8
:10144000D70169E001C08150482F50E0649F9001AE
:10145000659F300D1124F901ED54FE4F90819923C1
:1014600091F3A181B28112960D90BC91A02DB2830F
:10147000A1832A543E4FA217B30731F412962D913F
:101480003C9113973283218399E0949FF001959FBB
:10149000F00D1124ED54FE4F0180F281E02D2681E4
:1014A00037813093DA012093D9018093D701A0913D
:1014B000D901B091DA01CD91CDBFDD91DEBFFF91B1
:1014C000EF91DF91CF91BF91AF919F918F917F91DC
:1014D0006F915F914F913F912F911F910F91FF90CD
:1014E000EF90DF90CF90BF90AF909F908F907F90C4
:1014F0006F905F904F903F902F901F900F900FBE76
:101500000F9008958F929F92AF92BF92CF92DF92E9
:10151000EF92FF920F931F93CF93DF930FB6F89440
:101520000F928091A00281508093A0028091A0022E
:10153000882311F080E0F2C08091DB018823D1F391
:10154000C0E0D0E029E0F22EEE24E3948091AA01DD
:10155000882351F1E091AF01F091B001C681D781AC
:10156000CE010C960E94FE088E010E5F1F4FC8012F
:101570000E94FE089E898091D701891710F49093EC
:10158000D701F99EC0011124B8018D549E4F0E94CD
:101590002209E091D901F091DA019E898689981794
:1015A000A8F2E0928D01D2CFCD2B11F00E949100D4
:1015B000E0908C01EE2009F4A9C089E0B82EAA249D
:1015C000A394CC24CA94DC2C8091A00281118CC0FD
:1015D000C0919101D09192012196D0939201C09334
:1015E00091012097B9F480919601909197012091F3
:1015F0009401309195013093970120939601909337
:10160000950180939401809193018F5F8093930162
:101610000E94910080919E0290919F02F12CC81728
:10162000D90708F451C0E0919601F09197018081AB
:10163000811105C0D0929F02C0929E0245C0E091E8
:101640009601F09197010580F681E02D06811781C2
:10165000D80112968D919C911397C817D90728F439
:1016600090939F0280939E022FC04801B2E08B0EA0
:10167000911CC4010E94FE08F80184899589892B78
:1016800021F0C8010C960E94FE08D80156968C9154
:101690009091D701981710F48093D701B89EC0019C
:1016A0001124B4018D549E4F0E942209E091D9016A
:1016B000F091DA01D80156969C918689981708F422
:1016C000B2CFFF24F394AFCFE091D901F091DA01CA
:1016D000E689BE9EF0011124ED54FE4F80818230D8
:1016E00048F0FF24F39406C080918C018F5F8093B3
:1016F0008C01F12C80918D01811101C0F110A0921B
:101700008D01EA94E11060CF10928C0180918D01DF
:10171000882309F40FCF0E94C50981E00F900FBE06
:10172000DF91CF911F910F91FF90EF90DF90CF90BD
:10173000BF90AF909F908F9008950F931F93CF937A
:10174000DF938C01FB01808191818F3F2FEF920706
:1017500021F4E801AF81B8850EC0D8011396129626
:101760002D913C911397E901488159818417950780
:1017700010F0D901F4CF12968D919C911397938319
:101780008283EC01FD83EC83B583A4831396FC93E1
:10179000EE93129711870087F80180818F5F808315
:1017A000DF91CF911F910F910895EF92FF920F93C8
:1017B0001F93CF93DF931F92CDB7DEB77C010091CB
:1017C0009101109192018091D9019091DA010296D4
:1017D00069830E94FE0869818FEFE816F80699F484
:1017E000662389F06091D9017091DA016E5F7F4FB5
:1017F00088E991E00F90DF91CF911F910F91FF90B9
:10180000EF900C942209E00EF11EE091D901F091C5
:10181000DA01F382E2826091D9017091DA01E01677
:10182000F10678F480919401909195016E5F7F4F5D
:101830000F90DF91CF911F910F91FF90EF900C943B
:101840009D0B80919601909197016E5F7F4F0E9452
:101850009D0B80919E0290919F02E816F90620F45C
:10186000F0929F02E0929E020F90DF91CF911F9124
:101870000F91FF90EF900895FC010396928381836E
:101880002FEF3FEF3483238396838583908787836D
:1018900010820895CF93DF93009751F0EC010E94DE
:1018A000F508CE010E944313DF91CF910C94820A78
:1018B000DF91CF910895CF93DF93CDB7DEB72C970B
:1018C0000FB6F894DEBF0FBECDBFE0919C02F09141
:1018D0009D028081FF24F394882339F0F12C058048
:1018E000F681E02D0081118102C000E010E00E942D
:1018F000F5080E94E8066C0180918F01909190019B
:10190000C816D90620F40E940A1181E001C080E0C7
:10191000D0929001C0928F01811175C0F11031C039
:10192000C016D106B0F10E94820AE0919C02F091AB
:101930009D020580F681E02DE680F780C7010296C2
:101940000E94FE08D7011E968C911E97813089F463
:101950001C966D917C911D97600F711F9801A601D7
:10196000C7010E945711882321F0B801C7010E94C6
:10197000E110D7015196ED91FC915297C70109955D
:10198000CCC0E0919A02F0919B028081BB24B39479
:101990008111B12CE090A102F090A2020FB6F89450
:1019A0000F92F701858D8F3F09F4158ED7015E9652
:1019B0008C915E978F3F11F45E961C920F900FBE34
:1019C000F701828D811115C06091D9017091DA0102
:1019D000645F7F4FC70141960E942209B11004C085
:1019E000C8018C199D0902C08FEF9FEF6B2D0E94DB
:1019F000D50BC7010E9483090E94820A81118DC004
:101A00000E94C5098AC00E94820A87C0911109C03C
:101A1000809193018E83809191019091920198879A
:101A20008F830F900FBE0E94F5080FB6F8940F92A7
:101A3000D8015D968C915D978F3F11F45D961C9255
:101A4000F801868D8F3F09F4168E0F900FBEBE01F0
:101A5000675F7F4FCE0106960E94BF088111D8C0F4
:101A6000C8010E94F206882309F4CCC0E984FA84F4
:101A70006091D9017091DA01645F7F4FC6010E94C5
:101A80009D0B61E0C7010E94D50BC8010E9483092C
:101A90000E94820A882309F4B2C091E00FB6F8943C
:101AA0000F92F801F28CFF2009F4A1C0448D41117E
:101AB00040C0FA94F801F28E8085811154C00F90D5
:101AC0000FBEC980C7FC29C00C811D81D8011A96A0
:101AD0008D919C911B97892B21F0C80102960E9441
:101AE000FE080E94E806AC0180918F019091900160
:101AF0004817590730F44B875C870E940A115C85B0
:101B00004B855093900140938F018C2DCC0C990BF9
:101B1000AA0BBB0B8A30910580F10091A1021091B4
:101B2000A2021A86198690E06801B1E1CB0ED11CA1
:101B3000B5CF50E086819781840F951F9783868368
:101B4000228133818217930720F0808191819783CE
:101B50008683D80116966D917C911797CE010196D8
:101B60000E94E013A6CFC80108960E94430988236B
:101B700009F4A5CF0E94C509A2CFFC01EC5CFF4F80
:101B80000C94A812EA80FB80F801648575856E0DBF
:101B90007F1D9701C8010E945711882309F4BDCF0A
:101BA000D8015196ED91FC915297C8010995F80121
:101BB0008685813009F0B1CF84859585B701680F9E
:101BC000791FC8010E94E110A8CF6A817B81D801EA
:101BD0001D967C936E931C97640F751F9A01C80124
:101BE0000E9457119ACFC8010E944A0C96CF2985AE
:101BF0003A85232B09F00ACF0F900FBE66CE0E94C4
:101C0000C5094BCFC8010E9483090E94820A45CFB3
:101C1000C8010E9483090E94820AC8010E94F2063C
:101C2000882309F43ACF51CECF93DF93ECEDF1E066
:101C30001382128288EE93E0A0E0B0E08483958363
:101C4000A683B7838EE091E09183808385EC90E05A
:101C50009587848784EC90E09787868780EC90E076
:101C6000918B808B81EC90E0938B828B82EC90E067
:101C7000958B848B86EC90E0978B868B118E128EE1
:101C8000138E148EC9E7D2E0198686E992E0988710
:101C90008F8384E08E830E94D00161E08E81DF918A
:101CA000CF910C94BD057F928F929F92AF92BF927D
:101CB000CF92DF92EF92FF920F931F93CF93DF9318
:101CC000982EC92E762E872EEA01D22ECA010E94A6
:101CD000C2105C01892B09F448C188E290E00E949F
:101CE000C2107C010097D9F0DC015896BC92AE92EC
:101CF0005797AE0165EA70E0C5010E94E91321978C
:101D0000D7015796ED91FC915897EC0FFD1FB70145
:101D1000675E7F4FA72DB82DCD01089607C0C5017E
:101D20000E944A0C22C1A817B90749F09D014D91A4
:101D3000EB014993BE01E90128812111F4CFD701BC
:101D400090961C922D2D243008F023E0E7012E8B75
:101D500029A31AA21B861A861D8A1C8AF986E88680
:101D600084E090E0821B91099D878C87FB8AEA8A38
:101D70001BA21CA21DA21EA21FA291E19083DF0143
:101D8000119782E28C93119723E32C9311979C92E5
:101D90001197CC9211971C92119720E82C931197D0
:101DA0001C92119722E02C93119723E02C9311970A
:101DB00024E02C93119725E02C93119726E02C9387
:101DC000119727E02C93119728E02C93119729E085
:101DD0002C93119720E12C9311979C93119792E1EA
:101DE0009C93119793E19C93119794E19C93119785
:101DF00095E19C93119796E19C93119797E19C93A1
:101E0000119798E19C93119799E19C93119790E217
:101E10009C93119791E29C9311978C93119783E275
:101E20008C9311971C9211971C92119786E28C93B8
:101E3000119787E28C93119788E28C93119789E22E
:101E40008C93119780E38C93119781E38C93B697D1
:101E5000F983E8830115110519F0F801F182E08298
:101E60000FB6F8940F928091DB018F5F8093DB01B6
:101E70008091D9019091DA01892BD1F5F092DA01A4
:101E8000E092D9018091DB01813009F043C083EBFE
:101E900091E00E943C0C8CEB91E00E943C0C85ECA4
:101EA00091E00E943C0C8EEC91E00E943C0C8CE88E
:101EB00092E00E943C0C83E892E00E943C0C8AEA8B
:101EC00091E00E943C0C81EA91E00E943C0C88E980
:101ED00091E00E943C0C8CE892E0909397018093F3
:101EE000960183E892E0909395018093940112C04B
:101EF0008091D80181110EC0E091D901F091DA01F1
:101F00009689D70156968C91891720F0F092DA01C4
:101F1000E092D901809195028F5F80939502E7014D
:101F20008E899091D701981710F48093D701D9E04A
:101F30008D9FC0011124B7016E5F7F4F8D549E4F5E
:101F40000E9422090F900FBE8091D801882359F07A
:101F5000E091D901F091DA019689F7018689981705
:101F600010F40E94C50981E001C08FEFDF91CF918D
:101F70001F910F91FF90EF90DF90CF90BF90AF90A7
:101F80009F908F907F900895AF92BF92CF92DF92F3
:101F9000EF92FF920F931F93CF93DF9300D000D067
:101FA0001F92CDB7DEB78C017B011D821C8290E0B1
:101FB000580188E0A80EB11C0FB6F8940F92F801F2
:101FC000228D838D281708F06DC0D28C448D41116D
:101FD0003FC080819181892B09F052C0F801E280D5
:101FE000F380E114F10411F480E02EC0F70182A126
:101FF000815082A3268991A12917B1F38111F4CFD1
:102000005701F2E0AF0EB11CC5010E94FE08F701B6
:1020100091A1968B492F50E024E030E0241B350B32
:10202000358724878091D701891710F49093D701C1
:1020300029E0249FC001259F900D1124B5018D54E6
:102040009E4F0E94220981E0F8011382128219C07A
:1020500050E0B701F801848195810E94E013F801F6
:10206000248D84819581820F911D958384832281A3
:1020700033818217930720F0808191819583848337
:1020800080E0D394F801D28E9189992321F0C80180
:1020900041960E94430981110E94C5090F900FBE0D
:1020A00081E060C02C813D81232B19F40F900FBE7D
:1020B00058C0911109C08091930189838091910149
:1020C000909192019B838A830F900FBE0E94F50826
:1020D0000FB6F8940F92F801858D8F3F09F4158E95
:1020E000F801868D8F3F09F4168E0F900FBEBE014A
:1020F0006C5F7F4FCE0101960E94BF0881112CC0FA
:102100000FB6F8940F92F801928D838D0F900FBE49
:1021100098131CC0CC80DD802091D9013091DA0168
:10212000B901645F7F4FC5010E949D0B61E0C6014C
:102130000E94D50BC8010E9483090E94820A88234D
:1021400011F091E039CF0E94C509FBCFC8010E9470
:1021500083090E94820AF5CFC8010E9483090E9468
:10216000820A80E00F900F900F900F900F90DF91F8
:10217000CF911F910F91FF90EF90DF90CF90BF9084
:10218000AF9008950F931F93CF93DF9300D0CDB7F7
:10219000DEB789839A830E94F50889819A810E941B
:1021A000AE128C010E94820A0115110511F40E94E1
:1021B000DB06C8010F900F90DF91CF911F910F9117
:1021C0000895CF93DF9300D000D01F92CDB7DEB734
:1021D0009C018091A1029091A202009761F0198266
:1021E0007B836A833D832C832091D801222329F0AD
:1021F0002091A00202C080E005C0BE016F5F7F4F4A
:102200000E94C40F0F900F900F900F900F90DF91CE
:10221000CF910895EF92FF920F931F93CF93DF9387
:10222000E0919C02F0919D028081882369F10580F4
:10223000F681E02D00811181C681D7817E0182E087
:10224000E80EF11CC7010E94FE08E989FA89CE0157
:1022500009958E85813021F72C853D85200F311F12
:102260000217130760F43B832A83D987C887B70115
:1022700080919C0290919D020E949D0BD1CFB8014C
:10228000CE010E94E110CCCF80919A0290919B02E6
:1022900090939D0280939C02F0939B02E0939A029C
:1022A000DF91CF911F910F91FF90EF900895FC0166
:1022B00073836283918780874617570778F0421BA4
:1022C000530B8485958548175907C8F4BF016E5F85
:1022D0007F4F80919A0290919B020DC04217530745
:1022E00018F46217730758F4BF016E5F7F4F809137
:1022F0009C0290919D020E949D0B80E0089581E0D8
:102300000895789484B5826084BD84B5816084BD6D
:1023100085B5826085BD85B5816085BD80916E0083
:10232000816080936E0010928100809181008260B4
:1023300080938100809181008160809381008091F1
:1023400080008160809380008091B10084608093E0
:10235000B1008091B00081608093B00080917A00DC
:10236000846080937A0080917A00826080937A0002
:1023700080917A00816080937A0080917A008068F1
:1023800080937A001092C1000E94350300EC12E0A5
:1023900020E040EC50E06EE771E08CEA90E00E94B3
:1023A000530E813009F0B0C00FB6F8940F928091AF
:1023B000A1029091A202892B09F04BC085EB92E01B
:1023C0000E943C0C8CEA92E00E943C0C85EB92E06F
:1023D00090939D0280939C028CEA92E090939B02E2
:1023E00080939A0281E590E00E94C210EC01009770
:1023F00061F14F96998388838AE08B8F85E08C8F7B
:102400000FB6F8940F92288139819B8D4C8D949F43
:10241000C0011124B901680F791F7B836A831A8E6A
:102420003D832C83841B9109820F931F9F838E838E
:102430008FEF8D8F8E8FCE0108960E943C0CCE01BF
:1024400041960E943C0C0F900FBED093A202C09305
:10245000A1020F900FBE8091A1029091A202892B40
:1024600009F452C00EEB12E023E045E550E063E8CA
:1024700071E08BE59CE00E94530E813009F044C06E
:10248000F8942FEF3FEF30939F0220939E028093AA
:10249000D8011092920110929101A89520EC88E148
:1024A00090E00FB6F894A895809360000FBE20933B
:1024B0006000A091D901B091DA01CD91CDBFDD913D
:1024C000DEBFFF91EF91DF91CF91BF91AF919F91CF
:1024D0008F917F916F915F914F913F912F911F91BC
:1024E0000F91FF90EF90DF90CF90BF90AF909F90B3
:1024F0008F907F906F905F904F903F902F901F90A4
:102500000F900FBE0F9008950E94DB06A1E21A2ED5
:10251000AA1BBB1BFD010DC0AA1FBB1FEE1FFF1F87
:10252000A217B307E407F50720F0A21BB30BE40BD7
:10253000F50B661F771F881F991F1A9469F760951E
:102540007095809590959B01AC01BD01CF010895D8
:10255000EE0FFF1F0590F491E02D0994CF93DF93C8
:102560008230910510F482E090E0E091C402F09195
:10257000C50220E030E0C0E0D0E0309711F14081AA
:10258000518148175907C0F04817590761F48281F3
:102590009381209719F09B838A832BC09093C50267
:1025A0008093C40226C02115310519F04217530744
:1025B00018F49A01BE01DF01EF010280F381E02DE2
:1025C000DCCF2115310509F1281B390B24303105E9
:1025D00090F412968D919C9113976115710521F0DD
:1025E000FB019383828304C09093C5028093C4024D
:1025F000FD01329644C0FD01E20FF31F81939193D8
:10260000225031092D933C933AC02091C20230915F
:10261000C302232B41F4209106013091070130932E
:10262000C3022093C20220910401309105012115BB
:10263000310541F42DB73EB7409108015091090191
:10264000241B350BE091C202F091C302E217F3079D
:10265000A0F42E1B3F0B2817390778F0AC014E5F12
:102660005F4F2417350748F04E0F5F1F5093C3028A
:102670004093C2028193919302C0E0E0F0E0CF0169
:10268000DF91CF9108950F931F93CF93DF9300971E
:1026900009F48CC0FC013297138212820091C402AB
:1026A0001091C5020115110581F420813181820F3D
:1026B000931F2091C2023091C3022817390779F580
:1026C000F093C302E093C20271C0D80140E050E031
:1026D000AE17BF0750F412962D913C911397AD01A0
:1026E0002115310509F1D901F3CF9D01DA013383B9
:1026F000228360817181860F971F8217930769F487
:10270000EC0128813981260F371F2E5F3F4F31831F
:1027100020838A819B8193838283452B29F4F093C4
:10272000C502E093C40242C01396FC93EE93129745
:10273000ED01499159919E01240F351FE217F307CE
:1027400071F480819181840F951F029611969C935C
:102750008E938281938113969C938E931297E0E0DF
:10276000F0E0D80112968D919C911397009719F083
:10277000F8018C01F6CF8D919C9198012E5F3F4F0F
:10278000820F931F2091C2023091C302281739078C
:1027900069F4309729F41092C5021092C40202C065
:1027A000138212821093C3020093C202DF91CF9171
:1027B0001F910F91089581E090E0F8940C94F0132C
:1027C000FB01DC0102C001900D9241505040D8F74E
:1027D0000895DC0101C06D9341505040E0F7089529
:0427E000F894FFCF9B
:1027E4005E055E050000C602800000000000C6040D
:1027F40033045E040D058F046D0481040D0A005238
:102804006563656976656420646174612066726FCE
:102814006D20736F75726365200043414E207265AD
:102824006365697665206572726F722E0043414E4E
:10283400206572726F722E0043414E20726563658B
:102844006976657220554E4F20696E697469616CB2
:10285400697A65642E00456E717565756500494435
:0C2864004C4500546D7220537663000058
:107E0000112484B714BE81FFF0D085E080938100F7
:107E100082E08093C00088E18093C10086E0809377
:107E2000C20080E18093C4008EE0C9D0259A86E02C
:107E300020E33CEF91E0309385002093840096BBD3
:107E4000B09BFECF1D9AA8958150A9F7CC24DD24C4
:107E500088248394B5E0AB2EA1E19A2EF3E0BF2EE7
:107E6000A2D0813461F49FD0082FAFD0023811F036
:107E7000013811F484E001C083E08DD089C08234E0
:107E800011F484E103C0853419F485E0A6D080C0E4
:107E9000853579F488D0E82EFF2485D0082F10E0AE
:107EA000102F00270E291F29000F111F8ED06801E7
:107EB0006FC0863521F484E090D080E0DECF843638
:107EC00009F040C070D06FD0082F6DD080E0C81688
:107ED00080E7D80618F4F601B7BEE895C0E0D1E017
:107EE00062D089930C17E1F7F0E0CF16F0E7DF06D8
:107EF00018F0F601B7BEE89568D007B600FCFDCFD4
:107F0000A601A0E0B1E02C9130E011968C91119780
:107F100090E0982F8827822B932B1296FA010C0160
:107F200087BEE89511244E5F5F4FF1E0A038BF0790
:107F300051F7F601A7BEE89507B600FCFDCF97BE46
:107F4000E89526C08437B1F42ED02DD0F82E2BD052
:107F50003CD0F601EF2C8F010F5F1F4F84911BD097
:107F6000EA94F801C1F70894C11CD11CFA94CF0C13
:107F7000D11C0EC0853739F428D08EE10CD085E9AC
:107F80000AD08FE07ACF813511F488E018D01DD067
:107F900080E101D065CF982F8091C00085FFFCCF94
:107FA0009093C60008958091C00087FFFCCF809118
:107FB000C00084FD01C0A8958091C6000895E0E648
:107FC000F0E098E1908380830895EDDF803219F02E
:107FD00088E0F5DFFFCF84E1DECF1F93182FE3DFCA
:107FE0001150E9F7F2DF1F91089580E0E8DFEE27F6
:047FF000FF270994CA
:027FFE00040479
:0400000300007E007B
:00000001FF