:100000003FC100000C9496080C946B080C944008B7
:100010000C941508DFC70000B2C7000085C70000B8
:1000200058C700005EC100005CC100005AC100005A
:100030000C94F61356C1000054C1000052C10000D8
:1000400050C100004EC100004CC100004AC1000078
:1000500048C1000046C1000044C10000F0C60000D5
:1000600040C10000F5C50000CAC500003AC100004B
:1000700038C1000036C1000034C1000032C10000A8
:1000800030C100002EC100002CC100002AC10000B8
:1000900028C1000026C1000024C1000022C10000C8
:1000A00020C100001EC100001CC100001AC10000D8
:1000B00018C1000016C1000014C1000012C10000E8
:1000C00010C100000EC100000CC100000AC10000F8
:1000D00008C1000006C1000004C1000002C1000008
:1000E00000C10000AF0CAF0CAF0C7A0CD00CDD0CD3
:1000F000AF0CAF0C7A0CD00C8D0690067F068306F1
:100100008706C706940698069E06A206A606AC06B3
:10011000B006B406C706BA06BE06C20600000A0B41
:1001200002090C0D0E080703040100000000000086
:1001300000000000000000000000000000000000BF
:10014000000000000000000012111000000000007C
:10015000000000000000000000000000000000009F
:10016000000000002200250028002B002E00310096
:10017000340002010000050108010B01000021000C
:10018000240027002A002D00300033000101000068
:10019000040107010A010505050507050808080807
:1001A000020202020A0A080804040404010101010F
:1001B000010101010303030303030303040707070A
:1001C0000C0C0C0C0C0C0C0C0202020206060606AF
:1001D000060606060B0B0B0B0B0B0B0B010210207C
:1001E000200808102040102040800201020108046D
:1001F0000201010204081020408080402010080401
:100200000201800402018040201008040201080459
:10021000020101020408102040800102040810209D
:10022000408080919804882309F10FB6F8940F92CA
:10023000E0911D03F0911E03C681D781CE01029685
:100240000E942A0A80915203815080935203809128
:1002500098048150809398040F900FBE8F89988DD9
:100260000E94B50ACE010E94B50ADBCF80912A0315
:10027000823010F00E94F8135ED14ED4D2CFA41079
:1002800011241FBECFEFD1E2DEBFCDBF00E00CBF17
:1002900024E0A4EDB2E001C01D92AD39B207E1F750
:1002A00012E0A0E0B2E0E8E8FEE200E00BBF02C02E
:1002B00007900D92A43DB107D9F711E0C0E4D1E059
:1002C00000E006C021970109802FFE010E94F91568
:1002D000CF33D10780E00807A9F70E94F70C0C94F0
:1002E00042178ECE8DE25CD7887F19F481E080932F
:1002F000DD02089508958EBD00000DB407FEFDCF08
:100300008EB508958CBD9DBD0895CF93DF93CDB775
:10031000DEB766970FB6F894DEBF0FBECDBF88E09C
:10032000E5E6F2E0DE01119601900D928A95E1F783
:100330006E0129E0C20ED11C93E0292E312C4E0112
:1003400031E1830E911C24E0280D2D8B38E03C0D0B
:100350003E8B24E0422E512C612C712C83E2A82E7E
:10036000B12CFE013196D60181918D93EC15FD05DE
:10037000D9F74092790450927A0460927B0470928B
:100380007C041092780410927D04E12CF12C80E51D
:1003900091E0B8DF60E080917E0490D480EAABDF2A
:1003A00080E0A9DF182F61E080917E0487D4812F3F
:1003B0008475843571F190918104A101491B510923
:1003C000ECE1F2E09E2F2CE132E0921B292F30E08D
:1003D00024173507F4F4933010F4008101C00FEFB7
:1003E000082331960111EECF933028F4F901E75E2E
:1003F000FD4F108101C010E51F5F933028F4F90113
:10040000EA5EFD4F608101C060E040E08CE2E4D62E
:1004100002C010E002E03FEFE31AF30A023069F491
:1004200082E3E816F10409F483C0E114F10409F44D
:10043000AECFC5010197F1F7AACFE2E3EE16F104C2
:1004400009F476C0113431F0113531F0113331F047
:1004500000E005C002E403C004E401C000E4198A1E
:1004600080E88A8B1C8A1B8A80E591E04BDF60E084
:1004700080917E0423D4802F3EDF7401F7018191A7
:100480007F0139DF2D892E11F9CF88E034DF760125
:10049000F70181917F012FDF2E892E11F9CF61E0C5
:1004A00080917E040BD480E591E02CDF60E08091A8
:1004B0007E0404D4113451F0113521F0113321F4AC
:1004C00081E805C084E803C080E001C082E813DF52
:1004D00061E080917E04F2D3E12CF12C11503FEFCA
:1004E000E31AF30A812F5CD683FF0BC082E3E81680
:1004F000F104F1F0E114F10491F3C5010197F1F772
:10050000EECFE2E3EE16F10499F061E372E083E5E9
:1005100093E073D70E94A51360E089E090E00E9409
:10052000BE120E94BD1481111CCF0E94F81316CF79
:100530006CE472E0ECCFCF92DF92EF92FF9273D433
:10054000672B682B692B39F46ED4623071058105F5
:10055000910508F4F7C067D46093D9027093DA026A
:100560008093DB029093DC02C090D502D090D6023B
:10057000E090D702F090D8026C157D058E059F059E
:1005800040F46093D5027093D6028093D702909383
:10059000D802C090D502D090D602E090D702F09059
:1005A000D8029B01AC012C193D094E095F09690174
:1005B0007A013AEFC316D104E104F10408F4C2C091
:1005C0006093D5027093D6028093D7029093D8029D
:1005D00084EF91E0A0E0B0E080933E0490933F046C
:1005E000A0934004B093410410924204109243043B
:1005F000109244041092450480913604909137047F
:10060000A0913804B091390480933A0490933B044C
:10061000A0933C04B0933D0406D4609336047093D9
:1006200037048093380490933904FDD360933204E7
:10063000709333048093340490933504F4D36B01A6
:100640007C016DE672E08091720490917304C2D2D5
:100650002AE041E050E060E070E080917204909107
:10066000730483D664E772E08091720490917304FE
:10067000B1D22AE0B701A60180917204909173046F
:1006800074D666E772E08091720490917304A2D2EE
:100690008091360490913704A0913804B0913904C8
:1006A000B701A601481B590B6A0B7B0B2AE080910E
:1006B00072049091730459D666E772E080917204D7
:1006C0009091730487D24091360450913704609121
:1006D00038047091390480913A0490913B04A091C0
:1006E0003C04B0913D04481B590B6A0B7B0B2AE07C
:1006F000809172049091730438D668E772E080911B
:1007000072049091730466D28ED3AB01BC012AE0CF
:10071000809172049091730428D66AE772E0809108
:1007200072049091730469D665E070E080E090E017
:100730009ED579D360933604709337048093380440
:1007400090933904FF90EF90DF90CF9008950F932E
:100750001F93CF9310927404109275041092760434
:1007600010927704109232041092330410923404E1
:100770001092350468EB7BE080E090E078D583E56B
:1007800093E0909373048093720496D54CD3609356
:10079000320470933304809334049093350461E8F9
:1007A00072E0809172049091730414D26AE070E058
:1007B00080E090E05CD581E0809346047DD568EED2
:1007C00073E080E090E0F7D2CFB7F8948091D40244
:1007D000811120C0EBECF1E08491E1E1F2E0949131
:1007E000E82FF0E0EE0FFF1FE458FE4FA591B49103
:1007F000EC91E92319F461E085E360D285E318D533
:100800008CB580618CBD8CB580648CBD84E310D5C3
:1008100083E30ED58091D4028F5F8093D402CFBF43
:1008200080E591E06FDD60E080917E0447D280EC4E
:1008300062DD61E080917E0441D26AE070E080E098
:1008400090E0B9D280E860D5882359F06AE070E082
:1008500080E090E0B0D263E972E083E593E0CDD52B
:100860005DC06AE070E080E090E0A5D260E08AE2DE
:100870005BD560ED89E258D562E888E255D56AE03B
:1008800070E080E090E097D2C0E360E08C2F4CD520
:1008900060E080E18C0F48D560E080E28C0F44D5A9
:1008A000CF5FCE3391F760E080E63ED560E080E731
:1008B0003BD563E08BE238D544E064E680E68CD437
:1008C00040E060E680E788D480E01ED58111BECF8D
:1008D0006AE070E080E090E06ED261EA72E083E569
:1008E00093E08BD582E791E0909309028093080210
:1008F000809169008F7C806280936900EA9A00E0B1
:1009000010E021E040E951E06EEB72E085E891E013
:100910000E94140FCF911F910F910895FFCFCF9296
:10092000DF92EF92FF920F931F93CF93DF936C01AF
:100930007A018B01C0E0D0E0CE15DF0589F0D80147
:100940006D918D01D601ED91FC910190F081E02D2A
:10095000C6011995892B11F47E0102C02196ECCFB6
:10096000C701DF91CF911F910F91FF90EF90DF9022
:10097000CF900895089580E090E00895FC01538D94
:10098000448D252F30E0842F90E0821B930B541769
:1009900010F0CF96089501970895FC01918D828DF6
:1009A000981761F0828DDF01A80FB11D5D968C91C3
:1009B000928D9F5F9F77928F90E008958FEF9FEFCA
:1009C0000895FC01918D828D981731F0828DE80F8A
:1009D000F11D858D90E008958FEF9FEF0895FC0144
:1009E000918D228D892F90E080589F4F821B910915
:1009F0008F779927089583E593E0F1DF21E0892B34
:100A000009F420E0822F0895FC01848DDF01A80FF6
:100A1000B11DA356BF4F2C91848D90E001968F732A
:100A20009927848FA689B7892C93A089B1898C9145
:100A300080648C93938D848D981306C00288F3890B
:100A4000E02D80818F7D80830895EF92FF920F9338
:100A50001F93CF93DF93EC0181E0888F9B8D8C8D6A
:100A6000981305C0E889F989808185FD23C0F62E99
:100A70000B8D10E00F5F1F4F0F731127E02E8C8D31
:100A8000E8120BC00FB607FCFACFE889F98980811C
:100A900085FFF5CFCE01B8DFF2CF8B8DFE01E80FD9
:100AA000F11DE356FF4FF0820B8FEA89FB898081AD
:100AB000806207C0EE89FF896083E889F9898081B7
:100AC0008064808381E090E0DF91CF911F910F914E
:100AD000FF90EF900895CF93DF93EC01888D8823EA
:100AE000C1F0EA89FB89808185FD05C0A889B989A3
:100AF0008C9186FD0EC00FB607FCF5CF808185FF77
:100B0000F2CFA889B9898C9185FFEDCFCE017CDF2A
:100B1000E8CFDF91CF91089580E090E0892B19F024
:100B20006ADF811125C080E090E0892B41F080E0F0
:100B300090E0892B21F00E94000081111CC080E010
:100B400090E0892B41F080E090E0892B21F00E9419
:100B50000000811113C080E090E0892BA1F080E0BB
:100B600090E0892B81F00E94000081110AC0089555
:100B70000E940000D8CF0E940000E1CF0E94000038
:100B8000EACF0C94000008953FB7F8948091E702F3
:100B90009091E802A091E902B091EA0226B5A89BE3
:100BA00005C02F3F19F00196A11DB11D3FBFBA2FFF
:100BB000A92F982F8827820F911DA11DB11DBC015F
:100BC000CD0142E0660F771F881F991F4A95D1F724
:100BD000089508956115710579F0FB0101900020D9
:100BE000E9F73197AF01461B570BDC01ED91FC9102
:100BF0000280F381E02D199480E090E008951F9227
:100C00000F920FB60F9211240BB60F922F933F93B2
:100C10004F935F936F937F938F939F93AF93BF9304
:100C2000EF93FF9383E593E0EFDEFF91EF91BF91A8
:100C3000AF919F918F917F916F915F914F913F9174
:100C40002F910F900BBE0F900FBE0F901F90189515
:100C50001F920F920FB60F9211240BB60F922F9383
:100C60008F939F93EF93FF93E0916303F09164035D
:100C70008081E0916903F0916A0382FD12C0908146
:100C800080916C038F5F8F7720916D03821751F0F5
:100C9000E0916C03F0E0ED5AFC4F958F80936C036C
:100CA00001C08081FF91EF919F918F912F910F90C3
:100CB0000BBE0F900FBE0F901F901895362F90E02F
:100CC000FC01E45EFE4F4491FC01E452FE4F24918E
:100CD000FC01EA56FE4F9491992309F46BC044231A
:100CE00009F455C050E0FA013197E231F10508F0FE
:100CF0004EC08827E458FF4F8F4F0C94F915809110
:100D000080008F7707C0809180008F7D03C0809125
:100D10008000877F809380003AC084B58F7702C0BF
:100D200084B58F7D84BD33C08091B0008F7703C0C0
:100D30008091B0008F7D8093B00029C08091900099
:100D40008F7707C0809190008F7D03C080919000C5
:100D5000877F809390001BC08091A0008F7707C091
:100D60008091A0008F7D03C08091A000877F809339
:100D7000A0000DC0809120018F7707C080912001D5
:100D80008F7D03C080912001877F80932001E92F10
:100D9000F0E0EE0FFF1FEE59FE4FA591B4918FB713
:100DA000F894EC91311103C020952E2301C02E2B15
:100DB0002C938FBF08958F929F92AF92BF92CF9244
:100DC000DF92EF92FF926B017C01DEDE4B015C0152
:100DD000C114D104E104F104E9F0D6DEDC01CB0159
:100DE00088199909AA09BB09883E9340A105B10554
:100DF00078F321E0C21AD108E108F10888EE880EE4
:100E000083E0981EA11CB11CC114D104E104F104BB
:100E100021F7DECFFF90EF90DF90CF90BF90AF90A3
:100E20009F908F9008952FB7F8946091E30270918E
:100E3000E4028091E5029091E6022FBF08951F928F
:100E40000F920FB60F9211242F933F938F939F937E
:100E5000AF93BF938091E3029091E402A091E502E9
:100E6000B091E6023091E20223E0230F2D3720F407
:100E70000196A11DB11D05C026E8230F0296A11DF4
:100E8000B11D2093E2028093E3029093E402A093C9
:100E9000E502B093E6028091E7029091E802A0910A
:100EA000E902B091EA020196A11DB11D8093E7020B
:100EB0009093E802A093E902B093EA02BF91AF9148
:100EC0009F918F913F912F910F900FBE0F901F9088
:100ED00018951F920F920FB60F9211240BB60F9216
:100EE0002F933F934F935F936F937F938F939F9332
:100EF000AF93BF93EF93FF93E0910E02F0910F0237
:100F00001995FF91EF91BF91AF919F918F917F9133
:100F10006F915F914F913F912F910F900BBE0F906A
:100F20000FBE0F901F9018951F920F920FB60F9241
:100F300011240BB60F922F933F934F935F936F93B0
:100F40007F938F939F93AF93BF93EF93FF93E09122
:100F50000C02F0910D021995FF91EF91BF91AF91A5
:100F60009F918F917F916F915F914F913F912F91C1
:100F70000F900BBE0F900FBE0F901F9018951F92F1
:100F80000F920FB60F9211240BB60F922F933F932F
:100F90004F935F936F937F938F939F93AF93BF9381
:100FA000EF93FF93E0910202F09103021995FF91F4
:100FB000EF91BF91AF919F918F917F916F915F91D1
:100FC0004F913F912F910F900BBE0F900FBE0F903E
:100FD0001F9018951F920F920FB60F9211240BB607
:100FE0000F922F933F934F935F936F937F938F93C2
:100FF0009F93AF93BF93EF93FF93E0910002F09123
:1010000001021995FF91EF91BF91AF919F918F913F
:101010007F916F915F914F913F912F910F900BBEF8
:101020000F900FBE0F901F9018951F920F920FB642
:101030000F9211240BB60F922F933F934F935F9310
:101040006F937F938F939F93AF93BF93EF93FF9390
:10105000E0910A02F0910B021995FF91EF91BF9177
:10106000AF919F918F917F916F915F914F913F9140
:101070002F910F900BBE0F900FBE0F901F901895E1
:101080001F920F920FB60F9211240BB60F922F934F
:101090003F934F935F936F937F938F939F93AF9300
:1010A000BF93EF93FF93E0910802F0910902199525
:1010B000FF91EF91BF91AF919F918F917F916F9130
:1010C0005F914F913F912F910F900BBE0F900FBEEC
:1010D0000F901F9018951F920F920FB60F92112428
:1010E0000BB60F922F933F934F935F936F937F9322
:1010F0008F939F93AF93BF93EF93FF93E09106027B
:10110000F09107021995FF91EF91BF91AF919F91D7
:101110008F917F916F915F914F913F912F910F90A0
:101120000BBE0F900FBE0F901F9018951F920F923D
:101130000FB60F9211240BB60F922F933F934F933C
:101140005F936F937F938F939F93AF93BF93EF932F
:10115000FF93E0910402F09105021995FF91EF9140
:10116000BF91AF919F918F917F916F915F914F91BF
:101170003F912F910F900BBE0F900FBE0F901F90BD
:101180001895279A2F9A2FEF80E792E02150804000
:101190009040E1F700C000001F9AF5CF0E942E1783
:1011A0001F93CF93DF93182F80E591E0ABD8C8E76A
:1011B000D4E060E08E8182DD83E09DD8812F9BD8D2
:1011C00080E099D8182F61E08E8178DD93D8812F47
:1011D000DF91CF911F910895EF92FF920F931F938C
:1011E000CF93DF931F92CDB7DEB7082F162F80E580
:1011F00091E0498387D888E7E82E84E0F82E60E004
:10120000F70186815BDD85E076D8802F74D8812F49
:1012100072D84981842F6FD861E0F70186814EDD55
:101220000F90DF91CF911F910F91FF90EF9062C8C7
:1012300090E0FC01E452FE4F2491FC01EA56FE4F7F
:101240008491882399F090E0880F991FFC01E4585D
:10125000FE4FA591B491FC01EE59FE4F85919491FA
:101260008FB7F894EC91E22BEC938FBF08958F9297
:101270009F92AF92BF92CF92DF92EF92FF926B015B
:101280007C01D1DD4B015C01C60ED71EE81EF91EA4
:10129000CADD681579058A059B0528F0C616D706AC
:1012A000E806F906A8F7FF90EF90DF90CF90BF9087
:1012B000AF909F908F900895E3E5F3E0A089B18906
:1012C00082E08C93A485B5851C92A685B7858FECAA
:1012D0008C93108EA489B58986E08C93A289B389FA
:1012E0008C9180618C93A289B3898C9188608C9356
:1012F000A289B3898C9180688C930288F389E02D50
:1013000080818F7D80830895CF93C82F482F60EE12
:101310008FE062DF8FE044DF807E91E08C1301C0BC
:1013200090E0892FCF9108950F931F93CF93DF9370
:10133000082F162F80E591E00E948201C8E7D4E0D3
:1013400060E08E81BBDC82E00E947B01802F0E94E6
:101350007B01812F0E947B0161E08E81AFDCDF91F8
:10136000CF911F910F910C947A014F925F926F92DF
:101370007F92EF92FF920F931F93CF93DF93CDB79E
:10138000DEB7A1970FB6F894DEBF0FBECDBF7C01CC
:10139000FA01CB0119A2223008F42AE08E010F5D78
:1013A0001F4F422E512C612C712CBF01A3019201C1
:1013B0000E94D715F901CA01015011096A3014F4CD
:1013C000605D01C0695CD8016C93232B242B252B15
:1013D00061F7B801C701FEDBA1960FB6F894DEBF36
:1013E0000FBECDBFDF91CF911F910F91FF90EF9076
:1013F0007F906F905F904F9008950F931F93CF93BE
:10140000DF93EC01E7DB8C0160E972E0CE01E2DB07
:10141000800F911FDF91CF911F910F910895E0915F
:101420000D03F0910E038081811103C08FEF9FEFB8
:101430000CC0E0910D03F0910E030580F681E02DC4
:101440000680F781E02D828193819093DF02809363
:10145000DE020895CF93DF93FC01A085B1858281E0
:10146000938124813581EC013D832C83C481D58116
:101470009B838A8311968D919C9112978E179F075B
:1014800021F41296DC93CE931197118610868C91DD
:1014900081508C938C91DF91CF9108950F931F937E
:1014A000CF93DF938C01FB01808191818F3F2FEFE0
:1014B000920721F4E801AF81B8850EC0D8011396D8
:1014C00012962D913C911397E90148815981841717
:1014D000950710F0D901F4CF12968D919C91139736
:1014E00093838283EC01FD83EC83B583A4831396FD
:1014F000FC93EE93129711870087F80180818F5F2C
:101500008083DF91CF911F910F910895CF93DF9347
:101510009C01FB01DC011196CD91DC911297D383E4
:10152000C2838C819D81958384838C819D81DC0124
:1015300013967C936E9312977D836C8331872087FB
:10154000F90180818F5F8083DF91CF910895FC0145
:101550000396928381832FEF3FEF34832383968317
:1015600085839087878310820895CF93DF930097B8
:1015700051F0EC010E94A513CE010E949616DF9156
:10158000CF910C94BD14DF91CF9108950F931F93C9
:10159000CF93DF931F921F92CDB7DEB789839A83D3
:1015A0000E94A51389819A810E9401168C010E94D4
:1015B000BD140115110509F4E4DDC8010F900F9069
:1015C000DF91CF911F910F910895FC017383628386
:1015D000918780874617570778F0421B530B848505
:1015E000958548175907C0F4BF016E5F7F4F809102
:1015F000EB029091EC020DC04217530718F46217EA
:10160000730750F4BF016E5F7F4F8091ED029091A0
:10161000EE0244DF80E0089581E00895EF92FF92AA
:101620000F931F93CF93DF93E091ED02F091EE02C1
:101630008081882351F10580F681E02D00811181A0
:10164000C681D7817E0182E0E80EF11CC70102DF6E
:10165000E989FA89CE0119958E85813029F72C8583
:101660003D85200F311F0217130758F43B832A834F
:10167000D987C887B7018091ED029091EE020EDF05
:10168000D3CFB801CE0138D5CFCF8091EB02909166
:10169000EC029093EE028093ED02F093EC02E09363
:1016A000EB02DF91CF911F910F91FF90EF90089582
:1016B000CF93DF93CDB7DEB72C970FB6F894DEBF8C
:1016C0000FBECDBFE091ED02F091EE028081FF24CC
:1016D000F394882339F0F12C0580F681E02D008108
:1016E000118102C000E010E00E94A5130E949B132C
:1016F0006C018091E0029091E102C816D90618F4BD
:101700008DDF81E001C080E0D092E102C092E00272
:1017100081116FC0F1102EC0C016D10698F10E9441
:10172000BD14E091ED02F091EE020580F681E02D0E
:10173000E680F780C70102968DDED7011E968C9158
:101740001E97813079F41C966D917C911D97600FE6
:10175000711F9801A601C70138DF882319F0B8016D
:10176000C701CAD4D7015196ED91FC915297C70198
:101770001995C0C0E091EB02F091EC028081BB248E
:10178000B3948111B12CE0900603F09007030FB6DB
:10179000F8940F92F701858D8F3F09F4158ED701CC
:1017A0005E968C915E978F3F11F45E961C920F901F
:1017B0000FBEF701828D811113C0609150037091AB
:1017C0005103645F7F4FC7014196A0DEB11004C092
:1017D000C8018C199D0902C08FEF9FEF6B2DCED6EB
:1017E000C701C4D70E94BD14811184C00E94F813A0
:1017F00081C00E94BD147EC0911109C080910A036E
:101800008E83809108039091090398878F830F90AE
:101810000FBE9BD70FB6F8940F92D8015D968C91AE
:101820005D978F3F11F45D961C92F801868D8F3F76
:1018300009F4168E0F900FBEBE01675F7F4FCE0179
:10184000069603D78111CAC0C80185D7882309F439
:10185000C1C0E984FA846091500370915103645FC0
:101860007F4FC6011BDE61E0C70188D6C8017ED765
:101870000E94BD14882309F4ABC091E00FB6F89420
:101880000F92F801F28CFF2009F49AC0448D4111A7
:101890003DC0FA94F801F28E8085811151C00F90FD
:1018A0000FBEF980F7FC26C00C811D81D8011A9665
:1018B0008D919C911B97892B19F0C8010296CADD66
:1018C0003AD7AC018091E0029091E10248175907A4
:1018D00028F44B875C87A2DE5C854B855093E10240
:1018E0004093E0028F2DFF0C990BAA0BBB0B8A30A3
:1018F000910570F100910603109107031A8619866D
:1019000090E06801B1E1CB0ED11CB8CF50E08681E8
:101910009781840F951F9783868322813381821755
:10192000930720F08081918197838683D801169652
:101930006D917C911797CE0101960E943217A9CF25
:10194000C8010896B8D6882309F4A9CF51D7A7CFE4
:10195000FC018827EE58FF4F8F4F0C94F915EA8051
:10196000FB80F801648575856E0D7F1D9701C801A8
:101970002CDE882309F4BECFD8015196ED91FC915D
:101980005297C8011995F8018685813009F0B2CFC8
:1019900084859585B701680F791FC801ADD3AACF9B
:1019A0006A817B81D8011D967C936E931C97640F8E
:1019B000751F9A01C80109DE9DCFC801D6DD9ACFF7
:1019C00029853A85232B09F017CF0F900FBE7ACEC9
:1019D0000FD753CFC801CAD6D0D74FCFC801C6D66C
:1019E000CCD7C801B8D6882309F447CF6BCE7894FA
:1019F00084B5826084BD84B5816084BD85B5826014
:101A000085BD85B5816085BD80916E0081608093C4
:101A10006E0010928100809181008260809381002D
:101A2000809181008160809381008091800081603D
:101A3000809380008091B10084608093B100809198
:101A4000B00081608093B0008091910082608093AB
:101A5000910080919100816080939100809190002D
:101A60008160809390008091A10082608093A100AA
:101A70008091A10081608093A1008091A00081608D
:101A80008093A00080912101826080932101809148
:101A900021018160809321018091200181608093E8
:101AA000200180917A00846080937A0080917A008E
:101AB000826080937A0080917A00816080937A00BE
:101AC00080917A00806880937A001092C1000E9411
:101AD000A70303E013E020E040EC50E066EC72E086
:101AE00081E191E0A1D1813009F0AEC00FB6F89448
:101AF0000F928091060390910703892B09F046C04D
:101B000088EF92E024DD8FEE92E021DD88EF92E015
:101B10009093EE028093ED028FEE92E09093EC02B0
:101B20008093EB0281E590E031DDEC01009751F10B
:101B30004F96998388838AE08B8F85E08C8F0FB6D0
:101B4000F8940F92288139819B8D4C8D949FC00110
:101B50001124B901680F791F7B836A831A8E3D8334
:101B60002C83841B9109820F931F9F838E838FEF99
:101B70008D8F8E8FCE010896EADCCE014196E7DC90
:101B80000F900FBED0930703C09306030F900FBEB4
:101B90008091060390910703892B09F455C001E059
:101BA00013E023E045E550E06BEC72E088E59BE054
:101BB0003BD1813009F048C0F8942FEF3FEF3093CC
:101BC000DF022093DE0280934F03109209031092EC
:101BD0000803A89520EC88E190E00FB6F894A8954A
:101BE000809360000FBE20936000A0915003B091DD
:101BF0005103CD91CDBFDD91DEBFFF91EF91DF911C
:101C0000CF91BF91AF919F918F917F916F915F9194
:101C10004F913F912F911F910F91FF90EF90DF9087
:101C2000CF90BF90AF909F908F907F906F905F907C
:101C30004F903F902F901F900F900CBE0F900BBEB7
:101C40000F900FBE0F9008959CDAAF92BF92CF9283
:101C5000DF92EF92FF920F931F93CF93DF9300D009
:101C60001F921F92CDB7DEB78C017B011D821C82B3
:101C700090E0580188E0A80EB11C0FB6F8940F92BE
:101C8000F801228D838D281708F069C0D28C448D0D
:101C900041113DC080819181892B09F050C0F8012C
:101CA000E280F380E114F10411F480E02CC0F7012C
:101CB00082A1815082A3268991A12917B1F38111B4
:101CC000F4CF5701F2E0AF0EB11CC501C3DBF70141
:101CD00091A1968B492F50E024E030E0241B350B76
:101CE0003587248780914E03891710F490934E0313
:101CF00029E0249FC001259F900D1124B501865D28
:101D00009C4F04DC81E0F8011382128219C050E07C
:101D1000B701F801848195810E943217F801248D62
:101D200084819581820F911D9583848322813381E3
:101D30008217930720F0808191819583848380E0CE
:101D4000D394F801D28E9189992319F0C801419654
:101D5000B2D481114DD50F900FBE81E055C02C81BA
:101D60003D81232B19F40F900FBE4DC0911109C076
:101D700080910A03898380910803909109039B83D2
:101D80008A830F900FBEE1D40FB6F8940F92F8013A
:101D9000858D8F3F09F4158EF801868D8F3F09F4EC
:101DA000168E0F900FBEBE016C5F7F4FCE01019665
:101DB0004CD4811125C00FB6F8940F92F801928D82
:101DC000838D0F900FBE981317C0CC80DD802091BB
:101DD000500330915103B901645F7F4FC5015EDB51
:101DE00061E0C601CBD3C801C1D4C7D5882311F0A7
:101DF00091E043CFFDD4FCCFC801B8D4BED5F8CF15
:101E0000C801B4D4BAD580E00F900F900F900F9016
:101E10000F90DF91CF911F910F91FF90EF90DF9086
:101E2000CF90BF90AF9008957F928F929F92AF9284
:101E3000BF92CF92DF92EF92FF920F931F93CF93B7
:101E4000DF93982EC92E762E872EEA01D22ECA0154
:101E50009DDB5C01892B09F440C188E290E096DBB0
:101E60007C010097D1F0DC015896BC92AE92579756
:101E7000AE0165EA70E0C501FED72197D7015796FC
:101E8000ED91FC915897EC0FFD1FB701675E7F4FF6
:101E9000A72DB82DCD01089606C0C50166DB1DC172
:101EA000A817B90749F09D014D91EB014993BE0177
:101EB000E90128812111F4CFD70190961C922D2D94
:101EC000243008F023E0E7012E8B29A31AA21B86F9
:101ED0001A861D8A1C8AF986E88684E090E0821BB7
:101EE00091099D878C87FB8AEA8A1BA21CA21DA2EE
:101EF0001EA21FA291E19083DF01119782E28C93D1
:101F0000119723E32C9311979C921197CC921197E0
:101F10001C9211971C92119720E82C9311971C92F8
:101F200011971C9211971C92119722E02C931197F4
:101F300023E02C93119724E02C93119725E02C9308
:101F4000119726E02C93119727E02C93119728E006
:101F50002C93119729E02C93119720E12C93119742
:101F60009C93119792E19C93119793E19C93119705
:101F700094E19C93119795E19C93119796E19C9322
:101F8000119797E19C93119798E19C93119799E190
:101F90009C93119790E29C93119791E29C931197D7
:101FA0008C93119783E28C9311971C9211971C923A
:101FB000119786E28C93119787E28C93119788E2B0
:101FC0008C93119789E28C93119780E38C931197EE
:101FD00081E38C93B997F983E8830115110519F012
:101FE000F801F182E0820FB6F8940F9280915203CB
:101FF0008F5F809352038091500390915103892BFE
:1020000089F5F0925103E0925003809152038130A0
:1020100009F03AC08AE293E09ADA83E393E097DA30
:102020008CE393E094DA85E493E091DA8BE894E032
:102030008EDA82E894E08BDA81E293E088DA88E154
:1020400093E085DA8FE093E082DA8BE894E0909376
:102050000E0380930D0382E894E090930C03809329
:102060000B0312C080914F0381110EC0E091500309
:10207000F09151039689D70156968C91891720F0DB
:10208000F0925103E0925003809194048F5F80930B
:102090009404E7018E8990914E03981710F4809371
:1020A0004E03D9E08D9FC0011124B7016E5F7F4FB1
:1020B000865D9C4F2BDA0F900FBE80914F038823D3
:1020C00051F0E0915003F09151039689F701868910
:1020D000981708F48DD381E001C08FEFDF91CF9185
:1020E0001F910F91FF90EF90DF90CF90BF90AF9036
:1020F0009F908F907F900895CF93DF9300D01F9291
:102100001F92CDB7DEB79C01809106039091070323
:10211000009761F019827B836A833D832C83209131
:102120004F03222329F02091050302C080E004C060
:10213000BE016F5F7F4F89DD0F900F900F900F9062
:102140000F90DF91CF910895CF93DF93E3E5F3E014
:102150001382128288EE93E0A0E0B0E0848395833E
:10216000A683B78383E292E09183808385EC90E03D
:102170009587848784EC90E09787868780EC90E051
:10218000918B808B81EC90E0938B828B82EC90E042
:10219000958B848B86EC90E0978B868B118E128EBC
:1021A000138E148EE0E3F4E01682178210861186F7
:1021B000128613861486158616861786108A118A4B
:1021C000128A138A148A158AC8E7D4E0198685E929
:1021D00094E098878F8380E38E832AD861E08E8194
:1021E000DF91CF910C945E060F920FB6F8940F9288
:1021F0000BB60F920CB60F921F9211242F923F92A2
:102200004F925F926F927F928F929F92AF92BF9206
:10221000CF92DF92EF92FF920F931F932F933F93F2
:102220004F935F936F937F938F939F93AF93BF93DE
:10223000CF93DF93EF93FF93A0915003B09151039D
:102240000DB60D920EB60D9213BE8091050381114D
:10225000F3C08091080390910903019690930903BC
:1022600080930803009799F520910D0330910E0398
:1022700040910B0350910C0350930E0340930D03B8
:1022800030930C0320930B0320910A032F5F2093BC
:102290000A03E0910D03F0910E032081211107C084
:1022A0002FEF3FEF3093DF022093DE0210C0E0916A
:1022B0000D03F0910E030580F681E02D0680F78175
:1022C000E02D228133813093DF022093DE022091C2
:1022D000DE023091DF028217930710F420E09CC0E9
:1022E00020E019E0E0910D03F0910E0330813111EF
:1022F00007C08FEF9FEF9093DF028093DE028CC0C8
:10230000E0910D03F0910E030580F681E02D06802B
:10231000F781E02D428153818417950728F450936B
:10232000DF024093DE0278C0AF014E5F5F4FA285AF
:10233000B38564817581E680F780EB01FD82EC82D4
:10234000C681D7817B836A8311966D917C911297A8
:102350006417750721F41296DC93CE9311971386B8
:1023600012863C9131503C933C91A489B5891097D9
:10237000F9F066857785E088F188EB01FD82EC82D3
:10238000C089D1897B836A831196ED90FC90129766
:10239000BF01645F7F4FE616F70621F41296DC93C7
:1023A000CE931197158A148A3C9131503C933C91FD
:1023B000A68930914E033A1710F4A0934E031A9F4A
:1023C000D0011124BD01665D7C4F7B01DB011196BC
:1023D000CD91DC911297D583C4836C817D81778305
:1023E00066836C817D81DB0113965C934E9312971B
:1023F0005D834C83F386E286E70138813F5F388353
:10240000A0915003B0915103468956963C914317D1
:1024100008F468CF21E066CFE0915003F0915103BA
:10242000E689D9E0ED9FF0011124E65DFC4F808143
:10243000823040F021E006C0809196048F5F809347
:10244000960420E080919704811103C0222309F4AF
:1024500066C080910503882321F081E08093970472
:102460005EC010929704A0915003B0915103E09187
:102470005003F09151032D913C918789908D8217E3
:102480009307A8F0809150039091510380915003DD
:1024900090915103279A2F9A2FEF67EA71E6215006
:1024A00060407040E1F700C000001F9AF5CF8091B6
:1024B0004E0369E001C08150482F50E0649F9001B5
:1024C000659F300D1124F901E65DFC4F9081992341
:1024D00091F3A181B28112960D90BC91A02DB2838F
:1024E000A183235D3C4FA217B30731F412962D91BF
:1024F0003C9113973283218399E0949FF001959F3B
:10250000F00D1124E65DFC4F0180F281E02D268163
:102510003781309351032093500380934E03A09151
:102520005003B0915103CD91CDBFDD91DEBFFF913E
:10253000EF91DF91CF91BF91AF919F918F917F915B
:102540006F915F914F913F912F911F910F91FF904C
:10255000EF90DF90CF90BF90AF909F908F907F9043
:102560006F905F904F903F902F901F900F900CBEF8
:102570000F900BBE0F900FBE0F900895EF92FF9239
:102580000F931F93CF93DF931F92CDB7DEB77C01DC
:102590000091080310910903809150039091510319
:1025A000029669830E942A0A69818FEFE816F8066D
:1025B00099F4662389F060915003709151036E5F26
:1025C0007F4F8FE093E00F90DF91CF911F910F919C
:1025D000FF90EF900C94860AE00EF11EE0915003FC
:1025E000F0915103F382E2826091500370915103A4
:1025F000E016F10678F480910B0390910C036E5F66
:102600007F4F0F90DF91CF911F910F91FF90EF902F
:102610000C944E0A80910D0390910E036E5F7F4FD4
:102620000E944E0A8091DE029091DF02E816F906C0
:1026300020F4F092DF02E092DE020F90DF91CF9162
:102640001F910F91FF90EF900895FC01DB010FB6F1
:10265000F8940F924091080350910903818192816F
:102660002D913C9111972F3F6FEF3607F1F070914C
:102670000A036081761719F048175907C0F4481B00
:10268000590B4217530770F4241B350B2D933C93C1
:1026900080910A03808380910803909109039283BB
:1026A000818303C01D921C9202C080E001C081E0C2
:1026B0000F900FBE08950F931F93CF93DF93DC010C
:1026C0001596ED91FC911697C681D7818E01045F16
:1026D0001F4FC8010E942A0A80910503811114C06E
:1026E0000A501109C8010E942A0A9E8980914E034E
:1026F000891710F490934E03B9E09B9FC0011124F9
:10270000B801865D9C4F03C0B80181E293E00E944E
:10271000860AE0915003F09151039E8986898917BA
:1027200020F481E08093970401C080E0DF91CF9195
:102730001F910F9108950FB6F8940F92809108039E
:10274000909109030F900FBE0895809105038F5F4C
:102750008093050308950FB6F8940F92FC01928DB3
:102760000F900FBE81E0911180E00895EF92FF92EB
:102770000F931F93CF93DF93EC010FB6F8940F9252
:102780001E8D7C0181E1E80EF11C01E0111654F46C
:102790008989882339F0C7018EDF8111009397045E
:1027A0001150F4CF8FEF8E8F0F900FBE0FB6F894AD
:1027B0000F921D8D7E0188E0E80EF11C01E01116DC
:1027C00054F48885882339F0C70175DF811100939F
:1027D00097041150F4CF8FEF8D8F0F900FBEDF91C4
:1027E000CF911F910F91FF90EF900895FDDC189508
:1027F0000F920FB6F8940F920BB60F920CB60F9281
:102800001F9211242F923F924F925F926F927F926C
:102810008F929F92AF92BF92CF92DF92EF92FF92F0
:102820000F931F932F933F934F935F936F937F93D8
:102830008F939F93AF93BF93CF93DF93EF93FF93C8
:10284000A0915003B09151030DB60D920EB60D92AA
:1028500080910503882321F081E0809397045EC076
:1028600010929704A0915003B0915103E09150034E
:10287000F09151032D913C918789908D8217930798
:10288000A8F0809150039091510380915003909152
:102890005103279A2F9A2FEF87EA91E62150804023
:1028A0009040E1F700C000001F9AF5CF80914E03E1
:1028B00069E001C08150482F50E0649F9001659FFE
:1028C000300D1124F901E65DFC4F9081992391F3BD
:1028D000A181B28112960D90BC91A02DB283A183EB
:1028E000235D3C4FA217B30731F412962D913C9112
:1028F00013973283218399E0949FF001959FF00D07
:102900001124E65DFC4F0180F281E02D26813781A4
:10291000309351032093500380934E03A0915003B2
:10292000B0915103CD91CDBFDD91DEBFFF91EF910D
:10293000DF91CF91BF91AF919F918F917F916F91D7
:102940005F914F913F912F911F910F91FF90EF90C9
:10295000DF90CF90BF90AF909F908F907F906F90BF
:102960005F904F903F902F901F900F900CBE0F9054
:102970000BBE0F900FBE0F9008958F929F92AF9253
:10298000BF92CF92DF92EF92FF920F931F93CF935C
:10299000DF930FB6F8940F928091050381508093D6
:1029A000050380910503882311F080E0F1C0809138
:1029B00052038823D1F3C0E0D0E029E0F22EEE24C8
:1029C000E39480912103882351F1E0912603F09153
:1029D0002703C681D781CE010C960E942A0A8E0158
:1029E0000E5F1F4FC8010E942A0A9E8980914E03E4
:1029F000891710F490934E03F99EC0011124B80179
:102A0000865D9C4F0E94860AE0915003F09151032D
:102A10009E8986899817A8F2E0929704D2CFCD2B91
:102A200011F00E940F0AE0909604EE2009F4A9C06C
:102A300089E0B82EAA24A394CC24CA94DC2C8091DB
:102A4000050381118CC0C0910803D0910903219620
:102A5000D0930903C09308032097B9F480910D0324
:102A600090910E0320910B0330910C0330930E03D1
:102A700020930D0390930C0380930B0380910A0322
:102A80008F5F80930A030E940F0A8091DE0290916B
:102A9000DF02F12CC817D90708F451C0E0910D03EB
:102AA000F0910E038081811105C0D092DF02C092A7
:102AB000DE0245C0E0910D03F0910E030580F68122
:102AC000E02D06811781D80112968D919C91139764
:102AD000C817D90728F49093DF028093DE022FC035
:102AE0004801B2E08B0E911CC4010E942A0AF80131
:102AF00084899589892B21F0C8010C960E942A0AA5
:102B0000D80156968C9190914E03981710F48093AB
:102B10004E03B89EC0011124B401865D9C4F0E94F3
:102B2000860AE0915003F0915103D80156969C918A
:102B30008689981708F4B2CFFF24F394AFCFE091C1
:102B40005003F0915103E689BE9EF0011124E65D29
:102B5000FC4F8081823048F0FF24F39406C08091BE
:102B600096048F5F80939604F12C809197048111D5
:102B700001C0F110A0929704EA94E11060CF109286
:102B8000960480919704882309F40FCF31DE81E009
:102B90000F900FBEDF91CF911F910F91FF90EF909B
:102BA000DF90CF90BF90AF909F908F900895A1E25B
:102BB0001A2EAA1BBB1BFD010DC0AA1FBB1FEE1FB7
:102BC000FF1FA217B307E407F50720F0A21BB30B02
:102BD000E40BF50B661F771F881F991F1A9469F77E
:102BE00060957095809590959B01AC01BD01CF01DA
:102BF0000895EE0FFF1F881F8BBF0790F691E02D01
:102C00001994CF93DF938230910510F482E090E025
:102C1000E0919B04F0919C0420E030E0C0E0D0E023
:102C2000309711F14081518148175907C0F048177A
:102C3000590761F482819381209719F09B838A83DD
:102C40002BC090939C0480939B0426C021153105D2
:102C500019F04217530718F49A01BE01DF01EF0182
:102C60000280F381E02DDCCF2115310509F1281B0D
:102C7000390B2430310590F412968D919C91139765
:102C80006115710521F0FB019383828304C0909349
:102C90009C0480939B04FD01329644C0FD01E20F29
:102CA000F31F81939193225031092D933C933AC0A5
:102CB0002091990430919A04232B41F4209112021F
:102CC0003091130230939A042093990420911002BA
:102CD000309111022115310541F42DB73EB74091D5
:102CE000140250911502241B350BE0919904F091C8
:102CF0009A04E217F307A0F42E1B3F0B281739079D
:102D000078F0AC014E5F5F4F2417350748F04E0F47
:102D10005F1F50939A04409399048193919302C04A
:102D2000E0E0F0E0CF01DF91CF9108950F931F9382
:102D3000CF93DF93009709F48CC0FC013297138284
:102D4000128200919B0410919C040115110581F4DD
:102D500020813181820F931F2091990430919A0430
:102D60002817390779F5F0939A04E093990471C014
:102D7000D80140E050E0AE17BF0750F412962D91F5
:102D80003C911397AD012115310509F1D901F3CF1C
:102D90009D01DA013383228360817181860F971F41
:102DA0008217930769F4EC0128813981260F371FB8
:102DB0002E5F3F4F318320838A819B81938382835F
:102DC000452B29F4F0939C04E0939B0442C0139696
:102DD000FC93EE931297ED01499159919E01240FB6
:102DE000351FE217F30771F480819181840F951FDD
:102DF000029611969C938E938281938113969C9355
:102E00008E931297E0E0F0E0D80112968D919C919C
:102E10001397009719F0F8018C01F6CF8D919C91D2
:102E200098012E5F3F4F820F931F2091990430919C
:102E30009A042817390769F4309729F410929C04F2
:102E400010929B0402C01382128210939A04009382
:102E50009904DF91CF911F910F91089581E090E047
:102E6000F89410C0FB01DC0102C001900D924150AA
:102E70005040D8F70895DC0101C06D934150504097
:082E8000E0F70895F894FFCF7C
:102E8800E905E905E905E905E905E905E905E905CA
:102E980000009D04800004081030405004104000D9
:102EA80000000025058F04BE046B05EF04CD04E186
:102EB800044D6573736167652053656E742053759F
:102EC800636365737366756C6C7921004572726F04
:102ED800722053656E64696E67204D657373616710
:102EE800652E2E2E004D4547415F594F00564D44E3
:102EF80050455F003A323A007C005F564D445045D9
:102F080000564D4450565F317C315F564D44505603
:102F18000D0A0043414E20494E4954206661696CB0
:102F28000043414E2073656E646572204D454741EC
:102F380020696E697469616C697A65642E00456EF2
:102F480071756575650049444C4500546D72205390
:042F5800766300009C
:00000001FF
