:100000003EC10000CEC60000A1C6000074C60000BC
:1000100047C600001AC60000EDC50000C0C50000BC
:1000200093C500005DC100005BC1000059C1000024
:100030000C94D00A55C1000053C1000051C100000A
:100040004FC100004DC100004BC1000049C100007C
:1000500047C1000045C1000043C100002BC500009E
:100060003FC100003CC4000011C4000039C10000C1
:1000700037C1000035C1000033C1000031C10000AC
:100080002FC100002DC100002BC1000029C10000BC
:1000900027C1000025C1000023C1000021C10000CC
:1000A0001FC100001DC100001BC1000019C10000DC
:1000B00017C1000015C1000013C1000011C10000EC
:1000C0000FC100000DC100000BC1000009C10000FC
:1000D00007C1000005C1000003C1000001C100000C
:1000E000FFC00000720F720F720F3F0F930FA00F2F
:1000F000720F720F3F0F930FD404D704C604CA04C3
:10010000CE040E05DB04DF04E504E904ED04F3048A
:10011000F704FB040E050105050509050000220092
:10012000250028002B002E003100340002010000C1
:10013000050108010B0100002100240027002A000E
:100140002D003000330001010000040107010A0105
:1001500005050505070508080808020202020A0A43
:100160000808040404040101010101010101030361
:10017000030303030303040707070C0C0C0C0C0C0C
:100180000C0C0202020206060606060606060B0B09
:100190000B0B0B0B0B0B010210202008081020404A
:1001A000102040800201020108040201010204083B
:1001B00010204080804020100804020180040201C9
:1001C0008040201008040201080402010102040812
:1001D00010204080010204081020408000000A0B1B
:1001E00002090C0D0E0807030401000000000000C6
:1001F00000000000000000000000000000000000FF
:1002000000000000000000001211100000000000BB
:1002100000000000000000000000000000000000DE
:10022000000080918002882309F10FB6F8940F92A4
:10023000E0919802F0919902C681D781CE01029691
:100240000E94D20A8091CD0281508093CD0280918C
:1002500080028150809380020F900FBE8F89988D0D
:100260000E94160ECE010E94160EDBCF8091A502D1
:10027000823010F00E94940BA5D2D3CFD70F112457
:100280001FBECFEFD1E2DEBFCDBF00E00CBF12E05A
:10029000A0E0B2E0E6E4FBE200E00BBF02C00790A2
:1002A0000D92AE37B107D9F723E0AEE7B2E001C057
:1002B0001D92A83BB207E1F711E0CFE3D1E000E0E7
:1002C00006C021970109802FFE010E945814CE33E9
:1002D000D10780E00807A9F70E9407130C94A11525
:1002E0008FCEE0918802F09189028081811103C054
:1002F0008FEF9FEF0CC0E0918802F091890205809A
:10030000F681E02D0680F781E02D82819381909324
:100310008E0380938D030895009761F0FC01019096
:100320000020E9F73197AF01481B590BBC018EEC57
:1003300092E04FC180E090E00895CF93DF93ECDF2F
:10034000EC0188E292E0E8DF8C0F9D1FDF91CF91F6
:1003500008955F926F927F928F929F92AF92BF9219
:10036000CF92DF92EF92FF920F931F93CF93DF9381
:1003700000D01F92CDB7DEB7782E6B015A0149012C
:1003800060E080917103E1D2872D52D5CE010196B4
:100390003C01E4E05E2E580E80E04AD5F3018193E3
:1003A0003F015E12F9CF2C8123FB882780F9F401ED
:1003B00080833A814981832F90E075E095958795F8
:1003C0007A95E1F7F8E04F9F800D911D1124092ED9
:1003D000000CAA0BBB0BF60180839183A283B3832D
:1003E00033FF38C080819181A281B38142E0880FC0
:1003F000991FAA1FBB1F4A95D1F73370830F911D18
:10040000A11DB11D80839183A283B38380819181DB
:10041000A281B381BA2FA92F982F88273B81830F00
:10042000911DA11DB11D80839183A283B38380811F
:100430009181A281B381BA2FA92F982F8827820F8B
:10044000911DA11DB11D80839183A283B38381E09F
:10045000F501808380E0ECD48F70F8018083670120
:10046000F12CF8018081F81650F4F8E0FF1639F00D
:1004700080E0DED4F60181936F01F394F2CF61E066
:10048000809171030F900F900F900F90DF91CF919B
:100490001F910F91FF90EF90DF90CF90BF90AF90A2
:1004A0009F908F907F906F905F904FC21F93CF93DC
:1004B000DF93182F80E591E0C2D4CBE6D3E060E073
:1004C0008E8143D283E0B4D4812FB2D480E0B0D403
:1004D000182F61E08E8139D2AAD4812FDF91CF917C
:1004E0001F91089590E0FC01EA56FE4F2491FC0113
:1004F000E05BFE4F8491882399F090E0880F991F6C
:10050000FC01EA5CFE4FA591B491FC01E45EFE4F54
:10051000859194918FB7F894EC91E22BEC938FBF77
:100520000895EF92FF920F931F93CF93DF931F9243
:10053000CDB7DEB7082F162F80E591E049837FD431
:100540008BE6E82E83E0F82E60E0F7018681FDD18E
:1005500085E06ED4802F6CD4812F6AD44981842F9A
:1005600067D461E0F7018681F0D10F90DF91CF91E0
:100570001F910F91FF90EF905AC4CF93C82F482F2F
:1005800060EE8FE0CEDF8FE091DF807E91E08C1314
:1005900001C090E0892FCF9108950F931F93CF93BF
:1005A000DF93082F162F80E591E049D4CBE6D3E006
:1005B00060E08E81CAD182E03BD4802F39D4812F74
:1005C00037D461E08E81C1D1DF91CF911F910F911E
:1005D0002EC4CF92DF92EF92FF920F931F93CF938F
:1005E000DF936C017A018B01C0E0D0E0CE15DF050E
:1005F00089F0D8016D918D01D601ED91FC910190AA
:10060000F081E02DC6011995892B11F47E0102C0FD
:100610002196ECCFC701DF91CF911F910F91FF90F1
:10062000EF90DF90CF900895FC01538D448D252FDE
:1006300030E0842F90E0821B930B541710F0CF967C
:10064000089501970895FC01918D828D981761F0AE
:10065000828DDF01A80FB11D5D968C91928D9F5FF9
:100660009F73928F90E008958FEF9FEF0895FC01A4
:10067000918D828D981731F0828DE80FF11D858D57
:1006800090E008958FEF9FEF0895FC01918D228DEA
:10069000892F90E0805C9F4F821B91098F7399276F
:1006A00008958EEC92E0F1DF21E0892B09F420E03F
:1006B000822F0895FC01848DDF01A80FB11DA35A7C
:1006C000BF4F2C91848D90E001968F739927848F72
:1006D000A689B7892C93A089B1898C9180648C9369
:1006E000938D848D981306C00288F389E02D808154
:1006F0008F7D80830895EF92FF920F931F93CF9386
:10070000DF93EC0181E0888F9B8D8C8D981305C061
:10071000E889F989808185FD23C0F62E0B8D10E0D4
:100720000F5F1F4F0F731127E02E8C8DE8120BC047
:100730000FB607FCFACFE889F989808185FFF5CFEC
:10074000CE01B8DFF2CF8B8DFE01E80FF11DE35A29
:10075000FF4FF0820B8FEA89FB898081806207C09E
:10076000EE89FF896083E889F989808180648083CC
:1007700081E090E0DF91CF911F910F91FF90EF907A
:100780000895CF93DF93EC01888D8823C1F0EA8927
:10079000FB89808185FD05C0A889B9898C9186FD7A
:1007A0000EC00FB607FCF5CF808185FFF2CFA88978
:1007B000B9898C9185FFEDCFCE017CDFE8CFDF9149
:1007C000CF91089580E090E0892B19F06ADF8111C4
:1007D00025C080E090E0892B41F080E090E0892BFB
:1007E00021F00E94000081111CC080E090E0892B64
:1007F00041F080E090E0892B21F00E9400008111FF
:1008000013C080E090E0892BA1F080E090E0892B7C
:1008100081F00E94000081110AC008950E9400002A
:10082000D8CF0E940000E1CF0E940000EACF0C94D4
:10083000000008953FB7F894809197039091980332
:10084000A0919903B0919A0326B5A89B05C02F3FAC
:1008500019F00196A11DB11D3FBFBA2FA92F982FE6
:100860008827820F911DA11DB11DBC01CD0142E061
:10087000660F771F881F991F4A95D1F7089508952D
:10088000089580E090E008950E948D151F920F92C8
:100890000FB60F9211240BB60F922F933F934F93E5
:1008A0005F936F937F938F939F93AF93BF93EF93D8
:1008B000FF938EEC92E0FEDEFF91EF91BF91AF913E
:1008C0009F918F917F916F915F914F913F912F9168
:1008D0000F900BBE0F900FBE0F901F9018951F9298
:1008E0000F920FB60F9211240BB60F922F938F9386
:1008F0009F93EF93FF93E091DE02F091DF028081FE
:10090000E091E402F091E50282FD12C090818091B5
:10091000E7028F5F8F732091E802821751F0E09118
:10092000E702F0E0E253FD4F958F8093E70201C0AC
:100930008081FF91EF919F918F912F910F900BBE2E
:100940000F900FBE0F901F901895362F90E0FC016E
:10095000E452FE4F4491FC01EA56FE4F2491FC0103
:10096000E05BFE4F9491992309F46BC0442309F492
:1009700055C050E0FA013197E231F10508F04EC060
:100980008827E458FF4F8F4F0C94581480918000B3
:100990008F7707C0809180008F7D03C08091800099
:1009A000877F809380003AC084B58F7702C084B57A
:1009B0008F7D84BD33C08091B0008F7703C080915C
:1009C000B0008F7D8093B00029C0809190008F7718
:1009D00007C0809190008F7D03C080919000877F39
:1009E000809390001BC08091A0008F7707C08091FA
:1009F000A0008F7D03C08091A000877F8093A0001E
:100A00000DC0809120018F7707C0809120018F7DDC
:100A100003C080912001877F80932001E92FF0E0BF
:100A2000EE0FFF1FE45EFE4FA591B4918FB7F894CF
:100A3000EC91311103C020952E2301C02E2B2C9355
:100A40008FBF08958F929F92AF92BF92CF92DF9205
:100A5000EF92FF926B017C01EDDE4B015C01C11452
:100A6000D104E104F104E9F0E5DEDC01CB018819F1
:100A70009909AA09BB09883E9340A105B10578F3FD
:100A800021E0C21AD108E108F10888EE880E83E05F
:100A9000981EA11CB11CC114D104E104F10421F77A
:100AA000DECFFF90EF90DF90CF90BF90AF909F9000
:100AB0008F9008951F920F920FB60F9211242F93CB
:100AC0003F938F939F93AF93BF93809193039091A4
:100AD0009403A0919503B09196033091920323E083
:100AE000230F2D3720F40196A11DB11D05C026E866
:100AF000230F0296A11DB11D2093920380939303AF
:100B000090939403A0939503B093960380919703D9
:100B100090919803A0919903B0919A030196A11D19
:100B2000B11D8093970390939803A0939903B0937A
:100B30009A03BF91AF919F918F913F912F910F9009
:100B40000FBE0F901F9018951F920F920FB60F9225
:100B500011240BB60F922F933F934F935F936F9394
:100B60007F938F939F93AF93BF93EF93FF93E09106
:100B70000E02F0910F021995FF91EF91BF91AF9185
:100B80009F918F917F916F915F914F913F912F91A5
:100B90000F900BBE0F900FBE0F901F9018951F92D5
:100BA0000F920FB60F9211240BB60F922F933F9313
:100BB0004F935F936F937F938F939F93AF93BF9365
:100BC000EF93FF93E0910C02F0910D021995FF91C4
:100BD000EF91BF91AF919F918F917F916F915F91B5
:100BE0004F913F912F910F900BBE0F900FBE0F9022
:100BF0001F9018951F920F920FB60F9211240BB6EB
:100C00000F922F933F934F935F936F937F938F93A5
:100C10009F93AF93BF93EF93FF93E0910202F09104
:100C200003021995FF91EF91BF91AF919F918F9121
:100C30007F916F915F914F913F912F910F900BBEDC
:100C40000F900FBE0F901F9018951F920F920FB626
:100C50000F9211240BB60F922F933F934F935F93F4
:100C60006F937F938F939F93AF93BF93EF93FF9374
:100C7000E0910002F09101021995FF91EF91BF916F
:100C8000AF919F918F917F916F915F914F913F9124
:100C90002F910F900BBE0F900FBE0F901F901895C5
:100CA0001F920F920FB60F9211240BB60F922F9333
:100CB0003F934F935F936F937F938F939F93AF93E4
:100CC000BF93EF93FF93E0910A02F0910B02199505
:100CD000FF91EF91BF91AF919F918F917F916F9114
:100CE0005F914F913F912F910F900BBE0F900FBED0
:100CF0000F901F9018951F920F920FB60F9211240C
:100D00000BB60F922F933F934F935F936F937F9305
:100D10008F939F93AF93BF93EF93FF93E09108025C
:100D2000F09109021995FF91EF91BF91AF919F91B9
:100D30008F917F916F915F914F913F912F910F9084
:100D40000BBE0F900FBE0F901F9018951F920F9221
:100D50000FB60F9211240BB60F922F933F934F9320
:100D60005F936F937F938F939F93AF93BF93EF9313
:100D7000FF93E0910602F09107021995FF91EF9120
:100D8000BF91AF919F918F917F916F915F914F91A3
:100D90003F912F910F900BBE0F900FBE0F901F90A1
:100DA00018951F920F920FB60F9211240BB60F9247
:100DB0002F933F934F935F936F937F938F939F9363
:100DC000AF93BF93EF93FF93E0910402F09105027C
:100DD0001995FF91EF91BF91AF919F918F917F9165
:100DE0006F915F914F913F912F910F900BBE0F909C
:100DF0000FBE0F901F901895279A2F9A2FEF80E71C
:100E000092E0215080409040E1F700C000001F9A1E
:100E1000F5CF8DE24BDB887F19F481E090E002C0D2
:100E20008FEF9FEF9093B3038093B20308950895DB
:100E30008EBD00000DB407FEFDCF8EB508958CBDAC
:100E40009DBD0895CF93DF93CDB7DEB7AE970FB6B4
:100E5000F894DEBF0FBECDBF88E08EA78AE0882E53
:100E6000912CA12CB12C6E0122E2C20ED11C8091DA
:100E7000B2039091B303892B09F489C080E591E016
:100E8000DEDF60E08091710360DD80EAD1DF80E029
:100E9000CFDF182F61E08091710357DD13FD02C091
:100EA00020E001C024E015FF02C098E001C090E0FE
:100EB000812F881F8827881F8295807F1370122BAF
:100EC000192B812B80FF0DC076018E01025D1F4F13
:100ED00020E733E04BE653E0BE01665D7F4F80E9DB
:100EE0000EC081FF5FC076018E01025D1F4F20E7BB
:100EF00033E04BE653E0BE01665D7F4F84E929DABB
:100F00008AA59BA5ACA5BDA580936C0390936D03AA
:100F1000A0936E03B0936F032AA53BA54CA55DA5D6
:100F200019A28E010F5D1F4FCA01B901A5019401DD
:100F30000E943614605DF80162938F01211531051E
:100F40004105510589F7CF01E7D988E292E0E4D95C
:100F500086018EA590E098012C193D0928173907C4
:100F600074F4F80161918F01E091CE02F091CF020B
:100F70000190F081E02D8EEC92E01995EACF88E2A5
:100F800092E0CAD91092B3031092B20370CF80914D
:100F9000B2039091B303019609F069CF88E392E020
:100FA000CCD965CF1EA6B8CF0F931F93CF93E091F6
:100FB000DE02F091DF0282E08083E091DA02F091BC
:100FC000DB021082E091DC02F091DD028FEC808385
:100FD0001092E602E091E202F091E30286E0808363
:100FE000E091E002F091E102808180618083E091F4
:100FF000E002F091E102808188608083E091E0026C
:10100000F091E102808180688083E091E002F091BC
:10101000E10280818F7D808368EE73E080E090E064
:1010200011DDCFB7F8948091B103811120C0E5E8BC
:10103000F1E08491EBECF1E09491E82FF0E0EE0F19
:10104000FF1FEA5CFE4FA591B491EC91E92319F4DE
:1010500061E085E37ADC85E345DA8CB580618CBD9F
:101060008CB580648CBD84E33DDA83E33BDA809108
:10107000B1038F5F8093B103CFBF80E591E0DFDEE6
:1010800060E08091710361DC80ECD2DE61E08091F0
:1010900071035BDC6AE070E080E090E0D3DC80E824
:1010A0006CDA882341F06AE070E080E090E0CADC0E
:1010B0008BE492E03EC06AE070E080E090E0C2DC49
:1010C00060E08AE26ADA60ED89E267DA62E888E283
:1010D00064DA6AE070E080E090E0B4DCC0E360E0F5
:1010E0008C2F5BDA60E080E18C0F57DA60E080E201
:1010F0008C0F53DACF5FCE3391F760E080E64DDAA4
:1011000060E080E74ADA63E08BE247DA44E064E6D5
:1011100080E607DA40E060E680E703DA80E02DDA77
:101120008111C1CF6AE070E080E090E08BDC86E561
:1011300092E003D989E097E090930702809306023A
:1011400080916900837F886080936900E99A00E05C
:1011500010E021E040E951E065E772E082E297E0CB
:1011600065D7CF911F910F9108950FB6F8940F9204
:1011700080918302909184020F900FBE08950FB664
:10118000F8940F92FC01928D0F900FBE81E09111A7
:1011900080E008950F920FB6F8940F920BB60F925D
:1011A0000CB60F921F9211242F923F924F925F9292
:1011B0006F927F928F929F92AF92BF92CF92DF9267
:1011C000EF92FF920F931F932F933F934F935F9351
:1011D0006F937F938F939F93AF93BF93CF93DF933F
:1011E000EF93FF93A091CB02B091CC020DB60D927C
:1011F0000EB60D9213BE80918F038111F3C08091C2
:1012000083029091840201969093840280938302DA
:10121000009799F5209188023091890240918602C9
:10122000509187025093890240938802309387023D
:1012300020938602209185022F5F20938502E09102
:101240008802F09189022081211107C02FEF3FEF22
:1012500030938E0320938D0310C0E0918802F091AB
:1012600089020580F681E02D0680F781E02D22813C
:10127000338130938E0320938D0320918D03309121
:101280008E038217930710F420E09CC020E019E041
:10129000E0918802F09189023081311107C08FEF0F
:1012A0009FEF90938E0380938D038CC0E091880212
:1012B000F09189020580F681E02D0680F781E02D0E
:1012C000428153818417950728F450938E034093ED
:1012D0008D0378C0AF014E5F5F4FA285B3856481F7
:1012E0007581E680F780EB01FD82EC82C681D781B3
:1012F0007B836A8311966D917C91129764177507B1
:1013000021F41296DC93CE931197138612863C91AA
:1013100031503C933C91A489B5891097F9F06685CA
:101320007785E088F188EB01FD82EC82C089D18964
:101330007B836A831196ED90FC901297BF01645FE6
:101340007F4FE616F70621F41296DC93CE931197A1
:10135000158A148A3C9131503C933C91A689309176
:10136000C9023A1710F4A093C9021A9FD0011124A0
:10137000BD016B557D4F7B01DB011196CD91DC9159
:101380001297D583C4836C817D81778366836C815A
:101390007D81DB0113965C934E9312975D834C83A2
:1013A000F386E286E70138813F5F3883A091CB0264
:1013B000B091CC02468956963C91431708F468CF09
:1013C00021E066CFE091CB02F091CC02E689D9E032
:1013D000ED9FF0011124EB55FD4F8081823040F0EC
:1013E00021E006C080917E028F5F80937E0220E024
:1013F00080917F02811103C0222309F466C080918D
:101400008F03882321F081E080937F025EC01092D9
:101410007F02A091CB02B091CC02E091CB02F0917F
:10142000CC022D913C918789908D82179307A8F06B
:101430008091CB029091CC028091CB029091CC0212
:10144000279A2F9A2FEF67EA71E62150604070408B
:10145000E1F700C000001F9AF5CF8091C90269E052
:1014600001C08150482F50E0649F9001659F300D6E
:101470001124F901EB55FD4F9081992391F3A1813E
:10148000B28112960D90BC91A02DB283A1832855F4
:101490003D4FA217B30731F412962D913C9113974B
:1014A0003283218399E0949FF001959FF00D1124E0
:1014B000EB55FD4F0180F281E02D2681378130937D
:1014C000CC022093CB028093C902A091CB02B091B1
:1014D000CC02CD91CDBFDD91DEBFFF91EF91DF91C9
:1014E000CF91BF91AF919F918F917F916F915F91BC
:1014F0004F913F912F911F910F91FF90EF90DF90AF
:10150000CF90BF90AF909F908F907F906F905F90A3
:101510004F903F902F901F900F900CBE0F900BBEDE
:101520000F900FBE0F900895FC01DB010FB6F894E9
:101530000F924091830250918402818192812D917A
:101540003C9111972F3F6FEF3607F1F070918502B4
:101550006081761719F048175907C0F4481B590BDA
:101560004217530770F4241B350B2D933C93809145
:10157000850280838091830290918402928381838B
:1015800003C01D921C9202C080E001C081E00F9058
:101590000FBE089580918F038F5F80938F0308950E
:1015A000F9DD1895CF93DF93FC01A085B185828189
:1015B000938124813581EC013D832C83C481D581C5
:1015C0009B838A8311968D919C9112978E179F070A
:1015D00021F41296DC93CE931197118610868C918C
:1015E00081508C938C91DF91CF910895CF93DF93AD
:1015F0009C01FB01DC011196CD91DC911297D38304
:10160000C2838C819D81958384838C819D81DC0143
:1016100013967C936E9312977D836C83318720871A
:10162000F90180818F5F8083DF91CF9108950F93BF
:101630001F93CF93DF93DC011596ED91FC911697E4
:10164000C681D7818E01045F1F4FC801ABDF809137
:101650008F03811113C00A501109C801A3DF9E89AD
:101660008091C902891710F49093C902B9E09B9F39
:10167000C0011124B8018B559D4F03C0B8018CE9FE
:1016800092E0B4DFE091CB02F091CC029E89868992
:10169000891720F481E080937F0201C080E0DF9110
:1016A000CF911F910F910895EF92FF920F931F9387
:1016B000CF93DF93EC010FB6F8940F921E8D7C014F
:1016C00081E1E80EF11C01E0111654F489898823A8
:1016D00039F0C701ACDF811100937F021150F4CFC4
:1016E0008FEF8E8F0F900FBE0FB6F8940F921D8D57
:1016F0007E0188E0E80EF11C01E0111654F48885A3
:10170000882339F0C70193DF811100937F021150C4
:10171000F4CF8FEF8D8F0F900FBEDF91CF911F9180
:101720000F91FF90EF9008950F920FB6F8940F92DB
:101730000BB60F920CB60F921F9211242F923F926C
:101740004F925F926F927F928F929F92AF92BF92D1
:10175000CF92DF92EF92FF920F931F932F933F93BD
:101760004F935F936F937F938F939F93AF93BF93A9
:10177000CF93DF93EF93FF93A091CB02B091CC0274
:101780000DB60D920EB60D9280918F03882321F035
:1017900081E080937F025EC010927F02A091CB0215
:1017A000B091CC02E091CB02F091CC022D913C9112
:1017B0008789908D82179307A8F08091CB02909132
:1017C000CC028091CB029091CC02279A2F9A2FEFD6
:1017D00087EA91E6215080409040E1F700C0000088
:1017E0001F9AF5CF8091C90269E001C08150482F4E
:1017F00050E0649F9001659F300D1124F901EB5575
:10180000FD4F9081992391F3A181B28112960D90A1
:10181000BC91A02DB283A18328553D4FA217B307D9
:1018200031F412962D913C9113973283218399E0E4
:10183000949FF001959FF00D1124EB55FD4F018011
:10184000F281E02D268137813093CC022093CB02A8
:101850008093C902A091CB02B091CC02CD91CDBFB3
:10186000DD91DEBFFF91EF91DF91CF91BF91AF91FD
:101870009F918F917F916F915F914F913F912F91A8
:101880001F910F91FF90EF90DF90CF90BF90AF909E
:101890009F908F907F906F905F904F903F902F9090
:1018A0001F900F900CBE0F900BBE0F900FBE0F90AD
:1018B00008958F929F92AF92BF92CF92DF92EF9254
:1018C000FF920F931F93CF93DF930FB6F8940F926D
:1018D00080918F03815080938F0380918F038823A1
:1018E00011F080E0EBC08091CD028823D1F3C0E0FD
:1018F000D0E029E0F22EEE24E39480919C0288232C
:1019000039F1E091A102F091A202C681D781CE0106
:101910000C9648DE8E010E5F1F4FC80143DE9E8984
:101920008091C902891710F49093C902F99EC001F1
:101930001124B8018B559D4F59DEE091CB02F091F7
:10194000CC029E8986899817C0F2E0927F02D5CF9B
:10195000CD2B11F00E947101E0907E02EE2009F47F
:10196000A6C089E0B82EAA24A394CC24CA94DC2C67
:1019700080918F03811189C0C0918302D09184022C
:101980002196D0938402C09383022097B9F480916A
:1019900088029091890220918602309187023093CB
:1019A0008902209388029093870280938602809117
:1019B00085028F5F809385020E94710180918D0363
:1019C00090918E03F12CC817D90708F44EC0E0910E
:1019D0008802F09189028081811105C0D0928E0326
:1019E000C0928D0342C0E0918802F0918902058087
:1019F000F681E02D06811781D80112968D919C9178
:101A00001397C817D90728F490938E0380938D03FA
:101A10002CC04801B2E08B0E911CC401C3DDF8015B
:101A200084899589892B19F0C8010C96BBDDD801F2
:101A300056968C919091C902981710F48093C90220
:101A4000B89EC0011124B4018B559D4FCFDDE091AC
:101A5000CB02F091CC02D80156969C9186899817BA
:101A600008F4B5CFFF24F394B2CFE091CB02F0910C
:101A7000CC02E689BE9EF0011124EB55FD4F80811A
:101A8000823048F0FF24F39406C080917E028F5F7D
:101A900080937E02F12C80917F02811101C0F110B0
:101AA000A0927F02EA94E11063CF10927E028091AF
:101AB0007F02882309F415CF37DE81E00F900FBE37
:101AC000DF91CF911F910F91FF90EF90DF90CF901A
:101AD000BF90AF909F908F9008950F931F93CF93D7
:101AE000DF938C01FB01808191818F3F2FEF920763
:101AF00021F4E801AF81B8850EC0D8011396129683
:101B00002D913C911397E9014881598184179507DC
:101B100010F0D901F4CF12968D919C911397938375
:101B20008283EC01FD83EC83B583A4831396FC933D
:101B3000EE93129711870087F80180818F5F808371
:101B4000DF91CF911F910F910895EF92FF920F9324
:101B50001F93CF93DF931F92CDB7DEB77C01009127
:101B60008302109184028091CB029091CC02029664
:101B7000698318DD69818FEFE816F80691F4662312
:101B800081F06091CB027091CC026E5F7F4F8AE84A
:101B900092E00F90DF91CF911F910F91FF90EF9006
:101BA00025CDE00EF11EE091CB02F091CC02F38244
:101BB000E2826091CB027091CC02E016F10670F4E3
:101BC00080918602909187026E5F7F4F0F90DF9128
:101BD000CF911F910F91FF90EF907FCF809188025E
:101BE000909189026E5F7F4F78DF80918D03909195
:101BF0008E03E816F90620F4F0928E03E0928D032E
:101C00000F90DF91CF911F910F91FF90EF9008956A
:101C1000FC010396928381832FEF3FEF348323836C
:101C2000968385839087878310820895CF93DF936F
:101C3000009739F0EC01AEDCCE01D7D6DF91CF9121
:101C400038CEDF91CF910895CF93DF93CDB7DEB734
:101C50002C970FB6F894DEBF0FBECDBFE0918B037B
:101C6000F0918C038081FF24F394882339F0F12CC8
:101C70000580F681E02D0081118102C000E010E0B6
:101C800089DC73DA6C018091810290918202C8161E
:101C9000D90618F449D481E001C080E0D0928202D4
:101CA000C092810281116CC0F1102DC0C016D10606
:101CB00090F1FFDDE0918B03F0918C030580F681BC
:101CC000E02DE680F780C70102966CDCD7011E96F6
:101CD0008C911E97813079F41C966D917C911D97A3
:101CE000600F711F9801A601C70168D4882319F0FD
:101CF000B801C701F1D3D7015196ED91FC915297EC
:101D0000C7011995BCC0E0918903F0918A038081D5
:101D1000BB24B3948111B12CE0909003F090910317
:101D20000FB6F8940F92F701858D8F3F09F4158E49
:101D3000D7015E968C915E978F3F11F45E961C9250
:101D40000F900FBEF701828D811113C06091CB02FD
:101D50007091CC02645F7F4FC701419647DCB110A0
:101D600004C0C8018C199D0902C08FEF9FEF6B2D35
:101D7000ECDEC70199DC9DDD811181C0D5DC7FC01F
:101D800098DD7DC0911109C0809185028E8380917C
:101D900083029091840298878F830F900FBEFADBA5
:101DA0000FB6F8940F92D8015D968C915D978F3F96
:101DB00011F45D961C92F801868D8F3F09F4168E02
:101DC0000F900FBEBE01675F7F4FCE010696ACDB62
:101DD0008111C7C0C801D3D9882309F4BEC0E984E2
:101DE000FA846091CB027091CC02645F7F4FC60190
:101DF00074DE61E0C701A9DEC80156DC5ADD882324
:101E000009F4A9C091E00FB6F8940F92F801F28C92
:101E1000FF2009F498C0448D41113DC0FA94F801A7
:101E2000F28E8085811150C00F900FBEF980F7FCB3
:101E300026C00C811D81D8011A968D919C911B970B
:101E4000892B19F0C8010296ADDB8FD9AC018091C6
:101E50008102909182024817590728F44B875C87CA
:101E600063D35C854B8550938202409381028F2D12
:101E7000FF0C990BAA0BBB0B8A30910568F10091FE
:101E80009003109191031A86198690E06801B1E1E0
:101E9000CB0ED11CB8CF50E086819781840F951F5F
:101EA00097838683228133818217930720F0808174
:101EB000918197838683D80116966D917C911797AF
:101EC000CE0101962ED6AACFC8010896B0DB882392
:101ED00009F4AACF29DCA8CFFC018827EE58FF4FD0
:101EE0008F4FE6C4EA80FB80F801648575856E0D2E
:101EF0007F1D9701C80162D3882309F4C0CFD801A0
:101F00005196ED91FC915297C8011995F80186857B
:101F1000813009F0B4CF84859585B701680F791FAA
:101F2000C801DAD2ACCF6A817B81D8011D967C933F
:101F30006E931C97640F751F9A01C8013FD39FCF02
:101F4000C80174DE9CCF29853A85232B09F01ACF6E
:101F50000F900FBE83CEE8DB55CFC801A5DBA9DC0F
:101F600051CFC801A1DBA5DCC80109D9882309F438
:101F700049CF74CE0F931F93CF93DF931F921F927D
:101F8000CDB7DEB789839A8305DB89819A8198D49E
:101F90008C018FDC0115110511F40E94FC06C801AB
:101FA0000F900F90DF91CF911F910F910895CF93D4
:101FB000DF93EEECF2E01382128288EE93E0A0E071
:101FC000B0E084839583A683B7838AE192E091830E
:101FD000808385EC90E09587848784EC90E09787F8
:101FE000868780EC90E0918B808B81EC90E0938BE6
:101FF000828B82EC90E0958B848B86EC90E0978BC3
:10200000868B118E128E138E148ECBE6D3E019863A
:1020100088E893E098878F8387E08E830E9472021E
:1020200061E08E81DF91CF910C94A5047F928F9215
:102030009F92AF92BF92CF92DF92EF92FF920F9357
:102040001F93CF93DF93982EC92E762E872EEA0109
:10205000D22ECA018FDF5C01892B09F440C188E2CE
:1020600090E088DF7C010097D1F0DC015896BC92AB
:10207000AE925797AE0165EA70E0C5015BD5219736
:10208000D7015796ED91FC915897EC0FFD1FB701C2
:10209000675E7F4FA72DB82DCD01089606C0C501FC
:1020A000C5DD1DC1A817B90749F09D014D91EB0190
:1020B0004993BE01E90128812111F4CFD7019096FF
:1020C0001C922D2D243008F023E0E7012E8B29A34C
:1020D0001AA21B861A861D8A1C8AF986E88684E065
:1020E00090E0821B91099D878C87FB8AEA8A1BA25C
:1020F0001CA21DA21EA21FA291E19083DF011197D5
:1021000082E28C93119723E32C9311979C92119761
:10211000CC9211971C9211971C92119720E82C9346
:1021200011971C9211971C9211971C92119722E003
:102130002C93119723E02C93119724E02C93119763
:1021400025E02C93119726E02C93119727E02C93F0
:10215000119728E02C93119729E02C93119720E1F7
:102160002C9311979C93119792E19C93119793E173
:102170009C93119794E19C93119795E19C931197EF
:1021800096E19C93119797E19C93119798E19C930A
:10219000119799E19C93119790E29C93119791E28A
:1021A0009C9311978C93119783E28C9311971C92B7
:1021B00011971C92119786E28C93119787E28C936A
:1021C000119788E28C93119789E28C93119780E3A1
:1021D0008C93119781E38C93B997F983E883011568
:1021E000110519F0F801F182E0820FB6F8940F9210
:1021F0008091CD028F5F8093CD028091CB02909130
:10220000CC02892B89F5F092CC02E092CB0280912E
:10221000CD02813009F03AC085EA92E0F9DC8EEA1D
:1022200092E0F6DC87EB92E0F3DC80EC92E0F0DC0D
:102230008EE793E0EDDC85E793E0EADC8CE992E061
:10224000E7DC83E992E0E4DC8AE892E0E1DC8EE717
:1022500093E0909389028093880285E793E09093BE
:1022600087028093860212C08091CA0281110EC03B
:10227000E091CB02F091CC029689D70156968C91D1
:10228000891720F0F092CC02E092CB028091870374
:102290008F5F80938703E7018E899091C902981719
:1022A00010F48093C902D9E08D9FC0011124B701B9
:1022B0006E5F7F4F8B559D4F99D90F900FBE8091C8
:1022C000CA02882351F0E091CB02F091CC029689AA
:1022D000F7018689981708F427DA81E001C08FEFAB
:1022E000DF91CF911F910F91FF90EF90DF90CF90F2
:1022F000BF90AF909F908F907F900895AF92BF92C4
:10230000CF92DF92EF92FF920F931F93CF93DF93C1
:1023100000D01F921F92CDB7DEB78C017B011D82CA
:102320001C8290E0580188E0A80EB11C0FB6F8940A
:102330000F92F801228D838D281708F068C0D28C87
:10234000448D41113DC080819181892B09F04FC09E
:10235000F801E280F380E114F10411F480E02CC074
:10236000F70182A1815082A3268991A12917B1F397
:102370008111F4CF5701F2E0AF0EB11CC50112D9A3
:10238000F70191A1968B492F50E024E030E0241B07
:10239000350B358724878091C902891710F49093F3
:1023A000C90229E0249FC001259F900D1124B50189
:1023B0008B559D4F1BD981E0F8011382128218C002
:1023C00050E0B701F80184819581ABD3F801248DE9
:1023D00084819581820F911D95838483228133812D
:1023E0008217930720F0808191819583848380E018
:1023F000D394F801D28E9189992319F0C80141969E
:1024000016D9811191D90F900FBE81E055C02C8152
:102410003D81232B19F40F900FBE4DC0911109C0BF
:1024200080918502898380918302909184029B83AD
:102430008A830F900FBEAED80FB6F8940F92F801B2
:10244000858D8F3F09F4158EF801868D8F3F09F435
:10245000168E0F900FBEBE016C5F7F4FCE010196AE
:1024600063D8811125C00FB6F8940F92F801928DB0
:10247000838D0F900FBE981317C0CC80DD80209104
:10248000CB023091CC02B901645F7F4FC50125DBDF
:1024900061E0C6015ADBC80107D90BDA882311F0C5
:1024A00091E044CF41D9FCCFC801FED802DAF8CF81
:1024B000C801FAD8FED980E00F900F900F900F90CE
:1024C0000F90DF91CF911F910F91FF90EF90DF90D0
:1024D000CF90BF90AF900895CF93DF9300D01F921D
:1024E0001F92CDB7DEB79C0180919003909191032C
:1024F000009761F019827B836A833D832C8320914E
:10250000CA02222329F020918F0302C080E004C078
:10251000BE016F5F7F4FF2DE0F900F900F900F9014
:102520000F90DF91CF910895EF92FF920F931F9339
:10253000CF93DF93E0918B03F0918C03808188230C
:1025400051F10580F681E02D00811181C681D7818E
:102550007E0182E0E80EF11CC70124D8E989FA89DE
:10256000CE0119958E85813029F72C853D85200F68
:10257000311F0217130758F43B832A83D987C88772
:10258000B70180918B0390918C03A7DAD3CFB80168
:10259000CE01A2DFCFCF8091890390918A039093DF
:1025A0008C0380938B03F0938A03E0938903DF917C
:1025B000CF911F910F91FF90EF900895FC017383CD
:1025C0006283918780874617570778F0421B530B29
:1025D0008485958548175907C0F4BF016E5F7F4F0A
:1025E0008091890390918A030DC04217530718F414
:1025F0006217730750F4BF016E5F7F4F80918B03AA
:1026000090918C036ADA80E0089581E008957894CF
:1026100084B5826084BD84B5816084BD85B58260E7
:1026200085BD85B5816085BD80916E008160809398
:102630006E00109281008091810082608093810001
:102640008091810081608093810080918000816011
:10265000809380008091B10084608093B10080916C
:10266000B00081608093B00080919100826080937F
:102670009100809191008160809391008091900001
:102680008160809390008091A10082608093A1007E
:102690008091A10081608093A1008091A000816061
:1026A0008093A0008091210182608093210180911C
:1026B00021018160809321018091200181608093BC
:1026C000200180917A00846080937A0080917A0062
:1026D000826080937A0080917A00816080937A0092
:1026E00080917A00806880937A001092C1000E94E5
:1026F000D4070FEA13E020E040EC50E06BE272E018
:1027000081E191E093DC813009F0AEC00FB6F8941E
:102710000F928091900390919103892B09F046C00C
:1027200084EA93E075DA8BE993E072DA84EA93E065
:1027300090938C0380938B038BE993E090938A03AF
:102740008093890381E590E015DCEC01009751F15D
:102750004F96998388838AE08B8F85E08C8F0FB6A4
:10276000F8940F92288139819B8D4C8D949FC001E4
:102770001124B901680F791F7B836A831A8E3D8308
:102780002C83841B9109820F931F9F838E838FEF6D
:102790008D8F8E8FCE0108963BDACE01419638DAC6
:1027A0000F900FBED0939103C09390030F900FBE74
:1027B0008091900390919103892B09F455C00DEA03
:1027C00013E023E045E550E060E372E084E29EE040
:1027D0002DDC813009F048C0F8942FEF3FEF3093A3
:1027E0008E0320938D038093CA021092840210926C
:1027F0008302A89520EC88E190E00FB6F894A895A4
:10280000809360000FBE20936000A091CB02B09136
:10281000CC02CD91CDBFDD91DEBFFF91EF91DF9175
:10282000CF91BF91AF919F918F917F916F915F9168
:102830004F913F912F911F910F91FF90EF90DF905B
:10284000CF90BF90AF909F908F907F906F905F9050
:102850004F903F902F901F900F900CBE0F900BBE8B
:102860000F900FBE0F9008950E94FC06A1E21A2E51
:10287000AA1BBB1BFD010DC0AA1FBB1FEE1FFF1F24
:10288000A217B307E407F50720F0A21BB30BE40B74
:10289000F50B661F771F881F991F1A9469F76095BB
:1028A0007095809590959B01AC01BD01CF01089575
:1028B000EE0FFF1F881F8BBF0790F691E02D199434
:1028C000CF93DF938230910510F482E090E0E091A5
:1028D000B603F091B70320E030E0C0E0D0E03097DD
:1028E00011F14081518148175907C0F04817590725
:1028F00061F482819381209719F09B838A832BC096
:102900009093B7038093B60326C02115310519F0C3
:102910004217530718F49A01BE01DF01EF0102804C
:10292000F381E02DDCCF2115310509F1281B390B8E
:102930002430310590F412968D919C911397611576
:10294000710521F0FB019383828304C09093B70348
:102950008093B603FD01329644C0FD01E20FF31FE0
:1029600081939193225031092D933C933AC0209149
:10297000B4033091B503232B41F42091120230911E
:1029800013023093B5032093B403209110023091C9
:1029900011022115310541F42DB73EB740911402C3
:1029A00050911502241B350BE091B403F091B5034F
:1029B000E217F307A0F42E1B3F0B2817390778F016
:1029C000AC014E5F5F4F2417350748F04E0F5F1F75
:1029D0005093B5034093B4038193919302C0E0E018
:1029E000F0E0CF01DF91CF9108950F931F93CF9324
:1029F000DF93009709F48CC0FC0132971382128296
:102A00000091B6031091B7030115110581F42081DF
:102A10003181820F931F2091B4033091B5032817A1
:102A2000390779F5F093B503E093B40371C0D80189
:102A300040E050E0AE17BF0750F412962D913C9144
:102A40001397AD012115310509F1D901F3CF9D018E
:102A5000DA013383228360817181860F971F821789
:102A6000930769F4EC0128813981260F371F2E5F07
:102A70003F4F318320838A819B8193838283452BBF
:102A800029F4F093B703E093B60342C01396FC9386
:102A9000EE931297ED01499159919E01240F351F34
:102AA000E217F30771F480819181840F951F0296DC
:102AB00011969C938E938281938113969C938E930F
:102AC0001297E0E0F0E0D80112968D919C91139757
:102AD000009719F0F8018C01F6CF8D919C91980127
:102AE0002E5F3F4F820F931F2091B4033091B503A7
:102AF0002817390769F4309729F41092B703109218
:102B0000B60302C0138212821093B5030093B4037C
:102B1000DF91CF911F910F91089581E090E0F8949B
:102B200010C0FB01DC0102C001900D9241505040E9
:102B3000D8F70895DC0101C06D9341505040E0F793
:062B40000895F894FFCF98
:102B46003F043F043F043F043F043F043F043F0467
:102B56000000B8038000000000007B03E9021403B4
:102B6600C1034503230337030D0A0049444C4500BE
:102B7600546D72205376630043414E20726563653F
:102B8600697665206572726F722E0043414E20652C
:102B960072726F722E0043414E20726563656976CC
:102BA6006572204D45474120696E697469616C699B
:0E2BB6007A65642E00456E71756575650000C8
:00000001FF
