:10000000A9C00000D7C00000D5C00000D3C00000C8
:10001000D1C00000CFC00000CDC00000CBC00000A8
:10002000C9C00000C7C00000C5C00000C3C00000B8
:100030000C94620BBFC00000BDC00000BBC000003C
:10004000B9C00000B7C00000B5C00000B3C00000D8
:10005000B1C00000AFC00000ADC00000C9C20000C8
:10006000A9C0000077C200004CC20000A3C000007D
:10007000A1C000009FC000009DC000009BC0000008
:1000800099C0000097C0000095C0000093C0000018
:100090000FC20000E4C100008DC000008BC0000052
:1000A00089C0000087C0000085C0000083C0000038
:1000B00081C000007FC000007DC000007BC0000048
:1000C00079C0000077C0000075C0000073C0000058
:1000D00071C000006FC000006DC000006BC0000068
:1000E00069C00000E707E707E707B2070908160835
:1000F000E707E707B207090880916D02882309F135
:100100000FB6F8940F92E091AB02F091AC02C68169
:10011000D781CE0102960E94640B8091B902815072
:100120008093B90280916D02815080936D020F908F
:100130000FBE8F89988D0E94D90DCE010E94D90DD6
:10014000DBCF8091BF02823010F00E94A90B52D108
:10015000D3CF040E11241FBECFEFD1E2DEBFCDBF3F
:1001600000E00CBF12E0A0E0B2E0E0EFF7E200E058
:100170000BBF02C007900D92AA36B107D9F724E051
:10018000AAE6B2E001C01D92A533B207E1F710E084
:10019000CAEAD0E000E006C021970109802FFE01E5
:1001A0000E948412C93AD10780E00807A9F758D7FE
:1001B0000C94F61325CFCF92DF92EF92FF920F931C
:1001C0001F93CF93DF936C017A018B01C0E0D0E0E5
:1001D000CE15DF0589F0D8016D918D01D601ED9125
:1001E000FC910190F081E02DC6011995892B11F445
:1001F0007E0102C02196ECCFC701DF91CF911F9104
:100200000F91FF90EF90DF90CF900895FC01A089AF
:10021000B1898C91A689B78982FD0FC09C91818D8F
:100220008F5F8F73228D821749F0218DDF01A20F1E
:10023000B11D5D969C93818F08958C9108950895CA
:1002400080E090E00895FC01538D448D252F30E02F
:10025000842F90E0821B930B541710F0CF960895D3
:1002600001970895FC01918D828D981761F0828D20
:10027000DF01A80FB11D5D968C91928D9F5F9F73DA
:10028000928F90E008958FEF9FEF0895FC01918D7C
:10029000828D981731F0828DE80FF11D858D90E0E9
:1002A00008958FEF9FEF0895FC01918D228D892F86
:1002B00090E0805C9F4F821B91098F73992708956E
:1002C00084EE92E0F1DF21E0892B09F420E0822F17
:1002D000089581E893E0E8DF21E0892B09F420E02C
:1002E000822F0895FC01848DDF01A80FB11DA35A50
:1002F000BF4F2C91848D90E001968F739927848F46
:10030000A689B7892C93A089B1898C9180648C933C
:10031000938D848D981306C00288F389E02D808127
:100320008F7D80830895EF92FF920F931F93CF9359
:10033000DF93EC0181E0888F9B8D8C8D981305C035
:10034000E889F989808185FD23C0F62E0B8D10E0A8
:100350000F5F1F4F0F731127E02E8C8DE8120BC01B
:100360000FB607FCFACFE889F989808185FFF5CFC0
:10037000CE01B8DFF2CF8B8DFE01E80FF11DE35AFD
:10038000FF4FF0820B8FEA89FB898081806207C072
:10039000EE89FF896083E889F989808180648083A0
:1003A00081E090E0DF91CF911F910F91FF90EF904E
:1003B0000895CF93DF93EC01888D8823C1F0EA89FB
:1003C000FB89808185FD05C0A889B9898C9186FD4E
:1003D0000EC00FB607FCF5CF808185FFF2CFA8894C
:1003E000B9898C9185FFEDCFCE017CDFE8CFDF911D
:1003F000CF91089580E090E0892B19F06ADF811198
:1004000020C080E090E0892B19F05ADF81111CC0D8
:1004100080E090E0892B41F080E090E0892B21F092
:100420000E940000811113C080E090E0892BA1F0B0
:1004300080E090E0892B81F00E94000081110AC0C9
:1004400008950E940000DDCF0E940000E1CF0E94CD
:100450000000EACF0C94000008950E94B9131F9287
:100460000F920FB60F9211240BB60F922F933F935A
:100470004F935F936F937F938F939F93AF93BF93AC
:10048000EF93FF9384EE92E02DDFFF91EF91BF9108
:10049000AF919F918F917F916F915F914F913F911C
:1004A0002F910F900BBE0F900FBE0F901F901895BD
:1004B0001F920F920FB60F9211240BB60F922F932B
:1004C0003F934F935F936F937F938F939F93AF93DC
:1004D000BF93EF93FF9384EE92E098DEFF91EF914C
:1004E000BF91AF919F918F917F916F915F914F914C
:1004F0003F912F910F900BBE0F900FBE0F901F904A
:1005000018951F920F920FB60F9211240BB60F92EF
:100510002F933F934F935F936F937F938F939F930B
:10052000AF93BF93EF93FF9381E893E0DBDEFF91FE
:10053000EF91BF91AF919F918F917F916F915F915B
:100540004F913F912F910F900BBE0F900FBE0F90C8
:100550001F9018951F920F920FB60F9211240BB691
:100560000F922F933F934F935F936F937F938F934C
:100570009F93AF93BF93EF93FF9381E893E046DEA1
:10058000FF91EF91BF91AF919F918F917F916F916B
:100590005F914F913F912F910F900BBE0F900FBE27
:1005A0000F901F9018953FB7F89480917502909125
:1005B0007602A0917702B091780226B5A89B05C07B
:1005C0002F3F19F00196A11DB11D3FBFBA2FA92FD2
:1005D000982F8827820F911DA11DB11DBC01CD014F
:1005E00042E0660F771F881F991F4A95D1F708953B
:1005F0001F920F920FB60F9211242F933F938F9358
:100600009F93AF93BF938091710290917202A091DA
:100610007302B09174023091700223E0230F2D37E2
:1006200020F40196A11DB11D05C026E8230F0296F6
:10063000A11DB11D209370028093710290937202EC
:10064000A0937302B0937402809175029091760228
:10065000A0917702B09178020196A11DB11D8093FF
:10066000750290937602A0937702B0937802BF91BF
:10067000AF919F918F913F912F910F900FBE0F904F
:100680001F901895279A2F9A2FEF80E792E021501C
:1006900080409040E1F700C000001F9AF5CFE09144
:1006A0009B02F0919C028081811103C08FEF9FEF2C
:1006B0000CC0E0919B02F0919C020580F681E02D38
:1006C0000680F781E02D8281938190936C02809364
:1006D0006B02089580919302909194020E94460FBC
:1006E000813041F460E070E0809193029091940237
:1006F0000E94620E0E94570EEDCFCF93DF93CDB7CD
:10070000DEB7CC57D1090FB6F894DEBF0FBECDBF10
:1007100084EE92E09A838983A8961FAEA897898178
:100720009A81DC01ED91FC910084F185E02D199511
:10073000892BD9F0A8961FADA8971336B0F481E0A5
:10074000810FA8968FAFA89789819A81DC01ED91DE
:10075000FC910284F385E02D1995E3E0F0E0EC0FC5
:10076000FD1FE10FF11D8083DACFA8968FADA8970A
:10077000E3E0F0E0EC0FFD1FE80FF11D108266E0F2
:1007800072E0CE0103960E94DC138C01009709F4FD
:1007900074C0FC0101900020E9F73197E81BF90BC8
:1007A0007997C0F480E0282F30E0F801E20FF31FC2
:1007B0009081E3E0F0E0EC0FFD1FE20FF31F908368
:1007C00021E0280F992311F0822FEDCFA8968FAF4B
:1007D000A89756C0BC016E5F7F4F44E050E0CE0149
:1007E00083599F4F0E94CD13B801685F7F4F44E04B
:1007F00050E0CE0188599F4F0E94CD13B801625F2F
:100800007F4F44E050E0CE018E589F4F0E94CD13A1
:10081000B8016C5E7F4F45E050E0CE0189589F4F94
:100820000E94CD13ED961FAEED97E7961FAEE797AA
:10083000AD961FAEAD97E2961FAEE29788E292E0CA
:1008400016D1CE0183599F4F23D18FE292E00FD171
:10085000CE0188599F4F1CD185E392E008D1CE018B
:100860008E589F4F15D18CE392E001D1CE0189586B
:100870009F4F0ED184E492E00BD1A8961FAEA897AB
:1008800080919302909194020E94460F813041F42E
:1008900060E070E080919302909194020E94620E59
:1008A0000E94570E3CCF8F929F92AF92BF92CF92F1
:1008B000DF92EF92FF920F931F93CF93DF93E0911C
:1008C0009103F091920322E02083E0918D03F09157
:1008D0008E031082E0918F03F09190038FEC808360
:1008E00010929903E0919503F091960396E090831E
:1008F000E0919303F0919403808180618083E09183
:100900009303F0919403808188608083E091930346
:10091000F0919403808180688083E0919303F0914B
:10092000940380818F7D8083E091F402F091F50241
:100930002083E091F002F091F1021082E091F20246
:10094000F091F30287E680831092FC02E091F802B6
:10095000F091F9029083E091F602F091F702808124
:1009600080618083E091F602F091F70280818860D7
:100970008083E091F602F091F702808180688083A5
:10098000E091F602F091F70280818F7D80830BDE8B
:100990004B015C0188EEC82E83E0D82EE12CF12CAF
:1009A00002DEDC01CB0188199909AA09BB09883E3E
:1009B0009340A105B10558F021E0C21AD108E10821
:1009C000F10888EE880E83E0981EA11CB11CC114AA
:1009D000D104E104F10421F78091930290919402F3
:1009E000892B21F58FE190E00E94E70DEC01009743
:1009F00091F09983888381E08B8F1C8ECE010E94B9
:100A000032121B821A82198218821E8260E070E004
:100A1000CE010E94620ED0939402C093930220975D
:100A200029F060E070E0CE010E94620E00E010E06C
:100A300022E040E051E06BE472E08DE793E00E9439
:100A4000CA1021E040E850E068E572E08AE693E0F1
:100A50000E94CA10DF91CF911F910F91FF90EF90EC
:100A6000DF90CF90BF90AF909F908F9008950097A8
:100A700061F0FC0101900020E9F73197AF01481BBC
:100A8000590BBC0181E893E096CB80E090E008959B
:100A9000CF93DF93ECDFEC0187E692E0E8DF8C0F89
:100AA0009D1FDF91CF910895FC017383628391872D
:100AB00080874617570778F0421B530B848595852E
:100AC00048175907C8F4BF016E5F7F4F80917902C4
:100AD00090917A020DC04217530718F462177307FA
:100AE00058F4BF016E5F7F4F80917B0290917C0232
:100AF0000E94820D80E0089581E00895EF92FF92B8
:100B00000F931F93CF93DF93E0917B02F0917C02D0
:100B10008081882359F10580F681E02D00811181C3
:100B2000C681D7817E0182E0E80EF11CC701CCD5D9
:100B3000E989FA89CE0119958E85813029F72C85AE
:100B40003D85200F311F0217130758F43B832A837A
:100B5000D987C887B70180917B0290917C02D2D758
:100B6000D3CFB801CE010E945C12CECF8091790222
:100B700090917A0290937C0280937B02F0937A02A8
:100B8000E0937902DF91CF911F910F91FF90EF9049
:100B90000895EF92FF920F931F93CF93DF931F92CD
:100BA000CDB7DEB77C010091BC021091BD028091EF
:100BB000BA029091BB020296698386D569818FEF54
:100BC000E816F80691F4662381F06091BA027091FC
:100BD000BB026E5F7F4F8DE992E00F90DF91CF9166
:100BE0001F910F91FF90EF9093C5E00EF11EE091E1
:100BF000BA02F091BB02F382E2826091BA02709174
:100C0000BB02E016F10670F48091990290919A026D
:100C10006E5F7F4F0F90DF91CF911F910F91FF90EB
:100C2000EF9070C780919B0290919C026E5F7F4F06
:100C300069D780916B0290916C02E816F90620F456
:100C4000F0926C02E0926B020F90DF91CF911F91B6
:100C50000F91FF90EF900895FC01DB010FB6F8941F
:100C60000F924091BC025091BD02818192812D91E1
:100C70003C9111972F3F6FEF3607F1F07091BE0254
:100C80006081761719F048175907C0F4481B590BB3
:100C90004217530770F4241B350B2D933C9380911E
:100CA000BE0280838091BC029091BD0292838183B9
:100CB00003C01D921C9202C080E001C081E00F9031
:100CC0000FBE08950F931F93CF93DF93DC0115960A
:100CD000ED91FC911697C681D7818E01045F1F4F5D
:100CE000C801F2D480919602811113C00A501109F3
:100CF000C801EAD49E898091E302891710F4909389
:100D0000E302B9E09B9FC0011124B80181549D4FBB
:100D100003C0B8018FEA92E0FBD4E091BA02F091EF
:100D2000BB029E898689891720F481E080936A023C
:100D300001C080E0DF91CF911F910F910895CF9373
:100D4000DF93CDB7DEB72C970FB6F894DEBF0FBE9A
:100D5000CDBFE0917B02F0917C028081FF24F3946F
:100D6000882339F0F12C0580F681E02D0081118176
:100D700002C000E010E055D44AD46C0180916E02AC
:100D800090916F02C816D90618F4B8DE81E001C050
:100D900080E0D0926F02C0926E0281116DC0F1109E
:100DA0002EC0C016D10698F199D5E0917B02F09142
:100DB0007C020580F681E02DE680F780C70102966F
:100DC00083D4D7011E968C911E97813081F41C9696
:100DD0006D917C911D97600F711F9801A601C7014D
:100DE00063DE882321F0B801C7010E945C12D7019D
:100DF0005196ED91FC915297C7011995B3C0E091BE
:100E00007902F0917A028081BB24B3948111B12CD4
:100E1000E0909702F09098020FB6F8940F92F701C5
:100E2000858D8F3F09F4158ED7015E968C915E9764
:100E30008F3F11F45E961C920F900FBEF701828DCA
:100E4000811113C06091BA027091BB02645F7F4F41
:100E5000C70141965DD4B11004C0C8018C199D0929
:100E600002C08FEF9FEF6B2D94DEC701EBD336D519
:100E7000811178C06ED476C031D574C0911109C08B
:100E80008091BE028E838091BC029091BD029887B2
:100E90008F830F900FBEC5D30FB6F8940F92D80171
:100EA0005D968C915D978F3F11F45D961C92F801D1
:100EB000868D8F3F09F4168E0F900FBEBE01675FBF
:100EC0007F4FCE010696C8DE8111C1C0C801AFD3E5
:100ED000882309F4B8C069857A85C6014BD6C80154
:100EE000B1D3FCD4882309F4ACC091E00FB6F894D8
:100EF0000F92F801F28CFF2009F49BC0448D411140
:100F00003DC0FA94F801F28E8085811151C00F9096
:100F10000FBEF980F7FC26C00C811D81D8011A96FE
:100F20008D919C911B97892B19F0C8010296CCD307
:100F30006ED3AC0180916E0290916F0248175907F1
:100F400028F44B875C87DADD5C854B8550936F0214
:100F500040936E028F2DFF0C990BAA0BBB0B8A30AE
:100F6000910570F100919702109198021A861986E6
:100F700090E06801B1E1CB0ED11CB8CF50E0868182
:100F80009781840F951F97838683228133818217EF
:100F9000930720F08081918197838683D8011696EC
:100FA0006D917C911797CE0101960E94BD13A9CF38
:100FB000C801089687DE882309F4A9CFCAD3A7CF32
:100FC000FC018827EE58FF4F8F4F0C948412EA8063
:100FD000FB80F801648575856E0D7F1D9701C80142
:100FE00063DD882309F4BECFD8015196ED91FC91C1
:100FF0005297C8011995F8018685813009F0B2CF62
:1010000084859585B701680F791FC8010E945C121D
:10101000A9CF6A817B81D8011D967C936E931C9722
:10102000640F751F9A01C8013FDD9CCFC801C1D56F
:1010300099CF29853A85232B09F020CF0F900FBE39
:1010400088CE87D352CFC801FDD248D44ECFC80135
:10105000F9D244D4C801EBD2882309F446CF79CE23
:10106000789484B5826084BD84B5816084BD85B583
:10107000826085BD85B5816085BD80916E0081608F
:1010800080936E0010928100809181008260809335
:101090008100809181008160809381008091800037
:1010A0008160809380008091B10084608093B10062
:1010B0008091B00081608093B00080919100826047
:1010C0008093910080919100816080939100809144
:1010D00090008160809390008091A1008260809355
:1010E000A1008091A10081608093A1008091A00067
:1010F00081608093A0008091210182608093210112
:101100008091210181608093210180912001816083
:101110008093200180917A00846080937A0080918E
:101120007A00826080937A0080917A008160809357
:101130007A0080917A00806880937A001092C100D2
:10114000B2DB01E912E020E040EC50E06BE172E03C
:101150008CE790E00E94CA10813009F08DC00FB674
:10116000F8940F928091970290919802892B31F513
:1011700086E892E010D58DE792E00DD586E892E002
:1011800090937C0280937B028DE792E090937A02A9
:101190008093790281E590E01AD5EC01009751F037
:1011A0004F96998388838AE08B8F85E08C8FCE0160
:1011B0000E943212D0939802C09397020F900FBEF4
:1011C0008091970290919802892B09F455C00FE8FD
:1011D00012E023E045E550E060E272E08FE996E03E
:1011E000D9D7813009F048C0F8942FEF3FEF309302
:1011F0006C0220936B028093B8021092BD02109291
:10120000BC02A89520EC88E190E00FB6F894A89570
:10121000809360000FBE20936000A091BA02B0914D
:10122000BB02CD91CDBFDD91DEBFFF91EF91DF918C
:10123000CF91BF91AF919F918F917F916F915F916E
:101240004F913F912F911F910F91FF90EF90DF9061
:10125000CF90BF90AF909F908F907F906F905F9056
:101260004F903F902F901F900F900CBE0F900BBE91
:101270000F900FBE0F90089505DA0F920FB6F894F5
:101280000F920BB60F920CB60F921F9211242F9251
:101290003F924F925F926F927F928F929F92AF9206
:1012A000BF92CF92DF92EF92FF920F931F932F93F3
:1012B0003F934F935F936F937F938F939F93AF93DE
:1012C000BF93CF93DF93EF93FF93A091BA02B091B6
:1012D000BB020DB60D920EB60D9213BE8091960212
:1012E0008111F3C08091BC029091BD020196909350
:1012F000BD028093BC02009799F520919B0230912A
:101300009C024091990250919A0250939C02409302
:101310009B0230939A02209399022091BE022F5F84
:101320002093BE02E0919B02F0919C02208121114A
:1013300007C02FEF3FEF30936C0220936B0210C079
:10134000E0919B02F0919C020580F681E02D0680E1
:10135000F781E02D2281338130936C0220936B0260
:1013600020916B0230916C028217930710F420E0F9
:101370009CC020E019E0E0919B02F0919C0230813A
:10138000311107C08FEF9FEF90936C0280936B0237
:101390008CC0E0919B02F0919C020580F681E02DCB
:1013A0000680F781E02D428153818417950728F448
:1013B00050936C0240936B0278C0AF014E5F5F4F59
:1013C000A285B38564817581E680F780EB01FD829B
:1013D000EC82C681D7817B836A8311966D917C9163
:1013E00012976417750721F41296DC93CE93119728
:1013F000138612863C9131503C933C91A489B58967
:101400001097F9F066857785E088F188EB01FD8219
:10141000EC82C089D1897B836A831196ED90FC9020
:101420001297BF01645F7F4FE616F70621F412960C
:10143000DC93CE931197158A148A3C9131503C93DA
:101440003C91A6893091E3023A1710F4A093E3028D
:101450001A9FD0011124BD0161547D4F7B01DB0136
:101460001196CD91DC911297D583C4836C817D81D7
:10147000778366836C817D81DB0113965C934E9349
:1014800012975D834C83F386E286E70138813F5FE4
:101490003883A091BA02B091BB02468956963C911E
:1014A000431708F468CF21E066CFE091BA02F091CB
:1014B000BB02E689D9E0ED9FF0011124E154FD4F14
:1014C0008081823040F021E006C0809195028F5FDC
:1014D0008093950220E080916A02811103C022234B
:1014E00009F466C080919602882321F081E0809300
:1014F0006A025EC010926A02A091BA02B091BB0269
:10150000E091BA02F091BB022D913C918789908DB8
:1015100082179307A8F08091BA029091BB02809144
:10152000BA029091BB02279A2F9A2FEF67EA71E6D1
:10153000215060407040E1F700C000001F9AF5CFD5
:101540008091E30269E001C08150482F50E0649F20
:101550009001659F300D1124F901E154FD4F9081F8
:10156000992391F3A181B28112960D90BC91A02D87
:10157000B283A1832E533D4FA217B30731F41296C5
:101580002D913C9113973283218399E0949FF00130
:10159000959FF00D1124E154FD4F0180F281E02D63
:1015A000268137813093BB022093BA028093E302F5
:1015B000A091BA02B091BB02CD91CDBFDD91DEBF4B
:1015C000FF91EF91DF91CF91BF91AF919F918F915B
:1015D0007F916F915F914F913F912F911F910F914B
:1015E000FF90EF90DF90CF90BF90AF909F908F9043
:1015F0007F906F905F904F903F902F901F900F9033
:101600000CBE0F900BBE0F900FBE0F9008950FB63B
:10161000F8940F928091BC029091BD020F900FBE82
:101620000895809196028F5F8093960208950FB679
:10163000F8940F92FC01928D0F900FBE81E09111F2
:1016400080E00895EF92FF920F931F93CF93DF9363
:10165000EC010FB6F8940F921E8D7C0181E1E80E2B
:10166000F11C01E0111654F48989882339F0C7016F
:1016700029DB811100936A021150F4CF8FEF8E8F16
:101680000F900FBE0FB6F8940F921D8D7E0188E06B
:10169000E80EF11C01E0111654F48885882339F016
:1016A000C70110DB811100936A021150F4CF8FEF54
:1016B0008D8F0F900FBEDF91CF911F910F91FF90F3
:1016C000EF900895DADD1895CF93DF93FC01A085A4
:1016D000B1858281938124813581EC013D832C8306
:1016E000C481D5819B838A8311968D919C91129799
:1016F0008E179F0721F41296DC93CE9311971186D3
:1017000010868C9181508C938C91DF91CF910895AC
:10171000CF93DF939C01FB01DC011196CD91DC910D
:101720001297D383C2838C819D81958384838C811E
:101730009D81DC0113967C936E9312977D836C835D
:1017400031872087F90180818F5F8083DF91CF917E
:1017500008950F920FB6F8940F920BB60F920CB635
:101760000F921F9211242F923F924F925F926F928D
:101770007F928F929F92AF92BF92CF92DF92EF9221
:10178000FF920F931F932F933F934F935F936F930A
:101790007F938F939F93AF93BF93CF93DF93EF93F9
:1017A000FF93A091BA02B091BB020DB60D920EB696
:1017B0000D9280919602882321F081E080936A0245
:1017C0005EC010926A02A091BA02B091BB02E09191
:1017D000BA02F091BB022D913C918789908D8217BE
:1017E0009307A8F08091BA029091BB028091BA024F
:1017F0009091BB02279A2F9A2FEF87EA91E621500A
:1018000080409040E1F700C000001F9AF5CF809122
:10181000E30269E001C08150482F50E0649F9001CD
:10182000659F300D1124F901E154FD4F90819923FA
:1018300091F3A181B28112960D90BC91A02DB2833B
:10184000A1832E533D4FA217B30731F412962D9169
:101850003C9113973283218399E0949FF001959FE7
:10186000F00D1124E154FD4F0180F281E02D26811D
:1018700037813093BB022093BA028093E302A09198
:10188000BA02B091BB02CD91CDBFDD91DEBFFF9119
:10189000EF91DF91CF91BF91AF919F918F917F9108
:1018A0006F915F914F913F912F911F910F91FF90F9
:1018B000EF90DF90CF90BF90AF909F908F907F90F0
:1018C0006F905F904F903F902F901F900F900CBEA5
:1018D0000F900BBE0F900FBE0F9008958F929F92A6
:1018E000AF92BF92CF92DF92EF92FF920F931F932E
:1018F000CF93DF930FB6F8940F92809196028150A8
:101900008093960280919602882311F080E0EBC0CC
:101910008091B9028823D1F3C0E0D0E029E0F22E13
:10192000EE24E3948091AF02882339F1E091B40270
:10193000F091B502C681D781CE010C96C5DE8E012D
:101940000E5F1F4FC801C0DE9E898091E302891798
:1019500010F49093E302F99EC0011124B801815460
:101960009D4FD6DEE091BA02F091BB029E89868936
:101970009817C0F2E0926A02D5CFCD2B11F00E94E9
:101980004F03E0909502EE2009F4A6C089E0B82E3E
:10199000AA24A394CC24CA94DC2C809196028111B1
:1019A00089C0C091BC02D091BD022196D093BD02E6
:1019B000C093BC022097B9F480919B0290919C0245
:1019C0002091990230919A0230939C0220939B02BD
:1019D00090939A02809399028091BE028F5F8093C8
:1019E000BE020E944F0380916B0290916C02F12C19
:1019F000C817D90708F44EC0E0919B02F0919C02F1
:101A00008081811105C0D0926C02C0926B0242C0ED
:101A1000E0919B02F0919C020580F681E02D068109
:101A20001781D80112968D919C911397C817D907E9
:101A300028F490936C0280936B022CC04801B2E0B2
:101A40008B0E911CC40140DEF80184899589892B95
:101A500019F0C8010C9638DED80156968C919091F9
:101A6000E302981710F48093E302B89EC00111249A
:101A7000B40181549D4F4CDEE091BA02F091BB025B
:101A8000D80156969C918689981708F4B5CFFF2403
:101A9000F394B2CFE091BA02F091BB02E689BE9E08
:101AA000F0011124E154FD4F8081823048F0FF2481
:101AB000F39406C0809195028F5F80939502F12C7C
:101AC00080916A02811101C0F110A0926A02EA9429
:101AD000E11063CF1092950280916A02882309F485
:101AE00015CF37DE81E00F900FBEDF91CF911F91B0
:101AF0000F91FF90EF90DF90CF90BF90AF909F90AD
:101B00008F9008950F931F93CF93DF938C01FB0168
:101B1000808191818F3F2FEF920721F4E801AF81FF
:101B2000B8850EC0D801139612962D913C9113974B
:101B3000E901488159818417950710F0D901F4CF44
:101B400012968D919C91139793838283EC01FD8370
:101B5000EC83B583A4831396FC93EE9312971187BD
:101B60000087F80180818F5F8083DF91CF911F9183
:101B70000F910895CF93DF93EB012091BA0230913A
:101B8000BB02B901645F7F4FBDDF61E0CE01DF9131
:101B9000CF910C94C905FC010396928381832FEFAA
:101BA0003FEF3483238396838583908787831082D6
:101BB0000895CF93DF93009739F0EC0132DDCE0129
:101BC00040D5DF91CF918ACEDF91CF9108950F93C9
:101BD0001F93CF93DF931F921F92CDB7DEB78983F8
:101BE0009A831FDD89819A8197D48C0177DE011554
:101BF000110511F40E944203C8010F900F90DF916C
:101C0000CF911F910F910895E4EEF2E013821282BA
:101C100048EE53E060E070E0448355836683778349
:101C20008DE092E0918380832DEC30E0358724872E
:101C30002CEC30E03787268728EC30E0318B208B86
:101C400029EC30E0338B228B2AEC30E0358B248B6F
:101C50002EEC30E0378B268B118E128E138E148E65
:101C6000E1E8F3E01382128244835583668377832D
:101C70009183808385EC90E09587848784EC90E065
:101C80009787868780EC90E0918B808B81EC90E049
:101C9000938B828B82EC90E0958B848B86EC90E02A
:101CA000978B868B118E128E138E148E0895B9DC4D
:101CB00060E08AE090E00E94C90510DE811101C059
:101CC00048CD0895AF92BF92DF92EF92FF920F93AB
:101CD0001F93CF93DF9300D01F921F92CDB7DEB733
:101CE0008C017B011D821C8290E0580188E0A80EC7
:101CF000B11C0FB6F8940F92F801228D838D28172E
:101D000008F069C0D28C448D41113DC08081918121
:101D1000892B09F04FC0F801E280F380E114F1044F
:101D200011F480E02CC0F70182A1815082A32689A2
:101D300091A12917B1F38111F4CF5701F2E0AF0E51
:101D4000B11CC501C1DCF70191A1968B492F50E070
:101D500024E030E0241B350B358724878091E30293
:101D6000891710F49093E30229E0249FC001259F76
:101D7000900D1124B50181549D4FCADC81E0F8011A
:101D80001382128218C050E0B701F8018481958156
:101D9000F4D4F801248D84819581820F911D95835F
:101DA0008483228133818217930720F0808191817F
:101DB0009583848380E0D394F801D28E918999230E
:101DC00021F0C80141960E9462068111C2DC0F9089
:101DD0000FBE81E04CC02C813D81232B19F40F9064
:101DE0000FBE44C0911109C08091BE0289838091C9
:101DF000BC029091BD029B838A830F900FBE11DCC1
:101E00000FB6F8940F92F801858D8F3F09F4158E67
:101E1000F801868D8F3F09F4168E0F900FBEBE011C
:101E20006C5F7F4FCE0101960E942C0681111BC072
:101E30000FB6F8940F92F801928D838D0F900FBE1C
:101E400098130DC06C817D81C50194DEC801FADB59
:101E500045DD882311F091E04CCF7BDCFCCFC8013D
:101E6000F1DB3CDDF8CFC801EDDB38DD80E00F9021
:101E70000F900F900F900F90DF91CF911F910F91C6
:101E8000FF90EF90DF90BF90AF9008956F927F9298
:101E90008F929F92AF92BF92CF92DF92EF92FF927A
:101EA0000F931F93CF93DF9300D01F921F92CDB754
:101EB000DEB78C0185E090E09D838C83D12C90E08F
:101EC000580121E1A20EB11C89E0C82E24E0822E27
:101ED000912C0FB6F8940F92D8015A968C915A977C
:101EE000882359F181505A968C935A978D919C91E1
:101EF000892BA1F48091BA029091BB02892B39F011
:101F0000E091BA02F091BB0282A18F5F82A380911F
:101F1000BA029091BB02F80193838283D80118968C
:101F20008C91882331F0C80108960E9462068111C5
:101F300010DC0F900FBE81E019C12C813D81232B55
:101F400009F411C1911109C08091BE028983809169
:101F5000BC029091BD029B838A830F900FBE61DB10
:101F60000FB6F8940F92F801858D8F3F09F4158E06
:101F7000D8015E968C915E978F3F11F45E961C920D
:101F80000F900FBEBE016C5F7F4FCE0101960E9485
:101F90002C06811182C0C8014ADB882309F479C06C
:101FA000F80180819181892B09F066C00FB6F89401
:101FB0000F92E280F380E114F10409F45AC0F701B2
:101FC0008689E091BA02F091BB029689891708F0E0
:101FD00044C0D7011C962D913C911D9737FD0CC034
:101FE000E091BA02F091BB0296899401291B310954
:101FF0001D963C932E931C97C89EC00111248154BA
:102000009D4FF7012285338528173907E1F4370101
:10201000F2E06F0E711CC30157DBE091BA02F09140
:10202000BB022689D70156962C938091E302821732
:1020300010F42093E302C29EC0011124B301815425
:102040009D4F66DB07C0E091BA02F091BB02868922
:10205000F701868BDD24D3940DC0E091BA02F09194
:10206000BB02DD24D394D70191969C918689981761
:1020700008F0D12C0F900FBE6C817D81C5017ADDF7
:10208000C801E0DA2BDC882311F091E022CF61DB7C
:10209000FCCFC801D7DA22DCF8CFC801D3DA1EDCC6
:1020A000C801C5DA882389F3DD2009F45EC00FB6C4
:1020B000F8940F92F8018189882339F00688F7890E
:1020C000E02D908184E0891B01C080E0D801129648
:1020D0000D911C9113970115110509F444C0F801E5
:1020E00091A1891708F4892FD80156969C9156978B
:1020F0009817C9F192962C9192972130A1F5569696
:102100008C9356971C962D913C911D9737FD08C0D6
:1021100024E030E0281B31091D963C932E931C9738
:10212000B9E09B9FC001112481549D4FF801228585
:10213000338528173907B9F47801F2E0EF0EF11C66
:10214000C701C2DAD80156969C918091E3028917A3
:1021500010F49093E302B9E09B9FC0011124B701F2
:1021600081549D4FD5DA0F900FBE80E00F900F90F5
:102170000F900F900F90DF91CF911F910F91FF90D3
:10218000EF90DF90CF90BF90AF909F908F907F9017
:102190006F9008957F928F929F92AF92BF92CF924D
:1021A000DF92EF92FF920F931F93CF93DF93982EBE
:1021B000C92E762E872EEA01D22ECA0108DD5C01D7
:1021C000892B09F440C188E290E001DD7C01009791
:1021D000D1F0DC015896BC92AE925797AE0165EAF9
:1021E00070E0C501D3D22197D7015796ED91FC91AC
:1021F0005897EC0FFD1FB701675E7F4FA72DB82DD5
:10220000CD01089606C0C501D4DC1DC1A817B907C9
:1022100049F09D014D91EB014993BE01E9012881EF
:102220002111F4CFD70190961C922D2D243008F067
:1022300023E0E7012E8B29A31AA21B861A861D8A8A
:102240001C8AF986E88684E090E0821B91099D87CC
:102250008C87FB8AEA8A1BA21CA21DA21EA21FA2B7
:1022600091E19083DF01119782E28C93119723E330
:102270002C9311979C921197CC9211971C921197C5
:102280001C92119720E82C9311971C9211971C9285
:1022900011971C92119722E02C93119723E02C9315
:1022A000119724E02C93119725E02C93119726E0A9
:1022B0002C93119727E02C93119728E02C931197DA
:1022C00029E02C93119720E12C9311979C9311975F
:1022D00092E19C93119793E19C93119794E19C93C5
:1022E000119795E19C93119796E19C93119797E133
:1022F0009C93119798E19C93119799E19C93119766
:1023000090E29C93119791E29C9311978C93119773
:1023100083E28C9311971C9211971C92119786E27D
:102320008C93119787E28C93119788E28C93119785
:1023300089E28C93119780E38C93119781E38C93BE
:10234000B997F983E8830115110519F0F801F182B5
:10235000E0820FB6F8940F928091B9028F5F80935C
:10236000B9028091BA029091BB02892B89F5F09253
:10237000BB02E092BA028091B902813009F03AC002
:102380008FEB92E008DC88EC92E005DC81ED92E0D6
:1023900002DC8AED92E0FFDB87E294E0FCDB8EE179
:1023A00094E0F9DB8FEA92E0F6DB86EA92E0F3DB79
:1023B0008DE992E0F0DB87E294E090939C028093B9
:1023C0009B028EE194E090939A028093990212C04E
:1023D0008091B80281110EC0E091BA02F091BB0267
:1023E0009689D70156968C91891720F0F092BB02FE
:1023F000E092BA02809130048F5F80933004E7014D
:102400008E899091E302981710F48093E302D9E04B
:102410008D9FC0011124B7016E5F7F4F81549D4F86
:1024200077D90F900FBE8091B802882351F0E091C8
:10243000BA02F091BB029689F7018689981708F4D1
:1024400088D981E001C08FEFDF91CF911F910F916B
:10245000FF90EF90DF90CF90BF90AF909F908F90C4
:102460007F900895CF93DF93EC010FB6F8940F920D
:10247000288139819B8D4C8D949FC0011124B90115
:10248000680F791F7B836A831A8E3D832C83841B9C
:102490009109820F931F9F838E838FEF8D8F8E8F75
:1024A000CE01089678DBCE01419675DB0F900FBE0A
:1024B00081E0DF91CF910895CF93DF9300D01F92F9
:1024C0001F92CDB7DEB79C01809197029091980240
:1024D000009761F019827B836A833D832C8320916E
:1024E000B802222329F02091960202C080E004C0A5
:1024F000BE016F5F7F4FE6DB0F900F900F900F9044
:102500000F90DF91CF910895EE0FFF1F881F8BBFB3
:102510000790F691E02D1994CF93DF9382309105C7
:1025200010F482E090E0E0913304F091340420E074
:1025300030E0C0E0D0E0309711F140815181481780
:102540005907C0F04817590761F482819381209799
:1025500019F09B838A832BC09093340480933304B7
:1025600026C02115310519F04217530718F49A01B6
:10257000BE01DF01EF010280F381E02DDCCF2115E8
:10258000310509F1281B390B2430310590F41296DE
:102590008D919C9113976115710521F0FB01938337
:1025A000828304C09093340480933304FD013296F7
:1025B00044C0FD01E20FF31F819391932250310932
:1025C0002D933C933AC02091310430913204232B57
:1025D00041F420910202309103023093320420939F
:1025E000310420910002309101022115310541F49E
:1025F0002DB73EB74091040250910502241B350BC4
:10260000E0913104F0913204E217F307A0F42E1B9D
:102610003F0B2817390778F0AC014E5F5F4F241746
:10262000350748F04E0F5F1F50933204409331043A
:102630008193919302C0E0E0F0E0CF01DF91CF9170
:1026400008950F931F93CF93DF93009709F48CC0E5
:10265000FC013297138212820091330410913404EA
:102660000115110581F420813181820F931F209182
:102670003104309132042817390779F5F093320488
:10268000E093310471C0D80140E050E0AE17BF07BD
:1026900050F412962D913C911397AD0121153105FF
:1026A00009F1D901F3CF9D01DA01338322836081DF
:1026B0007181860F971F8217930769F4EC012881B7
:1026C0003981260F371F2E5F3F4F318320838A8148
:1026D0009B8193838283452B29F4F0933404E09308
:1026E000330442C01396FC93EE931297ED01499187
:1026F00059919E01240F351FE217F30771F4808171
:102700009181840F951F029611969C938E938281DE
:10271000938113969C938E931297E0E0F0E0D8019A
:1027200012968D919C911397009719F0F8018C01E6
:10273000F6CF8D919C9198012E5F3F4F820F931F92
:1027400020913104309132042817390769F4309709
:1027500029F4109234041092330402C013821282BE
:102760001093320400933104DF91CF911F910F91A8
:10277000089581E090E0F89439C0FB01DC0102C0CB
:1027800001900D9241505040D8F70895DC0101C0EE
:102790006D9341505040E0F70895FB01DC0141503A
:1027A000504048F001900D920020C9F701C01D92E1
:1027B00041505040E0F70895FB0151915523A9F095
:1027C000BF01DC014D9145174111E1F759F4CD01ED
:1027D0000190002049F04D9140154111C9F3FB01D2
:1027E0004111EFCF81E090E001970895F894FFCF79
:1027F0000000350480003E2000000000009301DB53
:10280000002301D90154013201460149444C4500DD
:10281000546D722053766300566F6C74733A0041A6
:102820006D70733A0057617474733A00456E657247
:1028300067793A005F5F5F5F5F5F00526561644682
:1028400075656C43656C6C00526561644D6F746FA7
:0A28500072506F776572000D0A00E8
:00000001FF
