:1000000047C1000076C1000074C1000072C1000049
:1000100070C100006EC100006CC100006AC1000028
:1000200068C1000066C1000064C1000062C1000038
:100030000C94F3255EC100005CC100005AC10000B1
:1000400058C1000056C1000054C1000052C1000058
:1000500050C100004EC100004CC100000C94731A46
:1000600048C100000C9426170C94FD1642C10000F4
:1000700040C100003EC100003CC100003AC1000088
:1000800038C1000036C1000034C1000032C1000098
:100090000C94D4160C94AB162CC100000C94CA0A14
:1000A00028C1000026C1000024C1000022C10000B8
:1000B00020C100001EC100001CC100001AC10000C8
:1000C00018C1000016C1000014C100000C94821673
:1000D0000C9459160EC100000CC100000AC10000AA
:1000E00008C10000E119E419D319D719DB191B1A4B
:1000F000E819EC19F219F619FA19001A041A081A73
:100100001B1A0E1A121A161AC125C125C1258825D7
:10011000E325F025C125C1258825E325000022001F
:10012000250028002B002E003100340002010000C1
:10013000050108010B0100002100240027002A000E
:100140002D003000330001010000040107010A0105
:1001500005050505070508080808020202020A0A43
:100160000808040404040101010101010101030361
:10017000030303030303040707070C0C0C0C0C0C0C
:100180000C0C0202020206060606060606060B0B09
:100190000B0B0B0B0B0B010210202008081020404A
:1001A000102040800201020108040201010204083B
:1001B00010204080804020100804020180040201C9
:1001C0008040201008040201080402010102040812
:1001D0001020408001020408102040807C3C3E5EDC
:1001E0002B3D3F2F5B5D3B2C2A225C0000000A0B5D
:1001F00002090C0D0E0807030401000000000000B6
:1002000000000000000000000000000000000000EE
:1002100000000000000000001211100000000000AB
:1002200000000000000000000000000000000000CE
:1002300000008091D503882309F10FB6F8940F923E
:10024000E091DC03F091DD03C681D781CE010296F7
:100250000E94201F8091D60381508093D603809105
:10026000D50381508093D5030F900FBE8F89988D51
:100270000E947020CE010E947020DBCF8091F90592
:10028000823010F00E94651F0E94E213D2CFF62543
:1002900011241FBECFEFD1E2DEBFCDBF00E00CBF07
:1002A00012E0A0E0B2E0E8E9F2E500E00BBF02C036
:1002B00007900D92A43DB107D9F728E0A4EDB2E074
:1002C00001C01D92A435B207E1F711E0C8E4D1E006
:1002D00000E006C021970109802FFE010E949527AA
:1002E000C734D10780E00807A9F70E94491C0C9485
:1002F0004A2986CEFC01DB0112968D919C911397C1
:100300009383828383E792E09183808314968C9118
:100310001497848315968C911597858316964D9125
:100320005D916D917C9119974683578360877187A2
:100330001A964D915D916D917C911D9742875387DF
:10034000648775871E964D915D916D917C91519753
:1003500046875787608B718B52968C915297828B10
:1003600053964D915D916D917C915697438B548B33
:10037000658B768B57964D915D916D917C915A97D7
:10038000478B508F618F728F5B968D919C915C979C
:10039000948F838F0895DC015996ED91FC915A97C3
:1003A0003097B9F083899489A589B68942855385A8
:1003B00064857585841B950BA60BB70B811520E80A
:1003C0009207A105B10538F08FEF9FE7A0E0B0E0FC
:1003D000089580E090E00895CF93DF931F92CDB70A
:1003E000DEB76983DC01ED91FC910280F381E02DA1
:1003F00041E050E0BE016F5F7F4F19950F90DF9194
:10040000CF910895089580E090E00895FC01818DDA
:10041000928D009711F00C94DE100895CF93DF9326
:10042000EC01898D9A8D009739F481E090E09B83EF
:100430008A8380E090E00BC0FC01138212820E944C
:100440001A11E98DFA8D22813381232B71F7DF9107
:10045000CF910895EF92FF920F931F93CF93DF9365
:10046000EC017B018A011B821A8288EE93E0A0E0F6
:10047000B0E08C839D83AE83BF838BE292E099834F
:1004800088838DE190E00E94B6279A8F898F00972C
:1004900079F02DE1F701DC0101900D922A95E1F749
:1004A0004CE050E0B801CE010C960E942129188E34
:1004B000DF91CF911F910F91FF90EF9008950F93CF
:1004C0001F93CF93DF938C01EB01BC0164597F4FE5
:1004D000CE010E941A2964E972E0CE010E9404292B
:1004E000B80169597F4FCE010E94042964E972E086
:1004F000CE010E940429B8016F587F4FCE010E949F
:10050000042964E972E0CE010E940429B8016A5806
:100510007F4FCE01DF91CF911F910F910C94042951
:10052000CF93DF93EC01FB0179836883DC01AA5947
:10053000BF4F1C92A089B18982E08C93A485B585B8
:100540001C92A685B78587E68C93108EA489B58901
:1005500086E08C93A289B3898C9180618C93A28967
:10056000B3898C9188608C93A289B3898C918068BF
:100570008C930288F389E02D80818F7D808367E8EA
:1005800072E0CE0184599F4F0E941A2967E872E0F9
:10059000CE0189599F4F0E941A296DE872E0CE0161
:1005A0008F589F4F0E941A296CE872E0CE018A583A
:1005B0009F4FDF91CF910C941A29EF92FF920F93E6
:1005C0001F93CF93DF93EC018A599F4F7C01888161
:1005D0009981DC01ED91FC910084F185E02D199564
:1005E000892BA9F0D7011C91133688F481E0810F83
:1005F0008C9388819981DC01ED91FC910284F385D3
:10060000E02D1995FE01E10FF11D8283E0CFF70186
:100610008081FE01E80FF11D128264E272E0CE01DA
:1006200002960E9430298C01009709F450C0FC0109
:1006300001900020E9F73197E81BF90B7997A0F4B6
:1006400080E0282F30E0F801E20FF31F9081FE01D7
:10065000E20FF31F928321E0280F992311F0822FDC
:10066000F0CFF701808335C0BC016E5F7F4F44E05F
:1006700050E0CE0184599F4F0E942129B801685F44
:100680007F4F44E050E0CE0189599F4F0E942129BD
:10069000B801625F7F4F44E050E0CE018F589F4F1A
:1006A0000E942129B8016C5E7F4F45E050E0CE01E9
:1006B0008A589F4F0E942129FE01E558FF4F108262
:1006C000369710823A971082C059DF4F1882D701AF
:1006D0001C92DF91CF911F910F91FF90EF900895A1
:1006E0008FE290E00E940723FBCFCF93DF93CDB73B
:1006F000DEB7C35AD1090FB6F894DEBF0FBECDBF27
:10070000CB57DF4F19821882C558D0408EE092E057
:10071000CD57DF4F99838883C358D040CD56DF4FE4
:100720001882C359D0408FEFCE56DF4F8883C2590D
:10073000D040CF56DF4F1882C159D040CC56DF4F42
:100740001882C459D04087E2C257DF4F8883CE5801
:10075000D040C157DF4F1882CF58D040C057DF4F2D
:100760001882C059D040C457DF4F19821882CC5824
:10077000D04084E0CB56DF4F8883C559D04082E01B
:10078000CA56DF4F8883C659D04081E0C956DF4F33
:100790008883C759D04080E1C856DF4F8883C85945
:1007A000D04080E2C756DF4F8883C959D04080E4EB
:1007B000C656DF4F8883CA59D04080E8C556DF4F00
:1007C0008883CB59D04040E050E063E0CE018D57A4
:1007D0009F4F0E944F1720E044E064E1CE018D5707
:1007E0009F4F0E94DD186FEFCE018D579F4F0E94E3
:1007F0003C1861961FAE61971CAE18A61C8A34E1A6
:10080000D32E41E5E42EF12CEC0EFD1E22E0E20E8B
:10081000F11C50E4C52E64E5B62E70E1A72EE0E58C
:100820009E2EBE016F5A7F4F80914C0890914D08CB
:100830000E94201B813009F08EC062968FAC6297B7
:10084000882D63969FAD6397D89E8001D99E100D29
:100850001124E1E0F0E0EC0FFD1F0E0F1F1F880FC9
:10086000991FFC01E25EFD4F6081718142E050E022
:10087000C8010E94212962E972E0C80102960E9423
:100880001A2949E050E0B701C80105960E942129C4
:10089000F8011686882DC056DF4F1882C05AD04006
:1008A000CF55DF4FC882C15AD040CE55DF4FD882D6
:1008B000C25AD040CD55DF4FB882C35AD040C4563B
:1008C000DF4F1882CC59D040C356DF4FC882CD5974
:1008D000D040C256DF4FA882CE59D040C156DF4F1C
:1008E0009882CF59D040C657DF4F2881CA58D04090
:1008F000821610F08FEF820FC557DF4F3881CB582B
:10090000D04090E0303129F4243019F4ECE9F0E0E3
:1009100002C0E0EAF0E0EC0FFD1FE80FF91F608174
:100920006068CE018D579F4F0E94551863968EAD1B
:100930009FAD6397D89EB001D99E700D112421E020
:1009400030E02C0F3D1F620F731FCE018D579F4F5C
:100950000E94441666CF8DE190E00E94072361CF8C
:10096000CF93DF93CDB7DEB7C65AD1090FB6F8944F
:10097000DEBF0FBECDBF7E0180E5E80EF11C98EE14
:10098000292E93E0392E412C512CBE016F5F7F4FF1
:1009900080914E0890914F080E94201B813009F0F1
:1009A0001EC1E981FA81EE0FFF1FE25EFD4FC0809C
:1009B000D180B60188E597E00E944416E09158077F
:1009C000F09159070190F081E02D69E088E597E00A
:1009D0001995BE016D5F7F4F88E597E00E94441630
:1009E00066E972E088E597E00E9444168091D5029E
:1009F000882309F4F4C06DE278E0C7017BDC1EAA0D
:100A00001DAAE3E7F2E0FCABEBAB18AE5601CE015A
:100A1000C3964C0137016FE270E0C5010E940F29B7
:100A2000F501009709F444C020812F3221F4FFEF33
:100A3000AF1ABF0AF0CF8A198D3008F08CE0082F6A
:100A400010E0A801B501CE0186579F4F0E942129D1
:100A5000EAE8F0E0EC0FFD1FE00FF11F1082C40187
:100A60000E94B312F4018581882371F0E1961FAED4
:100A70001EAEE19783E792E0AF969FAF8EAFAF9740
:100A8000E3961FAEE39721C0AE0146575F4FB30117
:100A9000C4010E941214882349F3A00EB11EC301A1
:100AA0000E94B312962D872D3401892E982EB3CF34
:100AB000EC19FD09CB55DF4FF983E883C55AD040C7
:100AC000B301CE0183599F4F15DCCB55DF4F888191
:100AD0009981C55AD040C80ED91EF6018081811176
:100AE00009C0BE0163597F4FCE01C39603DC49E9BB
:100AF00052E04DC0F7011382128283E792E09183A6
:100B000080831582E3968FADE397811122C0C4578D
:100B1000DF4F19821882CC58D040C257DF4F28824D
:100B200039824A825B82CE58D040EBE2F2E0C6576F
:100B3000DF4FF983E883CA58D040CD55DF4F198283
:100B40001882C35AD040CA56DF4F1882C659D040C7
:100B500025C08250A601823040F46DE278E0C701E2
:100B60000E94121481110EC0D2CFBE0163597F4F73
:100B7000C7010E941214882351F2CE0183599F4F5E
:100B80000E94B312B701CE01C396B4DBA601BE0129
:100B90006D5C7F4FCE0186579F4F5CDCBE016D5F61
:100BA0007F4FCE0186579F4F0E94441666E972E040
:100BB000CE0186579F4F0E944416CD55DF4F888146
:100BC0009981C35AD040009751F00E94B312CD557D
:100BD000DF4F88819981C35AD0400E944B2882E11F
:100BE00090E00E940723D1CECF93DF93CDB7DEB73D
:100BF000E2970FB6F894DEBF0FBECDBF8C017C012B
:100C00008CE7E80EF11CCC24C394D12C1A821982F3
:100C1000BE016D5F7F4FC80152DC44E650E0BE016B
:100C20006F5F7F4F80914E0890914F080E94A626DB
:100C300044E650E0BE016F5F7F4F80914C08909179
:100C40004D080E94A626DA82C982BE016D5F7F4FE1
:100C5000C70135DC44E650E0BE016F5F7F4F8091F5
:100C60004E0890914F080E94A62644E650E0BE012F
:100C70006F5F7F4F80914C0890914D080E94A6268F
:100C80008EE390E00E940723C1CF7C016C018CE7CA
:100C9000C80ED11C0E94E3218C01C7018EDCC60165
:100CA0008CDC0E9401232091F6053091F705E801C4
:100CB000EC962017310720F4C017D10738F403C091
:100CC000C017D10760F02C173D0748F00E94ED21B6
:100CD000882311F08E01E1CF0E94651FFBCF60E0F9
:100CE000CE01821B930B0E940D21F0CF8EBD000020
:100CF0000DB407FEFDCF8EB508958FEFF7CFCF92DD
:100D0000DF92FF920F931F93CF93DF9300D01F9238
:100D1000CDB7DEB76C01F62E29833A834B835C8313
:100D200042D6C60188D56CE271E0C6016AD58F2D26
:100D30008064DCDF08E110E05C814B813A8129812D
:100D4000DA01C901002E04C0B695A795979587953D
:100D50000A94D2F729833A834B835C83C7DF085018
:100D6000110929813A814B815C81083F8FEF180777
:100D700039F7FF2029F0E8E0FE1204C087E803C03D
:100D800085E901C08FEFB2DF10E0B7DFF60182879F
:100D900087FF04C01F3F11F01F5FF7CF0F900F9028
:100DA0000F900F90DF91CF911F910F91FF90DF90E7
:100DB000CF9008958CBD9DBD08952F923F924F9284
:100DC0005F926F927F928F929F92AF92BF92CF92DB
:100DD000DF92EF92FF920F931F93CF93DF931F92B7
:100DE0001F92CDB7DEB7FC018581882309F4D6C0F8
:100DF000848180FFD3C021E02A8343895489658997
:100E0000768982859385A485B585481759076A0731
:100E10007B0709F41A826F013A81832F90E0DE018B
:100E200011964D013F01B6E06B0E711C892B09F440
:100E30007CC0D6011A964D915D916D917C911D9764
:100E40005A01B1E0BB22F60125811A012B0189E08C
:100E500056944794379427948A95D1F7838D948D2F
:100E6000223061F4FC01828D938DA48DB58DBC017F
:100E7000CD01620D731D841D951D44C0DC011496C7
:100E80001C9111501221A114B104C9F4111117C001
:100E9000452B462B472B51F4F6018789908DA18D68
:100EA000B28D86839783A087B18709C04681578119
:100EB00060857185930102D7882309F46FC0F6011C
:100EC000238D348D86819781A085B1850297A109F4
:100ED000B109AC01BD01F901058404C0440F551FDF
:100EE000661F771F0A94D2F786859785A089B189F6
:100EF000840F951FA61FB71FBC01CD01610F711D87
:100F0000811D911DD60114962C9126FF14C00091CD
:100F10000002109101022091020230910302601739
:100F200071078207930749F506C0FA81FF23B1F1E3
:100F3000898190E035C040E0DBD5882379F1F50167
:100F4000EC50FC4FD401CF010196E817F90719F0D6
:100F500021912D93FACFEFEF8E1A9E0AF60182852A
:100F60009385A485B5850196A11DB11D82879387C0
:100F7000A487B58780E090E059CF740101E010E0CC
:100F80009501AB01BC0180912D0390912E0323D5D7
:100F9000882321F0BFEF8B1A9B0AE0CF8FEF9FEFE2
:100FA0000F900F90DF91CF911F910F91FF90EF90D5
:100FB000DF90CF90BF90AF909F908F907F906F9079
:100FC0005F904F903F902F900895FC01818D928DFE
:100FD000009709F0F2CE8FEF9FEF08950F931F93C4
:100FE000CF93DF93FC01818D928D0097A9F0EF01E3
:100FF000E4DE8C010F3F8FEF180789F0898D9A8D01
:10100000FC0142855385648575854150510961090C
:1010100071093FD7C80105C080E090E002C08FEFA2
:101020009FEFDF91CF911F910F9108958F929F9223
:10103000AF92BF92CF92DF92EF92FF920F931F93E6
:10104000CF93DF93CDB7DEB7C85FD1090FB6F89461
:10105000DEBF0FBECDBFE0916807F091690782E067
:101060008083E0916407F09165071082E091660744
:10107000F09167078FEC808310927007E0916C0706
:10108000F0916D0786E08083E0916A07F0916B072D
:10109000808180618083E0916A07F0916B07808195
:1010A00088608083E0916A07F0916B078081806897
:1010B0008083E0916A07F0916B0780818F7D808348
:1010C00068EE73E080E090E00E942F1A10920E0804
:1010D00010920C08109209081092080884E080937E
:1010E00007080E94671A6B017C01809107080E9423
:1010F000251661E0809107080E94B2191FB7F89485
:101100008091D402811124C0E5E8F1E08491EBECF8
:10111000F1E09491E82FF0E0EE0FFF1FEA5CFE4F44
:10112000A591B491EC91E92321F461E085E30E945B
:10113000B21985E30E9425168CB580618CBD8CB5F3
:1011400080648CBD84E30E94251683E30E942516EB
:101150008091D4028F5F8093D4021FBF82E5809379
:10116000010810920208809101089091020822DE85
:101170001AE08FEFBBDD1150E1F783E098E05BD31D
:1011800020E030E0A90160E083E098E0B8DD182FAE
:1011900080930D08813049F00E94671A6C197D090F
:1011A000613D774068F381E04FC02AEA31E040E0DA
:1011B00050E068E083E098E0A2DD82FF03C0109376
:1011C0000E080DC014E099DD80930D081150D9F779
:1011D0008A3A11F082E038C082E080930E08809154
:1011E0000E08823021F0812C912C540105C0812CF5
:1011F000912CA12C30E4B32E20E030E0A90167E36C
:1012000083E098E07CDDA501940169E283E098E049
:1012100076DD80930D08882349F00E94671A6C19C7
:101220007D09613D774040F388E00EC080910E0853
:101230008230D1F420E030E0A9016AE383E098E055
:101240005EDD882339F086E08093080883E098E02B
:1012500007D3E3C052DD807C803C19F483E08093A7
:101260000E084BDD4ADD49DD83E098E0F9D280E5E8
:10127000809301081092020881E00E94F8148823EC
:1012800029F080913208882341F0C7C080E00E9495
:10129000F814882309F467C0F4CF809126088031C0
:1012A00009F582E0809332081092440810924508B4
:1012B00010924608109247088091270890912808BC
:1012C000A0E0B0E025E0880F991FAA1FBB1F2A9558
:1012D000D1F78093400890934108A0934208B093BF
:1012E00043081EC0803209F098C083E08093320822
:1012F0004091290850912A0860912B0870912C0880
:1013000040934408509345086093460870934708FB
:1013100020E438E08FE098E054D5882309F47DC0BC
:101320008FE098E0909349088093480881E080938B
:101330003108109233081092340810923508109238
:101340003608109237081092380810923908109217
:101350003A0810923B0810923C0810923D081092F7
:101360003E0810923F088093D5026BEB76E0CE01E9
:101370000196D6D86EE176E0CE0183589F4FD0D843
:10138000E12CF12C03E09E012F5F3F4F48EC50E031
:101390006BE972E085E496E00E94202320E030E0D3
:1013A00048EC50E060EA72E080E793E00E9420237E
:1013B00002E09E012F5F3F4F48EC50E066EA72E08A
:1013C00084EF95E00E94202301E020E030E04CE231
:1013D00051E06EEA72E080EB94E00E94202320E06E
:1013E00030E04CE251E066EB72E085E793E00E946A
:1013F0002023C850DF4F0FB6F894DEBF0FBECDBF1D
:10140000DF91CF911F910F91FF90EF90DF90CF90E0
:10141000BF90AF909F908F90089580E0A4CF85ED0E
:101420008093BC008091BC0084FDFCCF10928F03A0
:1014300008954091FE02262F30E0240F311D213205
:101440003105DCF420918F032430C9F4FC0180E0E5
:1014500090E0861758F43091FE022191DC01A452ED
:10146000BD4FA30FB11D2C930196F3CF8091FE02C7
:10147000680F6093FE0280E0089581E0089582E0A5
:1014800008950895E091910380919003E81730F456
:10149000F0E0EE56FC4F808190E008958FEF9FEFD3
:1014A00008959091910380919003981750F4E92F3B
:1014B000F0E0EE56FC4F208130E09F5F9093910367
:1014C00002C02FEF3FEFC90108958091900390E093
:1014D00020919103821B91090895CF92DF92EF92A0
:1014E000FF920F931F93CF93DF937C01262F972FAB
:1014F0008A0180914603882391F0C62FD72F6E0171
:10150000C40ED51ECC15DD0569F06991D701ED91AA
:10151000FC910190F081E02DC7011995F3CF642F64
:10152000822F87DFC801DF91CF911F910F91FF902C
:10153000EF90DF90CF900895CF93DF931F92CDB7B8
:10154000DEB76983209146032223D1F020916703FF
:10155000203240F021E030E0FC013383228380E040
:1015600090E014C080916803E82FF0E0E95BFC4F45
:10157000998190838F5F809368038093670304C091
:1015800061E0CE01019655DF81E090E00F90DF91A0
:10159000CF9108951F920F920FB60F9211240BB6A0
:1015A0000F922F933F934F935F936F937F938F93FC
:1015B0009F93AF93BF93EF93FF938091B900887F80
:1015C000803609F49CC068F5883209F45BC090F459
:1015D000803109F454C038F4882309F4F6C0883007
:1015E00009F44DC0F5C0883109F44CC0803209F4CB
:1015F0005DC0EEC0803409F468C048F4803309F45B
:1016000055C0883309F0E4C080938D03D8C080357D
:1016100009F44FC0883509F45DC0883409F0D8C09A
:10162000D6C0883909F4C7C0A8F4883709F467C060
:1016300038F4883609F463C0803709F460C0C8C044
:10164000883809F4B8C0803909F45FC0803809F0DF
:10165000BFC05BC0803B09F486C038F4803A09F40F
:1016600066C0883A09F47FC0B3C0803C09F4A7C0C3
:10167000883C09F4A4C0883B09F48AC0A9C08091C1
:101680008A0310C090918C0380918B03981770F59A
:10169000E0918C0381E08E0F80938C03F0E0E7599A
:1016A000FC4F80818093BB0085EC86C080938D03C6
:1016B0008EC0E0918C0381E08E0F80938C0380912B
:1016C000BB00F0E0E759FC4F808390918C03809140
:1016D0008B036EC0E0918C0381E08E0F80938C03AE
:1016E0008091BB00F0E0E759FC4F808380918E032E
:1016F00081116DC081E08093890384EA61C083E039
:1017000080938F0310922203CFCF809122038032E7
:1017100008F051C0E091220381E08E0F80932203F4
:101720008091BB00F0E0EE5FFC4F8083BDCF85EC85
:101730008093BC0010928F0380912203803230F49A
:10174000E0912203F0E0EE5FFC4F108260912203F3
:1017500070E0E0910003F091010382E093E01995BD
:101760001092220335C084E080938F031092FF0211
:101770001092FE02E091FC02F091FD021995809119
:10178000FE02811105C081E08093FE021092DC020E
:10179000E091FF0281E08E0F8093FF02F0E0E452BF
:1017A000FD4F80818093BB009091FF028091FE02EB
:1017B000981708F479CF85E88093BC0009C085ECC0
:1017C0008093BC0010928F0303C010928D0327DE1C
:1017D000FF91EF91BF91AF919F918F917F916F9109
:1017E0005F914F913F912F910F900BBE0F900FBEC5
:1017F0000F901F9018958FB7F8948091D6028FBFE5
:1018000008950F931F93CF93DF93EB010E94671A04
:101810008B0173DA8F3F49F00E94671A601B710BCE
:101820006C177D07B0F380E001C081E0DF91CF91BC
:101830001F910F910895CF93DF93EC018091D70210
:10184000811108C081E08093D702809101089091B6
:101850000208B0DA60E08C81DF91CF910C94B2196C
:1018600061E0FC0184810E94B2198091D70281114C
:101870001092D7020895EF92FF920F931F93CF9388
:10188000DF93EC017901411551056105710511F4F2
:1018900082E134C08B85833039F089E0440F551FD5
:1018A000661F771F8A95D1F79A01AB0168E1CE01D7
:1018B00026DA882311F084E021C08EEF17DA870141
:1018C0008EEFF81AF80181918F0110DA0E151F05BD
:1018D000C9F78FEF0BDA8FEF09DA0FDA8A878F718A
:1018E000853029F081E18D83CE01BADF08C068E53B
:1018F00072E0CE0186DF811106C085E18D83CE01C5
:10190000AFDF80E010C020E030E0A9016DE0CE0143
:10191000F6D9811103C0F1D9882311F084E1EECF0B
:10192000CE019EDF81E0DF91CF911F910F91FF905B
:10193000EF90089580912F03882399F14091000240
:1019400050910102609102027091030224EF33E092
:1019500080912D0390912E038EDF811102C080E0D3
:1019600008954091D8025091D9026091DA027091A5
:10197000DB02411551056105710589F024EF33E063
:1019800080912D0390912E0376DF882341F31092EE
:10199000D8021092D9021092DA021092DB02109251
:1019A0002F0381E00895CF93DF93EC018E8188238C
:1019B00079F08F8198859C012F5F3F4F38872F8367
:1019C0008230924010F499D9F4CFCE0149DF1E82C3
:1019D000DF91CF910895AF92BF92CF92DF92EF92B5
:1019E000FF920F931F93CF93DF93EC016901C8011E
:1019F000820F931F8130924008F06AC08E81882345
:101A000071F088819981AA81BB81481759076A07BB
:101A10007B0729F48F819885C816D90698F54883E5
:101A200059836A837B838B85833039F089E0440F47
:101A3000551F661F771F8A95D1F79A01AB0161E1A7
:101A4000CE015DD9882319F083E08D8341C00E94C7
:101A5000671A5B0152D98A878F3F49F40E94671A3F
:101A60006A197B096D327140A8F38FE003C08E3F85
:101A700029F08DE08D83CE01F3DE2AC018861F8207
:101A800081E08E838F8198858C159D0538F435D93A
:101A90008F819885019698878F83F4CF6701E00E38
:101AA000F11ECE14DF0429F028D9F60181936F01CD
:101AB000F8CF8F819885080F191F18870F838985A4
:101AC000882319F00115124038F0CE016CDF04C0F4
:101AD000CE01C6DE80E001C081E0DF91CF911F9191
:101AE0000F91FF90EF90DF90CF90BF90AF9008954F
:101AF0008F929F92AF92BF92EF92FF920F931F939C
:101B0000CF934B015C01C42F8091000290910102A0
:101B1000A0910202B091030288159905AA05BB05A0
:101B2000F1F008DF811102C080E01FC084EFE82ED1
:101B300083E0F82E00E012E020E030E0B501A401DF
:101B400080912D0390912E0346DF882369F38092C4
:101B5000000290920102A0920202B09203028091D0
:101B60002F03C82BC0932F0381E0CF911F910F91BA
:101B7000FF90EF90BF90AF909F908F9008954F92FD
:101B80005F926F927F928F929F92AF92BF92CF920D
:101B9000DF92EF92FF920F931F93CF93DF93EC01AD
:101BA0006A017B0128013901423051056105710547
:101BB00010F480E072C089859A85AB85BC8501965A
:101BC000A11DB11D84179507A607B70790F38B8851
:101BD0009C88AD88BE888F89803129F4BB27AF2DC2
:101BE0009E2D8D2D09C0DB01CA0147E0B695A79552
:101BF000979587954A95D1F7880E991EAA1EBB1E08
:101C00008091000290910102A0910202B091030222
:101C100088169906AA06BB0679F48F89803199F453
:101C2000DD24EE24FF24C601880F991FFC01EC502F
:101C3000FC4F5182408218C040E0C501B40158DF1A
:101C40008111EBCFB6CFE894C7F8DD24EE24FF2452
:101C5000C601880F991F880F991FFC01EC50FC4F9B
:101C6000408251826282738280912F0381608093CF
:101C70002F038A89823080F08D819E81AF81B88563
:101C8000880E991EAA1EBB1E8092D8029092D9027D
:101C9000A092DA02B092DB0281E0DF91CF911F9136
:101CA0000F91FF90EF90DF90CF90BF90AF909F90FB
:101CB0008F907F906F905F904F9008958F929F923A
:101CC000AF92BF92CF92DF92EF92FF920F931F934A
:101CD000CF93DF93FC0181859285A385B48501961E
:101CE000A11DB11D84179507A607B70710F480E062
:101CF0005BC083899489A589B689C789C03129F4D5
:101D0000852E962EA72EBB2409C04A015B01C7E091
:101D1000B694A79497948794CA95D1F7E9016A017C
:101D20007B018F01BC01CD01680D791D8A1D9B1DB2
:101D30008090000290900102A0900202B0900302F5
:101D4000681579058A059B0599F4F8018789803122
:101D5000A1F4B701A601552766277727440F551F21
:101D6000FA01EC50FC4F80819181A0E0B0E017C0F7
:101D700040E0BEDE8111E9CFBACFB701A6014F77AF
:101D8000552766277727440F551F440F551FFA0123
:101D9000EC50FC4F80819181A281B381BF70888318
:101DA0009983AA83BB8381E0DF91CF911F910F912B
:101DB000FF90EF90DF90CF90BF90AF909F908F906B
:101DC00008954F925F926F927F92AF92BF92CF929F
:101DD000DF92EF92FF920F931F93CF93DF9300D088
:101DE0001F92CDB7DEB78C0149835A836B837C8306
:101DF0005901C12CD12C7601412C82E0582E612C46
:101E0000712C49815A816B817C819E012F5F3F4FEC
:101E1000C80154DF882351F1D301C201F8010584C0
:101E200004C0880F991FAA1FBB1F0A94D2F7C80EBF
:101E3000D91EEA1EFB1E49815A816B817C818789EC
:101E4000803129F088EF9FEFAFEFBFE004C088EF4B
:101E50009FEFA0E0B0E0481759076A077B0788F2B8
:101E6000F501C082D182E282F38281E00F900F906F
:101E70000F900F90DF91CF911F910F91FF90EF90F6
:101E8000DF90CF90BF90AF907F906F905F904F901A
:101E900008958F929F92AF92BF92CF92DF92EF926E
:101EA000FF920F931F93CF93DF93EC018D818111EC
:101EB00002C080E076C00B891C892D893E890417F9
:101EC000150726073707A8F36A017B01823029F43A
:101ED000CA86DB86EC86FD860DC0C114D104E10400
:101EE000F10451F41E821F82188619861A861B86F9
:101EF0001C861D8681E055C08A849B84AC84BD8489
:101F0000EB8DFC8D258530E0275F3F4FB501A401A7
:101F10004150510961097109022E04C076956795F7
:101F2000579547950A94D2F7D701C6010197A109A1
:101F3000B10904C0B695A795979587952A95D2F7CC
:101F400084179507A607B70720F089288A288B28C9
:101F500049F44F89588D698D7A8D4E835F836887E8
:101F6000798704C0841B950BA60BB70B4C015D0150
:101F70008E010A5F1F4F81149104A104B10409F47A
:101F8000A7CF4E815F816885798598018B8D9C8D67
:101F900095DE91E0891A9108A108B1088111EBCF73
:101FA00088CFDF91CF911F910F91FF90EF90DF903D
:101FB000CF90BF90AF909F908F9008953F924F9297
:101FC0005F926F927F928F929F92AF92BF92CF92C9
:101FD000DF92EF92FF920F931F93CF93DF93CDB7D2
:101FE000DEB72C970FB6F894DEBF0FBECDBF5C01F5
:101FF000DC015B968D909C905C971696CD90DD9061
:10200000ED90FC901997C114D104E104F10439F06A
:10201000BFEFCB1ADB0AEB0AFB0A312C07C0F40135
:10202000C080D180E280F38033243394F401818531
:102030009285A385B4859C01AD012F5F3F4F4F4F23
:102040005F4F29873A874B875C87260137011D82BE
:102050001E821F821886F40181859285A385B4852E
:102060002D813E814F815885281739074A075B0724
:1020700008F060C089859A85AB85BC858C159D0567
:10208000AE05BF0550F482E0C82ED12CE12CF12C16
:1020900092E0492E512C612C712C9E012F5F3F4FF5
:1020A000B701A601C4010ADE882309F443C089816F
:1020B0009A81AB81BC81892B8A2B8B2B41F0260125
:1020C00037019FEF491A590A690A790A05C0C414F1
:1020D000D504E604F70491F02D813E814F815885A7
:1020E0002F5F3F4F4F4F5F4F2D833E834F83588766
:1020F0003FEFC31AD30AE30AF30AADCF0FEF1FEF86
:102100002FEF3FE0B301A201C40139DD882391F034
:10211000D50116964D915D916D917C911997411560
:1021200051056105710541F093018201C40127DD6C
:10213000811102C080E02AC0D50116964D925D92B1
:102140006D927C921997332051F0D301C201019610
:10215000A11DB11DF40180839183A283B383F50196
:102160008789908DA18DB28D892B8A2B8B2B69F459
:10217000D50157964D925D926D927C925A97149626
:102180008C911497806814968C9381E02C960FB6EE
:10219000F894DEBF0FBECDBFDF91CF911F910F919D
:1021A000FF90EF90DF90CF90BF90AF909F908F9077
:1021B0007F906F905F904F903F900895CF93DF9303
:1021C000EC018D81882391F18C8187FF2CC06E8575
:1021D0007F858889998941E08BDC882339F1EA89F8
:1021E00080E2E89FF0011124DF01AC50BC4F109752
:1021F000E9F08D81823050F44B895C896D897E894C
:102200005C964D935D936D937C935F978F89988DCA
:10221000A98DBA8DEC50FC4F938F828FB58BA48B18
:102220008C818F778C83DF91CF9184CB80E0DF919D
:10223000CF9108952F923F924F925F926F927F922B
:102240008F929F92AF92BF92CF92DF92EF92FF92C6
:102250000F931F93CF93DF9300D01F92CDB7DEB7BC
:102260008C015B011A01DC0115968C911597813068
:10227000C1F414968C9181FF14C082FF1AC0F8013A
:10228000438954896589768982859385A485B58536
:1022900084179507A607B70761F0C801FADD811119
:1022A00008C081E090E0F8019383828380E090E0B1
:1022B00033C1610182C0D8015B968D919C915C977E
:1022C000FC01248121502A013B0139E07694679476
:1022D000579447943A95D1F7722E74207A01F1E021
:1022E000FF22772009F475C080E092E08E199F09E3
:1022F00046018C159D0508F44C01D8015B962D9183
:102300003C915C9716968D919D910D90BC91A02D5E
:102310000297A109B109F901058404C0880F991F2A
:10232000AA1FBB1F0A94D2F7468557856089718919
:10233000840F951FA61FB71F9C01AD01270D311DEE
:10234000411D511D29013A01811432E0930609F023
:1023500085C08091000290910102A0910202B0918B
:10236000030284159505A605B70559F48FEF9FEF75
:10237000DC018093000290930102A0930202B093CB
:1023800003029501B301A20180912D0390912E03C8
:1023900072DA882309F485CF9EEFB91AC818D908D4
:1023A000F80182859385A485B585880D991DA11DA9
:1023B000B11D82879387A487B587D8011A964D915E
:1023C0005D916D917C911D97C114D10409F073CF7B
:1023D00083C0E114F10409F087CF16964D915D9109
:1023E0006D917C911997411551056105710559F45D
:1023F00057968D919D910D90BC91A02D0097A105B0
:10240000B10531F520C09E012F5F3F4F57DC882377
:1024100009F44DCF89819A81AB81BC81F801238D6C
:10242000348DF9012789203129F048EF5FEF6FEFF4
:102430007FE004C048EF5FEF60E070E0841795072D
:10244000A607B70728F0C801B9DD81114DCF29CF04
:10245000F80186839783A087B18746CFE114F10402
:1024600021F5D8011A964D915D916D917C911D9742
:1024700053968D919D910D90BC91A02D48175907B1
:102480006A077B0790F056DA882309F40ACF409256
:102490000002509201026092020270920302809147
:1024A0002F03816080932F0307C041E0C301B20175
:1024B0001FDB882309F4F5CED501F701EC50FC4F62
:1024C000CF01880D991DE817F90719F02D91219377
:1024D000FACFA80CB91C62CF53968D919D910D90A7
:1024E000BC91A02D84179507A607B70740F4F80103
:1024F000438B548B658B768B848180688483D80171
:1025000014968C9183FD02C0C10106C0C80156DE3D
:10251000882309F4C6CEF8CF0F900F900F900F903C
:10252000DF91CF911F910F91FF90EF90DF90CF90AF
:10253000BF90AF909F908F907F906F905F904F90E3
:102540003F902F900895CF93DF931F92CDB7DEB7C2
:10255000698341E050E0BE016F5F7F4F6BDE0F90FB
:10256000DF91CF910895CF93DF93EC0127DE88238D
:1025700011F01D8281E0DF91CF910895CF92DF921B
:10258000EF92FF920F931F93CF93DF936C017A0129
:102590008B01C0E0D0E0CE15DF0589F0D8016D9148
:1025A0008D01D601ED91FC910190F081E02DC601E5
:1025B0001995892B11F47E0102C02196ECCFC70139
:1025C000DF91CF911F910F91FF90EF90DF90CF900F
:1025D0000895FC01A089B1898C91A689B78982FDF3
:1025E0000FC09C91818D8F5F8F73228D821749F070
:1025F000218DDF01A20FB11D5D969C93818F0895FF
:102600008C910895FC01538D448D252F30E0842F4B
:1026100090E0821B930B541710F0CF96089501970A
:102620000895FC01918D828D981761F0828DDF01F4
:10263000A80FB11D5D968C91928D9F5F9F73928FB5
:1026400090E008958FEF9FEF0895FC01918D828DAA
:10265000981731F0828DE80FF11D858D90E0089577
:102660008FEF9FEF0895FC01918D228D892F90E0CF
:10267000805C9F4F821B91098F73992708958EE18B
:1026800096E0F1DF21E0892B09F420E0822F089504
:102690008BEB96E0E8DF21E0892B09F420E0822F24
:1026A000089588E597E0DFDF21E0892B09F420E039
:1026B000822F0895FC01848DDF01A80FB11DA35A5C
:1026C000BF4F2C91848D90E001968F739927848F52
:1026D000A689B7892C93A089B1898C9180648C9349
:1026E000938D848D981306C00288F389E02D808134
:1026F0008F7D80830895EF92FF920F931F93CF9366
:10270000DF93EC0181E0888F9B8D8C8D981305C041
:10271000E889F989808185FD23C0F62E0B8D10E0B4
:102720000F5F1F4F0F731127E02E8C8DE8120BC027
:102730000FB607FCFACFE889F989808185FFF5CFCC
:10274000CE01B8DFF2CF8B8DFE01E80FF11DE35A09
:10275000FF4FF0820B8FEA89FB898081806207C07E
:10276000EE89FF896083E889F989808180648083AC
:1027700081E090E0DF91CF911F910F91FF90EF905A
:102780000895CF93DF93EC01888D8823C1F0EA8907
:10279000FB89808185FD05C0A889B9898C9186FD5A
:1027A0000EC00FB607FCF5CF808185FFF2CFA88958
:1027B000B9898C9185FFEDCFCE017CDFE8CFDF9129
:1027C000CF91089580E090E0892B19F06ADF8111A4
:1027D0001BC080E090E0892B19F05ADF811117C0EF
:1027E00080E090E0892B19F04ADF811113C080E06E
:1027F00090E0892BA1F080E090E0892B81F00E948D
:10280000000081110AC008950E940000E2CF0E94DA
:102810000000E6CF0E940000EACF0C94000008956B
:102820000E94E328AF92BF92CF92DF92EF92FF9285
:102830000F931F93CF93DF93CDB7DEB72B970FB6D0
:10284000F894DEBF0FBECDBF7C01CE0101966C01B6
:10285000FC0190E28BE08C0D91938E13FDCFDA0199
:1028600020E037E09D91992339F19E3219F0ECED8B
:10287000F1E00AC03A3009F4A9C028E03AE0F2CF0A
:102880003196891709F4A2C084918111F9CF3217CA
:1028900008F49CC08FED890F8E3508F097C081E059
:1028A000820FF601E20FF11D2FE9290F2A3108F4FA
:1028B00090529083282FD6CF8981803209F486C028
:1028C0008B01FB01838D948DF701948F838FFB0126
:1028D0001682178210861186128613861486158634
:1028E000A12CF80182859385A485B58543895489F7
:1028F0006589768984179507A607B70708F066C02B
:1029000025E0B695A795979587952A95D1F7F82F45
:10291000FF70BF2EF8018581823008F457C0C801CE
:102920000E94DD0697FD52C0F80182859385A4853B
:10293000B5854F96A11DB11D82879387A487B58762
:10294000F0E2BF9EC0011124BC016C507C4F6115A8
:102950007105E1F1FB0120812223B1F1253ED9F07F
:102960004BE050E0C6010E94E728892B09F0B9CF5F
:102970006B2DC7012B960FB6F894DEBF0FBECDBFEF
:10298000DF91CF911F910F91FF90EF90DF90CF904B
:10299000BF90AF90FFC5A11014C0F701B28A40915B
:1029A0000002509101026091020270910302468779
:1029B0005787608B718BFC01EC50FC4F8081882322
:1029C00029F0AA24A3948DCFAA2039F380E02B9676
:1029D0000FB6F894DEBF0FBECDBFDF91CF911F9130
:1029E0000F91FF90EF90DF90CF90BF90AF90089540
:1029F0008F929F92AF92BF92CF92DF92EF92FF920F
:102A0000CF93DF93C82F83E098E090932E038093B9
:102A10002D03CC2361F1C53010F080E00BC140E004
:102A200060E070E0CB0164D88823B9F320E1C29F55
:102A3000C00111248C519C4FFC01E254FE4F2081B7
:102A40002F7759F73C9640815181628173814436DA
:102A500051056105710508F33497C080D180E2808B
:102A6000F380C114D104E104F10421F4D6CFC12CC8
:102A7000D12C760140E0C701B6013AD8882369F22B
:102A80008091FF03909100048115924031F6A0914E
:102A90000404AA2309F4C1CF6091020470910304D5
:102AA0006115710509F4B9CF20910104222309F4BD
:102AB000B4CFA09321082093130880E030E0E1E038
:102AC000F0E0C82FAF01082E02C0440F551F0A9432
:102AD000E2F72417350741F0982F8F5F983089F778
:102AE00089E080931C0899CF80931C0820910A04E8
:102AF00030910B042115310519F040E050E008C079
:102B0000209118043091190440911A0450911B042B
:102B10002093140830931508409316085093170813
:102B200046015701860E971EA11CB11C80922208F7
:102B300090922308A0922408B0922508E091050401
:102B4000F0910604F0932808E0932708B0E00E9473
:102B50009D27860E971EA81EB91E80922908909266
:102B60002A08A0922B08B0922C0885E0EE0FFF1FD8
:102B70008A95E1F7E150FE4FEF2FFF27E6958E0E85
:102B80009F1EA11CB11C80921D0890921E08A0924D
:102B90001F08B092200820910704309108042115E5
:102BA000310521F0A90160E070E008C040911404F3
:102BB000509115046091160470911704D701C60155
:102BC00088199909AA09BB09840F951FA61FB71F69
:102BD00004C0B695A79597958795CA95D2F7809327
:102BE000180890931908A0931A08B0931B08853F02
:102BF0002FE09207A105B10510F48CE018C0853FC5
:102C00009F4FA105B10510F480E111C0809120040F
:102C100090912104A0912204B0912304809329086B
:102C200090932A08A0932B08B0932C0880E28093FD
:102C3000260881E0DF91CF91FF90EF90DF90CF9059
:102C4000BF90AF909F908F90089590E0FC01EA565E
:102C5000FE4F2491FC01E05BFE4F8491882399F0A4
:102C600090E0880F991FFC01EA5CFE4FA591B4919A
:102C7000FC01E45EFE4F859194918FB7F894EC913E
:102C8000E22BEC938FBF08956115710579F0FB017C
:102C900001900020E9F73197AF01461B570BDC018B
:102CA000ED91FC910280F381E02D199480E090E099
:102CB00008951F920F920FB60F9211240BB60F9228
:102CC0002F933F934F935F936F937F938F939F9334
:102CD000AF93BF93EF93FF938EE196E0EBDCFF9110
:102CE000EF91BF91AF919F918F917F916F915F9184
:102CF0004F913F912F910F900BBE0F900FBE0F90F1
:102D00001F9018951F920F920FB60F9211240BB6B9
:102D10000F922F933F934F935F936F937F938F9374
:102D20009F93AF93BF93EF93FF938EE196E051DCB7
:102D3000FF91EF91BF91AF919F918F917F916F9193
:102D40005F914F913F912F910F900BBE0F900FBE4F
:102D50000F901F9018951F920F920FB60F9211248B
:102D60000BB60F922F933F934F935F936F937F9385
:102D70008F939F93AF93BF93EF93FF938BEB96E06B
:102D800099DCFF91EF91BF91AF919F918F917F91CE
:102D90006F915F914F913F912F910F900BBE0F90CC
:102DA0000FBE0F901F9018951F920F920FB60F92A3
:102DB00011240BB60F922F933F934F935F936F9312
:102DC0007F938F939F93AF93BF93EF93FF938BEB7F
:102DD00096E0FFDBFF91EF91BF91AF919F918F91B3
:102DE0007F916F915F914F913F912F910F900BBE0B
:102DF0000F900FBE0F901F9018951F920F920FB655
:102E00000F9211240BB60F922F933F934F935F9322
:102E10006F937F938F939F93AF93BF93EF93FF93A2
:102E200088E597E047DCFF91EF91BF91AF919F91CB
:102E30008F917F916F915F914F913F912F910F9063
:102E40000BBE0F900FBE0F901F9018951F920F9200
:102E50000FB60F9211240BB60F922F933F934F93FF
:102E60005F936F937F938F939F93AF93BF93EF93F2
:102E7000FF9388E597E0ADDBFF91EF91BF91AF91B4
:102E80009F918F917F916F915F914F913F912F9182
:102E90000F900BBE0F900FBE0F901F90189521E062
:102EA00001C0220F6A95EAF7DC011C962C931C974F
:102EB0001A965C934E931997ED91FC910484F585D5
:102EC000E02D60E01994DC01ED91FC910684F7851A
:102ED000E02D41E0199581E090E00895089508956E
:102EE000CF93FC012381222309F46EC09181909538
:102EF00069236083C28181E080934603C093B2035B
:102F0000109268031092670385EF97E00E949C0A75
:102F100080916703813208F04AC020918F0321110C
:102F2000FCCF92E090938F0391E090938E039FEFFC
:102F300090938D0310928C0380938B03A7E4B3E0EE
:102F400049E653E0FA019E2F941B981718F49D91BF
:102F50009193F9CF10928A0380918A03CC0FC82BEA
:102F6000C0938A0380918903813061F410928903B0
:102F700080918A038093BB008091BC0083FDF8CFD1
:102F800085EC01C085EE8093BC0080918F03823078
:102F9000E1F380918D038F3F79F080918D03803232
:102FA00041F080918D03803331F024E005C021E0B1
:102FB00003C022E001C023E010926803109267036F
:102FC0001092460330E002C020E030E081E090E063
:102FD000232B11F080E090E0CF910895EF92FF92C3
:102FE0000F931F93CF938C01FC01759684E0C0E092
:102FF00060FF02C09081C92B669581503196811186
:10300000F7CF413011F4F8014489F8018585C82BC8
:10301000C42B7801FEE0EF0EF11CF80162896C2BE5
:10302000C7015EDFF801628960956C23C701CF910B
:103030001F910F91FF90EF9053CF0F931F93CF935A
:10304000DF93062F0F70423019F440E0602F0FC05D
:10305000142F262FEC0130E0B90184E075956795B7
:103060008A95E1F7CE01BADF412F602FCE01DF91C3
:10307000CF911F910F91B2CFFC0184858823A1F0DD
:10308000218532852115310519F4611106C007C06B
:103090002130310521F4611102C0858701C01586F8
:1030A0006585CF010E961CCF0895DC01ED91FC9152
:1030B0000684F785E02D40E019940F931F93CF937A
:1030C000DF93EC01423018F08C8188608C834F8351
:1030D0006887222329F0413019F48C8184608C8325
:1030E00064E670E080E090E0BAD16C8164FD31C0AC
:1030F000E881F9810684F785E02D42E063E0CE01A6
:1031000019950BE416E4C8010197F1F7E881F981FC
:103110000684F785E02D42E063E0CE011995C801F1
:103120000197F1F7E881F9810684F785E02D42E007
:1031300063E0CE01199583E592E00197F1F7E8810C
:10314000F9810684F785E02D42E062E0CE01199511
:1031500013C06062CE01A9DF8BE496E40197F1F71A
:103160006C816062CE01A1DF83E592E00197F1F707
:103170006C816062CE0199DF6C816062CE0195DF67
:1031800084E08D836CE0CE0190DF61E0CE018DDFC5
:103190008BE39FE10197F1F782E08E8366E0CE0139
:1031A00084DFE881F9810484F585E02D6FEFCE019D
:1031B000DF91CF911F910F911994FF920F931F935D
:1031C000CF93DF93EC01162F042FF22E8B85888B83
:1031D000109291031092900310926803109267036B
:1031E00010928F0381E080938E031092890361E037
:1031F00084E1B8D061E085E1B5D08091B9008E7FDF
:103200008093B9008091B9008D7F8093B90088E4E4
:103210008093B80085E48093BC00888990918F03E7
:103220009111FCCF91E090938F0390938E032FEF39
:1032300020938D0310928C0310928B0390938A033A
:1032400090918A03880F892B80938A038091890348
:10325000813061F41092890380918A038093BB00CE
:103260008091BC0083FDF8CF85EC01C085EE809392
:10327000BC0080918F038130E1F380918C03811138
:1032800003C080918C0301C081E0A9E6B3E022E98C
:1032900033E0F9019E2F921B981718F49D9191939A
:1032A000F9CF109291038093900391E0811101C0B6
:1032B00090E0998B85EF97E00E94510A8E8789896B
:1032C000882331F01F861C8260E0CE010E9608DE56
:1032D0002F2D402F612FCE01DF91CF911F910F91A4
:1032E000FF90EBCE3FB7F8948091F0039091F103FB
:1032F000A091F203B091F30326B5A89B05C02F3F20
:1033000019F00196A11DB11D3FBFBA2FA92F982F0B
:103310008827820F911DA11DB11DBC01CD0142E086
:10332000660F771F881F991F4A95D1F70895E0917E
:10333000B503F091B6038081811103C08FEF9FEF39
:103340000CC0E091B503F091B6030580F681E02D45
:103350000680F781E02D82819381909328038093EA
:1033600027030895362F90E0FC01E451FE4F44916D
:10337000FC01EA56FE4F2491FC01E05BFE4F949164
:10338000992309F46BC0442309F455C050E0FA01B5
:103390003197E231F10508F04EC08827EE58FF4F13
:1033A0008F4F0C949527809180008F7707C0809174
:1033B00080008F7D03C080918000877F8093800094
:1033C0003AC084B58F7702C084B58F7D84BD33C089
:1033D0008091B0008F7703C08091B0008F7D809383
:1033E000B00029C0809190008F7707C08091900035
:1033F0008F7D03C080919000877F809390001BC0D9
:103400008091A0008F7707C08091A0008F7D03C0BE
:103410008091A000877F8093A0000DC08091200143
:103420008F7707C0809120018F7D03C0809120019C
:10343000877F80932001E92FF0E0EE0FFF1FE45E0D
:10344000FE4FA591B4918FB7F894EC91311103C060
:1034500020952E2301C02E2B2C938FBF08958F9281
:103460009F92AF92BF92CF92DF92EF92FF926B0149
:103470007C0138DF4B015C01C114D104E104F1048B
:10348000E9F030DFDC01CB0188199909AA09BB09F1
:10349000883E9340A105B10578F321E0C21AD10816
:1034A000E108F10888EE880E83E0981EA11CB11C8B
:1034B000C114D104E104F10421F7DECFFF90EF90B5
:1034C000DF90CF90BF90AF909F908F9008952FB7CF
:1034D000F8946091EC037091ED038091EE0390916C
:1034E000EF032FBF08951F920F920FB60F92112472
:1034F0002F933F938F939F93AF93BF938091EC0350
:103500009091ED03A091EE03B091EF033091EB03A6
:1035100023E0230F2D3720F40196A11DB11D05C016
:1035200026E8230F0296A11DB11D2093EB03809383
:10353000EC039093ED03A093EE03B093EF0380911F
:10354000F0039091F103A091F203B091F30301967F
:10355000A11DB11D8093F0039093F103A093F2039A
:10356000B093F303BF91AF919F918F913F912F91B2
:103570000F900FBE0F901F901895279A2F9A2FEF3C
:1035800080E792E0215080409040E1F700C00000C9
:103590001F9AF5CFCF93DF93EC016A8B80910002E5
:1035A00090910102A0910202B09103028E879F8741
:1035B000A88BB98B80E2689FF0011124EC50FC4F7E
:1035C0004489558960E070E0BA01552744274F8B44
:1035D000588F698F7A8F828D938DA0E0B0E0482B51
:1035E000592B6A2B7B2B4F8B588F698F7A8F838552
:1035F000887151F4848D958DA68DB78D8B8B9C8BA6
:10360000AD8BBE8B81E00EC0803111F080E015C023
:103610009E012D5E3F4F8B8D9C8D0E94E10E882375
:10362000A9F384E08D8381E08C831E821F8218863B
:1036300019861A861B861C861D86DF91CF910895F8
:10364000AF92BF92CF92DF92EF92FF920F931F93B0
:10365000CF93DF9300D01F921F92CDB7DEB78C01BE
:103660006B011D821C8280E0580191E1A90EB11C02
:103670000FB6F8940F92F801F28CFF2041F1448DBF
:103680004423B1F050E026813781240F351F378362
:103690002683828193812817390720F080819181C8
:1036A00097838683F80166817781C6010E94F4289A
:1036B000FA94F801F28E8085882329F0C8010896D3
:1036C00045D6811102D40F900FBE81E057C02C81E6
:1036D0003D81232B19F40F900FBE4FC0811109C0FB
:1036E0008091F80589838091F6059091F7059B8379
:1036F0008A830F900FBE85D70FB6F8940F92F8010A
:10370000858D8F3F09F4158EF801868D8F3F09F462
:10371000168E0F900FBEBE016C5F7F4FCE010196DB
:10372000DFD5811121C0C8010E949B248823B9F0F4
:10373000EC80FD806091F4057091F505645F7F4F2A
:10374000C50188D461E0C70168D5C8010E94A624DC
:1037500044D6882311F081E08BCFB7D3FCCFC801CA
:103760000E94A6243AD6F7CFC8010E94A62435D6D7
:10377000C8010E949B24882371F380E00F900F9072
:103780000F900F900F90DF91CF911F910F91FF90AD
:10379000EF90DF90CF90BF90AF900895EF92FF929F
:1037A0001F93CF93DF931F92CDB7DEB7182F6623F9
:1037B00021F0869FC001112402C080E090E04F9666
:1037C00069839CD47C016981009781F1611104C0F7
:1037D000FC019183808304C04F96F701918380831D
:1037E000F701138F648F0FB6F8940F922081318107
:1037F000938D448D949FC0011124B901680F791FE6
:1038000073836283128E35832483841B9109820F14
:10381000931F978386838FEF858F868FC7010896C6
:1038200051D4C70141964ED40F900FBEC7010F90DF
:10383000DF91CF911F91FF90EF900895CF93DF9389
:1038400000D01F921F92CDB7DEB79C0180912B0351
:1038500090912C03009761F019827B836A833D83EA
:103860002C8320912A03222329F02091290302C0CE
:1038700080E007C040E050E0BE016F5F7F4F0E94D4
:10388000A6260F900F900F900F900F90DF91CF9181
:103890000895789484B5826084BD84B5816084BDC8
:1038A00085B5826085BD85B5816085BD80916E00DE
:1038B000816080936E00109281008091810082600F
:1038C000809381008091810081608093810080914C
:1038D00080008160809380008091B100846080933B
:1038E000B1008091B00081608093B0008091910020
:1038F000826080939100809191008160809391001B
:10390000809190008160809390008091A1008260FE
:103910008093A1008091A10081608093A10080919B
:10392000A00081608093A00080912101826080933B
:1039300021018091210181608093210180912001EA
:1039400081608093200180917A00846080937A0066
:1039500080917A00826080937A0080917A00816001
:1039600080937A0080917A00806880937A00109228
:10397000C1000E94160894E4E92E93E0F92E00E0BD
:1039800020E030E040EC50E067EC72E089E191E04B
:1039900057D6813009F084C00FB6F8940F92809109
:1039A0002B0390912C03892BC9F489E393E08AD3EC
:1039B00080E393E087D389E393E090932603809399
:1039C000250380E393E0909324038093230365E031
:1039D0008AE0E4DE90932C0380932B030F900FBEBC
:1039E00080912B0390912C03892B09F459C082E418
:1039F000E82E83E0F82E03E020E030E045E550E0DB
:103A00006CEC72E086EE94E21BD6813009F048C07F
:103A1000F8942FEF3FEF30932803209327038093F0
:103A20002A031092F7051092F605A89520EC88E17C
:103A300090E00FB6F894A895809360000FBE209395
:103A40006000A091F405B091F505CD91CDBFDD9159
:103A5000DEBFFF91EF91DF91CF91BF91AF919F9129
:103A60008F917F916F915F914F913F912F911F9116
:103A70000F91FF90EF90DF90CF90BF90AF909F900D
:103A80008F907F906F905F904F903F902F901F90FE
:103A90000F900CBE0F900BBE0F900FBE0F900895AD
:103AA0006CDD0E9416080E94E213FDCF0F920FB644
:103AB000F8940F920BB60F920CB60F921F9211242E
:103AC0002F923F924F925F926F927F928F929F922E
:103AD000AF92BF92CF92DF92EF92FF920F931F931C
:103AE0002F933F934F935F936F937F938F939F9306
:103AF000AF93BF93CF93DF93EF93FF93A091F40520
:103B0000B091F5050DB60D920EB60D9213BE8091D3
:103B100029038111F3C08091F6059091F705019674
:103B20009093F7058093F605009799F52091B503DA
:103B30003091B6034091B7035091B8035093B60348
:103B40004093B5033093B8032093B7032091F80551
:103B50002F5F2093F805E091B503F091B603208123
:103B6000211107C02FEF3FEF309328032093270345
:103B700010C0E091B503F091B6030580F681E02D09
:103B80000680F781E02D2281338130932803209332
:103B9000270320912703309128038217930710F4FD
:103BA00020E09CC020E019E0E091B503F091B6035D
:103BB0003081311107C08FEF9FEF909328038093DE
:103BC00027038CC0E091B503F091B6030580F68120
:103BD000E02D0680F781E02D4281538184179507FF
:103BE00028F4509328034093270378C0AF014E5F19
:103BF0005F4FA285B38564817581E680F780EB0114
:103C0000FD82EC82C681D7817B836A8311966D9198
:103C10007C9112976417750721F41296DC93CE936A
:103C20001197138612863C9131503C933C91A489A4
:103C3000B5891097F9F066857785E088F188EB0102
:103C4000FD82EC82C089D1897B836A831196ED90D5
:103C5000FC901297BF01645F7F4FE616F70621F4D0
:103C60001296DC93CE931197158A148A3C913150A9
:103C70003C933C91A68930911D063A1710F4A0930D
:103C80001D061A9FD0011124BD0167507A4F7B0198
:103C9000DB011196CD91DC911297D583C4836C81A1
:103CA0007D81778366836C817D81DB0113965C93D4
:103CB0004E9312975D834C83F386E286E701388149
:103CC0003F5F3883A091F405B091F505468956967B
:103CD0003C91431708F468CF21E066CFE091F405EA
:103CE000F091F505E689D9E0ED9FF0011124E75048
:103CF000FA4F8081823040F021E006C08091B3030A
:103D00008F5F8093B30320E08091B403811103C0DF
:103D1000222309F466C080912903882321F081E0E1
:103D20008093B4035EC01092B403A091F405B091E7
:103D3000F505E091F405F091F5052D913C91878909
:103D4000908D82179307A8F08091F4059091F50566
:103D50008091F4059091F505279A2F9A2FEF67EA45
:103D600071E6215060407040E1F700C000001F9AEA
:103D7000F5CF80911D0669E001C08150482F50E0C9
:103D8000649F9001659F300D1124F901E750FA4FAF
:103D90009081992391F3A181B28112960D90BC91EB
:103DA000A02DB283A18324503A4FA217B30731F458
:103DB00012962D913C9113973283218399E0949F21
:103DC000F001959FF00D1124E750FA4F0180F28128
:103DD000E02D268137813093F5052093F4058093FB
:103DE0001D06A091F405B091F505CD91CDBFDD91F3
:103DF000DEBFFF91EF91DF91CF91BF91AF919F9186
:103E00008F917F916F915F914F913F912F911F9172
:103E10000F91FF90EF90DF90CF90BF90AF909F9069
:103E20008F907F906F905F904F903F902F901F905A
:103E30000F900CBE0F900BBE0F900FBE0F90089509
:103E4000CF93DF93FC01A085B1858281938124818A
:103E50003581EC013D832C83C481D5819B838A838A
:103E600011968D919C9112978E179F0721F41296AF
:103E7000DC93CE931197118610868C9181508C9390
:103E80008C91DF91CF910895CF93DF939C01FB013B
:103E9000DC011196CD91DC911297D383C2838C8182
:103EA0009D81958384838C819D81DC0113967C9315
:103EB0006E9312977D836C8331872087F90180810F
:103EC0008F5F8083DF91CF9108950F920FB6F894A2
:103ED0000F920BB60F920CB60F921F9211242F92D5
:103EE0003F924F925F926F927F928F929F92AF928A
:103EF000BF92CF92DF92EF92FF920F931F932F9377
:103F00003F934F935F936F937F938F939F93AF9361
:103F1000BF93CF93DF93EF93FF93A091F405B091FC
:103F2000F5050DB60D920EB60D92809129038823EA
:103F300021F081E08093B4035EC01092B403A0919D
:103F4000F405B091F505E091F405F091F5052D919A
:103F50003C918789908D82179307A8F08091F40592
:103F60009091F5058091F4059091F505279A2F9A87
:103F70002FEF87EA91E6215080409040E1F700C0A2
:103F800000001F9AF5CF80911D0669E001C08150A5
:103F9000482F50E0649F9001659F300D1124F90176
:103FA000E750FA4F9081992391F3A181B281129643
:103FB0000D90BC91A02DB283A18324503A4FA2173B
:103FC000B30731F412962D913C91139732832183DC
:103FD00099E0949FF001959FF00D1124E750FA4F5E
:103FE0000180F281E02D268137813093F505209301
:103FF000F40580931D06A091F405B091F505CD91CF
:10400000CDBFDD91DEBFFF91EF91DF91CF91BF91E9
:10401000AF919F918F917F916F915F914F913F9160
:104020002F911F910F91FF90EF90DF90CF90BF9055
:10403000AF909F908F907F906F905F904F903F9048
:104040002F901F900F900CBE0F900BBE0F900FBEC5
:104050000F9008950F931F93CF93DF938C01FB0173
:10406000808191818F3F2FEF920721F4E801AF818A
:10407000B8850EC0D801139612962D913C911397D6
:10408000E901488159818417950710F0D901F4CFCF
:1040900012968D919C91139793838283EC01FD83FB
:1040A000EC83B583A4831396FC93EE931297118748
:1040B0000087F80180818F5F8083DF91CF911F910E
:1040C0000F910895FC010396928381832FEF3FEFB8
:1040D0003483238396838583908787831082089512
:1040E000CF93DF93009739F0EC018BD2CE01D3D779
:1040F000DF91CF9172C1DF91CF9108950F931F93FC
:10410000CF93DF931F921F92CDB7DEB789839A8337
:1041100078D289819A812AD78C015FD10115110546
:1041200009F42BDAC8010F900F90DF91CF911F9106
:104130000F910895FC0173836283918780874617EE
:10414000570778F0421B530B84859585481759070C
:10415000C0F4BF016E5F7F4F8091230390912403D1
:104160000DC04217530718F46217730750F4BF01CC
:104170006E5F7F4F80912503909126036BDF80E077
:10418000089581E00895EF92FF920F931F93CF93CC
:10419000DF93E0912503F09126038081882351F17C
:1041A0000580F681E02D00811181C681D7817E01D5
:1041B00082E0E80EF11CC70143DEE989FA89CE01ED
:1041C00019958E85813029F72C853D85200F311F6B
:1041D0000217130758F43B832A83D987C887B7018E
:1041E000809125039091260335DFD3CFB801CE010E
:1041F00025DBCFCF80912303909124039093260356
:1042000080932503F0932403E0932303DF91CF9160
:104210001F910F91FF90EF900895EF92FF920F93EF
:104220001F93CF93DF931F92CDB7DEB77C01009130
:10423000F6051091F7058091F4059091F505029629
:104240006983FEDD69818FEFE816F80691F4662335
:1042500081F06091F4057091F5056E5F7F4F80EEFF
:1042600093E00F90DF91CF911F910F91FF90EF900E
:104270000BCEE00EF11EE091F405F091F505F3820E
:10428000E2826091F4057091F505E016F10670F494
:104290008091B7039091B8036E5F7F4F0F90DF91CD
:1042A000CF911F910F91FF90EF90D4CE8091B503E5
:1042B0009091B6036E5F7F4FCDDE80912703909182
:1042C0002803E816F90620F4F0922803E092270369
:1042D0000F90DF91CF911F910F91FF90EF90089574
:1042E000FC01DB010FB6F8940F924091F605509156
:1042F000F705818192812D913C9111972F3F6FEFAE
:104300003607F1F07091F8056081761719F04817BB
:104310005907C0F4481B590B4217530770F4241B6C
:10432000350B2D933C938091F80580838091F605A1
:104330009091F7059283818303C01D921C9202C065
:1043400080E001C081E00F900FBE08950F931F938E
:10435000CF93DF93DC011596ED91FC911697C68102
:10436000D7818E01045F1F4FC8016ADD8091290348
:10437000811113C00A501109C80162DD9E89809124
:104380001D06891710F490931D06B9E09B9FC0018C
:104390001124B80187509A4F03C0B8018CEC93E008
:1043A00073DDE091F405F091F5059E898689891702
:1043B00020F481E08093B40301C080E0DF91CF91CD
:1043C0001F910F9108950FB6F8940F928091F60502
:1043D0009091F7050F900FBE08958F929F92AF9224
:1043E000BF92CF92DF92EF92FF920F931F93CF93E2
:1043F000DF930FB6F8940F92809129038150809338
:10440000290380912903882311F080E0EBC080917B
:10441000D6038823D1F3C0E0D0E029E0F22EEE24C9
:10442000E3948091CC03882339F1E091D103F0919A
:10443000D203C681D781CE010C9602DD8E010E5FBC
:104440001F4FC801FDDC9E8980911D06891710F45D
:1044500090931D06F99EC0011124B80187509A4F10
:1044600013DDE091F405F091F5059E898689981792
:10447000C0F2E092B403D5CFCD2B11F00E94971972
:10448000E090B303EE2009F4A6C089E0B82EAA2478
:10449000A394CC24CA94DC2C80912903811189C077
:1044A000C091F605D091F7052196D093F705C093FA
:1044B000F6052097B9F48091B5039091B603209149
:1044C000B7033091B8033093B6032093B5039093AC
:1044D000B8038093B7038091F8058F5F8093F80548
:1044E0000E9497198091270390912803F12CC817F7
:1044F000D90708F44EC0E091B503F091B60380816E
:10450000811105C0D0922803C092270342C0E091D8
:10451000B503F091B6030580F681E02D0681178181
:10452000D80112968D919C911397C817D90728F43A
:1045300090932803809327032CC04801B2E08B0E90
:10454000911CC4017DDCF80184899589892B19F0BF
:10455000C8010C9675DCD80156968C9190911D0679
:10456000981710F480931D06B89EC0011124B40161
:1045700087509A4F89DCE091F405F091F505D80158
:1045800056969C918689981708F4B5CFFF24F3942A
:10459000B2CFE091F405F091F505E689BE9EF001F9
:1045A0001124E750FA4F8081823048F0FF24F394C1
:1045B00006C08091B3038F5F8093B303F12C809189
:1045C000B403811101C0F110A092B403EA94E11088
:1045D00063CF1092B3038091B403882309F415CFFD
:1045E00074DC81E00F900FBEDF91CF911F910F918E
:1045F000FF90EF90DF90CF90BF90AF909F908F9003
:104600000895809129038F5F809329030895CF93A4
:10461000DF931F921F92CDB7DEB7009711F455DCE0
:104620000AC089839A83EDDF60E089819A81F5DD94
:10463000D4DE8823A1F30F900F90DF91CF910895DE
:104640005F926F927F928F929F92AF92BF92CF9222
:10465000DF92EF92FF920F931F93CF93DF93782E09
:10466000892E562E672EEA01922E132FCA0146DD9F
:104670005C01892B09F44EC188E290E03FDD6C01BA
:104680000097C1F0DC015896BC92AE925797AE01EC
:1046900065EA70E0C501B1D52197F6018789908D53
:1046A000C80FD91FB601675E7F4FE52DF62DCF01EC
:1046B000089606C0C50114DD2DC1E817F90749F0B9
:1046C0009F014191DB014D93BD01D9012C91211135
:1046D000F4CFF60110A2043008F003E0D60156969C
:1046E0000C93569791960C93919792961C92929751
:1046F0001B961C921E921A9755961C921E925497C6
:104700001996DC92CE92189784E090E0801B910974
:104710001D969C938E931C975396DC92CE92529743
:10472000F60113A214A215A216A217A291E1988372
:10473000FE01319782E28083319723E32083319712
:104740007082319780823197108231971082319731
:1047500020E82083319710823197108231971082A0
:10476000319722E02083319723E02083319724E0A2
:104770002083319725E02083319726E020833197ED
:1047800027E02083319728E02083319729E0208398
:10479000319720E1208331979083319792E1908384
:1047A000319793E19083319794E19083319795E12C
:1047B0009083319796E19083319797E19083319779
:1047C00098E19083319799E19083319790E29083BB
:1047D000319791E2908331978083319783E2808390
:1047E0003197908231971083319786E28083319799
:1047F00087E28083319788E28083319789E28083E2
:10480000319780E38083319781E38083A997CD93AB
:10481000DC93E114F10419F0F701D182C0820FB6E4
:10482000F8940F928091D6038F5F8093D603809186
:10483000F4059091F505892B89F5D092F505C09284
:10484000F4058091D603813009F03AC089EF95E0F4
:1048500039DC82E096E036DC8BE096E033DC84E104
:1048600096E030DC82EC93E02DDC89EB93E02ADCEF
:104870008CEC93E027DC87ED93E024DC80EE93E082
:1048800021DC82EC93E09093B6038093B50389EB2F
:1048900093E09093B8038093B70312C080912A03EA
:1048A00081110EC0E091F405F091F5059689D601CD
:1048B00056968C91891720F0D092F505C092F40598
:1048C0008091CB038F5F8093CB03F6018689909113
:1048D0001D06981710F480931D06F9E08F9FC00104
:1048E0001124B6016E5F7F4F87509A4FCDDA0F903B
:1048F0000FBE80912A03882359F0E091F405F091CE
:10490000F5059689D60156968C91981708F4DDDA4C
:1049100081E001C08FEFDF91CF911F910F91FF9048
:10492000EF90DF90CF90BF90AF909F908F907F904F
:104930006F905F9008950FB6F8940F92FC01928DDE
:104940000F900FBE81E0911180E00895EF92FF92E9
:104950000F931F93CF93DF93EC010FB6F8940F9250
:104960001E8D7C0181E1E80EF11C01E0111654F46A
:104970008989882339F0C701E9DC81110093B403E8
:104980001150F4CF8FEF8E8F0F900FBE0FB6F894AB
:104990000F921D8D7E0188E0E80EF11C01E01116DA
:1049A00054F48885882339F0C701D0DC8111009345
:1049B000B4031150F4CF8FEF8D8F0F900FBEDF91A6
:1049C000CF911F910F91FF90EF900895CF93DF93B8
:1049D000CDB7DEB727970FB6F894DEBF0FBECDBFB9
:1049E000E0912503F09126038081FF24F39488232E
:1049F00039F0F12C0580F681E02D0081118102C093
:104A000000E010E0FEDDDFDC6C018091E9039091B5
:104A1000EA03C816D90618F4B6DB81E001C080E0CD
:104A2000D092EA03C092E90381116DC0F1102EC04B
:104A3000C016D10698F1D1DCE0912503F091260350
:104A40000580F681E02DE680F780C7010296F8D94F
:104A5000D7011E968C911E97813081F41C966D9122
:104A60007C911D97600F711F9801A601C70162DB41
:104A7000882321F0B801C7010E941E1CD70151965E
:104A8000ED91FC915297C701199542C0E091230323
:104A9000F09124038081BB24B3948111B12CE09068
:104AA0002B03F0902C030FB6F8940F92F701858D2D
:104AB0008F3F09F4158ED7015E968C915E978F3FDC
:104AC00011F45E961C920F900FBEF701828D81113A
:104AD00013C06091F4057091F505645F7F4FC701C5
:104AE0004196D2D9B11004C0C8018C199D0902C0E9
:104AF0008FEF9FEF6B2D91DBC70128DF6EDC8111FB
:104B000007C0E3D905C069DC03C0898187FF0CC0F9
:104B1000BE016F5F7F4F80912B0390912C030E9409
:104B2000201B8111F2CF5CCF0C811D81D8011A9618
:104B30008D919C911B97892B19F0C801029680D901
:104B400042DCAC018091E9039091EA0348175907D0
:104B500028F44E835F8317DB5F814E815093EA0315
:104B60004093E9038981082E000C990BAA0BBB0B1B
:104B70008A30910568F6FC018827EC57FF4F8F4F6C
:104B8000D4C12A813B81F80164857585620F731F4A
:104B9000C801D0DA882309F4BBCFD8015196ED9132
:104BA000FC915297C8011995F8018685813009F06A
:104BB000AFCF648575858A819B81680F791FC80195
:104BC0000E941E1CA5CF6A817B81D8011D967C9313
:104BD0006E931C97640F751F9A01C801ABDA98CFCA
:104BE000C8017EDA95CF0E94561D1895EEE1F6E0D9
:104BF0001382128288EE93E0A0E0B0E08483958374
:104C0000A683B7832DE332E03183208345ED50E066
:104C10005587448744ED50E05787468740ED50E084
:104C2000518B408B41ED50E0538B428B42ED50E075
:104C3000558B448B46ED50E0578B468B118E128E70
:104C4000138E148EEBEBF6E013821282848395832D
:104C5000A683B783318320834DEC50E0558744878A
:104C60004CEC50E05787468748EC50E0518B408B26
:104C700049EC50E0538B428B4AEC50E0558B448B0F
:104C80004EEC50E0578B468B118E128E138E148E85
:104C9000E8E5F7E01382128284839583A683B783C5
:104CA0003183208325EC30E03587248724EC30E005
:104CB0003787268720EC30E0318B208B21EC30E0E9
:104CC000338B228B22EC30E0358B248B26EC30E0CA
:104CD000378B268B118E128E138E148EE5EFF7E034
:104CE0001382128284839583A683B7838FE492E034
:104CF00091838083E1E0F8E080E580831182E3E046
:104D0000F8E0158216821186138682E090E0A0E01A
:104D1000B0E084879587A687B78713A215A614A647
:104D200083E792E093A782A717A662E382E00E943E
:104D3000CE1B90934F0880934E0862E382E00E945E
:104D4000CE1B90934D0880934C080895AF92BF926C
:104D5000CF92DF92EF92FF920F931F93CF93DF9347
:104D600000D01F921F92CDB7DEB78C017B015D830F
:104D70004C8390E0580188E0A80EB11C0FB6F8945F
:104D80000F92F801228D838D281708F068C0D28C0D
:104D9000448D41113DC080819181892B09F04FC024
:104DA000F801E280F380E114F10411F480E02CC0FA
:104DB000F70182A1815082A3268991A12917B1F31D
:104DC0008111F4CF5701F2E0AF0EB11CC50138D804
:104DD000F70191A1968B492F50E024E030E0241B8D
:104DE000350B3587248780911D06891710F4909321
:104DF0001D0629E0249FC001259F900D1124B501B7
:104E000087509A4F41D881E0F8011382128218C06E
:104E100050E0B701F80184819581E6D1F801248D35
:104E200084819581820F911D9583848322813381B2
:104E30008217930720F0808191819583848380E09D
:104E4000D394F801D28E9189992319F0C801419623
:104E50007DDA81113AD80F900FBE81E056C02C81C7
:104E60003D81232B19F40F900FBE4EC0911109C044
:104E70008091F80589838091F6059091F7059B83D1
:104E80008A830F900FBEBDDB0FB6F8940F92F80126
:104E9000858D8F3F09F4158EF801868D8F3F09F4BB
:104EA000168E0F900FBEBE016C5F7F4FCE01019634
:104EB00017DA811126C00FB6F8940F92F801928D7F
:104EC000838D0F900FBE981318C0CC80DD80209189
:104ED000F4053091F505B901645F7F4FC501BAD87B
:104EE00061E0C6019AD9C80131DD77DA882311F073
:104EF00091E044CF0E94651FFBCFC80127DD6DDA2A
:104F0000F7CFC80123DD69DA80E00F900F900F9092
:104F10000F900F90DF91CF911F910F91FF90EF9025
:104F2000DF90CF90BF90AF900895EE0FFF1F881FC6
:104F30008BBF0790F691E02D199409D0A59F900D95
:104F4000B49F900DA49F800D911D11240895A29FE0
:104F5000B001B39FC001A39F700D811D1124911D4D
:104F6000B29F700D811D1124911D0895CF93DF9381
:104F70008230910510F482E090E0E0915208F091C7
:104F8000530820E030E0C0E0D0E0309711F14081DC
:104F9000518148175907C0F04817590761F48281B9
:104FA0009381209719F09B838A832BC09093530899
:104FB0008093520826C02115310519F04217530776
:104FC00018F49A01BE01DF01EF010280F381E02DA8
:104FD000DCCF2115310509F1281B390B24303105AF
:104FE00090F412968D919C9113976115710521F0A3
:104FF000FB019383828304C09093530880935208EB
:10500000FD01329644C0FD01E20FF31F819391939D
:10501000225031092D933C933AC020915008309191
:105020005108232B41F4209106023091070230935E
:105030005108209350082091040230910502211557
:10504000310541F42DB73EB7409108025091090255
:10505000241B350BE0915008F0915108E217F3073B
:10506000A0F42E1B3F0B2817390778F0AC014E5FD8
:105070005F4F2417350748F04E0F5F1F50935108BC
:10508000409350088193919302C0E0E0F0E0CF019B
:10509000DF91CF9108950F931F93CF93DF930097E4
:1050A00009F48CC0FC0132971382128200915208DD
:1050B000109153080115110581F420813181820F6F
:1050C000931F20915008309151082817390779F51E
:1050D000F0935108E093500871C0D80140E050E0CF
:1050E000AE17BF0750F412962D913C911397AD0166
:1050F0002115310509F1D901F3CF9D01DA0133837F
:10510000228360817181860F971F8217930769F44C
:10511000EC0128813981260F371F2E5F3F4F3183E5
:1051200020838A819B8193838283452B29F4F0938A
:105130005308E093520842C01396FC93EE931297E3
:10514000ED01499159919E01240F351FE217F30794
:1051500071F480819181840F951F029611969C9322
:105160008E938281938113969C938E931297E0E0A5
:10517000F0E0D80112968D919C911397009719F049
:10518000F8018C01F6CF8D919C9198012E5F3F4FD5
:10519000820F931F2091500830915108281739072A
:1051A00069F4309729F4109253081092520802C003
:1051B000138212821093510800935008DF91CF910F
:1051C0001F910F91089581E090E0F89463C0FB0176
:1051D000DC0104C08D910190801921F441505040B0
:1051E000C8F7881B990B0895FB01DC0102C00190F0
:1051F0000D9241505040D8F70895DC0101C06D93E5
:1052000041505040E0F70895FB01DC010D90002073
:10521000E9F7119701900D920020E1F70895FC0144
:105220008191861721F08823D9F79927089531971E
:10523000CF010895FB01DC0101900D920020E1F700
:105240000895FB01DC014150504048F001900D925F
:105250000020C9F701C01D9241505040E0F7089569
:10526000FB0151915523A9F0BF01DC014D91451778
:105270004111E1F759F4CD010190002049F04D9121
:1052800040154111C9F3FB014111EFCF81E090E0DE
:0852900001970895F894FFCF87
:10529800FFFFFFFF000054088000000000006317B4
:1052A800BE1203020202DD184F173C181D18BE0279
:1052B800C102C4023E200000000000EC010E0203FF
:1052C800020602CB01E507EE07000000007B13BED3
:1052D800120213C113331311132513000000009C8D
:1052E8000A6D0A0302410A650A510A420A000000CF
:1052F800001014BE1203020202101410141014003D
:10530800000000A312BE12030202020000000010F7
:1053180014BE1203020202302E303000303030301A
:1053280030003A2020000D0A002F004675656C00F9
:105338004D6F746F7200456E7175657565004C6FC1
:105348006753656E6400446973706C617900464DFB
:10535800004653004D310049444C4500546D7220BD
:045368005376630015
:00000001FF
