:10000000A8C00000D7C00000D5C00000D3C00000C9
:10001000D1C00000CFC00000CDC00000CBC00000A8
:10002000C9C00000C7C00000C5C00000C3C00000B8
:100030000C945608BFC00000BDC00000BBC000004B
:10004000B9C00000B7C00000B5C00000B3C00000D8
:10005000B1C00000AFC00000ADC0000048C3000048
:10006000A9C000007EC5000053C50000A3C0000069
:10007000A1C000009FC000009DC000009BC0000008
:1000800099C0000097C0000095C0000093C0000018
:1000900016C50000EBC400008DC000008BC000003E
:1000A00089C0000087C0000085C0000083C0000038
:1000B00081C000007FC000007DC000007BC0000048
:1000C00079C0000077C0000075C00000A6C4000021
:1000D0007BC400006FC000006DC000006BC000005A
:1000E00069C00000130D130D130DE00C340D410D0C
:1000F000130D130DE00C340D80917C02882301F167
:100100000FB6F8940F92E091A302F091A402C68179
:10011000D781CE010296CCD78091B00281508093D6
:10012000B00280917C02815080937C020F900FBEC0
:100130008F89988D0E94BF0BCE010E94BF0BDCCF30
:100140008091B602823010F00E94D80975D0D4CFC9
:10015000780D11241FBECFEFD1E2DEBFCDBF00E08E
:100160000CBF12E0A0E0B2E0E2E5F9E200E00BBF74
:1001700002C007900D92A837B107D9F724E0A8E78D
:10018000B2E001C01D92A03EB207E1F710E0C9EA5B
:10019000D0E000E006C021970109802FFE010E94F7
:1001A0003513C83AD10780E00807A9F70E94F10D7E
:1001B0000C94A71425CF089580E090E00895FC01E9
:1001C000538D448D252F30E0842F90E0821B930BBC
:1001D000541710F0CF96089501970895FC01918D62
:1001E000828D981761F0828DDF01A80FB11D5D9699
:1001F0008C91928D9F5F9F73928F90E008958FEF07
:100200009FEF0895FC01918D828D981731F0828DBA
:10021000E80FF11D858D90E008958FEF9FEF089511
:10022000FC01918D228D892F90E0805C9F4F821B75
:1002300091098F739927089580E090E0892B19F038
:100240009BD381111BC080E090E0892B19F08BD3E8
:10025000811117C080E090E0892B19F07BD38111C8
:1002600013C080E090E0892BA1F080E090E0892B22
:1002700081F00E94000081110AC008950E940000D0
:10028000E2CF0E940000E6CF0E940000EACF0C946B
:10029000000008953FB7F894809184029091850200
:1002A000A0918602B091870226B5A89B05C02F3F7A
:1002B00019F00196A11DB11D3FBFBA2FA92F982F8C
:1002C0008827820F911DA11DB11DBC01CD0142E007
:1002D000660F771F881F991F4A95D1F70895E091FF
:1002E0009302F09194028081811103C08FEF9FEF00
:1002F0000CC0E0919302F09194020580F681E02D0C
:100300000680F781E02D8281938190938D02809306
:100310008C020895FB01DC0111967C936E93AA591F
:10032000BF4F1C92A089B18982E08C93A485B585CA
:100330001C92A685B78587E68C93108EA489B58913
:1003400086E08C93A289B3898C9180618C93A28979
:10035000B3898C9188608C93A289B3898C918068D1
:100360008C930288F389E02D80818F7D80830895AE
:100370006F927F928F929F92AF92BF92CF92DF92B5
:10038000EF92FF920F931F93CF93DF93EC018C01B9
:100390000A591F4F88819981DC01ED91FC910084FD
:1003A000F185E02D1995892BB9F0D801FC90B2E6C2
:1003B000BF1590F081E08F0DF801808388819981CD
:1003C000DC01ED91FC910284F385E02D1995FE018D
:1003D000EF0DF11D8283DECFF8018081FE01E80F71
:1003E000F11D128266E072E0CE0102960E948D1429
:1003F0003C01009709F47DC0FC0101900020E9F761
:100400003197E81BF90B7997A0F480E0282F30E0B2
:10041000F301E20FF31F9081FE01E20FF31F9283BD
:1004200021E0280F992311F0822FF0CFF80180836B
:1004300062C04E01FCE68F0E911CBC016E5F7F4FC7
:1004400044E050E0C4010E947E145E0127E6A20E43
:10045000B11CB301685F7F4F44E050E0C5010E94CA
:100460007E146E0181E7C80ED11CB301625F7F4F1D
:1004700044E050E0C6010E947E147E01A6E7EA0E29
:10048000F11CB3016C5E7F4F45E050E0C7010E9454
:100490007E14FE01E558FF4F1082369710823A977E
:1004A00010823596108288819981B3E088379B0746
:1004B00019F48BE192E005C08B5D924019F482E261
:1004C00092E076D289E292E062D2C40171D280E3F6
:1004D00092E05DD2C5016CD286E392E058D2C601AB
:1004E00067D28DE392E053D2C70162D285E492E0F5
:1004F0005FD2D8011C92DF91CF911F910F91FF9095
:10050000EF90DF90CF90BF90AF909F908F907F90B3
:100510006F900895CF93DF93CDB7DEB7CC57D10955
:100520000FB6F894DEBF0FBECDBF6BED72E0CE010B
:100530000196F0DECE0101961BDF8091780290914A
:1005400079020E94EF0F813041F460E070E0809109
:100550007802909179020E940D0F0E94030FEACF5A
:10056000CF93DF93CDB7DEB7CC57D1090FB6F89450
:10057000DEBF0FBECDBF68E773E0CE010196CADED5
:10058000CE010196F5DE80917802909179020E9469
:10059000EF0F813041F460E070E08091780290913B
:1005A00079020E940D0F0E94030FEACFFC01A0897F
:1005B000B1898C91A689B78982FD0FC09C91818DEC
:1005C0008F5F8F73228D821749F0218DDF01A20F7B
:1005D000B11D5D969C93818F08958C910895FC01C7
:1005E000848DDF01A80FB11DA35ABF4F2C91848DBC
:1005F00090E001968F739927848FA689B7892C93F1
:10060000A089B1898C9180648C93938D848D98138B
:1006100006C00288F389E02D80818F7D8083089554
:10062000EF92FF920F931F93CF93DF93EC0181E042
:10063000888F9B8D8C8D981305C0E889F9898081FE
:1006400085FD23C0F62E0B8D10E00F5F1F4F0F733B
:100650001127E02E8C8DE8120BC00FB607FCFACFE5
:10066000E889F989808185FFF5CFCE01B8DFF2CF27
:100670008B8DFE01E80FF11DE35AFF4FF0820B8FC7
:10068000EA89FB898081806207C0EE89FF896083E7
:10069000E889F98980818064808381E090E0DF913E
:1006A000CF911F910F91FF90EF900895CF93DF931B
:1006B000EC01888D8823C1F0EA89FB89808185FD62
:1006C00005C0A889B9898C9186FD0EC00FB607FCBC
:1006D000F5CF808185FFF2CFA889B9898C9185FFFC
:1006E000EDCFCE017CDFE8CFDF91CF9108951F924F
:1006F0000F920FB60F9211242F933F938F939F93D6
:10070000AF93BF938091800290918102A091820269
:10071000B091830230917F0223E0230F2D3720F424
:100720000196A11DB11D05C026E8230F0296A11D4B
:10073000B11D20937F028093800290938102A09349
:100740008202B09383028091840290918502A091ED
:100750008602B09187020196A11DB11D809384028B
:1007600090938502A0938602B0938702BF91AF91C8
:100770009F918F913F912F910F900FBE0F901F90DF
:100780001895279A2F9A2FEF80E792E0215080400A
:100790009040E1F700C000001F9AF5CF8F929F9222
:1007A000AF92BF92CF92DF92EF92FF920F931F937F
:1007B000CF93DF93E0912504F091260482E08083BB
:1007C000E0912104F09122041082E0912304F09141
:1007D00024048FEC808310922D04E0912904F09181
:1007E0002A0486E08083E0912704F0912804808128
:1007F00080618083E0912704F091280480818860E3
:100800008083E0912704F0912804808180688083B0
:10081000E0912704F091280480818F7D80833ADD68
:100820004B015C0188EEC82E83E0D82EE12CF12C20
:1008300031DDDC01CB0188199909AA09BB09883E81
:100840009340A105B10558F021E0C21AD108E10892
:10085000F10888EE880E83E0981EA11CB11CC1141B
:10086000D104E104F10421F780917802909179029A
:10087000892B21F58FE190E00E945B0DEC01009740
:1008800091F09983888381E08B8F1C8ECE010E942A
:10089000E3121B821A82198218821E8260E070E0C5
:1008A000CE010E940D0FD0937902C0937802209759
:1008B00029F060E070E0CE010E940D0F00E010E032
:1008C00021E040E051E06CE472E080EB92E00E94B5
:1008D000791121E040E051E069E572E08AE892E0B8
:1008E0000E947911DF91CF911F910F91FF90EF90AE
:1008F000DF90CF90BF90AF909F908F900895CF9250
:10090000DF92EF92FF920F931F93CF93DF936C01CF
:100910007A018B01C0E0D0E0CE15DF0589F0D80167
:100920006D918D01D601ED91FC910190F081E02D4A
:10093000C6011995892B11F47E0102C02196ECCFD6
:10094000C701DF91CF911F910F91FF90EF90DF9042
:10095000CF9008958BED92E063DC21E0892B09F4C0
:1009600020E0822F089588E793E05ADC21E0892B6C
:1009700009F420E0822F089585E194E051DC21E024
:10098000892B09F420E0822F08950E946A140097B1
:1009900061F0FC0101900020E9F73197AF01481B9D
:1009A000590BBC0185E194E0AACF80E090E0089566
:1009B000CF93DF93ECDFEC0188E692E0E8DF8C0F69
:1009C0009D1FDF91CF9108951F920F920FB60F9246
:1009D00011240BB60F922F933F934F935F936F9316
:1009E0007F938F939F93AF93BF93EF93FF938BED81
:1009F00092E0F5DDFF91EF91BF91AF919F918F91C3
:100A00007F916F915F914F913F912F910F900BBE0E
:100A10000F900FBE0F901F9018951F920F920FB658
:100A20000F9211240BB60F922F933F934F935F9326
:100A30006F937F938F939F93AF93BF93EF93FF93A6
:100A40008BED92E0B3DDFF91EF91BF91AF919F915C
:100A50008F917F916F915F914F913F912F910F9067
:100A60000BBE0F900FBE0F901F9018951F920F9204
:100A70000FB60F9211240BB60F922F933F934F9303
:100A80005F936F937F938F939F93AF93BF93EF93F6
:100A9000FF9388E793E0A3DDFF91EF91BF91AF91C2
:100AA0009F918F917F916F915F914F913F912F9186
:100AB0000F900BBE0F900FBE0F901F9018951F92B6
:100AC0000F920FB60F9211240BB60F922F933F93F4
:100AD0004F935F936F937F938F939F93AF93BF9346
:100AE000EF93FF9388E793E061DDFF91EF91BF9172
:100AF000AF919F918F917F916F915F914F913F91B6
:100B00002F910F900BBE0F900FBE0F901F90189556
:100B10001F920F920FB60F9211240BB60F922F93C4
:100B20003F934F935F936F937F938F939F93AF9375
:100B3000BF93EF93FF9385E194E051DDFF91EF9137
:100B4000BF91AF919F918F917F916F915F914F91E5
:100B50003F912F910F900BBE0F900FBE0F901F90E3
:100B600018951F920F920FB60F9211240BB60F9289
:100B70002F933F934F935F936F937F938F939F93A5
:100B8000AF93BF93EF93FF9385E194E00FDDFF9167
:100B9000EF91BF91AF919F918F917F916F915F91F5
:100BA0004F913F912F910F900BBE0F900FBE0F9062
:100BB0001F9018950FB6F8940F928091B302909100
:100BC000B4020F900FBE08950F931F93CF93DF933E
:100BD0008C01FB01808191818F3F2FEF920721F4DF
:100BE000E801AF81B8850EC0D801139612962D91F9
:100BF0003C911397E901488159818417950710F0BA
:100C0000D901F4CF12968D919C911397938382838F
:100C1000EC01FD83EC83B583A4831396FC93EE93E0
:100C2000129711870087F80180818F5F8083DF91A1
:100C3000CF911F910F910895FC0173836283918777
:100C400080874617570778F0421B530B848595859C
:100C500048175907C0F4BF016E5F7F4F809188022B
:100C6000909189020DC04217530718F46217730759
:100C700050F4BF016E5F7F4F80918A0290918B028A
:100C8000A3DF80E0089581E008950F920FB6F894F5
:100C90000F920BB60F920CB60F921F9211242F9247
:100CA0003F924F925F926F927F928F929F92AF92FC
:100CB000BF92CF92DF92EF92FF920F931F932F93E9
:100CC0003F934F935F936F937F938F939F93AF93D4
:100CD000BF93CF93DF93EF93FF93A091B102B091B5
:100CE000B2020DB60D920EB60D9213BE80918E0219
:100CF0008111F3C08091B3029091B4020196909358
:100D0000B4028093B302009799F520919302309139
:100D10009402409191025091920250939402409318
:100D2000930230939202209391022091B5022F5F9B
:100D30002093B502E0919302F09194022081211159
:100D400007C02FEF3FEF30938D0220938C0210C02D
:100D5000E0919302F09194020580F681E02D0680E7
:100D6000F781E02D2281338130938D0220938C0214
:100D700020918C0230918D028217930710F420E0AD
:100D80009CC020E019E0E0919302F0919402308140
:100D9000311107C08FEF9FEF90938D0280938C02EB
:100DA0008CC0E0919302F09194020580F681E02DD1
:100DB0000680F781E02D428153818417950728F43E
:100DC00050938D0240938C0278C0AF014E5F5F4F0D
:100DD000A285B38564817581E680F780EB01FD8291
:100DE000EC82C681D7817B836A8311966D917C9159
:100DF00012976417750721F41296DC93CE9311971E
:100E0000138612863C9131503C933C91A489B5895C
:100E10001097F9F066857785E088F188EB01FD820F
:100E2000EC82C089D1897B836A831196ED90FC9016
:100E30001297BF01645F7F4FE616F70621F4129602
:100E4000DC93CE931197158A148A3C9131503C93D0
:100E50003C91A6893091DA023A1710F4A093DA0295
:100E60001A9FD0011124BD016A547D4F7B01DB0123
:100E70001196CD91DC911297D583C4836C817D81CD
:100E8000778366836C817D81DB0113965C934E933F
:100E900012975D834C83F386E286E70138813F5FDA
:100EA0003883A091B102B091B202468956963C9126
:100EB000431708F468CF21E066CFE091B102F091CA
:100EC000B202E689D9E0ED9FF0011124EA54FD4F0A
:100ED0008081823040F021E006C080917A028F5FED
:100EE00080937A0220E080917B02811103C022234B
:100EF00009F466C080918E02882321F081E08093FE
:100F00007B025EC010927B02A091B102B091B2024E
:100F1000E091B102F091B2022D913C918789908DC0
:100F200082179307A8F08091B1029091B20280914C
:100F3000B1029091B202279A2F9A2FEF67EA71E6D9
:100F4000215060407040E1F700C000001F9AF5CFCB
:100F50008091DA0269E001C08150482F50E0649F1F
:100F60009001659F300D1124F901EA54FD4F9081E5
:100F7000992391F3A181B28112960D90BC91A02D7D
:100F8000B283A18327543D4FA217B30731F41296C1
:100F90002D913C9113973283218399E0949FF00126
:100FA000959FF00D1124EA54FD4F0180F281E02D50
:100FB000268137813093B2022093B1028093DA0206
:100FC000A091B102B091B202CD91CDBFDD91DEBF53
:100FD000FF91EF91DF91CF91BF91AF919F918F9151
:100FE0007F916F915F914F913F912F911F910F9141
:100FF000FF90EF90DF90CF90BF90AF909F908F9039
:101000007F906F905F904F903F902F901F900F9028
:101010000CBE0F900BBE0F900FBE0F900895FC01F9
:10102000DB010FB6F8940F924091B3025091B402D5
:10103000818192812D913C9111972F3F6FEF36075F
:10104000F1F07091B5026081761719F048175907D1
:10105000C0F4481B590B4217530770F4241B350B7F
:101060002D933C938091B50280838091B30290913F
:10107000B4029283818303C01D921C9202C080E05F
:1010800001C081E00F900FBE089580918E028F5FA6
:1010900080938E0208950FB6F8940F92FC01928D02
:1010A0000F900FBE81E0911180E00895EEDD18955C
:1010B000CF93DF93FC01A085B18582819381248148
:1010C0003581EC013D832C83C481D5819B838A8348
:1010D00011968D919C9112978E179F0721F412966D
:1010E000DC93CE931197118610868C9181508C934E
:1010F0008C91DF91CF910895EF92FF920F931F9300
:10110000CF93DF93E0918A02F0918B028081882354
:1011100059F10580F681E02D00811181C681D781CA
:101120007E0182E0E80EF11CC701C2DFE989FA897D
:10113000CE0119958E85813029F72C853D85200FAC
:10114000311F0217130758F43B832A83D987C887B6
:10115000B70180918A0290918B0236DDD3CFB8011E
:10116000CE010E940D13CECF80918802909189020A
:1011700090938B0280938A02F0938902E093880215
:10118000DF91CF911F910F91FF90EF900895CF9332
:10119000DF939C01FB01DC011196CD91DC9112974C
:1011A000D383C2838C819D81958384838C819D812F
:1011B000DC0113967C936E9312977D836C83318749
:1011C0002087F90180818F5F8083DF91CF9108951F
:1011D000EF92FF920F931F93CF93DF931F92CDB7A0
:1011E000DEB77C010091B3021091B4028091B1028C
:1011F0009091B202029669835BDF69818FEFE816F6
:10120000F80691F4662381F06091B1027091B20208
:101210006E5F7F4F85E992E00F90DF91CF911F9134
:101220000F91FF90EF90B3CFE00EF11EE091B1026D
:10123000F091B202F382E2826091B1027091B20247
:10124000E016F10670F480919102909192026E5F27
:101250007F4F0F90DF91CF911F910F91FF90EF90F3
:10126000B3CC80919302909194026E5F7F4FACDC7F
:1012700080918C0290918D02E816F90620F4F0928C
:101280008D02E0928C020F90DF91CF911F910F9110
:10129000FF90EF900895CF93DF93EB012091B1027F
:1012A0003091B202B901645F7F4F8EDC61E0CE0104
:1012B000DF91CF918DCF0F931F93CF93DF93DC01FD
:1012C0001596ED91FC911697C681D7818E01045F2A
:1012D0001F4FC801EDDE80918E02811113C00A50AC
:1012E0001109C801E5DE9E898091DA02891710F4A0
:1012F0009093DA02B9E09B9FC0011124B8018A548F
:101300009D4F03C0B80187EA92E041DFE091B1024E
:10131000F091B2029E898689891720F481E080933A
:101320007B0201C080E0DF91CF911F910F91089562
:10133000EF92FF920F931F93CF93DF93EC010FB6C1
:10134000F8940F921E8D7C0181E1E80EF11C01E002
:10135000111654F48989882339F0C701ACDF811153
:1013600000937B021150F4CF8FEF8E8F0F900FBE42
:101370000FB6F8940F921D8D7E0188E0E80EF11CE7
:1013800001E0111654F48885882339F0C70193DFF2
:10139000811100937B021150F4CF8FEF8D8F0F904E
:1013A0000FBEDF91CF911F910F91FF90EF900895A5
:1013B0000F920FB6F8940F920BB60F920CB60F92D5
:1013C0001F9211242F923F924F925F926F927F92C1
:1013D0008F929F92AF92BF92CF92DF92EF92FF9245
:1013E0000F931F932F933F934F935F936F937F932D
:1013F0008F939F93AF93BF93CF93DF93EF93FF931D
:10140000A091B102B091B2020DB60D920EB60D923E
:1014100080918E02882321F081E080937B025EC060
:1014200010927B02A091B102B091B202E091B102A0
:10143000F091B2022D913C918789908D821793078C
:10144000A8F08091B1029091B2028091B102909186
:10145000B202279A2F9A2FEF87EA91E62150804017
:101460009040E1F700C000001F9AF5CF8091DA02AA
:1014700069E001C08150482F50E0649F9001659F52
:10148000300D1124F901EA54FD4F9081992391F315
:10149000A181B28112960D90BC91A02DB283A1833F
:1014A00027543D4FA217B30731F412962D913C916A
:1014B00013973283218399E0949FF001959FF00D5B
:1014C0001124EA54FD4F0180F281E02D26813781FD
:1014D0003093B2022093B1028093DA02A091B1025C
:1014E000B091B202CD91CDBFDD91DEBFFF91EF9102
:1014F000DF91CF91BF91AF919F918F917F916F912C
:101500005F914F913F912F911F910F91FF90EF901D
:10151000DF90CF90BF90AF909F908F907F906F9013
:101520005F904F903F902F901F900F900CBE0F90A8
:101530000BBE0F900FBE0F9008958F929F92AF92A7
:10154000BF92CF92DF92EF92FF920F931F93CF93B0
:10155000DF930FB6F8940F9280918E0281508093A2
:101560008E0280918E02882311F080E0EBC0809182
:10157000B0028823D1F3C0E0D0E029E0F22EEE24BF
:10158000E3948091A702882339F1E091AC02F091B5
:10159000AD02C681D781CE010C968ADD8E010E5F29
:1015A0001F4FC80185DD9E898091DA02891710F4EA
:1015B0009093DA02F99EC0011124B8018A549D4F1C
:1015C000E6DDE091B102F091B2029E89868998171A
:1015D000C0F2E0927B02D5CFCD2B11F00E946F01BB
:1015E000E0907A02EE2009F4A6C089E0B82EAA2481
:1015F000A394CC24CA94DC2C80918E02811189C0E2
:10160000C091B302D091B4022196D093B402C0939A
:10161000B3022097B9F480919302909194022091A3
:10162000910230919202309394022093930290930E
:101630009202809391028091B5028F5F8093B502F0
:101640000E946F0180918C0290918D02F12CC8173D
:10165000D90708F44EC0E0919302F0919402808182
:10166000811105C0D0928D02C0928C0242C0E091DF
:101670009302F09194020580F681E02D0681178196
:10168000D80112968D919C911397C817D90728F409
:1016900090938D0280938C022CC04801B2E08B0E97
:1016A000911CC40105DDF80184899589892B19F005
:1016B000C8010C96FDDCD80156968C919091DA0207
:1016C000981710F48093DA02B89EC0011124B40177
:1016D0008A549D4F5CDDE091B102F091B202D801D5
:1016E00056969C918689981708F4B5CFFF24F394F9
:1016F000B2CFE091B102F091B202E689BE9EF00154
:101700001124EA54FD4F8081823048F0FF24F39485
:1017100006C080917A028F5F80937A02F12C8091CB
:101720007B02811101C0F110A0927B02EA94E110CA
:1017300063CF10927A0280917B02882309F415CF3F
:1017400037DE81E00F900FBEDF91CF911F910F9197
:10175000FF90EF90DF90CF90BF90AF909F908F90D1
:101760000895FC010396928381832FEF3FEF34832A
:101770002383968385839087878310820895CF93F0
:10178000DF93009741F0EC0180DCCE010E94D21380
:10179000DF91CF91D2CEDF91CF910895CF93DF9398
:1017A000CDB7DEB72C970FB6F894DEBF0FBECDBF16
:1017B000E0918A02F0918B028081FF24F3948823C8
:1017C00039F0F12C0580F681E02D0081118102C0F5
:1017D00000E010E05ADCEED96C0180917D0290911E
:1017E0007E02C816D90618F487DC81E001C080E0CB
:1017F000D0927E02C0927D0281116CC0F1102DC08A
:10180000C016D10690F199DEE0918A02F0918B0228
:101810000580F681E02DE680F780C701029648DC5E
:10182000D7011E968C911E97813079F41C966D918C
:101830007C911D97600F711F9801A601C701FCD90B
:10184000882319F0B801C701E8D6D7015196ED9168
:10185000FC915297C7011995B3C0E0918802F091AD
:1018600089028081BB24B3948111B12CE0908F0256
:10187000F09090020FB6F8940F92F701858D8F3F8C
:1018800009F4158ED7015E968C915E978F3F11F407
:101890005E961C920F900FBEF701828D811113C0CE
:1018A0006091B1027091B202645F7F4FC7014196AF
:1018B0006EDCB11004C0C8018C199D0902C08FEF05
:1018C0009FEF6B2D85DCC70133DD37DE811178C0DA
:1018D0006FDD76C032DE74C0911109C08091B5020F
:1018E0008E838091B3029091B40298878F830F907A
:1018F0000FBECBDB0FB6F8940F92D8015D968C919A
:101900005D978F3F11F45D961C92F801868D8F3F95
:1019100009F4168E0F900FBEBE01675F7F4FCE0198
:1019200006967DDB8111BEC0C801B5DB882309F4B2
:10193000B5C069857A85C601AEDCC801F9DCFDDD7C
:10194000882309F4A9C091E00FB6F8940F92F8012A
:10195000F28CFF2009F498C0448D41113DC0FA94E7
:10196000F801F28E8085811150C00F900FBEF98072
:10197000F7FC26C00C811D81D8011A968D919C918F
:101980001B97892B19F0C801029692DB13D9AC0181
:1019900080917D0290917E024817590728F44B8769
:1019A0005C87AADB5C854B8550937E0240937D0269
:1019B0008F2DFF0C990BAA0BBB0B8A30910568F198
:1019C00000918F02109190021A86198690E06801AA
:1019D000B1E1CB0ED11CB8CF50E086819781840F46
:1019E000951F97838683228133818217930720F086
:1019F0008081918197838683D80116966D917C9121
:101A00001797CE0101966AD7AACFC801089653DC72
:101A1000882309F4AACFCCDCA8CFFC018827EE5894
:101A2000FF4F8F4F22C6EA80FB80F80164857585E1
:101A30006E0D7F1D9701C801FFD8882309F4C0CF20
:101A4000D8015196ED91FC915297C8011995F80172
:101A50008685813009F0B4CF84859585B701680FFC
:101A6000791FC801DAD5ACCF6A817B81D8011D9678
:101A70007C936E931C97640F751F9A01C801DCD884
:101A80009FCFC8017CDE9CCF29853A85232B09F0A6
:101A900023CF0F900FBE8CCE8BDC55CFC80148DC16
:101AA0004CDD51CFC80144DC48DDC801F4DA88239D
:101AB00009F449CF7DCE0F931F93CF93DF931F92ED
:101AC0001F92CDB7DEB789839A83DFDA89819A8145
:101AD000D4D58C0132DD0115110511F40E94C1032A
:101AE000C8010F900F90DF91CF911F910F91089532
:101AF000EBEDF2E01382128248EE53E060E070E01A
:101B000044835583668377838DE092E0918380835D
:101B100025ED30E03587248724ED30E037872687B0
:101B200020ED30E0318B208B21ED30E0338B228BA8
:101B300022ED30E0358B248B26ED30E0378B268B81
:101B4000118E128E138E148EE8E7F3E01382128248
:101B50004483558366837783918380832DEC30E0C3
:101B6000358724872CEC30E03787268728EC30E057
:101B7000318B208B29EC30E0338B228B2AEC30E048
:101B8000358B248B2EEC30E0378B268B118E128E0A
:101B9000138E148EE5E1F4E01382128244835583A0
:101BA000668377839183808385EC90E09587848733
:101BB00084EC90E09787868780EC90E0918B808B17
:101BC00081EC90E0938B828B82EC90E0958B848B00
:101BD00086EC90E0978B868B118E128E138E148E6E
:101BE0000895789484B5826084BD84B5816084BD95
:101BF00085B5826085BD85B5816085BD80916E00AB
:101C0000816080936E0010928100809181008260DB
:101C10008093810080918100816080938100809118
:101C200080008160809380008091B1008460809307
:101C3000B1008091B00081608093B00080919100EC
:101C400082608093910080919100816080939100E7
:101C5000809190008160809390008091A1008260CB
:101C60008093A1008091A10081608093A100809168
:101C7000A00081608093A000809121018260809308
:101C800021018091210181608093210180912001B7
:101C900081608093200180917A00846080937A0033
:101CA00080917A00826080937A0080917A008160CE
:101CB00080937A0080917A00806880937A001092F5
:101CC000C1000E94CE0306EC14E020E040EC50E09E
:101CD0006BE672E08CE790E00CD3813009F08CC0A9
:101CE0000FB6F8940F9280918F0290919002892BF9
:101CF00029F58BEB94E035DD82EB94E032DD8BEB64
:101D000094E090938B0280938A0282EB94E090930C
:101D100089028093880281E590E0CDDEEC01009796
:101D200049F04F96998388838AE08B8F85E08C8F6A
:101D3000CE0149D4D0939002C0938F020F900FBE72
:101D400080918F0290919002892B09F455C004EC88
:101D500014E023E045E550E060E772E08EEC9BE0A4
:101D6000C8D2813009F048C0F8942FEF3FEF30938C
:101D70008D0220938C028093DB041092B4021092A7
:101D8000B302A89520EC88E190E00FB6F894A895EE
:101D9000809360000FBE20936000A091B102B091CB
:101DA000B202CD91CDBFDD91DEBFFF91EF91DF910A
:101DB000CF91BF91AF919F918F917F916F915F91E3
:101DC0004F913F912F911F910F91FF90EF90DF90D6
:101DD000CF90BF90AF909F908F907F906F905F90CB
:101DE0004F903F902F901F900F900CBE0F900BBE06
:101DF0000F900FBE0F9008950E94C1030E94CE0362
:101E00000E941C01FDCF41D960E082E190E0E0D961
:101E100094DB811101C0CCCA0895AF92BF92DF92CA
:101E2000EF92FF920F931F93CF93DF9300D01F92F7
:101E30001F92CDB7DEB78C017B011D821C8290E022
:101E4000580188E0A80EB11C0FB6F8940F92F80163
:101E5000228D838D281708F068C0D28C448D4111E3
:101E60003DC080819181892B09F04FC0F801E2804B
:101E7000F380E114F10411F480E02CC0F70182A199
:101E8000815082A3268991A12917B1F38111F4CF42
:101E90005701F2E0AF0EB11CC5010AD9F70191A1BB
:101EA000968B492F50E024E030E0241B350B35871A
:101EB00024878091DA02891710F49093DA0229E0DE
:101EC000249FC001259F900D1124B5018A549D4F78
:101ED0005ED981E0F8011382128218C050E0B70188
:101EE000F80184819581FAD4F801248D848195814B
:101EF000820F911D958384832281338182179307FA
:101F000020F0808191819583848380E0D394F801CF
:101F1000D28E9189992319F0C8014196CCD98111AB
:101F200047DA0F900FBE81E04BC02C813D81232BFF
:101F300019F40F900FBE43C0911109C08091B502F2
:101F400089838091B3029091B4029B838A830F901E
:101F50000FBE9BD80FB6F8940F92F801858D8F3F76
:101F600009F4158EF801868D8F3F09F4168E0F90B7
:101F70000FBEBE016C5F7F4FCE01019650D881111C
:101F80001BC00FB6F8940F92F801928D838D0F90BD
:101F90000FBE98130DC06C817D81C5017CD9C8012D
:101FA000C7D9CBDA882311F091E04ECF01DAFCCF0C
:101FB000C801BED9C2DAF8CFC801BAD9BEDA80E00A
:101FC0000F900F900F900F900F90DF91CF911F9176
:101FD0000F91FF90EF90DF90BF90AF9008956F92B8
:101FE0007F928F929F92AF92BF92CF92DF92EF92A9
:101FF000FF920F931F93CF93DF9300D01F921F92F6
:10200000CDB7DEB78C0185E090E09D838C83D12C29
:1020100090E0580121E1A20EB11C89E0C82E24E015
:10202000822E912C0FB6F8940F92D8015A968C916B
:102030005A97882351F181505A968C935A978D91D3
:102040009C91892BA1F48091B1029091B202892BCD
:1020500039F0E091B102F091B20282A18F5F82A3C8
:102060008091B1029091B202F80193838283D801EA
:1020700018968C91882329F0C80108961CD98111E3
:1020800097D90F900FBE81E020C12C813D81232B79
:1020900009F418C1911109C08091B502898380911A
:1020A000B3029091B4029B838A830F900FBE0E946B
:1020B00045080FB6F8940F92F801858D8F3F09F40B
:1020C000158ED8015E968C915E978F3F11F45E96C7
:1020D0001C920F900FBEBE016C5F7F4FCE01019628
:1020E0000E940F08811185C0C8010E944B088823F7
:1020F00009F47BC0F80180819181892B09F068C0C7
:102100000FB6F8940F92E280F380E114F10409F421
:102110005CC0F7018689E091B102F091B202968924
:10212000891708F046C0D7011C962D913C911D9748
:1021300037FD0CC0E091B102F091B2029689940192
:10214000291B31091D963C932E931C97C89EC001F4
:1021500011248A549D4FF7012285338528173907AA
:10216000F1F43701F2E06F0E711CC3010E945808B0
:10217000E091B102F091B2022689D70156962C93D4
:102180008091DA02821710F42093DA02C29EC00115
:102190001124B3018A549D4F0E94C70807C0E091E3
:1021A000B102F091B2028689F701868BDD24D394C7
:1021B0000DC0E091B102F091B202DD24D394D701B9
:1021C00091969C918689981708F0D12C0F900FBE9C
:1021D0006C817D81C5015FD8C801AAD8AED988239A
:1021E00011F091E01FCFE4D8FCCFC801A1D8A5D948
:1021F000F8CFC8019DD8A1D9C8010E944B088823F7
:1022000081F3DD2009F460C00FB6F8940F92F80155
:102210008189882339F00688F789E02D908184E050
:10222000891B01C080E0D80112960D911C91139773
:102230000115110509F446C0F80191A1891708F4A8
:10224000892FD80156969C9156979817D9F1929656
:102250002C9192972130B1F556968C9356971C96F7
:102260002D913C911D9737FD08C024E030E0281BDC
:1022700031091D963C932E931C97B9E09B9FC0019A
:1022800011248A549D4FF801228533852817390778
:10229000C9F47801F2E0EF0EF11CC7010E94580862
:1022A000D80156969C918091DA02891710F4909388
:1022B000DA02B9E09B9FC0011124B7018A549D4FF7
:1022C0000E94C7080F900FBE80E00F900F900F90F4
:1022D0000F900F90DF91CF911F910F91FF90EF9092
:1022E000DF90CF90BF90AF909F908F907F906F9036
:1022F00008957F928F929F92AF92BF92CF92DF927A
:10230000EF92FF920F931F93CF93DF93982EC92ED6
:10231000762E872EEA01D22ECA01CDDB5C01892BF5
:1023200009F442C188E290E0C6DB7C010097D1F05D
:10233000DC015896BC92AE925797AE0165EA70E008
:10234000C501D5D22197D7015796ED91FC915897A9
:10235000EC0FFD1FB701675E7F4FA72DB82DCD0194
:10236000089606C0C5010BDA1FC1A817B90749F0C6
:102370009D014D91EB014993BE01E9012881211195
:10238000F4CFD70190961C922D2D243008F023E035
:10239000E7012E8B29A31AA21B861A861D8A1C8A86
:1023A000F986E88684E090E0821B91099D878C87FE
:1023B000FB8AEA8A1BA21CA21DA21EA21FA291E1F7
:1023C0009083DF01119782E28C93119723E32C9382
:1023D00011979C921197CC9211971C9211971C9275
:1023E000119720E82C9311971C9211971C9211972A
:1023F0001C92119722E02C93119723E02C931197B4
:1024000024E02C93119725E02C93119726E02C9330
:10241000119727E02C93119728E02C93119729E02E
:102420002C93119720E12C9311979C93119792E193
:102430009C93119793E19C93119794E19C9311972E
:1024400095E19C93119796E19C93119797E19C934A
:10245000119798E19C93119799E19C93119790E2C1
:102460009C93119791E29C9311978C93119783E21F
:102470008C9311971C9211971C92119786E28C9362
:10248000119787E28C93119788E28C93119789E2D8
:102490008C93119780E38C93119781E38C93B99778
:1024A000F983E8830115110519F0F801F182E08242
:1024B0000FB6F8940F928091B0028F5F8093B002B4
:1024C0008091B1029091B202892B89F5F092B2020B
:1024D000E092B1028091B002813009F03AC086EBFF
:1024E00092E03FD98FEB92E03CD988EC92E039D969
:1024F00081ED92E036D981ED94E033D988EC94E017
:1025000030D987EA92E02DD98EE992E02AD985E97F
:1025100092E027D981ED94E0909394028093930206
:1025200088EC94E0909392028093910212C0809183
:10253000DB0481110EC0E091B102F091B2029689E4
:10254000D70156968C91891720F0F092B202E09252
:10255000B1028091DA048F5F8093DA04E7018E89FB
:102560009091DA02981710F48093DA02D9E08D9FE7
:10257000C0011124B7016E5F7F4F8A549D4F0E94A6
:10258000C7080F900FBE8091DB04882359F0E091BB
:10259000B102F091B2029689F7018689981710F47A
:1025A0000E94D80981E001C08FEFDF91CF911F9188
:1025B0000F91FF90EF90DF90CF90BF90AF909F90E2
:1025C0008F907F900895CF93DF93EC010FB6F8942E
:1025D0000F92288139819B8D4C8D949FC0011124CD
:1025E000B901680F791F7B836A831A8E3D832C8320
:1025F000841B9109820F931F9F838E838FEF8D8F92
:102600008E8FCE010896ADD8CE014196AAD80F90F4
:102610000FBE81E0DF91CF910895CF93DF9300D07B
:102620001F921F92CDB7DEB79C0180918F029091CF
:102630009002009761F019827B836A833D832C832B
:102640002091DB04222329F020918E0202C080E039
:1026500004C0BE016F5F7F4FE0DB0F900F900F90C3
:102660000F900F90DF91CF910895EE0FFF1F881FFD
:102670008BBF0790F691E02D1994CF93DF938230B2
:10268000910510F482E090E0E091DE04F091DF0427
:1026900020E030E0C0E0D0E0309711F1408151817E
:1026A00048175907C0F04817590761F48281938190
:1026B000209719F09B838A832BC09093DF0480932B
:1026C000DE0426C02115310519F04217530718F40E
:1026D0009A01BE01DF01EF010280F381E02DDCCF22
:1026E0002115310509F1281B390B2430310590F4EF
:1026F00012968D919C9113976115710521F0FB0144
:102700009383828304C09093DF048093DE04FD01F1
:10271000329644C0FD01E20FF31F81939193225042
:1027200031092D933C933AC02091DC043091DD04B3
:10273000232B41F420910202309103023093DD04F7
:102740002093DC0420910002309101022115310513
:1027500041F42DB73EB74091040250910502241B6D
:10276000350BE091DC04F091DD04E217F307A0F4EF
:102770002E1B3F0B2817390778F0AC014E5F5F4FD7
:102780002417350748F04E0F5F1F5093DD04409328
:10279000DC048193919302C0E0E0F0E0CF01DF918F
:1027A000CF9108950F931F93CF93DF93009709F470
:1027B0008CC0FC013297138212820091DE041091CA
:1027C000DF040115110581F420813181820F931FEF
:1027D0002091DC043091DD042817390779F5F09356
:1027E000DD04E093DC0471C0D80140E050E0AE1796
:1027F000BF0750F412962D913C911397AD0121150E
:10280000310509F1D901F3CF9D01DA013383228328
:1028100060817181860F971F8217930769F4EC011D
:1028200028813981260F371F2E5F3F4F3183208348
:102830008A819B8193838283452B29F4F093DF0463
:10284000E093DE0442C01396FC93EE931297ED01E1
:10285000499159919E01240F351FE217F30771F436
:1028600080819181840F951F029611969C938E937F
:102870008281938113969C938E931297E0E0F0E00F
:10288000D80112968D919C911397009719F0F80139
:102890008C01F6CF8D919C9198012E5F3F4F820F56
:1028A000931F2091DC043091DD042817390769F467
:1028B000309729F41092DF041092DE0402C01382D4
:1028C00012821093DD040093DC04DF91CF911F91FD
:1028D0000F91089581E090E0F89439C0FB01DC018C
:1028E00002C001900D9241505040D8F70895DC018C
:1028F00001C06D9341505040E0F70895FB01DC01A9
:102900004150504048F001900D920020C9F701C09D
:102910001D9241505040E0F70895FB01519155231D
:10292000A9F0BF01DC014D9145174111E1F759F4C0
:10293000CD010190002049F04D9140154111C9F39E
:10294000FB014111EFCF81E090E001970895F894E9
:02295000FFCFB7
:102952000000E00480003E20000000000010037F21
:1029620004DF0056031001EE00020143656C6C3176
:102972003A0043656C6C323A00566F6C74733A00DD
:10298200416D70733A0057617474733A00456E6515
:102992007267793A005F5F5F5F5F5F0052656164F3
:1029A2004675656C43656C6C00526561644D6F746D
:1029B2006F72506F776572000D0A0049444C4500F2
:0829C200546D7220537663008E
:00000001FF
