:100000006CC400009BC4000099C4000097C40000A9
:1000100095C4000093C4000091C400008FC4000088
:100020008DC400008BC4000089C4000087C4000098
:100030000C94682E83C4000081C400007FC40000BB
:100040007DC400007BC4000079C4000077C40000B8
:1000500075C4000073C4000071C400000C94722ABF
:100060006DC400000C946A270C94412767C40000FB
:1000700065C4000063C4000061C400005FC40000E8
:100080005DC400005BC4000059C4000057C40000F8
:100090000C9418270C94EF2651C400000C94BC2A31
:1000A0004DC400004BC4000049C4000047C4000018
:1000B00045C4000043C4000041C400003FC4000028
:1000C0003DC400003BC4000039C400000C94C626A7
:1000D0000C949D2633C4000031C400002FC40000DE
:1000E0002DC40000C227C527B427B827BC27FC278A
:1000F000C927CD27D327D727DB27E127E527E927FE
:10010000FC27EF27F327F7276434643464342B3457
:1001100085349234643464342B3485344E414E49F2
:100120004E495459494E46CDCCCC3D0AD7233C17B5
:10013000B7D13877CC2B329595E6241FB14F0A0002
:100140000020410000C84200401C4620BCBE4CCAF2
:100150001B0E5AAEC59D7400407A10F35A00A0726F
:100160004E18090010A5D4E80000E87648170000F2
:10017000E40B54020000CA9A3B000000E1F50500C0
:100180000080969800000040420F000000A0860109
:10019000000000102700000000E8030000000064D9
:1001A00000000000000A0000000000010000000044
:1001B000002C76D888DC674F0823DFC1DFAE59E119
:1001C000B1B796E5E3E453C63AE651997696E8E688
:1001D000C28426EB898C9B62ED407C6FFCEFBC9C5B
:1001E0009F40F2BAA56FA5F490055A2AF75C936B6D
:1001F0006CF9676DC11BFCE0E40D47FEF520E6B528
:1002000000D0ED902E0300943577050080841E0801
:100210000000204E0A000000C80C333333330F981F
:100220006E12831141EF8D2114893BE65516CFFEE6
:10023000E6DB18D1844B381BF77C1D901DA4BBE472
:1002400024203284725E228100C9F124ECA1E53DB4
:10025000277C3C3E5E2B3D3F2F5B5D3B2C2A225C86
:100260000000000000003E5B4F5B3E3E6B4F6B3E6C
:100270001C3E7C3E1C183C7E3C181C577D571C1CA9
:100280005E7F5E1C00183C1800FFE7C3E7FF001804
:10029000241800FFE7DBE7FF30483A060E262979ED
:1002A0002926407F050507407F05253F5A3CE73C4E
:1002B0005A7F3E1C1C08081C1C3E7F14227F2214FF
:1002C0005F5F005F5F06097F017F006689956A6056
:1002D0006060606094A2FFA29408047E040810206D
:1002E0007E201008082A1C08081C2A08081E101066
:1002F00010100C1E0C1E0C30383E3830060E3E0E10
:1003000006000000000000005F000000070007007A
:10031000147F147F14242A7F2A1223130864623660
:10032000495620500008070300001C2241000041EC
:10033000221C002A1C7F1C2A08083E080800807026
:100340003000080808080800006060002010080459
:10035000023E5149453E00427F40007249494946AC
:100360002141494D331814127F1027454545393C2A
:100370004A49493141211109073649494936464917
:1003800049291E0000140000004034000000081439
:1003900022411414141414004122140802015909B2
:1003A000063E415D594E7C1211127C7F4949493607
:1003B0003E414141227F4141413E7F494949417F80
:1003C000090909013E414151737F0808087F004136
:1003D0007F41002040413F017F081422417F40407F
:1003E00040407F021C027F7F0408107F3E41414154
:1003F0003E7F090909063E4151215E7F09192946C0
:10040000264949493203017F01033F4040403F1FD5
:100410002040201F3F4038403F631408146303040A
:100420007804036159494D43007F4141410204086A
:100430001020004141417F0402010204404040403D
:1004400040000307080020545478407F2844443873
:100450003844444428384444287F385454541800BD
:10046000087E090218A4A49C787F0804047800443C
:100470007D40002040403D007F1028440000417F27
:1004800040007C047804787C0804047838444444B0
:1004900038FC1824241818242418FC7C08040408A8
:1004A000485454542404043F44243C4040207C1CC1
:1004B0002040201C3C4030403C44281028444C90B4
:1004C00090907C4464544C4400083641000000770E
:1004D0000000004136080002010204023C262326E7
:1004E0003C1EA1A161123A4040207A38545455591B
:1004F0002155557941225454784221555478402051
:10050000545579400C1E527212395555555939546B
:1005100054545939555454580000457C4100024503
:100520007D420001457C407D1211127DF028252876
:10053000F07C545545002054547C547C0A097F4972
:1005400032494949323A4444443A324A4848303AB6
:100550004141217A3A42402078009DA0A07D3D4251
:1005600042423D3D4040403D3C24FF2424487E49DA
:1005700043662B2FFC2F2BFF0929F620C0887E090C
:100580000320545479410000447D413048484A32A8
:10059000384040227A007A0A0A727D0D19317D2690
:1005A00029292F28262929292630484D4020380876
:1005B00008080808080808382F10C8ACBA2F1028F7
:1005C00034FA00007B000008142A142222142A1492
:1005D000085500550055AA55AA55AAFF55FF55FFC5
:1005E000000000FF00101010FF00141414FF001092
:1005F00010FF00FF1010F010F0141414FC0014147D
:10060000F700FF0000FF00FF1414F404FC1414179B
:10061000101F10101F101F1414141F00101010F0C2
:10062000000000001F101010101F10101010F0100C
:10063000000000FF101010101010101010FF10001C
:100640000000FF140000FF00FF00001F1017000053
:10065000FC04F414141710171414F404F40000FF2D
:1006600000F714141414141414F700F714141417C6
:100670001410101F101F141414F4141010F010F0A4
:1006800000001F101F0000001F14000000FC1400D9
:1006900000F010F01010FF10FF141414FF141010CD
:1006A000101F00000000F010FFFFFFFFFFF0F0F050
:1006B000F0F0FFFFFF0000000000FFFF0F0F0F0F23
:1006C0000F3844443844FC4A4A4A347E0202060643
:1006D000027E027E0263554941633844443C044033
:1006E0007E201E2006027E020299A5E7A5991C2AFB
:1006F000492A1C4C7201724C304A4D4D30304878BA
:100700004830BC625A463D3E494949007E010101DC
:100710007E2A2A2A2A2A44445F444440514A4440BB
:1007200040444A51400000FF0103E080FF00000800
:10073000086B6B083612362436060F090F060000C8
:1007400018180000001010003040FF0101001F01C8
:10075000011E00191D1712003C3C3C3C000000002B
:100760000053442063617264206E6F742070726560
:1007700073656E74210000000A0B02090C0D0E084F
:10078000070304010000000000000000000000005A
:100790000000000000000000000000000000000059
:1007A0000000121110000000000000000000000016
:1007B0000000000000000000000000000000220017
:1007C000250028002B002E0031003400020100001B
:1007D000050108010B0100002100240027002A0068
:1007E0002D003000330001010000040107010A015F
:1007F00005050505070508080808020202020A0A9D
:1008000008080404040401010101010101010303BA
:10081000030303030303040707070C0C0C0C0C0C65
:100820000C0C0202020206060606060606060B0B62
:100830000B0B0B0B0B0B01021020200808102040A3
:100840001020408002010201080402010102040894
:100850001020408080402010080402018004020122
:10086000804020100804020108040201010204086B
:1008700010204080010204081020408080913F0633
:10088000882309F10FB6F8940F92E0914606F09193
:100890004706C681D781CE0102960E946A2E8091BA
:1008A000400681508093400680913F06815080939E
:1008B0003F060F900FBE8F89988D0E94BA2FCE01F0
:1008C0000E94BA2FDBCF80915A06823010F00E942E
:1008D000AF2E0E941725D2CF353611241FBECFEF81
:1008E000D1E2DEBFCDBF00E00CBF13E0A0E0B2E07C
:1008F000E8EEF2E800E00BBF02C007900D92A432D0
:10090000B107D9F729E0A4E2B3E001C01D92A13CF0
:10091000B207E1F714E0CDE6D4E000E006C021978D
:100920000109802FFE010E94D63FCC36D10780E01E
:100930000807A9F70E9484300C94724161CBDC0156
:100940005996ED91FC915A973097B9F08389948923
:10095000A589B6894285538564857585841B950B69
:10096000A60BB70B811520E89207A105B10538F059
:100970008FEF9FE7A0E0B0E0089580E090E0089559
:10098000CF93DF931F92CDB7DEB76983DC01ED9182
:10099000FC910280F381E02D41E050E0BE016F5FE9
:1009A0007F4F19950F90DF91CF910895CF93DF93EB
:1009B000EC01898D9A8D009739F481E090E09B835A
:1009C0008A8380E090E00BC0FC01138212820E94B7
:1009D000E610E98DFA8D22813381232B71F7DF91A7
:1009E000CF910895CF93DF93EC0163706D8B6230EC
:1009F00041F0633041F0613011F088E005C088E6D5
:100A000003C088EC01C088EA8A8F80E890E099876B
:100A100088879B878A878B8D811103C08A8D877F0A
:100A200002C08A8D88608A8F66E3CE010E94D5124B
:100A30006A8DCE01DF91CF910C949F12611102C09B
:100A400060E201C061E20C94D512CF93DF93EC0118
:100A50008D81882399F18C8187FF2DC06E857F85DC
:100A60008889998941E00E94620D882339F1EA89D9
:100A700080E2E89FF0011124DF01A85BBC4F1097D2
:100A8000E9F08D81823050F44B895C896D897E89D3
:100A90005C964D935D936D937C935F978F89988D52
:100AA000A98DBA8DE85BFC4F938F828FB58BA48B99
:100AB0008C818F778C83DF91CF91CBC780E0DF91E2
:100AC000CF910895FC01818D928D009709F0BDCFE3
:100AD00008958F929F92AF92BF92CF92DF92EF9242
:100AE000FF920F931F93CF93DF93EC018D818111C0
:100AF00002C080E077C00B891C892D893E890417CC
:100B0000150726073707A8F36A017B01823029F40D
:100B1000CA86DB86EC86FD860DC0C114D104E104D3
:100B2000F10451F41E821F82188619861A861B86CC
:100B30001C861D8681E056C08A849B84AC84BD845B
:100B4000EB8DFC8D258530E0275F3F4FB501A4017B
:100B50004150510961097109022E04C076956795CB
:100B6000579547950A94D2F7D701C6010197A10975
:100B7000B10904C0B695A795979587952A95D2F7A0
:100B800084179507A607B70720F089288A288B289D
:100B900049F44F89588D698D7A8D4E835F836887BC
:100BA000798704C0841B950BA60BB70B4C015D0124
:100BB0008E010A5F1F4F81149104A104B10409F44E
:100BC000A7CF4E815F816885798598018B8D9C8D3B
:100BD0000E94480E91E0891A9108A108B10881117C
:100BE000EACF87CFDF91CF911F910F91FF90EF90C8
:100BF000DF90CF90BF90AF909F908F9008958F928D
:100C00009F92AF92BF92CF92DF92EF92FF920F939B
:100C10001F93CF93DF9300D01F92CDB7DEB77C0137
:100C200080E2689F600111249601285B3C4FD90146
:100C30001B969C91917121F0842F827409F095C0CC
:100C4000142FF701628B8091000290910102A09114
:100C50000202B091030286879787A08BB18BF601C1
:100C6000E85BFC4F4489558960E070E0BA01552784
:100C70004427D70157964D935D936D937C935A9774
:100C8000828D938DA0E0B0E0482B592B6A2B7B2BF3
:100C9000D70157964D935D936D937C935A97D901E5
:100CA0001B968C91887159F4848D958DA68DB78D86
:100CB000F701838B948BA58BB68B81E012C08031BA
:100CC00009F053C097012D5E3F4FD7015B968D9180
:100CD0009C915C970E94CB0E882309F446C084E067
:100CE000F7018583812F8F70D70114968C93149709
:100CF000F70116821782108611861A961D921D9290
:100D00001D921C921D9716FF32C015968C91813052
:100D100061F511FF2AC0F7014389548965897689F5
:100D2000452B462B472B09F45CC040E050E0BA014C
:100D3000C701CFDE8823C9F0F7018788908CA18C8A
:100D4000B28CC38CD48C82E090E0A0E0B0E0F601DD
:100D500080839183A283B3839E012F5F3F4FB501B0
:100D6000A401C60195D7811104C080E03AC081E09A
:100D700038C000E010E09801B501A401C601E9D631
:100D8000882399F389809A80AB80BC80D6015796DE
:100D90008C91803129F088EF9FEFAFEFBFE004C066
:100DA00088EF9FEFA0E0B0E088169906AA06BB0680
:100DB00098F2D70157961D921D921D921C925A9738
:100DC000F701138A148A158A168A848180688483BD
:100DD000C7013BDE882349F240E050E0BA01C70179
:100DE00078DE0F900F900F900F90DF91CF911F91B1
:100DF0000F91FF90EF90DF90CF90BF90AF909F90BA
:100E00008F900895CF93DF93EC011FDE882311F0BC
:100E10001D8281E0DF91CF9108953F924F925F92C2
:100E20006F927F928F929F92AF92BF92CF92DF92FA
:100E3000EF92FF920F931F93CF93DF93CDB7DEB75F
:100E40002C970FB6F894DEBF0FBECDBF5C01DC015E
:100E50005B968D909C905C971696CD90DD90ED9072
:100E6000FC901997C114D104E104F10439F0BFEFEB
:100E7000CB1ADB0AEB0AFB0A312C07C0F401C08055
:100E8000D180E280F38033243394F401818592850C
:100E9000A385B4859C01AD012F5F3F4F4F4F5F4F3E
:100EA00029873A874B875C87260137011D821E827E
:100EB0001F821886F40181859285A385B4852D81D2
:100EC0003E814F815885281739074A075B0708F08C
:100ED00060C089859A85AB85BC858C159D05AE055E
:100EE000BF0550F482E0C82ED12CE12CF12C92E009
:100EF000492E512C612C712C9E012F5F3F4FB70161
:100F0000A601C401C5D6882309F443C089819A810A
:100F1000AB81BC81892B8A2B8B2B41F026013701B9
:100F20009FEF491A590A690A790A05C0C414D50401
:100F3000E604F70491F02D813E814F8158852F5FA3
:100F40003F4F4F4F5F4F2D833E834F8358873FEF77
:100F5000C31AD30AE30AF30AADCF0FEF1FEF2FEF47
:100F60003FE0B301A201C401F4D5882391F0D5017B
:100F700016964D915D916D917C9119974115510592
:100F80006105710541F093018201C401E2D581112F
:100F900002C080E02AC0D50116964D925D926D92F6
:100FA0007C921997332051F0D301C2010196A11D03
:100FB000B11DF40180839183A283B383F5018789F6
:100FC000908DA18DB28D892B8A2B8B2B69F4D50145
:100FD00057964D925D926D927C925A9714968C9191
:100FE0001497806814968C9381E02C960FB6F89431
:100FF000DEBF0FBECDBFDF91CF911F910F91FF904C
:10100000EF90DF90CF90BF90AF909F908F907F90A8
:101010006F905F904F903F900895CF93DF93EC01D6
:1010200080912403811109C081E080932403809181
:101030002807909129070E949C1260E08C81DF9123
:10104000CF910C94932761E0FC0184810E94932747
:1010500080912403882321F0109224030C949B1286
:1010600008958EBD00000DB407FEFDCF8EB5089526
:101070008FEFF7CF0F931F93CF93DF93EB010E9476
:10108000662A8B01F5DF8F3F49F00E94662A601BBC
:10109000710B6C177D07B0F380E001C081E0DF9138
:1010A000CF911F910F910895CF93DF93EC018E8123
:1010B000882379F08F8198859C012F5F3F4F388777
:1010C0002F838230924010F4D3DFF4CFCE01BBDF08
:1010D0001E82DF91CF910895CF92DF92FF920F93FE
:1010E0001F93CF93DF9300D01F92CDB7DEB76C0173
:1010F000F62E29833A834B835C83D6DFC6018DDFCE
:101100006CE271E0C601B6DF8F2D8064AADF08E1D2
:1011100010E05C814B813A812981DA01C901002EFE
:1011200004C0B695A795979587950A94D2F7298319
:101130003A834B835C8395DF0850110929813A81FA
:101140004B815C81083F8FEF180739F7FF2029F0AA
:10115000E8E0FE1204C087E803C085E901C08FEF14
:1011600080DF10E085DFF601828787FF04C01F3F24
:1011700011F01F5FF7CF0F900F900F900F90DF913E
:10118000CF911F910F91FF90DF90CF900895AF9274
:10119000BF92CF92DF92EF92FF920F931F93CF9364
:1011A000DF93EC016901C801820F931F81309240E7
:1011B00008F06AC08E81882371F088819981AA81A4
:1011C000BB81481759076A077B0729F48F819885E7
:1011D000C816D90698F5488359836A837B838B8523
:1011E000833039F089E0440F551F661F771F8A95B9
:1011F000D1F79A01AB0161E1CE016EDF882319F0CE
:1012000083E08D8341C00E94662A5B0131DF8A87BB
:101210008F3F49F40E94662A6A197B096D3271403A
:10122000A8F38FE003C08E3F29F08DE08D83CE01BF
:101230000ADF2AC018861F8281E08E838F819885FD
:101240008C159D0538F414DF8F8198850196988759
:101250008F83F4CF6701E00EF11ECE14DF0429F076
:1012600007DFF60181936F01F8CF8F819885080F12
:10127000191F18870F838985882319F001151240DB
:1012800038F0CE0111DF04C0CE01DDDE80E001C008
:1012900081E0DF91CF911F910F91FF90EF90DF9050
:1012A000CF90BF90AF900895EF92FF920F931F934E
:1012B000CF93DF93EC01790141155105610571056B
:1012C00011F482E134C08B85833039F089E0440F1A
:1012D000551F661F771F8A95D1F79A01AB0168E108
:1012E000CE01FADE882311F084E021C08EEFB9DE52
:1012F00087018EEFF81AF80181918F01B2DE0E1589
:101300001F05C9F78FEFADDE8FEFABDEB1DE8A8749
:101310008F71853029F081E18D83CE0194DE08C084
:1013200068E572E0CE01A6DE811106C085E18D83FD
:10133000CE0189DE80E010C020E030E0A9016DE040
:10134000CE01CADE811103C093DE882311F084E14F
:10135000EECFCE0178DE81E0DF91CF911F910F912A
:10136000FF90EF900895FC01DB0112968D919C9106
:1013700013979383828387EB92E091838083149603
:101380008C911497848315968C9115978583169666
:101390004D915D916D917C9119974683578360873C
:1013A00071871A964D915D916D917C911D97428741
:1013B0005387648775871E964D915D916D917C91E1
:1013C000519746875787608B718B52968C915297B5
:1013D000828B53964D915D916D917C915697438B85
:1013E000548B658B768B57964D915D916D917C9169
:1013F0005A97478B508F618F728F5B968D919C911E
:101400005C97948F838F0895EF92FF920F931F93B1
:10141000CF93DF93EC017B018A011B821A8288EE55
:1014200093E0A0E0B0E08C839D83AE83BF838EE029
:1014300092E0998388838DE190E00E94DE3F9A8F4D
:10144000898F009779F02DE1F701DC0101900D9271
:101450002A95E1F74CE050E0B801CE010C960E94CD
:101460004941188EDF91CF911F910F91FF90EF901E
:1014700008952F923F924F925F926F927F928F9238
:101480009F92AF92BF92CF92DF92EF92FF920F9313
:101490001F93CF93DF931F921F92CDB7DEB7FC014E
:1014A0008581882309F4D6C0848180FFD3C021E0E0
:1014B0002A83438954896589768982859385A485A1
:1014C000B585481759076A077B0709F41A826F0127
:1014D0003A81832F90E0DE0111964D013F01B6E085
:1014E0006B0E711C892B09F47CC0D6011A964D91A4
:1014F0005D916D917C911D975A01B1E0BB22F6017F
:1015000025811A012B0189E056944794379427943A
:101510008A95D1F7838D948D223061F4FC01828D00
:10152000938DA48DB58DBC01CD01620D731D841DFD
:10153000951D44C0DC0114961C9111501221A11478
:10154000B104C9F4111117C0452B462B472B51F498
:10155000F6018789908DA18DB28D86839783A087B0
:10156000B18709C04681578160857185930190D309
:10157000882309F46FC0F601238D348D868197810D
:10158000A085B1850297A109B109AC01BD01F9019E
:10159000058404C0440F551F661F771F0A94D2F7B5
:1015A00086859785A089B189840F951FA61FB71FCF
:1015B000BC01CD01610F711D811D911DD6011496D5
:1015C0002C9126FF14C0009100021091010220917D
:1015D000020230910302601771078207930749F5F1
:1015E00006C0FA81FF23B1F1898190E035C040E067
:1015F00069D2882379F1F501E85BFC4FD401CF0172
:101600000196E817F90719F021912D93FACFEFEF22
:101610008E1A9E0AF60182859385A485B58501966A
:10162000A11DB11D82879387A487B58780E090E0D4
:1016300059CF740101E010E09501AB01BC0180912C
:10164000480590914905A3DD882321F0BFEF8B1A4F
:101650009B0AE0CF8FEF9FEF0F900F90DF91CF911C
:101660001F910F91FF90EF90DF90CF90BF90AF90C0
:101670009F908F907F906F905F904F903F902F90B2
:101680000895FC01818D928D009709F0F2CE8FEFC5
:101690009FEF08950F931F93CF93DF93FC01818DEC
:1016A000928D0097A9F0EF01E4DE8C010F3F8FEFE0
:1016B000180789F0898D9A8DFC01428553856485D0
:1016C0007585415051096109710903DAC80105C0E6
:1016D00080E090E002C08FEF9FEFDF91CF911F91EC
:1016E0000F9108958EBD0DB407FEFDCF08950F93A1
:1016F0001F93CF93DF931F921F92CDB7DEB78C015C
:1017000080917307909174076A83798315D7D80104
:101710009296ED91FC91939780819A969C919A97DD
:10172000982B90839096ED91FC91919720819996BA
:101730009C919095922390837981872FD3DF6A8142
:10174000862FD0DFD8019096ED91FC9191979081F2
:1017500099968C91892B80830F900F90DF91CF9178
:101760001F910F91E8C6AF92BF92CF92DF92EF9296
:10177000FF920F931F93CF93DF93EC015B017A01EC
:1017800069016AE212D78D89B501813021F0CE015D
:10179000AEDFB60107C0605E7F4FCE01A8DFB601A5
:1017A000605E7F4FCE01A3DF6BE2CE01FED68D8956
:1017B000B701811108C0605E7F4FCE0198DFB8018C
:1017C000605E7F4F03C0CE0192DFB801CE018FDF94
:1017D0006CE2CE01DF91CF911F910F91FF90EF90BE
:1017E000DF90CF90BF90AF90E0C6AF92BF92CF9204
:1017F000DF92EF92FF920F931F93CF93DF936C01D1
:101800005901E801FC0120853185621773070CF04E
:101810003EC08285938548175907CCF5FB01EA0D38
:10182000FB1D2E173F071CF45901A61AB70A9A018F
:101830002C0F3D1F821793071CF4EC01C41BD50B22
:101840008A010C0F1D1F015011099B012A0D3B1D20
:1018500021503109C60187DF1C161D066CF4850175
:10186000B701C6010230110524F041DF0150110912
:10187000F7CF3DDF2197F0CFDF91CF911F910F91EF
:10188000FF90EF90DF90CF90BF90AF9054C6DF9164
:10189000CF911F910F91FF90EF90DF90CF90BF906D
:1018A000AF900895CF92DF92EF92FF920F931F9324
:1018B000CF93DF937C016B0100EA10E020E830E079
:1018C00040E050E060E070E04EDFC0E0D0E5B601FF
:1018D000C7010DDF2197D9F7DF91CF911F910F91AC
:1018E000FF90EF90DF90CF900895CF92DF92EF922C
:1018F000FF920F931F93CF93DF937C01E90168015F
:10190000FC0180859185681779073CF52285338530
:101910004217530714F59B012C0F3D1F82179307A5
:101920001CF4EC01C61BD70B9B012C0F3D1F215053
:1019300031098A01C70117DF1C161D062CF4B601F8
:10194000C701D5DE2197F8CFDF91CF911F910F917D
:10195000FF90EF90DF90CF90EEC5DF91CF911F9178
:101960000F91FF90EF90DF90CF900895CF92DF928C
:10197000EF92FF920F931F93CF93DF937C01E901C6
:101980006801FC0180859185681779073CF582859F
:1019900093854817590714F59A012C0F3D1F82179C
:1019A00093071CF4EC01C41BD50B8A010C0F1D1FFF
:1019B000015011099B01C701D6DE1C161D062CF42F
:1019C000B601C70194DE2197F8CFDF91CF911F9127
:1019D0000F91FF90EF90DF90CF90ADC5DF91CF9149
:1019E0001F910F91FF90EF90DF90CF900895EF92AD
:1019F000FF920F931F93CF93DF93DC011896ED9125
:101A0000FC9119976E177F07ECF41A96ED91FC91F3
:101A10001B974E175F07B4F477FD14C057FD12C033
:101A2000E9017C018A010F5F1F4F9B012F5F3F4F30
:101A30009ADEBE01C701DF91CF911F910F91FF90F8
:101A4000EF9055CEDF91CF911F910F91FF90EF90C6
:101A5000089580912503882399F1409100025091C7
:101A60000102609102027091030228E433E0809148
:101A700048059091490518DC811102C080E0089565
:101A80004091260350912703609128037091290308
:101A9000411551056105710589F028E433E0809115
:101AA00048059091490500DC882341F310922603F4
:101AB00010922703109228031092290310922503F5
:101AC00081E008958F929F92AF92BF92EF92FF9222
:101AD0000F931F93CF934B015C01C42F80910002A1
:101AE00090910102A0910202B0910302881599051C
:101AF000AA05BB05F1F0ADDF811102C080E01FC077
:101B000088E4E82E83E0F82E00E012E020E030E0E8
:101B1000B501A401809148059091490538DB8823DF
:101B200069F38092000290920102A0920202B092A8
:101B3000030280912503C82BC093250381E0CF9138
:101B40001F910F91FF90EF90BF90AF909F908F905B
:101B500008954F925F926F927F928F929F92AF9271
:101B6000BF92CF92DF92EF92FF920F931F93CF938A
:101B7000DF93EC016A017B012801390142305105F4
:101B80006105710510F480E072C089859A85AB8586
:101B9000BC850196A11DB11D84179507A607B7073F
:101BA00090F38B889C88AD88BE888F89803129F41A
:101BB000BB27AF2D9E2D8D2D09C0DB01CA0147E04B
:101BC000B695A795979587954A95D1F7880E991E52
:101BD000AA1EBB1E8091000290910102A0910202F8
:101BE000B091030288169906AA06BB0679F48F897C
:101BF000803199F4DD24EE24FF24C601880F991F5B
:101C0000FC01E85BFC4F5182408218C040E0C501F6
:101C1000B40158DF8111EBCFB6CFE894C7F8DD24CB
:101C2000EE24FF24C601880F991F880F991FFC011D
:101C3000E85BFC4F4082518262827382809125036F
:101C40008160809325038A89823080F08D819E8116
:101C5000AF81B885880E991EAA1EBB1E80922603EE
:101C600090922703A0922803B092290381E0DF918C
:101C7000CF911F910F91FF90EF90DF90CF90BF9089
:101C8000AF909F908F907F906F905F904F9008954E
:101C90008F929F92AF92BF92CF92DF92EF92FF927C
:101CA0000F931F93CF93DF93FC0181859285A385CA
:101CB000B4850196A11DB11D84179507A607B70726
:101CC00010F480E05BC083899489A589B689C789AF
:101CD000C03129F4852E962EA72EBB2409C04A01B7
:101CE0005B01C7E0B694A79497948794CA95D1F7FF
:101CF000E9016A017B018F01BC01CD01680D791DED
:101D00008A1D9B1D8090000290900102A09002020B
:101D1000B0900302681579058A059B0599F4F801CE
:101D200087898031A1F4B701A60155276627772757
:101D3000440F551FFA01E85BFC4F80819181A0E0C0
:101D4000B0E017C040E0BEDE8111E9CFBACFB701E5
:101D5000A6014F77552766277727440F551F440F55
:101D6000551FFA01E85BFC4F80819181A281B3810C
:101D7000BF7088839983AA83BB8381E0DF91CF9171
:101D80001F910F91FF90EF90DF90CF90BF90AF9099
:101D90009F908F9008954F925F926F927F92AF9233
:101DA000BF92CF92DF92EF92FF920F931F93CF9348
:101DB000DF9300D01F92CDB7DEB78C0149835A83E1
:101DC0006B837C835901C12CD12C7601412C82E09C
:101DD000582E612C712C49815A816B817C819E0126
:101DE0002F5F3F4FC80154DF882351F1D301C20157
:101DF000F801058404C0880F991FAA1FBB1F0A940D
:101E0000D2F7C80ED91EEA1EFB1E49815A816B818A
:101E10007C818789803129F088EF9FEFAFEFBFE0A9
:101E200004C088EF9FEFA0E0B0E0481759076A07A9
:101E30007B0788F2F501C082D182E282F38281E0E1
:101E40000F900F900F900F90DF91CF911F910F91F6
:101E5000FF90EF90DF90CF90BF90AF907F906F900A
:101E60005F904F9008954F925F926F927F92AF92E2
:101E7000BF92CF92DF92EF92FF920F931F93CF9377
:101E8000DF93CDB7DEB72B970FB6F894DEBF0FBE4A
:101E9000CDBF7C01CE0101966C01FC0190E28BE08C
:101EA0008C0D91938E13FDCFDA0130E047E09D91C8
:101EB000992339F19E3219F0E1E5F2E00AC04A3087
:101EC00009F46EC138E04AE0F2CF3196891709F47F
:101ED00067C184918111F9CF431708F461C18FED77
:101EE000890F8E3508F05CC181E0830FF601E30FA6
:101EF000F11D3FE9390F3A3108F490529083382FA1
:101F0000D6CF8981803209F44BC1B22E8B01DB011F
:101F10005B968D919C915C97F701948F838F1696B9
:101F20001D921D921D921C921997FB011286138619
:101F300014861586712CF80182859385A485B58554
:101F4000438954896589768984179507A607B70759
:101F500008F060C025E0B695A795979587952A95D6
:101F6000D1F7F82FFF706F2ED80115968C91823023
:101F700008F416C1C8017DDA97FD12C1F801828507
:101F80009385A485B5854F96A11DB11D8287938742
:101F9000A487B587F0E26F9EC0011124BC01685B85
:101FA0007C4F6115710509F4FBC0DB012C912223E4
:101FB00019F0253EC1F427C071100EC0F701628AE6
:101FC000409100025091010260910202709103025F
:101FD00046875787608B718BFC01E85BFC4F8081E3
:101FE000811113C015C04BE050E0C6010E940F41A3
:101FF000892B09F0A0CF8B2D8073803309F4D0C0DA
:102000004B2D662DC9C07720C9F27724739493CFE6
:10201000772473948B2D8271823109F0C1C07720AF
:10202000C9F0D7011E966D917D918D919C9151972C
:1020300041E048DD882309F4B3C0F7016289F0E28A
:102040006F9FB0011124685B7C4F6115710509F029
:1020500078C0A6C0D80115968C91823009F4A0C032
:10206000C8010E940D07882309F49AC0D8015B9625
:10207000ED91FC915C9716964D905D906D907C90E3
:102080001997B2E04B1A510861087108058404C021
:10209000440C551C661C771C0A94D2F786859785DC
:1020A000A089B189480E591E6A1E7B1EA480E1E0FA
:1020B0004E1A510861087108AA2001F1CADC882370
:1020C00009F46EC0E8E4F3E0119225E0E834F20789
:1020D000D9F7D301C2018A0D911DA11DB11D8093B5
:1020E000000290930102A0930202B0930302809138
:1020F0002503816080932503AA94DECFD8015B96E7
:10210000ED91FC915C9780E092E0A0E0B0E0058466
:1021100004C0880F991FAA1FBB1F0A94D2F7F801A9
:102120004389548965897689840F951FA61FB71F37
:10213000838B948BA58BB68BD70152961C9268E447
:1021400073E080E2FB0111928A95E9F78BE0F601DA
:10215000DB0101900D928A95E1F781E298E2DB01C3
:1021600051969C938E93509720E038E01F963C93B5
:102170002E931E9753969C938E93529759969C93A9
:102180008E93589757963C932E93569762DC8823EC
:1021900039F04B2DF7016289C7010E94FF0501C08C
:1021A00080E02B960FB6F894DEBF0FBECDBFDF9157
:1021B000CF911F910F91FF90EF90DF90CF90BF9044
:1021C000AF907F906F905F904F9008952F923F92C5
:1021D0004F925F926F927F928F929F92AF92BF9237
:1021E000CF92DF92EF92FF920F931F93CF93DF93E3
:1021F00000D01F92CDB7DEB78C015B011A01DC0164
:1022000015968C9115978130C9F414968C9181FFA5
:1022100015C082FF1BC0F8014389548965897689FE
:1022200082859385A485B58584179507A607B7078A
:1022300069F0C8010E946905811108C081E090E041
:10224000F8019383828380E090E036C1610183C00E
:10225000D8015B968D919C915C97FC012481215063
:102260002A013B0139E076946794579447943A9554
:10227000D1F7722E74207A01F1E0FF22772009F461
:1022800076C080E092E08E199F0946018C159D056D
:1022900008F44C01D8015B962D913C915C97169601
:1022A0008D919D910D90BC91A02D0297A109B1092E
:1022B000F901058404C0880F991FAA1FBB1F0A9447
:1022C000D2F74685578560897189840F951FA61FAF
:1022D000B71F9C01AD01270D311D411D511D290165
:1022E0003A01811432E0930609F087C08091000220
:1022F00090910102A0910202B0910302841595050C
:10230000A605B70559F48FEF9FEFDC01809300021B
:1023100090930102A0930202B09303029501B301CE
:10232000A20180914805909149050E945409882393
:1023300009F484CF9EEFB91AC818D908F80182852C
:102340009385A485B585880D991DA11DB11D828732
:102350009387A487B587D8011A964D915D916D91A9
:102360007C911D97C114D10409F072CF84C0E1148F
:10237000F10409F086CF16964D915D916D917C9197
:102380001997411551056105710559F457968D91BD
:102390009D910D90BC91A02D0097A105B10539F537
:1023A00020C09E012F5F3F4F73DC882309F44CCF80
:1023B00089819A81AB81BC81F801238D348DF9012B
:1023C0002789203129F048EF5FEF6FEF7FE004C0ED
:1023D00048EF5FEF60E070E084179507A607B70746
:1023E00030F0C8010E940D0781114BCF27CFF801B3
:1023F00086839783A087B18744CFE114F10421F548
:10240000D8011A964D915D916D917C911D975396CF
:102410008D919D910D90BC91A02D481759076A0789
:102420007B0790F016DB882309F408CF4092000266
:102430005092010260920202709203028091250381
:1024400081608093250307C041E0C301B2013ADBFC
:10245000882309F4F3CED501F701E85BFC4FCF01E7
:10246000880D991DE817F90719F02D912193FACFDE
:10247000A80CB91C61CF53968D919D910D90BC9184
:10248000A02D84179507A607B70740F4F801438BE2
:10249000548B658B768B848180688483D8011496F5
:1024A0008C9183FD02C0C10107C0C8010E942505AF
:1024B000882309F4C3CEF7CF0F900F900F900F90A1
:1024C000DF91CF911F910F91FF90EF90DF90CF9010
:1024D000BF90AF909F908F907F906F905F904F9044
:1024E0003F902F900895CF93DF931F92CDB7DEB723
:1024F000698341E050E0BE016F5F7F4F67DE0F9060
:10250000DF91CF910895089580E090E008950F93B2
:102510001F93CF93DF938C01EB010E945B3E888376
:10252000C80101960E945B3E8983CE01DF91CF9165
:102530001F910F91089508958CBD9DBD08950F932F
:102540001F93CF93DF931F92CDB7DEB78C0180919D
:102550007307909174076983EFDFD8019296ED912C
:10256000FC91939780819A969C919A97982B90834F
:102570009096ED91FC919197208199969C919095E0
:10258000922390836981862FADD8D8019096ED91E2
:10259000FC919197908199968C91892B80830F90D3
:1025A000DF91CF911F910F9108950F931F93CF93B8
:1025B000DF931F92CDB7DEB78C01809173079091A6
:1025C00074076983B9DFD8019296ED91FC919397D6
:1025D00020819A969C919A979095922390839096B9
:1025E000ED91FC919197208199969C9190959223E1
:1025F00090836981862F76D8D8019096ED91FC91D1
:102600009197908199968C91892B80830F90DF917F
:10261000CF911F910F910895CF93DF93CDB7DEB780
:10262000C25AD1090FB6F894DEBF0FBECDBFE096F7
:102630001FAE1EAEE09780E292E0AE969FAF8EAFE7
:10264000AE97ED961FAEED978FEFEC968FAFEC97B0
:10265000EB961FAEEB97EE961FAEEE9787E2E896ED
:102660008FAFE897E9961FAEE997EA961FAEEA9713
:10267000E7961FAE1EAEE79784E0EF968FAFEF9719
:1026800082E0C158DF4F8883CF57D04011E0C05857
:10269000DF4F1883C058D04080E1CF57DF4F888389
:1026A000C158D04080E2CE57DF4F8883C258D04017
:1026B00080E4CD57DF4F8883C358D04080E8CC57A3
:1026C000DF4F8883C458D04040E050E063E0CE0143
:1026D00084599F4F0E94222923961FAE1EAE239736
:1026E00080E890E025969FAF8EAF259727969FAF05
:1026F0008EAF279729969FAF8EAF29972B969FAFC6
:102700008EAF2B9765961FAE65972D961FAE1EAEAA
:102710002D972F961FAE1EAE2F9764961FAF64970E
:102720008FEF9FEF63969FAF8EAF639761969FAFDA
:102730008EAF619766961FAF669767961FAE6797D5
:1027400069961FAE1EAE699784E392E021969FAF13
:102750008EAF21978AE0A4968FAFA49789E0A596C3
:102760008FAFA5978BE0A6968FAFA69720E044E0A9
:1027700064E1CE0184599F4F0E94AB296FEFCE01D7
:1027800084599F4F0E949129AB961FAEAB97AC9690
:102790001FAEAC97A5968FADA5970E943F2CA4962F
:1027A0008FADA4970E943F2CA4962FADA49730E044
:1027B000F901E051F84FE491F0E0EE0FFF1FE4540F
:1027C000F84F85919491A1969FAF8EAFA197A59652
:1027D0004FADA59750E0FA01E051F84F8491E82FF2
:1027E000F0E0EE0FFF1FE454F84F85919491A3960B
:1027F0009FAF8EAFA397F901EA5CF74FE491A996DA
:10280000EFAFA997FA01EA5CF74FE491AA96EFAF10
:10281000AA970E94ED2B80E58093730710937407AD
:10282000A196EEADFFADA1979081A9968FADA99726
:10283000809589238083A6968FADA6978F3F31F12F
:102840000E943F2C61E0A6968FADA6970E94932729
:1028500064EF71E080E090E00E942F2860E0A6968F
:102860008FADA6970E94932764EF71E080E090E01F
:102870000E942F2861E0A6968FADA6970E9493270D
:1028800064EF71E080E090E00E942F286A961FAE0E
:102890006A9781E06B968FAF6B9761E0CE01CF9620
:1028A00084DE64EF71E080E090E00E942F2861E117
:1028B000CE01CF967ADE65E070E080E090E00E9485
:1028C0002F286AE3CE01CF9670DE65E0CE01CF9669
:1028D00036DE65E070E080E090E00E942F2866E23E
:1028E000CE01CF9662DE64E0CE01CF9628DE61E0B5
:1028F00070E080E090E00E942F2862EFCE01CF963A
:1029000054DE61E0CE01CF961ADE61E070E080E037
:1029100090E00E942F2863E1CE01CF9646DE66EB61
:10292000CE01CF9642DE6FEFCE01CF9608DE66E095
:10293000CE01CF9604DE60EECE01CF9636DE0BE6FA
:1029400012E05FE0D52ED00EF80161918F01CE012B
:10295000CF96F5DDD012F8CF61EECE01CF9625DE11
:102960000CE512E04FE0D42ED00EF80161918F01FA
:10297000CE01CF96E4DDD012F8CF61EBCE01CF9639
:1029800014DE68E0CE01CF96DADD62E0CE01CF96AC
:10299000D6DD61E070E080E090E00E942F2864EBDB
:1029A000CE01CF9602DE67E0CE01CF96C8DD61E0B2
:1029B00070E080E090E00E942F2860ECCE01CF967E
:1029C000F4DD6AE0CE01CF96BADD62E0CE01CF96AB
:1029D000B6DD61E070E080E090E00E942F2861ECBD
:1029E000CE01CF96E2DD62E0CE01CF96A8DD61E0B8
:1029F00070E080E090E00E942F2865ECCE01CF9639
:102A0000D4DD60E5CE01CF969ADD63E6CE01CF96A8
:102A100096DD61E070E080E090E00E942F2867EC96
:102A2000CE01CF96C2DD60E0CE01CF9688DD61E0B9
:102A300070E080E090E00E942F286AE2CE01CF96FD
:102A4000B4DD60E070E0CE01CF960E94770B60E8C5
:102A500070E0CE01CF960E94770B6BE2CE01CF964D
:102A6000A4DD60E070E0CE01CF960E94770B60EAB3
:102A700070E0CE01CF960E94770B63E3CE01CF9634
:102A800094DD60E270E0CE01CF960E94770B60E8A3
:102A900070E0CE01CF960E94770B60E070E0CE012F
:102AA000CF960E94770B6B968FAD6B97811105C007
:102AB0006A968FAD6A97877F04C06A968FAD6A97D2
:102AC00088606A968FAF6A9760E0CE01CF960E94C9
:102AD000F20469E2CE01CF9668DD61E070E080E04B
:102AE00090E00E942F286CE2CE01CF965EDD61E07F
:102AF00070E080E090E00E942F2860E070E0CE015E
:102B0000CF960E94520C62E0CE01CF960E94F20452
:102B100060E070E0CE01CF960E94520C85E890E014
:102B20008C0F9D1F0496CF55DF4F99838883C15A20
:102B3000D040BE016F5F7F4F8091B7099091B80977
:102B40000E94FF37813009F01AC1CB57DF4F18823E
:102B500019821A821B82C558D04080E1CF55DF4FC1
:102B6000E881F981C15AD04011928A95E9F7CE01E6
:102B700003965C016C010196F60120812930D1F7A2
:102B800089819A81892B09F07EC0C356DF4F188254
:102B9000CD59D04080E4C256DF4F8883CE59D04013
:102BA00094E1C156DF4F9883CF59D04094E5C05689
:102BB000DF4F9883C05AD040C756DF4F1882C9599B
:102BC000D040C656DF4F8883CA59D04080E1C556F1
:102BD000DF4F8883CB59D04080E5C456DF4F8883D0
:102BE000CC59D040E4962FADE49781E0211180E0EC
:102BF0008195E5963FADE59790E0303129F424309A
:102C000019F4E9E9F0E002C0EDE9F0E0EC0FFD1F96
:102C1000E80FF91F60816068CE0184599F4F0E94C0
:102C20001C2C6BEC72E0CE0184599F4F0E947626DB
:102C3000B6016F5F7F4F4EE050E0CE018B579F4F44
:102C40000E944941BE016B577F4FCE0184599F4F6F
:102C50000E948B2660ED72E0CE0184599F4F0E9446
:102C60007626B6016A5E7F4F4EE050E0CE018B576C
:102C70009F4F0E944941BE016B577F4FCE0184593F
:102C80009F4F0E948B262501FFEFAF1ABF0AF2016A
:102C900080818930C1F789819A81019709F049CFF4
:102CA00088E0882E912CA12CB12C9FE7292E312C65
:102CB000C201FC01019620812930D9F72C010E9424
:102CC0002039A0FC0DC00E948D3F9B01AC01A1E802
:102CD000BFEF0E948B3E2FE530E040E050E00CC09B
:102CE0000E948D3F9B01AC01A1E8BFEF0E948B3E8B
:102CF00022E630E040E050E00E94633E2158C22EC0
:102D0000D12CE12CF12C860127E030E040E050E0AE
:102D100092E0A916B10480F4B401CE01CF960E94CE
:102D2000F50B81010C191D09EE24EA94FE2C27E015
:102D300030E0A601B40113C03401E8E36E0E711C4B
:102D4000B301CE01CF960E94F50B81010C191D092C
:102D5000EE24EA94FE2C27E030E0A601B301CE0178
:102D6000CF960E94F50BFFEFAF1ABF0A83E1880EE2
:102D7000911C94E0A916B10409F09ACFDACE8DE146
:102D800090E00E949534D5CE2F923F924F925F9261
:102D90006F927F928F929F92AF92BF92CF92DF926B
:102DA000EF92FF920F931F93CF93DF93CDB7DEB7D0
:102DB00028970FB6F894DEBF0FBECDBF1C014B01A4
:102DC000FC010681F8E20F9F80011124BE01695FBA
:102DD0007F4FC8019CDB68018AE2C80ED11C412CE0
:102DE000512C3201EF80F884F10182819381E81641
:102DF000F906B0F420E030E040EA50E4C301B2014B
:102E00000E94C13E2B013C010E5F1F4FBE01695F56
:102E10007F4FC8017CDB57010C151D0519F701C058
:102E2000750120E030E0A901C301B2010E943F3DDD
:102E30001816E4F520E030E048EC52E4C301B2019A
:102E40000E94BE3F87FF36C0F101628173816E1917
:102E50007F0980E090E00E94433D5B016C016F813F
:102E600078856E197F0980E090E00E94433D9B01C8
:102E7000AC0160E070E080EA90E40E94253F9B0195
:102E8000AC01C601B5010E94A43D5B016C0120E0CC
:102E900030E040EA50E4C301B2010E94C03E9B0111
:102EA000AC01C601B5010E94C13E08C060E070E0FF
:102EB000CB0104C060E070E08EEB92E48E010F5F06
:102EC0001F4F21E044E00E940139B801C4010E9473
:102ED0002C4165ED72E0C4010E942C41F101068194
:102EE000F4E60F9F80011124580188EFB81ABE0143
:102EF000695F7F4FC5010BDB0A59174F412C512CDD
:102F00003201CF80D884F10184819581C816D90619
:102F1000B8F420E030E040E050E4C301B2010E9488
:102F2000C13E2B013C01E2E0AE0EB11CBE01695F67
:102F30007F4FC501ECDA7601A016B10611F701C08A
:102F4000670120E030E0A901C301B2010E943F3DCA
:102F50001816A4F520E030E048EC52E4C301B201B9
:102F60000E94BE3F87FF2EC06F8178856C197D0956
:102F700082E090E00E94C23F9B01F1018481958133
:102F80008C199D09289FB001299F700D389F700DE5
:102F9000112480E090E00E94433D6B017C0120E021
:102FA00030E040E050E4C301B2010E94C03E9B010A
:102FB000AC01C701B6010E94C13E08C060E070E0EC
:102FC000CB0104C060E070E084EC92E48E010F5FFE
:102FD0001F4F21E044E00E940139B801C4010E9462
:102FE0002C4128960FB6F894DEBF0FBECDBFDF91FF
:102FF000CF911F910F91FF90EF90DF90CF90BF90F6
:10300000AF909F908F907F906F905F904F903F9088
:103010002F900895CF93DF93EC0188810E941028B0
:103020009B838A8389810E9410289D838C830E94C0
:10303000662A20E143E353E0DF91CF910C942339DA
:103040000F931F93CF93DF938C01EB01BC01645965
:103050007F4FCE010E942C4165ED72E0CE010E94AF
:103060002C41B80169597F4FCE010E942C4165ED7A
:1030700072E0CE010E942C41B8016F587F4FCE0103
:103080000E942C4165ED72E0CE010E942C41B801F6
:103090006A587F4FCE01DF91CF911F910F910C9411
:1030A0002C41EF92FF920F931F93CF93DF93EC018C
:1030B0008A599F4F7C0188819981DC01ED91FC91B7
:1030C0000084F185E02D1995892BA9F0D7011C9179
:1030D000133688F481E0810F8C9388819981DC011B
:1030E000ED91FC910284F385E02D1995FE01E10F2D
:1030F000F11D8283E0CFF7018081FE01E80FF11D11
:1031000012826AE772E0CE0102960E9458418C0159
:10311000009709F45CC0FC0101900020E9F73197A9
:10312000E81BF90B7997A0F480E0282F30E0F80134
:10313000E20FF31F9081FE01E20FF31F928321E063
:10314000280F992311F0822FF0CFF701808341C01F
:103150000E94662A20E14AE253E00E942339FE01E0
:10316000E458FF4F81E08083B8016E5F7F4F44E0F9
:1031700050E0CE0184599F4F0E944941B801685FD9
:103180007F4F44E050E0CE0189599F4F0E94494152
:10319000B801625F7F4F44E050E0CE018F589F4FEF
:1031A0000E944941B8016C5E7F4F45E050E0CE017E
:1031B0008A589F4F0E944941FE01E558FF4F1082F7
:1031C000369710823A971082C059DF4F1882D70184
:1031D0001C92DF91CF911F910F91FF90EF90089576
:1031E000CF93DF93EC01FB0179836883DC01AA595B
:1031F000BF4F1C92A089B18982E08C93A485B585CC
:103200001C92A685B78587E68C93108EA489B58914
:1032100086E08C93A289B3898C9180618C93A2897A
:10322000B3898C9188608C93A289B3898C918068D2
:103230008C930288F389E02D80818F7D8083FE014D
:10324000E458FF4F108267ED72E0CE0184599F4F22
:103250000E94424167ED72E0CE0189599F4F0E9462
:1032600042416DED72E0CE018F589F4F0E94424166
:103270006CED72E0CE018A589F4F0E9442416AED88
:1032800072E08AE293E0DF91CF910C94424108957D
:1032900008950895FC016370658B84819581268172
:1032A0003781613039F0633029F091878087338727
:1032B00022870895318720879387828708952F92E8
:1032C0003F924F925F926F927F928F929F92AF92B6
:1032D000BF92CF92DF92EF92FF920F931F93CF9303
:1032E000DF93CDB7DEB76C970FB6F894DEBF0FBE95
:1032F000CDBF9C8F8B8F5B011A011F830E8337011B
:10330000C982DC0158964D915C9159974115510540
:1033100009F0E5C018968D919C9119976817790767
:103320000CF0CAC11A968D919C911B9728163906EC
:103330000CF0C2C18C2C912CFB0136E0C39EE00D39
:10334000F11D1124FB87EA871E161F060CF0B4C17D
:10335000C40133E0880F991F3A95E1F79D878C8768
:10336000820D931D181619060CF0A6C157968C9164
:10337000811103C0203B08F02F5FAB8DBC8DED9118
:10338000FC9111970284F385E02DCD012A8F1995C8
:103390002A8DB5E02B9F90011124F5013596FF870A
:1033A000EE87BB82AA822501A9014A195B09598BC4
:1033B000488BC10108969B8B8A8BE889F989E40DBB
:1033C000F51DEF59FD4F9491988761013D822C8244
:1033D000A885A0FF13C0AB8DBC8DED91FC91B98188
:1033E000B13031F40484F585E02D2E813F8116C083
:1033F0000684F785E02DEE80FF801AC0EE81FF8104
:103400006E167F06F1F0AB8DBC8DED91FC91B9810C
:10341000B13051F40484F585E02D9301A601B20189
:103420008B8D9C8D19950DC00684F785E02D730159
:10343000840194014C815D816A817B818B8D9C8D9F
:103440001995E885E695E887FFEFCF1ADF0A2C810A
:103450003D81280D391D3D832C834A895B89C41623
:10346000D50609F0B5CF5FEF451A550A8A819B81D1
:10347000880D991D9B838A83AE85BF854A165B069E
:1034800009F09BCFEE81FF816E167F0609F4F2C032
:10349000EB8DFC8DA081B181F981F13079F4B5011A
:1034A0006B5F7F4F5096ED91FC915197830128E01F
:1034B00030E0A1018B8D9C8D1995DCC06A857B85E0
:1034C000681979091E96ED91FC911F9773010C857F
:1034D0001D859401A1018B8D9C8D1995CBC0FA019E
:1034E00034969491329765917491291BCB01B7E082
:1034F0002B9F800D911D1124FA01259134913B8B56
:103500002A8BFC01459154915B834A83FC013296DE
:10351000C490319654915E87329614913196D4902E
:103520008981823058F0612E012E000C7708AD2D74
:103530000D2C000CBB0BB987A88704C01986188610
:10354000612C712CAB8DBC8DED91FC911197028497
:10355000F385E02DCD011995B9818B2E912C689CB6
:10356000C001699C900D789C900D1124FC01EA0D1E
:10357000FB1DFD87EC871C82712C612CE12F110F44
:10358000FF0B95012E0F3F1F3B872A87AC0CB11C08
:10359000A5014E0F5F1F5F8B4E8BC1018D0D911DDD
:1035A000D7FC9A95998F888F4E85641608F062C073
:1035B000862D90E048855985480F591F489D9001F8
:1035C000499D300D589D300D1124D901A20DB31D18
:1035D000B98BA88BAA84BB844C845D84DC80BA85BB
:1035E000DB1AE88DF98DE80FF91FFD8BEC8B8D2D23
:1035F0008A0D2E893F89A216B306B9F1877061F44E
:103600008A819B810196EA89FB89AA81BB81EA0FA5
:10361000FB1F74909B838A8377FE20C0AB8DBC8D8B
:10362000ED91FC91B981B13061F40484F585E02D10
:103630002E813F814C895D89B5018B8D9C8D1995BB
:103640000DC00684F785E02DEE80FF808401940193
:1036500048895989B2018B8D9C8D1995770CEFEFB4
:10366000AE1ABE0A480C591CC2CF3C813C0D3C83AB
:1036700063949ACFAB8DBC8DED91FC911197068828
:10368000F789E02DCD016C960FB6F894DEBF0FBE22
:10369000CDBFDF91CF911F910F91FF90EF90DF9001
:1036A000CF90BF90AF909F908F907F906F905F90E2
:1036B0004F903F902F9019946C960FB6F894DEBF00
:1036C0000FBECDBFDF91CF911F910F91FF90EF9073
:1036D000DF90CF90BF90AF909F908F907F906F9032
:1036E0005F904F903F902F900895AF92BF92CF92EE
:1036F000EF92FF920F931F93CF93DF93EC01262F4E
:10370000888D998D009709F03FC06A3059F41D8665
:103710001C862C898E859F8538E0239F800D911D06
:10372000112440C06D3009F4A8C08E898823C1F0EF
:103730003C898C859D8546E0349F800D911D112428
:1037400048855985481759075CF41D861C868E8567
:103750009F8548E0349F800D911D11249F878E879F
:10376000EA88FB88088919894E855F856C857D8587
:10377000CC88CE01A4DD2C898C859D8536E0239FE5
:10378000800D911D112442C06A3079F41D861C867B
:103790002C89FC013696E4918E859F852E9F800DA5
:1037A000911D11249F878E8768C06D3009F465C014
:1037B000FC0134963491631708F45FC03196E491AC
:1037C000E61708F45AC0FC013296A590B490462F33
:1037D00050E0431B510937E0349FB001359F700D15
:1037E0001124A60EB71EF501329634913196E4915C
:1037F000332311F0E1110DC0F5013496E4912C89C9
:103800008C859D85E29F800D911D11249D878C875D
:1038100034C0F501359644915E89552311F16C89C8
:10382000E32FF0E0E40FF11D47FDFA956E9FD00104
:103830006F9FB00D11244C855D854A0F5B1FE88595
:10384000F985E417F5076CF41D861C86FC01369695
:10385000E4918E859F856E9F800D911D11249F8719
:103860008E87EA88FB88088919894E855F856C8573
:103870007D85CC88CE0123DDBFCF81E090E0DF9154
:10388000CF911F910F91FF90EF90CF90BF90AF908D
:1038900008956F927F928F929F92AF92BF92CF9234
:1038A000DF92EF92FF920F931F93CF93DF93EC0180
:1038B0004B015A0169013801E881F9810284F385DD
:1038C000E02D1995E881F9810288F389E02D8701BF
:1038D0009601A501B401CE011995E881F981A501F0
:1038E000460D571D415051090288F389E02D96017C
:1038F000B401CE011995E881F9810088F189E02DA4
:103900009301A501B401CE011995E881F981C80C94
:10391000D91CB601615071090088F189E02D93012D
:10392000A501CE011995E881F9810688F789E02D76
:10393000CE01DF91CF911F910F91FF90EF90DF901B
:10394000CF90BF90AF909F908F907F906F90199481
:10395000CF92DF92EF92FF920F931F93CF93DF935B
:1039600000D000D0CDB7DEB76C01DC01ED91FC9149
:103970006217730789F4041715072CF4942F852F09
:10398000A801092F182F041B150B98012F5F3F4F1B
:10399000048CF58DE02D12C04017510709F526174C
:1039A00037072CF4962F872FB901292F382F261B84
:1039B000370B2F5F3F4F068CF78DE02D8701C60137
:1039C000199526960FB6F894DEBF0FBECDBFDF91D6
:1039D000CF911F910F91FF90EF90DF90CF900895BE
:1039E0000284F385E02D2D833E834B835C836983C2
:1039F0007A831995D601ED91FC910488F589E02D23
:103A00002D813E814B815C8169817A81C601199546
:103A1000D601ED91FC910688F789E02DC601269626
:103A20000FB6F894DEBF0FBECDBFDF91CF911F91CF
:103A30000F91FF90EF90DF90CF901994EF92FF924B
:103A40000F931F93DC01ED91FC9111971A960D9144
:103A50001C911B9718962D913C91199700A0F1A1EC
:103A6000E02D7B0140E050E060E070E019951F918F
:103A70000F91FF90EF9008954F925F926F927F9217
:103A80008F929F92AF92BF92CF92DF92EF92FF926E
:103A90000F931F93CF93DF931F921F92CDB7DEB783
:103AA0006C015A0139014801DC01ED91FC9102845D
:103AB000F385E02D69837A8319956981462E7A8191
:103AC000572E640C751CD601ED91FC9146145704D9
:103AD0006CF40088F189E02D87019401A501B20101
:103AE000C6011995BFEF4B1A5B0AEDCF0688F7891F
:103AF000E02DC6010F900F90DF91CF911F910F9194
:103B0000FF90EF90DF90CF90BF90AF909F908F90FD
:103B10007F906F905F904F901994AF92BF92CF9229
:103B2000DF92EF92FF920F931F93CF93DF9300D01A
:103B30001F92CDB7DEB75C016901DC01ED91FC910C
:103B40000284F385E02D4B835C8369837A83199526
:103B5000D501ED91FC9169817A819B012C0D3D1D70
:103B6000215031090488F589E02D78014B815C8171
:103B70008A01C5011995D501ED91FC910688F78957
:103B8000E02DC5010F900F900F900F90DF91CF9116
:103B90001F910F91FF90EF90DF90CF90BF90AF906B
:103BA0001994AF92BF92CF92DF92EF92FF920F9350
:103BB0001F93CF93DF9300D01F92CDB7DEB75C0188
:103BC0006901DC01ED91FC910284F385E02D4B83CA
:103BD0005C8369837A831995D501ED91FC914B81C2
:103BE0005C81C40ED51EB1E0CB1AD1080488F589DA
:103BF000E02D7801860169817A819B01C5011995C3
:103C0000D501ED91FC910688F789E02DC5010F9053
:103C10000F900F900F90DF91CF911F910F91FF9018
:103C2000EF90DF90CF90BF90AF9019940895EF92EE
:103C3000FF920F931F93DC01ED91FC9100A0F1A185
:103C4000E02D19951F910F91FF90EF9008950F931C
:103C50001F93DC01ED91FC91068CF78DE02D1995F9
:103C60001F910F9108950F931F93DC01ED91FC912B
:103C7000048CF58DE02D19951F910F910895DC01AD
:103C8000ED91FC910084F185E02D199408952F9217
:103C90003F924F925F926F927F928F929F92AF92DC
:103CA000BF92CF92DF92EF92FF920F931F93CF9329
:103CB000DF9300D0CDB7DEB74C017B836A836A0106
:103CC000590117019801241B350B37FF03C03195AB
:103CD00021953109C5014A815B81841B950B97FFB2
:103CE00003C091958195910951E0598382179307FB
:103CF00014F019820BC09A2D8B2D5801092F182F03
:103D00009A818B81DB82CA82C92ED82E8A819B81BF
:103D1000A816B9065CF49C2D8D2D6801092F182F6B
:103D20009A818B81BB82AA82A92EB82E2501AA81F5
:103D3000BB814A1A5B0A38016C187D0877FE03C004
:103D4000719461947108720157FE03C0BFEFEB1AC2
:103D5000FB0AF594E794C016D1061CF00FEF1FEF95
:103D60001FC001E010E01CC0D401ED91FC91B981AD
:103D70000484F585E02D9101BB23C1F04A815B816C
:103D8000B601C4011995E618F708F7FE04C0C00E85
:103D9000D11EE40CF51CEA81FB813196FB83EA839A
:103DA0004A815B81A416B506FCF604C0A6016A81AF
:103DB0007B81E7CF0F900F900F90DF91CF911F91F4
:103DC0000F91FF90EF90DF90CF90BF90AF909F90BA
:103DD0008F907F906F905F904F903F902F900895BD
:103DE0000F931F93CF93DF93EC01423018F08C8137
:103DF00088608C834F836887222329F0413019F42F
:103E00008C8184608C8364E670E080E090E00E94A6
:103E10002F286C8164FD31C0E881F9810684F78523
:103E2000E02D42E063E0CE0119950BE416E4C801F1
:103E30000197F1F7E881F9810684F785E02D42E0EA
:103E400063E0CE011995C8010197F1F7E881F98186
:103E50000684F785E02D42E063E0CE01199583E505
:103E600092E00197F1F7E881F9810684F785E02D6A
:103E700042E062E0CE01199516C06062CE010E9458
:103E80001C2C8BE496E40197F1F76C816062CE0103
:103E90000E941C2C83E592E00197F1F76C8160622F
:103EA000CE010E941C2C6C816062CE010E941C2CF1
:103EB00084E08D836CE0CE010E941C2C61E0CE0179
:103EC0000E941C2C8BE39FE10197F1F782E08E8327
:103ED00066E0CE010E941C2CE881F9810484F585FE
:103EE000E02D6FEFCE01DF91CF911F910F911994CB
:103EF000CF93FC012381222309F46EC09181909518
:103F000069236083C28181E080938205C0933C0372
:103F100010928005109281058CE197E00E94F428B0
:103F200080918105813208F04AC0209184052111D9
:103F3000FCCF92E09093840591E0909386059FEFEB
:103F4000909383051092A8058093A705A0E6B5E09D
:103F500047E855E0FA019E2F941B981718F49D919D
:103F60009193F9CF1092A9058091A905CC0FC82B88
:103F7000C093A90580918505813061F41092850573
:103F80008091A9058093BB008091BC0083FDF8CF90
:103F900085EC01C085EE8093BC0080918405823061
:103FA000E1F3809183058F3F79F080918305803222
:103FB00041F080918305803331F024E005C021E099
:103FC00003C022E001C023E0109280051092810519
:103FD0001092820530E002C020E030E081E090E005
:103FE000232B11F080E090E0CF910895279A2F9A2B
:103FF0002FEF80E792E0215080409040E1F700C031
:1040000000001F9AF5CFCF93DF93CDB7DEB7C25B29
:10401000D1090FB6F894DEBF0FBECDBF8E01045A92
:104020001F4F28EE222E23E0322E412C512CBE01B0
:104030006F5F7F4F8091B9099091BA090E94FF3755
:10404000813009F02BC189819A81009739F001975D
:1040500049F485EE882E82E0982E04C092EE892ED7
:1040600092E0992EB4018FE796E040D6E0917F066A
:10407000F09180060190F081E02D69E08FE796E0F5
:104080001995BE016D5F7F4F8FE796E044D6809112
:104090003D03882309F402C164E577E0C8010E946A
:1040A000B30923961FAE1EAE239787EB92E02196AD
:1040B0009FAF8EAF219725961FAE25976401CE0145
:1040C000CF965C0138016FE270E0C6010E94374173
:1040D000009709F446C0F60120812F3221F4FFEF4A
:1040E000CF1ADF0AF0CF8C198D3008F08CE0E82E63
:1040F000F12CA701B601CE018A569F4F0E9449417B
:10410000E6E9F0E0EC0FFD1FEE0DFF1D1082C5018A
:104110000E940207F5018581882371F0ED961FAE9C
:104120001EAEED9787EB92E0EB969FAF8EAFEB97CD
:10413000EF961FAEEF9724C021E0AE014A565F4FC5
:10414000B301C5010E94330F882341F3CE0CDF1C5D
:10415000C3010E940207962D872D3501A92EB82E86
:10416000B2CFC60188199909CF54DF4F998388834C
:10417000C15BD040B301CE0187589F4F0E94B30965
:10418000CF54DF4FE880F980C15BD040E80CF91CC8
:10419000F701808181110AC0BE0167587F4FCE01AF
:1041A000CF960E94B30948EE52E057C0F80113823F
:1041B000128287EB92E0918380831582EF968FAD18
:1041C000EF97811122C0C856DF4F19821882C85953
:1041D000D040C656DF4F288239824A825B82CA5954
:1041E000D0408EE092E0CA56DF4F99838883C6594B
:1041F000D040C155DF4F19821882CF5AD040CE55DA
:10420000DF4F1882C25AD04030C0825023E1A7014C
:10421000823040F464E577E0C8010E94330F8111D9
:104220000EC0D1CFBE0167587F4FC8010E94330F27
:10423000882349F2CE0187589F4F0E940207F80158
:104240004389548965897689C8010E946905B80146
:10425000CE01CF960E94B309A701BE01615C7F4FDA
:10426000CE018A569F4F0E94040ABE016D5F7F4FA8
:10427000CE018A569F4F4FD5C155DF4F8881998116
:10428000CF5AD040009751F00E940207C155DF4F2E
:1042900088819981CF5AD0400E94734082E190E09A
:1042A0000E949534C4CECF93DF93CDB7DEB7EE979F
:1042B0000FB6F894DEBF0FBECDBF01E010E01A824A
:1042C00019821B826AE273E0CE0103960E942C41A0
:1042D00065ED72E0CE0103960E942C418091390970
:1042E000109239098823A9F0BE016D5F7F4F8DEBD5
:1042F00098E00E94201865ED72E0CE0103960E94BE
:104300002C41BE016D5F7F4F8AE399E00E94201827
:1043100006C06AEE72E0CE0103960E942C4144E68C
:1043200050E0BE016F5F7F4F8091B9099091BA094B
:104330000E94083744E650E0BE016F5F7F4F8091D6
:10434000B7099091B8090E9408371A8309831B8224
:1043500063E373E0CE0103960E942C4165ED72E0A9
:10436000CE0103960E942C41BE016D5F7F4F85E711
:1043700097E00E94C41665ED72E0CE0103960E949C
:104380002C41BE016D5F7F4F8CE797E00E94C41601
:1043900044E650E0BE016F5F7F4F8091B909909174
:1043A000BA090E94083744E650E0BE016F5F7F4FB4
:1043B0008091B7099091B8090E9408378EE390E088
:1043C0000E9495347CCFEC018C01095F1F4FCE0118
:1043D0000E940A18C8010E940A188CE390E00E940B
:1043E0009534F5CF7C016C018DE7C80ED11C0E947D
:1043F00068328C01C7010E945118C6010E945118F1
:104400000E9484332091570630915806E801EC96BB
:104410002017310720F4C017D10738F403C0C017A4
:10442000D10760F02C173D0748F00E9472328823B4
:1044300011F08E01DFCF0E94AF2EFBCF60E0CE01E6
:10444000821B930B0E949231F0CFCF92DF92EF92BA
:10445000FF920F931F93CF93DF93E0918F06F0911C
:10446000900682E08083E0918B06F0918C061082AA
:10447000E0918D06F0918E068FEC80831092970666
:10448000E0919306F091940686E08083E091910696
:10449000F0919206808180618083E0919106F09195
:1044A0009206808188608083E0919106F091920667
:1044B000808180688083E0919106F09192068081EE
:1044C0008F7D808364E670E080E090E0C8D5109234
:1044D0003507109233071092300710922F0784E0AF
:1044E00080932E07F3D76B017C0180912E070E94E9
:1044F0003F2C61E080912E0716D50E94ED2B82E5BE
:104500008093280710922907809128079091290706
:104510000E949C12DAE08FEF0E943108D150D9F747
:10452000E6010E949B128AE297E00E940D0820E0BB
:1045300030E0A90160E08AE297E00E946C08182F41
:1045400080933407813041F0C1D76C1B7D0B613DF6
:10455000774068F381E053C02AEA31E040E050E060
:1045600068E08AE297E00E946C0882FF03C0109323
:1045700035070EC014E00E943808809334071150AC
:10458000D1F78A3A11F082E03AC082E08093350791
:1045900080913507823021F0C12CD12C760105C0E5
:1045A000C12CD12CE12C30E4F32E20E030E0A90125
:1045B00067E38AE297E00E946C08A701960169E22E
:1045C0008AE297E00E946C0880933407882341F0C8
:1045D0007DD76C1B7D0B613D774038F388E00FC0C1
:1045E00080913507823001F520E030E0A9016AE3CF
:1045F0008AE297E00E946C08882341F086E080936D
:104600002F078AE297E00E942308EBC00E94380837
:10461000807C803C19F483E0809335070E94380841
:104620000E9438080E9438088AE297E00E94230816
:1046300080E5809328071092290781E028D28823FB
:1046400029F080915907882339F0CBC080E01FD230
:10465000882309F468C0F5CF80914D07803109F5B2
:1046600082E08093590710926B0710926C071092AA
:104670006D0710926E0780914E0790914F07A0E052
:10468000B0E025E0880F991FAA1FBB1F2A95D1F71C
:104690008093670790936807A0936907B0936A07B0
:1046A0001FC0803209F09DC083E08093590740917C
:1046B00050075091510760915207709153074093F2
:1046C0006B0750936C0760936D0770936E0727E636
:1046D00037E086E397E00E94CB0E882309F481C07F
:1046E00086E397E09093700780936F0781E0809353
:1046F000580710925A0710925B0710925C071092AD
:104700005D0710925E0710925F071092600710928B
:10471000610710926207109263071092640710926B
:1047200065071092660780933D0381111AC0C1E6A8
:10473000D7E0FE016491611106C061EF72E08FE77E
:1047400096E0D4D20EC0E0917F06F09180060190F1
:10475000F081E02D8FE796E019952196892B49F796
:10476000ECCFE12CF12C03E02DEB38E046E950E0F2
:1047700064EF72E082EF91E20E94AE3425E737E009
:1047800046E950E069EF72E083EE91E20E94AE34B8
:1047900002E020E030E048EC50E06FEF72E083E5AB
:1047A00091E20E94AE3401E020E030E04CE251E0C2
:1047B00067E073E083E090E20E94AE3420E030E0F6
:1047C0004CE251E06FE073E08CE093E10E94AE3484
:1047D000DF91CF911F910F91FF90EF90DF90CF90DD
:1047E000089580E0A0CFCF92DF92EF92FF920F93D7
:1047F0001F93CF93DF936C017A018B01C0E0D0E06F
:10480000CE15DF0589F0D8016D918D01D601ED91AE
:10481000FC910190F081E02DC6011995892B11F4CE
:104820007E0102C02196ECCFC701DF91CF911F918D
:104830000F91FF90EF90DF90CF900895FC01A08939
:10484000B1898C91A689B78982FD0FC09C91818D19
:104850008F5F8F73228D821749F0218DDF01A20FA8
:10486000B11D5D969C93818F08958C910895FC01F4
:10487000538D448D252F30E0842F90E0821B930BC5
:10488000541710F0CF96089501970895FC01918D6B
:10489000828D981761F0828DDF01A80FB11D5D96A2
:1048A0008C91928D9F5F9F73928F90E008958FEF10
:1048B0009FEF0895FC01918D828D981731F0828DC4
:1048C000E80FF11D858D90E008958FEF9FEF08951B
:1048D000FC01918D228D892F90E0805C9F4F821B7F
:1048E00091098F739927089583E897E0F1DF21E01C
:1048F000892B09F420E0822F089580E298E0E8DF18
:1049000021E0892B09F420E0822F08958FE796E0BB
:10491000DFDF21E0892B09F420E0822F0895FC01DC
:10492000848DDF01A80FB11DA35ABF4F2C91848D38
:1049300090E001968F739927848FA689B7892C936D
:10494000A089B1898C9180648C93938D848D981308
:1049500006C00288F389E02D80818F7D80830895D1
:10496000EF92FF920F931F93CF93DF93EC0181E0BF
:10497000888F9B8D8C8D981305C0E889F98980817B
:1049800085FD23C0F62E0B8D10E00F5F1F4F0F73B8
:104990001127E02E8C8DE8120BC00FB607FCFACF62
:1049A000E889F989808185FFF5CFCE01B8DFF2CFA4
:1049B0008B8DFE01E80FF11DE35AFF4FF0820B8F44
:1049C000EA89FB898081806207C0EE89FF89608364
:1049D000E889F98980818064808381E090E0DF91BB
:1049E000CF911F910F91FF90EF900895CF93DF9398
:1049F000EC01888D8823C1F0EA89FB89808185FDDF
:104A000005C0A889B9898C9186FD0EC00FB607FC38
:104A1000F5CF808185FFF2CFA889B9898C9185FF78
:104A2000EDCFCE017CDFE8CFDF91CF91089580E01C
:104A300090E0892B19F06ADF81111BC080E090E0C3
:104A4000892B19F05ADF811117C080E090E0892B83
:104A500019F04ADF811113C080E090E0892BA1F0AA
:104A600080E090E0892B81F00E94000081110AC053
:104A700008950E940000E2CF0E940000E6CF0E944D
:104A80000000EACF0C94000008950E940B418F9221
:104A90009F92AF92BF92CF92DF92EF92FF92CF930D
:104AA000DF93C82F8AE297E09093490580934805E9
:104AB000CC2369F1C53010F080E00DC140E060E02A
:104AC00070E0CB010E94620D8823B1F320E1C29F08
:104AD000C0011124885C9C4FFC01E254FE4F2081F0
:104AE0002F7751F73C964081518162817381443622
:104AF00051056105710500F33497C080D180E280D3
:104B0000F380C114D104E104F10421F4D5CFC12C08
:104B1000D12C760140E0C701B6010E94620D8823C6
:104B200059F280915303909154038115924021F6DC
:104B3000A0915803AA2309F4BFCF60915603709146
:104B400057036115710509F4B7CF2091550322234E
:104B500009F4B2CFA093480720933A0780E030E0F1
:104B6000E1E0F0E0C82FAF01082E02C0440F551F4E
:104B70000A94E2F72417350741F0982F8F5F983099
:104B800089F789E08093430797CF8093430720916B
:104B90005E0330915F032115310519F040E050E0CC
:104BA00008C020916C0330916D0340916E035091C9
:104BB0006F0320933B0730933C0740933D0750938E
:104BC0003E0746015701860E971EA11CB11C80921C
:104BD000490790924A07A0924B07B0924C07E09188
:104BE0005903F0915A03F0934F07E0934E07B0E05A
:104BF0000E947F3E860E971EA81EB91E8092500707
:104C000090925107A0925207B092530785E0EE0FA1
:104C1000FF1F8A95E1F7E150FE4FEF2FFF27E69542
:104C20008E0E9F1EA11CB11C8092440790924507D6
:104C3000A0924607B092470720915B0330915C0336
:104C40002115310521F0A90160E070E008C0409114
:104C500068035091690360916A0370916B03D701F7
:104C6000C60188199909AA09BB09840F951FA61FB7
:104C7000B71F04C0B695A79597958795CA95D2F7A3
:104C800080933F0790934007A0934107B09342075A
:104C9000853F2FE09207A105B10510F48CE018C004
:104CA000853F9F4FA105B10510F480E111C08091AF
:104CB000740390917503A0917603B091770380936C
:104CC000500790935107A0935207B093530780E287
:104CD00080934D0781E0DF91CF91FF90EF90DF90BF
:104CE000CF90BF90AF909F908F9008956115710500
:104CF00079F0FB0101900020E9F73197AF01461BE5
:104D0000570BDC01ED91FC910280F381E02D1994A9
:104D100080E090E008950F931F93CF93DF93EC0111
:104D2000E5DF8C0161EF72E0CE01E0DF800F911FC3
:104D3000DF91CF911F910F9108951F920F920FB69F
:104D40000F9211240BB60F922F933F934F935F93C3
:104D50006F937F938F939F93AF93BF93EF93FF9343
:104D600083E897E0DCDDFF91EF91BF91AF919F91D8
:104D70008F917F916F915F914F913F912F910F9004
:104D80000BBE0F900FBE0F901F9018951F920F92A1
:104D90000FB60F9211240BB60F922F933F934F93A0
:104DA0005F936F937F938F939F93AF93BF93EF9393
:104DB000FF9383E897E042DDFF91EF91BF91AF91C0
:104DC0009F918F917F916F915F914F913F912F9123
:104DD0000F900BBE0F900FBE0F901F9018951F9253
:104DE0000F920FB60F9211240BB60F922F933F9391
:104DF0004F935F936F937F938F939F93AF93BF93E3
:104E0000EF93FF9380E298E08ADDFF91EF91BF91ED
:104E1000AF919F918F917F916F915F914F913F9152
:104E20002F910F900BBE0F900FBE0F901F901895F3
:104E30001F920F920FB60F9211240BB60F922F9361
:104E40003F934F935F936F937F938F939F93AF9312
:104E5000BF93EF93FF9380E298E0F0DCFF91EF9136
:104E6000BF91AF919F918F917F916F915F914F9182
:104E70003F912F910F900BBE0F900FBE0F901F9080
:104E800018951F920F920FB60F9211240BB60F9226
:104E90002F933F934F935F936F937F938F939F9342
:104EA000AF93BF93EF93FF938FE796E038DDFF91C9
:104EB000EF91BF91AF919F918F917F916F915F9192
:104EC0004F913F912F910F900BBE0F900FBE0F90FF
:104ED0001F9018951F920F920FB60F9211240BB6C8
:104EE0000F922F933F934F935F936F937F938F9383
:104EF0009F93AF93BF93EF93FF938FE796E09EDC72
:104F0000FF91EF91BF91AF919F918F917F916F91A1
:104F10005F914F913F912F910F900BBE0F900FBE5D
:104F20000F901F901895362F90E0FC01EA58F84F2B
:104F30004491FC01EA5CF74F2491FC01E051F84FE9
:104F40009491992309F46BC0442309F455C050E0AF
:104F5000FA013197E231F10508F04EC08827EE588A
:104F6000FF4F8F4F0C94D63F809180008F7707C002
:104F7000809180008F7D03C080918000877F809327
:104F800080003AC084B58F7702C084B58F7D84BD20
:104F900033C08091B0008F7703C08091B0008F7DC7
:104FA0008093B00029C0809190008F7707C08091D6
:104FB00090008F7D03C080919000877F8093900048
:104FC0001BC08091A0008F7707C08091A0008F7DCB
:104FD00003C08091A000877F8093A0000DC08091C6
:104FE00020018F7707C0809120018F7D03C08091C1
:104FF0002001877F80932001E92FF0E0EE0FFF1F53
:10500000E454F84FA591B4918FB7F894EC91311115
:1050100003C020952E2301C02E2B2C938FBF089503
:10502000863308F0865390917B00282F2870977F55
:10503000922B90937B008770806480937C0080919A
:105040007A00806480937A0080917A0086FDFCCF9C
:10505000809178002091790090E0922B08958F92B2
:105060009F92AF92BF92CF92DF92EF92FF926B012D
:105070007C0107D24B015C01C114D104E104F104AD
:10508000E9F0FFD1DC01CB0188199909AA09BB0914
:10509000883E9340A105B10578F321E0C21AD108FA
:1050A000E108F10888EE880E83E0981EA11CB11C6F
:1050B000C114D104E104F10421F7DECFFF90EF9099
:1050C000DF90CF90BF90AF909F908F90089585ED27
:1050D0008093BC008091BC0084FDFCCF10928405BD
:1050E00008954091EF05262F30E0240F311D213225
:1050F0003105DCF4209184052430C9F4FC0180E002
:1051000090E0861758F43091EF052191DC01A3530C
:10511000BA4FA30FB11D2C930196F3CF8091EF05E9
:10512000680F6093EF0580E0089581E0089582E0C4
:1051300008950895E091CC058091CB05E81730F4EF
:10514000F0E0E555FA4F808190E008958FEF9FEFF2
:1051500008959091CC058091CB05981750F4E92FD4
:10516000F0E0E555FA4F208130E09F5F9093CC0549
:1051700002C02FEF3FEFC90108958091CB0590E069
:105180002091CC05821B91090895CF92DF92EF9276
:10519000FF920F931F93CF93DF937C01262F972FBE
:1051A0008A0180918205882391F0C62FD72F6E0146
:1051B000C40ED51ECC15DD0569F06991D701ED91BE
:1051C000FC910190F081E02DC7011995F3CF642F78
:1051D000822F87DFC801DF91CF911F910F91FF9040
:1051E000EF90DF90CF900895CF93DF931F92CDB7CC
:1051F000DEB76983209182052223D1F020918105B9
:10520000203240F021E030E0FC013383228380E053
:1052100090E014C080918005E82FF0E0E05AFA4F4A
:10522000998190838F5F809380058093810504C06E
:1052300061E0CE01019655DF81E090E00F90DF91B3
:10524000CF91089521E001C0220F6A95EAF7DC01B1
:105250001C962C931C971A965C934E931997ED917C
:10526000FC910484F585E02D60E01994DC01ED915A
:10527000FC910684F785E02D41E0199581E090E0EE
:105280000895EF92FF920F931F93CF938C01FC012F
:10529000759684E0C0E060FF02C09081C92B6695DE
:1052A000815031968111F7CF413011F4F8014489D2
:1052B000F8018585C82BC42B7801FEE0EF0EF11CA8
:1052C000F80162896C2BC7010E94781FF80162897E
:1052D00060956C23C701CF911F910F91FF90EF90C4
:1052E0000C94781F0F931F93CF93DF93062F0F70AB
:1052F000423019F440E0602F0FC0142F262FEC012C
:1053000030E0B90184E0759567958A95E1F7CE01A3
:10531000B8DF412F602FCE01DF91CF911F910F9108
:10532000B0CFFC0184858823A9F021853285211521
:10533000310519F4611106C007C02130310521F48F
:10534000611102C0858701C015866585CF010E9663
:105350000C94781F0895FF920F931F93CF93DF93C0
:10536000EC01162F042FF22E8B85888B1092CC0522
:105370001092CB0510928005109281051092840541
:1053800081E0809386051092850561E084E1CBDDA4
:1053900061E085E1C8DD8091B9008E7F8093B9001E
:1053A0008091B9008D7F8093B90088E48093B80024
:1053B00085E48093BC008889909184059111FCCF8D
:1053C00091E090938405909386052FEF20938305B9
:1053D0001092A8051092A7059093A9059091A90590
:1053E000880F892B8093A90580918505813061F410
:1053F000109285058091A9058093BB008091BC0027
:1054000083FDF8CF85EC01C085EE8093BC008091D0
:1054100084058130E1F38091A805811103C080915A
:10542000A80501C081E0A7E8B5E02BEA35E0F90165
:105430009E2F921B981718F49D919193F9CF10927B
:10544000CC058093CB0591E0811101C090E0998B50
:105450008CE197E07EDE8E878989882339F01F866C
:105460001C8260E0CE010E960E94781F2F2D402FE7
:10547000612FCE01DF91CF911F910F91FF900C947E
:10548000F01E3FB7F8948091190690911A06A091EA
:105490001B06B0911C0626B5A89B05C02F3F19F02E
:1054A0000196A11DB11D3FBFBA2FA92F982F8827A4
:1054B000820F911DA11DB11DBC01CD0142E0660FFF
:1054C000771F881F991F4A95D1F708952FB7F89431
:1054D0006091150670911606809117069091180636
:1054E0002FBF08951F920F920FB60F9211242F9382
:1054F0003F938F939F93AF93BF93809115069091A5
:105500001606A0911706B09118063091140623E0F4
:10551000230F2D3720F40196A11DB11D05C026E8EB
:10552000230F0296A11DB11D20931406809315062A
:1055300090931606A0931706B0931806809119064B
:1055400090911A06A0911B06B0911C060196A11D10
:10555000B11D8093190690931A06A0931B06B09371
:105560001C06BF91AF919F918F913F912F910F900A
:105570000FBE0F901F9018951F920F920FB60F92AB
:1055800011240BB60F922F933F934F935F936F931A
:105590007F938F939F93AF93BF93EF93FF938091EC
:1055A000B900887F803609F49CC068F5883209F418
:1055B0005BC090F4803109F454C038F4882309F4B6
:1055C000F6C0883009F44DC0F5C0883109F44CC0EC
:1055D000803209F45DC0EEC0803409F468C048F43C
:1055E000803309F455C0883309F0E4C08093830503
:1055F000D8C0803509F44FC0883509F45DC08834BF
:1056000009F0D8C0D6C0883909F4C7C0A8F48837D3
:1056100009F467C038F4883609F463C0803709F4A8
:1056200060C0C8C0883809F4B8C0803909F45FC0C8
:10563000803809F0BFC05BC0803B09F486C038F4F5
:10564000803A09F466C0883A09F47FC0B3C0803C50
:1056500009F4A7C0883C09F4A4C0883B09F48AC0B7
:10566000A9C08091A90510C09091A8058091A705B7
:10567000981770F5E091A80581E08E0F8093A8053A
:10568000F0E0E957FA4F80818093BB0085EC86C03B
:10569000809383058EC0E091A80581E08E0F8093F2
:1056A000A8058091BB00F0E0E957FA4F8083909104
:1056B000A8058091A7056EC0E091A80581E08E0F36
:1056C0008093A8058091BB00F0E0E957FA4F8083F2
:1056D0008091860581116DC081E08093850584EA03
:1056E00061C083E08093840510921306CFCF809130
:1056F0001306803208F051C0E091130681E08E0F4E
:10570000809313068091BB00F0E0ED50FA4F808348
:10571000BDCF85EC8093BC00109284058091130668
:10572000803230F4E0911306F0E0ED50FA4F108231
:105730006091130670E0E091F105F091F20583EFBE
:1057400095E019951092130635C084E08093840586
:105750001092F0051092EF05E091ED05F091EE0545
:1057600019958091EF05811105C081E08093EF05C7
:105770001092CD05E091F00581E08E0F8093F00549
:10578000F0E0E353FA4F80818093BB009091F005E5
:105790008091EF05981708F479CF85E88093BC00D5
:1057A00009C085EC8093BC001092840503C0109260
:1057B00083058DDCFF91EF91BF91AF919F918F9108
:1057C0007F916F915F914F913F912F910F900BBE01
:1057D0000F900FBE0F901F901895CF93CFB7F894EE
:1057E0008091AA05811120C0E5E2F8E08491EBE602
:1057F000F8E09491E82FF0E0EE0FFF1FEA52F84F27
:10580000A591B491EC91E92319F461E085E38BDB78
:1058100085E335D08CB580618CBD8CB580648CBD42
:1058200084E32DD083E32BD08091AA058F5F8093F2
:10583000AA05CFBFCF910895DC01ED91FC910684BC
:10584000F785E02D40E01994E0911F06F0912006C5
:105850008081811103C08FEF9FEF0CC0E0911F0684
:10586000F09120060580F681E02D0680F781E02D7D
:10587000828193819093430380934203089590E043
:10588000FC01EA5CF74F2491FC01E051F84F849150
:10589000882399F090E0880F991FFC01EA52F84F95
:1058A000A591B491FC01E454F84F859194918FB780
:1058B000F894EC91E22BEC938FBF08950F920FB602
:1058C000F8940F920BB60F920CB60F921F92112400
:1058D0002F923F924F925F926F927F928F929F9200
:1058E000AF92BF92CF92DF92EF92FF920F931F93EE
:1058F0002F933F934F935F936F937F938F939F93D8
:10590000AF93BF93CF93DF93EF93FF93A09155068F
:10591000B09156060DB60D920EB60D9213BE809143
:1059200044038111F3C08091570690915806019667
:105930009093580680935706009799F520911F067B
:105940003091200640912106509122065093200666
:1059500040931F063093220620932106209159067A
:105960002F5F20935906E0911F06F09120062081B9
:10597000211107C02FEF3FEF3093430320934203E1
:1059800010C0E0911F06F09120060580F681E02D01
:105990000680F781E02D22813381309343032093E9
:1059A000420320914203309143038217930710F47E
:1059B00020E09CC020E019E0E0911F06F091200655
:1059C0003081311107C08FEF9FEF90934303809395
:1059D00042038CC0E0911F06F09120060580F681FD
:1059E000E02D0680F781E02D4281538184179507D1
:1059F00028F4509343034093420378C0AF014E5FB5
:105A00005F4FA285B38564817581E680F780EB01E5
:105A1000FD82EC82C681D7817B836A8311966D916A
:105A20007C9112976417750721F41296DC93CE933C
:105A30001197138612863C9131503C933C91A48976
:105A4000B5891097F9F066857785E088F188EB01D4
:105A5000FD82EC82C089D1897B836A831196ED90A7
:105A6000FC901297BF01645F7F4FE616F70621F4A2
:105A70001296DC93CE931197158A148A3C9131507B
:105A80003C933C91A68930917E063A1710F4A0937E
:105A90007E061A9FD0011124BD01665A794F7B0101
:105AA000DB011196CD91DC911297D583C4836C8173
:105AB0007D81778366836C817D81DB0113965C93A6
:105AC0004E9312975D834C83F386E286E70138811B
:105AD0003F5F3883A0915506B09156064689569689
