:10000000BBC00000EAC00000E8C00000E6C000007D
:10001000E4C00000E2C00000E0C00000DEC000005C
:10002000DCC00000DAC00000D8C00000D6C000006C
:100030000C94D808D2C00000D0C00000CEC0000090
:10004000CCC00000CAC00000C8C00000C6C000008C
:10005000C4C00000C2C00000C0C000006DC10000EC
:10006000BCC000003CC6000011C60000B6C00000C5
:10007000B4C00000B2C00000B0C00000AEC00000BC
:10008000ACC00000AAC00000A8C00000A6C00000CC
:10009000D4C50000A9C50000A0C000009EC000009B
:1000A0009CC000009AC0000098C0000096C00000EC
:1000B00094C0000092C0000090C000008EC00000FC
:1000C0008CC000008AC0000088C0000064C5000029
:1000D00039C5000082C0000080C000007EC0000062
:1000E0007CC00000880D880D880D500DA90DB60D3F
:1000F000880D880D500DA90D52656365697665649C
:10010000206E6F7468696E672E002066726F6D20B6
:100110000052656365697665642000008091620223
:10012000882309F10FB6F8940F92E0916902F091DB
:100130006A02C681D781CE0102960E94DA088091B8
:1001400063028150809363028091620281508093A8
:1001500062020F900FBE8F89988D0E94750BCE01A1
:100160000E94750BDBCF80919402823010F00E94C8
:100170009C091FD4D3CF920F11241FBECFEFD1E221
:10018000DEBFCDBF00E00CBF12E0A0E0B2E0E4E4CF
:10019000F9E200E00BBF02C007900D92A234B10754
:1001A000D9F724E0A2E4B2E001C01D92AE3AB20752
:1001B000E1F710E0CCEBD0E000E006C021970109A8
:1001C000802FFE010E942313CB3BD10780E008075C
:1001D000A9F70E941B100C94A01412CFE091760294
:1001E000F09177028081811103C08FEF9FEF0CC0E7
:1001F000E0917602F09177020580F681E02D06808D
:10020000F781E02D8281938190938A028093890205
:100210000895EF92FF920F931F93CF93DF93EC011A
:100220008A599F4F7C0188819981DC01ED91FC9175
:100230000084F185E02D1995892BA9F0D7011C9137
:10024000133688F481E0810F8C9388819981DC01D9
:10025000ED91FC910284F385E02D1995FE01E10FEB
:10026000F11D8283E0CFF7018081FE01E80FF11DCF
:10027000128266E072E0CE0102960E9486148C0122
:10028000009709F450C0FC0101900020E9F7319774
:10029000E81BF90B7997A0F480E0282F30E0F801F3
:1002A000E20FF31F9081FE01E20FF31F928321E022
:1002B000280F992311F0822FF0CFF701808335C0EA
:1002C000BC016E5F7F4F44E050E0CE0184599F4FE8
:1002D0000E947714B801685F7F4F44E050E0CE0180
:1002E00089599F4F0E947714B801625F7F4F44E0A5
:1002F00050E0CE018F589F4F0E947714B8016C5E7A
:100300007F4F45E050E0CE018A589F4F0E947714FE
:10031000FE01E558FF4F1082369710823A971082FF
:10032000C059DF4F1882D7011C92DF91CF911F91E6
:100330000F91FF90EF9008951F920F920FB60F92BA
:1003400011242F933F938F939F93AF93BF938091EB
:100350007D0290917E02A0917F02B0918002309147
:100360007C0223E0230F2D3720F40196A11DB11D3F
:1003700005C026E8230F0296A11DB11D20937C0223
:1003800080937D0290937E02A0937F02B0938002BF
:100390008091810290918202A0918302B0918402A7
:1003A0000196A11DB11D8093810290938202A093BA
:1003B0008302B0938402BF91AF919F918F913F913F
:1003C0002F910F900FBE0F901F901895279A2F9A7C
:1003D0002FEF80E792E0215080409040E1F700C08D
:1003E00000001F9AF5CFCF93DF93CDB7DEB7E89724
:1003F0000FB6F894DEBF0FBECDBF8AE0882E912CD9
:10040000A12CB12CBE016E5D7F4F80919004909124
:1004100091040E942212813009F04FC081E191E0E5
:1004200009D3CE018496F5D28AE091E003D3CAA025
:10043000DBA00D2C000CEE08FF08F7FE26C0E091B3
:10044000F303F091F4030190F081E02D6DE283EF6E
:1004500093E0199522273327A9012C193D094E094C
:100460005F0919A28E010F5D1F4FCA01B901A501D5
:1004700094010E940113605DF80162938F012115C0
:1004800031054105510589F715C0A701960119A24B
:100490008E010F5D1F4FCA01B901A50194010E9491
:1004A0000113605DF80162938F012115310541054B
:1004B000510589F7C801ADD203C088EF90E0BAD2E8
:1004C0008BE192E0A6D263D660E082E190E00E94E8
:1004D0004C0CF7D7811196CF2FD794CFCF93DF93C2
:1004E000CDB7DEB767970FB6F894DEBF0FBECDBFAE
:1004F0007C012CE6E20EF11C6C0127E6C20ED11C39
:100500005C0121E7A20EB11C8C010A581F4F1A8210
:1005100019821B82B701CE0103960E946C146EE112
:1005200072E0CE0103960E946C14B601CE010396D0
:100530000E946C146EE172E0CE0103960E946C146E
:10054000B501CE0103960E946C146EE172E0CE01FB
:1005500003960E946C14B801CE0103960E946C149D
:1005600044E650E0BE016F5F7F4F80919004909110
:1005700091040E942A110BD660E08EE390E00E9465
:100580004C0C9FD78111C3CFD7D6C1CF7C016C0152
:100590008CE7C80ED11CF1D38C01C7013ADEC6012D
:1005A00038DEF5D52091910230919202E801EC9667
:1005B0002017310720F4C017D10738F403C0C01743
:1005C000D10750F02C173D0738F07BD7882311F066
:1005D0008E01E3CFB1D6FCCF60E0CE01821B930B3E
:1005E0000E944C0CF2CF8F929F92AF92BF92CF920B
:1005F000DF92EF92FF920F931F93CF93DF93CDB7CC
:10060000DEB7C85FD1090FB6F894DEBF0FBECDBF0D
:1006100040E855E260E070E083EF93E02CD288D3AD
:100620004B015C0188EEC82E83E0D82EE12CF12C22
:100630007FD3DC01CB0188199909AA09BB09883E3F
:100640009340A105B10558F021E0C21AD108E10894
:10065000F10888EE880E83E0981EA11CB11CC1141D
:10066000D104E104F10421F786E593E09A838983BC
:10067000A8961FAEA89740E05BE460E070E0FBD175
:1006800089EB92E0EF969FAF8EAFEF97CD51DF4FA2
:100690001882C35ED04040E05BE460E070E0EBD1E4
:1006A0008091420290914302892B11F541E060E074
:1006B00081E00E94420F8C01009761F0FC011382DF
:1006C000128211821082168240E050E060E070E0F9
:1006D0000E942A1110934302009342020115110552
:1006E00039F040E050E060E070E0C8010E942A115B
:1006F000E12CF12C02E09E012F5F3F4F48EE53E0CA
:1007000060E272E08EE692E00E94C70D03E09E0177
:100710002F5F3F4F48EC50E068E272E086EC92E0D9
:100720000E94C70D01E020E030E044EF51E06DE2AF
:1007300072E083EF91E00E94C70DC850DF4F0FB603
:10074000F894DEBF0FBECDBFDF91CF911F910F9107
:10075000FF90EF90DF90CF90BF90AF909F908F90E1
:100760000895CF92DF92EF92FF920F931F93CF9352
:10077000DF936C017A018B01C0E0D0E0CE15DF057C
:1007800089F0D8016D918D01D601ED91FC91019018
:10079000F081E02DC6011995892B11F47E0102C06C
:1007A0002196ECCFC701DF91CF911F910F91FF9060
:1007B000EF90DF90CF900895FC01A089B1898C91D2
:1007C000A689B78982FD0FC09C91818D8F5F8F7341
:1007D000228D821749F0218DDF01A20FB11D5D9698
:1007E0009C93818F08958C910895089580E090E006
:1007F0000895FC01538D448D252F30E0842F90E027
:10080000821B930B541710F0CF960895019708950B
:10081000FC01918D828D981761F0828DDF01A80F08
:10082000B11D5D968C91928D9F5F9F73928F90E02A
:1008300008958FEF9FEF0895FC01918D828D981799
:1008400031F0828DE80FF11D858D90E008958FEFD6
:100850009FEF0895FC01918D228D892F90E0805C9F
:100860009F4F821B91098F739927089589EB92E01E
:10087000F1DF21E0892B09F420E0822F089586E53D
:1008800093E0E8DF21E0892B09F420E0822F08952E
:1008900083EF93E0DFDF21E0892B09F420E0822F52
:1008A0000895FC01848DDF01A80FB11DA35ABF4F2D
:1008B0002C91848D90E001968F739927848FA6895F
:1008C000B7892C93A089B1898C9180648C93938D86
:1008D000848D981306C00288F389E02D80818F7D76
:1008E00080830895EF92FF920F931F93CF93DF932E
:1008F000EC0181E0888F9B8D8C8D981305C0E88971
:10090000F989808185FD23C0F62E0B8D10E00F5FE5
:100910001F4F0F731127E02E8C8DE8120BC00FB6FE
:1009200007FCFACFE889F989808185FFF5CFCE01F0
:10093000B8DFF2CF8B8DFE01E80FF11DE35AFF4FB8
:10094000F0820B8FEA89FB898081806207C0EE8983
:10095000FF896083E889F98980818064808381E0F0
:1009600090E0DF91CF911F910F91FF90EF9008954C
:10097000CF93DF93EC01888D8823C1F0EA89FB894E
:10098000808185FD05C0A889B9898C9186FD0EC03E
:100990000FB607FCF5CF808185FFF2CFA889B98912
:1009A0008C9185FFEDCFCE017CDFE8CFDF91CF9139
:1009B000089580E090E0892B19F06ADF81111BC057
:1009C00080E090E0892B19F05ADF811117C080E098
:1009D00090E0892B19F04ADF811113C080E090E08C
:1009E000892BA1F080E090E0892B81F00E9400002B
:1009F00081110AC008950E940000E2CF0E94000009
:100A0000E6CF0E940000EACF0C94000008950E94F7
:100A10005814009761F0FC0101900020E9F731972C
:100A2000AF01481B590BBC0183EF93E09ACE80E0E5
:100A300090E008950F931F93CF93DF938C01C0E054
:100A4000D0E0F801EC0FFD1F6491662371F0E09196
:100A5000F303F091F4030190F081E02D83EF93E034
:100A60001995892B11F02196ECCFCE01DF91CF9112
:100A70001F910F910895CF92DF92EF92FF920F9303
:100A80001F93CF93DF93EC016A017B01E889F98919
:100A900082E080834115514E61057105B1F060E03F
:100AA00079E08DE390E0A70196010E94011389018E
:100AB0009A01015011092109310936952795179599
:100AC0000795980101151041A8F0E889F98910826D
:100AD00060E874E88EE190E0A70196010E9401139E
:100AE000DA01C9010197A109B109B695A7959795B2
:100AF00087959C01EC85FD853083EE85FF852083FD
:100B0000188EEC89FD8986E08083EA89FB898081E3
:100B100080618083EA89FB89808188608083EA899B
:100B2000FB89808180688083EA89FB8980818F7D51
:100B30008083DF91CF911F910F91FF90EF90DF9015
:100B4000CF9008951F920F920FB60F9211240BB6FB
:100B50000F922F933F934F935F936F937F938F9356
:100B60009F93AF93BF93EF93FF9389EB92E099DE4E
:100B7000FF91EF91BF91AF919F918F917F916F9175
:100B80005F914F913F912F910F900BBE0F900FBE31
:100B90000F901F9018951F920F920FB60F9211246D
:100BA0000BB60F922F933F934F935F936F937F9367
:100BB0008F939F93AF93BF93EF93FF9389EB92E053
:100BC000FBDDFF91EF91BF91AF919F918F917F914D
:100BD0006F915F914F913F912F910F900BBE0F90AE
:100BE0000FBE0F901F9018951F920F920FB60F9285
:100BF00011240BB60F922F933F934F935F936F93F4
:100C00007F938F939F93AF93BF93EF93FF9386E56B
:100C100093E047DEFF91EF91BF91AF919F918F914C
:100C20007F916F915F914F913F912F910F900BBEEC
:100C30000F900FBE0F901F9018951F920F920FB636
:100C40000F9211240BB60F922F933F934F935F9304
:100C50006F937F938F939F93AF93BF93EF93FF9384
:100C600086E593E0A9DDFF91EF91BF91AF919F9150
:100C70008F917F916F915F914F913F912F910F9045
:100C80000BBE0F900FBE0F901F9018951F920F92E2
:100C90000FB60F9211240BB60F922F933F934F93E1
:100CA0005F936F937F938F939F93AF93BF93EF93D4
:100CB000FF9383EF93E0F5DDFF91EF91BF91AF914B
:100CC0009F918F917F916F915F914F913F912F9164
:100CD0000F900BBE0F900FBE0F901F9018951F9294
:100CE0000F920FB60F9211240BB60F922F933F93D2
:100CF0004F935F936F937F938F939F93AF93BF9324
:100D0000EF93FF9383EF93E057DDFF91EF91BF9156
:100D1000AF919F918F917F916F915F914F913F9193
:100D20002F910F900BBE0F900FBE0F901F90189534
:100D30003FB7F8948091810290918202A091830242
:100D4000B091840226B5A89B05C02F3F19F00196EB
:100D5000A11DB11D3FBFBA2FA92F982F8827820F41
:100D6000911DA11DB11DBC01CD0142E0660F771F91
:100D7000881F991F4A95D1F708950FB6F8940F92DE
:100D800080919102909192020F900FBE08950F9260
:100D90000FB6F8940F920BB60F920CB60F921F92EB
:100DA00011242F923F924F925F926F927F928F9277
:100DB0009F92AF92BF92CF92DF92EF92FF920F93EA
:100DC0001F932F933F934F935F936F937F938F93D3
:100DD0009F93AF93BF93CF93DF93EF93FF93A09134
:100DE0008F02B09190020DB60D920EB60D9213BE09
:100DF00080918B028111F3C08091910290919202B7
:100E000001969093920280939102009799F5209118
:100E10007602309177024091780250917902509396
:100E200077024093760230937902209378022091E2
:100E300093022F5F20939302E0917602F091770264
:100E40002081211107C02FEF3FEF30938A022093BA
:100E5000890210C0E0917602F09177020580F68158
:100E6000E02D0680F781E02D2281338130938A02C4
:100E7000209389022091890230918A028217930778
:100E800010F420E09CC020E019E0E0917602F0919F
:100E900077023081311107C08FEF9FEF90938A0264
:100EA000809389028CC0E0917602F09177020580F0
:100EB000F681E02D0680F781E02D42815381841771
:100EC000950728F450938A024093890278C0AF01B5
:100ED0004E5F5F4FA285B38564817581E680F780A0
:100EE000EB01FD82EC82C681D7817B836A831196F8
:100EF0006D917C9112976417750721F41296DC931B
:100F0000CE931197138612863C9131503C933C91BD
:100F1000A489B5891097F9F066857785E088F1880E
:100F2000EB01FD82EC82C089D1897B836A831196B3
:100F3000ED90FC901297BF01645F7F4FE616F706B5
:100F400021F41296DC93CE931197158A148A3C9162
:100F500031503C933C91A6893091B8023A1710F475
:100F6000A093B8021A9FD0011124BD016C567D4F89
:100F70007B01DB011196CD91DC911297D583C4835F
:100F80006C817D81778366836C817D81DB01139623
:100F90005C934E9312975D834C83F386E286E70160
:100FA00038813F5F3883A0918F02B09190024689CB
:100FB00056963C91431708F468CF21E066CFE09144
:100FC0008F02F0919002E689D9E0ED9FF0011124A3
:100FD000EC56FD4F8081823040F021E006C08091C8
:100FE00057028F5F8093570220E080915802811151
:100FF00003C0222309F466C080918B02882321F06C
:1010000081E0809358025EC010925802A0918F0236
:10101000B0919002E0918F02F09190022D913C915D
:101020008789908D82179307A8F080918F02909105
:10103000900280918F0290919002279A2F9A2FEF21
:1010400067EA71E6215060407040E1F700C000009F
:101050001F9AF5CF8091B80269E001C08150482FF6
:1010600050E0649F9001659F300D1124F901EC560A
:10107000FD4F9081992391F3A181B28112960D9039
:10108000BC91A02DB283A18329563D4FA217B3076F
:1010900031F412962D913C9113973283218399E07C
:1010A000949FF001959FF00D1124EC56FD4F0180A7
:1010B000F281E02D268137813093900220938F02B8
:1010C0008093B802A0918F02B0919002CD91CDBFD4
:1010D000DD91DEBFFF91EF91DF91CF91BF91AF9195
:1010E0009F918F917F916F915F914F913F912F9140
:1010F0001F910F91FF90EF90DF90CF90BF90AF9036
:101100009F908F907F906F905F904F903F902F9027
:101110001F900F900CBE0F900BBE0F900FBE0F9044
:101120000895FC01DB010FB6F8940F9240919102F3
:1011300050919202818192812D913C9111972F3F84
:101140006FEF3607F1F0709193026081761719F016
:1011500048175907C0F4481B590B4217530770F43E
:10116000241B350B2D933C938091930280838091B7
:101170009102909192029283818303C01D921C92EE
:1011800002C080E001C081E00F900FBE0895809101
:101190008B028F5F80938B0208950FB6F8940F92A5
:1011A000FC01928D0F900FBE81E0911180E00895B7
:1011B000EEDD1895CF93DF93FC01A085B185828188
:1011C000938124813581EC013D832C83C481D581B9
:1011D0009B838A8311968D919C9112978E179F07FE
:1011E00021F41296DC93CE931197118610868C9180
:1011F00081508C938C91DF91CF910895CF93DF93A1
:101200009C01FB01DC011196CD91DC911297D383F7
:10121000C2838C819D81958384838C819D81DC0137
:1012200013967C936E9312977D836C83318720870E
:10123000F90180818F5F8083DF91CF9108950F93B3
:101240001F93CF93DF93DC011596ED91FC911697D8
:10125000C681D7818E01045F1F4FC801ABDF80912B
:101260008B02811113C00A501109C801A3DF9E89A6
:101270008091B802891710F49093B802B9E09B9F4F
:10128000C0011124B8018C569D4F03C0B80189E5F7
:1012900092E0B4DFE0918F02F09190029E898689FE
:1012A000891720F481E08093580201C080E0DF912B
:1012B000CF911F910F910895EF92FF920F931F937B
:1012C000CF93DF93EC010FB6F8940F921E8D7C0143
:1012D00081E1E80EF11C01E0111654F4898988239C
:1012E00039F0C701ACDF8111009358021150F4CFDF
:1012F0008FEF8E8F0F900FBE0FB6F8940F921D8D4B
:101300007E0188E0E80EF11C01E0111654F4888596
:10131000882339F0C70193DF8111009358021150DF
:10132000F4CF8FEF8D8F0F900FBEDF91CF911F9174
:101330000F91FF90EF9008950F920FB6F8940F92CF
:101340000BB60F920CB60F921F9211242F923F9260
:101350004F925F926F927F928F929F92AF92BF92C5
:10136000CF92DF92EF92FF920F931F932F933F93B1
:101370004F935F936F937F938F939F93AF93BF939D
:10138000CF93DF93EF93FF93A0918F02B0919002E0
:101390000DB60D920EB60D9280918B02882321F02E
:1013A00081E0809358025EC010925802A0918F0293
:1013B000B0919002E0918F02F09190022D913C91BA
:1013C0008789908D82179307A8F080918F02909162
:1013D000900280918F0290919002279A2F9A2FEF7E
:1013E00087EA91E6215080409040E1F700C000007C
:1013F0001F9AF5CF8091B80269E001C08150482F53
:1014000050E0649F9001659F300D1124F901EC5666
:10141000FD4F9081992391F3A181B28112960D9095
:10142000BC91A02DB283A18329563D4FA217B307CB
:1014300031F412962D913C9113973283218399E0D8
:10144000949FF001959FF00D1124EC56FD4F018003
:10145000F281E02D268137813093900220938F0214
:101460008093B802A0918F02B0919002CD91CDBF30
:10147000DD91DEBFFF91EF91DF91CF91BF91AF91F1
:101480009F918F917F916F915F914F913F912F919C
:101490001F910F91FF90EF90DF90CF90BF90AF9092
:1014A0009F908F907F906F905F904F903F902F9084
:1014B0001F900F900CBE0F900BBE0F900FBE0F90A1
:1014C00008958F929F92AF92BF92CF92DF92EF9248
:1014D000FF920F931F93CF93DF930FB6F8940F9261
:1014E00080918B02815080938B0280918B028823A4
:1014F00011F080E0EBC0809163028823D1F3C0E05B
:10150000D0E029E0F22EEE24E39480915902882362
:1015100039F1E0915E02F0915F02C681D781CE0180
:101520000C9648DE8E010E5F1F4FC80143DE9E8978
:101530008091B802891710F49093B802F99EC00107
:101540001124B8018C569D4F59DEE0918F02F09125
:1015500090029E8986899817C0F2E0925802D5CFF2
:10156000CD2B11F00E94EE00E0905702EE2009F41E
:10157000A6C089E0B82EAA24A394CC24CA94DC2C5B
:1015800080918B02811189C0C0919102D091920209
:101590002196D0939202C09391022097B9F4809142
:1015A00076029091770220917802309179023093FF
:1015B000770220937602909379028093780280914B
:1015C00093028F5F809393020E94EE0080918902C4
:1015D00090918A02F12CC817D90708F44EC0E09107
:1015E0007602F09177028081811105C0D0928A0243
:1015F000C092890242C0E0917602F09177020580A4
:10160000F681E02D06811781D80112968D919C916B
:101610001397C817D90728F490938A0280938902F8
:101620002CC04801B2E08B0E911CC401C3DDF8014F
:1016300084899589892B19F0C8010C96BBDDD801E6
:1016400056968C919091B802981710F48093B80236
:10165000B89EC0011124B4018C569D4FCFDDE0919E
:101660008F02F0919002D80156969C918689981726
:1016700008F4B5CFFF24F394B2CFE0918F02F0913C
:101680009002E689BE9EF0011124EC56FD4F808148
:10169000823048F0FF24F39406C0809157028F5F98
:1016A00080935702F12C80915802811101C0F110F2
:1016B000A0925802EA94E11063CF109257028091F1
:1016C0005802882309F415CF37DE81E00F900FBE52
:1016D000DF91CF911F910F91FF90EF90DF90CF900E
:1016E000BF90AF909F908F900895CF93DF93009716
:1016F00041F0EC014CDDCE010E94C013DF91CF918F
:10170000E0CEDF91CF9108950F931F93CF93DF9396
:101710001F921F92CDB7DEB789839A8338DD898106
:101720009A8199D78C01CDDE0115110511F40E9423
:10173000E601C8010F900F90DF91CF911F910F919B
:1017400008950F931F93CF93DF938C01FB0180814A
:1017500091818F3F2FEF920721F4E801AF81B88587
:101760000EC0D801139612962D913C911397E90162
:10177000488159818417950710F0D901F4CF12964A
:101780008D919C91139793838283EC01FD83EC836D
:10179000B583A4831396FC93EE9312971187008769
:1017A000F80180818F5F8083DF91CF911F910F912E
:1017B0000895EF92FF920F931F93CF93DF93E091E1
:1017C0008702F09188028081882351F10580F6819B
:1017D000E02D00811181C681D7817E0182E0E80E73
:1017E000F11CC701E7DCE989FA89CE0119958E85DC
:1017F000813029F72C853D85200F311F02171307F3
:1018000058F43B832A83D987C887B7018091870220
:101810009091880296DFD3CFB801CE01C8D6CFCF42
:10182000809185029091860290938802809387022E
:10183000F0938602E0938502DF91CF911F910F9183
:10184000FF90EF900895FC017383628391878087F6
:101850004617570778F0421B530B84859585481728
:101860005907C0F4BF016E5F7F4F80918502909150
:1018700086020DC04217530718F46217730750F41D
:10188000BF016E5F7F4F809187029091880259DF80
:1018900080E0089581E00895EF92FF920F931F93E7
:1018A000CF93DF931F92CDB7DEB77C0100919102F9
:1018B0001091920280918F0290919002029669831A
:1018C00079DC69818FEFE816F80691F4662381F0E0
:1018D00060918F02709190026E5F7F4F8DE692E073
:1018E0000F90DF91CF911F910F91FF90EF9086CCD9
:1018F000E00EF11EE0918F02F0919002F382E282FD
:1019000060918F0270919002E016F10670F4809160
:101910007802909179026E5F7F4F0F90DF91CF91A7
:101920001F910F91FF90EF900CCF809176029091D4
:1019300077026E5F7F4F05DF8091890290918A0266
:10194000E816F90620F4F0928A02E09289020F90DC
:10195000DF91CF911F910F91FF90EF900895CF935A
:10196000DF93CDB7DEB727970FB6F894DEBF0FBE73
:10197000CDBFE0918702F09188028081FF24F3942B
:10198000882339F0F12C0580F681E02D008111814A
:1019900002C000E010E0FBDBF0D96C0180917A021C
:1019A00090917B02C816D90618F403DF81E001C0CC
:1019B00080E0D0927B02C0927A0281116CC0F1105B
:1019C0002DC0C016D10690F17CDDE0918702F09128
:1019D00088020580F681E02DE680F780C701029637
:1019E000E9DBD7011E968C911E97813079F41C9605
:1019F0006D917C911D97600F711F9801A601C70121
:101A000022DF882319F0B801C701D1D5D70151963B
:101A1000ED91FC915297C701199542C0E091850262
:101A2000F09186028081BB24B3948111B12CE090A7
:101A30008D02F0908E020FB6F8940F92F701858D0B
:101A40008F3F09F4158ED7015E968C915E978F3F7C
:101A500011F45E961C920F900FBEF701828D8111DA
:101A600013C060918F0270919002645F7F4FC70135
:101A70004196C4DBB11004C0C8018C199D0902C095
:101A80008FEF9FEF6B2D08DFC70116DC1ADD811188
:101A900007C052DC05C015DD03C0898187FF0BC07C
:101AA000BE016F5F7F4F80918D0290918E02CAD4EC
:101AB0008111F3CF5ECF0C811D81D8011A968D91D3
:101AC0009C911B97892B19F0C801029673DB55D99D
:101AD000AC0180917A0290917B024817590728F453
:101AE0004E835F8366DE5F814E8150937B0240931D
:101AF0007A028981082E000C990BAA0BBB0B8A3045
:101B0000910570F6FC018827EE58FF4F8F4F9BC55B
:101B10002A813B81F80164857585620F731FC801B6
:101B200092DE882309F4BCCFD8015196ED91FC9147
:101B30005297C8011995F8018685813009F0B0CF18
:101B4000648575858A819B81680F791FC8012FD5AF
:101B5000A7CF6A817B81D8011D967C936E931C97D9
:101B6000640F751F9A01C8016EDE9ACFC801BDDDF2
:101B700097CFFC010396928381832FEF3FEF34834D
:101B800023839683858390878783108208955F924D
:101B90006F927F928F929F92AF92BF92CF92DF927D
:101BA000EF92FF920F931F93CF93DF93782E892E9E
:101BB000562E672EEA01922E132FCA01A5DD5C0175
:101BC000892B09F44EC188E290E09EDD6C010097FC
:101BD000C1F0DC015896BC92AE925797AE0165EA0F
:101BE00070E0C50172D62197F6018789908DC80FE4
:101BF000D91FB601675E7F4FE52DF62DCF01089600
:101C000006C0C50172DD2DC1E817F90749F09F0133
:101C10004191DB014D93BD01D9012C912111F4CFEC
:101C2000F60110A2043008F003E0D60156960C939A
:101C3000569791960C93919792961C9292971B9619
:101C40001C921E921A9755961C921E9254971996A2
:101C5000DC92CE92189784E090E0801B91091D964B
:101C60009C938E931C975396DC92CE925297F601DA
:101C700013A214A215A216A217A291E19883FE0145
:101C8000319782E28083319723E3208331977082FA
:101C9000319780823197108231971082319720E8F6
:101CA00020833197108231971082319710823197BB
:101CB00022E02083319723E02083319724E02083A2
:101CC000319725E02083319726E02083319727E064
:101CD0002083319728E02083319729E020833197B2
:101CE00020E1208331979083319792E1908331975F
:101CF00093E19083319794E19083319795E19083BC
:101D0000319796E19083319797E19083319798E1ED
:101D10009083319799E19083319790E29083319746
:101D200091E2908331978083319783E2808331976A
:101D3000908231971083319786E28083319787E2D2
:101D40008083319788E28083319789E2808331975D
:101D500080E38083319781E38083A997CD93DC93DF
:101D6000E114F10419F0F701D182C0820FB6F894A2
:101D70000F92809163028F5F8093630280918F0244
:101D800090919002892B89F5D0929002C0928F0297
:101D900080916302813009F03AC084E992E0E9DE83
:101DA0008DE992E0E6DE86EA92E0E3DE8FEA92E0F9
:101DB000E0DE8DE492E0DDDE84E492E0DADE89E5C7
:101DC00092E0D7DE84E692E0D4DE8DE692E0D1DECA
:101DD0008DE492E0909377028093760284E492E01F
:101DE000909379028093780212C080918C028111C5
:101DF0000EC0E0918F02F09190029689D60156961E
:101E00008C91891720F0D0929002C0928F0280911D
:101E100056028F5F80935602F60186899091B80230
:101E2000981710F48093B802F9E08F9FC001112435
:101E3000B6016E5F7F4F8C569D4FE0D90F900FBE5D
:101E400080918C02882359F0E0918F02F0919002EA
:101E50009689D60156968C91981708F46DDA81E030
:101E600001C08FEFDF91CF911F910F91FF90EF9005
:101E7000DF90CF90BF90AF909F908F907F906F90AA
:101E80005F900895EF92FF921F93CF93DF931F927D
:101E9000CDB7DEB7182F662321F0869FC00111242D
:101EA00002C080E090E04F9669832EDC7C0169815E
:101EB000009781F1611104C0FC019183808304C00B
:101EC0004F96F70191838083F701138F648F0FB6CC
:101ED000F8940F9220813181938D448D949FC0019D
:101EE0001124B901680F791F73836283128E3583C1
:101EF0002483841B9109820F931F978386838FEF1E
:101F0000858F868FC701089634DEC701419631DE82
:101F10000F900FBEC7010F90DF91CF911F91FF90DF
:101F2000EF900895E9EBF2E01382128248EE53E05D
:101F300060E070E044835583668377838DE092E0B0
:101F40009183808325ED30E03587248724ED30E0D0
:101F50003787268720ED30E0318B208B21ED30E074
:101F6000338B228B22ED30E0358B248B26ED30E055
:101F7000378B268B118E128E138E148EE6E5F3E0CE
:101F8000138212824483558366837783918380838F
:101F90002DEC30E0358724872CEC30E0378726871E
:101FA00028EC30E0318B208B29EC30E0338B228B16
:101FB0002AEC30E0358B248B2EEC30E0378B268BEF
:101FC000118E128E138E148EE3EFF3E013821282C1
:101FD00044835583668377839183808385EC90E087
:101FE0009587848784EC90E09787868780EC90E0E3
:101FF000918B808B81EC90E0938B828B82EC90E0D4
:10200000958B848B86EC90E0978B868B118E128E4D
:10201000138E148E40E067E181E034DF90939104E9
:102020008093900440E067E181E02CDF9093A90465
:102030008093A8040895789484B5826084BD84B5A3
:10204000816084BD85B5826085BD85B5816085BDB3
:1020500080916E00816080936E001092810080916B
:1020600081008260809381008091810081608093F3
:102070008100809180008160809380008091B10018
:1020800084608093B1008091B00081608093B00043
:102090008091910082608093910080919100816095
:1020A0008093910080919000816080939000809156
:1020B000A10082608093A1008091A1008160809343
:1020C000A1008091A00081608093A00080912101F7
:1020D00082608093210180912101816080932101A0
:1020E0008091200181608093200180917A0084603A
:1020F00080937A0080917A00826080937A00809148
:102100007A00816080937A0080917A008068809361
:102110007A001092C1000E94F30296EAE92E94E040
:10212000F92E00E020E030E040EC50E065E372E0A2
:102130008EE890E02CDD813009F085C00FB6F89470
:102140000F9280918D0290918E02892BD1F48BE9B0
:1021500094E00FDD82E994E00CDD8BE994E090934C
:1021600088028093870282E994E0909386028093AC
:10217000850240E065E08AE085DE90938E028093E0
:102180008D020F900FBE80918D0290918E02892B4F
:1021900009F459C084EAE82E84E0F82E03E020E038
:1021A00030E045E550E06AE372E08FEA9CE0EFDC66
:1021B000813009F048C0F8942FEF3FEF30938A0246
:1021C0002093890280938C021092920210929102C5
:1021D000A89520EC88E190E00FB6F894A89580933C
:1021E00060000FBE20936000A0918F02B09190021A
:1021F000CD91CDBFDD91DEBFFF91EF91DF91CF910A
:10220000BF91AF919F918F917F916F915F914F910E
:102210003F912F911F910F91FF90EF90DF90CF9002
:10222000BF90AF909F908F907F906F905F904F90F6
:102230003F902F901F900F900CBE0F900BBE0F90F1
:102240000FBE0F9008950E94E6010E94F3020E94C3
:10225000D904FDCFAF92BF92CF92DF92EF92FF925F
:102260000F931F93CF93DF9300D01F921F92CDB790
:10227000DEB78C017B015D834C8390E0580188E0E0
:10228000A80EB11C0FB6F8940F92F801228D838D21
:10229000281708F06CC0D28C448D41113FC080815A
:1022A0009181892B09F051C0F801E280F380E1149B
:1022B000F10411F480E02EC0F70182A1815082A3C5
:1022C000268991A12917B1F38111F4CF5701F2E0CA
:1022D000AF0EB11CC5010E94DA08F70191A1968BDF
:1022E000492F50E024E030E0241B350B358724874C
:1022F0008091B802891710F49093B80229E0249FC6
:10230000C001259F900D1124B5018C569D4F0E9450
:10231000FE0881E0F8011382128218C050E0B70174
:10232000F80184819581C8D2F801248D848195813A
:10233000820F911D958384832281338182179307B5
:1023400020F0808191819583848380E0D394F8018B
:10235000D28E9189992321F0C80141960E941F09CC
:1023600081110E949C090F900FBE81E05BC02C81FF
:102370003D81232B19F40F900FBE53C0911109C05A
:1023800080919302898380919102909192029B8324
:102390008A830F900FBE0E94C7080FB6F8940F9261
:1023A000F801858D8F3F09F4158EF801868D8F3FDA
:1023B00009F4168E0F900FBEBE016C5F7F4FCE01E9
:1023C00001960E949108811128C00FB6F8940F92CF
:1023D000F801928D838D0F900FBE981319C0CC8099
:1023E000DD8020918F0230919002B901645F7F4FB0
:1023F000C501A7D961E0C6014FDAC8010E945C0996
:1024000060D8882311F091E03DCF0E949C09FBCF5A
:10241000C8010E945C0955D8F6CFC8010E945C092A
:1024200050D880E00F900F900F900F900F90DF9199
:10243000CF911F910F91FF90EF90DF90CF90BF90C1
:10244000AF900895AF92BF92CF92DF92EF92FF923A
:102450000F931F93CF93DF9300D01F921F92CDB79E
:10246000DEB78C016B011D821C8280E0580191E176
:10247000A90EB11C0FB6F8940F92F801F28CFF2050
:1024800049F1448D4423A9F050E026813781240F7F
:10249000351F37832683828193812817390720F0DF
:1024A0008081918197838683F80166817781C60157
:1024B00003D2FA94F801F28E8085882339F0C8019E
:1024C00008960E941F0981110E949C090F900FBE5F
:1024D00081E05DC02C813D81232B19F40F900FBE4C
:1024E00055C0811109C08091930289838091910226
:1024F000909192029B838A830F900FBE0E94C7081F
:102500000FB6F8940F92F801858D8F3F09F4158E60
:10251000F801868D8F3F09F4168E0F900FBEBE0115
:102520006C5F7F4FCE0101960E949108811124C0FB
:10253000C8010E94CD088823C9F0EC80FD8060911D
:102540008F0270919002645F7F4FC501FAD861E0FD
:10255000C701A2D9C8010E945C090E94610A8823B0
:1025600011F081E087CF0E949C09FBCFC8010E9437
:102570005C090E94610AF5CFC8010E945C090E94B3
:10258000610AC8010E94CD08882359F380E00F90AA
:102590000F900F900F900F90DF91CF911F910F919F
:1025A000FF90EF90DF90CF90BF90AF900895CF93C2
:1025B000DF9300D01F921F92CDB7DEB79C018091B0
:1025C0008D0290918E02009761F019827B836A835D
:1025D0003D832C8320918C02222329F020918B02B1
:1025E00002C080E006C040E050E0BE016F5F7F4F58
:1025F00031DE0F900F900F900F900F90DF91CF91E1
:102600000895A1E21A2EAA1BBB1BFD010DC0AA1F33
:10261000BB1FEE1FFF1FA217B307E407F50720F04B
:10262000A21BB30BE40BF50B661F771F881F991FC6
:102630001A9469F760957095809590959B01AC010F
:10264000BD01CF010895EE0FFF1F881F8BBF0790BC
:10265000F691E02D1994CF93DF938230910510F419
:1026600082E090E0E091AC04F091AD0420E030E035
:10267000C0E0D0E0309711F14081518148175907EF
:10268000C0F04817590761F482819381209719F0AF
:102690009B838A832BC09093AD048093AC0426C0A7
:1026A0002115310519F04217530718F49A01BE019C
:1026B000DF01EF010280F381E02DDCCF2115310530
:1026C00009F1281B390B2430310590F412968D91B5
:1026D0009C9113976115710521F0FB01938382830F
:1026E00004C09093AD048093AC04FD01329644C0C5
:1026F000FD01E20FF31F81939193225031092D9335
:102700003C933AC02091AA043091AB04232B41F4AE
:1027100020910202309103023093AB042093AA046B
:1027200020910002309101022115310541F42DB7AD
:102730003EB74091040250910502241B350BE091F5
:10274000AA04F091AB04E217F307A0F42E1B3F0B91
:102750002817390778F0AC014E5F5F4F2417350713
:1027600048F04E0F5F1F5093AB044093AA0481932F
:10277000919302C0E0E0F0E0CF01DF91CF910895A6
:102780000F931F93CF93DF93009709F48CC0FC0144
:102790003297138212820091AC041091AD0401159E
:1027A000110581F420813181820F931F2091AA04A9
:1027B0003091AB042817390779F5F093AB04E09317
:1027C000AA0471C0D80140E050E0AE17BF0750F432
:1027D00012962D913C911397AD012115310509F108
:1027E000D901F3CF9D01DA013383228360817181A6
:1027F000860F971F8217930769F4EC0128813981AE
:10280000260F371F2E5F3F4F318320838A819B81A4
:1028100093838283452B29F4F093AD04E093AC04B9
:1028200042C01396FC93EE931297ED014991599192
:102830009E01240F351FE217F30771F48081918107
:10284000840F951F029611969C938E93828193819B
:1028500013969C938E931297E0E0F0E0D8011296C5
:102860008D919C911397009719F0F8018C01F6CF88
:102870008D919C9198012E5F3F4F820F931F209165
:10288000AA043091AB042817390769F4309729F46A
:102890001092AD041092AC0402C013821282109305
:1028A000AB040093AA04DF91CF911F910F9108957B
:1028B00081E090E0F89444C0FB01DC0102C001908B
:1028C0000D9241505040D8F70895DC0101C06D933E
:1028D00041505040E0F70895FB01DC010D900020CD
:1028E000E9F7119701900D920020E1F70895FB019F
:1028F000DC014150504048F001900D920020C9F792
:1029000001C01D9241505040E0F70895FB015191E4
:102910005523A9F0BF01DC014D9145174111E1F7A5
:1029200059F4CD010190002049F04D91401541111D
:10293000C9F3FB014111EFCF81E090E001970895C9
:04294000F894FFCF39
:102944000000AE0480003E2000000000007204B1CC
:1029540003F903B8042A0408041C040D0A00200027
:10296400456E7175657565004675656C004C6F67DD
:1029740053656E640049444C4500546D722053768F
:022984006300EE
:020000023000CC
:10E000000D9489F10D94B2F10D94B2F10D94B2F129
:10E010000D94B2F10D94B2F10D94B2F10D94B2F1F0
:10E020000D94B2F10D94B2F10D94B2F10D94B2F1E0
:10E030000D94B2F10D94B2F10D94B2F10D94B2F1D0
:10E040000D94B2F10D94B2F10D94B2F10D94B2F1C0
:10E050000D94B2F10D94B2F10D94B2F10D94B2F1B0
:10E060000D94B2F10D94B2F10D94B2F10D94B2F1A0
:10E070000D94B2F10D94B2F10D94B2F10D94B2F190
:10E080000D94B2F10D94B2F10D94B2F10D94B2F180
:10E090000D94B2F10D94B2F10D94B2F10D94B2F170
:10E0A0000D94B2F10D94B2F10D94B2F10D94B2F160
:10E0B0000D94B2F10D94B2F10D94B2F10D94B2F150
:10E0C0000D94B2F10D94B2F10D94B2F10D94B2F140
:10E0D0000D94B2F10D94B2F10D94B2F10D94B2F130
:10E0E0000D94B2F141546D656761323536300041AF
:10E0F000726475696E6F206578706C6F72657220DE
:10E1000073746B3530305632206279204D4C530099
:10E11000426F6F746C6F616465723E004875683F52
:10E1200000436F6D70696C6564206F6E203D200048
:10E130004350552054797065202020203D20005FF9
:10E140005F4156525F415243485F5F3D2000415658
:10E1500052204C696243205665723D20004743437C
:10E160002056657273696F6E203D20004350552024
:10E1700049442020202020203D20004C6F7720663D
:10E18000757365202020203D20004869676820665F
:10E190007573652020203D200045787420667573D6
:10E1A00065202020203D20004C6F636B2066757336
:10E1B000652020203D20004D617220203720323024
:10E1C000313300312E362E3800342E332E350056A2
:10E1D00023202020414444522020206F7020636F70
:10E1E00064652020202020696E73747275637469E1
:10E1F0006F6E2061646472202020496E74657272B3
:10E20000757074006E6F20766563746F7200726A49
:10E210006D702020006A6D70200057686174207056
:10E220006F72743A00506F7274206E6F7420737541
:10E2300070706F72746564004D7573742062652030
:10E2400061206C6574746572002000577269747483
:10E25000696E672045450052656164696E672045B7
:10E26000450045452065727220636E743D00504F35
:10E27000525400303D5A65726F2061646472003FF1
:10E280003D43505520737461747300403D454550C3
:10E29000524F4D207465737400423D426C696E6B41
:10E2A000204C454400453D44756D70204545505215
:10E2B0004F4D00463D44756D7020464C415348001B
:10E2C000483D48656C70004C3D4C69737420492F83
:10E2D0004F20506F72747300513D51756974005234
:10E2E0003D44756D702052414D00563D73686F7707
:10E2F00020696E7465727275707420566563746FF0
:10E30000727300593D506F727420626C696E6B00BD
:10E310002A0011241FBECFEFD1E2DEBFCDBF01E046
:10E320000CBF12E0A0E0B2E0EEE1FDEF03E00BBFB6
:10E3300002C007900D92A030B107D9F712E0A0E01B
:10E34000B2E001C01D92AE30B107E1F70F9460F367
:10E350000D948DFE01E20EBF0FEF0DBF11241FBE05
:10E360000D9460F30D9400F020E030E040ED57E0B4
:10E3700005C0FA013197F1F72F5F3F4F2817390792
:10E38000C0F308959C01260F311DC901A0E0B0E043
:10E390002F5F3F4FABBFFC018791882361F08093D3
:10E3A000C6008091C00086FFFCCF8091C0008064D1
:10E3B0008093C000EACF08958DE08093C6008091DD
:10E3C000C00086FFFCCF8091C00080648093C000B5
:10E3D0008AE08093C6008091C00086FFFCCF8091C8
:10E3E000C00080648093C00008950F94C2F10F9420
:10E3F000DCF10895FC019081992359F09093C600B7
:10E400008091C00086FFFCCF8091C0008064809323
:10E41000C0003196992379F70895282F982F929567
:10E420009F70892F805D8A3308F0895F8093C600D2
:10E430008091C00086FFFCCF8091C00080648093F3
:10E44000C000822F8F70982F905D9A3308F0995FEB
:10E450009093C6008091C00086FFFCCF8091C000E1
:10E4600080648093C00008959C01FB01853691056E
:10E470001CF46330710594F0C90164E670E00F94F8
:10E480002EFE605D7F4F6093C6008091C00086FFC6
:10E49000FCCF8091C00080648093C0002B30310598
:10E4A00014F43297B4F0C90164E670E00F942EFEC4
:10E4B0006AE070E00F942EFE605D7F4F6093C600AF
:10E4C0008091C00086FFFCCF8091C0008064809363
:10E4D000C000C9016AE070E00F942EFEC0968093E0
:10E4E000C6008091C00086FFFCCF8091C000806490
:10E4F0008093C00008951F93182F8EE692EE60E07F
:10E500000F94C2F11093C6008091C00086FFFCCF2B
:10E510008091C00080648093C0000F94DCF11F9153
:10E5200008952F923F924F925F926F927F928F92B7
:10E530009F92AF92BF92CF92DF92EF92FF920F9392
:10E540001F93DF93CF93CDB7DEB762970FB6F894E2
:10E55000DEBF0FBECDBF382E622ECA01DB015C01CB
:10E560006D01772420E2222E2E010894411C511CBB
:10E570008BC081E0A81680E0B80681E0C80680E084
:10E58000D80628F0C601AA27BB270F940DF2BB2797
:10E59000AD2D9C2D8B2D0F940DF28A2D0F940DF225
:10E5A0002092C6008091C00086FFFCCF8091C00001
:10E5B00080648093C0009DE29093C6008091C0006B
:10E5C00086FFFCCF8091C00080648093C0002092C1
:10E5D000C6008091C00086FFFCCF8091C00080649F
:10E5E0008093C00019828601750188249924A1E0D6
:10E5F0003A1651F03A1620F0B2E03B1661F409C029
:10E600000BBFF701779007C0C7010F9477FE782EF4
:10E6100002C0F7017080872D0F940DF22092C60082
:10E620008091C00086FFFCCF8091C0008064809301
:10E63000C000872D8052F401EF70F0708F3520F408
:10E64000E40DF51D708204C0E40DF51D8EE280839B
:10E650000894E11CF11C011D111D0894811C911CE2
:10E6600090E18916910409F0C2CF80E190E0A0E02A
:10E67000B0E0A80EB91ECA1EDB1E198AC2010F9493
:10E68000FAF10F94DCF16A94662009F072CF629679
:10E690000FB6F894DEBF0FBECDBFCF91DF911F91B3
:10E6A0000F91FF90EF90DF90CF90BF90AF909F9031
:10E6B0008F907F906F905F904F903F902F90089534
:10E6C0002F923F924F925F926F927F928F929F9282
:10E6D000AF92BF92CF92DF92EF92FF920F931F9370
:10E6E000DF93CF93CDB7DEB7CD53D1400FB6F894BB
:10E6F000DEBF0FBECDBF01E20EBF0FEF0DBF94B75F
:10E70000F894A89514BE80916000886180936000A1
:10E7100010926000789493FF05C0E0910002F091A0
:10E7200001021995279A2F9A8091C00082608093E8
:10E73000C00080E18093C40088E18093C1000000A4
:10E74000EE24FF24870144E0A42EB12CCC24DD2448
:10E7500024C0C5010197F1F70894E11CF11C011DCB
:10E76000111D21E2E2162EE4F20620E0020720E06D
:10E77000120718F031E0C32ED12CC801B70127ECE5
:10E780003BE140E050E00F9441FE611571058105C9
:10E79000910519F485B1805885B98091C00087FD35
:10E7A00003C0C114D104A9F2A6014F5F5F4FC25E3E
:10E7B000DE4F59834883CE51D140C25EDE4F8881FF
:10E7C0009981CE51D140019711F00D9410FEC05D9A
:10E7D000DE4F19821882C053D14060E0C15DDE4F28
:10E7E0001882CF52D14088249924C35DDE4F19820C
:10E7F0001882CD52D140C05EDE4F188219821A8233
:10E800001B82C052D140CE5CDE4F188219821A8220
:10E810001B82C253D140EE24FF2487010BBFF701B6
:10E8200007911691C45CDE4F19830883CC53D14005
:10E830000D940BFEC25EDE4F28813981CE51D1404E
:10E840002130310509F52091C600C25EDE4F1982E4
:10E850001882CE51D14022C02F5F3F4F4F4F5F4FA4
:10E86000213082E138078AE7480780E0580780F0C6
:10E87000C45CDE4FE881F981CC53D140EF5FFF4F9C
:10E8800019F0EE27FF27099420E030E040E050E047
:10E890008091C00087FFE0CF2091C600C35DDE4FAE
:10E8A00048815981CD52D1404F5F5F4FC35DDE4FEC
:10E8B00059834883CD52D140213209F063C64A3092
:10E8C000510508F05FC60894811C911C53E0851621
:10E8D000910409F059C600E010E018C081E280936D
:10E8E000C6008091C00086FFFCCF8091C00080648C
:10E8F0008093C0002F5F3F4F2931310579F70F9486
:10E90000DCF10F5F1F4F0530110519F020E030E0FA
:10E91000E5CF10920A0210920B0210920C02109294
:10E920000D02109206021092070210920802109235
:10E930000902109202021092030210920402109235
:10E9400005028FEE90EE60E00F94F5F180E191EE1C
:10E9500060E00F94C2F18091C00087FFFCCF9091DE
:10E96000C600903608F09F759032B8F09093C600BC
:10E970008091C00086FFFCCF8091C00080648093AE
:10E98000C000A0E2A093C6008091C00086FFFCCF2B
:10E990008091C00080648093C000983409F4D7C18E
:10E9A0009934B8F4923409F459C1933458F490333B
:10E9B00019F1903308F4E3C59F33A1F1903409F0C5
:10E9C000DEC5BDC0953409F470C1963409F0D7C5D1
:10E9D00098C1923509F42BC2933538F49C3409F46C
:10E9E000F5C1913509F0CBC518C2963509F445C279
:10E9F000993509F0C4C567C483E792EE62E00F94CD
:10EA0000F5F110920602109207021092080210927D
:10EA1000090210920A0210920B0210920C0210923C
:10EA20000D0213C18FE792EE62E00F94F5F18FEEC5
:10EA300090EE60E00F94F5F181E291EE60E00F94CA
:10EA4000C2F187EB91EE60E00F94F5F180E391EE77
:10EA500060E00F94C2F184EE90EE60E00F94F5F167
:10EA60008FE391EE60E00F94C2F186E090E061E008
:10EA700070E00F9434F20F94DCF18DE591EE60E0DC
:10EA80000F94C2F189EC91EE60E00F94F5F18EE401
:10EA900091EE60E00F94C2F183EC91EE60E00F9490
:10EAA000F5F18CE691EE60E00F94C2F18EE10F94E7
:10EAB0000DF288E90F940DF281E00F940DF20F949E
:10EAC000DCF18BE791EE60E00F94C2F119E0E0E039
:10EAD000F0E010935700E4918E2F0F940DF20F94F5
:10EAE000DCF18AE891EE60E00F94C2F1E3E0F0E03F
:10EAF00010935700E4918E2F0F940DF20F94DCF1D8
:10EB000089E991EE60E00F94C2F1E2E0F0E0109349
:10EB10005700E4918E2F0F940DF20F94DCF188EAE8
:10EB200091EE60E00F94C2F1E1E0F0E01093570045
:10EB30001491812F0F940DF20F94DCF107CF8BE825
:10EB400092EE62E00F94F5F18BE492EE60E00F94A8
:10EB5000F5F10F94DCF100E010E019C0C8016F2D51
:10EB60000F947FFEFF2031F489E492EE60E00F9471
:10EB7000C2F10BC0F092C6008091C00086FFFCCFAE
:10EB80008091C00080648093C0000F5F1F4FC80158
:10EB900081519F41A0E0B0E0ABBFFC01F790BAE229
:10EBA000FB1621F0E2E000301E07C1F60F94DCF105
:10EBB0000F94DCF187E592EE60E00F94F5F10F948D
:10EBC000DCF1CC24DD2400E010E01EC0C8010F946D
:10EBD00077FEF82E882331F489E492EE60E00F94FA
:10EBE000C2F10BC08093C6008091C00086FFFCCFAD
:10EBF0008091C00080648093C000FE1419F00894D6
:10EC0000C11CD11C0F5F1F4FC80181519F41A0E063
:10EC1000B0E0ABBFFC01E790FAE2EF1621F022E092
:10EC20000030120799F60F94DCF10F94DCF182E6C4
:10EC300092EE60E00F94C2F1C60161E070E00F94C3
:10EC400034F20F94DCF10F94DCF110920202109276
:10EC50000302109204021092050278CE89E992EE26
:10EC600062E00F94F5F1279A2F9A16C02F9880E052
:10EC700090E0E0EDF7E03197F1F7019684369105E9
:10EC8000C1F72F9A80E090E0E0EDF7E03197F1F7DF
:10EC9000019684369105C1F78091C00087FFE6CFC9
:10ECA0008091C00087FFFCCF64C485EA92EE62E0E9
:10ECB0000F94F5F140910202509103026091040219
:10ECC0007091050281E020E10F9491F2809102029F
:10ECD00090910302A0910402B091050280509F4FD1
:10ECE000AF4FBF4F8093020290930302A0930402A0
:10ECF000B093050280509041A040B04008F426CE69
:10ED0000A4CF83EB92EE62E00F94F5F140910602FE
:10ED100050910702609108027091090280E020E1A1
:10ED20000F9491F28091060290910702A09108023F
:10ED3000B091090280509F4FAF4FBF4F80930602A2
:10ED400090930702A0930802B0930902FFCD80ECD4
:10ED500092EE62E00F94F5F183E792EE60E00F949B
:10ED6000F5F18FE792EE60E00F94F5F18BE892EE0B
:10ED700060E00F94F5F189E992EE60E00F94F5F10F
:10ED800085EA92EE60E00F94F5F183EB92EE60E09D
:10ED90000F94F5F180EC92EE60E00F94F5F187ECC2
:10EDA00092EE60E00F94F5F188ED92EE60E00F9442
:10EDB000F5F18FED92EE60E00F94F5F18AEE92EEB0
:10EDC00060E00F94F5F183E093EEBDCD87EC92EE19
:10EDD00062E00F94F5F181E40F947BF282E40F94EA
:10EDE0007BF283E40F947BF284E40F947BF285E45E
:10EDF0000F947BF286E40F947BF287E40F947BF20E
:10EE000088E40F947BF28AE40F947BF28BE40F94F6
:10EE10007BF28CE40F947BF299CD88ED92EE62E068
:10EE20000F94F5F1772473948824992409C48FED05
:10EE300092EE62E00F94F5F140910A0250910B02BC
:10EE400060910C0270910D0282E020E10F9491F22A
:10EE500080910A0290910B02A0910C02B0910D02D8
:10EE600080509F4FAF4FBF4F80930A0290930B0289
:10EE7000A0930C02B0930D0269CD8AEE92EE62E08F
:10EE80000F94F5F184EE90EE60E00F94F5F18FECC5
:10EE900091EE60E00F94F5F1662477244301CC5D98
:10EEA000DE4F19821882C452D140D401C301B695F5
:10EEB000A79597958795CA5DDE4F88839983AA8326
:10EEC000BB83C652D140CC5DDE4FA881B981C4520C
:10EED000D1401196CC5DDE4FB983A883C452D14096
:10EEE000CD0162E070E00F9434F2B0E2B093C6005E
:10EEF0008091C00086FFFCCF8091C0008064809329
:10EF0000C000EDE2E093C6008091C00086FFFCCF18
:10EF10008091C00080648093C000F0E2F093C6004E
:10EF20008091C00086FFFCCF8091C00080648093F8
:10EF3000C000CA5DDE4FE880F9800A811B81C6529D
:10EF4000D140BB27A12F902F8F2D0F940DF2CA5DBA
:10EF5000DE4F8881C652D1400F940DF2B0E2FB2EF5
:10EF6000F092C6008091C00086FFFCCF8091C00067
:10EF700080648093C0000DE30093C6008091C000C0
:10EF800086FFFCCF8091C00080648093C00010E2B7
:10EF90001093C6008091C00086FFFCCF8091C00016
:10EFA00080648093C0008BBEF3012791C65DDE4F65
:10EFB0002883CA52D140A22EBB24CC24DD2408943D
:10EFC000611C711C811C911C8BBEF3018791282E42
:10EFD0003324442455240894611C711C811C911C09
:10EFE0008BBEF3013791C55DDE4F3883CB52D140E4
:10EFF0000894611C711C811C911C8BBEF30147910C
:10F00000C45DDE4F4883CC52D140ADEFEA2EAFEF66
:10F01000FA2EAFEF0A2FAFEF1A2F6E0C7F1C801E57
:10F02000911E142D032DF22CEE24EA0CFB1C0C1D5A
:10F030001D1D0F940DF220E22093C6008091C000A8
:10F0400086FFFCCF8091C00080648093C000C65DC5
:10F05000DE4F8881CA52D1400F940DF230E23093D6
:10F06000C6008091C00086FFFCCF8091C000806404
:10F070008093C000C45DDE4F8881CC52D1400F9494
:10F080000DF240E24093C6008091C00086FFFCCFA5
:10F090008091C00080648093C000C55DDE4F888190
:10F0A000CB52D1400F940DF250E25093C6008091A4
:10F0B000C00086FFFCCF8091C00080648093C000B8
:10F0C0008FEFE8168FEFF80680E0080780E018075A
:10F0D00031F484E092EE60E00F94C2F1DFC0D80119
:10F0E000C7018070907CA070B0708050904CA040A0
:10F0F000B040D1F52FEF3FE340E050E0E222F322B1
:10F1000004231523CA5DDE4FA880B980CA80DB8046
:10F11000C652D140AE0CBF1CC01ED11EAA0CBB1CD7
:10F12000CC1CDD1C8EE092EE60E00F94C2F1BB2798
:10F13000A12F902F8F2D0F940DF28E2D0F940DF285
:10F1400030E23093C6008091C00086FFFCCF8091F2
:10F15000C00080648093C0004EE34093C60080915D
:10F16000C00086FFFCCF87C08EE09EEFA0E0B0E03D
:10F17000E822F9220A231B239CE0E91694E9F90608
:10F1800090E0090790E0190709F088C0C45DDE4FE0
:10F19000A881CC52D140EA2EFF2400E010E0102FCD
:10F1A0000F2DFE2CEE24C55DDE4FB881CB52D14031
:10F1B000EB0EF11C011D111DD601C501817090706F
:10F1C000A070B070DC0199278827E80EF91E0A1F8D
:10F1D0001B1F20EF30E040E050E0A222B322C42207
:10F1E000D52241E1AA0CBB1CCC1CDD1C4A95D1F7F1
:10F1F000EA0CFB1C0C1D1D1D81E090E0A0E0B0E0BE
:10F20000282239224A225B2235E1220C331C441C7D
:10F21000551C3A95D1F7E20CF31C041D151D57013E
:10F220006801AA0CBB1CCC1CDD1C85E192EE60E0E1
:10F230000F94C2F1C801AA27BB270F940DF2BB2778
:10F24000A12F902F8F2D0F940DF28E2D0F940DF274
:10F2500090E29093C6008091C00086FFFCCF809121
:10F26000C00080648093C000AEE3A093C60080918C
:10F27000C00086FFFCCF8091C00080648093C000F6
:10F28000C601AA27BB270F940DF2BB27AD2D9C2DDD
:10F290008B2D0F940DF28A2D0F940DF20F94DCF14B
:10F2A000CC5DDE4FE881F981C452D140F99709F471
:10F2B0004DCBF4E0EF2EF12C012D112D6E0C7F1CA7
:10F2C000801E911EF2CD83E093EE62E00F94F5F183
:10F2D0008AE192EE60E00F94C2F18091C00087FF56
:10F2E000FCCF1091C6001F751093C6008091C0001E
:10F2F00086FFFCCF8091C00080648093C0000F9493
:10F30000DCF1812F81548A3108F036C1163409F4BA
:10F3100095C0173490F4133409F44EC0143430F40B
:10F320001134F1F0123409F01DC130C0143409F465
:10F3300059C0153409F016C16BC01A3409F4C4C0A1
:10F340001B3438F4173409F48FC0183409F00AC19B
:10F35000A1C01B3409F4D2C01C3409F003C1E8C0B9
:10F360008FEF81B90DC082B1809582B980E090E0C5
:10F37000E0EDF7E03197F1F70196883C9105C1F790
:10F380008091C00087FFEFCF12B8EFC08FEF84B934
:10F390000DC085B1809585B980E090E0E0EDF7E0A3
:10F3A0003197F1F70196883C9105C1F78091C00033
:10F3B00087FFEFCF15B8D9C08FEF87B90DC088B1DF
:10F3C000809588B980E090E0E0EDF7E03197F1F7C3
:10F3D0000196883C9105C1F78091C00087FFEFCF6F
:10F3E00018B8C3C08FEF8AB90DC08BB180958BB9A7
:10F3F00080E090E0E0EDF7E03197F1F70196883C8E
:10F400009105C1F78091C00087FFEFCF1BB8ADC059
:10F410008FEF8DB90DC08EB180958EB980E090E0F0
:10F42000E0EDF7E03197F1F70196883C9105C1F7DF
:10F430008091C00087FFEFCF1EB897C08FEF80BBD1
:10F440000DC081B3809581BB80E090E0E0EDF7E0F6
:10F450003197F1F70196883C9105C1F78091C00082
:10F4600087FFEFCF11BA81C08FEF83BB0DC084B38C
:10F47000809584BB80E090E0E0EDF7E03197F1F714
:10F480000196883C9105C1F78091C00087FFEFCFBE
:10F4900014BA6BC08FEF809301010FC080910201FD
:10F4A00080958093020180E090E0E0EDF7E03197F5
:10F4B000F1F70196883C9105C1F78091C00087FF64
:10F4C000EDCF1092020151C08FEF809304010FC065
:10F4D0008091050180958093050180E090E0E0ED4A
:10F4E000F7E03197F1F70196883C9105C1F78091DB
:10F4F000C00087FFEDCF1092050137C08FEF8093DA
:10F5000007010FC08091080180958093080180E079
:10F5100090E0E0EDF7E03197F1F70196883C910536
:10F52000C1F78091C00087FFEDCF109208011DC088
:10F530008FEF80930A010FC080910B01809580931B
:10F540000B0180E090E0E0EDF7E03197F1F70196F4
:10F55000883C9105C1F78091C00087FFEDCF1092E4
:10F560000B0103C085E292EEEEC98091C00087FFD7
:10F57000FCCF8091C600EAC988E392EEE4C98CE131
:10F5800091EEE1C988249924933011F1943028F444
:10F59000913089F09230B8F408C0953061F195301F
:10F5A000F0F0963009F048C043C02B3109F042C951
:10F5B00091E06BE13FC96227C15DDE4F2883CF52E6
:10F5C000D14092E037C9B22FA0E0622793E032C960
:10F5D000822F90E0A82BB92B622794E02BC92E3004
:10F5E00009F039C3622795E0C05DDE4F19821882A9
:10F5F000C053D1401FC9E1E0F0E0EC0FFD1FC05D3A
:10F60000DE4F08811981C053D140E00FF11F2083E4
:10F610000F5F1F4FC05DDE4F19830883C053D14079
:10F6200062270A171B0709F005C9D80196E002C92D
:10F63000261709F010C303C0973009F0FBC87724E0
:10F640009981933109F412C19431C8F4963009F4C8
:10F65000D8C0973050F4923009F406C1933009F4C1
:10F660006DC0913009F059C253C0913109F477C08F
:10F67000923108F0BBC0903109F04FC2F5C098310B
:10F6800009F487C0993150F4953109F4EFC09531F0
:10F6900008F4C6C1963109F040C2C2C19A3109F4DA
:10F6A0006CC09A3108F491C09B3109F45BC09D3164
:10F6B00009F033C29D81903359F48F81882311F46E
:10F6C0009EE11CC0813011F091E018C098E916C08D
:10F6D000892F807591F0903539F4E0E0F0E089E011
:10F6E0008093570094910AC0983539F4E3E0F0E034
:10F6F00089E080935700949101C090E01A821B82A8
:10F700008D818C831D829E831F8227E030E009C299
:10F710001A8288E08B8381E48C8386E58D8382E581
:10F720008E8389E48F8383E5888780E589878FE5E9
:10F730008A8782E38B872BE030E0F3C18A818139AD
:10F7400041F0823941F0803911F48FE005C080E04A
:10F7500003C082E001C08AE01A828B8344C0772410
:10F76000739482C08D81882311F48EE12CC0813086
:10F7700011F081E028C088E926C01A82E1E0F0E0BB
:10F7800089E08093570084918B831C8224E030E0D1
:10F79000C8C18B81803589F48C81883039F4E2E0EE
:10F7A000F0E089E08093570084910DC0E0E0F0E044
:10F7B00089E080935700849106C0E3E0F0E089E09F
:10F7C0008093570084911A82DFCF8D81836C99E0FA
:10F7D000E1E0F0E0082E90935700E89507B600FCB2
:10F7E000FDCF1A821B8223E030E09BC180EC8A832C
:10F7F000CE5CDE4F188219821A821B82C253D1401E
:10F800008EC18A8190E0A0E0B0E0582F44273327D2
:10F8100022278B8190E0A0E0B0E0DC0199278827C7
:10F82000282B392B4A2B5B2B8D8190E0A0E0B0E098
:10F83000282B392B4A2B5B2B8C8190E0A0E0B0E089
:10F84000BA2FA92F982F8827282B392B4A2B5B2BCF
:10F85000220F331F441F551FC05EDE4F288339839C
:10F860004A835B83C052D1401A8259C13A81C95C34
:10F87000DE4F3883C753D140CA5CDE4F1882C6536F
:10F88000D1408B81C82EDD24CA5CDE4F488159816E
:10F89000C653D140C42AD52A933109F082C0CE5C28
:10F8A000DE4F88819981AA81BB81C253D1408050AB
:10F8B000904CA340B04030F583E0CE5CDE4FE88052
:10F8C000F9800A811B81C253D140F70100935B008C
:10F8D00080935700E89507B600FCFDCFCE5CDE4F65
:10F8E000088119812A813B81C253D14000501F4FAA
:10F8F0002F4F3F4FCE5CDE4F088319832A833B8313
:10F90000C253D140C05EDE4F488159816A817B81FC
:10F91000C052D140DE011B9631E08C9111962C91A2
:10F9200011971296C75CDE4F2883C953D140C85C3B
:10F93000DE4F1882C853D14090E0C85CDE4FE881AA
:10F94000F981C853D1408E2B9F2B0C01FA01609393
:10F950005B0030935700E89511244E5F5F4F6F4F67
:10F960007F4F0EEFE02E0FEFF02ECE0CDF1CC114F8
:10F97000D10499F685E0C05EDE4F088119812A81A5
:10F980003B81C052D140F80120935B008093570027
:10F99000E89507B600FCFDCF81E180935700E8951C
:10F9A00035C0C05EDE4F88819981AA81BB81C0527B
:10F9B000D140B695A795979587957C018601ABE0D8
:10F9C000AA2EB12CAC0EBD1E0BC0D5016D915D01F0
:10F9D000C7010F947FFE0894E11CF11C01501040F8
:10F9E0000115110591F7A60160E070E0440F551F65
:10F9F000661F771FC05EDE4FE880F9800A811B8199
:10FA0000C052D1404E0D5F1D601F711F1A82C05E33
:10FA1000DE4F488359836A837B83C052D1407FC0C5
:10FA2000FA80C55CDE4FF882CB53D140C65CDE4F16
:10FA30001882CA53D1408B81C82EDD24C65CDE4FAC
:10FA400008811981CA53D140C02AD12A1A828981DA
:10FA5000BE016D5F7F4F843121F59601C05EDE4FA0
:10FA6000E880F9800A811B81C052D1400BBFF701A9
:10FA700087919691DB018C9311969C936E5F7F4FDB
:10FA8000D801C7010296A11DB11DC05EDE4F88835B
:10FA90009983AA83BB83C052D14022503040F1F6F3
:10FAA00036C0C05EDE4F288139814A815B81C052F9
:10FAB000D1400894C108D108760100E010E0089414
:10FAC000C11CD11C0894E11CF11C011D111DE20E8A
:10FAD000F31E041F151F21BDBB27A52F942F832FB5
:10FAE00082BD2F5F3F4F4F4F5F4FF89A80B5DB01CC
:10FAF0008D93BD012E153F054007510761F7C05E8C
:10FB0000DE4F288339834A835B83C052D1409601FC
:10FB10002D5F3F4FFB01108204C080EC8A8322E0FE
:10FB200030E08BE18093C6008091C00086FFFCCF5F
:10FB30008091C00080648093C000C15DDE4FF88179
:10FB4000CF52D140F093C6008091C00086FFFCCF19
:10FB50008091C00080648093C000432F3093C60022
:10FB60008091C00086FFFCCF8091C00080648093AC
:10FB7000C000922F2093C6008091C00086FFFCCF6A
:10FB80008091C00080648093C0008EE08093C600A6
:10FB90008091C00086FFFCCF8091C000806480937C
:10FBA000C00065E1C15DDE4FE880CF52D1406E25D7
:10FBB00069276427FE01319610C090819093C6009A
:10FBC0008091C00086FFFCCF31968091C000806498
:10FBD0008093C0006927215030402115310569F715
:10FBE0006093C6008091C00086FFFCCF8091C0006A
:10FBF00080648093C00085B1805885B9772081F4F6
:10FC0000C15DDE4F0881CF52D1400F5FC15DDE4F35
:10FC10000883CF52D14090E0A0E0B0E00D941AF4F8
:10FC200027982F9880E090E020ED37E0F901319798
:10FC3000F1F7019684369105C9F700008091C00064
:10FC40008D7F8093C00081E180935700E895EE2777
:10FC5000FF270994FFCF90E00D941AF497FB092E2B
:10FC600007260AD077FD04D02ED006D000201AF443
:10FC7000709561957F4F0895F6F7909581959F4F08
:10FC80000895A1E21A2EAA1BBB1BFD010DC0AA1FDD
:10FC9000BB1FEE1FFF1FA217B307E407F50720F0F5
:10FCA000A21BB30BE40BF50B661F771F881F991F70
:10FCB0001A9469F760957095809590959B01AC01B9
:10FCC000BD01CF010895AA1BBB1B51E107C0AA1FAC
:10FCD000BB1FA617B70710F0A61BB70B881F991FED
:10FCE0005A95A9F780959095BC01CD010895F99991
:10FCF000FECF92BD81BDF89A992780B50895262F31
:10FD0000F999FECF1FBA92BD81BD20BD0FB6F89400
:0EFD1000FA9AF99A0FBE01960895F894FFCF63
:040000033000E000E9
:00000001FF