:100000003EC100000BC70000DEC60000B1C6000004
:1000100084C6000057C600002AC60000FDC50000C7
:10002000D0C500005DC100005BC1000059C10000E7
:100030000C944D0B55C1000053C1000051C100008C
:100040004FC100004DC100004BC1000049C100007C
:1000500047C1000045C1000043C1000068C5000061
:100060003FC1000079C400004EC4000039C1000047
:1000700037C1000035C1000033C1000031C10000AC
:100080002FC100002DC100002BC1000029C10000BC
:1000900027C1000025C1000023C1000021C10000CC
:1000A0001FC100001DC100001BC1000019C10000DC
:1000B00017C1000015C1000013C1000011C10000EC
:1000C0000FC100000DC100000BC1000009C10000FC
:1000D00007C1000005C1000003C1000001C100000C
:1000E000FFC000007E107E107E104B109F10AC10E1
:1000F0007E107E104B109F10110514050305070597
:100100000B054B0518051C05220526052A0530059B
:10011000340538054B053E054205460500000A0B2F
:1001200002090C0D0E080703040100000000000086
:1001300000000000000000000000000000000000BF
:10014000000000000000000012111000000000007C
:10015000000000000000000000000000000000009F
:10016000000000002200250028002B002E00310096
:10017000340002010000050108010B01000021000C
:10018000240027002A002D00300033000101000068
:10019000040107010A010505050507050808080807
:1001A000020202020A0A080804040404010101010F
:1001B000010101010303030303030303040707070A
:1001C0000C0C0C0C0C0C0C0C0202020206060606AF
:1001D000060606060B0B0B0B0B0B0B0B010210207C
:1001E000200808102040102040800201020108046D
:1001F0000201010204081020408080402010080401
:100200000201800402018040201008040201080459
:10021000020101020408102040800102040810209D
:1002200040808091AD02882309F10FB6F8940F92B7
:10023000E091ED02F091EE02C681D781CE010296E7
:100240000E944F0B80912203815080932203809162
:10025000AD0281508093AD020F900FBE8F89988DB3
:100260000E94930ECE010E94930EDBCF8091FA0282
:10027000823010F00E94110CE2D2D3CF75141124F9
:100280001FBECFEFD1E2DEBFCDBF00E00CBF24E048
:10029000A8EAB2E001C01D92AA36B207E1F712E067
:1002A000A0E0B2E0E6E6FCE200E00BBF02C007908F
:1002B0000D92A83AB107D9F711E0CFE3D1E000E001
:1002C00006C021970109802FFE010E94E814CE3359
:1002D000D10780E00807A9F70E94C6100C943116D8
:1002E0008FCEE091DD02F091DE028081811103C0AA
:1002F0008FEF9FEF0CC0E091DD02F091DE020580F0
:10030000F681E02D0680F781E02D82819381909324
:10031000AF028093AE0208958DE290D6887F19F4E3
:1003200081E090E002C08FEF9FEF9093AA0280934C
:10033000A902089508958EBD00000DB407FEFDCFFB
:100340008EB508958CBD9DBD0895CF93DF93CDB735
:10035000DEB7AA970FB6F894DEBF0FBECDBF88E018
:100360008AA78AE0882E912CA12CB12C6E0122E262
:10037000C20ED11C8091A9029091AA02019709F0A6
:100380008AC080E591E0DEDF60E080914E041AD300
:1003900080EAD1DF80E0CFDF182F61E080914E044A
:1003A00011D313FD02C020E001C024E015FF02C0FC
:1003B00098E001C090E0812F881F8827881F8295D0
:1003C000807F1370122B192B812B80FF0CC07601BC
:1003D0008E01065D1F4F2DE434E048E454E069E4EB
:1003E00074E080E90DC081FF6EC076018E01065D6C
:1003F0001F4F2DE434E048E454E069E474E084E9FC
:1004000070D568E272E083E293E006D72091490458
:1004100030914A0440914B0450914C0419A28E0132
:100420000F5D1F4FCA01B901A50194010E94C614B6
:10043000605DF80162938F01211531054105510579
:1004400089F7BF0183E293E0E7D665E672E083E2D5
:1004500093E0E2D686018AA590E098012C193D0927
:100460002817390774F4F80161918F01E091230393
:10047000F09124030190F081E02D83E293E019953F
:10048000EACF65E672E083E293E0C6D61092AA0254
:100490001092A9026FCF8091A9029091AA020196B1
:1004A00009F068CF83E492E0CCD60E943C0B60E078
:1004B00082E390E00E94220E0E94D60C81115ACF56
:1004C0000E94110C57CF1AA69CCF0F931F93CF9366
:1004D000109244041092450410924604109247046E
:1004E0001092020410920304109204041092050466
:1004F00068EB7BE080E090E05CD683E293E0909351
:10050000430480934204D5D52FB7F8948091D70245
:100510009091D802A091D902B091DA022FBF8093B6
:10052000020490930304A0930404B093050466E5C9
:1005300072E080914204909143046ED66AE070E0CC
:1005400080E090E036D681E080931604B2D568EE64
:1005500073E080E090E0B3D2CFB7F8948091A80226
:10056000811120C0EBECF1E08491E1E1F2E09491A3
:10057000E82FF0E0EE0FFF1FE458FE4FA591B49175
:10058000EC91E92319F461E085E31CD285E372D58F
:100590008CB580618CBD8CB580648CBD84E36AD5DC
:1005A00083E368D58091A8028F5F8093A802CFBFB4
:1005B00080E591E0C7DE60E080914E0403D280ECDC
:1005C000BADE61E080914E04FDD16AE070E080E027
:1005D00090E075D280E8C1D5882341F06AE070E0F0
:1005E00080E090E06CD288E692E03EC06AE070E085
:1005F00080E090E064D260E08AE2BFD560ED89E2FD
:10060000BCD562E888E2B9D56AE070E080E090E0AD
:1006100056D2C0E360E08C2FB0D560E080E18C0F53
:10062000ACD560E080E28C0FA8D5CF5FCE3391F7D8
:1006300060E080E6A2D560E080E79FD563E08BE2D2
:100640009CD544E064E680E65CD540E060E680E767
:1006500058D580E082D58111C1CF6AE070E080E09A
:1006600090E02DD283E792E0ECD58CE891E0909376
:1006700007028093060280916900837F88608093DF
:100680006900E99A00E010E021E040E951E062E908
:1006900072E085EA91E00E94E312CF911F910F91E1
:1006A0000895FC01538D448D252F30E0842F90E078
:1006B000821B930B541710F0CF960895019708955D
:1006C000FC01918D828D981761F0828DDF01A80F5A
:1006D000B11D5D968C91928D9F5F9F77928F90E078
:1006E00008958FEF9FEF0895FC01918D828D9817EB
:1006F00031F0828DE80FF11D858D90E008958FEF28
:100700009FEF0895FC01918D228D892F90E08058F4
:100710009F4F821B91098F779927089583E293E079
:10072000F1DF21E0892B09F420E0822F0895FC01FC
:10073000848DDF01A80FB11DA356BF4F2C91848D6E
:1007400090E001968F739927848FA689B7892C939F
:10075000A089B1898C9180648C93938D848D98133A
:1007600006C00288F389E02D80818F7D8083089503
:10077000EF92FF920F931F93CF93DF93EC0181E0F1
:10078000888F9B8D8C8D981305C0E889F9898081AD
:1007900085FD23C0F62E0B8D10E00F5F1F4F0F73EA
:1007A0001127E02E8C8DE8120BC00FB607FCFACF94
:1007B000E889F989808185FFF5CFCE01B8DFF2CFD6
:1007C0008B8DFE01E80FF11DE356FF4FF0820B8F7A
:1007D000EA89FB898081806207C0EE89FF89608396
:1007E000E889F98980818064808381E090E0DF91ED
:1007F000CF911F910F91FF90EF900895CF93DF93CA
:10080000EC01888D8823C1F0EA89FB89808185FD10
:1008100005C0A889B9898C9186FD0EC00FB607FC6A
:10082000F5CF808185FFF2CFA889B9898C9185FFAA
:10083000EDCFCE017CDFE8CFDF91CF91089580E04E
:1008400090E0892B19F06ADF811125C080E090E0EB
:10085000892B41F080E090E0892B21F00E9400007C
:1008600081111CC080E090E0892B41F080E090E095
:10087000892B21F00E940000811113C080E090E0DC
:10088000892BA1F080E090E0892B81F00E9400008C
:1008900081110AC008950E940000D8CF0E94000074
:1008A000E1CF0E940000EACF0C94000008953FB70A
:1008B000F8948091B3029091B402A091B502B091E6
:1008C000B60226B5A89B05C02F3F19F00196A11DC1
:1008D000B11D3FBFBA2FA92F982F8827820F911DD6
:1008E000A11DB11DBC01CD0142E0660F771F881F1D
:1008F000991F4A95D1F708950895089580E090E0F2
:1009000008950E941D161F920F920FB60F92112488
:100910000BB60F922F933F934F935F936F937F93F9
:100920008F939F93AF93BF93EF93FF9383E293E0F3
:10093000FEDEFF91EF91BF91AF919F918F917F91DB
:100940006F915F914F913F912F910F900BBE0F9040
:100950000FBE0F901F9018951F920F920FB60F9217
:1009600011240BB60F922F938F939F93EF93FF93C6
:10097000E0913303F09134038081E0913903F091E9
:100980003A0382FD12C0908180913C038F5F8F7784
:1009900020913D03821751F0E0913C03F0E0ED5DC2
:1009A000FC4F958F80933C0301C08081FF91EF91B4
:1009B0009F918F912F910F900BBE0F900FBE0F90B4
:1009C0001F901895362F90E0FC01E45EFE4F449195
:1009D000FC01E452FE4F2491FC01EA56FE4F949133
:1009E000992309F46BC0442309F455C050E0FA017F
:1009F0003197E231F10508F04EC08827E458FF4FE7
:100A00008F4F0C94E814809180008F7707C08091FD
:100A100080008F7D03C080918000877F809380005D
:100A20003AC084B58F7702C084B58F7D84BD33C052
:100A30008091B0008F7703C08091B0008F7D80934C
:100A4000B00029C0809190008F7707C080919000FE
:100A50008F7D03C080919000877F809390001BC0A2
:100A60008091A0008F7707C08091A0008F7D03C088
:100A70008091A000877F8093A0000DC0809120010D
:100A80008F7707C0809120018F7D03C08091200166
:100A9000877F80932001E92FF0E0EE0FFF1FEE59D2
:100AA000FE4FA591B4918FB7F894EC91311103C02A
:100AB00020952E2301C02E2B2C938FBF08958F924B
:100AC0009F92AF92BF92CF92DF92EF92FF926B0113
:100AD0007C01EDDE4B015C01C114D104E104F104A1
:100AE000E9F0E5DEDC01CB0188199909AA09BB0907
:100AF000883E9340A105B10578F321E0C21AD108E0
:100B0000E108F10888EE880E83E0981EA11CB11C54
:100B1000C114D104E104F10421F7DECFFF90EF907E
:100B2000DF90CF90BF90AF909F908F9008951F92CD
:100B30000F920FB60F9211242F933F938F939F9391
:100B4000AF93BF938091D7029091D802A091D90220
:100B5000B091DA023091B20223E0230F2D3720F456
:100B60000196A11DB11D05C026E8230F0296A11D07
:100B7000B11D2093B2028093D7029093D802A09324
:100B8000D902B093DA028091B3029091B402A0919D
:100B9000B502B091B6020196A11DB11D8093B302BA
:100BA0009093B402A093B502B093B602BF91AF91F7
:100BB0009F918F913F912F910F900FBE0F901F909B
:100BC00018951F920F920FB60F9211240BB60F9229
:100BD0002F933F934F935F936F937F938F939F9345
:100BE000AF93BF93EF93FF93E0910E02F0910F024A
:100BF0001995FF91EF91BF91AF919F918F917F9147
:100C00006F915F914F913F912F910F900BBE0F907D
:100C10000FBE0F901F9018951F920F920FB60F9254
:100C200011240BB60F922F933F934F935F936F93C3
:100C30007F938F939F93AF93BF93EF93FF93E09135
:100C40000C02F0910D021995FF91EF91BF91AF91B8
:100C50009F918F917F916F915F914F913F912F91D4
:100C60000F900BBE0F900FBE0F901F9018951F9204
:100C70000F920FB60F9211240BB60F922F933F9342
:100C80004F935F936F937F938F939F93AF93BF9394
:100C9000EF93FF93E0910202F09103021995FF9107
:100CA000EF91BF91AF919F918F917F916F915F91E4
:100CB0004F913F912F910F900BBE0F900FBE0F9051
:100CC0001F9018951F920F920FB60F9211240BB61A
:100CD0000F922F933F934F935F936F937F938F93D5
:100CE0009F93AF93BF93EF93FF93E0910002F09136
:100CF00001021995FF91EF91BF91AF919F918F9153
:100D00007F916F915F914F913F912F910F900BBE0B
:100D10000F900FBE0F901F9018951F920F920FB655
:100D20000F9211240BB60F922F933F934F935F9323
:100D30006F937F938F939F93AF93BF93EF93FF93A3
:100D4000E0910A02F0910B021995FF91EF91BF918A
:100D5000AF919F918F917F916F915F914F913F9153
:100D60002F910F900BBE0F900FBE0F901F901895F4
:100D70001F920F920FB60F9211240BB60F922F9362
:100D80003F934F935F936F937F938F939F93AF9313
:100D9000BF93EF93FF93E0910802F0910902199538
:100DA000FF91EF91BF91AF919F918F917F916F9143
:100DB0005F914F913F912F910F900BBE0F900FBEFF
:100DC0000F901F9018951F920F920FB60F9211243B
:100DD0000BB60F922F933F934F935F936F937F9335
:100DE0008F939F93AF93BF93EF93FF93E09106028E
:100DF000F09107021995FF91EF91BF91AF919F91EB
:100E00008F917F916F915F914F913F912F910F90B3
:100E10000BBE0F900FBE0F901F9018951F920F9250
:100E20000FB60F9211240BB60F922F933F934F934F
:100E30005F936F937F938F939F93AF93BF93EF9342
:100E4000FF93E0910402F09105021995FF91EF9153
:100E5000BF91AF919F918F917F916F915F914F91D2
:100E60003F912F910F900BBE0F900FBE0F901F90D0
:100E70001895279A2F9A2FEF80E792E02150804013
:100E80009040E1F700C000001F9AF5CFCF92DF92AB
:100E9000EF92FF920F931F93CF93DF936C017A0130
:100EA0008B01C0E0D0E0CE15DF0589F0D8016D914F
:100EB0008D01D601ED91FC910190F081E02DC601EC
:100EC0001995892B11F47E0102C02196ECCFC70140
:100ED000DF91CF911F910F91FF90EF90DF90CF9016
:100EE00008955F926F927F928F929F92AF92BF927E
:100EF000CF92DF92EF92FF920F931F93CF93DF93E6
:100F000000D01F92CDB7DEB7782E6B015A01490190
:100F100060E080914E0456DD872D0DDACE010196FA
:100F20003C01E4E05E2E580E80E005DAF301819387
:100F30003F015E12F9CF2C8123FB882780F9F40151
:100F400080833A814981832F90E075E0959587955C
:100F50007A95E1F7F8E04F9F800D911D1124092E3D
:100F6000000CAA0BBB0BF60180839183A283B38391
:100F700033FF38C080819181A281B38142E0880F24
:100F8000991FAA1FBB1F4A95D1F73370830F911D7C
:100F9000A11DB11D80839183A283B3838081918140
:100FA000A281B381BA2FA92F982F88273B81830F65
:100FB000911DA11DB11D80839183A283B383808184
:100FC0009181A281B381BA2FA92F982F8827820FF0
:100FD000911DA11DB11D80839183A283B38381E004
:100FE000F501808380E0A7D98F70F80180836701C5
:100FF000F12CF8018081F81650F4F8E0FF1639F072
:1010000080E099D9F60181936F01F394F2CF61E00A
:1010100080914E040F900F900F900F90DF91CF9121
:101020001F910F91FF90EF90DF90CF90BF90AF9006
:101030009F908F907F906F905F90C4CC1F93CF93C1
:10104000DF93182F80E591E07DD9C8E4D4E060E01B
:101050008E81B8DC83E06FD9812F6DD980E06BD9A8
:10106000182F61E08E81AEDC65D9812FDF91CF91A1
:101070001F91089590E0FC01E452FE4F2491FC0181
:10108000EA56FE4F8491882399F090E0880F991FCB
:10109000FC01E458FE4FA591B491FC01EE59FE4FBE
:1010A000859194918FB7F894EC91E22BEC938FBFDC
:1010B0000895E3E2F3E0A089B18982E08C93A485EE
:1010C000B5851C92A685B7858FEC8C93108EA4896C
:1010D000B58986E08C93A289B3898C9180618C93C9
:1010E000A289B3898C9188608C93A289B3898C91F1
:1010F00080688C930288F389E02D80818F7D8083C6
:101100000895EF92FF920F931F93CF93DF931F9257
:10111000CDB7DEB7082F162F80E591E0498312D9AD
:1011200088E4E82E84E0F82E60E0F70186814ADC4E
:1011300085E001D9802FFFD8812FFDD84981842FE8
:10114000FAD861E0F70186813DDC0F90DF91CF9105
:101150001F910F91FF90EF90EDC8CF93C82F482FAC
:1011600060EE8FE0CEDF8FE069DF807E91E08C1350
:1011700001C090E0892FCF9108950F931F93CF93D3
:10118000DF93082F162F80E591E0DCD8C8E4D4E087
:1011900060E08E8117DC82E0CED8802FCCD8812F02
:1011A000CAD861E08E810EDCDF91CF911F910F9143
:1011B000C1C8CF92DF92EF92FF920F931F932FB788
:1011C000F894C090D702D090D802E090D902F09065
:1011D000DA022FBFDC01CB018C0D9D1DAE1DBF1DA2
:1011E0004FB7F8940091D7021091D8022091D902FC
:1011F0003091DA024FBF0C151D052E053F0528F072
:1012000080179107A207B30758F71F910F91FF901E
:10121000EF90DF90CF9008956115710579F0FB0193
:1012200001900020E9F73197AF01461B570BDC0115
:10123000ED91FC910280F381E02D199480E090E023
:101240000895CF93DF93BC0183E293E0E5DFEC01E7
:1012500065E672E083E293E0DFDF8C0F9D1FDF9194
:10126000CF9108950F920FB6F8940F920BB60F928C
:101270000CB60F921F9211242F923F924F925F92C1
:101280006F927F928F929F92AF92BF92CF92DF9296
:10129000EF92FF920F931F932F933F934F935F9380
:1012A0006F937F938F939F93AF93BF93CF93DF936E
:1012B000EF93FF93A0912003B09121030DB60D92FF
:1012C0000EB60D9213BE8091D1028111F3C08091B0
:1012D000D4029091D50201969093D5028093D402C6
:1012E000009799F52091DD023091DE024091DB02FA
:1012F0005091DC025093DE024093DD023093DC0219
:101300002093DB022091D6022F5F2093D602E0913A
:10131000DD02F091DE022081211107C02FEF3FEFA7
:101320003093AF022093AE0210C0E091DD02F09145
:10133000DE020580F681E02D0680F781E02D228116
:1013400033813093AF022093AE022091AE023091F0
:10135000AF028217930710F420E09CC020E019E050
:10136000E091DD02F091DE023081311107C08FEF94
:101370009FEF9093AF028093AE028CC0E091DD02AC
:10138000F091DE020580F681E02D0680F781E02DE8
:10139000428153818417950728F45093AF024093FC
:1013A000AE0278C0AF014E5F5F4FA285B385648106
:1013B0007581E680F780EB01FD82EC82C681D781E2
:1013C0007B836A8311966D917C91129764177507E0
:1013D00021F41296DC93CE931197138612863C91DA
:1013E00031503C933C91A489B5891097F9F06685FA
:1013F0007785E088F188EB01FD82EC82C089D18994
:101400007B836A831196ED90FC901297BF01645F15
:101410007F4FE616F70621F41296DC93CE931197D0
:10142000158A148A3C9131503C933C91A6893091A5
:101430001E033A1710F4A0931E031A9FD001112423
:10144000BD0166507D4F7B01DB011196CD91DC9192
:101450001297D583C4836C817D81778366836C8189
:101460007D81DB0113965C934E9312975D834C83D1
:10147000F386E286E70138813F5F3883A09120033D
:10148000B0912103468956963C91431708F468CFE2
:1014900021E066CFE0912003F0912103E689D9E0B5
:1014A000ED9FF0011124E650FD4F8081823040F025
:1014B00021E006C08091AB028F5F8093AB0220E0F9
:1014C0008091AC02811103C0222309F466C080918F
:1014D000D102882321F081E08093AC025EC010929B
:1014E000AC02A0912003B0912103E0912003F09180
:1014F00021032D913C918789908D82179307A8F045
:1015000080912003909121038091200390912103E9
:10151000279A2F9A2FEF67EA71E6215060407040BA
:10152000E1F700C000001F9AF5CF80911E0369E02B
:1015300001C08150482F50E0649F9001659F300D9D
:101540001124F901E650FD4F9081992391F3A18177
:10155000B28112960D90BC91A02DB283A18323502D
:101560003D4FA217B30731F412962D913C9113977A
:101570003283218399E0949FF001959FF00D11240F
:10158000E650FD4F0180F281E02D268137813093B6
:1015900021032093200380931E03A0912003B09188
:1015A0002103CD91CDBFDD91DEBFFF91EF91DF91A2
:1015B000CF91BF91AF919F918F917F916F915F91EB
:1015C0004F913F912F911F910F91FF90EF90DF90DE
:1015D000CF90BF90AF909F908F907F906F905F90D3
:1015E0004F903F902F901F900F900CBE0F900BBE0E
:1015F0000F900FBE0F900895FC01DB010FB6F89419
:101600000F924091D4025091D502818192812D9107
:101610003C9111972F3F6FEF3607F1F07091D60292
:101620006081761719F048175907C0F4481B590B09
:101630004217530770F4241B350B2D933C93809174
:10164000D60280838091D4029091D50292838183C7
:1016500003C01D921C9202C080E001C081E00F9087
:101660000FBE08950FB6F8940F928091D402909116
:10167000D5020F900FBE08958091D1028F5F8093A5
:10168000D10208950FB6F8940F92FC01928D0F903D
:101690000FBE81E0911180E00895E4DD1895CF93AD
:1016A000DF93FC01A085B1858281938124813581FE
:1016B000EC013D832C83C481D5819B838A83119661
:1016C0008D919C9112978E179F0721F41296DC93AF
:1016D000CE931197118610868C9181508C938C91AA
:1016E000DF91CF910895CF93DF939C01FB01DC0143
:1016F0001196CD91DC911297D383C2838C819D8109
:10170000958384838C819D81DC0113967C936E93F9
:1017100012977D836C8331872087F90180818F5FE9
:101720008083DF91CF9108950F931F93CF93DF9321
:10173000DC011596ED91FC911697C681D7818E013B
:10174000045F1F4FC801ABDF8091D102811113C02C
:101750000A501109C801A3DF9E8980911E038917D1
:1017600010F490931E03B9E09B9FC0011124B801AF
:1017700086509D4F03C0B80181EF92E0B4DFE09145
:101780002003F09121039E898689891720F481E046
:101790008093AC0201C080E0DF91CF911F910F9147
:1017A0000895EF92FF920F931F93CF93DF93EC0175
:1017B0000FB6F8940F921E8D7C0181E1E80EF11CAA
:1017C00001E0111654F48989882339F0C701ACDF90
:1017D00081110093AC021150F4CF8FEF8E8F0F90D8
:1017E0000FBE0FB6F8940F921D8D7E0188E0E80EB3
:1017F000F11C01E0111654F48885882339F0C701E3
:1018000093DF81110093AC021150F4CF8FEF8D8FD5
:101810000F900FBEDF91CF911F910F91FF90EF902E
:1018200008950F920FB6F8940F920BB60F920CB664
:101830000F921F9211242F923F924F925F926F92BC
:101840007F928F929F92AF92BF92CF92DF92EF9250
:10185000FF920F931F932F933F934F935F936F9339
:101860007F938F939F93AF93BF93CF93DF93EF9328
:10187000FF93A0912003B09121030DB60D920EB6F7
:101880000D928091D102882321F081E08093AC02F7
:101890005EC01092AC02A0912003B0912103E091B0
:1018A0002003F09121032D913C918789908D82171F
:1018B0009307A8F080912003909121038091200349
:1018C00090912103279A2F9A2FEF87EA91E62150D2
:1018D00080409040E1F700C000001F9AF5CF809152
:1018E0001E0369E001C08150482F50E0649F9001C1
:1018F000659F300D1124F901E650FD4F9081992329
:1019000091F3A181B28112960D90BC91A02DB2836A
:10191000A18323503D4FA217B30731F412962D91A6
:101920003C9113973283218399E0949FF001959F16
:10193000F00D1124E650FD4F0180F281E02D26814B
:101940003781309321032093200380931E03A091BD
:101950002003B0912103CD91CDBFDD91DEBFFF917A
:10196000EF91DF91CF91BF91AF919F918F917F9137
:101970006F915F914F913F912F911F910F91FF9028
:10198000EF90DF90CF90BF90AF909F908F907F901F
:101990006F905F904F903F902F901F900F900CBED4
:1019A0000F900BBE0F900FBE0F9008958F929F92D5
:1019B000AF92BF92CF92DF92EF92FF920F931F935D
:1019C000CF93DF930FB6F8940F928091D10281509C
:1019D0008093D1028091D102882311F080E0EBC086
:1019E000809122038823D1F3C0E0D0E029E0F22ED9
:1019F000EE24E3948091F102882339F1E091F6021C
:101A0000F091F702C681D781CE010C9648DE8E0197
:101A10000E5F1F4FC80143DE9E8980911E03891708
:101A200010F490931E03F99EC0011124B801865052
:101A30009D4F59DEE0912003F09121039E89868914
:101A40009817C0F2E092AC02D5CFCD2B11F00E94D6
:101A50007101E090AB02EE2009F4A6C089E0B82E37
:101A6000AA24A394CC24CA94DC2C8091D1028111A5
:101A700089C0C091D402D091D5022196D093D502CD
:101A8000C093D4022097B9F48091DD029091DE02D8
:101A90002091DB023091DC023093DE022093DD02E4
:101AA0009093DC028093DB028091D6028F5F80935B
:101AB000D6020E9471018091AE029091AF02F12C8A
:101AC000C817D90708F44EC0E091DD02F091DE029C
:101AD0008081811105C0D092AF02C092AE0242C097
:101AE000E091DD02F091DE020580F681E02D0681B5
:101AF0001781D80112968D919C911397C817D90719
:101B000028F49093AF028093AE022CC04801B2E05B
:101B10008B0E911CC401C3DDF80184899589892B42
:101B200019F0C8010C96BBDDD80156968C919091A6
:101B30001E03981710F480931E03B89EC001112451
:101B4000B40186509D4FCFDDE0912003F091210339
:101B5000D80156969C918689981708F4B5CFFF2432
:101B6000F394B2CFE0912003F0912103E689BE9E69
:101B7000F0011124E650FD4F8081823048F0FF24AF
:101B8000F39406C08091AB028F5F8093AB02F12C7F
:101B90008091AC02811101C0F110A092AC02EA94D4
:101BA000E11063CF1092AB028091AC02882309F45C
:101BB00015CF37DE81E00F900FBEDF91CF911F91DF
:101BC0000F91FF90EF90DF90CF90BF90AF909F90DC
:101BD0008F9008950F931F93CF93DF938C01FB0198
:101BE000808191818F3F2FEF920721F4E801AF812F
:101BF000B8850EC0D801139612962D913C9113977B
:101C0000E901488159818417950710F0D901F4CF73
:101C100012968D919C91139793838283EC01FD839F
:101C2000EC83B583A4831396FC93EE9312971187EC
:101C30000087F80180818F5F8083DF91CF911F91B2
:101C40000F910895EF92FF920F931F93CF93DF931D
:101C50001F92CDB7DEB77C010091D4021091D5025E
:101C600080912003909121030296698318DD698198
:101C70008FEFE816F80691F4662381F06091200357
:101C8000709121036E5F7F4F8FED92E00F90DF9197
:101C9000CF911F910F91FF90EF9025CDE00EF11E97
:101CA000E0912003F0912103F382E282609120030E
:101CB00070912103E016F10670F48091DB0290919F
:101CC000DC026E5F7F4F0F90DF91CF911F910F91DC
:101CD000FF90EF907FCF8091DD029091DE026E5FEA
:101CE0007F4F78DF8091AE029091AF02E816F9063F
:101CF00020F4F092AF02E092AE020F90DF91CF910C
:101D00001F910F91FF90EF900895FC01039692832D
:101D100081832FEF3FEF34832383968385839087DE
:101D2000878310820895CF93DF93009739F0EC01F9
:101D3000A3DCCE01EAD6DF91CF9138CEDF91CF91EF
:101D400008950F931F93CF93DF931F921F92CDB7E8
:101D5000DEB789839A8390DC89819A8141D68C0190
:101D600025DE0115110509F484D8C8010F900F90E4
:101D7000DF91CF911F910F910895FC0173836283CE
:101D8000918780874617570778F0421B530B84854D
:101D9000958548175907C0F4BF016E5F7F4F80914A
:101DA000B7029091B8020DC04217530718F462179A
:101DB000730750F4BF016E5F7F4F8091B90290911D
:101DC000BA0208DF80E0089581E00895EF92FF9263
:101DD0000F931F93CF93DF93E091B902F091BA0272
:101DE0008081882351F10580F681E02D00811181E9
:101DF000C681D7817E0182E0E80EF11CC7014FDC6D
:101E0000E989FA89CE0119958E85813029F72C85CB
:101E10003D85200F311F0217130758F43B832A8397
:101E2000D987C887B7018091B9029091BA02D2DEF2
:101E3000D3CFB801CE0131D5CFCF8091B7029091E9
:101E4000B8029093BA028093B902F093B802E0937B
:101E5000B702DF91CF911F910F91FF90EF900895FE
:101E6000CF93DF93CDB7DEB72C970FB6F894DEBFD4
:101E70000FBECDBFE091B902F091BA028081FF247C
:101E8000F394882339F0F12C0580F681E02D008150
:101E9000118102C000E010E0EFDBE4DB6C01809117
:101EA000B0029091B102C816D90618F48FDF81E014
:101EB00001C080E0D092B102C092B00281116CC02A
:101EC000F1102DC0C016D10690F170DDE091B9027D
:101ED000F091BA020580F681E02DE680F780C70117
:101EE0000296DDDBD7011E968C911E97813079F426
:101EF0001C966D917C911D97600F711F9801A60132
:101F0000C7013BDF882319F0B801C701C6D4D70148
:101F10005196ED91FC915297C7011995BCC0E09183
:101F2000B702F091B8028081BB24B3948111B12C27
:101F3000E090D202F090D3020FB6F8940F92F7011E
:101F4000858D8F3F09F4158ED7015E968C915E9733
:101F50008F3F11F45E961C920F900FBEF701828D99
:101F6000811113C06091200370912103645F7F4F42
:101F7000C7014196B8DBB11004C0C8018C199D0996
:101F800002C08FEF9FEF6B2D5DDEC7010ADC0EDD17
:101F9000811181C046DC7FC009DD7DC0911109C07F
:101FA0008091D6028E838091D4029091D502988739
:101FB0008F830F900FBE60DB0FB6F8940F92D8019D
:101FC0005D968C915D978F3F11F45D961C92F801A0
:101FD000868D8F3F09F4168E0F900FBEBE01675F8E
:101FE0007F4FCE01069608DB8111C7C0C8014ADBCE
:101FF000882309F4BEC0E984FA84609120037091BB
:102000002103645F7F4FC601E5DD61E0C7011ADE91
:10201000C801C7DBCBDC882309F4A9C091E00FB667
:10202000F8940F92F801F28CFF2009F498C0448DC7
:1020300041113DC0FA94F801F28E8085811150C0A3
:102040000F900FBEF980F7FC26C00C811D81D801CE
:102050001A968D919C911B97892B19F0C8010296B5
:102060001EDB00DBAC018091B0029091B1024817F9
:10207000590728F44B875C87A9DE5C854B85509314
:10208000B1024093B0028F2DFF0C990BAA0BBB0B32
:102090008A30910568F10091D2021091D3021A861C
:1020A000198690E06801B1E1CB0ED11CB8CF50E0A9
:1020B00086819781840F951F978386832281338140
:1020C0008217930720F08081918197838683D801BE
:1020D00016966D917C911797CE010196B2D5AACF35
:1020E000C801089621DB882309F4AACF9ADBA8CF80
:1020F000FC018827EE58FF4F8F4F6AC4EA80FB80AF
:10210000F801648575856E0D7F1D9701C80135DE68
:10211000882309F4C0CFD8015196ED91FC915297D4
:10212000C8011995F8018685813009F0B4CF8485FE
:102130009585B701680F791FC801AFD3ACCF6A810D
:102140007B81D8011D967C936E931C97640F751F3D
:102150009A01C80112DE9FCFC801E5DD9CCF298519
:102160003A85232B09F01ACF0F900FBE83CE59DB8F
:1021700055CFC80116DB1ADC51CFC80112DB16DCC3
:10218000C80180DA882309F449CF74CE789484B5E5
:10219000826084BD84B5816084BD85B5826085BD63
:1021A00085B5816085BD80916E00816080936E00F1
:1021B00010928100809181008260809381008091E3
:1021C0008100816080938100809180008160809394
:1021D00080008091B10084608093B1008091B00054
:1021E00081608093B0008091910082608093910023
:1021F0008091910081608093910080919000816036
:10220000809390008091A10082608093A1008091D2
:10221000A10081608093A1008091A00081608093E3
:10222000A000809121018260809321018091210191
:102230008160809321018091200181608093200141
:1022400080917A00846080937A0080917A00826025
:1022500080937A0080917A00816080937A008091E7
:102260007A00806880937A001092C1000E94650213
:102270000FEC12E020E040EC50E06AE972E081E10E
:1022800091E0A1D1813009F0AEC00FB6F8940F9261
:102290008091D2029091D302892B09F046C084EC40
:1022A00092E033DD8BEB92E030DD84EC92E09093B2
:1022B000BA028093B9028BEB92E09093B8028093BC
:1022C000B70281E590E03DDDEC01009751F14F96BA
:1022D000998388838AE08B8F85E08C8F0FB6F89482
:1022E0000F92288139819B8D4C8D949FC0011124C0
:1022F000B901680F791F7B836A831A8E3D832C8313
:10230000841B9109820F931F9F838E838FEF8D8F84
:102310008E8FCE010896F9DCCE014196F6DC0F9047
:102320000FBED093D302C093D2020F900FBE809104
:10233000D2029091D302892B09F455C00DEC12E022
:1023400023E045E550E06FE972E080E39FE03BD198
:10235000813009F048C0F8942FEF3FEF3093AF027F
:102360002093AE0280931F031092D5021092D402E4
:10237000A89520EC88E190E00FB6F894A89580939A
:1023800060000FBE20936000A0912003B091210354
:10239000CD91CDBFDD91DEBFFF91EF91DF91CF9168
:1023A000BF91AF919F918F917F916F915F914F916D
:1023B0003F912F911F910F91FF90EF90DF90CF9061
:1023C000BF90AF909F908F907F906F905F904F9055
:1023D0003F902F901F900F900CBE0F900BBE0F9050
:1023E0000FBE0F9008950E943907AF92BF92CF920F
:1023F000DF92EF92FF920F931F93CF93DF9300D062
:102400001F921F92CDB7DEB78C017B011D821C820B
:1024100090E0580188E0A80EB11C0FB6F8940F9216
:10242000F801228D838D281708F068C0D28C448D66
:1024300041113DC080819181892B09F04FC0F80185
:10244000E280F380E114F10411F480E02CC0F70184
:1024500082A1815082A3268991A12917B1F381110C
:10246000F4CF5701F2E0AF0EB11CC50118D9F70146
:1024700091A1968B492F50E024E030E0241B350BCE
:102480003587248780911E03891710F490931E03CB
:1024900029E0249FC001259F900D1124B50186508D
:1024A0009D4F21D981E0F8011382128218C050E0BB
:1024B000B701F80184819581C4D3F801248D84810A
:1024C0009581820F911D95838483228133818217A8
:1024D000930720F0808191819583848380E0D39459
:1024E000F801D28E9189992319F0C80141961CD91F
:1024F000811197D90F900FBE81E055C02C813D818D
:10250000232B19F40F900FBE4DC0911109C080917B
:10251000D60289838091D4029091D5029B838A83CD
:102520000F900FBEA9D80FB6F8940F92F801858DC1
:102530008F3F09F4158EF801868D8F3F09F4168EB2
:102540000F900FBEBE016C5F7F4FCE01019654D835
:10255000811125C00FB6F8940F92F801928D838DEA
:102560000F900FBE981317C0CC80DD802091200300
:1025700030912103B901645F7F4FC5012BDB61E01E
:10258000C60160DBC8010DD911DA882311F091E092
:1025900044CF47D9FCCFC80104D908DAF8CFC80125
:1025A00000D904DA80E00F900F900F900F900F90F9
:1025B000DF91CF911F910F91FF90EF90DF90CF901F
:1025C000BF90AF9008957F928F929F92AF92BF92EB
:1025D000CF92DF92EF92FF920F931F93CF93DF93EF
:1025E000982EC92E762E872EEA01D22ECA01A9DB9B
:1025F0005C01892B09F442C188E290E0A2DB7C01F6
:102600000097D1F0DC015896BC92AE925797AE017C
:1026100065EA70E0C5011ED32197D7015796ED9169
:10262000FC915897EC0FFD1FB701675E7F4FA72DF8
:10263000B82DCD01089606C0C50175DB1FC1A817CE
:10264000B90749F09D014D91EB014993BE01E901A4
:1026500028812111F4CFD70190961C922D2D243082
:1026600008F023E0E7012E8B29A31AA21B861A8605
:102670001D8A1C8AF986E88684E090E0821B910915
:102680009D878C87FB8AEA8A1BA21CA21DA21EA220
:102690001FA291E19083DF01119782E28C93119741
:1026A00023E32C9311979C921197CC9211971C9233
:1026B00011971C92119720E82C9311971C92119757
:1026C0001C9211971C92119722E02C93119723E0F2
:1026D0002C93119724E02C93119725E02C931197BC
:1026E00026E02C93119727E02C93119728E02C9348
:1026F000119729E02C93119720E12C9311979C932B
:10270000119792E19C93119793E19C93119794E117
:102710009C93119795E19C93119796E19C93119747
:1027200097E19C93119798E19C93119799E19C9361
:10273000119790E29C93119791E29C9311978C933F
:10274000119783E28C9311971C9211971C92119709
:1027500086E28C93119787E28C93119788E28C9391
:10276000119789E28C93119780E38C93119781E301
:102770008C93B997F983E8830115110519F0F801D5
:10278000F182E0820FB6F8940F92809122038F5F5E
:10279000809322038091200390912103892B89F556
:1027A000F0922103E092200380912203813009F00E
:1027B0003AC08AEF92E0A9DA83E093E0A6DA8CE0EF
:1027C00093E0A3DA85E193E0A0DA8BE594E09DDA6B
:1027D00082E594E09ADA81EF92E097DA88EE92E06F
:1027E00094DA8FED92E091DA8BE594E09093DE023B
:1027F0008093DD0282E594E09093DC028093DB021B
:1028000012C080911F0381110EC0E0912003F0914E
:1028100021039689D70156968C91891720F0F09262
:102820002103E0922003809164048F5F809364040D
:10283000E7018E8990911E03981710F480931E0370
:10284000D9E08D9FC0011124B7016E5F7F4F865084
:102850009D4F0E94730B0F900FBE80911F03882322
:1028600059F0E0912003F09121039689F7018689C0
:10287000981710F40E94110C81E001C08FEFDF91D6
:10288000CF911F910F91FF90EF90DF90CF90BF906D
:10289000AF909F908F907F900895CF93DF9300D05B
:1028A0001F921F92CDB7DEB79C018091D20290910A
:1028B000D302009761F019827B836A833D832C8366
:1028C00020911F03222329F02091D10202C080E031
:1028D00004C0BE016F5F7F4F88DD0F900F900F9097
:1028E0000F900F90DF91CF910895CF93DF93E3E2A4
:1028F000F3E01382128288EE93E0A0E0B0E08483DC
:102900009583A683B7838AE192E09183808385ECE7
:1029100090E09587848784EC90E09787868780ECA9
:1029200090E0918B808B81EC90E0938B828B82EC9A
:1029300090E0958B848B86EC90E0978B868B118E44
:10294000128E138E148EE0E0F4E016821782108649
:102950001186128613861486158616861786108AA7
:10296000118A128A138A148A158AC8E4D4E0198657
:1029700085E694E098878F8387E08E830E943A08EB
:1029800061E08E81DF91CF910C94E204A1E21A2ED6
:10299000AA1BBB1BFD010DC0AA1FBB1FEE1FFF1F03
:1029A000A217B307E407F50720F0A21BB30BE40B53
:1029B000F50B661F771F881F991F1A9469F760959A
:1029C0007095809590959B01AC01BD01CF01089554
:1029D000EE0FFF1F881F8BBF0790F691E02D199413
:1029E000CF93DF938230910510F482E090E0E09184
:1029F0006804F091690420E030E0C0E0D0E0309756
:102A000011F14081518148175907C0F04817590703
:102A100061F482819381209719F09B838A832BC074
:102A2000909369048093680426C02115310519F03C
:102A30004217530718F49A01BE01DF01EF0102802B
:102A4000F381E02DDCCF2115310509F1281B390B6D
:102A50002430310590F412968D919C911397611555
:102A6000710521F0FB019383828304C09093690474
:102A700080936804FD01329644C0FD01E20FF31F0C
:102A800081939193225031092D933C933AC0209128
:102A9000660430916704232B41F420911202309197
:102AA0001302309367042093660420911002309142
:102AB00011022115310541F42DB73EB740911402A2
:102AC00050911502241B350BE0916604F0916704C8
:102AD000E217F307A0F42E1B3F0B2817390778F0F5
:102AE000AC014E5F5F4F2417350748F04E0F5F1F54
:102AF00050936704409366048193919302C0E0E091
:102B0000F0E0CF01DF91CF9108950F931F93CF9302
:102B1000DF93009709F48CC0FC0132971382128274
:102B200000916804109169040115110581F4208158
:102B30003181820F931F209166043091670428171A
:102B4000390779F5F0936704E093660471C0D80102
:102B500040E050E0AE17BF0750F412962D913C9123
:102B60001397AD012115310509F1D901F3CF9D016D
:102B7000DA013383228360817181860F971F821768
:102B8000930769F4EC0128813981260F371F2E5FE6
:102B90003F4F318320838A819B8193838283452B9E
:102BA00029F4F0936904E093680442C01396FC93FF
:102BB000EE931297ED01499159919E01240F351F13
:102BC000E217F30771F480819181840F951F0296BB
:102BD00011969C938E938281938113969C938E93EE
:102BE0001297E0E0F0E0D80112968D919C91139736
:102BF000009719F0F8018C01F6CF8D919C91980106
:102C00002E5F3F4F820F931F20916604309167041F
:102C10002817390769F4309729F410926904109243
:102C2000680402C013821282109367040093660442
:102C3000DF91CF911F910F91089581E090E0F8947A
:102C400010C0FB01DC0102C001900D9241505040C8
:102C5000D8F70895DC0101C06D9341505040E0F772
:062C60000895F894FFCF77
:102C66007C047C047C047C047C047C047C047C045E
:102C760000006A04800000000000B8034607510304
:102C8600FE038203600374035265636569766564B7
:102C960020646174612066726F6D20736F75726354
:102CA60065200043414E207265636569766520653F
:102CB60072726F722E00564D4450565F317C315FF2
:102CC600564D4450560D0A0043414E206572726FB0
:102CD600722E0043414E20726563656976657220E7
:102CE6004D45474120696E697469616C697A65640E
:102CF6002E00456E71756575650049444C45005456
:082D06006D722053766300009A
:00000001FF
