:10000000BFC30000EEC30000ECC30000EAC3000061
:10001000E8C30000E6C30000E4C30000E2C3000040
:10002000E0C30000DEC30000DCC30000DAC3000050
:100030000C94A013D6C30000D4C30000D2C30000A8
:10004000D0C30000CEC30000CCC30000CAC3000070
:10005000C8C30000C6C30000C4C300000C94F11064
:10006000C0C300000C9406100C94DD0FBAC300004E
:10007000B8C30000B6C30000B4C30000B2C30000A0
:10008000B0C30000AEC30000ACC30000AAC30000B0
:10009000A8C30000A6C30000A4C30000A2C30000C0
:1000A000A0C300009EC300009CC300009AC30000D0
:1000B00098C3000096C3000094C3000092C30000E0
:1000C00090C300008EC300008CC300008AC30000F0
:1000D00088C3000086C3000084C3000082C3000000
:1000E00080C30000D118D118D1189E18F218FF183B
:1000F000D118D1189E18F2186B106E105D10611097
:100100006510A510721076107C10801084108A1073
:100110008E109210A51098109C10A01000000000E6
:10012000003E5B4F5B3E3E6B4F6B3E1C3E7C3E1C7D
:10013000183C7E3C181C577D571C1C5E7F5E1C00C3
:10014000183C1800FFE7C3E7FF0018241800FFE77A
:10015000DBE7FF30483A060E2629792926407F053D
:100160000507407F05253F5A3CE73C5A7F3E1C1C53
:1001700008081C1C3E7F14227F22145F5F005F5F13
:1001800006097F017F006689956A606060606094FF
:10019000A2FFA29408047E040810207E2010080804
:1001A0002A1C08081C2A08081E101010100C1E0C0F
:1001B0001E0C30383E3830060E3E0E0600000000A1
:1001C0000000005F00000007000700147F147F1488
:1001D000242A7F2A122313086462364956205000CD
:1001E00008070300001C2241000041221C002A1CB9
:1001F0007F1C2A08083E08080080703000080808A4
:100200000808000060600020100804023E514945C3
:100210003E00427F400072494949462141494D33E1
:100220001814127F1027454545393C4A4949314148
:10023000211109073649494936464949291E000016
:10024000140000004034000000081422411414146B
:100250001414004122140802015909063E415D5957
:100260004E7C1211127C7F494949363E4141412260
:100270007F4141413E7F494949417F090909013E8A
:10028000414151737F0808087F00417F41002040B1
:10029000413F017F081422417F404040407F021CC3
:1002A000027F7F0408107F3E4141413E7F090909DA
:1002B000063E4151215E7F091929462649494932A6
:1002C00003017F01033F4040403F1F2040201F3F6C
:1002D0004038403F631408146303047804036159F1
:1002E000494D43007F414141020408102000414133
:1002F000417F0402010204404040404000030708DF
:100300000020545478407F284444383844444428DA
:10031000384444287F385454541800087E09021881
:10032000A4A49C787F0804047800447D4000204009
:10033000403D007F1028440000417F40007C04784D
:1003400004787C080404783844444438FC18242495
:100350001818242418FC7C08040408485454542415
:1003600004043F44243C4040207C1C2040201C3C92
:100370004030403C44281028444C9090907C446489
:10038000544C44000836410000007700000041361C
:10039000080002010204023C2623263C1EA1A161A2
:1003A000123A4040207A38545455592155557941D4
:1003B0002254547842215554784020545579400CA9
:1003C0001E5272123955555559395454545939558C
:1003D0005454580000457C410002457D42000145CF
:1003E0007C407D1211127DF0282528F07C54554563
:1003F000002054547C547C0A097F493249494932CF
:100400003A4444443A324A4848303A4141217A3ADF
:1004100042402078009DA0A07D3D4242423D3D40AB
:1004200040403D3C24FF2424487E4943662B2FFC5A
:100430002F2BFF0929F620C0887E09032054547908
:10044000410000447D413048484A32384040227AD9
:10045000007A0A0A727D0D19317D2629292F282656
:100460002929292630484D4020380808080808085E
:100470000808382F10C8ACBA2F102834FA00007BB7
:10048000000008142A142222142A140855005500CA
:1004900055AA55AA55AAFF55FF55FF000000FF00B9
:1004A000101010FF00141414FF001010FF00FF10B4
:1004B00010F010F0141414FC001414F700FF0000E6
:1004C000FF00FF1414F404FC141417101F10101F65
:1004D000101F1414141F00101010F0000000001F53
:1004E000101010101F10101010F010000000FF105E
:1004F0001010101010101010FF10000000FF14005A
:1005000000FF00FF00001F10170000FC04F414148B
:100510001710171414F404F40000FF00F714141457
:1005200014141414F700F7141414171410101F10D7
:100530001F141414F4141010F010F000001F101FFA
:100540000000001F14000000FC140000F010F01068
:1005500010FF10FF141414FF141010101F000000DF
:1005600000F010FFFFFFFFFFF0F0F0F0F0FFFFFFE3
:100570000000000000FFFF0F0F0F0F0F384444383A
:1005800044FC4A4A4A347E02020606027E027E0289
:1005900063554941633844443C04407E201E200694
:1005A000027E020299A5E7A5991C2A492A1C4C72D1
:1005B00001724C304A4D4D303048784830BC625A58
:1005C000463D3E494949007E0101017E2A2A2A2AE8
:1005D0002A44445F444440514A444040444A5140C4
:1005E0000000FF0103E080FF000008086B6B083685
:1005F00012362436060F090F0600001818000000F6
:100600001010003040FF0101001F01011E00191DE4
:100610001712003C3C3C3C000000000000000A0BAC
:1006200002090C0D0E080703040100000000000081
:1006300000000000000000000000000000000000BA
:100640000000000000000000121110000000000077
:10065000000000000000000000000000000000009A
:10066000000000002200250028002B002E00310091
:10067000340002010000050108010B010000210007
:10068000240027002A002D00300033000101000063
:10069000040107010A010505050507050808080802
:1006A000020202020A0A080804040404010101010A
:1006B0000101010103030303030303030407070705
:1006C0000C0C0C0C0C0C0C0C0202020206060606AA
:1006D000060606060B0B0B0B0B0B0B0B0102102077
:1006E0002008081020401020408002010201080468
:1006F00002010102040810204080804020100804FC
:100700000201800402018040201008040201080454
:100710000201010204081020408001020408102098
:10072000408080917D02882309F10FB6F8940F92E2
:10073000E091BD02F091BE02C681D781CE01029642
:100740000E94A2138091F20281508093F202809164
:100750007D02815080937D020F900FBE8F89988D0E
:100760000E948216CE010E948216DBCF8091CA02BF
:10077000823010F00E9464140E94940ED2CFCD1CDF
:1007800011241FBECFEFD1E2DEBFCDBF00E00CBF12
:1007900012E0A0E0B2E0E4E9FDE300E00BBF02C03C
:1007A00007900D92A837B107D9F723E0A8E7B2E088
:1007B00001C01D92A63DB207E1F713E0C0ECD3E003
:1007C00000E006C021970109802FFE010E947F1DD5
:1007D000CF3BD10780E00807A9F70E9419190C94B4
:1007E000C81E0ECC8EBD0DB407FEFDCF0895089532
:1007F0008CBD9DBD08950F931F93CF93DF931F92E0
:100800001F92CDB7DEB78C01809190039091910338
:100810006A837983EDDFD8019296ED91FC919397ED
:1008200080819A969C919A97982B90839096ED91BF
:10083000FC919197208199969C9190959223908319
:100840007981872FCFDF6A81862FCCDFD801909600
:10085000ED91FC919197908199968C91892B808351
:100860000F900F90DF91CF911F910F9108950F93EB
:100870001F93CF93DF931F92CDB7DEB78C0180918A
:100880009003909191036983B3DFD8019296ED9123
:10089000FC91939780819A969C919A97982B90833C
:1008A0009096ED91FC919197208199969C919095CD
:1008B000922390836981862F95DFD8019096ED91E0
:1008C000FC919197908199968C91892B80830F90C0
:1008D000DF91CF911F910F9108950F931F93CF93A5
:1008E000DF931F92CDB7DEB78C018091900390917A
:1008F000910369837DDFD8019296ED91FC919397E6
:1009000020819A969C919A979095922390839096A5
:10091000ED91FC919197208199969C9190959223CD
:1009200090836981862F5EDFD8019096ED91FC91CE
:100930009197908199968C91892B80830F90DF916C
:10094000CF911F910F910895CF93DF93EC016370C6
:100950006D8B623041F0633041F0613011F088E01E
:1009600005C088E603C088EC01C088EA8A8F80E869
:1009700090E0998788879B878A878B8D811103C038
:100980008A8D877F02C08A8D88608A8F66E3CE0158
:10099000A4DF6A8DCE01DF91CF9169CFAF92BF9274
:1009A000CF92DF92EF92FF920F931F93CF93DF933B
:1009B000EC015B017A0169016AE28FDF8D89B50183
:1009C000813021F0CE0117DFB60107C0605E7F4F96
:1009D000CE0111DFB601605E7F4FCE010CDF6BE20E
:1009E000CE017BDF8D89B701811108C0605E7F4F2A
:1009F000CE0101DFB801605E7F4F03C0CE01FBDE98
:100A0000B801CE01F8DE6CE2CE01DF91CF911F91EB
:100A10000F91FF90EF90DF90CF90BF90AF905DCFA0
:100A2000AF92BF92CF92DF92EF92FF920F931F93FC
:100A3000CF93DF936C015901E801FC0120853185DA
:100A4000621773079CF5828593854817590774F5DB
:100A5000FB01EA0DFB1D2E173F071CF45901A61AD6
:100A6000B70A9A012C0F3D1F821793071CF4EC0163
:100A7000C41BD50B8A010C0F1D1F015011099B01CE
:100A80002A0D3B1D21503109C60188DF1C161D06A9
:100A90006CF48501B701C6010230110524F0ABDE0C
:100AA00001501109F7CFA7DE2197F0CFDF91CF9149
:100AB0001F910F91FF90EF90DF90CF90BF90AF907C
:100AC0000895CF92DF92EF92FF920F931F93CF93EF
:100AD000DF937C01E9016801FC018085918568173D
:100AE0007907F4F42285338542175307CCF49B0130
:100AF0002C0F3D1F821793071CF4EC01C61BD70B6C
:100B00009B012C0F3D1F215031098A01C70146DF8F
:100B10001C161D062CF4B601C7016DDE2197F8CF17
:100B2000DF91CF911F910F91FF90EF90DF90CF90C9
:100B30000895CF92DF92EF92FF920F931F93CF937E
:100B4000DF937C01E9016801FC01808591856817CC
:100B50007907F4F48285938548175907CCF49A01F4
:100B60002C0F3D1F821793071CF4EC01C41BD50BFF
:100B70008A010C0F1D1F015011099B01C7010EDFD7
:100B80001C161D062CF4B601C70135DE2197F8CFDF
:100B9000DF91CF911F910F91FF90EF90DF90CF9059
:100BA0000895EF92FF920F931F93CF93DF93DC0191
:100BB0001896ED91FC9119976E177F07ECF41A9631
:100BC000ED91FC911B974E175F07B4F477FD14C0AD
:100BD00057FD12C0E9017C018A010F5F1F4F9B0185
:100BE0002F5F3F4FDBDEBE01C701DF91CF911F9129
:100BF0000F91FF90EF90FFCDDF91CF911F910F915B
:100C0000FF90EF900895CF92DF92EF92FF920F93B3
:100C10001F93CF93DF937C016B0100EA10E020E883
:100C200030E040E050E060E070E0B8DEC0E0D0E5E9
:100C3000B601C701E0DD2197D9F7DF91CF911F9170
:100C40000F91FF90EF90DF90CF900895DCCF61116E
:100C500002C060E201C061E240CE089580E090E011
:100C6000089544244A9493E0592E612C712CCFE7C7
:100C7000D0E08091790290917A024096811524E02B
:100C8000920728F490937A028093790204C010921C
:100C90007A0210927902A0917902B0917A0221E849
:100CA0003FEF4FEF5FEF0E94441DA30192010E94AE
:100CB000281D49015A018FE7880E911CA11CB11C07
:100CC000E12CF12C840127E030E040E050E060E0CE
:100CD00070E082E993E0A4DE8E0108191909EE2480
:100CE000EA94FE2C27E030E0A40160E070E082E9A5
:100CF00093E096DE0E948F1360E081E090E00E9416
:100D000020170E9429158111B4CF0E946414B1CF1D
:100D10000F931F93CF93DF93E0910303F0910403AC
:100D200082E08083E091FF02F09100031082E09165
:100D30000103F091020383E3808310920B03E0919F
:100D40000703F091080386E08083E0910503F091AA
:100D50000603808180618083E0910503F0910603A2
:100D6000808188608083E0910503F0910603808193
:100D700080688083E0910503F091060380818F7D78
:100D800080831092BD031092BE038091B7030E942E
:100D900066118091B6030E9466112091B60330E07F
:100DA000F901EA56F94FE491F0E0EE0FFF1FEE591A
:100DB000F94F859194919093B3038093B20340913E
:100DC000B70350E0FA01EA56F94F8491E82FF0E0BA
:100DD000EE0FFF1FEE59F94F859194919093B50353
:100DE0008093B403F901E452F94FE491E093BB031B
:100DF000FA01E452F94FE491E093BC03CFB7F894C1
:100E000080917802811124C0EBECF6E08491E1E15D
:100E1000F7E09491E82FF0E0EE0FFF1FE458F94F50
:100E2000A591B491EC91E92321F461E085E30E945E
:100E30003C1085E30E9466118CB580618CBD8CB539
:100E400080648CBD84E30E94661183E30E94661176
:100E5000809178028F5F80937802CFBF80E5809386
:100E6000900381E080939103E091B203F091B3038A
:100E700090818091BB038095892380838091B80302
:100E80008F3F19F10E94661161E08091B8030E94C2
:100E90003C1064EF71E080E090E00E94B91060E0E7
:100EA0008091B8030E943C1064EF71E080E090E014
:100EB0000E94B91061E08091B8030E943C1064EF79
:100EC00071E080E090E00E94B9101092AC0381E0E4
:100ED0008093AD0361E082E993E0FFDC64EF71E0B1
:100EE00080E090E00E94B91061E182E993E0F5DCD6
:100EF00065E070E080E090E00E94B9106AE382E96A
:100F000093E0EBDC65E082E993E0B1DC65E070E062
:100F100080E090E00E94B91066E282E993E0DDDCB7
:100F200064E082E993E0A3DC61E070E080E090E0BF
:100F30000E94B91062EF82E993E0CFDC61E082E9C0
:100F400093E095DC61E070E080E090E00E94B910F1
:100F500063E182E993E0C1DC66EB82E993E0BDDC0A
:100F60006FEF82E993E083DC66E082E993E07FDC67
:100F700060EE82E993E0B1DCC5E1D2E01C2F115FA5
:100F8000699182E993E073DC1C13FACF61EE82E988
:100F900093E0A3DCC6E0D2E01C2F115F699182E9E7
:100FA00093E065DC1C13FACF61EB82E993E095DCFA
:100FB00068E082E993E05BDC62E082E993E057DC81
:100FC00061E070E080E090E00E94B91064EB82E99B
:100FD00093E083DC67E082E993E049DC61E070E064
:100FE00080E090E00E94B91060EC82E993E075DC4B
:100FF0006AE082E993E03BDC62E082E993E037DC7F
:1010000061E070E080E090E00E94B91061EC82E95C
:1010100093E063DC62E082E993E029DC61E070E068
:1010200080E090E00E94B91065EC82E993E055DC25
:1010300060E582E993E01BDC63E682E993E017DC7C
:1010400061E070E080E090E00E94B91067EC82E916
:1010500093E043DC60E082E993E009DC61E070E06A
:1010600080E090E00E94B9106AE282E993E035DC0A
:1010700060E070E082E993E0BEDB60E870E082E966
:1010800093E0B9DB6BE282E993E027DC60E070E09B
:1010900082E993E0B0DB60EA70E082E993E0ABDBE9
:1010A00063E382E993E019DC60E270E082E993E0B7
:1010B000A2DB60E870E082E993E09DDB60E070E035
:1010C00082E993E098DB8091AD03811104C08091A7
:1010D000AC03877F03C08091AC0388608093AC032E
:1010E00060E082E993E030DC69E282E993E0F5DBDD
:1010F00061E070E080E090E00E94B9106CE282E96B
:1011000093E0EBDB61E070E080E090E00E94B910DA
:1011100060E070E082E993E076DD62E082E993E0EE
:1011200013DC60E070E082E993E06DDD81E08093A4
:10113000A8032FEF3FEF3093A3032093A203109255
:10114000A5031092A4038093A60380919A03909123
:101150009B03181619063CF480919C0390919D0303
:1011600018161906D4F068EE73E080E090E00E9453
:10117000B91010927A021092790200E010E021E09A
:1011800040E951E062E672E081E396E00E943B1B99
:10119000DF91CF911F910F91089500E010E020E0C2
:1011A00030E040E050E060E070E082E993E0F6DBA0
:1011B00010929F0310929E031092A1031092A0031D
:1011C000D2CF6F927F928F929F92AF92BF92CF9227
:1011D000DF92EF92FF920F931F93CF93DF93EC0177
:1011E0004B015A0169013801E881F9810284F385D4
:1011F000E02D1995E881F9810288F389E02D8701B6
:101200009601A501B401CE011995E881F981A501E6
:10121000460D571D415051090288F389E02D960172
:10122000B401CE011995E881F9810088F189E02D9A
:101230009301A501B401CE011995E881F981C80C8B
:10124000D91CB601615071090088F189E02D930124
:10125000A501CE011995E881F9810688F789E02D6D
:10126000CE01DF91CF911F910F91FF90EF90DF9012
:10127000CF90BF90AF909F908F907F906F90199478
:10128000CF92DF92EF92FF920F931F93CF93DF9352
:1012900000D000D0CDB7DEB76C01DC01ED91FC9140
:1012A0006217730789F4041715072CF4942F852F00
:1012B000A801092F182F041B150B98012F5F3F4F12
:1012C000048CF58DE02D12C04017510709F5261743
:1012D00037072CF4962F872FB901292F382F261B7B
:1012E000370B2F5F3F4F068CF78DE02D8701C6012E
:1012F000199526960FB6F894DEBF0FBECDBFDF91CD
:10130000CF911F910F91FF90EF90DF90CF900895B4
:101310000284F385E02D2D833E834B835C836983B8
:101320007A831995D601ED91FC910488F589E02D19
:101330002D813E814B815C8169817A81C60119953D
:10134000D601ED91FC910688F789E02DC60126961D
:101350000FB6F894DEBF0FBECDBFDF91CF911F91C6
:101360000F91FF90EF90DF90CF901994EF92FF9242
:101370000F931F93DC01ED91FC9111971A960D913B
:101380001C911B9718962D913C91199700A0F1A1E3
:10139000E02D7B0140E050E060E070E019951F9186
:1013A0000F91FF90EF9008954F925F926F927F920E
:1013B0008F929F92AF92BF92CF92DF92EF92FF9265
:1013C0000F931F93CF93DF931F921F92CDB7DEB77A
:1013D0006C015A0139014801DC01ED91FC91028454
:1013E000F385E02D69837A8319956981462E7A8188
:1013F000572E640C751CD601ED91FC9146145704D0
:101400006CF40088F189E02D87019401A501B201F7
:10141000C6011995BFEF4B1A5B0AEDCF0688F78915
:10142000E02DC6010F900F90DF91CF911F910F918A
:10143000FF90EF90DF90CF90BF90AF909F908F90F4
:101440007F906F905F904F901994AF92BF92CF9220
:10145000DF92EF92FF920F931F93CF93DF9300D011
:101460001F92CDB7DEB75C016901DC01ED91FC9103
:101470000284F385E02D4B835C8369837A8319951D
:10148000D501ED91FC9169817A819B012C0D3D1D67
:10149000215031090488F589E02D78014B815C8168
:1014A0008A01C5011995D501ED91FC910688F7894E
:1014B000E02DC5010F900F900F900F90DF91CF910D
:1014C0001F910F91FF90EF90DF90CF90BF90AF9062
:1014D0001994AF92BF92CF92DF92EF92FF920F9347
:1014E0001F93CF93DF9300D01F92CDB7DEB75C017F
:1014F0006901DC01ED91FC910284F385E02D4B83C1
:101500005C8369837A831995D501ED91FC914B81B8
:101510005C81C40ED51EB1E0CB1AD1080488F589D0
:10152000E02D7801860169817A819B01C5011995B9
:10153000D501ED91FC910688F789E02DC5010F904A
:101540000F900F900F90DF91CF911F910F91FF900F
:10155000EF90DF90CF90BF90AF9019940895EF92E5
:10156000FF920F931F93DC01ED91FC9100A0F1A17C
:10157000E02D19951F910F91FF90EF9008950F9313
:101580001F93DC01ED91FC91068CF78DE02D1995F0
:101590001F910F9108950F931F93DC01ED91FC9122
:1015A000048CF58DE02D19951F910F910895DC01A4
:1015B000ED91FC910084F185E02D199408952F920E
:1015C0003F924F925F926F927F928F929F92AF92D3
:1015D000BF92CF92DF92EF92FF920F931F93CF9320
:1015E000DF9300D0CDB7DEB74C017B836A836A01FD
:1015F000590117019801241B350B37FF03C03195A2
:1016000021953109C5014A815B81841B950B97FFA8
:1016100003C091958195910951E0598382179307F1
:1016200014F019820BC09A2D8B2D5801092F182FF9
:101630009A818B81DB82CA82C92ED82E8A819B81B6
:10164000A816B9065CF49C2D8D2D6801092F182F62
:101650009A818B81BB82AA82A92EB82E2501AA81EC
:10166000BB814A1A5B0A38016C187D0877FE03C0FB
:10167000719461947108720157FE03C0BFEFEB1AB9
:10168000FB0AF594E794C016D1061CF00FEF1FEF8C
:101690001FC001E010E01CC0D401ED91FC91B981A4
:1016A0000484F585E02D9101BB23C1F04A815B8163
:1016B000B601C4011995E618F708F7FE04C0C00E7C
:1016C000D11EE40CF51CEA81FB813196FB83EA8391
:1016D0004A815B81A416B506FCF604C0A6016A81A6
:1016E0007B81E7CF0F900F900F90DF91CF911F91EB
:1016F0000F91FF90EF90DF90CF90BF90AF909F90B1
:101700008F907F906F905F904F903F902F900895B3
:101710002F923F924F925F926F927F928F929F9201
:10172000AF92BF92CF92DF92EF92FF920F931F93EF
:10173000CF93DF93CDB7DEB76C970FB6F894DEBFCB
:101740000FBECDBF9C8F8B8F5B011A011F830E8351
:101750003701C982DC0158964D915C91599741152A
:10176000510509F0E5C018968D919C91199768175D
:1017700079070CF0CAC11A968D919C911B97281677
:1017800039060CF0C2C18C2C912CFB0136E0C39EB3
:10179000E00DF11D1124FB87EA871E161F060CF0D1
:1017A000B4C1C40133E0880F991F3A95E1F79D87D2
:1017B0008C87820D931D181619060CF0A6C157963A
:1017C0008C91811103C0203B08F02F5FAB8DBC8D45
:1017D000ED91FC9111970284F385E02DCD012A8FC4
:1017E00019952A8DB5E02B9F90011124F5013596AE
:1017F000FF87EE87BB82AA822501A9014A195B09EE
:10180000598B488BC10108969B8B8A8BE889F98993
:10181000E40DF51DE45EFE4F9491988761013D82D1
:101820002C82A885A0FF13C0AB8DBC8DED91FC91DF
:10183000B981B13031F40484F585E02D2E813F81EA
:1018400016C00684F785E02DEE80FF801AC0EE8179
:10185000FF816E167F06F1F0AB8DBC8DED91FC9192
:10186000B981B13051F40484F585E02D9301A601CE
:10187000B2018B8D9C8D19950DC00684F785E02DE6
:101880007301840194014C815D816A817B818B8D20
:101890009C8D1995E885E695E887FFEFCF1ADF0A5A
:1018A0002C813D81280D391D3D832C834A895B891C
:1018B000C416D50609F0B5CF5FEF451A550A8A81DF
:1018C0009B81880D991D9B838A83AE85BF854A16AF
:1018D0005B0609F09BCFEE81FF816E167F0609F44F
:1018E000F2C0EB8DFC8DA081B181F981F13079F4EA
:1018F000B5016B5F7F4F5096ED91FC91519783013D
:1019000028E030E0A1018B8D9C8D1995DCC06A85A3
:101910007B85681979091E96ED91FC911F977301DB
:101920000C851D859401A1018B8D9C8D1995CBC0D3
:10193000FA0134969491329765917491291BCB01E9
:10194000B7E02B9F800D911D1124FA012591349150
:101950003B8B2A8BFC01459154915B834A83FC01AC
:101960003296C490319654915E8732961491319696
:10197000D4908981823058F0612E012E000C7708B6
:10198000AD2D0D2C000CBB0BB987A88704C01986A0
:101990001886612C712CAB8DBC8DED91FC9111974B
:1019A0000284F385E02DCD011995B9818B2E912C00
:1019B000689CC001699C900D789C900D1124FC01DD
:1019C000EA0DFB1DFD87EC871C82712C612CE12F39
:1019D000110FFF0B95012E0F3F1F3B872A87AC0C81
:1019E000B11CA5014E0F5F1F5F8B4E8BC1018D0D8A
:1019F000911DD7FC9A95998F888F4E85641608F0B3
:101A000062C0862D90E048855985480F591F489D32
:101A10009001499D300D589D300D1124D901A20D22
:101A2000B31DB98BA88BAA84BB844C845D84DC80F5
:101A3000BA85DB1AE88DF98DE80FF91FFD8BEC8B69
:101A40008D2D8A0D2E893F89A216B306B9F18770B4
:101A500061F48A819B810196EA89FB89AA81BB8115
:101A6000EA0FFB1F74909B838A8377FE20C0AB8DA7
:101A7000BC8DED91FC91B981B13061F40484F585A0
:101A8000E02D2E813F814C895D89B5018B8D9C8D28
:101A900019950DC00684F785E02DEE80FF80840146
:101AA000940148895989B2018B8D9C8D1995770CC9
:101AB000EFEFAE1ABE0A480C591CC2CF3C813C0D58
:101AC0003C8363949ACFAB8DBC8DED91FC911197C3
:101AD0000688F789E02DCD016C960FB6F894DEBF2D
:101AE0000FBECDBFDF91CF911F910F91FF90EF906F
:101AF000DF90CF90BF90AF909F908F907F906F902E
:101B00005F904F903F902F9019946C960FB6F89479
:101B1000DEBF0FBECDBFDF91CF911F910F91FF9020
:101B2000EF90DF90CF90BF90AF909F908F907F907D
:101B30006F905F904F903F902F900895279A2F9A23
:101B40002FEF80E792E0215080409040E1F700C005
:101B500000001F9AF5CFE091AD02F091AE028081B6
:101B6000811103C08FEF9FEF0CC0E091AD02F091A7
:101B7000AE020580F681E02D0680F781E02D82819E
:101B8000938190938502809384020895FC01538D84
:101B9000448D252F30E0842F90E0821B930B541747
:101BA00010F0CF96089501970895FC01918D828DD4
:101BB000981761F0828DDF01A80FB11D5D968C91A1
:101BC000928D9F5F9F73928F90E008958FEF9FEFAC
:101BD0000895FC01918D828D981731F0828DE80F68
:101BE000F11D858D90E008958FEF9FEF0895FC0122
:101BF000918D228D892F90E0805C9F4F821B9109EF
:101C00008F739927089583EF92E0F1DF21E0892B0C
:101C100009F420E0822F0895FC01848DDF01A80FD4
:101C2000B11DA35ABF4F2C91848D90E001968F7304
:101C30009927848FA689B7892C93A089B1898C9123
:101C400080648C93938D848D981306C00288F389E9
:101C5000E02D80818F7D80830895EF92FF920F9316
:101C60001F93CF93DF93EC0181E0888F9B8D8C8D48
:101C7000981305C0E889F989808185FD23C0F62E77
:101C80000B8D10E00F5F1F4F0F731127E02E8C8D0F
:101C9000E8120BC00FB607FCFACFE889F9898081FA
:101CA00085FFF5CFCE01B8DFF2CF8B8DFE01E80FB7
:101CB000F11DE35AFF4FF0820B8FEA89FB89808187
:101CC000806207C0EE89FF896083E889F989808195
:101CD0008064808381E090E0DF91CF911F910F912C
:101CE000FF90EF900895CF93DF93EC01888D8823C8
:101CF000C1F0EA89FB89808185FD05C0A889B98981
:101D00008C9186FD0EC00FB607FCF5CF808185FF54
:101D1000F2CFA889B9898C9185FFEDCFCE017CDF08
:101D2000E8CFDF91CF91089580E090E0892B19F002
:101D30006ADF811125C080E090E0892B41F080E0CE
:101D400090E0892B21F00E94000081111CC080E0EE
:101D500090E0892B41F080E090E0892B21F00E94F7
:101D60000000811113C080E090E0892BA1F080E099
:101D700090E0892B81F00E94000081110AC0089533
:101D80000E940000D8CF0E940000E1CF0E94000016
:101D9000EACF0C94000008953FB7F89480918B022D
:101DA00090918C02A0918D02B0918E0226B5A89BD5
:101DB00005C02F3F19F00196A11DB11D3FBFBA2FDD
:101DC000A92F982F8827820F911DA11DB11DBC013D
:101DD000CD0142E0660F771F881F991F4A95D1F702
:101DE00008950895FC016370658B84819581268137
:101DF0003781613039F0633029F0918780873387EC
:101E000022870895318720879387828708950E94CB
:101E1000B41EAF92BF92CF92EF92FF920F931F9397
:101E2000CF93DF93EC01262F888D998D009709F0D1
:101E30003FC06A3059F41D861C862C898E859F858B
:101E400038E0239F800D911D112440C06D3009F4AE
:101E5000A8C08E898823C1F03C898C859D8546E089
:101E6000349F800D911D11244885598548175907C5
:101E70005CF41D861C868E859F8548E0349F800D0E
:101E8000911D11249F878E87EA88FB88088919890C
:101E90004E855F856C857D85CC88CE0139DC2C89AB
:101EA0008C859D8536E0239F800D911D112442C0B5
:101EB0006A3079F41D861C862C89FC013696E491E3
:101EC0008E859F852E9F800D911D11249F878E8763
:101ED00068C06D3009F465C0FC0134963491631715
:101EE00008F45FC03196E491E61708F45AC0FC018B
:101EF0003296A590B490462F50E0431B510937E02D
:101F0000349FB001359F700D1124A60EB71EF50148
:101F1000329634913196E491332311F0E1110DC0E2
:101F2000F5013496E4912C898C859D85E29F800D86
:101F3000911D11249D878C8734C0F50135964491FD
:101F40005E89552311F16C89E32FF0E0E40FF11D58
:101F500047FDFA956E9FD0016F9FB00D11244C85FF
:101F60005D854A0F5B1FE885F985E417F5076CF47A
:101F70001D861C86FC013696E4918E859F856E9F9A
:101F8000800D911D11249F878E87EA88FB88088920
:101F900019894E855F856C857D85CC88CE01B8DB3F
:101FA000BFCF81E090E0DF91CF911F910F91FF9023
:101FB000EF90CF90BF90AF9008951F920F920FB601
:101FC0000F9211240BB60F922F933F934F935F9371
:101FD0006F937F938F939F93AF93BF93EF93FF93F1
:101FE00083EF92E019DEFF91EF91BF91AF919F9146
:101FF0008F917F916F915F914F913F912F910F90B2
:102000000BBE0F900FBE0F901F9018951F920F924E
:102010000FB60F9211240BB60F922F938F939F93AD
:10202000EF93FF93E0910303F09104038081E0912B
:102030000903F0910A0382FD12C0908180910C0384
:102040008F5F8F7320910D03821751F0E0910C0385
:10205000F0E0ED50FD4F958F80930C0301C080811F
:10206000FF91EF919F918F912F910F900BBE0F9049
:102070000FBE0F901F901895362F90E0FC01E45E84
:10208000F94F4491FC01E452F94F2491FC01EA56C6
:10209000F94F9491992309F46BC0442309F455C076
:1020A00050E0FA013197E231F10508F04EC088277F
:1020B000E458FF4F8F4F0C947F1D809180008F77E5
:1020C00007C0809180008F7D03C080918000877F52
:1020D000809380003AC084B58F7702C084B58F7D2D
:1020E00084BD33C08091B0008F7703C08091B00071
:1020F0008F7D8093B00029C0809190008F7707C0BA
:10210000809190008F7D03C080919000877F8093A5
:1021100090001BC08091A0008F7707C08091A00025
:102120008F7D03C08091A000877F8093A0000DC0A9
:10213000809120018F7707C0809120018F7D03C09F
:1021400080912001877F80932001E92FF0E0EE0F3E
:10215000FF1FEE59F94FA591B4918FB7F894EC9108
:10216000311103C020952E2301C02E2B2C938FBF3D
:1021700008958F929F92AF92BF92CF92DF92EF928B
:10218000FF926B017C0108DE4B015C01C114D1049C
:10219000E104F104E9F000DEDC01CB0188199909C2
:1021A000AA09BB09883E9340A105B10578F321E057
:1021B000C21AD108E108F10888EE880E83E0981E63
:1021C000A11CB11CC114D104E104F10421F7DECF3C
:1021D000FF90EF90DF90CF90BF90AF909F908F9047
:1021E00008951F920F920FB60F9211242F933F93D1
:1021F0008F939F93AF93BF938091870290918802B2
:10220000A0918902B0918A023091860223E0230FC7
:102210002D3720F40196A11DB11D05C026E8230F1E
:102220000296A11DB11D2093860280938702909390
:102230008802A0938902B0938A0280918B029091C8
:102240008C02A0918D02B0918E020196A11DB11D4C
:1022500080938B0290938C02A0938D02B0938E0298
:10226000BF91AF919F918F913F912F910F900FBE92
:102270000F901F901895CF92DF92EF92FF920F93DD
:102280001F93CF93DF936C017A018B01C0E0D0E004
:10229000CE15DF0589F0D8016D918D01D601ED9144
:1022A000FC910190F081E02DC6011995892B11F464
:1022B0007E0102C02196ECCFC701DF91CF911F9123
:1022C0000F91FF90EF90DF90CF90089590E0FC0188
:1022D000E452F94F2491FC01EA56F94F8491882386
:1022E00099F090E0880F991FFC01E458F94FA591EF
:1022F000B491FC01EE59F94F859194918FB7F89400
:10230000EC91E22BEC938FBF08950F920FB6F894E7
:102310000F920BB60F920CB60F921F9211242F92B0
:102320003F924F925F926F927F928F929F92AF9265
:10233000BF92CF92DF92EF92FF920F931F932F9352
:102340003F934F935F936F937F938F939F93AF933D
:10235000BF93CF93DF93EF93FF93A091F002B091DF
:10236000F1020DB60D920EB60D9213BE8091A5022C
:102370008111F3C08091A8029091A90201969093D7
:10238000A9028093A802009799F52091AD0230919F
:10239000AE024091AB025091AC025093AE0240931A
:1023A000AD023093AC022093AB022091AA022F5FC2
:1023B0002093AA02E091AD02F091AE02208121119A
:1023C00007C02FEF3FEF309385022093840210C0A7
:1023D000E091AD02F091AE020580F681E02D06801D
:1023E000F781E02D2281338130938502209384028E
:1023F00020918402309185028217930710F420E027
:102400009CC020E019E0E091AD02F091AE02308175
:10241000311107C08FEF9FEF909385028093840264
:102420008CC0E091AD02F091AE020580F681E02D06
:102430000680F781E02D428153818417950728F4A7
:10244000509385024093840278C0AF014E5F5F4F86
:10245000A285B38564817581E680F780EB01FD82FA
:10246000EC82C681D7817B836A8311966D917C91C2
:1024700012976417750721F41296DC93CE93119787
:10248000138612863C9131503C933C91A489B589C6
:102490001097F9F066857785E088F188EB01FD8279
:1024A000EC82C089D1897B836A831196ED90FC9080
:1024B0001297BF01645F7F4FE616F70621F412966C
:1024C000DC93CE931197158A148A3C9131503C933A
:1024D0003C91A6893091EE023A1710F4A093EE02D7
:1024E0001A9FD0011124BD0166537D4F7B01DB0192
:1024F0001196CD91DC911297D583C4836C817D8137
:10250000778366836C817D81DB0113965C934E93A8
:1025100012975D834C83F386E286E70138813F5F43
:102520003883A091F002B091F102468956963C9111
:10253000431708F468CF21E066CFE091F002F091F4
:10254000F102E689D9E0ED9FF0011124E653FD4F39
:102550008081823040F021E006C080917B028F5F55
:1025600080937B0220E080917C02811103C02223B2
:1025700009F466C08091A502882321F081E0809350
:102580007C025EC010927C02A091F002B091F10238
:10259000E091F002F091F1022D913C918789908DAC
:1025A00082179307A8F08091F0029091F102809138
:1025B000F0029091F102279A2F9A2FEF67EA71E6C5
:1025C000215060407040E1F700C000001F9AF5CF35
:1025D0008091EE0269E001C08150482F50E0649F75
:1025E0009001659F300D1124F901E653FD4F908154
:1025F000992391F3A181B28112960D90BC91A02DE7
:10260000B283A18323533D4FA217B30731F412962F
:102610002D913C9113973283218399E0949FF0018F
:10262000959FF00D1124E653FD4F0180F281E02DBE
:10263000268137813093F1022093F0028093EE02DD
:10264000A091F002B091F102CD91CDBFDD91DEBF3E
:10265000FF91EF91DF91CF91BF91AF919F918F91BA
:102660007F916F915F914F913F912F911F910F91AA
:10267000FF90EF90DF90CF90BF90AF909F908F90A2
:102680007F906F905F904F903F902F901F900F9092
:102690000CBE0F900BBE0F900FBE0F900895FC0163
:1026A000DB010FB6F8940F924091A8025091A90255
:1026B000818192812D913C9111972F3F6FEF3607C9
:1026C000F1F07091AA026081761719F04817590746
:1026D000C0F4481B590B4217530770F4241B350BE9
:1026E0002D933C938091AA0280838091A8029091BF
:1026F000A9029283818303C01D921C9202C080E0D4
:1027000001C081E00F900FBE08950FB6F8940F92AC
:102710008091A8029091A9020F900FBE0895809118
:10272000A5028F5F8093A50208950FB6F8940F92CB
:10273000FC01928D0F900FBE81E0911180E0089511
:10274000E4DD1895CF93DF93FC01A085B1858281EC
:10275000938124813581EC013D832C83C481D58113
:102760009B838A8311968D919C9112978E179F0758
:1027700021F41296DC93CE931197118610868C91DA
:1027800081508C938C91DF91CF910895CF93DF93FB
:102790009C01FB01DC011196CD91DC911297D38352
:1027A000C2838C819D81958384838C819D81DC0192
:1027B00013967C936E9312977D836C833187208769
:1027C000F90180818F5F8083DF91CF9108950F930E
:1027D0001F93CF93DF93DC011596ED91FC91169733
:1027E000C681D7818E01045F1F4FC801ABDF809186
:1027F000A502811113C00A501109C801A3DF9E89E7
:102800008091EE02891710F49093EE02B9E09B9F3D
:10281000C0011124B80186539D4F03C0B80181EC5B
:1028200092E0B4DFE091F002F091F1029E89868996
:10283000891720F481E080937C0201C080E0DF9161
:10284000CF911F910F910895EF92FF920F931F93D5
:10285000CF93DF93EC010FB6F8940F921E8D7C019D
:1028600081E1E80EF11C01E0111654F489898823F6
:1028700039F0C701ACDF811100937C021150F4CF15
:102880008FEF8E8F0F900FBE0FB6F8940F921D8DA5
:102890007E0188E0E80EF11C01E0111654F48885F1
:1028A000882339F0C70193DF811100937C02115016
:1028B000F4CF8FEF8D8F0F900FBEDF91CF911F91CF
:1028C0000F91FF90EF9008950F920FB6F8940F922A
:1028D0000BB60F920CB60F921F9211242F923F92BB
:1028E0004F925F926F927F928F929F92AF92BF9220
:1028F000CF92DF92EF92FF920F931F932F933F930C
:102900004F935F936F937F938F939F93AF93BF93F7
:10291000CF93DF93EF93FF93A091F002B091F10278
:102920000DB60D920EB60D928091A502882321F06E
:1029300081E080937C025EC010927C02A091F00244
:10294000B091F102E091F002F091F1022D913C91F1
:102950008789908D82179307A8F08091F00290915B
:10296000F1028091F0029091F102279A2F9A2FEFB5
:1029700087EA91E6215080409040E1F700C00000D6
:102980001F9AF5CF8091EE0269E001C08150482F77
:1029900050E0649F9001659F300D1124F901E653CA
:1029A000FD4F9081992391F3A181B28112960D90F0
:1029B000BC91A02DB283A18323533D4FA217B3072F
:1029C00031F412962D913C9113973283218399E033
:1029D000949FF001959FF00D1124E653FD4F018067
:1029E000F281E02D268137813093F1022093F002AD
:1029F0008093EE02A091F002B091F102CD91CDBF93
:102A0000DD91DEBFFF91EF91DF91CF91BF91AF914B
:102A10009F918F917F916F915F914F913F912F91F6
:102A20001F910F91FF90EF90DF90CF90BF90AF90EC
:102A30009F908F907F906F905F904F903F902F90DE
:102A40001F900F900CBE0F900BBE0F900FBE0F90FB
:102A500008958F929F92AF92BF92CF92DF92EF92A2
:102A6000FF920F931F93CF93DF930FB6F8940F92BB
:102A70008091A50281508093A5028091A5028823B0
:102A800011F080E0EAC08091F2028823D1F3C0E027
:102A9000D0E029E0F22EEE24E3948091C102882355
:102AA00039F1E091C602F091C702C681D781CE010B
:102AB0000C9648DE8E010E5F1F4FC80143DE9E89D3
:102AC0008091EE02891710F49093EE02F99EC001F6
:102AD0001124B80186539D4F59DEE091F002F09128
:102AE000F1029E8986899817C0F2E0927C02D5CFC8
:102AF000CD2B09F030D8E0907B02EE2009F4A6C07F
:102B000089E0B82EAA24A394CC24CA94DC2C80910A
:102B1000A502811189C0C091A802D091A902219675
:102B2000D093A902C093A8022097B9F48091AD0276
:102B30009091AE022091AB023091AC023093AE0284
:102B40002093AD029093AC028093AB028091AA02D5
:102B50008F5F8093AA020E94AB0D809184029091B6
:102B60008502F12CC817D90708F44EC0E091AD02D8
:102B7000F091AE028081811105C0D0928502C09291
:102B8000840242C0E091AD02F091AE020580F68170
:102B9000E02D06811781D80112968D919C91139793
:102BA000C817D90728F490938502809384022CC01B
:102BB0004801B2E08B0E911CC401C4DDF801848988
:102BC0009589892B19F0C8010C96BCDDD801569661
:102BD0008C919091EE02981710F48093EE02B89EBB
:102BE000C0011124B40186539D4FD0DDE091F00265
:102BF000F091F102D80156969C918689981708F4B5
:102C0000B5CFFF24F394B2CFE091F002F091F1023E
:102C1000E689BE9EF0011124E653FD4F808182308B
:102C200048F0FF24F39406C080917B028F5F80936D
:102C30007B02F12C80917C02811101C0F110A092E5
:102C40007C02EA94E11063CF10927B0280917C02B7
:102C5000882309F416CF38DE81E00F900FBEDF9194
:102C6000CF911F910F91FF90EF90DF90CF90BF9089
:102C7000AF909F908F9008950F931F93CF93DF9302
:102C80008C01FB01808191818F3F2FEF920721F40E
:102C9000E801AF81B8850EC0D801139612962D9128
:102CA0003C911397E901488159818417950710F0E9
:102CB000D901F4CF12968D919C91139793838283BF
:102CC000EC01FD83EC83B583A4831396FC93EE9310
:102CD000129711870087F80180818F5F8083DF91D1
:102CE000CF911F910F910895FC01039692838183E8
:102CF0002FEF3FEF348323839683858390878783E9
:102D000010820895CF93DF93009739F0EC0107DD2F
:102D1000CE0192D7DF91CF919CCEDF91CF910895D4
:102D20000F931F93CF93DF931F921F92CDB7DEB700
:102D300089839A83F4DC89819A81E9D68C0189DEC2
:102D40000115110511F40E949E0DC8010F900F90FE
:102D5000DF91CF911F910F910895FC0173836283DE
:102D6000918780874617570778F0421B530B84855D
:102D7000958548175907C0F4BF016E5F7F4F80915A
:102D80008002909181020DC04217530718F4621718
:102D9000730750F4BF016E5F7F4F80918202909164
:102DA00083026ADF80E0089581E00895EF92FF9248
:102DB0000F931F93CF93DF93E0918202F0918302F0
:102DC0008081882351F10580F681E02D00811181F9
:102DD000C681D7817E0182E0E80EF11CC701B2DC1A
:102DE000E989FA89CE0119958E85813029F72C85DC
:102DF0003D85200F311F0217130758F43B832A83A8
:102E0000D987C887B701809182029091830234DF0D
:102E1000D3CFB801CE0199D5CFCF809180029091C8
:102E200081029093830280938202F0938102E09367
:102E30008002DF91CF911F910F91FF90EF90089545
:102E4000EF92FF920F931F93CF93DF931F92CDB713
:102E5000DEB77C010091A8021091A9028091F002D6
:102E60009091F102029669836DDC69818FEFE8161B
:102E7000F80691F4662381F06091F0027091F102FE
:102E80006E5F7F4F8FEA92E00F90DF91CF911F919D
:102E90000F91FF90EF907ACCE00EF11EE091F002DE
:102EA000F091F102F382E2826091F0027091F102FE
:102EB000E016F10670F48091AB029091AC026E5F67
:102EC0007F4F0F90DF91CF911F910F91FF90EF9067
:102ED000D3CE8091AD029091AE026E5F7F4FCCDE7B
:102EE0008091840290918502E816F90620F4F09210
:102EF0008502E09284020F90DF91CF911F910F9194
:102F0000FF90EF900895CF93DF93CDB7DEB72C9766
:102F10000FB6F894DEBF0FBECDBFE0918202F091F4
:102F200083028081FF24F394882339F0F12C0580FB
:102F3000F681E02D0081118102C000E010E0EFDB9E
:102F4000E4DB6C0180917E0290917F02C816D90665
:102F500018F42CDF81E001C080E0D0927F02C092A3
:102F60007E0281116CC0F1102DC0C016D10690F107
:102F700070DDE0918202F09183020580F681E02D00
:102F8000E680F780C7010296DDDBD7011E968C91A3
:102F90001E97813079F41C966D917C911D97600F7E
:102FA000711F9801A601C701D8DE882319F0B80166
:102FB000C701CBD4D7015196ED91FC915297C7012F
:102FC0001995BCC0E0918002F09181028081BB2400
:102FD000B3948111B12CE090A602F090A7020FB635
:102FE000F8940F92F701858D8F3F09F4158ED70164
:102FF0005E968C915E978F3F11F45E961C920F90B7
:103000000FBEF701828D811113C06091F0027091A3
:10301000F102645F7F4FC7014196B8DBB11004C075
:10302000C8018C199D0902C08FEF9FEF6B2D08DF3F
:10303000C7010ADC0EDD811181C046DC7FC009DDDD
:103040007DC0911109C08091AA028E838091A8024F
:103050009091A90298878F830F900FBE60DB0FB607
:10306000F8940F92D8015D968C915D978F3F11F483
:103070005D961C92F801868D8F3F09F4168E0F9095
:103080000FBEBE01675F7F4FCE01069608DB811140
:10309000C7C0C8014ADB882309F4BEC0E984FA84AA
:1030A0006091F0027091F102645F7F4FC601E4DD30
:1030B00061E0C701C5DEC801C7DBCBDC882309F4AA
:1030C000A9C091E00FB6F8940F92F801F28CFF209E
:1030D00009F498C0448D41113DC0FA94F801F28E74
:1030E0008085811150C00F900FBEF980F7FC26C07B
:1030F0000C811D81D8011A968D919C911B97892B6B
:1031000019F0C80102961EDB00DBAC0180917E0243
:1031100090917F024817590728F44B875C8746DE59
:103120005C854B8550937F0240937E028F2DFF0C70
:10313000990BAA0BBB0B8A30910568F10091A6028E
:103140001091A7021A86198690E06801B1E1CB0EB2
:10315000D11CB8CF50E086819781840F951F97834B
:103160008683228133818217930720F080819181A9
:1031700097838683D80116966D917C911797CE011F
:103180000196F6D5AACFC801089621DB882309F459
:10319000AACF9ADBA8CFFC018827EE58FF4F8F4FAC
:1031A000AEC4EA80FB80F801648575856E0D7F1DD5
:1031B0009701C801D2DD882309F4C0CFD801519608
:1031C000ED91FC915297C8011995F80186858130DF
:1031D00009F0B4CF84859585B701680F791FC801C0
:1031E000B4D3ACCF6A817B81D8011D967C936E935A
:1031F0001C97640F751F9A01C801AFDD9FCFC801EE
:1032000081DD9CCF29853A85232B09F01ACF0F90B9
:103210000FBE83CE59DB55CFC80116DB1ADC51CF68
:10322000C80112DB16DCC80180DA882309F449CF13
:1032300074CE789484B5826084BD84B5816084BD89
:1032400085B5826085BD85B5816085BD80916E0044
:10325000816080936E001092810080918100826075
:1032600080938100809181008160809381008091B2
:1032700080008160809380008091B10084608093A1
:10328000B1008091B00081608093B0008091910086
:103290008260809391008091910081608093910081
:1032A000809190008160809390008091A100826065
:1032B0008093A1008091A10081608093A100809102
:1032C000A00081608093A0008091210182608093A2
:1032D0002101809121018160809321018091200151
:1032E00081608093200180917A00846080937A00CD
:1032F00080917A00826080937A0080917A00816068
:1033000080937A0080917A00806880937A0010928E
:10331000C1000E94880603EA12E020E040EC50E081
:103320006AE672E081E993E0A6D1813009F0AEC08F
:103330000FB6F8940F928091A6029091A702892B64
:1033400009F046C088E992E0CFDC8FE892E0CCDC5F
:1033500088E992E090938302809382028FE892E062
:10336000909381028093800281E590E0D9DCEC01AA
:10337000009751F14F96998388838AE08B8F85E07F
:103380008C8F0FB6F8940F92288139819B8D4C8DCC
:10339000949FC0011124B901680F791F7B836A8350
:1033A0001A8E3D832C83841B9109820F931F9F8368
:1033B0008E838FEF8D8F8E8FCE01089695DCCE0198
:1033C000419692DC0F900FBED093A702C093A60245
:1033D0000F900FBE8091A6029091A702892B09F44D
:1033E00055C001EA12E023E045E550E06FE672E0E7
:1033F00083E897E140D1813009F048C0F8942FEF7D
:103400003FEF30938502209384028093EF02109265
:10341000A9021092A802A89520EC88E190E00FB6CE
:10342000F894A895809360000FBE20936000A0914F
:10343000F002B091F102CD91CDBFDD91DEBFFF91E1
:10344000EF91DF91CF91BF91AF919F918F917F913C
:103450006F915F914F913F912F911F910F91FF902D
:10346000EF90DF90CF90BF90AF909F908F907F9024
:103470006F905F904F903F902F901F900F900CBED9
:103480000F900BBE0F900FBE0F9008950E949E0DDF
:103490000E9488060E94940EFDCFAF92BF92CF92F9
:1034A000DF92EF92FF920F931F93CF93DF9300D0A1
:1034B0001F921F92CDB7DEB78C017B011D821C824B
:1034C00090E0580188E0A80EB11C0FB6F8940F9256
:1034D000F801228D838D281708F068C0D28C448DA6
:1034E00041113DC080819181892B09F04FC0F801C5
:1034F000E280F380E114F10411F480E02CC0F701C4
:1035000082A1815082A3268991A12917B1F381114B
:10351000F4CF5701F2E0AF0EB11CC50113D9F7018A
:1035200091A1968B492F50E024E030E0241B350B0D
:10353000358724878091EE02891710F49093EE026C
:1035400029E0249FC001259F900D1124B5018653C9
:103550009D4F1CD981E0F8011382128218C050E0FF
:10356000B701F8018481958103D4F801248D848109
:103570009581820F911D95838483228133818217E7
:10358000930720F0808191819583848380E0D39498
:10359000F801D28E9189992319F0C801419617D963
:1035A000811192D90F900FBE81E055C02C813D81D1
:1035B000232B19F40F900FBE4DC0911109C08091BB
:1035C000AA0289838091A8029091A9029B838A8391
:1035D0000F900FBEA4D80FB6F8940F92F801858D06
:1035E0008F3F09F4158EF801868D8F3F09F4168EF2
:1035F0000F900FBEBE016C5F7F4FCE0101964FD87A
:10360000811125C00FB6F8940F92F801928D838D29
:103610000F900FBE981317C0CC80DD802091F00270
:103620003091F102B901645F7F4FC50125DB61E094
:10363000C60106DCC80108D90CDA882311F091E034
:1036400044CF42D9FCCFC801FFD803DAF8CFC80174
:10365000FBD8FFD980E00F900F900F900F900F9044
:10366000DF91CF911F910F91FF90EF90DF90CF905E
:10367000BF90AF9008957F928F929F92AF92BF922A
:10368000CF92DF92EF92FF920F931F93CF93DF932E
:10369000982EC92E762E872EEA01D22ECA0140DB43
:1036A0005C01892B09F442C188E290E039DB7C019E
:1036B0000097D1F0DC015896BC92AE925797AE01BC
:1036C00065EA70E0C5015DD32197D7015796ED916A
:1036D000FC915897EC0FFD1FB701675E7F4FA72D38
:1036E000B82DCD01089606C0C5010CDB1FC1A81777
:1036F000B90749F09D014D91EB014993BE01E901E4
:1037000028812111F4CFD70190961C922D2D2430C1
:1037100008F023E0E7012E8B29A31AA21B861A8644
:103720001D8A1C8AF986E88684E090E0821B910954
:103730009D878C87FB8AEA8A1BA21CA21DA21EA25F
:103740001FA291E19083DF01119782E28C93119780
:1037500023E32C9311979C921197CC9211971C9272
:1037600011971C92119720E82C9311971C92119796
:103770001C9211971C92119722E02C93119723E031
:103780002C93119724E02C93119725E02C931197FB
:1037900026E02C93119727E02C93119728E02C9387
:1037A000119729E02C93119720E12C9311979C936A
:1037B000119792E19C93119793E19C93119794E157
:1037C0009C93119795E19C93119796E19C93119787
:1037D00097E19C93119798E19C93119799E19C93A1
:1037E000119790E29C93119791E29C9311978C937F
:1037F000119783E28C9311971C9211971C92119749
:1038000086E28C93119787E28C93119788E28C93D0
:10381000119789E28C93119780E38C93119781E340
:103820008C93B997F983E8830115110519F0F80114
:10383000F182E0820FB6F8940F928091F2028F5FCE
:103840008093F2028091F0029091F102892B89F528
:10385000F092F102E092F0028091F202813009F0E0
:103860003AC08AEC92E040DA83ED92E03DDA8CEDEA
:1038700092E03ADA85EE92E037DA88EC93E034DAD7
:103880008FEB93E031DA81EC92E02EDA88EB92E074
:103890002BDA8FEA92E028DA88EC93E09093AE027C
:1038A0008093AD028FEB93E09093AC028093AB02D8
:1038B00012C08091EF0281110EC0E091F002F091F0
:1038C000F1029689D70156968C91891720F0F092D3
:1038D000F102E092F0028091D1038F5F8093D103D7
:1038E000E7018E899091EE02981710F48093EE0212
:1038F000D9E08D9FC0011124B7016E5F7F4F8653C1
:103900009D4F0E94C6130F900FBE8091EF02882337
:1039100059F0E091F002F091F1029689F701868961
:10392000981710F40E94641481E001C08FEFDF91BA
:10393000CF911F910F91FF90EF90DF90CF90BF90AC
:10394000AF909F908F907F900895CF93DF9300D09A
:103950001F921F92CDB7DEB79C018091A602909175
:10396000A702009761F019827B836A833D832C83D1
:103970002091EF02222329F02091A50202C080E0CD
:1039800004C0BE016F5F7F4F88DD0F900F900F90D6
:103990000F900F90DF91CF910895E3EFF2E0138243
:1039A000128288EE93E0A0E0B0E084839583A68342
:1039B000B78388E292E09183808385EC90E09587DD
:1039C000848784EC90E09787868780EC90E0918BE9
:1039D000808B81EC90E0938B828B82EC90E0958BD6
:1039E000848B86EC90E0978B868B118E128E138ED3
:1039F000148EE0E9F3E080E580831182E2E9F3E0F0
:103A00001382128280E890E0958384839783868373
:103A10009187808793878287158A158614861786F3
:103A2000168681E0848B2FEF3FEF338B228B318B17
:103A3000208B868B178A118E108E8AE392E09183F9
:103A400080838AE084A389E085A38FEF86A308950D
:103A5000052E97FB16F400940FD057FD05D01ED00D
:103A600007FC02D046F408C050954095309521954A
:103A70003F4F4F4F5F4F089590958095709561959A
:103A80007F4F8F4F9F4F08952BD0A59F900DB49FD0
:103A9000900DA49F800D911D11240895A1E21A2E6E
:103AA000AA1BBB1BFD010DC0AA1FBB1FEE1FFF1FE2
:103AB000A217B307E407F50720F0A21BB30BE40B32
:103AC000F50B661F771F881F991F1A9469F7609579
:103AD0007095809590959B01AC01BD01CF01089533
:103AE000A29FB001B39FC001A39F700D811D11243F
:103AF000911DB29F700D811D1124911D0895EE0F2F
:103B0000FF1F881F8BBF0790F691E02D1994CF936C
:103B1000DF938230910510F482E090E0E091D403CD
:103B2000F091D50320E030E0C0E0D0E0309711F113
:103B30004081518148175907C0F04817590761F46F
:103B400082819381209719F09B838A832BC0909365
:103B5000D5038093D40326C02115310519F04217EF
:103B6000530718F49A01BE01DF01EF010280F381CF
:103B7000E02DDCCF2115310509F1281B390B24304C
:103B8000310590F412968D919C91139761157105F2
:103B900021F0FB019383828304C09093D50380932B
:103BA000D403FD01329644C0FD01E20FF31F81935F
:103BB0009193225031092D933C933AC02091D20326
:103BC0003091D303232B41F4209102023091030260
:103BD0003093D3032093D20320910002309101024D
:103BE0002115310541F42DB73EB7409104025091A3
:103BF0000502241B350BE091D203F091D303E217A9
:103C0000F307A0F42E1B3F0B2817390778F0AC01FF
:103C10004E5F5F4F2417350748F04E0F5F1F5093DC
:103C2000D3034093D2038193919302C0E0E0F0E08C
:103C3000CF01DF91CF9108950F931F93CF93DF931F
:103C4000009709F48CC0FC01329713821282009114
:103C5000D4031091D5030115110581F42081318120
:103C6000820F931F2091D2033091D3032817390775
:103C700079F5F093D303E093D20371C0D80140E00B
:103C800050E0AE17BF0750F412962D913C91139758
:103C9000AD012115310509F1D901F3CF9D01DA01FB
:103CA0003383228360817181860F971F8217930768
:103CB00069F4EC0128813981260F371F2E5F3F4FB1
:103CC000318320838A819B8193838283452B29F4CE
:103CD000F093D503E093D40342C01396FC93EE9384
:103CE0001297ED01499159919E01240F351FE2175A
:103CF000F30771F480819181840F951F02961196CC
:103D00009C938E938281938113969C938E931297AA
:103D1000E0E0F0E0D80112968D919C911397009706
:103D200019F0F8018C01F6CF8D919C9198012E5FCE
:103D30003F4F820F931F2091D2033091D303281756
:103D4000390769F4309729F41092D5031092D403FF
:103D500002C0138212821093D3030093D203DF9127
:103D6000CF911F910F91089581E090E0F89410C0D9
:103D7000FB01DC0102C001900D9241505040D8F788
:103D80000895DC0101C06D9341505040E0F7089563
:043D9000F894FFCFD5
:103D94000000D603800009182D0D13154048530C5C
:103DA4001D252E24293F262330281055B7401910ED
:103DB4001E020100000000002D0E3B11C60D730E03
:103DC400F70DD50DE90D00000000090F3B112E067B
:103DD4002D06D105DE0AD70AAF0ACB0ABF0ADF0ACD
:103DE400AE0AA404270699056105100526064009B4
:103DF400E108456E71756575650049444C4500548C
:083E04006D722053766300008B
:020000023000CC
:10E000000D9489F10D94B2F10D94B2F10D94B2F129
:10E010000D94B2F10D94B2F10D94B2F10D94B2F1F0
:10E020000D94B2F10D94B2F10D94B2F10D94B2F1E0
:10E030000D94B2F10D94B2F10D94B2F10D94B2F1D0
:10E040000D94B2F10D94B2F10D94B2F10D94B2F1C0
:10E050000D94B2F10D94B2F10D94B2F10D94B2F1B0
:10E060000D94B2F10D94B2F10D94B2F10D94B2F1A0
:10E070000D94B2F10D94B2F10D94B2F10D94B2F190
:10E080000D94B2F10D94B2F10D94B2F10D94B2F180
:10E090000D94B2F10D94B2F10D94B2F10D94B2F170
:10E0A0000D94B2F10D94B2F10D94B2F10D94B2F160
:10E0B0000D94B2F10D94B2F10D94B2F10D94B2F150
:10E0C0000D94B2F10D94B2F10D94B2F10D94B2F140
:10E0D0000D94B2F10D94B2F10D94B2F10D94B2F130
:10E0E0000D94B2F141546D656761323536300041AF
:10E0F000726475696E6F206578706C6F72657220DE
:10E1000073746B3530305632206279204D4C530099
:10E11000426F6F746C6F616465723E004875683F52
:10E1200000436F6D70696C6564206F6E203D200048
:10E130004350552054797065202020203D20005FF9
:10E140005F4156525F415243485F5F3D2000415658
:10E1500052204C696243205665723D20004743437C
:10E160002056657273696F6E203D20004350552024
:10E1700049442020202020203D20004C6F7720663D
:10E18000757365202020203D20004869676820665F
:10E190007573652020203D200045787420667573D6
:10E1A00065202020203D20004C6F636B2066757336
:10E1B000652020203D20004D617220203720323024
:10E1C000313300312E362E3800342E332E350056A2
:10E1D00023202020414444522020206F7020636F70
:10E1E00064652020202020696E73747275637469E1
:10E1F0006F6E2061646472202020496E74657272B3
:10E20000757074006E6F20766563746F7200726A49
:10E210006D702020006A6D70200057686174207056
:10E220006F72743A00506F7274206E6F7420737541
:10E2300070706F72746564004D7573742062652030
:10E2400061206C6574746572002000577269747483
:10E25000696E672045450052656164696E672045B7
:10E26000450045452065727220636E743D00504F35
:10E27000525400303D5A65726F2061646472003FF1
:10E280003D43505520737461747300403D454550C3
:10E29000524F4D207465737400423D426C696E6B41
:10E2A000204C454400453D44756D70204545505215
:10E2B0004F4D00463D44756D7020464C415348001B
:10E2C000483D48656C70004C3D4C69737420492F83
:10E2D0004F20506F72747300513D51756974005234
:10E2E0003D44756D702052414D00563D73686F7707
:10E2F00020696E7465727275707420566563746FF0
:10E30000727300593D506F727420626C696E6B00BD
:10E310002A0011241FBECFEFD1E2DEBFCDBF01E046
:10E320000CBF12E0A0E0B2E0EEE1FDEF03E00BBFB6
:10E3300002C007900D92A030B107D9F712E0A0E01B
:10E34000B2E001C01D92AE30B107E1F70F9460F367
:10E350000D948DFE01E20EBF0FEF0DBF11241FBE05
:10E360000D9460F30D9400F020E030E040ED57E0B4
:10E3700005C0FA013197F1F72F5F3F4F2817390792
:10E38000C0F308959C01260F311DC901A0E0B0E043
:10E390002F5F3F4FABBFFC018791882361F08093D3
:10E3A000C6008091C00086FFFCCF8091C0008064D1
:10E3B0008093C000EACF08958DE08093C6008091DD
:10E3C000C00086FFFCCF8091C00080648093C000B5
:10E3D0008AE08093C6008091C00086FFFCCF8091C8
:10E3E000C00080648093C00008950F94C2F10F9420
:10E3F000DCF10895FC019081992359F09093C600B7
:10E400008091C00086FFFCCF8091C0008064809323
:10E41000C0003196992379F70895282F982F929567
:10E420009F70892F805D8A3308F0895F8093C600D2
:10E430008091C00086FFFCCF8091C00080648093F3
:10E44000C000822F8F70982F905D9A3308F0995FEB
:10E450009093C6008091C00086FFFCCF8091C000E1
:10E4600080648093C00008959C01FB01853691056E
:10E470001CF46330710594F0C90164E670E00F94F8
:10E480002EFE605D7F4F6093C6008091C00086FFC6
:10E49000FCCF8091C00080648093C0002B30310598
:10E4A00014F43297B4F0C90164E670E00F942EFEC4
:10E4B0006AE070E00F942EFE605D7F4F6093C600AF
:10E4C0008091C00086FFFCCF8091C0008064809363
:10E4D000C000C9016AE070E00F942EFEC0968093E0
:10E4E000C6008091C00086FFFCCF8091C000806490
:10E4F0008093C00008951F93182F8EE692EE60E07F
:10E500000F94C2F11093C6008091C00086FFFCCF2B
:10E510008091C00080648093C0000F94DCF11F9153
:10E5200008952F923F924F925F926F927F928F92B7
:10E530009F92AF92BF92CF92DF92EF92FF920F9392
:10E540001F93DF93CF93CDB7DEB762970FB6F894E2
:10E55000DEBF0FBECDBF382E622ECA01DB015C01CB
:10E560006D01772420E2222E2E010894411C511CBB
:10E570008BC081E0A81680E0B80681E0C80680E084
:10E58000D80628F0C601AA27BB270F940DF2BB2797
:10E59000AD2D9C2D8B2D0F940DF28A2D0F940DF225
:10E5A0002092C6008091C00086FFFCCF8091C00001
:10E5B00080648093C0009DE29093C6008091C0006B
:10E5C00086FFFCCF8091C00080648093C0002092C1
:10E5D000C6008091C00086FFFCCF8091C00080649F
:10E5E0008093C00019828601750188249924A1E0D6
:10E5F0003A1651F03A1620F0B2E03B1661F409C029
:10E600000BBFF701779007C0C7010F9477FE782EF4
:10E6100002C0F7017080872D0F940DF22092C60082
:10E620008091C00086FFFCCF8091C0008064809301
:10E63000C000872D8052F401EF70F0708F3520F408
:10E64000E40DF51D708204C0E40DF51D8EE280839B
:10E650000894E11CF11C011D111D0894811C911CE2
:10E6600090E18916910409F0C2CF80E190E0A0E02A
:10E67000B0E0A80EB91ECA1EDB1E198AC2010F9493
:10E68000FAF10F94DCF16A94662009F072CF629679
:10E690000FB6F894DEBF0FBECDBFCF91DF911F91B3
:10E6A0000F91FF90EF90DF90CF90BF90AF909F9031
:10E6B0008F907F906F905F904F903F902F90089534
:10E6C0002F923F924F925F926F927F928F929F9282
:10E6D000AF92BF92CF92DF92EF92FF920F931F9370
:10E6E000DF93CF93CDB7DEB7CD53D1400FB6F894BB
:10E6F000DEBF0FBECDBF01E20EBF0FEF0DBF94B75F
:10E70000F894A89514BE80916000886180936000A1
:10E7100010926000789493FF05C0E0910002F091A0
:10E7200001021995279A2F9A8091C00082608093E8
:10E73000C00080E18093C40088E18093C1000000A4
:10E74000EE24FF24870144E0A42EB12CCC24DD2448
:10E7500024C0C5010197F1F70894E11CF11C011DCB
:10E76000111D21E2E2162EE4F20620E0020720E06D
:10E77000120718F031E0C32ED12CC801B70127ECE5
:10E780003BE140E050E00F9441FE611571058105C9
:10E79000910519F485B1805885B98091C00087FD35
:10E7A00003C0C114D104A9F2A6014F5F5F4FC25E3E
:10E7B000DE4F59834883CE51D140C25EDE4F8881FF
:10E7C0009981CE51D140019711F00D9410FEC05D9A
:10E7D000DE4F19821882C053D14060E0C15DDE4F28
:10E7E0001882CF52D14088249924C35DDE4F19820C
:10E7F0001882CD52D140C05EDE4F188219821A8233
:10E800001B82C052D140CE5CDE4F188219821A8220
:10E810001B82C253D140EE24FF2487010BBFF701B6
:10E8200007911691C45CDE4F19830883CC53D14005
:10E830000D940BFEC25EDE4F28813981CE51D1404E
:10E840002130310509F52091C600C25EDE4F1982E4
:10E850001882CE51D14022C02F5F3F4F4F4F5F4FA4
:10E86000213082E138078AE7480780E0580780F0C6
:10E87000C45CDE4FE881F981CC53D140EF5FFF4F9C
:10E8800019F0EE27FF27099420E030E040E050E047
:10E890008091C00087FFE0CF2091C600C35DDE4FAE
:10E8A00048815981CD52D1404F5F5F4FC35DDE4FEC
:10E8B00059834883CD52D140213209F063C64A3092
:10E8C000510508F05FC60894811C911C53E0851621
:10E8D000910409F059C600E010E018C081E280936D
:10E8E000C6008091C00086FFFCCF8091C00080648C
:10E8F0008093C0002F5F3F4F2931310579F70F9486
:10E90000DCF10F5F1F4F0530110519F020E030E0FA
:10E91000E5CF10920A0210920B0210920C02109294
:10E920000D02109206021092070210920802109235
:10E930000902109202021092030210920402109235
:10E9400005028FEE90EE60E00F94F5F180E191EE1C
:10E9500060E00F94C2F18091C00087FFFCCF9091DE
:10E96000C600903608F09F759032B8F09093C600BC
:10E970008091C00086FFFCCF8091C00080648093AE
:10E98000C000A0E2A093C6008091C00086FFFCCF2B
:10E990008091C00080648093C000983409F4D7C18E
:10E9A0009934B8F4923409F459C1933458F490333B
:10E9B00019F1903308F4E3C59F33A1F1903409F0C5
:10E9C000DEC5BDC0953409F470C1963409F0D7C5D1
:10E9D00098C1923509F42BC2933538F49C3409F46C
:10E9E000F5C1913509F0CBC518C2963509F445C279
:10E9F000993509F0C4C567C483E792EE62E00F94CD
:10EA0000F5F110920602109207021092080210927D
:10EA1000090210920A0210920B0210920C0210923C
:10EA20000D0213C18FE792EE62E00F94F5F18FEEC5
:10EA300090EE60E00F94F5F181E291EE60E00F94CA
:10EA4000C2F187EB91EE60E00F94F5F180E391EE77
:10EA500060E00F94C2F184EE90EE60E00F94F5F167
:10EA60008FE391EE60E00F94C2F186E090E061E008
:10EA700070E00F9434F20F94DCF18DE591EE60E0DC
:10EA80000F94C2F189EC91EE60E00F94F5F18EE401
:10EA900091EE60E00F94C2F183EC91EE60E00F9490
:10EAA000F5F18CE691EE60E00F94C2F18EE10F94E7
:10EAB0000DF288E90F940DF281E00F940DF20F949E
:10EAC000DCF18BE791EE60E00F94C2F119E0E0E039
:10EAD000F0E010935700E4918E2F0F940DF20F94F5
:10EAE000DCF18AE891EE60E00F94C2F1E3E0F0E03F
:10EAF00010935700E4918E2F0F940DF20F94DCF1D8
:10EB000089E991EE60E00F94C2F1E2E0F0E0109349
:10EB10005700E4918E2F0F940DF20F94DCF188EAE8
:10EB200091EE60E00F94C2F1E1E0F0E01093570045
:10EB30001491812F0F940DF20F94DCF107CF8BE825
:10EB400092EE62E00F94F5F18BE492EE60E00F94A8
:10EB5000F5F10F94DCF100E010E019C0C8016F2D51
:10EB60000F947FFEFF2031F489E492EE60E00F9471
:10EB7000C2F10BC0F092C6008091C00086FFFCCFAE
:10EB80008091C00080648093C0000F5F1F4FC80158
:10EB900081519F41A0E0B0E0ABBFFC01F790BAE229
:10EBA000FB1621F0E2E000301E07C1F60F94DCF105
:10EBB0000F94DCF187E592EE60E00F94F5F10F948D
:10EBC000DCF1CC24DD2400E010E01EC0C8010F946D
:10EBD00077FEF82E882331F489E492EE60E00F94FA
:10EBE000C2F10BC08093C6008091C00086FFFCCFAD
:10EBF0008091C00080648093C000FE1419F00894D6
:10EC0000C11CD11C0F5F1F4FC80181519F41A0E063
:10EC1000B0E0ABBFFC01E790FAE2EF1621F022E092
:10EC20000030120799F60F94DCF10F94DCF182E6C4
:10EC300092EE60E00F94C2F1C60161E070E00F94C3
:10EC400034F20F94DCF10F94DCF110920202109276
:10EC50000302109204021092050278CE89E992EE26
:10EC600062E00F94F5F1279A2F9A16C02F9880E052
:10EC700090E0E0EDF7E03197F1F7019684369105E9
:10EC8000C1F72F9A80E090E0E0EDF7E03197F1F7DF
:10EC9000019684369105C1F78091C00087FFE6CFC9
:10ECA0008091C00087FFFCCF64C485EA92EE62E0E9
:10ECB0000F94F5F140910202509103026091040219
:10ECC0007091050281E020E10F9491F2809102029F
:10ECD00090910302A0910402B091050280509F4FD1
:10ECE000AF4FBF4F8093020290930302A0930402A0
:10ECF000B093050280509041A040B04008F426CE69
:10ED0000A4CF83EB92EE62E00F94F5F140910602FE
:10ED100050910702609108027091090280E020E1A1
:10ED20000F9491F28091060290910702A09108023F
:10ED3000B091090280509F4FAF4FBF4F80930602A2
:10ED400090930702A0930802B0930902FFCD80ECD4
:10ED500092EE62E00F94F5F183E792EE60E00F949B
:10ED6000F5F18FE792EE60E00F94F5F18BE892EE0B
:10ED700060E00F94F5F189E992EE60E00F94F5F10F
:10ED800085EA92EE60E00F94F5F183EB92EE60E09D
:10ED90000F94F5F180EC92EE60E00F94F5F187ECC2
:10EDA00092EE60E00F94F5F188ED92EE60E00F9442
:10EDB000F5F18FED92EE60E00F94F5F18AEE92EEB0
:10EDC00060E00F94F5F183E093EEBDCD87EC92EE19
:10EDD00062E00F94F5F181E40F947BF282E40F94EA
:10EDE0007BF283E40F947BF284E40F947BF285E45E
:10EDF0000F947BF286E40F947BF287E40F947BF20E
:10EE000088E40F947BF28AE40F947BF28BE40F94F6
:10EE10007BF28CE40F947BF299CD88ED92EE62E068
:10EE20000F94F5F1772473948824992409C48FED05
:10EE300092EE62E00F94F5F140910A0250910B02BC
:10EE400060910C0270910D0282E020E10F9491F22A
:10EE500080910A0290910B02A0910C02B0910D02D8
:10EE600080509F4FAF4FBF4F80930A0290930B0289
:10EE7000A0930C02B0930D0269CD8AEE92EE62E08F
:10EE80000F94F5F184EE90EE60E00F94F5F18FECC5
:10EE900091EE60E00F94F5F1662477244301CC5D98
:10EEA000DE4F19821882C452D140D401C301B695F5
:10EEB000A79597958795CA5DDE4F88839983AA8326
:10EEC000BB83C652D140CC5DDE4FA881B981C4520C
:10EED000D1401196CC5DDE4FB983A883C452D14096
:10EEE000CD0162E070E00F9434F2B0E2B093C6005E
:10EEF0008091C00086FFFCCF8091C0008064809329
:10EF0000C000EDE2E093C6008091C00086FFFCCF18
:10EF10008091C00080648093C000F0E2F093C6004E
:10EF20008091C00086FFFCCF8091C00080648093F8
:10EF3000C000CA5DDE4FE880F9800A811B81C6529D
:10EF4000D140BB27A12F902F8F2D0F940DF2CA5DBA
:10EF5000DE4F8881C652D1400F940DF2B0E2FB2EF5
:10EF6000F092C6008091C00086FFFCCF8091C00067
:10EF700080648093C0000DE30093C6008091C000C0
:10EF800086FFFCCF8091C00080648093C00010E2B7
:10EF90001093C6008091C00086FFFCCF8091C00016
:10EFA00080648093C0008BBEF3012791C65DDE4F65
:10EFB0002883CA52D140A22EBB24CC24DD2408943D
:10EFC000611C711C811C911C8BBEF3018791282E42
:10EFD0003324442455240894611C711C811C911C09
:10EFE0008BBEF3013791C55DDE4F3883CB52D140E4
:10EFF0000894611C711C811C911C8BBEF30147910C
:10F00000C45DDE4F4883CC52D140ADEFEA2EAFEF66
:10F01000FA2EAFEF0A2FAFEF1A2F6E0C7F1C801E57
:10F02000911E142D032DF22CEE24EA0CFB1C0C1D5A
:10F030001D1D0F940DF220E22093C6008091C000A8
:10F0400086FFFCCF8091C00080648093C000C65DC5
:10F05000DE4F8881CA52D1400F940DF230E23093D6
:10F06000C6008091C00086FFFCCF8091C000806404
:10F070008093C000C45DDE4F8881CC52D1400F9494
:10F080000DF240E24093C6008091C00086FFFCCFA5
:10F090008091C00080648093C000C55DDE4F888190
:10F0A000CB52D1400F940DF250E25093C6008091A4
:10F0B000C00086FFFCCF8091C00080648093C000B8
:10F0C0008FEFE8168FEFF80680E0080780E018075A
:10F0D00031F484E092EE60E00F94C2F1DFC0D80119
:10F0E000C7018070907CA070B0708050904CA040A0
:10F0F000B040D1F52FEF3FE340E050E0E222F322B1
:10F1000004231523CA5DDE4FA880B980CA80DB8046
:10F11000C652D140AE0CBF1CC01ED11EAA0CBB1CD7
:10F12000CC1CDD1C8EE092EE60E00F94C2F1BB2798
:10F13000A12F902F8F2D0F940DF28E2D0F940DF285
:10F1400030E23093C6008091C00086FFFCCF8091F2
:10F15000C00080648093C0004EE34093C60080915D
:10F16000C00086FFFCCF87C08EE09EEFA0E0B0E03D
:10F17000E822F9220A231B239CE0E91694E9F90608
:10F1800090E0090790E0190709F088C0C45DDE4FE0
:10F19000A881CC52D140EA2EFF2400E010E0102FCD
:10F1A0000F2DFE2CEE24C55DDE4FB881CB52D14031
:10F1B000EB0EF11C011D111DD601C501817090706F
:10F1C000A070B070DC0199278827E80EF91E0A1F8D
:10F1D0001B1F20EF30E040E050E0A222B322C42207
:10F1E000D52241E1AA0CBB1CCC1CDD1C4A95D1F7F1
:10F1F000EA0CFB1C0C1D1D1D81E090E0A0E0B0E0BE
:10F20000282239224A225B2235E1220C331C441C7D
:10F21000551C3A95D1F7E20CF31C041D151D57013E
:10F220006801AA0CBB1CCC1CDD1C85E192EE60E0E1
:10F230000F94C2F1C801AA27BB270F940DF2BB2778
:10F24000A12F902F8F2D0F940DF28E2D0F940DF274
:10F2500090E29093C6008091C00086FFFCCF809121
:10F26000C00080648093C000AEE3A093C60080918C
:10F27000C00086FFFCCF8091C00080648093C000F6
:10F28000C601AA27BB270F940DF2BB27AD2D9C2DDD
:10F290008B2D0F940DF28A2D0F940DF20F94DCF14B
:10F2A000CC5DDE4FE881F981C452D140F99709F471
:10F2B0004DCBF4E0EF2EF12C012D112D6E0C7F1CA7
:10F2C000801E911EF2CD83E093EE62E00F94F5F183
:10F2D0008AE192EE60E00F94C2F18091C00087FF56
:10F2E000FCCF1091C6001F751093C6008091C0001E
:10F2F00086FFFCCF8091C00080648093C0000F9493
:10F30000DCF1812F81548A3108F036C1163409F4BA
:10F3100095C0173490F4133409F44EC0143430F40B
:10F320001134F1F0123409F01DC130C0143409F465
:10F3300059C0153409F016C16BC01A3409F4C4C0A1
:10F340001B3438F4173409F48FC0183409F00AC19B
:10F35000A1C01B3409F4D2C01C3409F003C1E8C0B9
:10F360008FEF81B90DC082B1809582B980E090E0C5
:10F37000E0EDF7E03197F1F70196883C9105C1F790
:10F380008091C00087FFEFCF12B8EFC08FEF84B934
:10F390000DC085B1809585B980E090E0E0EDF7E0A3
:10F3A0003197F1F70196883C9105C1F78091C00033
:10F3B00087FFEFCF15B8D9C08FEF87B90DC088B1DF
:10F3C000809588B980E090E0E0EDF7E03197F1F7C3
:10F3D0000196883C9105C1F78091C00087FFEFCF6F
:10F3E00018B8C3C08FEF8AB90DC08BB180958BB9A7
:10F3F00080E090E0E0EDF7E03197F1F70196883C8E
:10F400009105C1F78091C00087FFEFCF1BB8ADC059
:10F410008FEF8DB90DC08EB180958EB980E090E0F0
:10F42000E0EDF7E03197F1F70196883C9105C1F7DF
:10F430008091C00087FFEFCF1EB897C08FEF80BBD1
:10F440000DC081B3809581BB80E090E0E0EDF7E0F6
:10F450003197F1F70196883C9105C1F78091C00082
:10F4600087FFEFCF11BA81C08FEF83BB0DC084B38C
:10F47000809584BB80E090E0E0EDF7E03197F1F714
:10F480000196883C9105C1F78091C00087FFEFCFBE
:10F4900014BA6BC08FEF809301010FC080910201FD
:10F4A00080958093020180E090E0E0EDF7E03197F5
:10F4B000F1F70196883C9105C1F78091C00087FF64
:10F4C000EDCF1092020151C08FEF809304010FC065
:10F4D0008091050180958093050180E090E0E0ED4A
:10F4E000F7E03197F1F70196883C9105C1F78091DB
:10F4F000C00087FFEDCF1092050137C08FEF8093DA
:10F5000007010FC08091080180958093080180E079
:10F5100090E0E0EDF7E03197F1F70196883C910536
:10F52000C1F78091C00087FFEDCF109208011DC088
:10F530008FEF80930A010FC080910B01809580931B
:10F540000B0180E090E0E0EDF7E03197F1F70196F4
:10F55000883C9105C1F78091C00087FFEDCF1092E4
:10F560000B0103C085E292EEEEC98091C00087FFD7
:10F57000FCCF8091C600EAC988E392EEE4C98CE131
:10F5800091EEE1C988249924933011F1943028F444
:10F59000913089F09230B8F408C0953061F195301F
:10F5A000F0F0963009F048C043C02B3109F042C951
:10F5B00091E06BE13FC96227C15DDE4F2883CF52E6
:10F5C000D14092E037C9B22FA0E0622793E032C960
:10F5D000822F90E0A82BB92B622794E02BC92E3004
:10F5E00009F039C3622795E0C05DDE4F19821882A9
:10F5F000C053D1401FC9E1E0F0E0EC0FFD1FC05D3A
:10F60000DE4F08811981C053D140E00FF11F2083E4
:10F610000F5F1F4FC05DDE4F19830883C053D14079
:10F6200062270A171B0709F005C9D80196E002C92D
:10F63000261709F010C303C0973009F0FBC87724E0
:10F640009981933109F412C19431C8F4963009F4C8
:10F65000D8C0973050F4923009F406C1933009F4C1
:10F660006DC0913009F059C253C0913109F477C08F
:10F67000923108F0BBC0903109F04FC2F5C098310B
:10F6800009F487C0993150F4953109F4EFC09531F0
:10F6900008F4C6C1963109F040C2C2C19A3109F4DA
:10F6A0006CC09A3108F491C09B3109F45BC09D3164
:10F6B00009F033C29D81903359F48F81882311F46E
:10F6C0009EE11CC0813011F091E018C098E916C08D
:10F6D000892F807591F0903539F4E0E0F0E089E011
:10F6E0008093570094910AC0983539F4E3E0F0E034
:10F6F00089E080935700949101C090E01A821B82A8
:10F700008D818C831D829E831F8227E030E009C299
:10F710001A8288E08B8381E48C8386E58D8382E581
:10F720008E8389E48F8383E5888780E589878FE5E9
:10F730008A8782E38B872BE030E0F3C18A818139AD
:10F7400041F0823941F0803911F48FE005C080E04A
:10F7500003C082E001C08AE01A828B8344C0772410
:10F76000739482C08D81882311F48EE12CC0813086
:10F7700011F081E028C088E926C01A82E1E0F0E0BB
:10F7800089E08093570084918B831C8224E030E0D1
:10F79000C8C18B81803589F48C81883039F4E2E0EE
:10F7A000F0E089E08093570084910DC0E0E0F0E044
:10F7B00089E080935700849106C0E3E0F0E089E09F
:10F7C0008093570084911A82DFCF8D81836C99E0FA
:10F7D000E1E0F0E0082E90935700E89507B600FCB2
:10F7E000FDCF1A821B8223E030E09BC180EC8A832C
:10F7F000CE5CDE4F188219821A821B82C253D1401E
:10F800008EC18A8190E0A0E0B0E0582F44273327D2
:10F8100022278B8190E0A0E0B0E0DC0199278827C7
:10F82000282B392B4A2B5B2B8D8190E0A0E0B0E098
:10F83000282B392B4A2B5B2B8C8190E0A0E0B0E089
:10F84000BA2FA92F982F8827282B392B4A2B5B2BCF
:10F85000220F331F441F551FC05EDE4F288339839C
:10F860004A835B83C052D1401A8259C13A81C95C34
:10F87000DE4F3883C753D140CA5CDE4F1882C6536F
:10F88000D1408B81C82EDD24CA5CDE4F488159816E
:10F89000C653D140C42AD52A933109F082C0CE5C28
:10F8A000DE4F88819981AA81BB81C253D1408050AB
:10F8B000904CA340B04030F583E0CE5CDE4FE88052
:10F8C000F9800A811B81C253D140F70100935B008C
:10F8D00080935700E89507B600FCFDCFCE5CDE4F65
:10F8E000088119812A813B81C253D14000501F4FAA
:10F8F0002F4F3F4FCE5CDE4F088319832A833B8313
:10F90000C253D140C05EDE4F488159816A817B81FC
:10F91000C052D140DE011B9631E08C9111962C91A2
:10F9200011971296C75CDE4F2883C953D140C85C3B
:10F93000DE4F1882C853D14090E0C85CDE4FE881AA
:10F94000F981C853D1408E2B9F2B0C01FA01609393
:10F950005B0030935700E89511244E5F5F4F6F4F67
:10F960007F4F0EEFE02E0FEFF02ECE0CDF1CC114F8
:10F97000D10499F685E0C05EDE4F088119812A81A5
:10F980003B81C052D140F80120935B008093570027
:10F99000E89507B600FCFDCF81E180935700E8951C
:10F9A00035C0C05EDE4F88819981AA81BB81C0527B
:10F9B000D140B695A795979587957C018601ABE0D8
:10F9C000AA2EB12CAC0EBD1E0BC0D5016D915D01F0
:10F9D000C7010F947FFE0894E11CF11C01501040F8
:10F9E0000115110591F7A60160E070E0440F551F65
:10F9F000661F771FC05EDE4FE880F9800A811B8199
:10FA0000C052D1404E0D5F1D601F711F1A82C05E33
:10FA1000DE4F488359836A837B83C052D1407FC0C5
:10FA2000FA80C55CDE4FF882CB53D140C65CDE4F16
:10FA30001882CA53D1408B81C82EDD24C65CDE4FAC
:10FA400008811981CA53D140C02AD12A1A828981DA
:10FA5000BE016D5F7F4F843121F59601C05EDE4FA0
:10FA6000E880F9800A811B81C052D1400BBFF701A9
:10FA700087919691DB018C9311969C936E5F7F4FDB
:10FA8000D801C7010296A11DB11DC05EDE4F88835B
:10FA90009983AA83BB83C052D14022503040F1F6F3
:10FAA00036C0C05EDE4F288139814A815B81C052F9
:10FAB000D1400894C108D108760100E010E0089414
:10FAC000C11CD11C0894E11CF11C011D111DE20E8A
:10FAD000F31E041F151F21BDBB27A52F942F832FB5
:10FAE00082BD2F5F3F4F4F4F5F4FF89A80B5DB01CC
:10FAF0008D93BD012E153F054007510761F7C05E8C
:10FB0000DE4F288339834A835B83C052D1409601FC
:10FB10002D5F3F4FFB01108204C080EC8A8322E0FE
:10FB200030E08BE18093C6008091C00086FFFCCF5F
:10FB30008091C00080648093C000C15DDE4FF88179
:10FB4000CF52D140F093C6008091C00086FFFCCF19
:10FB50008091C00080648093C000432F3093C60022
:10FB60008091C00086FFFCCF8091C00080648093AC
:10FB7000C000922F2093C6008091C00086FFFCCF6A
:10FB80008091C00080648093C0008EE08093C600A6
:10FB90008091C00086FFFCCF8091C000806480937C
:10FBA000C00065E1C15DDE4FE880CF52D1406E25D7
:10FBB00069276427FE01319610C090819093C6009A
:10FBC0008091C00086FFFCCF31968091C000806498
:10FBD0008093C0006927215030402115310569F715
:10FBE0006093C6008091C00086FFFCCF8091C0006A
:10FBF00080648093C00085B1805885B9772081F4F6
:10FC0000C15DDE4F0881CF52D1400F5FC15DDE4F35
:10FC10000883CF52D14090E0A0E0B0E00D941AF4F8
:10FC200027982F9880E090E020ED37E0F901319798
:10FC3000F1F7019684369105C9F700008091C00064
:10FC40008D7F8093C00081E180935700E895EE2777
:10FC5000FF270994FFCF90E00D941AF497FB092E2B
:10FC600007260AD077FD04D02ED006D000201AF443
:10FC7000709561957F4F0895F6F7909581959F4F08
:10FC80000895A1E21A2EAA1BBB1BFD010DC0AA1FDD
:10FC9000BB1FEE1FFF1FA217B307E407F50720F0F5
:10FCA000A21BB30BE40BF50B661F771F881F991F70
:10FCB0001A9469F760957095809590959B01AC01B9
:10FCC000BD01CF010895AA1BBB1B51E107C0AA1FAC
